{
	"contracts/SmartMatrixForsage.sol": {
		"SmartMatrixForsage": {
			"abi": [
				{
					"inputs": [
						{
							"internalType": "address",
							"name": "ownerAddress",
							"type": "address"
						}
					],
					"stateMutability": "nonpayable",
					"type": "constructor"
				},
				{
					"anonymous": false,
					"inputs": [
						{
							"indexed": true,
							"internalType": "address",
							"name": "user",
							"type": "address"
						},
						{
							"indexed": true,
							"internalType": "address",
							"name": "from",
							"type": "address"
						},
						{
							"indexed": false,
							"internalType": "uint8",
							"name": "matrix",
							"type": "uint8"
						},
						{
							"indexed": false,
							"internalType": "uint8",
							"name": "level",
							"type": "uint8"
						},
						{
							"indexed": false,
							"internalType": "uint256",
							"name": "amount",
							"type": "uint256"
						}
					],
					"name": "EarningsCredited",
					"type": "event"
				},
				{
					"anonymous": false,
					"inputs": [
						{
							"indexed": true,
							"internalType": "address",
							"name": "receiver",
							"type": "address"
						},
						{
							"indexed": true,
							"internalType": "address",
							"name": "from",
							"type": "address"
						},
						{
							"indexed": false,
							"internalType": "uint8",
							"name": "matrix",
							"type": "uint8"
						},
						{
							"indexed": false,
							"internalType": "uint8",
							"name": "level",
							"type": "uint8"
						}
					],
					"name": "MissedEthReceive",
					"type": "event"
				},
				{
					"anonymous": false,
					"inputs": [
						{
							"indexed": true,
							"internalType": "address",
							"name": "user",
							"type": "address"
						},
						{
							"indexed": true,
							"internalType": "address",
							"name": "referrer",
							"type": "address"
						},
						{
							"indexed": false,
							"internalType": "uint8",
							"name": "matrix",
							"type": "uint8"
						},
						{
							"indexed": false,
							"internalType": "uint8",
							"name": "level",
							"type": "uint8"
						},
						{
							"indexed": false,
							"internalType": "uint8",
							"name": "place",
							"type": "uint8"
						}
					],
					"name": "NewUserPlace",
					"type": "event"
				},
				{
					"anonymous": false,
					"inputs": [
						{
							"indexed": true,
							"internalType": "address",
							"name": "user",
							"type": "address"
						},
						{
							"indexed": true,
							"internalType": "address",
							"name": "referrer",
							"type": "address"
						},
						{
							"indexed": true,
							"internalType": "uint256",
							"name": "userId",
							"type": "uint256"
						},
						{
							"indexed": false,
							"internalType": "uint256",
							"name": "referrerId",
							"type": "uint256"
						}
					],
					"name": "Registration",
					"type": "event"
				},
				{
					"anonymous": false,
					"inputs": [
						{
							"indexed": true,
							"internalType": "address",
							"name": "user",
							"type": "address"
						},
						{
							"indexed": true,
							"internalType": "address",
							"name": "currentReferrer",
							"type": "address"
						},
						{
							"indexed": true,
							"internalType": "address",
							"name": "caller",
							"type": "address"
						},
						{
							"indexed": false,
							"internalType": "uint8",
							"name": "matrix",
							"type": "uint8"
						},
						{
							"indexed": false,
							"internalType": "uint8",
							"name": "level",
							"type": "uint8"
						}
					],
					"name": "Reinvest",
					"type": "event"
				},
				{
					"anonymous": false,
					"inputs": [
						{
							"indexed": true,
							"internalType": "address",
							"name": "from",
							"type": "address"
						},
						{
							"indexed": true,
							"internalType": "address",
							"name": "receiver",
							"type": "address"
						},
						{
							"indexed": false,
							"internalType": "uint8",
							"name": "matrix",
							"type": "uint8"
						},
						{
							"indexed": false,
							"internalType": "uint8",
							"name": "level",
							"type": "uint8"
						}
					],
					"name": "SentExtraEthDividends",
					"type": "event"
				},
				{
					"anonymous": false,
					"inputs": [
						{
							"indexed": true,
							"internalType": "address",
							"name": "user",
							"type": "address"
						},
						{
							"indexed": true,
							"internalType": "address",
							"name": "referrer",
							"type": "address"
						},
						{
							"indexed": false,
							"internalType": "uint8",
							"name": "matrix",
							"type": "uint8"
						},
						{
							"indexed": false,
							"internalType": "uint8",
							"name": "level",
							"type": "uint8"
						}
					],
					"name": "Upgrade",
					"type": "event"
				},
				{
					"anonymous": false,
					"inputs": [
						{
							"indexed": true,
							"internalType": "address",
							"name": "user",
							"type": "address"
						},
						{
							"indexed": false,
							"internalType": "uint256",
							"name": "amount",
							"type": "uint256"
						}
					],
					"name": "Withdrawal",
					"type": "event"
				},
				{
					"stateMutability": "payable",
					"type": "fallback"
				},
				{
					"inputs": [],
					"name": "LAST_LEVEL",
					"outputs": [
						{
							"internalType": "uint8",
							"name": "",
							"type": "uint8"
						}
					],
					"stateMutability": "view",
					"type": "function"
				},
				{
					"inputs": [
						{
							"internalType": "uint8",
							"name": "matrix",
							"type": "uint8"
						},
						{
							"internalType": "uint8",
							"name": "level",
							"type": "uint8"
						}
					],
					"name": "buyNewLevel",
					"outputs": [],
					"stateMutability": "payable",
					"type": "function"
				},
				{
					"inputs": [
						{
							"internalType": "address",
							"name": "userAddress",
							"type": "address"
						},
						{
							"internalType": "uint8",
							"name": "level",
							"type": "uint8"
						}
					],
					"name": "findFreeX3Referrer",
					"outputs": [
						{
							"internalType": "address",
							"name": "",
							"type": "address"
						}
					],
					"stateMutability": "view",
					"type": "function"
				},
				{
					"inputs": [],
					"name": "getContractBalance",
					"outputs": [
						{
							"internalType": "uint256",
							"name": "",
							"type": "uint256"
						}
					],
					"stateMutability": "view",
					"type": "function"
				},
				{
					"inputs": [
						{
							"internalType": "address",
							"name": "_user",
							"type": "address"
						}
					],
					"name": "getUserBalance",
					"outputs": [
						{
							"internalType": "uint256",
							"name": "totalEarned",
							"type": "uint256"
						},
						{
							"internalType": "uint256",
							"name": "availableBalance",
							"type": "uint256"
						}
					],
					"stateMutability": "view",
					"type": "function"
				},
				{
					"inputs": [
						{
							"internalType": "uint256",
							"name": "",
							"type": "uint256"
						}
					],
					"name": "idToAddress",
					"outputs": [
						{
							"internalType": "address",
							"name": "",
							"type": "address"
						}
					],
					"stateMutability": "view",
					"type": "function"
				},
				{
					"inputs": [
						{
							"internalType": "address",
							"name": "user",
							"type": "address"
						}
					],
					"name": "isUserExists",
					"outputs": [
						{
							"internalType": "bool",
							"name": "",
							"type": "bool"
						}
					],
					"stateMutability": "view",
					"type": "function"
				},
				{
					"inputs": [],
					"name": "lastUserId",
					"outputs": [
						{
							"internalType": "uint256",
							"name": "",
							"type": "uint256"
						}
					],
					"stateMutability": "view",
					"type": "function"
				},
				{
					"inputs": [
						{
							"internalType": "uint8",
							"name": "",
							"type": "uint8"
						}
					],
					"name": "levelPrice",
					"outputs": [
						{
							"internalType": "uint256",
							"name": "",
							"type": "uint256"
						}
					],
					"stateMutability": "view",
					"type": "function"
				},
				{
					"inputs": [],
					"name": "owner",
					"outputs": [
						{
							"internalType": "address",
							"name": "",
							"type": "address"
						}
					],
					"stateMutability": "view",
					"type": "function"
				},
				{
					"inputs": [
						{
							"internalType": "address",
							"name": "referrerAddress",
							"type": "address"
						}
					],
					"name": "registrationExt",
					"outputs": [],
					"stateMutability": "payable",
					"type": "function"
				},
				{
					"inputs": [
						{
							"internalType": "uint256",
							"name": "",
							"type": "uint256"
						}
					],
					"name": "userIds",
					"outputs": [
						{
							"internalType": "address",
							"name": "",
							"type": "address"
						}
					],
					"stateMutability": "view",
					"type": "function"
				},
				{
					"inputs": [
						{
							"internalType": "address",
							"name": "",
							"type": "address"
						}
					],
					"name": "users",
					"outputs": [
						{
							"internalType": "uint256",
							"name": "id",
							"type": "uint256"
						},
						{
							"internalType": "address",
							"name": "referrer",
							"type": "address"
						},
						{
							"internalType": "uint256",
							"name": "partnersCount",
							"type": "uint256"
						},
						{
							"internalType": "uint256",
							"name": "totalEarned",
							"type": "uint256"
						},
						{
							"internalType": "uint256",
							"name": "availableBalance",
							"type": "uint256"
						}
					],
					"stateMutability": "view",
					"type": "function"
				},
				{
					"inputs": [
						{
							"internalType": "address",
							"name": "userAddress",
							"type": "address"
						},
						{
							"internalType": "uint8",
							"name": "level",
							"type": "uint8"
						}
					],
					"name": "usersActiveX3Levels",
					"outputs": [
						{
							"internalType": "bool",
							"name": "",
							"type": "bool"
						}
					],
					"stateMutability": "view",
					"type": "function"
				},
				{
					"inputs": [
						{
							"internalType": "address",
							"name": "userAddress",
							"type": "address"
						},
						{
							"internalType": "uint8",
							"name": "level",
							"type": "uint8"
						}
					],
					"name": "usersX3Matrix",
					"outputs": [
						{
							"internalType": "address",
							"name": "",
							"type": "address"
						},
						{
							"internalType": "address[]",
							"name": "",
							"type": "address[]"
						},
						{
							"internalType": "bool",
							"name": "",
							"type": "bool"
						}
					],
					"stateMutability": "view",
					"type": "function"
				},
				{
					"inputs": [],
					"name": "withdraw",
					"outputs": [],
					"stateMutability": "nonpayable",
					"type": "function"
				},
				{
					"inputs": [
						{
							"internalType": "uint256",
							"name": "_amount",
							"type": "uint256"
						}
					],
					"name": "withdrawAmount",
					"outputs": [],
					"stateMutability": "nonpayable",
					"type": "function"
				},
				{
					"stateMutability": "payable",
					"type": "receive"
				}
			],
			"devdoc": {
				"details": "Modified version with working withdrawals and simplified single-matrix system  Key Features: - User registration under referrers - 12 progressive levels (0.025 ETH to 51.2 ETH) - X3 matrix: 3 referral slots per level - Automatic matrix cycling and reinvestment - Balance tracking with withdrawal functionality  Changes from original Forsage: - Removed X6 matrix (complexity reduction) - Added working withdrawal system - Improved balance tracking (totalEarned + availableBalance) - Updated to Solidity 0.8+ (built-in overflow protection)",
				"kind": "dev",
				"methods": {
					"buyNewLevel(uint8,uint8)": {
						"details": "User must own previous level. Payment must match level price.",
						"params": {
							"level": "Level to purchase (2-12)",
							"matrix": "Matrix type (must be 1 for X3, X6 removed)"
						}
					},
					"constructor": {
						"details": "Owner is pre-registered with all levels active",
						"params": {
							"ownerAddress": "Address to set as owner (gets user ID 1)"
						}
					},
					"findFreeX3Referrer(address,uint8)": {
						"details": "Walks up referrer chain until finding active user",
						"params": {
							"level": "Level to check",
							"userAddress": "Starting user"
						},
						"returns": {
							"_0": "address First referrer with level active"
						}
					},
					"getContractBalance()": {
						"returns": {
							"_0": "uint256 Contract balance in wei"
						}
					},
					"getUserBalance(address)": {
						"params": {
							"_user": "Address to query"
						},
						"returns": {
							"availableBalance": "Withdrawable balance",
							"totalEarned": "Lifetime earnings"
						}
					},
					"isUserExists(address)": {
						"params": {
							"user": "Address to check"
						},
						"returns": {
							"_0": "bool True if user is registered"
						}
					},
					"registrationExt(address)": {
						"details": "Requires exactly 0.05 ETH payment. Activates level 1 automatically.",
						"params": {
							"referrerAddress": "Existing user to use as referrer"
						}
					},
					"usersActiveX3Levels(address,uint8)": {
						"params": {
							"level": "Level to check (1-12)",
							"userAddress": "User to check"
						},
						"returns": {
							"_0": "bool True if level is active"
						}
					},
					"usersX3Matrix(address,uint8)": {
						"params": {
							"level": "Level to query (1-12)",
							"userAddress": "User to query"
						},
						"returns": {
							"_0": "currentReferrer User's upline",
							"_1": "referrals Array of referral addresses",
							"_2": "blocked True if matrix blocked"
						}
					},
					"withdraw()": {
						"details": "Transfers all availableBalance to caller"
					},
					"withdrawAmount(uint256)": {
						"params": {
							"_amount": "Amount in wei to withdraw"
						}
					}
				},
				"title": "SmartMatrixForsage",
				"version": 1
			},
			"evm": {
				"assembly": "    /* \"contracts/SmartMatrixForsage.sol\":752:17886  contract SmartMatrixForsage {... */\n  mstore(0x40, 0xa0)\n    /* \"contracts/SmartMatrixForsage.sol\":2818:2819  2 */\n  0x02\n    /* \"contracts/SmartMatrixForsage.sol\":2790:2819  uint256 public lastUserId = 2 */\n  0x03\n  sstore\n    /* \"contracts/SmartMatrixForsage.sol\":4424:5290  constructor(address ownerAddress) {... */\n  callvalue\n  dup1\n  iszero\n  tag_1\n  jumpi\n  revert(0x00, 0x00)\ntag_1:\n  pop\n  mload(0x40)\n  sub(codesize, bytecodeSize)\n  dup1\n  bytecodeSize\n  dup4\n  codecopy\n  dup2\n  dup2\n  add\n  0x40\n  mstore\n  dup2\n  add\n  swap1\n  tag_2\n  swap2\n  swap1\n  tag_3\n  jump\t// in\ntag_2:\n    /* \"contracts/SmartMatrixForsage.sol\":4500:4501  0 */\n  0x00\n    /* \"contracts/SmartMatrixForsage.sol\":4476:4502  ownerAddress != address(0) */\n  0xffffffffffffffffffffffffffffffffffffffff\n  and\n    /* \"contracts/SmartMatrixForsage.sol\":4476:4488  ownerAddress */\n  dup2\n    /* \"contracts/SmartMatrixForsage.sol\":4476:4502  ownerAddress != address(0) */\n  0xffffffffffffffffffffffffffffffffffffffff\n  and\n  sub\n    /* \"contracts/SmartMatrixForsage.sol\":4468:4528  require(ownerAddress != address(0), \"Invalid owner address\") */\n  tag_6\n  jumpi\n  mload(0x40)\n  0x08c379a000000000000000000000000000000000000000000000000000000000\n  dup2\n  mstore\n  0x04\n  add\n  tag_7\n  swap1\n  tag_8\n  jump\t// in\ntag_7:\n  mload(0x40)\n  dup1\n  swap2\n  sub\n  swap1\n  revert\ntag_6:\n    /* \"contracts/SmartMatrixForsage.sol\":4622:4633  0.025 ether */\n  0x58d15e17628000\n    /* \"contracts/SmartMatrixForsage.sol\":4606:4616  levelPrice */\n  0x04\n    /* \"contracts/SmartMatrixForsage.sol\":4606:4619  levelPrice[1] */\n  0x00\n    /* \"contracts/SmartMatrixForsage.sol\":4617:4618  1 */\n  0x01\n    /* \"contracts/SmartMatrixForsage.sol\":4606:4619  levelPrice[1] */\n  0xff\n  and\n  dup2\n  mstore\n  0x20\n  add\n  swap1\n  dup2\n  mstore\n  0x20\n  add\n  0x00\n  keccak256\n    /* \"contracts/SmartMatrixForsage.sol\":4606:4633  levelPrice[1] = 0.025 ether */\n  dup2\n  swap1\n  sstore\n  pop\n    /* \"contracts/SmartMatrixForsage.sol\":4648:4655  uint8 i */\n  0x00\n    /* \"contracts/SmartMatrixForsage.sol\":4658:4659  2 */\n  0x02\n    /* \"contracts/SmartMatrixForsage.sol\":4648:4659  uint8 i = 2 */\n  swap1\n  pop\n    /* \"contracts/SmartMatrixForsage.sol\":4643:4743  for (uint8 i = 2; i <= LAST_LEVEL; i++) {... */\ntag_9:\n    /* \"contracts/SmartMatrixForsage.sol\":2433:2435  12 */\n  0x0c\n    /* \"contracts/SmartMatrixForsage.sol\":4661:4676  i <= LAST_LEVEL */\n  0xff\n  and\n    /* \"contracts/SmartMatrixForsage.sol\":4661:4662  i */\n  dup2\n    /* \"contracts/SmartMatrixForsage.sol\":4661:4676  i <= LAST_LEVEL */\n  0xff\n  and\n  gt\n    /* \"contracts/SmartMatrixForsage.sol\":4643:4743  for (uint8 i = 2; i <= LAST_LEVEL; i++) {... */\n  tag_10\n  jumpi\n    /* \"contracts/SmartMatrixForsage.sol\":4731:4732  2 */\n  0x02\n    /* \"contracts/SmartMatrixForsage.sol\":4713:4723  levelPrice */\n  0x04\n    /* \"contracts/SmartMatrixForsage.sol\":4713:4728  levelPrice[i-1] */\n  0x00\n    /* \"contracts/SmartMatrixForsage.sol\":4726:4727  1 */\n  0x01\n    /* \"contracts/SmartMatrixForsage.sol\":4724:4725  i */\n  dup5\n    /* \"contracts/SmartMatrixForsage.sol\":4724:4727  i-1 */\n  tag_12\n  swap2\n  swap1\n  tag_13\n  jump\t// in\ntag_12:\n    /* \"contracts/SmartMatrixForsage.sol\":4713:4728  levelPrice[i-1] */\n  0xff\n  and\n  0xff\n  and\n  dup2\n  mstore\n  0x20\n  add\n  swap1\n  dup2\n  mstore\n  0x20\n  add\n  0x00\n  keccak256\n  sload\n    /* \"contracts/SmartMatrixForsage.sol\":4713:4732  levelPrice[i-1] * 2 */\n  tag_14\n  swap2\n  swap1\n  tag_15\n  jump\t// in\ntag_14:\n    /* \"contracts/SmartMatrixForsage.sol\":4697:4707  levelPrice */\n  0x04\n    /* \"contracts/SmartMatrixForsage.sol\":4697:4710  levelPrice[i] */\n  0x00\n    /* \"contracts/SmartMatrixForsage.sol\":4708:4709  i */\n  dup4\n    /* \"contracts/SmartMatrixForsage.sol\":4697:4710  levelPrice[i] */\n  0xff\n  and\n  0xff\n  and\n  dup2\n  mstore\n  0x20\n  add\n  swap1\n  dup2\n  mstore\n  0x20\n  add\n  0x00\n  keccak256\n    /* \"contracts/SmartMatrixForsage.sol\":4697:4732  levelPrice[i] = levelPrice[i-1] * 2 */\n  dup2\n  swap1\n  sstore\n  pop\n    /* \"contracts/SmartMatrixForsage.sol\":4678:4681  i++ */\n  dup1\n  dup1\n  tag_16\n  swap1\n  tag_17\n  jump\t// in\ntag_16:\n  swap2\n  pop\n  pop\n    /* \"contracts/SmartMatrixForsage.sol\":4643:4743  for (uint8 i = 2; i <= LAST_LEVEL; i++) {... */\n  jump(tag_9)\ntag_10:\n  pop\n    /* \"contracts/SmartMatrixForsage.sol\":4769:4781  ownerAddress */\n  dup1\n    /* \"contracts/SmartMatrixForsage.sol\":4761:4781  owner = ownerAddress */\n  0xffffffffffffffffffffffffffffffffffffffff\n  and\n  0x80\n  dup2\n  0xffffffffffffffffffffffffffffffffffffffff\n  and\n  dup2\n  mstore\n  pop\n  pop\n    /* \"contracts/SmartMatrixForsage.sol\":4839:4856  User storage user */\n  0x00\n    /* \"contracts/SmartMatrixForsage.sol\":4859:4864  users */\n  0x00\n    /* \"contracts/SmartMatrixForsage.sol\":4859:4878  users[ownerAddress] */\n  0x00\n    /* \"contracts/SmartMatrixForsage.sol\":4865:4877  ownerAddress */\n  dup4\n    /* \"contracts/SmartMatrixForsage.sol\":4859:4878  users[ownerAddress] */\n  0xffffffffffffffffffffffffffffffffffffffff\n  and\n  0xffffffffffffffffffffffffffffffffffffffff\n  and\n  dup2\n  mstore\n  0x20\n  add\n  swap1\n  dup2\n  mstore\n  0x20\n  add\n  0x00\n  keccak256\n    /* \"contracts/SmartMatrixForsage.sol\":4839:4878  User storage user = users[ownerAddress] */\n  swap1\n  pop\n    /* \"contracts/SmartMatrixForsage.sol\":4898:4899  1 */\n  0x01\n    /* \"contracts/SmartMatrixForsage.sol\":4888:4892  user */\n  dup2\n    /* \"contracts/SmartMatrixForsage.sol\":4888:4895  user.id */\n  0x00\n  add\n    /* \"contracts/SmartMatrixForsage.sol\":4888:4899  user.id = 1 */\n  dup2\n  swap1\n  sstore\n  pop\n    /* \"contracts/SmartMatrixForsage.sol\":4933:4934  0 */\n  0x00\n    /* \"contracts/SmartMatrixForsage.sol\":4909:4913  user */\n  dup2\n    /* \"contracts/SmartMatrixForsage.sol\":4909:4922  user.referrer */\n  0x01\n  add\n  0x00\n    /* \"contracts/SmartMatrixForsage.sol\":4909:4935  user.referrer = address(0) */\n  0x0100\n  exp\n  dup2\n  sload\n  dup2\n  0xffffffffffffffffffffffffffffffffffffffff\n  mul\n  not\n  and\n  swap1\n  dup4\n  0xffffffffffffffffffffffffffffffffffffffff\n  and\n  mul\n  or\n  swap1\n  sstore\n  pop\n    /* \"contracts/SmartMatrixForsage.sol\":4966:4967  0 */\n  0x00\n    /* \"contracts/SmartMatrixForsage.sol\":4945:4949  user */\n  dup2\n    /* \"contracts/SmartMatrixForsage.sol\":4945:4963  user.partnersCount */\n  0x02\n  add\n    /* \"contracts/SmartMatrixForsage.sol\":4945:4967  user.partnersCount = 0 */\n  dup2\n  swap1\n  sstore\n  pop\n    /* \"contracts/SmartMatrixForsage.sol\":4996:4997  0 */\n  0x00\n    /* \"contracts/SmartMatrixForsage.sol\":4977:4981  user */\n  dup2\n    /* \"contracts/SmartMatrixForsage.sol\":4977:4993  user.totalEarned */\n  0x03\n  add\n    /* \"contracts/SmartMatrixForsage.sol\":4977:4997  user.totalEarned = 0 */\n  dup2\n  swap1\n  sstore\n  pop\n    /* \"contracts/SmartMatrixForsage.sol\":5031:5032  0 */\n  0x00\n    /* \"contracts/SmartMatrixForsage.sol\":5007:5011  user */\n  dup2\n    /* \"contracts/SmartMatrixForsage.sol\":5007:5028  user.availableBalance */\n  0x04\n  add\n    /* \"contracts/SmartMatrixForsage.sol\":5007:5032  user.availableBalance = 0 */\n  dup2\n  swap1\n  sstore\n  pop\n    /* \"contracts/SmartMatrixForsage.sol\":5068:5080  ownerAddress */\n  dup2\n    /* \"contracts/SmartMatrixForsage.sol\":5051:5062  idToAddress */\n  0x01\n    /* \"contracts/SmartMatrixForsage.sol\":5051:5065  idToAddress[1] */\n  0x00\n    /* \"contracts/SmartMatrixForsage.sol\":5063:5064  1 */\n  0x01\n    /* \"contracts/SmartMatrixForsage.sol\":5051:5065  idToAddress[1] */\n  dup2\n  mstore\n  0x20\n  add\n  swap1\n  dup2\n  mstore\n  0x20\n  add\n  0x00\n  keccak256\n  0x00\n    /* \"contracts/SmartMatrixForsage.sol\":5051:5080  idToAddress[1] = ownerAddress */\n  0x0100\n  exp\n  dup2\n  sload\n  dup2\n  0xffffffffffffffffffffffffffffffffffffffff\n  mul\n  not\n  and\n  swap1\n  dup4\n  0xffffffffffffffffffffffffffffffffffffffff\n  and\n  mul\n  or\n  swap1\n  sstore\n  pop\n    /* \"contracts/SmartMatrixForsage.sol\":5103:5115  ownerAddress */\n  dup2\n    /* \"contracts/SmartMatrixForsage.sol\":5090:5097  userIds */\n  0x02\n    /* \"contracts/SmartMatrixForsage.sol\":5090:5100  userIds[1] */\n  0x00\n    /* \"contracts/SmartMatrixForsage.sol\":5098:5099  1 */\n  0x01\n    /* \"contracts/SmartMatrixForsage.sol\":5090:5100  userIds[1] */\n  dup2\n  mstore\n  0x20\n  add\n  swap1\n  dup2\n  mstore\n  0x20\n  add\n  0x00\n  keccak256\n  0x00\n    /* \"contracts/SmartMatrixForsage.sol\":5090:5115  userIds[1] = ownerAddress */\n  0x0100\n  exp\n  dup2\n  sload\n  dup2\n  0xffffffffffffffffffffffffffffffffffffffff\n  mul\n  not\n  and\n  swap1\n  dup4\n  0xffffffffffffffffffffffffffffffffffffffff\n  and\n  mul\n  or\n  swap1\n  sstore\n  pop\n    /* \"contracts/SmartMatrixForsage.sol\":5180:5187  uint8 i */\n  0x00\n    /* \"contracts/SmartMatrixForsage.sol\":5190:5191  1 */\n  0x01\n    /* \"contracts/SmartMatrixForsage.sol\":5180:5191  uint8 i = 1 */\n  swap1\n  pop\n    /* \"contracts/SmartMatrixForsage.sol\":5175:5284  for (uint8 i = 1; i <= LAST_LEVEL; i++) {... */\ntag_18:\n    /* \"contracts/SmartMatrixForsage.sol\":2433:2435  12 */\n  0x0c\n    /* \"contracts/SmartMatrixForsage.sol\":5193:5208  i <= LAST_LEVEL */\n  0xff\n  and\n    /* \"contracts/SmartMatrixForsage.sol\":5193:5194  i */\n  dup2\n    /* \"contracts/SmartMatrixForsage.sol\":5193:5208  i <= LAST_LEVEL */\n  0xff\n  and\n  gt\n    /* \"contracts/SmartMatrixForsage.sol\":5175:5284  for (uint8 i = 1; i <= LAST_LEVEL; i++) {... */\n  tag_19\n  jumpi\n    /* \"contracts/SmartMatrixForsage.sol\":5269:5273  true */\n  0x01\n    /* \"contracts/SmartMatrixForsage.sol\":5229:5234  users */\n  0x00\n    /* \"contracts/SmartMatrixForsage.sol\":5229:5248  users[ownerAddress] */\n  0x00\n    /* \"contracts/SmartMatrixForsage.sol\":5235:5247  ownerAddress */\n  dup6\n    /* \"contracts/SmartMatrixForsage.sol\":5229:5248  users[ownerAddress] */\n  0xffffffffffffffffffffffffffffffffffffffff\n  and\n  0xffffffffffffffffffffffffffffffffffffffff\n  and\n  dup2\n  mstore\n  0x20\n  add\n  swap1\n  dup2\n  mstore\n  0x20\n  add\n  0x00\n  keccak256\n    /* \"contracts/SmartMatrixForsage.sol\":5229:5263  users[ownerAddress].activeX3Levels */\n  0x05\n  add\n    /* \"contracts/SmartMatrixForsage.sol\":5229:5266  users[ownerAddress].activeX3Levels[i] */\n  0x00\n    /* \"contracts/SmartMatrixForsage.sol\":5264:5265  i */\n  dup4\n    /* \"contracts/SmartMatrixForsage.sol\":5229:5266  users[ownerAddress].activeX3Levels[i] */\n  0xff\n  and\n  0xff\n  and\n  dup2\n  mstore\n  0x20\n  add\n  swap1\n  dup2\n  mstore\n  0x20\n  add\n  0x00\n  keccak256\n  0x00\n    /* \"contracts/SmartMatrixForsage.sol\":5229:5273  users[ownerAddress].activeX3Levels[i] = true */\n  0x0100\n  exp\n  dup2\n  sload\n  dup2\n  0xff\n  mul\n  not\n  and\n  swap1\n  dup4\n  iszero\n  iszero\n  mul\n  or\n  swap1\n  sstore\n  pop\n    /* \"contracts/SmartMatrixForsage.sol\":5210:5213  i++ */\n  dup1\n  dup1\n  tag_21\n  swap1\n  tag_17\n  jump\t// in\ntag_21:\n  swap2\n  pop\n  pop\n    /* \"contracts/SmartMatrixForsage.sol\":5175:5284  for (uint8 i = 1; i <= LAST_LEVEL; i++) {... */\n  jump(tag_18)\ntag_19:\n  pop\n    /* \"contracts/SmartMatrixForsage.sol\":4458:5290  {... */\n  pop\n    /* \"contracts/SmartMatrixForsage.sol\":4424:5290  constructor(address ownerAddress) {... */\n  pop\n    /* \"contracts/SmartMatrixForsage.sol\":752:17886  contract SmartMatrixForsage {... */\n  jump(tag_22)\n    /* \"#utility.yul\":88:205   */\ntag_24:\n    /* \"#utility.yul\":197:198   */\n  0x00\n    /* \"#utility.yul\":194:195   */\n  0x00\n    /* \"#utility.yul\":187:199   */\n  revert\n    /* \"#utility.yul\":334:460   */\ntag_26:\n    /* \"#utility.yul\":371:378   */\n  0x00\n    /* \"#utility.yul\":411:453   */\n  0xffffffffffffffffffffffffffffffffffffffff\n    /* \"#utility.yul\":404:409   */\n  dup3\n    /* \"#utility.yul\":400:454   */\n  and\n    /* \"#utility.yul\":389:454   */\n  swap1\n  pop\n    /* \"#utility.yul\":334:460   */\n  swap2\n  swap1\n  pop\n  jump\t// out\n    /* \"#utility.yul\":466:562   */\ntag_27:\n    /* \"#utility.yul\":503:510   */\n  0x00\n    /* \"#utility.yul\":532:556   */\n  tag_42\n    /* \"#utility.yul\":550:555   */\n  dup3\n    /* \"#utility.yul\":532:556   */\n  tag_26\n  jump\t// in\ntag_42:\n    /* \"#utility.yul\":521:556   */\n  swap1\n  pop\n    /* \"#utility.yul\":466:562   */\n  swap2\n  swap1\n  pop\n  jump\t// out\n    /* \"#utility.yul\":568:690   */\ntag_28:\n    /* \"#utility.yul\":641:665   */\n  tag_44\n    /* \"#utility.yul\":659:664   */\n  dup2\n    /* \"#utility.yul\":641:665   */\n  tag_27\n  jump\t// in\ntag_44:\n    /* \"#utility.yul\":634:639   */\n  dup2\n    /* \"#utility.yul\":631:666   */\n  eq\n    /* \"#utility.yul\":621:684   */\n  tag_45\n  jumpi\n    /* \"#utility.yul\":680:681   */\n  0x00\n    /* \"#utility.yul\":677:678   */\n  0x00\n    /* \"#utility.yul\":670:682   */\n  revert\n    /* \"#utility.yul\":621:684   */\ntag_45:\n    /* \"#utility.yul\":568:690   */\n  pop\n  jump\t// out\n    /* \"#utility.yul\":696:839   */\ntag_29:\n    /* \"#utility.yul\":753:758   */\n  0x00\n    /* \"#utility.yul\":784:790   */\n  dup2\n    /* \"#utility.yul\":778:791   */\n  mload\n    /* \"#utility.yul\":769:791   */\n  swap1\n  pop\n    /* \"#utility.yul\":800:833   */\n  tag_47\n    /* \"#utility.yul\":827:832   */\n  dup2\n    /* \"#utility.yul\":800:833   */\n  tag_28\n  jump\t// in\ntag_47:\n    /* \"#utility.yul\":696:839   */\n  swap3\n  swap2\n  pop\n  pop\n  jump\t// out\n    /* \"#utility.yul\":845:1196   */\ntag_3:\n    /* \"#utility.yul\":915:921   */\n  0x00\n    /* \"#utility.yul\":964:966   */\n  0x20\n    /* \"#utility.yul\":952:961   */\n  dup3\n    /* \"#utility.yul\":943:950   */\n  dup5\n    /* \"#utility.yul\":939:962   */\n  sub\n    /* \"#utility.yul\":935:967   */\n  slt\n    /* \"#utility.yul\":932:1051   */\n  iszero\n  tag_49\n  jumpi\n    /* \"#utility.yul\":970:1049   */\n  tag_50\n  tag_24\n  jump\t// in\ntag_50:\n    /* \"#utility.yul\":932:1051   */\ntag_49:\n    /* \"#utility.yul\":1090:1091   */\n  0x00\n    /* \"#utility.yul\":1115:1179   */\n  tag_51\n    /* \"#utility.yul\":1171:1178   */\n  dup5\n    /* \"#utility.yul\":1162:1168   */\n  dup3\n    /* \"#utility.yul\":1151:1160   */\n  dup6\n    /* \"#utility.yul\":1147:1169   */\n  add\n    /* \"#utility.yul\":1115:1179   */\n  tag_29\n  jump\t// in\ntag_51:\n    /* \"#utility.yul\":1105:1179   */\n  swap2\n  pop\n    /* \"#utility.yul\":1061:1189   */\n  pop\n    /* \"#utility.yul\":845:1196   */\n  swap3\n  swap2\n  pop\n  pop\n  jump\t// out\n    /* \"#utility.yul\":1202:1371   */\ntag_30:\n    /* \"#utility.yul\":1286:1297   */\n  0x00\n    /* \"#utility.yul\":1320:1326   */\n  dup3\n    /* \"#utility.yul\":1315:1318   */\n  dup3\n    /* \"#utility.yul\":1308:1327   */\n  mstore\n    /* \"#utility.yul\":1360:1364   */\n  0x20\n    /* \"#utility.yul\":1355:1358   */\n  dup3\n    /* \"#utility.yul\":1351:1365   */\n  add\n    /* \"#utility.yul\":1336:1365   */\n  swap1\n  pop\n    /* \"#utility.yul\":1202:1371   */\n  swap3\n  swap2\n  pop\n  pop\n  jump\t// out\n    /* \"#utility.yul\":1377:1548   */\ntag_31:\n    /* \"#utility.yul\":1517:1540   */\n  0x496e76616c6964206f776e657220616464726573730000000000000000000000\n    /* \"#utility.yul\":1513:1514   */\n  0x00\n    /* \"#utility.yul\":1505:1511   */\n  dup3\n    /* \"#utility.yul\":1501:1515   */\n  add\n    /* \"#utility.yul\":1494:1541   */\n  mstore\n    /* \"#utility.yul\":1377:1548   */\n  pop\n  jump\t// out\n    /* \"#utility.yul\":1554:1920   */\ntag_32:\n    /* \"#utility.yul\":1696:1699   */\n  0x00\n    /* \"#utility.yul\":1717:1784   */\n  tag_55\n    /* \"#utility.yul\":1781:1783   */\n  0x15\n    /* \"#utility.yul\":1776:1779   */\n  dup4\n    /* \"#utility.yul\":1717:1784   */\n  tag_30\n  jump\t// in\ntag_55:\n    /* \"#utility.yul\":1710:1784   */\n  swap2\n  pop\n    /* \"#utility.yul\":1793:1886   */\n  tag_56\n    /* \"#utility.yul\":1882:1885   */\n  dup3\n    /* \"#utility.yul\":1793:1886   */\n  tag_31\n  jump\t// in\ntag_56:\n    /* \"#utility.yul\":1911:1913   */\n  0x20\n    /* \"#utility.yul\":1906:1909   */\n  dup3\n    /* \"#utility.yul\":1902:1914   */\n  add\n    /* \"#utility.yul\":1895:1914   */\n  swap1\n  pop\n    /* \"#utility.yul\":1554:1920   */\n  swap2\n  swap1\n  pop\n  jump\t// out\n    /* \"#utility.yul\":1926:2345   */\ntag_8:\n    /* \"#utility.yul\":2092:2096   */\n  0x00\n    /* \"#utility.yul\":2130:2132   */\n  0x20\n    /* \"#utility.yul\":2119:2128   */\n  dup3\n    /* \"#utility.yul\":2115:2133   */\n  add\n    /* \"#utility.yul\":2107:2133   */\n  swap1\n  pop\n    /* \"#utility.yul\":2179:2188   */\n  dup2\n    /* \"#utility.yul\":2173:2177   */\n  dup2\n    /* \"#utility.yul\":2169:2189   */\n  sub\n    /* \"#utility.yul\":2165:2166   */\n  0x00\n    /* \"#utility.yul\":2154:2163   */\n  dup4\n    /* \"#utility.yul\":2150:2167   */\n  add\n    /* \"#utility.yul\":2143:2190   */\n  mstore\n    /* \"#utility.yul\":2207:2338   */\n  tag_58\n    /* \"#utility.yul\":2333:2337   */\n  dup2\n    /* \"#utility.yul\":2207:2338   */\n  tag_32\n  jump\t// in\ntag_58:\n    /* \"#utility.yul\":2199:2338   */\n  swap1\n  pop\n    /* \"#utility.yul\":1926:2345   */\n  swap2\n  swap1\n  pop\n  jump\t// out\n    /* \"#utility.yul\":2351:2437   */\ntag_33:\n    /* \"#utility.yul\":2386:2393   */\n  0x00\n    /* \"#utility.yul\":2426:2430   */\n  0xff\n    /* \"#utility.yul\":2419:2424   */\n  dup3\n    /* \"#utility.yul\":2415:2431   */\n  and\n    /* \"#utility.yul\":2404:2431   */\n  swap1\n  pop\n    /* \"#utility.yul\":2351:2437   */\n  swap2\n  swap1\n  pop\n  jump\t// out\n    /* \"#utility.yul\":2443:2623   */\ntag_34:\n    /* \"#utility.yul\":2491:2568   */\n  0x4e487b7100000000000000000000000000000000000000000000000000000000\n    /* \"#utility.yul\":2488:2489   */\n  0x00\n    /* \"#utility.yul\":2481:2569   */\n  mstore\n    /* \"#utility.yul\":2588:2592   */\n  0x11\n    /* \"#utility.yul\":2585:2586   */\n  0x04\n    /* \"#utility.yul\":2578:2593   */\n  mstore\n    /* \"#utility.yul\":2612:2616   */\n  0x24\n    /* \"#utility.yul\":2609:2610   */\n  0x00\n    /* \"#utility.yul\":2602:2617   */\n  revert\n    /* \"#utility.yul\":2629:2820   */\ntag_13:\n    /* \"#utility.yul\":2667:2671   */\n  0x00\n    /* \"#utility.yul\":2687:2705   */\n  tag_62\n    /* \"#utility.yul\":2703:2704   */\n  dup3\n    /* \"#utility.yul\":2687:2705   */\n  tag_33\n  jump\t// in\ntag_62:\n    /* \"#utility.yul\":2682:2705   */\n  swap2\n  pop\n    /* \"#utility.yul\":2719:2737   */\n  tag_63\n    /* \"#utility.yul\":2735:2736   */\n  dup4\n    /* \"#utility.yul\":2719:2737   */\n  tag_33\n  jump\t// in\ntag_63:\n    /* \"#utility.yul\":2714:2737   */\n  swap3\n  pop\n    /* \"#utility.yul\":2761:2762   */\n  dup3\n    /* \"#utility.yul\":2758:2759   */\n  dup3\n    /* \"#utility.yul\":2754:2763   */\n  sub\n    /* \"#utility.yul\":2746:2763   */\n  swap1\n  pop\n    /* \"#utility.yul\":2785:2789   */\n  0xff\n    /* \"#utility.yul\":2779:2783   */\n  dup2\n    /* \"#utility.yul\":2776:2790   */\n  gt\n    /* \"#utility.yul\":2773:2813   */\n  iszero\n  tag_64\n  jumpi\n    /* \"#utility.yul\":2793:2811   */\n  tag_65\n  tag_34\n  jump\t// in\ntag_65:\n    /* \"#utility.yul\":2773:2813   */\ntag_64:\n    /* \"#utility.yul\":2629:2820   */\n  swap3\n  swap2\n  pop\n  pop\n  jump\t// out\n    /* \"#utility.yul\":2826:2903   */\ntag_35:\n    /* \"#utility.yul\":2863:2870   */\n  0x00\n    /* \"#utility.yul\":2892:2897   */\n  dup2\n    /* \"#utility.yul\":2881:2897   */\n  swap1\n  pop\n    /* \"#utility.yul\":2826:2903   */\n  swap2\n  swap1\n  pop\n  jump\t// out\n    /* \"#utility.yul\":2909:3319   */\ntag_15:\n    /* \"#utility.yul\":2949:2956   */\n  0x00\n    /* \"#utility.yul\":2972:2992   */\n  tag_68\n    /* \"#utility.yul\":2990:2991   */\n  dup3\n    /* \"#utility.yul\":2972:2992   */\n  tag_35\n  jump\t// in\ntag_68:\n    /* \"#utility.yul\":2967:2992   */\n  swap2\n  pop\n    /* \"#utility.yul\":3006:3026   */\n  tag_69\n    /* \"#utility.yul\":3024:3025   */\n  dup4\n    /* \"#utility.yul\":3006:3026   */\n  tag_35\n  jump\t// in\ntag_69:\n    /* \"#utility.yul\":3001:3026   */\n  swap3\n  pop\n    /* \"#utility.yul\":3061:3062   */\n  dup3\n    /* \"#utility.yul\":3058:3059   */\n  dup3\n    /* \"#utility.yul\":3054:3063   */\n  mul\n    /* \"#utility.yul\":3083:3113   */\n  tag_70\n    /* \"#utility.yul\":3101:3112   */\n  dup2\n    /* \"#utility.yul\":3083:3113   */\n  tag_35\n  jump\t// in\ntag_70:\n    /* \"#utility.yul\":3072:3113   */\n  swap2\n  pop\n    /* \"#utility.yul\":3262:3263   */\n  dup3\n    /* \"#utility.yul\":3253:3260   */\n  dup3\n    /* \"#utility.yul\":3249:3264   */\n  div\n    /* \"#utility.yul\":3246:3247   */\n  dup5\n    /* \"#utility.yul\":3243:3265   */\n  eq\n    /* \"#utility.yul\":3223:3224   */\n  dup4\n    /* \"#utility.yul\":3216:3225   */\n  iszero\n    /* \"#utility.yul\":3196:3279   */\n  or\n    /* \"#utility.yul\":3173:3312   */\n  tag_71\n  jumpi\n    /* \"#utility.yul\":3292:3310   */\n  tag_72\n  tag_34\n  jump\t// in\ntag_72:\n    /* \"#utility.yul\":3173:3312   */\ntag_71:\n    /* \"#utility.yul\":2957:3319   */\n  pop\n    /* \"#utility.yul\":2909:3319   */\n  swap3\n  swap2\n  pop\n  pop\n  jump\t// out\n    /* \"#utility.yul\":3325:3492   */\ntag_17:\n    /* \"#utility.yul\":3362:3365   */\n  0x00\n    /* \"#utility.yul\":3385:3407   */\n  tag_74\n    /* \"#utility.yul\":3401:3406   */\n  dup3\n    /* \"#utility.yul\":3385:3407   */\n  tag_33\n  jump\t// in\ntag_74:\n    /* \"#utility.yul\":3376:3407   */\n  swap2\n  pop\n    /* \"#utility.yul\":3429:3433   */\n  0xff\n    /* \"#utility.yul\":3422:3427   */\n  dup3\n    /* \"#utility.yul\":3419:3434   */\n  sub\n    /* \"#utility.yul\":3416:3457   */\n  tag_75\n  jumpi\n    /* \"#utility.yul\":3437:3455   */\n  tag_76\n  tag_34\n  jump\t// in\ntag_76:\n    /* \"#utility.yul\":3416:3457   */\ntag_75:\n    /* \"#utility.yul\":3484:3485   */\n  0x01\n    /* \"#utility.yul\":3477:3482   */\n  dup3\n    /* \"#utility.yul\":3473:3486   */\n  add\n    /* \"#utility.yul\":3466:3486   */\n  swap1\n  pop\n    /* \"#utility.yul\":3325:3492   */\n  swap2\n  swap1\n  pop\n  jump\t// out\n    /* \"contracts/SmartMatrixForsage.sol\":752:17886  contract SmartMatrixForsage {... */\ntag_22:\n  mload(0x80)\n  codecopy(0x00, dataOffset(sub_0), dataSize(sub_0))\n  0x00\n  assignImmutable(\"0x5ae62207e7adee0b793bf869601474e77943fa4d9e3e0420f34d788e59bc19bd\")\n  return(0x00, dataSize(sub_0))\nstop\n\nsub_0: assembly {\n        /* \"contracts/SmartMatrixForsage.sol\":752:17886  contract SmartMatrixForsage {... */\n      mstore(0x40, 0x80)\n      jumpi(tag_1, lt(calldatasize, 0x04))\n      shr(0xe0, calldataload(0x00))\n      dup1\n      0x509222cd\n      gt\n      tag_20\n      jumpi\n      dup1\n      0x8da5cb5b\n      gt\n      tag_21\n      jumpi\n      dup1\n      0x8da5cb5b\n      eq\n      tag_15\n      jumpi\n      dup1\n      0xa87430ba\n      eq\n      tag_16\n      jumpi\n      dup1\n      0xbe389d57\n      eq\n      tag_17\n      jumpi\n      dup1\n      0xecabdf79\n      eq\n      tag_18\n      jumpi\n      dup1\n      0xfa45323d\n      eq\n      tag_19\n      jumpi\n      jump(tag_2)\n    tag_21:\n      dup1\n      0x509222cd\n      eq\n      tag_11\n      jumpi\n      dup1\n      0x6f9fb98a\n      eq\n      tag_12\n      jumpi\n      dup1\n      0x797eee24\n      eq\n      tag_13\n      jumpi\n      dup1\n      0x83ba31b2\n      eq\n      tag_14\n      jumpi\n      jump(tag_2)\n    tag_20:\n      dup1\n      0x348d4487\n      gt\n      tag_22\n      jumpi\n      dup1\n      0x348d4487\n      eq\n      tag_7\n      jumpi\n      dup1\n      0x3ccfd60b\n      eq\n      tag_8\n      jumpi\n      dup1\n      0x4635fd68\n      eq\n      tag_9\n      jumpi\n      dup1\n      0x47734892\n      eq\n      tag_10\n      jumpi\n      jump(tag_2)\n    tag_22:\n      dup1\n      0x0562b9f7\n      eq\n      tag_3\n      jumpi\n      dup1\n      0x07279e2a\n      eq\n      tag_4\n      jumpi\n      dup1\n      0x29c70400\n      eq\n      tag_5\n      jumpi\n      dup1\n      0x2a2d0c47\n      eq\n      tag_6\n      jumpi\n      jump(tag_2)\n    tag_1:\n      jumpi(tag_2, calldatasize)\n        /* \"contracts/SmartMatrixForsage.sol\":5581:5612  registration(msg.sender, owner) */\n      tag_25\n        /* \"contracts/SmartMatrixForsage.sol\":5594:5604  msg.sender */\n      caller\n        /* \"contracts/SmartMatrixForsage.sol\":5606:5611  owner */\n      immutable(\"0x5ae62207e7adee0b793bf869601474e77943fa4d9e3e0420f34d788e59bc19bd\")\n        /* \"contracts/SmartMatrixForsage.sol\":5581:5593  registration */\n      tag_26\n        /* \"contracts/SmartMatrixForsage.sol\":5581:5612  registration(msg.sender, owner) */\n      jump\t// in\n    tag_25:\n        /* \"contracts/SmartMatrixForsage.sol\":752:17886  contract SmartMatrixForsage {... */\n      stop\n    tag_2:\n        /* \"contracts/SmartMatrixForsage.sol\":5752:5754  20 */\n      0x14\n        /* \"contracts/SmartMatrixForsage.sol\":5733:5741  msg.data */\n      0x00\n      calldatasize\n        /* \"contracts/SmartMatrixForsage.sol\":5733:5748  msg.data.length */\n      swap1\n      pop\n        /* \"contracts/SmartMatrixForsage.sol\":5733:5754  msg.data.length == 20 */\n      sub\n        /* \"contracts/SmartMatrixForsage.sol\":5730:5893  if(msg.data.length == 20) {... */\n      tag_29\n      jumpi\n        /* \"contracts/SmartMatrixForsage.sol\":5770:5820  registration(msg.sender, bytesToAddress(msg.data)) */\n      tag_30\n        /* \"contracts/SmartMatrixForsage.sol\":5783:5793  msg.sender */\n      caller\n        /* \"contracts/SmartMatrixForsage.sol\":5795:5819  bytesToAddress(msg.data) */\n      tag_31\n        /* \"contracts/SmartMatrixForsage.sol\":5810:5818  msg.data */\n      0x00\n      calldatasize\n        /* \"contracts/SmartMatrixForsage.sol\":5795:5819  bytesToAddress(msg.data) */\n      dup1\n      dup1\n      0x1f\n      add\n      0x20\n      dup1\n      swap2\n      div\n      mul\n      0x20\n      add\n      mload(0x40)\n      swap1\n      dup2\n      add\n      0x40\n      mstore\n      dup1\n      swap4\n      swap3\n      swap2\n      swap1\n      dup2\n      dup2\n      mstore\n      0x20\n      add\n      dup4\n      dup4\n      dup1\n      dup3\n      dup5\n      calldatacopy\n      0x00\n      dup2\n      dup5\n      add\n      mstore\n      not(0x1f)\n      0x1f\n      dup3\n      add\n      and\n      swap1\n      pop\n      dup1\n      dup4\n      add\n      swap3\n      pop\n      pop\n      pop\n      pop\n      pop\n      pop\n      pop\n        /* \"contracts/SmartMatrixForsage.sol\":5795:5809  bytesToAddress */\n      tag_32\n        /* \"contracts/SmartMatrixForsage.sol\":5795:5819  bytesToAddress(msg.data) */\n      jump\t// in\n    tag_31:\n        /* \"contracts/SmartMatrixForsage.sol\":5770:5782  registration */\n      tag_26\n        /* \"contracts/SmartMatrixForsage.sol\":5770:5820  registration(msg.sender, bytesToAddress(msg.data)) */\n      jump\t// in\n    tag_30:\n        /* \"contracts/SmartMatrixForsage.sol\":5730:5893  if(msg.data.length == 20) {... */\n      jump(tag_33)\n    tag_29:\n        /* \"contracts/SmartMatrixForsage.sol\":5851:5882  registration(msg.sender, owner) */\n      tag_34\n        /* \"contracts/SmartMatrixForsage.sol\":5864:5874  msg.sender */\n      caller\n        /* \"contracts/SmartMatrixForsage.sol\":5876:5881  owner */\n      immutable(\"0x5ae62207e7adee0b793bf869601474e77943fa4d9e3e0420f34d788e59bc19bd\")\n        /* \"contracts/SmartMatrixForsage.sol\":5851:5863  registration */\n      tag_26\n        /* \"contracts/SmartMatrixForsage.sol\":5851:5882  registration(msg.sender, owner) */\n      jump\t// in\n    tag_34:\n        /* \"contracts/SmartMatrixForsage.sol\":5730:5893  if(msg.data.length == 20) {... */\n    tag_33:\n        /* \"contracts/SmartMatrixForsage.sol\":752:17886  contract SmartMatrixForsage {... */\n      stop\n        /* \"contracts/SmartMatrixForsage.sol\":14967:15483  function withdrawAmount(uint256 _amount) external {... */\n    tag_3:\n      callvalue\n      dup1\n      iszero\n      tag_35\n      jumpi\n      revert(0x00, 0x00)\n    tag_35:\n      pop\n      tag_36\n      0x04\n      dup1\n      calldatasize\n      sub\n      dup2\n      add\n      swap1\n      tag_37\n      swap2\n      swap1\n      tag_38\n      jump\t// in\n    tag_37:\n      tag_39\n      jump\t// in\n    tag_36:\n      stop\n        /* \"contracts/SmartMatrixForsage.sol\":15868:16021  function usersActiveX3Levels(address userAddress, uint8 level) public view returns(bool) {... */\n    tag_4:\n      callvalue\n      dup1\n      iszero\n      tag_40\n      jumpi\n      revert(0x00, 0x00)\n    tag_40:\n      pop\n      tag_41\n      0x04\n      dup1\n      calldatasize\n      sub\n      dup2\n      add\n      swap1\n      tag_42\n      swap2\n      swap1\n      tag_43\n      jump\t// in\n    tag_42:\n      tag_44\n      jump\t// in\n    tag_41:\n      mload(0x40)\n      tag_45\n      swap2\n      swap1\n      tag_46\n      jump\t// in\n    tag_45:\n      mload(0x40)\n      dup1\n      swap2\n      sub\n      swap1\n      return\n        /* \"contracts/SmartMatrixForsage.sol\":2398:2435  uint8 public constant LAST_LEVEL = 12 */\n    tag_5:\n      callvalue\n      dup1\n      iszero\n      tag_47\n      jumpi\n      revert(0x00, 0x00)\n    tag_47:\n      pop\n      tag_48\n      tag_49\n      jump\t// in\n    tag_48:\n      mload(0x40)\n      tag_50\n      swap2\n      swap1\n      tag_51\n      jump\t// in\n    tag_50:\n      mload(0x40)\n      dup1\n      swap2\n      sub\n      swap1\n      return\n        /* \"contracts/SmartMatrixForsage.sol\":2573:2619  mapping(uint256 => address) public idToAddress */\n    tag_6:\n      callvalue\n      dup1\n      iszero\n      tag_52\n      jumpi\n      revert(0x00, 0x00)\n    tag_52:\n      pop\n      tag_53\n      0x04\n      dup1\n      calldatasize\n      sub\n      dup2\n      add\n      swap1\n      tag_54\n      swap2\n      swap1\n      tag_38\n      jump\t// in\n    tag_54:\n      tag_55\n      jump\t// in\n    tag_53:\n      mload(0x40)\n      tag_56\n      swap2\n      swap1\n      tag_57\n      jump\t// in\n    tag_56:\n      mload(0x40)\n      dup1\n      swap2\n      sub\n      swap1\n      return\n        /* \"contracts/SmartMatrixForsage.sol\":2790:2819  uint256 public lastUserId = 2 */\n    tag_7:\n      callvalue\n      dup1\n      iszero\n      tag_58\n      jumpi\n      revert(0x00, 0x00)\n    tag_58:\n      pop\n      tag_59\n      tag_60\n      jump\t// in\n    tag_59:\n      mload(0x40)\n      tag_61\n      swap2\n      swap1\n      tag_62\n      jump\t// in\n    tag_61:\n      mload(0x40)\n      dup1\n      swap2\n      sub\n      swap1\n      return\n        /* \"contracts/SmartMatrixForsage.sol\":14396:14853  function withdraw() external {... */\n    tag_8:\n      callvalue\n      dup1\n      iszero\n      tag_63\n      jumpi\n      revert(0x00, 0x00)\n    tag_63:\n      pop\n      tag_64\n      tag_65\n      jump\t// in\n    tag_64:\n      stop\n        /* \"contracts/SmartMatrixForsage.sol\":2702:2744  mapping(uint256 => address) public userIds */\n    tag_9:\n      callvalue\n      dup1\n      iszero\n      tag_66\n      jumpi\n      revert(0x00, 0x00)\n    tag_66:\n      pop\n      tag_67\n      0x04\n      dup1\n      calldatasize\n      sub\n      dup2\n      add\n      swap1\n      tag_68\n      swap2\n      swap1\n      tag_38\n      jump\t// in\n    tag_68:\n      tag_69\n      jump\t// in\n    tag_67:\n      mload(0x40)\n      tag_70\n      swap2\n      swap1\n      tag_57\n      jump\t// in\n    tag_70:\n      mload(0x40)\n      dup1\n      swap2\n      sub\n      swap1\n      return\n        /* \"contracts/SmartMatrixForsage.sol\":17093:17344  function getUserBalance(address _user) external view returns (uint256 totalEarned, uint256 availableBalance) {... */\n    tag_10:\n      callvalue\n      dup1\n      iszero\n      tag_71\n      jumpi\n      revert(0x00, 0x00)\n    tag_71:\n      pop\n      tag_72\n      0x04\n      dup1\n      calldatasize\n      sub\n      dup2\n      add\n      swap1\n      tag_73\n      swap2\n      swap1\n      tag_74\n      jump\t// in\n    tag_73:\n      tag_75\n      jump\t// in\n    tag_72:\n      mload(0x40)\n      tag_76\n      swap3\n      swap2\n      swap1\n      tag_77\n      jump\t// in\n    tag_76:\n      mload(0x40)\n      dup1\n      swap2\n      sub\n      swap1\n      return\n        /* \"contracts/SmartMatrixForsage.sol\":16778:16886  function isUserExists(address user) public view returns (bool) {... */\n    tag_11:\n      callvalue\n      dup1\n      iszero\n      tag_78\n      jumpi\n      revert(0x00, 0x00)\n    tag_78:\n      pop\n      tag_79\n      0x04\n      dup1\n      calldatasize\n      sub\n      dup2\n      add\n      swap1\n      tag_80\n      swap2\n      swap1\n      tag_74\n      jump\t// in\n    tag_80:\n      tag_81\n      jump\t// in\n    tag_79:\n      mload(0x40)\n      tag_82\n      swap2\n      swap1\n      tag_46\n      jump\t// in\n    tag_82:\n      mload(0x40)\n      dup1\n      swap2\n      sub\n      swap1\n      return\n        /* \"contracts/SmartMatrixForsage.sol\":17463:17570  function getContractBalance() external view returns (uint256) {... */\n    tag_12:\n      callvalue\n      dup1\n      iszero\n      tag_83\n      jumpi\n      revert(0x00, 0x00)\n    tag_83:\n      pop\n      tag_84\n      tag_85\n      jump\t// in\n    tag_84:\n      mload(0x40)\n      tag_86\n      swap2\n      swap1\n      tag_62\n      jump\t// in\n    tag_86:\n      mload(0x40)\n      dup1\n      swap2\n      sub\n      swap1\n      return\n        /* \"contracts/SmartMatrixForsage.sol\":6116:6241  function registrationExt(address referrerAddress) external payable {... */\n    tag_13:\n      tag_87\n      0x04\n      dup1\n      calldatasize\n      sub\n      dup2\n      add\n      swap1\n      tag_88\n      swap2\n      swap1\n      tag_74\n      jump\t// in\n    tag_88:\n      tag_89\n      jump\t// in\n    tag_87:\n      stop\n        /* \"contracts/SmartMatrixForsage.sol\":16325:16633  function usersX3Matrix(address userAddress, uint8 level) public view returns(address, address[] memory, bool) {... */\n    tag_14:\n      callvalue\n      dup1\n      iszero\n      tag_90\n      jumpi\n      revert(0x00, 0x00)\n    tag_90:\n      pop\n      tag_91\n      0x04\n      dup1\n      calldatasize\n      sub\n      dup2\n      add\n      swap1\n      tag_92\n      swap2\n      swap1\n      tag_43\n      jump\t// in\n    tag_92:\n      tag_93\n      jump\t// in\n    tag_91:\n      mload(0x40)\n      tag_94\n      swap4\n      swap3\n      swap2\n      swap1\n      tag_95\n      jump\t// in\n    tag_94:\n      mload(0x40)\n      dup1\n      swap2\n      sub\n      swap1\n      return\n        /* \"contracts/SmartMatrixForsage.sol\":2890:2920  address public immutable owner */\n    tag_15:\n      callvalue\n      dup1\n      iszero\n      tag_96\n      jumpi\n      revert(0x00, 0x00)\n    tag_96:\n      pop\n      tag_97\n      tag_98\n      jump\t// in\n    tag_97:\n      mload(0x40)\n      tag_99\n      swap2\n      swap1\n      tag_57\n      jump\t// in\n    tag_99:\n      mload(0x40)\n      dup1\n      swap2\n      sub\n      swap1\n      return\n        /* \"contracts/SmartMatrixForsage.sol\":2483:2520  mapping(address => User) public users */\n    tag_16:\n      callvalue\n      dup1\n      iszero\n      tag_100\n      jumpi\n      revert(0x00, 0x00)\n    tag_100:\n      pop\n      tag_101\n      0x04\n      dup1\n      calldatasize\n      sub\n      dup2\n      add\n      swap1\n      tag_102\n      swap2\n      swap1\n      tag_74\n      jump\t// in\n    tag_102:\n      tag_103\n      jump\t// in\n    tag_101:\n      mload(0x40)\n      tag_104\n      swap6\n      swap5\n      swap4\n      swap3\n      swap2\n      swap1\n      tag_105\n      jump\t// in\n    tag_104:\n      mload(0x40)\n      dup1\n      swap2\n      sub\n      swap1\n      return\n        /* \"contracts/SmartMatrixForsage.sol\":8168:9150  function buyNewLevel(uint8 matrix, uint8 level) external payable {... */\n    tag_17:\n      tag_106\n      0x04\n      dup1\n      calldatasize\n      sub\n      dup2\n      add\n      swap1\n      tag_107\n      swap2\n      swap1\n      tag_108\n      jump\t// in\n    tag_107:\n      tag_109\n      jump\t// in\n    tag_106:\n      stop\n        /* \"contracts/SmartMatrixForsage.sol\":2975:3018  mapping(uint8 => uint256) public levelPrice */\n    tag_18:\n      callvalue\n      dup1\n      iszero\n      tag_110\n      jumpi\n      revert(0x00, 0x00)\n    tag_110:\n      pop\n      tag_111\n      0x04\n      dup1\n      calldatasize\n      sub\n      dup2\n      add\n      swap1\n      tag_112\n      swap2\n      swap1\n      tag_113\n      jump\t// in\n    tag_112:\n      tag_114\n      jump\t// in\n    tag_111:\n      mload(0x40)\n      tag_115\n      swap2\n      swap1\n      tag_62\n      jump\t// in\n    tag_115:\n      mload(0x40)\n      dup1\n      swap2\n      sub\n      swap1\n      return\n        /* \"contracts/SmartMatrixForsage.sol\":11963:12291  function findFreeX3Referrer(address userAddress, uint8 level) public view returns(address) {... */\n    tag_19:\n      callvalue\n      dup1\n      iszero\n      tag_116\n      jumpi\n      revert(0x00, 0x00)\n    tag_116:\n      pop\n      tag_117\n      0x04\n      dup1\n      calldatasize\n      sub\n      dup2\n      add\n      swap1\n      tag_118\n      swap2\n      swap1\n      tag_43\n      jump\t// in\n    tag_118:\n      tag_119\n      jump\t// in\n    tag_117:\n      mload(0x40)\n      tag_120\n      swap2\n      swap1\n      tag_57\n      jump\t// in\n    tag_120:\n      mload(0x40)\n      dup1\n      swap2\n      sub\n      swap1\n      return\n        /* \"contracts/SmartMatrixForsage.sol\":6432:7739  function registration(address userAddress, address referrerAddress) private {... */\n    tag_26:\n        /* \"contracts/SmartMatrixForsage.sol\":6539:6549  0.05 ether */\n      0xb1a2bc2ec50000\n        /* \"contracts/SmartMatrixForsage.sol\":6526:6535  msg.value */\n      callvalue\n        /* \"contracts/SmartMatrixForsage.sol\":6526:6549  msg.value == 0.05 ether */\n      eq\n        /* \"contracts/SmartMatrixForsage.sol\":6518:6576  require(msg.value == 0.05 ether, \"registration cost 0.05\") */\n      tag_122\n      jumpi\n      mload(0x40)\n      0x08c379a000000000000000000000000000000000000000000000000000000000\n      dup2\n      mstore\n      0x04\n      add\n      tag_123\n      swap1\n      tag_124\n      jump\t// in\n    tag_123:\n      mload(0x40)\n      dup1\n      swap2\n      sub\n      swap1\n      revert\n    tag_122:\n        /* \"contracts/SmartMatrixForsage.sol\":6595:6620  isUserExists(userAddress) */\n      tag_125\n        /* \"contracts/SmartMatrixForsage.sol\":6608:6619  userAddress */\n      dup3\n        /* \"contracts/SmartMatrixForsage.sol\":6595:6607  isUserExists */\n      tag_81\n        /* \"contracts/SmartMatrixForsage.sol\":6595:6620  isUserExists(userAddress) */\n      jump\t// in\n    tag_125:\n        /* \"contracts/SmartMatrixForsage.sol\":6594:6620  !isUserExists(userAddress) */\n      iszero\n        /* \"contracts/SmartMatrixForsage.sol\":6586:6636  require(!isUserExists(userAddress), \"user exists\") */\n      tag_126\n      jumpi\n      mload(0x40)\n      0x08c379a000000000000000000000000000000000000000000000000000000000\n      dup2\n      mstore\n      0x04\n      add\n      tag_127\n      swap1\n      tag_128\n      jump\t// in\n    tag_127:\n      mload(0x40)\n      dup1\n      swap2\n      sub\n      swap1\n      revert\n    tag_126:\n        /* \"contracts/SmartMatrixForsage.sol\":6654:6683  isUserExists(referrerAddress) */\n      tag_129\n        /* \"contracts/SmartMatrixForsage.sol\":6667:6682  referrerAddress */\n      dup2\n        /* \"contracts/SmartMatrixForsage.sol\":6654:6666  isUserExists */\n      tag_81\n        /* \"contracts/SmartMatrixForsage.sol\":6654:6683  isUserExists(referrerAddress) */\n      jump\t// in\n    tag_129:\n        /* \"contracts/SmartMatrixForsage.sol\":6646:6707  require(isUserExists(referrerAddress), \"referrer not exists\") */\n      tag_130\n      jumpi\n      mload(0x40)\n      0x08c379a000000000000000000000000000000000000000000000000000000000\n      dup2\n      mstore\n      0x04\n      add\n      tag_131\n      swap1\n      tag_132\n      jump\t// in\n    tag_131:\n      mload(0x40)\n      dup1\n      swap2\n      sub\n      swap1\n      revert\n    tag_130:\n        /* \"contracts/SmartMatrixForsage.sol\":6772:6783  uint32 size */\n      0x00\n        /* \"contracts/SmartMatrixForsage.sol\":6836:6847  userAddress */\n      dup3\n        /* \"contracts/SmartMatrixForsage.sol\":6824:6848  extcodesize(userAddress) */\n      extcodesize\n        /* \"contracts/SmartMatrixForsage.sol\":6816:6848  size := extcodesize(userAddress) */\n      swap1\n      pop\n        /* \"contracts/SmartMatrixForsage.sol\":6883:6884  0 */\n      0x00\n        /* \"contracts/SmartMatrixForsage.sol\":6875:6879  size */\n      dup2\n        /* \"contracts/SmartMatrixForsage.sol\":6875:6884  size == 0 */\n      0xffffffff\n      and\n      eq\n        /* \"contracts/SmartMatrixForsage.sol\":6867:6909  require(size == 0, \"cannot be a contract\") */\n      tag_133\n      jumpi\n      mload(0x40)\n      0x08c379a000000000000000000000000000000000000000000000000000000000\n      dup2\n      mstore\n      0x04\n      add\n      tag_134\n      swap1\n      tag_135\n      jump\t// in\n    tag_134:\n      mload(0x40)\n      dup1\n      swap2\n      sub\n      swap1\n      revert\n    tag_133:\n        /* \"contracts/SmartMatrixForsage.sol\":6951:6968  User storage user */\n      0x00\n        /* \"contracts/SmartMatrixForsage.sol\":6971:6976  users */\n      0x00\n        /* \"contracts/SmartMatrixForsage.sol\":6971:6989  users[userAddress] */\n      0x00\n        /* \"contracts/SmartMatrixForsage.sol\":6977:6988  userAddress */\n      dup6\n        /* \"contracts/SmartMatrixForsage.sol\":6971:6989  users[userAddress] */\n      0xffffffffffffffffffffffffffffffffffffffff\n      and\n      0xffffffffffffffffffffffffffffffffffffffff\n      and\n      dup2\n      mstore\n      0x20\n      add\n      swap1\n      dup2\n      mstore\n      0x20\n      add\n      0x00\n      keccak256\n        /* \"contracts/SmartMatrixForsage.sol\":6951:6989  User storage user = users[userAddress] */\n      swap1\n      pop\n        /* \"contracts/SmartMatrixForsage.sol\":7009:7019  lastUserId */\n      sload(0x03)\n        /* \"contracts/SmartMatrixForsage.sol\":6999:7003  user */\n      dup2\n        /* \"contracts/SmartMatrixForsage.sol\":6999:7006  user.id */\n      0x00\n      add\n        /* \"contracts/SmartMatrixForsage.sol\":6999:7019  user.id = lastUserId */\n      dup2\n      swap1\n      sstore\n      pop\n        /* \"contracts/SmartMatrixForsage.sol\":7045:7060  referrerAddress */\n      dup3\n        /* \"contracts/SmartMatrixForsage.sol\":7029:7033  user */\n      dup2\n        /* \"contracts/SmartMatrixForsage.sol\":7029:7042  user.referrer */\n      0x01\n      add\n      0x00\n        /* \"contracts/SmartMatrixForsage.sol\":7029:7060  user.referrer = referrerAddress */\n      0x0100\n      exp\n      dup2\n      sload\n      dup2\n      0xffffffffffffffffffffffffffffffffffffffff\n      mul\n      not\n      and\n      swap1\n      dup4\n      0xffffffffffffffffffffffffffffffffffffffff\n      and\n      mul\n      or\n      swap1\n      sstore\n      pop\n        /* \"contracts/SmartMatrixForsage.sol\":7091:7092  0 */\n      0x00\n        /* \"contracts/SmartMatrixForsage.sol\":7070:7074  user */\n      dup2\n        /* \"contracts/SmartMatrixForsage.sol\":7070:7088  user.partnersCount */\n      0x02\n      add\n        /* \"contracts/SmartMatrixForsage.sol\":7070:7092  user.partnersCount = 0 */\n      dup2\n      swap1\n      sstore\n      pop\n        /* \"contracts/SmartMatrixForsage.sol\":7121:7122  0 */\n      0x00\n        /* \"contracts/SmartMatrixForsage.sol\":7102:7106  user */\n      dup2\n        /* \"contracts/SmartMatrixForsage.sol\":7102:7118  user.totalEarned */\n      0x03\n      add\n        /* \"contracts/SmartMatrixForsage.sol\":7102:7122  user.totalEarned = 0 */\n      dup2\n      swap1\n      sstore\n      pop\n        /* \"contracts/SmartMatrixForsage.sol\":7156:7157  0 */\n      0x00\n        /* \"contracts/SmartMatrixForsage.sol\":7132:7136  user */\n      dup2\n        /* \"contracts/SmartMatrixForsage.sol\":7132:7153  user.availableBalance */\n      0x04\n      add\n        /* \"contracts/SmartMatrixForsage.sol\":7132:7157  user.availableBalance = 0 */\n      dup2\n      swap1\n      sstore\n      pop\n        /* \"contracts/SmartMatrixForsage.sol\":7202:7213  userAddress */\n      dup4\n        /* \"contracts/SmartMatrixForsage.sol\":7176:7187  idToAddress */\n      0x01\n        /* \"contracts/SmartMatrixForsage.sol\":7176:7199  idToAddress[lastUserId] */\n      0x00\n        /* \"contracts/SmartMatrixForsage.sol\":7188:7198  lastUserId */\n      sload(0x03)\n        /* \"contracts/SmartMatrixForsage.sol\":7176:7199  idToAddress[lastUserId] */\n      dup2\n      mstore\n      0x20\n      add\n      swap1\n      dup2\n      mstore\n      0x20\n      add\n      0x00\n      keccak256\n      0x00\n        /* \"contracts/SmartMatrixForsage.sol\":7176:7213  idToAddress[lastUserId] = userAddress */\n      0x0100\n      exp\n      dup2\n      sload\n      dup2\n      0xffffffffffffffffffffffffffffffffffffffff\n      mul\n      not\n      and\n      swap1\n      dup4\n      0xffffffffffffffffffffffffffffffffffffffff\n      and\n      mul\n      or\n      swap1\n      sstore\n      pop\n        /* \"contracts/SmartMatrixForsage.sol\":7245:7256  userAddress */\n      dup4\n        /* \"contracts/SmartMatrixForsage.sol\":7223:7230  userIds */\n      0x02\n        /* \"contracts/SmartMatrixForsage.sol\":7223:7242  userIds[lastUserId] */\n      0x00\n        /* \"contracts/SmartMatrixForsage.sol\":7231:7241  lastUserId */\n      sload(0x03)\n        /* \"contracts/SmartMatrixForsage.sol\":7223:7242  userIds[lastUserId] */\n      dup2\n      mstore\n      0x20\n      add\n      swap1\n      dup2\n      mstore\n      0x20\n      add\n      0x00\n      keccak256\n      0x00\n        /* \"contracts/SmartMatrixForsage.sol\":7223:7256  userIds[lastUserId] = userAddress */\n      0x0100\n      exp\n      dup2\n      sload\n      dup2\n      0xffffffffffffffffffffffffffffffffffffffff\n      mul\n      not\n      and\n      swap1\n      dup4\n      0xffffffffffffffffffffffffffffffffffffffff\n      and\n      mul\n      or\n      swap1\n      sstore\n      pop\n        /* \"contracts/SmartMatrixForsage.sol\":7305:7309  true */\n      0x01\n        /* \"contracts/SmartMatrixForsage.sol\":7266:7271  users */\n      0x00\n        /* \"contracts/SmartMatrixForsage.sol\":7266:7284  users[userAddress] */\n      0x00\n        /* \"contracts/SmartMatrixForsage.sol\":7272:7283  userAddress */\n      dup7\n        /* \"contracts/SmartMatrixForsage.sol\":7266:7284  users[userAddress] */\n      0xffffffffffffffffffffffffffffffffffffffff\n      and\n      0xffffffffffffffffffffffffffffffffffffffff\n      and\n      dup2\n      mstore\n      0x20\n      add\n      swap1\n      dup2\n      mstore\n      0x20\n      add\n      0x00\n      keccak256\n        /* \"contracts/SmartMatrixForsage.sol\":7266:7299  users[userAddress].activeX3Levels */\n      0x05\n      add\n        /* \"contracts/SmartMatrixForsage.sol\":7266:7302  users[userAddress].activeX3Levels[1] */\n      0x00\n        /* \"contracts/SmartMatrixForsage.sol\":7300:7301  1 */\n      0x01\n        /* \"contracts/SmartMatrixForsage.sol\":7266:7302  users[userAddress].activeX3Levels[1] */\n      0xff\n      and\n      dup2\n      mstore\n      0x20\n      add\n      swap1\n      dup2\n      mstore\n      0x20\n      add\n      0x00\n      keccak256\n      0x00\n        /* \"contracts/SmartMatrixForsage.sol\":7266:7309  users[userAddress].activeX3Levels[1] = true */\n      0x0100\n      exp\n      dup2\n      sload\n      dup2\n      0xff\n      mul\n      not\n      and\n      swap1\n      dup4\n      iszero\n      iszero\n      mul\n      or\n      swap1\n      sstore\n      pop\n        /* \"contracts/SmartMatrixForsage.sol\":7328:7338  lastUserId */\n      0x03\n      0x00\n        /* \"contracts/SmartMatrixForsage.sol\":7328:7340  lastUserId++ */\n      dup2\n      sload\n      dup1\n      swap3\n      swap2\n      swap1\n      tag_136\n      swap1\n      tag_137\n      jump\t// in\n    tag_136:\n      swap2\n      swap1\n      pop\n      sstore\n      pop\n        /* \"contracts/SmartMatrixForsage.sol\":7350:7355  users */\n      0x00\n        /* \"contracts/SmartMatrixForsage.sol\":7350:7372  users[referrerAddress] */\n      0x00\n        /* \"contracts/SmartMatrixForsage.sol\":7356:7371  referrerAddress */\n      dup5\n        /* \"contracts/SmartMatrixForsage.sol\":7350:7372  users[referrerAddress] */\n      0xffffffffffffffffffffffffffffffffffffffff\n      and\n      0xffffffffffffffffffffffffffffffffffffffff\n      and\n      dup2\n      mstore\n      0x20\n      add\n      swap1\n      dup2\n      mstore\n      0x20\n      add\n      0x00\n      keccak256\n        /* \"contracts/SmartMatrixForsage.sol\":7350:7386  users[referrerAddress].partnersCount */\n      0x02\n      add\n      0x00\n        /* \"contracts/SmartMatrixForsage.sol\":7350:7388  users[referrerAddress].partnersCount++ */\n      dup2\n      sload\n      dup1\n      swap3\n      swap2\n      swap1\n      tag_138\n      swap1\n      tag_137\n      jump\t// in\n    tag_138:\n      swap2\n      swap1\n      pop\n      sstore\n      pop\n        /* \"contracts/SmartMatrixForsage.sol\":7426:7448  address freeX3Referrer */\n      0x00\n        /* \"contracts/SmartMatrixForsage.sol\":7451:7485  findFreeX3Referrer(userAddress, 1) */\n      tag_139\n        /* \"contracts/SmartMatrixForsage.sol\":7470:7481  userAddress */\n      dup6\n        /* \"contracts/SmartMatrixForsage.sol\":7483:7484  1 */\n      0x01\n        /* \"contracts/SmartMatrixForsage.sol\":7451:7469  findFreeX3Referrer */\n      tag_119\n        /* \"contracts/SmartMatrixForsage.sol\":7451:7485  findFreeX3Referrer(userAddress, 1) */\n      jump\t// in\n    tag_139:\n        /* \"contracts/SmartMatrixForsage.sol\":7426:7485  address freeX3Referrer = findFreeX3Referrer(userAddress, 1) */\n      swap1\n      pop\n        /* \"contracts/SmartMatrixForsage.sol\":7544:7558  freeX3Referrer */\n      dup1\n        /* \"contracts/SmartMatrixForsage.sol\":7495:7500  users */\n      0x00\n        /* \"contracts/SmartMatrixForsage.sol\":7495:7513  users[userAddress] */\n      0x00\n        /* \"contracts/SmartMatrixForsage.sol\":7501:7512  userAddress */\n      dup8\n        /* \"contracts/SmartMatrixForsage.sol\":7495:7513  users[userAddress] */\n      0xffffffffffffffffffffffffffffffffffffffff\n      and\n      0xffffffffffffffffffffffffffffffffffffffff\n      and\n      dup2\n      mstore\n      0x20\n      add\n      swap1\n      dup2\n      mstore\n      0x20\n      add\n      0x00\n      keccak256\n        /* \"contracts/SmartMatrixForsage.sol\":7495:7522  users[userAddress].x3Matrix */\n      0x06\n      add\n        /* \"contracts/SmartMatrixForsage.sol\":7495:7525  users[userAddress].x3Matrix[1] */\n      0x00\n        /* \"contracts/SmartMatrixForsage.sol\":7523:7524  1 */\n      0x01\n        /* \"contracts/SmartMatrixForsage.sol\":7495:7525  users[userAddress].x3Matrix[1] */\n      0xff\n      and\n      dup2\n      mstore\n      0x20\n      add\n      swap1\n      dup2\n      mstore\n      0x20\n      add\n      0x00\n      keccak256\n        /* \"contracts/SmartMatrixForsage.sol\":7495:7541  users[userAddress].x3Matrix[1].currentReferrer */\n      0x00\n      add\n      0x00\n        /* \"contracts/SmartMatrixForsage.sol\":7495:7558  users[userAddress].x3Matrix[1].currentReferrer = freeX3Referrer */\n      0x0100\n      exp\n      dup2\n      sload\n      dup2\n      0xffffffffffffffffffffffffffffffffffffffff\n      mul\n      not\n      and\n      swap1\n      dup4\n      0xffffffffffffffffffffffffffffffffffffffff\n      and\n      mul\n      or\n      swap1\n      sstore\n      pop\n        /* \"contracts/SmartMatrixForsage.sol\":7568:7616  updateX3Referrer(userAddress, freeX3Referrer, 1) */\n      tag_140\n        /* \"contracts/SmartMatrixForsage.sol\":7585:7596  userAddress */\n      dup6\n        /* \"contracts/SmartMatrixForsage.sol\":7598:7612  freeX3Referrer */\n      dup3\n        /* \"contracts/SmartMatrixForsage.sol\":7614:7615  1 */\n      0x01\n        /* \"contracts/SmartMatrixForsage.sol\":7568:7584  updateX3Referrer */\n      tag_141\n        /* \"contracts/SmartMatrixForsage.sol\":7568:7616  updateX3Referrer(userAddress, freeX3Referrer, 1) */\n      jump\t// in\n    tag_140:\n        /* \"contracts/SmartMatrixForsage.sol\":7683:7688  users */\n      0x00\n        /* \"contracts/SmartMatrixForsage.sol\":7683:7701  users[userAddress] */\n      0x00\n        /* \"contracts/SmartMatrixForsage.sol\":7689:7700  userAddress */\n      dup7\n        /* \"contracts/SmartMatrixForsage.sol\":7683:7701  users[userAddress] */\n      0xffffffffffffffffffffffffffffffffffffffff\n      and\n      0xffffffffffffffffffffffffffffffffffffffff\n      and\n      dup2\n      mstore\n      0x20\n      add\n      swap1\n      dup2\n      mstore\n      0x20\n      add\n      0x00\n      keccak256\n        /* \"contracts/SmartMatrixForsage.sol\":7683:7704  users[userAddress].id */\n      0x00\n      add\n      sload\n        /* \"contracts/SmartMatrixForsage.sol\":7666:7681  referrerAddress */\n      dup5\n        /* \"contracts/SmartMatrixForsage.sol\":7640:7732  Registration(userAddress, referrerAddress, users[userAddress].id, users[referrerAddress].id) */\n      0xffffffffffffffffffffffffffffffffffffffff\n      and\n        /* \"contracts/SmartMatrixForsage.sol\":7653:7664  userAddress */\n      dup7\n        /* \"contracts/SmartMatrixForsage.sol\":7640:7732  Registration(userAddress, referrerAddress, users[userAddress].id, users[referrerAddress].id) */\n      0xffffffffffffffffffffffffffffffffffffffff\n      and\n      0x309bb360e8b69c23937ccc5fb01f9aeeead1c95a99604e175113ff82f2b1723a\n        /* \"contracts/SmartMatrixForsage.sol\":7706:7711  users */\n      0x00\n        /* \"contracts/SmartMatrixForsage.sol\":7706:7728  users[referrerAddress] */\n      0x00\n        /* \"contracts/SmartMatrixForsage.sol\":7712:7727  referrerAddress */\n      dup10\n        /* \"contracts/SmartMatrixForsage.sol\":7706:7728  users[referrerAddress] */\n      0xffffffffffffffffffffffffffffffffffffffff\n      and\n      0xffffffffffffffffffffffffffffffffffffffff\n      and\n      dup2\n      mstore\n      0x20\n      add\n      swap1\n      dup2\n      mstore\n      0x20\n      add\n      0x00\n      keccak256\n        /* \"contracts/SmartMatrixForsage.sol\":7706:7731  users[referrerAddress].id */\n      0x00\n      add\n      sload\n        /* \"contracts/SmartMatrixForsage.sol\":7640:7732  Registration(userAddress, referrerAddress, users[userAddress].id, users[referrerAddress].id) */\n      mload(0x40)\n      tag_142\n      swap2\n      swap1\n      tag_62\n      jump\t// in\n    tag_142:\n      mload(0x40)\n      dup1\n      swap2\n      sub\n      swap1\n      log4\n        /* \"contracts/SmartMatrixForsage.sol\":6508:7739  {... */\n      pop\n      pop\n      pop\n        /* \"contracts/SmartMatrixForsage.sol\":6432:7739  function registration(address userAddress, address referrerAddress) private {... */\n      pop\n      pop\n      jump\t// out\n        /* \"contracts/SmartMatrixForsage.sol\":17730:17884  function bytesToAddress(bytes memory bys) private pure returns (address addr) {... */\n    tag_32:\n        /* \"contracts/SmartMatrixForsage.sol\":17794:17806  address addr */\n      0x00\n        /* \"contracts/SmartMatrixForsage.sol\":17864:17866  20 */\n      0x14\n        /* \"contracts/SmartMatrixForsage.sol\":17859:17862  bys */\n      dup3\n        /* \"contracts/SmartMatrixForsage.sol\":17855:17867  add(bys, 20) */\n      add\n        /* \"contracts/SmartMatrixForsage.sol\":17849:17868  mload(add(bys, 20)) */\n      mload\n        /* \"contracts/SmartMatrixForsage.sol\":17841:17868  addr := mload(add(bys, 20)) */\n      swap1\n      pop\n        /* \"contracts/SmartMatrixForsage.sol\":17730:17884  function bytesToAddress(bytes memory bys) private pure returns (address addr) {... */\n      swap2\n      swap1\n      pop\n      jump\t// out\n        /* \"contracts/SmartMatrixForsage.sol\":14967:15483  function withdrawAmount(uint256 _amount) external {... */\n    tag_39:\n        /* \"contracts/SmartMatrixForsage.sol\":15035:15059  isUserExists(msg.sender) */\n      tag_145\n        /* \"contracts/SmartMatrixForsage.sol\":15048:15058  msg.sender */\n      caller\n        /* \"contracts/SmartMatrixForsage.sol\":15035:15047  isUserExists */\n      tag_81\n        /* \"contracts/SmartMatrixForsage.sol\":15035:15059  isUserExists(msg.sender) */\n      jump\t// in\n    tag_145:\n        /* \"contracts/SmartMatrixForsage.sol\":15027:15083  require(isUserExists(msg.sender), \"User not registered\") */\n      tag_146\n      jumpi\n      mload(0x40)\n      0x08c379a000000000000000000000000000000000000000000000000000000000\n      dup2\n      mstore\n      0x04\n      add\n      tag_147\n      swap1\n      tag_148\n      jump\t// in\n    tag_147:\n      mload(0x40)\n      dup1\n      swap2\n      sub\n      swap1\n      revert\n    tag_146:\n        /* \"contracts/SmartMatrixForsage.sol\":15111:15112  0 */\n      0x00\n        /* \"contracts/SmartMatrixForsage.sol\":15101:15108  _amount */\n      dup2\n        /* \"contracts/SmartMatrixForsage.sol\":15101:15112  _amount > 0 */\n      gt\n        /* \"contracts/SmartMatrixForsage.sol\":15093:15140  require(_amount > 0, \"Amount must be positive\") */\n      tag_149\n      jumpi\n      mload(0x40)\n      0x08c379a000000000000000000000000000000000000000000000000000000000\n      dup2\n      mstore\n      0x04\n      add\n      tag_150\n      swap1\n      tag_151\n      jump\t// in\n    tag_150:\n      mload(0x40)\n      dup1\n      swap2\n      sub\n      swap1\n      revert\n    tag_149:\n        /* \"contracts/SmartMatrixForsage.sol\":15196:15203  _amount */\n      dup1\n        /* \"contracts/SmartMatrixForsage.sol\":15158:15163  users */\n      0x00\n        /* \"contracts/SmartMatrixForsage.sol\":15158:15175  users[msg.sender] */\n      0x00\n        /* \"contracts/SmartMatrixForsage.sol\":15164:15174  msg.sender */\n      caller\n        /* \"contracts/SmartMatrixForsage.sol\":15158:15175  users[msg.sender] */\n      0xffffffffffffffffffffffffffffffffffffffff\n      and\n      0xffffffffffffffffffffffffffffffffffffffff\n      and\n      dup2\n      mstore\n      0x20\n      add\n      swap1\n      dup2\n      mstore\n      0x20\n      add\n      0x00\n      keccak256\n        /* \"contracts/SmartMatrixForsage.sol\":15158:15192  users[msg.sender].availableBalance */\n      0x04\n      add\n      sload\n        /* \"contracts/SmartMatrixForsage.sol\":15158:15203  users[msg.sender].availableBalance >= _amount */\n      lt\n      iszero\n        /* \"contracts/SmartMatrixForsage.sol\":15150:15228  require(users[msg.sender].availableBalance >= _amount, \"Insufficient balance\") */\n      tag_152\n      jumpi\n      mload(0x40)\n      0x08c379a000000000000000000000000000000000000000000000000000000000\n      dup2\n      mstore\n      0x04\n      add\n      tag_153\n      swap1\n      tag_154\n      jump\t// in\n    tag_153:\n      mload(0x40)\n      dup1\n      swap2\n      sub\n      swap1\n      revert\n    tag_152:\n        /* \"contracts/SmartMatrixForsage.sol\":15285:15292  _amount */\n      dup1\n        /* \"contracts/SmartMatrixForsage.sol\":15247:15252  users */\n      0x00\n        /* \"contracts/SmartMatrixForsage.sol\":15247:15264  users[msg.sender] */\n      0x00\n        /* \"contracts/SmartMatrixForsage.sol\":15253:15263  msg.sender */\n      caller\n        /* \"contracts/SmartMatrixForsage.sol\":15247:15264  users[msg.sender] */\n      0xffffffffffffffffffffffffffffffffffffffff\n      and\n      0xffffffffffffffffffffffffffffffffffffffff\n      and\n      dup2\n      mstore\n      0x20\n      add\n      swap1\n      dup2\n      mstore\n      0x20\n      add\n      0x00\n      keccak256\n        /* \"contracts/SmartMatrixForsage.sol\":15247:15281  users[msg.sender].availableBalance */\n      0x04\n      add\n      0x00\n        /* \"contracts/SmartMatrixForsage.sol\":15247:15292  users[msg.sender].availableBalance -= _amount */\n      dup3\n      dup3\n      sload\n      tag_155\n      swap2\n      swap1\n      tag_156\n      jump\t// in\n    tag_155:\n      swap3\n      pop\n      pop\n      dup2\n      swap1\n      sstore\n      pop\n        /* \"contracts/SmartMatrixForsage.sol\":15327:15337  msg.sender */\n      caller\n        /* \"contracts/SmartMatrixForsage.sol\":15316:15347  Withdrawal(msg.sender, _amount) */\n      0xffffffffffffffffffffffffffffffffffffffff\n      and\n      0x7fcf532c15f0a6db0bd6d0e038bea71d30d808c7d98cb3bf7268a95bf5081b65\n        /* \"contracts/SmartMatrixForsage.sol\":15339:15346  _amount */\n      dup3\n        /* \"contracts/SmartMatrixForsage.sol\":15316:15347  Withdrawal(msg.sender, _amount) */\n      mload(0x40)\n      tag_157\n      swap2\n      swap1\n      tag_62\n      jump\t// in\n    tag_157:\n      mload(0x40)\n      dup1\n      swap2\n      sub\n      swap1\n      log2\n        /* \"contracts/SmartMatrixForsage.sol\":15367:15379  bool success */\n      0x00\n        /* \"contracts/SmartMatrixForsage.sol\":15393:15403  msg.sender */\n      caller\n        /* \"contracts/SmartMatrixForsage.sol\":15385:15409  payable(msg.sender).call */\n      0xffffffffffffffffffffffffffffffffffffffff\n      and\n        /* \"contracts/SmartMatrixForsage.sol\":15417:15424  _amount */\n      dup3\n        /* \"contracts/SmartMatrixForsage.sol\":15385:15429  payable(msg.sender).call{value: _amount}(\"\") */\n      mload(0x40)\n      tag_158\n      swap1\n      tag_159\n      jump\t// in\n    tag_158:\n      0x00\n      mload(0x40)\n      dup1\n      dup4\n      sub\n      dup2\n      dup6\n      dup8\n      gas\n      call\n      swap3\n      pop\n      pop\n      pop\n      returndatasize\n      dup1\n      0x00\n      dup2\n      eq\n      tag_162\n      jumpi\n      mload(0x40)\n      swap2\n      pop\n      and(add(returndatasize, 0x3f), not(0x1f))\n      dup3\n      add\n      0x40\n      mstore\n      returndatasize\n      dup3\n      mstore\n      returndatasize\n      0x00\n      0x20\n      dup5\n      add\n      returndatacopy\n      jump(tag_161)\n    tag_162:\n      0x60\n      swap2\n      pop\n    tag_161:\n      pop\n        /* \"contracts/SmartMatrixForsage.sol\":15366:15429  (bool success, ) = payable(msg.sender).call{value: _amount}(\"\") */\n      pop\n      swap1\n      pop\n        /* \"contracts/SmartMatrixForsage.sol\":15447:15454  success */\n      dup1\n        /* \"contracts/SmartMatrixForsage.sol\":15439:15476  require(success, \"Withdrawal failed\") */\n      tag_163\n      jumpi\n      mload(0x40)\n      0x08c379a000000000000000000000000000000000000000000000000000000000\n      dup2\n      mstore\n      0x04\n      add\n      tag_164\n      swap1\n      tag_165\n      jump\t// in\n    tag_164:\n      mload(0x40)\n      dup1\n      swap2\n      sub\n      swap1\n      revert\n    tag_163:\n        /* \"contracts/SmartMatrixForsage.sol\":15017:15483  {... */\n      pop\n        /* \"contracts/SmartMatrixForsage.sol\":14967:15483  function withdrawAmount(uint256 _amount) external {... */\n      pop\n      jump\t// out\n        /* \"contracts/SmartMatrixForsage.sol\":15868:16021  function usersActiveX3Levels(address userAddress, uint8 level) public view returns(bool) {... */\n    tag_44:\n        /* \"contracts/SmartMatrixForsage.sol\":15951:15955  bool */\n      0x00\n        /* \"contracts/SmartMatrixForsage.sol\":15974:15979  users */\n      0x00\n        /* \"contracts/SmartMatrixForsage.sol\":15974:15992  users[userAddress] */\n      0x00\n        /* \"contracts/SmartMatrixForsage.sol\":15980:15991  userAddress */\n      dup5\n        /* \"contracts/SmartMatrixForsage.sol\":15974:15992  users[userAddress] */\n      0xffffffffffffffffffffffffffffffffffffffff\n      and\n      0xffffffffffffffffffffffffffffffffffffffff\n      and\n      dup2\n      mstore\n      0x20\n      add\n      swap1\n      dup2\n      mstore\n      0x20\n      add\n      0x00\n      keccak256\n        /* \"contracts/SmartMatrixForsage.sol\":15974:16007  users[userAddress].activeX3Levels */\n      0x05\n      add\n        /* \"contracts/SmartMatrixForsage.sol\":15974:16014  users[userAddress].activeX3Levels[level] */\n      0x00\n        /* \"contracts/SmartMatrixForsage.sol\":16008:16013  level */\n      dup4\n        /* \"contracts/SmartMatrixForsage.sol\":15974:16014  users[userAddress].activeX3Levels[level] */\n      0xff\n      and\n      0xff\n      and\n      dup2\n      mstore\n      0x20\n      add\n      swap1\n      dup2\n      mstore\n      0x20\n      add\n      0x00\n      keccak256\n      0x00\n      swap1\n      sload\n      swap1\n      0x0100\n      exp\n      swap1\n      div\n      0xff\n      and\n        /* \"contracts/SmartMatrixForsage.sol\":15967:16014  return users[userAddress].activeX3Levels[level] */\n      swap1\n      pop\n        /* \"contracts/SmartMatrixForsage.sol\":15868:16021  function usersActiveX3Levels(address userAddress, uint8 level) public view returns(bool) {... */\n      swap3\n      swap2\n      pop\n      pop\n      jump\t// out\n        /* \"contracts/SmartMatrixForsage.sol\":2398:2435  uint8 public constant LAST_LEVEL = 12 */\n    tag_49:\n        /* \"contracts/SmartMatrixForsage.sol\":2433:2435  12 */\n      0x0c\n        /* \"contracts/SmartMatrixForsage.sol\":2398:2435  uint8 public constant LAST_LEVEL = 12 */\n      dup2\n      jump\t// out\n        /* \"contracts/SmartMatrixForsage.sol\":2573:2619  mapping(uint256 => address) public idToAddress */\n    tag_55:\n      mstore(0x20, 0x01)\n      dup1\n      0x00\n      mstore\n      keccak256(0x00, 0x40)\n      0x00\n      swap2\n      pop\n      sload\n      swap1\n      0x0100\n      exp\n      swap1\n      div\n      0xffffffffffffffffffffffffffffffffffffffff\n      and\n      dup2\n      jump\t// out\n        /* \"contracts/SmartMatrixForsage.sol\":2790:2819  uint256 public lastUserId = 2 */\n    tag_60:\n      sload(0x03)\n      dup2\n      jump\t// out\n        /* \"contracts/SmartMatrixForsage.sol\":14396:14853  function withdraw() external {... */\n    tag_65:\n        /* \"contracts/SmartMatrixForsage.sol\":14443:14467  isUserExists(msg.sender) */\n      tag_168\n        /* \"contracts/SmartMatrixForsage.sol\":14456:14466  msg.sender */\n      caller\n        /* \"contracts/SmartMatrixForsage.sol\":14443:14455  isUserExists */\n      tag_81\n        /* \"contracts/SmartMatrixForsage.sol\":14443:14467  isUserExists(msg.sender) */\n      jump\t// in\n    tag_168:\n        /* \"contracts/SmartMatrixForsage.sol\":14435:14491  require(isUserExists(msg.sender), \"User not registered\") */\n      tag_169\n      jumpi\n      mload(0x40)\n      0x08c379a000000000000000000000000000000000000000000000000000000000\n      dup2\n      mstore\n      0x04\n      add\n      tag_170\n      swap1\n      tag_148\n      jump\t// in\n    tag_170:\n      mload(0x40)\n      dup1\n      swap2\n      sub\n      swap1\n      revert\n    tag_169:\n        /* \"contracts/SmartMatrixForsage.sol\":14501:14515  uint256 amount */\n      0x00\n        /* \"contracts/SmartMatrixForsage.sol\":14518:14523  users */\n      0x00\n        /* \"contracts/SmartMatrixForsage.sol\":14518:14535  users[msg.sender] */\n      0x00\n        /* \"contracts/SmartMatrixForsage.sol\":14524:14534  msg.sender */\n      caller\n        /* \"contracts/SmartMatrixForsage.sol\":14518:14535  users[msg.sender] */\n      0xffffffffffffffffffffffffffffffffffffffff\n      and\n      0xffffffffffffffffffffffffffffffffffffffff\n      and\n      dup2\n      mstore\n      0x20\n      add\n      swap1\n      dup2\n      mstore\n      0x20\n      add\n      0x00\n      keccak256\n        /* \"contracts/SmartMatrixForsage.sol\":14518:14552  users[msg.sender].availableBalance */\n      0x04\n      add\n      sload\n        /* \"contracts/SmartMatrixForsage.sol\":14501:14552  uint256 amount = users[msg.sender].availableBalance */\n      swap1\n      pop\n        /* \"contracts/SmartMatrixForsage.sol\":14579:14580  0 */\n      0x00\n        /* \"contracts/SmartMatrixForsage.sol\":14570:14576  amount */\n      dup2\n        /* \"contracts/SmartMatrixForsage.sol\":14570:14580  amount > 0 */\n      gt\n        /* \"contracts/SmartMatrixForsage.sol\":14562:14607  require(amount > 0, \"No balance to withdraw\") */\n      tag_171\n      jumpi\n      mload(0x40)\n      0x08c379a000000000000000000000000000000000000000000000000000000000\n      dup2\n      mstore\n      0x04\n      add\n      tag_172\n      swap1\n      tag_173\n      jump\t// in\n    tag_172:\n      mload(0x40)\n      dup1\n      swap2\n      sub\n      swap1\n      revert\n    tag_171:\n        /* \"contracts/SmartMatrixForsage.sol\":14663:14664  0 */\n      0x00\n        /* \"contracts/SmartMatrixForsage.sol\":14626:14631  users */\n      0x00\n        /* \"contracts/SmartMatrixForsage.sol\":14626:14643  users[msg.sender] */\n      0x00\n        /* \"contracts/SmartMatrixForsage.sol\":14632:14642  msg.sender */\n      caller\n        /* \"contracts/SmartMatrixForsage.sol\":14626:14643  users[msg.sender] */\n      0xffffffffffffffffffffffffffffffffffffffff\n      and\n      0xffffffffffffffffffffffffffffffffffffffff\n      and\n      dup2\n      mstore\n      0x20\n      add\n      swap1\n      dup2\n      mstore\n      0x20\n      add\n      0x00\n      keccak256\n        /* \"contracts/SmartMatrixForsage.sol\":14626:14660  users[msg.sender].availableBalance */\n      0x04\n      add\n        /* \"contracts/SmartMatrixForsage.sol\":14626:14664  users[msg.sender].availableBalance = 0 */\n      dup2\n      swap1\n      sstore\n      pop\n        /* \"contracts/SmartMatrixForsage.sol\":14699:14709  msg.sender */\n      caller\n        /* \"contracts/SmartMatrixForsage.sol\":14688:14718  Withdrawal(msg.sender, amount) */\n      0xffffffffffffffffffffffffffffffffffffffff\n      and\n      0x7fcf532c15f0a6db0bd6d0e038bea71d30d808c7d98cb3bf7268a95bf5081b65\n        /* \"contracts/SmartMatrixForsage.sol\":14711:14717  amount */\n      dup3\n        /* \"contracts/SmartMatrixForsage.sol\":14688:14718  Withdrawal(msg.sender, amount) */\n      mload(0x40)\n      tag_174\n      swap2\n      swap1\n      tag_62\n      jump\t// in\n    tag_174:\n      mload(0x40)\n      dup1\n      swap2\n      sub\n      swap1\n      log2\n        /* \"contracts/SmartMatrixForsage.sol\":14738:14750  bool success */\n      0x00\n        /* \"contracts/SmartMatrixForsage.sol\":14764:14774  msg.sender */\n      caller\n        /* \"contracts/SmartMatrixForsage.sol\":14756:14780  payable(msg.sender).call */\n      0xffffffffffffffffffffffffffffffffffffffff\n      and\n        /* \"contracts/SmartMatrixForsage.sol\":14788:14794  amount */\n      dup3\n        /* \"contracts/SmartMatrixForsage.sol\":14756:14799  payable(msg.sender).call{value: amount}(\"\") */\n      mload(0x40)\n      tag_175\n      swap1\n      tag_159\n      jump\t// in\n    tag_175:\n      0x00\n      mload(0x40)\n      dup1\n      dup4\n      sub\n      dup2\n      dup6\n      dup8\n      gas\n      call\n      swap3\n      pop\n      pop\n      pop\n      returndatasize\n      dup1\n      0x00\n      dup2\n      eq\n      tag_178\n      jumpi\n      mload(0x40)\n      swap2\n      pop\n      and(add(returndatasize, 0x3f), not(0x1f))\n      dup3\n      add\n      0x40\n      mstore\n      returndatasize\n      dup3\n      mstore\n      returndatasize\n      0x00\n      0x20\n      dup5\n      add\n      returndatacopy\n      jump(tag_177)\n    tag_178:\n      0x60\n      swap2\n      pop\n    tag_177:\n      pop\n        /* \"contracts/SmartMatrixForsage.sol\":14737:14799  (bool success, ) = payable(msg.sender).call{value: amount}(\"\") */\n      pop\n      swap1\n      pop\n        /* \"contracts/SmartMatrixForsage.sol\":14817:14824  success */\n      dup1\n        /* \"contracts/SmartMatrixForsage.sol\":14809:14846  require(success, \"Withdrawal failed\") */\n      tag_179\n      jumpi\n      mload(0x40)\n      0x08c379a000000000000000000000000000000000000000000000000000000000\n      dup2\n      mstore\n      0x04\n      add\n      tag_180\n      swap1\n      tag_165\n      jump\t// in\n    tag_180:\n      mload(0x40)\n      dup1\n      swap2\n      sub\n      swap1\n      revert\n    tag_179:\n        /* \"contracts/SmartMatrixForsage.sol\":14425:14853  {... */\n      pop\n      pop\n        /* \"contracts/SmartMatrixForsage.sol\":14396:14853  function withdraw() external {... */\n      jump\t// out\n        /* \"contracts/SmartMatrixForsage.sol\":2702:2744  mapping(uint256 => address) public userIds */\n    tag_69:\n      mstore(0x20, 0x02)\n      dup1\n      0x00\n      mstore\n      keccak256(0x00, 0x40)\n      0x00\n      swap2\n      pop\n      sload\n      swap1\n      0x0100\n      exp\n      swap1\n      div\n      0xffffffffffffffffffffffffffffffffffffffff\n      and\n      dup2\n      jump\t// out\n        /* \"contracts/SmartMatrixForsage.sol\":17093:17344  function getUserBalance(address _user) external view returns (uint256 totalEarned, uint256 availableBalance) {... */\n    tag_75:\n        /* \"contracts/SmartMatrixForsage.sol\":17155:17174  uint256 totalEarned */\n      0x00\n        /* \"contracts/SmartMatrixForsage.sol\":17176:17200  uint256 availableBalance */\n      0x00\n        /* \"contracts/SmartMatrixForsage.sol\":17220:17239  isUserExists(_user) */\n      tag_182\n        /* \"contracts/SmartMatrixForsage.sol\":17233:17238  _user */\n      dup4\n        /* \"contracts/SmartMatrixForsage.sol\":17220:17232  isUserExists */\n      tag_81\n        /* \"contracts/SmartMatrixForsage.sol\":17220:17239  isUserExists(_user) */\n      jump\t// in\n    tag_182:\n        /* \"contracts/SmartMatrixForsage.sol\":17212:17263  require(isUserExists(_user), \"User does not exist\") */\n      tag_183\n      jumpi\n      mload(0x40)\n      0x08c379a000000000000000000000000000000000000000000000000000000000\n      dup2\n      mstore\n      0x04\n      add\n      tag_184\n      swap1\n      tag_185\n      jump\t// in\n    tag_184:\n      mload(0x40)\n      dup1\n      swap2\n      sub\n      swap1\n      revert\n    tag_183:\n        /* \"contracts/SmartMatrixForsage.sol\":17281:17286  users */\n      0x00\n        /* \"contracts/SmartMatrixForsage.sol\":17281:17293  users[_user] */\n      0x00\n        /* \"contracts/SmartMatrixForsage.sol\":17287:17292  _user */\n      dup5\n        /* \"contracts/SmartMatrixForsage.sol\":17281:17293  users[_user] */\n      0xffffffffffffffffffffffffffffffffffffffff\n      and\n      0xffffffffffffffffffffffffffffffffffffffff\n      and\n      dup2\n      mstore\n      0x20\n      add\n      swap1\n      dup2\n      mstore\n      0x20\n      add\n      0x00\n      keccak256\n        /* \"contracts/SmartMatrixForsage.sol\":17281:17305  users[_user].totalEarned */\n      0x03\n      add\n      sload\n        /* \"contracts/SmartMatrixForsage.sol\":17307:17312  users */\n      0x00\n        /* \"contracts/SmartMatrixForsage.sol\":17307:17319  users[_user] */\n      0x00\n        /* \"contracts/SmartMatrixForsage.sol\":17313:17318  _user */\n      dup6\n        /* \"contracts/SmartMatrixForsage.sol\":17307:17319  users[_user] */\n      0xffffffffffffffffffffffffffffffffffffffff\n      and\n      0xffffffffffffffffffffffffffffffffffffffff\n      and\n      dup2\n      mstore\n      0x20\n      add\n      swap1\n      dup2\n      mstore\n      0x20\n      add\n      0x00\n      keccak256\n        /* \"contracts/SmartMatrixForsage.sol\":17307:17336  users[_user].availableBalance */\n      0x04\n      add\n      sload\n        /* \"contracts/SmartMatrixForsage.sol\":17273:17337  return (users[_user].totalEarned, users[_user].availableBalance) */\n      swap2\n      pop\n      swap2\n      pop\n        /* \"contracts/SmartMatrixForsage.sol\":17093:17344  function getUserBalance(address _user) external view returns (uint256 totalEarned, uint256 availableBalance) {... */\n      swap2\n      pop\n      swap2\n      jump\t// out\n        /* \"contracts/SmartMatrixForsage.sol\":16778:16886  function isUserExists(address user) public view returns (bool) {... */\n    tag_81:\n        /* \"contracts/SmartMatrixForsage.sol\":16835:16839  bool */\n      0x00\n        /* \"contracts/SmartMatrixForsage.sol\":16877:16878  0 */\n      0x00\n        /* \"contracts/SmartMatrixForsage.sol\":16859:16864  users */\n      0x00\n        /* \"contracts/SmartMatrixForsage.sol\":16859:16870  users[user] */\n      0x00\n        /* \"contracts/SmartMatrixForsage.sol\":16865:16869  user */\n      dup5\n        /* \"contracts/SmartMatrixForsage.sol\":16859:16870  users[user] */\n      0xffffffffffffffffffffffffffffffffffffffff\n      and\n      0xffffffffffffffffffffffffffffffffffffffff\n      and\n      dup2\n      mstore\n      0x20\n      add\n      swap1\n      dup2\n      mstore\n      0x20\n      add\n      0x00\n      keccak256\n        /* \"contracts/SmartMatrixForsage.sol\":16859:16873  users[user].id */\n      0x00\n      add\n      sload\n        /* \"contracts/SmartMatrixForsage.sol\":16859:16878  users[user].id != 0 */\n      eq\n      iszero\n        /* \"contracts/SmartMatrixForsage.sol\":16851:16879  return (users[user].id != 0) */\n      swap1\n      pop\n        /* \"contracts/SmartMatrixForsage.sol\":16778:16886  function isUserExists(address user) public view returns (bool) {... */\n      swap2\n      swap1\n      pop\n      jump\t// out\n        /* \"contracts/SmartMatrixForsage.sol\":17463:17570  function getContractBalance() external view returns (uint256) {... */\n    tag_85:\n        /* \"contracts/SmartMatrixForsage.sol\":17516:17523  uint256 */\n      0x00\n        /* \"contracts/SmartMatrixForsage.sol\":17542:17563  address(this).balance */\n      selfbalance\n        /* \"contracts/SmartMatrixForsage.sol\":17535:17563  return address(this).balance */\n      swap1\n      pop\n        /* \"contracts/SmartMatrixForsage.sol\":17463:17570  function getContractBalance() external view returns (uint256) {... */\n      swap1\n      jump\t// out\n        /* \"contracts/SmartMatrixForsage.sol\":6116:6241  function registrationExt(address referrerAddress) external payable {... */\n    tag_89:\n        /* \"contracts/SmartMatrixForsage.sol\":6193:6234  registration(msg.sender, referrerAddress) */\n      tag_189\n        /* \"contracts/SmartMatrixForsage.sol\":6206:6216  msg.sender */\n      caller\n        /* \"contracts/SmartMatrixForsage.sol\":6218:6233  referrerAddress */\n      dup3\n        /* \"contracts/SmartMatrixForsage.sol\":6193:6205  registration */\n      tag_26\n        /* \"contracts/SmartMatrixForsage.sol\":6193:6234  registration(msg.sender, referrerAddress) */\n      jump\t// in\n    tag_189:\n        /* \"contracts/SmartMatrixForsage.sol\":6116:6241  function registrationExt(address referrerAddress) external payable {... */\n      pop\n      jump\t// out\n        /* \"contracts/SmartMatrixForsage.sol\":16325:16633  function usersX3Matrix(address userAddress, uint8 level) public view returns(address, address[] memory, bool) {... */\n    tag_93:\n        /* \"contracts/SmartMatrixForsage.sol\":16402:16409  address */\n      0x00\n        /* \"contracts/SmartMatrixForsage.sol\":16411:16427  address[] memory */\n      0x60\n        /* \"contracts/SmartMatrixForsage.sol\":16429:16433  bool */\n      0x00\n        /* \"contracts/SmartMatrixForsage.sol\":16453:16458  users */\n      0x00\n        /* \"contracts/SmartMatrixForsage.sol\":16453:16471  users[userAddress] */\n      0x00\n        /* \"contracts/SmartMatrixForsage.sol\":16459:16470  userAddress */\n      dup7\n        /* \"contracts/SmartMatrixForsage.sol\":16453:16471  users[userAddress] */\n      0xffffffffffffffffffffffffffffffffffffffff\n      and\n      0xffffffffffffffffffffffffffffffffffffffff\n      and\n      dup2\n      mstore\n      0x20\n      add\n      swap1\n      dup2\n      mstore\n      0x20\n      add\n      0x00\n      keccak256\n        /* \"contracts/SmartMatrixForsage.sol\":16453:16480  users[userAddress].x3Matrix */\n      0x06\n      add\n        /* \"contracts/SmartMatrixForsage.sol\":16453:16487  users[userAddress].x3Matrix[level] */\n      0x00\n        /* \"contracts/SmartMatrixForsage.sol\":16481:16486  level */\n      dup6\n        /* \"contracts/SmartMatrixForsage.sol\":16453:16487  users[userAddress].x3Matrix[level] */\n      0xff\n      and\n      0xff\n      and\n      dup2\n      mstore\n      0x20\n      add\n      swap1\n      dup2\n      mstore\n      0x20\n      add\n      0x00\n      keccak256\n        /* \"contracts/SmartMatrixForsage.sol\":16453:16503  users[userAddress].x3Matrix[level].currentReferrer */\n      0x00\n      add\n      0x00\n      swap1\n      sload\n      swap1\n      0x0100\n      exp\n      swap1\n      div\n      0xffffffffffffffffffffffffffffffffffffffff\n      and\n        /* \"contracts/SmartMatrixForsage.sol\":16521:16526  users */\n      0x00\n        /* \"contracts/SmartMatrixForsage.sol\":16521:16539  users[userAddress] */\n      0x00\n        /* \"contracts/SmartMatrixForsage.sol\":16527:16538  userAddress */\n      dup8\n        /* \"contracts/SmartMatrixForsage.sol\":16521:16539  users[userAddress] */\n      0xffffffffffffffffffffffffffffffffffffffff\n      and\n      0xffffffffffffffffffffffffffffffffffffffff\n      and\n      dup2\n      mstore\n      0x20\n      add\n      swap1\n      dup2\n      mstore\n      0x20\n      add\n      0x00\n      keccak256\n        /* \"contracts/SmartMatrixForsage.sol\":16521:16548  users[userAddress].x3Matrix */\n      0x06\n      add\n        /* \"contracts/SmartMatrixForsage.sol\":16521:16555  users[userAddress].x3Matrix[level] */\n      0x00\n        /* \"contracts/SmartMatrixForsage.sol\":16549:16554  level */\n      dup7\n        /* \"contracts/SmartMatrixForsage.sol\":16521:16555  users[userAddress].x3Matrix[level] */\n      0xff\n      and\n      0xff\n      and\n      dup2\n      mstore\n      0x20\n      add\n      swap1\n      dup2\n      mstore\n      0x20\n      add\n      0x00\n      keccak256\n        /* \"contracts/SmartMatrixForsage.sol\":16521:16565  users[userAddress].x3Matrix[level].referrals */\n      0x01\n      add\n        /* \"contracts/SmartMatrixForsage.sol\":16583:16588  users */\n      0x00\n        /* \"contracts/SmartMatrixForsage.sol\":16583:16601  users[userAddress] */\n      0x00\n        /* \"contracts/SmartMatrixForsage.sol\":16589:16600  userAddress */\n      dup9\n        /* \"contracts/SmartMatrixForsage.sol\":16583:16601  users[userAddress] */\n      0xffffffffffffffffffffffffffffffffffffffff\n      and\n      0xffffffffffffffffffffffffffffffffffffffff\n      and\n      dup2\n      mstore\n      0x20\n      add\n      swap1\n      dup2\n      mstore\n      0x20\n      add\n      0x00\n      keccak256\n        /* \"contracts/SmartMatrixForsage.sol\":16583:16610  users[userAddress].x3Matrix */\n      0x06\n      add\n        /* \"contracts/SmartMatrixForsage.sol\":16583:16617  users[userAddress].x3Matrix[level] */\n      0x00\n        /* \"contracts/SmartMatrixForsage.sol\":16611:16616  level */\n      dup8\n        /* \"contracts/SmartMatrixForsage.sol\":16583:16617  users[userAddress].x3Matrix[level] */\n      0xff\n      and\n      0xff\n      and\n      dup2\n      mstore\n      0x20\n      add\n      swap1\n      dup2\n      mstore\n      0x20\n      add\n      0x00\n      keccak256\n        /* \"contracts/SmartMatrixForsage.sol\":16583:16625  users[userAddress].x3Matrix[level].blocked */\n      0x02\n      add\n      0x00\n      swap1\n      sload\n      swap1\n      0x0100\n      exp\n      swap1\n      div\n      0xff\n      and\n        /* \"contracts/SmartMatrixForsage.sol\":16445:16626  return (users[userAddress].x3Matrix[level].currentReferrer,... */\n      dup2\n      dup1\n      sload\n      dup1\n      0x20\n      mul\n      0x20\n      add\n      mload(0x40)\n      swap1\n      dup2\n      add\n      0x40\n      mstore\n      dup1\n      swap3\n      swap2\n      swap1\n      dup2\n      dup2\n      mstore\n      0x20\n      add\n      dup3\n      dup1\n      sload\n      dup1\n      iszero\n      tag_191\n      jumpi\n      0x20\n      mul\n      dup3\n      add\n      swap2\n      swap1\n      0x00\n      mstore\n      keccak256(0x00, 0x20)\n      swap1\n    tag_192:\n      dup2\n      0x00\n      swap1\n      sload\n      swap1\n      0x0100\n      exp\n      swap1\n      div\n      0xffffffffffffffffffffffffffffffffffffffff\n      and\n      0xffffffffffffffffffffffffffffffffffffffff\n      and\n      dup2\n      mstore\n      0x20\n      add\n      swap1\n      0x01\n      add\n      swap1\n      dup1\n      dup4\n      gt\n      tag_192\n      jumpi\n    tag_191:\n      pop\n      pop\n      pop\n      pop\n      pop\n      swap2\n      pop\n      swap3\n      pop\n      swap3\n      pop\n      swap3\n      pop\n        /* \"contracts/SmartMatrixForsage.sol\":16325:16633  function usersX3Matrix(address userAddress, uint8 level) public view returns(address, address[] memory, bool) {... */\n      swap3\n      pop\n      swap3\n      pop\n      swap3\n      jump\t// out\n        /* \"contracts/SmartMatrixForsage.sol\":2890:2920  address public immutable owner */\n    tag_98:\n      immutable(\"0x5ae62207e7adee0b793bf869601474e77943fa4d9e3e0420f34d788e59bc19bd\")\n      dup2\n      jump\t// out\n        /* \"contracts/SmartMatrixForsage.sol\":2483:2520  mapping(address => User) public users */\n    tag_103:\n      mstore(0x20, 0x00)\n      dup1\n      0x00\n      mstore\n      keccak256(0x00, 0x40)\n      0x00\n      swap2\n      pop\n      swap1\n      pop\n      dup1\n      0x00\n      add\n      sload\n      swap1\n      dup1\n      0x01\n      add\n      0x00\n      swap1\n      sload\n      swap1\n      0x0100\n      exp\n      swap1\n      div\n      0xffffffffffffffffffffffffffffffffffffffff\n      and\n      swap1\n      dup1\n      0x02\n      add\n      sload\n      swap1\n      dup1\n      0x03\n      add\n      sload\n      swap1\n      dup1\n      0x04\n      add\n      sload\n      swap1\n      pop\n      dup6\n      jump\t// out\n        /* \"contracts/SmartMatrixForsage.sol\":8168:9150  function buyNewLevel(uint8 matrix, uint8 level) external payable {... */\n    tag_109:\n        /* \"contracts/SmartMatrixForsage.sol\":8251:8275  isUserExists(msg.sender) */\n      tag_194\n        /* \"contracts/SmartMatrixForsage.sol\":8264:8274  msg.sender */\n      caller\n        /* \"contracts/SmartMatrixForsage.sol\":8251:8263  isUserExists */\n      tag_81\n        /* \"contracts/SmartMatrixForsage.sol\":8251:8275  isUserExists(msg.sender) */\n      jump\t// in\n    tag_194:\n        /* \"contracts/SmartMatrixForsage.sol\":8243:8315  require(isUserExists(msg.sender), \"user is not exists. Register first.\") */\n      tag_195\n      jumpi\n      mload(0x40)\n      0x08c379a000000000000000000000000000000000000000000000000000000000\n      dup2\n      mstore\n      0x04\n      add\n      tag_196\n      swap1\n      tag_197\n      jump\t// in\n    tag_196:\n      mload(0x40)\n      dup1\n      swap2\n      sub\n      swap1\n      revert\n    tag_195:\n        /* \"contracts/SmartMatrixForsage.sol\":8343:8344  1 */\n      0x01\n        /* \"contracts/SmartMatrixForsage.sol\":8333:8339  matrix */\n      dup3\n        /* \"contracts/SmartMatrixForsage.sol\":8333:8344  matrix == 1 */\n      0xff\n      and\n      eq\n        /* \"contracts/SmartMatrixForsage.sol\":8325:8363  require(matrix == 1, \"invalid matrix\") */\n      tag_198\n      jumpi\n      mload(0x40)\n      0x08c379a000000000000000000000000000000000000000000000000000000000\n      dup2\n      mstore\n      0x04\n      add\n      tag_199\n      swap1\n      tag_200\n      jump\t// in\n    tag_199:\n      mload(0x40)\n      dup1\n      swap2\n      sub\n      swap1\n      revert\n    tag_198:\n        /* \"contracts/SmartMatrixForsage.sol\":8394:8404  levelPrice */\n      0x04\n        /* \"contracts/SmartMatrixForsage.sol\":8394:8411  levelPrice[level] */\n      0x00\n        /* \"contracts/SmartMatrixForsage.sol\":8405:8410  level */\n      dup3\n        /* \"contracts/SmartMatrixForsage.sol\":8394:8411  levelPrice[level] */\n      0xff\n      and\n      0xff\n      and\n      dup2\n      mstore\n      0x20\n      add\n      swap1\n      dup2\n      mstore\n      0x20\n      add\n      0x00\n      keccak256\n      sload\n        /* \"contracts/SmartMatrixForsage.sol\":8381:8390  msg.value */\n      callvalue\n        /* \"contracts/SmartMatrixForsage.sol\":8381:8411  msg.value == levelPrice[level] */\n      eq\n        /* \"contracts/SmartMatrixForsage.sol\":8373:8429  require(msg.value == levelPrice[level], \"invalid price\") */\n      tag_201\n      jumpi\n      mload(0x40)\n      0x08c379a000000000000000000000000000000000000000000000000000000000\n      dup2\n      mstore\n      0x04\n      add\n      tag_202\n      swap1\n      tag_203\n      jump\t// in\n    tag_202:\n      mload(0x40)\n      dup1\n      swap2\n      sub\n      swap1\n      revert\n    tag_201:\n        /* \"contracts/SmartMatrixForsage.sol\":8455:8456  1 */\n      0x01\n        /* \"contracts/SmartMatrixForsage.sol\":8447:8452  level */\n      dup2\n        /* \"contracts/SmartMatrixForsage.sol\":8447:8456  level > 1 */\n      0xff\n      and\n      gt\n        /* \"contracts/SmartMatrixForsage.sol\":8447:8479  level > 1 && level <= LAST_LEVEL */\n      dup1\n      iszero\n      tag_204\n      jumpi\n      pop\n        /* \"contracts/SmartMatrixForsage.sol\":2433:2435  12 */\n      0x0c\n        /* \"contracts/SmartMatrixForsage.sol\":8460:8479  level <= LAST_LEVEL */\n      0xff\n      and\n        /* \"contracts/SmartMatrixForsage.sol\":8460:8465  level */\n      dup2\n        /* \"contracts/SmartMatrixForsage.sol\":8460:8479  level <= LAST_LEVEL */\n      0xff\n      and\n      gt\n      iszero\n        /* \"contracts/SmartMatrixForsage.sol\":8447:8479  level > 1 && level <= LAST_LEVEL */\n    tag_204:\n        /* \"contracts/SmartMatrixForsage.sol\":8439:8497  require(level > 1 && level <= LAST_LEVEL, \"invalid level\") */\n      tag_205\n      jumpi\n      mload(0x40)\n      0x08c379a000000000000000000000000000000000000000000000000000000000\n      dup2\n      mstore\n      0x04\n      add\n      tag_206\n      swap1\n      tag_207\n      jump\t// in\n    tag_206:\n      mload(0x40)\n      dup1\n      swap2\n      sub\n      swap1\n      revert\n    tag_205:\n        /* \"contracts/SmartMatrixForsage.sol\":8516:8521  users */\n      0x00\n        /* \"contracts/SmartMatrixForsage.sol\":8516:8533  users[msg.sender] */\n      0x00\n        /* \"contracts/SmartMatrixForsage.sol\":8522:8532  msg.sender */\n      caller\n        /* \"contracts/SmartMatrixForsage.sol\":8516:8533  users[msg.sender] */\n      0xffffffffffffffffffffffffffffffffffffffff\n      and\n      0xffffffffffffffffffffffffffffffffffffffff\n      and\n      dup2\n      mstore\n      0x20\n      add\n      swap1\n      dup2\n      mstore\n      0x20\n      add\n      0x00\n      keccak256\n        /* \"contracts/SmartMatrixForsage.sol\":8516:8548  users[msg.sender].activeX3Levels */\n      0x05\n      add\n        /* \"contracts/SmartMatrixForsage.sol\":8516:8555  users[msg.sender].activeX3Levels[level] */\n      0x00\n        /* \"contracts/SmartMatrixForsage.sol\":8549:8554  level */\n      dup3\n        /* \"contracts/SmartMatrixForsage.sol\":8516:8555  users[msg.sender].activeX3Levels[level] */\n      0xff\n      and\n      0xff\n      and\n      dup2\n      mstore\n      0x20\n      add\n      swap1\n      dup2\n      mstore\n      0x20\n      add\n      0x00\n      keccak256\n      0x00\n      swap1\n      sload\n      swap1\n      0x0100\n      exp\n      swap1\n      div\n      0xff\n      and\n        /* \"contracts/SmartMatrixForsage.sol\":8515:8555  !users[msg.sender].activeX3Levels[level] */\n      iszero\n        /* \"contracts/SmartMatrixForsage.sol\":8507:8583  require(!users[msg.sender].activeX3Levels[level], \"level already activated\") */\n      tag_208\n      jumpi\n      mload(0x40)\n      0x08c379a000000000000000000000000000000000000000000000000000000000\n      dup2\n      mstore\n      0x04\n      add\n      tag_209\n      swap1\n      tag_210\n      jump\t// in\n    tag_209:\n      mload(0x40)\n      dup1\n      swap2\n      sub\n      swap1\n      revert\n    tag_208:\n        /* \"contracts/SmartMatrixForsage.sol\":8642:8647  users */\n      0x00\n        /* \"contracts/SmartMatrixForsage.sol\":8642:8659  users[msg.sender] */\n      0x00\n        /* \"contracts/SmartMatrixForsage.sol\":8648:8658  msg.sender */\n      caller\n        /* \"contracts/SmartMatrixForsage.sol\":8642:8659  users[msg.sender] */\n      0xffffffffffffffffffffffffffffffffffffffff\n      and\n      0xffffffffffffffffffffffffffffffffffffffff\n      and\n      dup2\n      mstore\n      0x20\n      add\n      swap1\n      dup2\n      mstore\n      0x20\n      add\n      0x00\n      keccak256\n        /* \"contracts/SmartMatrixForsage.sol\":8642:8668  users[msg.sender].x3Matrix */\n      0x06\n      add\n        /* \"contracts/SmartMatrixForsage.sol\":8642:8677  users[msg.sender].x3Matrix[level-1] */\n      0x00\n        /* \"contracts/SmartMatrixForsage.sol\":8675:8676  1 */\n      0x01\n        /* \"contracts/SmartMatrixForsage.sol\":8669:8674  level */\n      dup4\n        /* \"contracts/SmartMatrixForsage.sol\":8669:8676  level-1 */\n      tag_211\n      swap2\n      swap1\n      tag_212\n      jump\t// in\n    tag_211:\n        /* \"contracts/SmartMatrixForsage.sol\":8642:8677  users[msg.sender].x3Matrix[level-1] */\n      0xff\n      and\n      0xff\n      and\n      dup2\n      mstore\n      0x20\n      add\n      swap1\n      dup2\n      mstore\n      0x20\n      add\n      0x00\n      keccak256\n        /* \"contracts/SmartMatrixForsage.sol\":8642:8685  users[msg.sender].x3Matrix[level-1].blocked */\n      0x02\n      add\n      0x00\n      swap1\n      sload\n      swap1\n      0x0100\n      exp\n      swap1\n      div\n      0xff\n      and\n        /* \"contracts/SmartMatrixForsage.sol\":8638:8763  if (users[msg.sender].x3Matrix[level-1].blocked) {... */\n      iszero\n      tag_213\n      jumpi\n        /* \"contracts/SmartMatrixForsage.sol\":8747:8752  false */\n      0x00\n        /* \"contracts/SmartMatrixForsage.sol\":8701:8706  users */\n      0x00\n        /* \"contracts/SmartMatrixForsage.sol\":8701:8718  users[msg.sender] */\n      0x00\n        /* \"contracts/SmartMatrixForsage.sol\":8707:8717  msg.sender */\n      caller\n        /* \"contracts/SmartMatrixForsage.sol\":8701:8718  users[msg.sender] */\n      0xffffffffffffffffffffffffffffffffffffffff\n      and\n      0xffffffffffffffffffffffffffffffffffffffff\n      and\n      dup2\n      mstore\n      0x20\n      add\n      swap1\n      dup2\n      mstore\n      0x20\n      add\n      0x00\n      keccak256\n        /* \"contracts/SmartMatrixForsage.sol\":8701:8727  users[msg.sender].x3Matrix */\n      0x06\n      add\n        /* \"contracts/SmartMatrixForsage.sol\":8701:8736  users[msg.sender].x3Matrix[level-1] */\n      0x00\n        /* \"contracts/SmartMatrixForsage.sol\":8734:8735  1 */\n      0x01\n        /* \"contracts/SmartMatrixForsage.sol\":8728:8733  level */\n      dup5\n        /* \"contracts/SmartMatrixForsage.sol\":8728:8735  level-1 */\n      tag_214\n      swap2\n      swap1\n      tag_212\n      jump\t// in\n    tag_214:\n        /* \"contracts/SmartMatrixForsage.sol\":8701:8736  users[msg.sender].x3Matrix[level-1] */\n      0xff\n      and\n      0xff\n      and\n      dup2\n      mstore\n      0x20\n      add\n      swap1\n      dup2\n      mstore\n      0x20\n      add\n      0x00\n      keccak256\n        /* \"contracts/SmartMatrixForsage.sol\":8701:8744  users[msg.sender].x3Matrix[level-1].blocked */\n      0x02\n      add\n      0x00\n        /* \"contracts/SmartMatrixForsage.sol\":8701:8752  users[msg.sender].x3Matrix[level-1].blocked = false */\n      0x0100\n      exp\n      dup2\n      sload\n      dup2\n      0xff\n      mul\n      not\n      and\n      swap1\n      dup4\n      iszero\n      iszero\n      mul\n      or\n      swap1\n      sstore\n      pop\n        /* \"contracts/SmartMatrixForsage.sol\":8638:8763  if (users[msg.sender].x3Matrix[level-1].blocked) {... */\n    tag_213:\n        /* \"contracts/SmartMatrixForsage.sol\":8819:8841  address freeX3Referrer */\n      0x00\n        /* \"contracts/SmartMatrixForsage.sol\":8844:8881  findFreeX3Referrer(msg.sender, level) */\n      tag_215\n        /* \"contracts/SmartMatrixForsage.sol\":8863:8873  msg.sender */\n      caller\n        /* \"contracts/SmartMatrixForsage.sol\":8875:8880  level */\n      dup4\n        /* \"contracts/SmartMatrixForsage.sol\":8844:8862  findFreeX3Referrer */\n      tag_119\n        /* \"contracts/SmartMatrixForsage.sol\":8844:8881  findFreeX3Referrer(msg.sender, level) */\n      jump\t// in\n    tag_215:\n        /* \"contracts/SmartMatrixForsage.sol\":8819:8881  address freeX3Referrer = findFreeX3Referrer(msg.sender, level) */\n      swap1\n      pop\n        /* \"contracts/SmartMatrixForsage.sol\":8943:8957  freeX3Referrer */\n      dup1\n        /* \"contracts/SmartMatrixForsage.sol\":8891:8896  users */\n      0x00\n        /* \"contracts/SmartMatrixForsage.sol\":8891:8908  users[msg.sender] */\n      0x00\n        /* \"contracts/SmartMatrixForsage.sol\":8897:8907  msg.sender */\n      caller\n        /* \"contracts/SmartMatrixForsage.sol\":8891:8908  users[msg.sender] */\n      0xffffffffffffffffffffffffffffffffffffffff\n      and\n      0xffffffffffffffffffffffffffffffffffffffff\n      and\n      dup2\n      mstore\n      0x20\n      add\n      swap1\n      dup2\n      mstore\n      0x20\n      add\n      0x00\n      keccak256\n        /* \"contracts/SmartMatrixForsage.sol\":8891:8917  users[msg.sender].x3Matrix */\n      0x06\n      add\n        /* \"contracts/SmartMatrixForsage.sol\":8891:8924  users[msg.sender].x3Matrix[level] */\n      0x00\n        /* \"contracts/SmartMatrixForsage.sol\":8918:8923  level */\n      dup5\n        /* \"contracts/SmartMatrixForsage.sol\":8891:8924  users[msg.sender].x3Matrix[level] */\n      0xff\n      and\n      0xff\n      and\n      dup2\n      mstore\n      0x20\n      add\n      swap1\n      dup2\n      mstore\n      0x20\n      add\n      0x00\n      keccak256\n        /* \"contracts/SmartMatrixForsage.sol\":8891:8940  users[msg.sender].x3Matrix[level].currentReferrer */\n      0x00\n      add\n      0x00\n        /* \"contracts/SmartMatrixForsage.sol\":8891:8957  users[msg.sender].x3Matrix[level].currentReferrer = freeX3Referrer */\n      0x0100\n      exp\n      dup2\n      sload\n      dup2\n      0xffffffffffffffffffffffffffffffffffffffff\n      mul\n      not\n      and\n      swap1\n      dup4\n      0xffffffffffffffffffffffffffffffffffffffff\n      and\n      mul\n      or\n      swap1\n      sstore\n      pop\n        /* \"contracts/SmartMatrixForsage.sol\":9009:9013  true */\n      0x01\n        /* \"contracts/SmartMatrixForsage.sol\":8967:8972  users */\n      0x00\n        /* \"contracts/SmartMatrixForsage.sol\":8967:8984  users[msg.sender] */\n      0x00\n        /* \"contracts/SmartMatrixForsage.sol\":8973:8983  msg.sender */\n      caller\n        /* \"contracts/SmartMatrixForsage.sol\":8967:8984  users[msg.sender] */\n      0xffffffffffffffffffffffffffffffffffffffff\n      and\n      0xffffffffffffffffffffffffffffffffffffffff\n      and\n      dup2\n      mstore\n      0x20\n      add\n      swap1\n      dup2\n      mstore\n      0x20\n      add\n      0x00\n      keccak256\n        /* \"contracts/SmartMatrixForsage.sol\":8967:8999  users[msg.sender].activeX3Levels */\n      0x05\n      add\n        /* \"contracts/SmartMatrixForsage.sol\":8967:9006  users[msg.sender].activeX3Levels[level] */\n      0x00\n        /* \"contracts/SmartMatrixForsage.sol\":9000:9005  level */\n      dup5\n        /* \"contracts/SmartMatrixForsage.sol\":8967:9006  users[msg.sender].activeX3Levels[level] */\n      0xff\n      and\n      0xff\n      and\n      dup2\n      mstore\n      0x20\n      add\n      swap1\n      dup2\n      mstore\n      0x20\n      add\n      0x00\n      keccak256\n      0x00\n        /* \"contracts/SmartMatrixForsage.sol\":8967:9013  users[msg.sender].activeX3Levels[level] = true */\n      0x0100\n      exp\n      dup2\n      sload\n      dup2\n      0xff\n      mul\n      not\n      and\n      swap1\n      dup4\n      iszero\n      iszero\n      mul\n      or\n      swap1\n      sstore\n      pop\n        /* \"contracts/SmartMatrixForsage.sol\":9023:9074  updateX3Referrer(msg.sender, freeX3Referrer, level) */\n      tag_216\n        /* \"contracts/SmartMatrixForsage.sol\":9040:9050  msg.sender */\n      caller\n        /* \"contracts/SmartMatrixForsage.sol\":9052:9066  freeX3Referrer */\n      dup3\n        /* \"contracts/SmartMatrixForsage.sol\":9068:9073  level */\n      dup5\n        /* \"contracts/SmartMatrixForsage.sol\":9023:9039  updateX3Referrer */\n      tag_141\n        /* \"contracts/SmartMatrixForsage.sol\":9023:9074  updateX3Referrer(msg.sender, freeX3Referrer, level) */\n      jump\t// in\n    tag_216:\n        /* \"contracts/SmartMatrixForsage.sol\":9118:9132  freeX3Referrer */\n      dup1\n        /* \"contracts/SmartMatrixForsage.sol\":9098:9143  Upgrade(msg.sender, freeX3Referrer, 1, level) */\n      0xffffffffffffffffffffffffffffffffffffffff\n      and\n        /* \"contracts/SmartMatrixForsage.sol\":9106:9116  msg.sender */\n      caller\n        /* \"contracts/SmartMatrixForsage.sol\":9098:9143  Upgrade(msg.sender, freeX3Referrer, 1, level) */\n      0xffffffffffffffffffffffffffffffffffffffff\n      and\n      0x18a92df19fd94d6cfff209966673a5ca05a1c8e2bb68e097fce2bdc2ed811119\n        /* \"contracts/SmartMatrixForsage.sol\":9134:9135  1 */\n      0x01\n        /* \"contracts/SmartMatrixForsage.sol\":9137:9142  level */\n      dup6\n        /* \"contracts/SmartMatrixForsage.sol\":9098:9143  Upgrade(msg.sender, freeX3Referrer, 1, level) */\n      mload(0x40)\n      tag_217\n      swap3\n      swap2\n      swap1\n      tag_218\n      jump\t// in\n    tag_217:\n      mload(0x40)\n      dup1\n      swap2\n      sub\n      swap1\n      log3\n        /* \"contracts/SmartMatrixForsage.sol\":8233:9150  {... */\n      pop\n        /* \"contracts/SmartMatrixForsage.sol\":8168:9150  function buyNewLevel(uint8 matrix, uint8 level) external payable {... */\n      pop\n      pop\n      jump\t// out\n        /* \"contracts/SmartMatrixForsage.sol\":2975:3018  mapping(uint8 => uint256) public levelPrice */\n    tag_114:\n      mstore(0x20, 0x04)\n      dup1\n      0x00\n      mstore\n      keccak256(0x00, 0x40)\n      0x00\n      swap2\n      pop\n      swap1\n      pop\n      sload\n      dup2\n      jump\t// out\n        /* \"contracts/SmartMatrixForsage.sol\":11963:12291  function findFreeX3Referrer(address userAddress, uint8 level) public view returns(address) {... */\n    tag_119:\n        /* \"contracts/SmartMatrixForsage.sol\":12045:12052  address */\n      0x00\n        /* \"contracts/SmartMatrixForsage.sol\":12064:12285  while (true) {... */\n    tag_220:\n        /* \"contracts/SmartMatrixForsage.sol\":12071:12075  true */\n      0x01\n        /* \"contracts/SmartMatrixForsage.sol\":12064:12285  while (true) {... */\n      iszero\n      tag_221\n      jumpi\n        /* \"contracts/SmartMatrixForsage.sol\":12095:12100  users */\n      0x00\n        /* \"contracts/SmartMatrixForsage.sol\":12095:12129  users[users[userAddress].referrer] */\n      0x00\n        /* \"contracts/SmartMatrixForsage.sol\":12101:12106  users */\n      0x00\n        /* \"contracts/SmartMatrixForsage.sol\":12101:12119  users[userAddress] */\n      0x00\n        /* \"contracts/SmartMatrixForsage.sol\":12107:12118  userAddress */\n      dup7\n        /* \"contracts/SmartMatrixForsage.sol\":12101:12119  users[userAddress] */\n      0xffffffffffffffffffffffffffffffffffffffff\n      and\n      0xffffffffffffffffffffffffffffffffffffffff\n      and\n      dup2\n      mstore\n      0x20\n      add\n      swap1\n      dup2\n      mstore\n      0x20\n      add\n      0x00\n      keccak256\n        /* \"contracts/SmartMatrixForsage.sol\":12101:12128  users[userAddress].referrer */\n      0x01\n      add\n      0x00\n      swap1\n      sload\n      swap1\n      0x0100\n      exp\n      swap1\n      div\n      0xffffffffffffffffffffffffffffffffffffffff\n      and\n        /* \"contracts/SmartMatrixForsage.sol\":12095:12129  users[users[userAddress].referrer] */\n      0xffffffffffffffffffffffffffffffffffffffff\n      and\n      0xffffffffffffffffffffffffffffffffffffffff\n      and\n      dup2\n      mstore\n      0x20\n      add\n      swap1\n      dup2\n      mstore\n      0x20\n      add\n      0x00\n      keccak256\n        /* \"contracts/SmartMatrixForsage.sol\":12095:12144  users[users[userAddress].referrer].activeX3Levels */\n      0x05\n      add\n        /* \"contracts/SmartMatrixForsage.sol\":12095:12151  users[users[userAddress].referrer].activeX3Levels[level] */\n      0x00\n        /* \"contracts/SmartMatrixForsage.sol\":12145:12150  level */\n      dup4\n        /* \"contracts/SmartMatrixForsage.sol\":12095:12151  users[users[userAddress].referrer].activeX3Levels[level] */\n      0xff\n      and\n      0xff\n      and\n      dup2\n      mstore\n      0x20\n      add\n      swap1\n      dup2\n      mstore\n      0x20\n      add\n      0x00\n      keccak256\n      0x00\n      swap1\n      sload\n      swap1\n      0x0100\n      exp\n      swap1\n      div\n      0xff\n      and\n        /* \"contracts/SmartMatrixForsage.sol\":12091:12220  if (users[users[userAddress].referrer].activeX3Levels[level]) {... */\n      iszero\n      tag_222\n      jumpi\n        /* \"contracts/SmartMatrixForsage.sol\":12178:12183  users */\n      0x00\n        /* \"contracts/SmartMatrixForsage.sol\":12178:12196  users[userAddress] */\n      0x00\n        /* \"contracts/SmartMatrixForsage.sol\":12184:12195  userAddress */\n      dup5\n        /* \"contracts/SmartMatrixForsage.sol\":12178:12196  users[userAddress] */\n      0xffffffffffffffffffffffffffffffffffffffff\n      and\n      0xffffffffffffffffffffffffffffffffffffffff\n      and\n      dup2\n      mstore\n      0x20\n      add\n      swap1\n      dup2\n      mstore\n      0x20\n      add\n      0x00\n      keccak256\n        /* \"contracts/SmartMatrixForsage.sol\":12178:12205  users[userAddress].referrer */\n      0x01\n      add\n      0x00\n      swap1\n      sload\n      swap1\n      0x0100\n      exp\n      swap1\n      div\n      0xffffffffffffffffffffffffffffffffffffffff\n      and\n        /* \"contracts/SmartMatrixForsage.sol\":12171:12205  return users[userAddress].referrer */\n      swap1\n      pop\n      jump(tag_219)\n        /* \"contracts/SmartMatrixForsage.sol\":12091:12220  if (users[users[userAddress].referrer].activeX3Levels[level]) {... */\n    tag_222:\n        /* \"contracts/SmartMatrixForsage.sol\":12247:12252  users */\n      0x00\n        /* \"contracts/SmartMatrixForsage.sol\":12247:12265  users[userAddress] */\n      0x00\n        /* \"contracts/SmartMatrixForsage.sol\":12253:12264  userAddress */\n      dup5\n        /* \"contracts/SmartMatrixForsage.sol\":12247:12265  users[userAddress] */\n      0xffffffffffffffffffffffffffffffffffffffff\n      and\n      0xffffffffffffffffffffffffffffffffffffffff\n      and\n      dup2\n      mstore\n      0x20\n      add\n      swap1\n      dup2\n      mstore\n      0x20\n      add\n      0x00\n      keccak256\n        /* \"contracts/SmartMatrixForsage.sol\":12247:12274  users[userAddress].referrer */\n      0x01\n      add\n      0x00\n      swap1\n      sload\n      swap1\n      0x0100\n      exp\n      swap1\n      div\n      0xffffffffffffffffffffffffffffffffffffffff\n      and\n        /* \"contracts/SmartMatrixForsage.sol\":12233:12274  userAddress = users[userAddress].referrer */\n      swap3\n      pop\n        /* \"contracts/SmartMatrixForsage.sol\":12064:12285  while (true) {... */\n      jump(tag_220)\n    tag_221:\n        /* \"contracts/SmartMatrixForsage.sol\":11963:12291  function findFreeX3Referrer(address userAddress, uint8 level) public view returns(address) {... */\n    tag_219:\n      swap3\n      swap2\n      pop\n      pop\n      jump\t// out\n        /* \"contracts/SmartMatrixForsage.sol\":9822:11673  function updateX3Referrer(address userAddress, address referrerAddress, uint8 level) private {... */\n    tag_141:\n        /* \"contracts/SmartMatrixForsage.sol\":9925:9930  users */\n      0x00\n        /* \"contracts/SmartMatrixForsage.sol\":9925:9947  users[referrerAddress] */\n      0x00\n        /* \"contracts/SmartMatrixForsage.sol\":9931:9946  referrerAddress */\n      dup4\n        /* \"contracts/SmartMatrixForsage.sol\":9925:9947  users[referrerAddress] */\n      0xffffffffffffffffffffffffffffffffffffffff\n      and\n      0xffffffffffffffffffffffffffffffffffffffff\n      and\n      dup2\n      mstore\n      0x20\n      add\n      swap1\n      dup2\n      mstore\n      0x20\n      add\n      0x00\n      keccak256\n        /* \"contracts/SmartMatrixForsage.sol\":9925:9956  users[referrerAddress].x3Matrix */\n      0x06\n      add\n        /* \"contracts/SmartMatrixForsage.sol\":9925:9963  users[referrerAddress].x3Matrix[level] */\n      0x00\n        /* \"contracts/SmartMatrixForsage.sol\":9957:9962  level */\n      dup3\n        /* \"contracts/SmartMatrixForsage.sol\":9925:9963  users[referrerAddress].x3Matrix[level] */\n      0xff\n      and\n      0xff\n      and\n      dup2\n      mstore\n      0x20\n      add\n      swap1\n      dup2\n      mstore\n      0x20\n      add\n      0x00\n      keccak256\n        /* \"contracts/SmartMatrixForsage.sol\":9925:9973  users[referrerAddress].x3Matrix[level].referrals */\n      0x01\n      add\n        /* \"contracts/SmartMatrixForsage.sol\":9979:9990  userAddress */\n      dup4\n        /* \"contracts/SmartMatrixForsage.sol\":9925:9991  users[referrerAddress].x3Matrix[level].referrals.push(userAddress) */\n      swap1\n      dup1\n      0x01\n      dup2\n      sload\n      add\n      dup1\n      dup3\n      sstore\n      dup1\n      swap2\n      pop\n      pop\n      0x01\n      swap1\n      sub\n      swap1\n      0x00\n      mstore\n      keccak256(0x00, 0x20)\n      add\n      0x00\n      swap1\n      swap2\n      swap1\n      swap2\n      swap1\n      swap2\n      0x0100\n      exp\n      dup2\n      sload\n      dup2\n      0xffffffffffffffffffffffffffffffffffffffff\n      mul\n      not\n      and\n      swap1\n      dup4\n      0xffffffffffffffffffffffffffffffffffffffff\n      and\n      mul\n      or\n      swap1\n      sstore\n      pop\n        /* \"contracts/SmartMatrixForsage.sol\":10121:10122  3 */\n      0x03\n        /* \"contracts/SmartMatrixForsage.sol\":10063:10068  users */\n      0x00\n        /* \"contracts/SmartMatrixForsage.sol\":10063:10085  users[referrerAddress] */\n      0x00\n        /* \"contracts/SmartMatrixForsage.sol\":10069:10084  referrerAddress */\n      dup5\n        /* \"contracts/SmartMatrixForsage.sol\":10063:10085  users[referrerAddress] */\n      0xffffffffffffffffffffffffffffffffffffffff\n      and\n      0xffffffffffffffffffffffffffffffffffffffff\n      and\n      dup2\n      mstore\n      0x20\n      add\n      swap1\n      dup2\n      mstore\n      0x20\n      add\n      0x00\n      keccak256\n        /* \"contracts/SmartMatrixForsage.sol\":10063:10094  users[referrerAddress].x3Matrix */\n      0x06\n      add\n        /* \"contracts/SmartMatrixForsage.sol\":10063:10101  users[referrerAddress].x3Matrix[level] */\n      0x00\n        /* \"contracts/SmartMatrixForsage.sol\":10095:10100  level */\n      dup4\n        /* \"contracts/SmartMatrixForsage.sol\":10063:10101  users[referrerAddress].x3Matrix[level] */\n      0xff\n      and\n      0xff\n      and\n      dup2\n      mstore\n      0x20\n      add\n      swap1\n      dup2\n      mstore\n      0x20\n      add\n      0x00\n      keccak256\n        /* \"contracts/SmartMatrixForsage.sol\":10063:10111  users[referrerAddress].x3Matrix[level].referrals */\n      0x01\n      add\n        /* \"contracts/SmartMatrixForsage.sol\":10063:10118  users[referrerAddress].x3Matrix[level].referrals.length */\n      dup1\n      sload\n      swap1\n      pop\n        /* \"contracts/SmartMatrixForsage.sol\":10063:10122  users[referrerAddress].x3Matrix[level].referrals.length < 3 */\n      lt\n        /* \"contracts/SmartMatrixForsage.sol\":10059:10347  if (users[referrerAddress].x3Matrix[level].referrals.length < 3) {... */\n      iszero\n      tag_225\n      jumpi\n        /* \"contracts/SmartMatrixForsage.sol\":10169:10184  referrerAddress */\n      dup2\n        /* \"contracts/SmartMatrixForsage.sol\":10143:10259  NewUserPlace(userAddress, referrerAddress, 1, level, uint8(users[referrerAddress].x3Matrix[level].referrals.length)) */\n      0xffffffffffffffffffffffffffffffffffffffff\n      and\n        /* \"contracts/SmartMatrixForsage.sol\":10156:10167  userAddress */\n      dup4\n        /* \"contracts/SmartMatrixForsage.sol\":10143:10259  NewUserPlace(userAddress, referrerAddress, 1, level, uint8(users[referrerAddress].x3Matrix[level].referrals.length)) */\n      0xffffffffffffffffffffffffffffffffffffffff\n      and\n      0x68062c5925c4317adf3a7095478d28b33fd8b41458bc7620b61bc46bf1b24d82\n        /* \"contracts/SmartMatrixForsage.sol\":10186:10187  1 */\n      0x01\n        /* \"contracts/SmartMatrixForsage.sol\":10189:10194  level */\n      dup5\n        /* \"contracts/SmartMatrixForsage.sol\":10202:10207  users */\n      0x00\n        /* \"contracts/SmartMatrixForsage.sol\":10202:10224  users[referrerAddress] */\n      0x00\n        /* \"contracts/SmartMatrixForsage.sol\":10208:10223  referrerAddress */\n      dup9\n        /* \"contracts/SmartMatrixForsage.sol\":10202:10224  users[referrerAddress] */\n      0xffffffffffffffffffffffffffffffffffffffff\n      and\n      0xffffffffffffffffffffffffffffffffffffffff\n      and\n      dup2\n      mstore\n      0x20\n      add\n      swap1\n      dup2\n      mstore\n      0x20\n      add\n      0x00\n      keccak256\n        /* \"contracts/SmartMatrixForsage.sol\":10202:10233  users[referrerAddress].x3Matrix */\n      0x06\n      add\n        /* \"contracts/SmartMatrixForsage.sol\":10202:10240  users[referrerAddress].x3Matrix[level] */\n      0x00\n        /* \"contracts/SmartMatrixForsage.sol\":10234:10239  level */\n      dup8\n        /* \"contracts/SmartMatrixForsage.sol\":10202:10240  users[referrerAddress].x3Matrix[level] */\n      0xff\n      and\n      0xff\n      and\n      dup2\n      mstore\n      0x20\n      add\n      swap1\n      dup2\n      mstore\n      0x20\n      add\n      0x00\n      keccak256\n        /* \"contracts/SmartMatrixForsage.sol\":10202:10250  users[referrerAddress].x3Matrix[level].referrals */\n      0x01\n      add\n        /* \"contracts/SmartMatrixForsage.sol\":10202:10257  users[referrerAddress].x3Matrix[level].referrals.length */\n      dup1\n      sload\n      swap1\n      pop\n        /* \"contracts/SmartMatrixForsage.sol\":10143:10259  NewUserPlace(userAddress, referrerAddress, 1, level, uint8(users[referrerAddress].x3Matrix[level].referrals.length)) */\n      mload(0x40)\n      tag_226\n      swap4\n      swap3\n      swap2\n      swap1\n      tag_227\n      jump\t// in\n    tag_226:\n      mload(0x40)\n      dup1\n      swap2\n      sub\n      swap1\n      log3\n        /* \"contracts/SmartMatrixForsage.sol\":10280:10336  sendETHDividends(referrerAddress, userAddress, 1, level) */\n      tag_228\n        /* \"contracts/SmartMatrixForsage.sol\":10297:10312  referrerAddress */\n      dup3\n        /* \"contracts/SmartMatrixForsage.sol\":10314:10325  userAddress */\n      dup5\n        /* \"contracts/SmartMatrixForsage.sol\":10327:10328  1 */\n      0x01\n        /* \"contracts/SmartMatrixForsage.sol\":10330:10335  level */\n      dup5\n        /* \"contracts/SmartMatrixForsage.sol\":10280:10296  sendETHDividends */\n      tag_229\n        /* \"contracts/SmartMatrixForsage.sol\":10280:10336  sendETHDividends(referrerAddress, userAddress, 1, level) */\n      jump\t// in\n    tag_228:\n        /* \"contracts/SmartMatrixForsage.sol\":10273:10336  return sendETHDividends(referrerAddress, userAddress, 1, level) */\n      jump(tag_223)\n        /* \"contracts/SmartMatrixForsage.sol\":10059:10347  if (users[referrerAddress].x3Matrix[level].referrals.length < 3) {... */\n    tag_225:\n        /* \"contracts/SmartMatrixForsage.sol\":10446:10461  referrerAddress */\n      dup2\n        /* \"contracts/SmartMatrixForsage.sol\":10420:10475  NewUserPlace(userAddress, referrerAddress, 1, level, 3) */\n      0xffffffffffffffffffffffffffffffffffffffff\n      and\n        /* \"contracts/SmartMatrixForsage.sol\":10433:10444  userAddress */\n      dup4\n        /* \"contracts/SmartMatrixForsage.sol\":10420:10475  NewUserPlace(userAddress, referrerAddress, 1, level, 3) */\n      0xffffffffffffffffffffffffffffffffffffffff\n      and\n      0x68062c5925c4317adf3a7095478d28b33fd8b41458bc7620b61bc46bf1b24d82\n        /* \"contracts/SmartMatrixForsage.sol\":10463:10464  1 */\n      0x01\n        /* \"contracts/SmartMatrixForsage.sol\":10466:10471  level */\n      dup5\n        /* \"contracts/SmartMatrixForsage.sol\":10473:10474  3 */\n      0x03\n        /* \"contracts/SmartMatrixForsage.sol\":10420:10475  NewUserPlace(userAddress, referrerAddress, 1, level, 3) */\n      mload(0x40)\n      tag_230\n      swap4\n      swap3\n      swap2\n      swap1\n      tag_231\n      jump\t// in\n    tag_230:\n      mload(0x40)\n      dup1\n      swap2\n      sub\n      swap1\n      log3\n        /* \"contracts/SmartMatrixForsage.sol\":10501:10506  users */\n      0x00\n        /* \"contracts/SmartMatrixForsage.sol\":10501:10523  users[referrerAddress] */\n      0x00\n        /* \"contracts/SmartMatrixForsage.sol\":10507:10522  referrerAddress */\n      dup4\n        /* \"contracts/SmartMatrixForsage.sol\":10501:10523  users[referrerAddress] */\n      0xffffffffffffffffffffffffffffffffffffffff\n      and\n      0xffffffffffffffffffffffffffffffffffffffff\n      and\n      dup2\n      mstore\n      0x20\n      add\n      swap1\n      dup2\n      mstore\n      0x20\n      add\n      0x00\n      keccak256\n        /* \"contracts/SmartMatrixForsage.sol\":10501:10532  users[referrerAddress].x3Matrix */\n      0x06\n      add\n        /* \"contracts/SmartMatrixForsage.sol\":10501:10539  users[referrerAddress].x3Matrix[level] */\n      0x00\n        /* \"contracts/SmartMatrixForsage.sol\":10533:10538  level */\n      dup3\n        /* \"contracts/SmartMatrixForsage.sol\":10501:10539  users[referrerAddress].x3Matrix[level] */\n      0xff\n      and\n      0xff\n      and\n      dup2\n      mstore\n      0x20\n      add\n      swap1\n      dup2\n      mstore\n      0x20\n      add\n      0x00\n      keccak256\n        /* \"contracts/SmartMatrixForsage.sol\":10501:10549  users[referrerAddress].x3Matrix[level].referrals */\n      0x01\n      add\n      0x00\n        /* \"contracts/SmartMatrixForsage.sol\":10494:10549  delete users[referrerAddress].x3Matrix[level].referrals */\n      tag_232\n      swap2\n      swap1\n      tag_233\n      jump\t// in\n    tag_232:\n        /* \"contracts/SmartMatrixForsage.sol\":10618:10623  users */\n      0x00\n        /* \"contracts/SmartMatrixForsage.sol\":10618:10640  users[referrerAddress] */\n      0x00\n        /* \"contracts/SmartMatrixForsage.sol\":10624:10639  referrerAddress */\n      dup4\n        /* \"contracts/SmartMatrixForsage.sol\":10618:10640  users[referrerAddress] */\n      0xffffffffffffffffffffffffffffffffffffffff\n      and\n      0xffffffffffffffffffffffffffffffffffffffff\n      and\n      dup2\n      mstore\n      0x20\n      add\n      swap1\n      dup2\n      mstore\n      0x20\n      add\n      0x00\n      keccak256\n        /* \"contracts/SmartMatrixForsage.sol\":10618:10655  users[referrerAddress].activeX3Levels */\n      0x05\n      add\n        /* \"contracts/SmartMatrixForsage.sol\":10618:10664  users[referrerAddress].activeX3Levels[level+1] */\n      0x00\n        /* \"contracts/SmartMatrixForsage.sol\":10662:10663  1 */\n      0x01\n        /* \"contracts/SmartMatrixForsage.sol\":10656:10661  level */\n      dup4\n        /* \"contracts/SmartMatrixForsage.sol\":10656:10663  level+1 */\n      tag_234\n      swap2\n      swap1\n      tag_235\n      jump\t// in\n    tag_234:\n        /* \"contracts/SmartMatrixForsage.sol\":10618:10664  users[referrerAddress].activeX3Levels[level+1] */\n      0xff\n      and\n      0xff\n      and\n      dup2\n      mstore\n      0x20\n      add\n      swap1\n      dup2\n      mstore\n      0x20\n      add\n      0x00\n      keccak256\n      0x00\n      swap1\n      sload\n      swap1\n      0x0100\n      exp\n      swap1\n      div\n      0xff\n      and\n        /* \"contracts/SmartMatrixForsage.sol\":10617:10664  !users[referrerAddress].activeX3Levels[level+1] */\n      iszero\n        /* \"contracts/SmartMatrixForsage.sol\":10617:10687  !users[referrerAddress].activeX3Levels[level+1] && level != LAST_LEVEL */\n      dup1\n      iszero\n      tag_236\n      jumpi\n      pop\n        /* \"contracts/SmartMatrixForsage.sol\":2433:2435  12 */\n      0x0c\n        /* \"contracts/SmartMatrixForsage.sol\":10668:10687  level != LAST_LEVEL */\n      0xff\n      and\n        /* \"contracts/SmartMatrixForsage.sol\":10668:10673  level */\n      dup2\n        /* \"contracts/SmartMatrixForsage.sol\":10668:10687  level != LAST_LEVEL */\n      0xff\n      and\n      eq\n      iszero\n        /* \"contracts/SmartMatrixForsage.sol\":10617:10687  !users[referrerAddress].activeX3Levels[level+1] && level != LAST_LEVEL */\n    tag_236:\n        /* \"contracts/SmartMatrixForsage.sol\":10613:10767  if (!users[referrerAddress].activeX3Levels[level+1] && level != LAST_LEVEL) {... */\n      iszero\n      tag_237\n      jumpi\n        /* \"contracts/SmartMatrixForsage.sol\":10752:10756  true */\n      0x01\n        /* \"contracts/SmartMatrixForsage.sol\":10703:10708  users */\n      0x00\n        /* \"contracts/SmartMatrixForsage.sol\":10703:10725  users[referrerAddress] */\n      0x00\n        /* \"contracts/SmartMatrixForsage.sol\":10709:10724  referrerAddress */\n      dup5\n        /* \"contracts/SmartMatrixForsage.sol\":10703:10725  users[referrerAddress] */\n      0xffffffffffffffffffffffffffffffffffffffff\n      and\n      0xffffffffffffffffffffffffffffffffffffffff\n      and\n      dup2\n      mstore\n      0x20\n      add\n      swap1\n      dup2\n      mstore\n      0x20\n      add\n      0x00\n      keccak256\n        /* \"contracts/SmartMatrixForsage.sol\":10703:10734  users[referrerAddress].x3Matrix */\n      0x06\n      add\n        /* \"contracts/SmartMatrixForsage.sol\":10703:10741  users[referrerAddress].x3Matrix[level] */\n      0x00\n        /* \"contracts/SmartMatrixForsage.sol\":10735:10740  level */\n      dup4\n        /* \"contracts/SmartMatrixForsage.sol\":10703:10741  users[referrerAddress].x3Matrix[level] */\n      0xff\n      and\n      0xff\n      and\n      dup2\n      mstore\n      0x20\n      add\n      swap1\n      dup2\n      mstore\n      0x20\n      add\n      0x00\n      keccak256\n        /* \"contracts/SmartMatrixForsage.sol\":10703:10749  users[referrerAddress].x3Matrix[level].blocked */\n      0x02\n      add\n      0x00\n        /* \"contracts/SmartMatrixForsage.sol\":10703:10756  users[referrerAddress].x3Matrix[level].blocked = true */\n      0x0100\n      exp\n      dup2\n      sload\n      dup2\n      0xff\n      mul\n      not\n      and\n      swap1\n      dup4\n      iszero\n      iszero\n      mul\n      or\n      swap1\n      sstore\n      pop\n        /* \"contracts/SmartMatrixForsage.sol\":10613:10767  if (!users[referrerAddress].activeX3Levels[level+1] && level != LAST_LEVEL) {... */\n    tag_237:\n        /* \"contracts/SmartMatrixForsage.sol\":10849:10854  owner */\n      immutable(\"0x5ae62207e7adee0b793bf869601474e77943fa4d9e3e0420f34d788e59bc19bd\")\n        /* \"contracts/SmartMatrixForsage.sol\":10830:10854  referrerAddress != owner */\n      0xffffffffffffffffffffffffffffffffffffffff\n      and\n        /* \"contracts/SmartMatrixForsage.sol\":10830:10845  referrerAddress */\n      dup3\n        /* \"contracts/SmartMatrixForsage.sol\":10830:10854  referrerAddress != owner */\n      0xffffffffffffffffffffffffffffffffffffffff\n      and\n      eq\n        /* \"contracts/SmartMatrixForsage.sol\":10826:11667  if (referrerAddress != owner) {... */\n      tag_238\n      jumpi\n        /* \"contracts/SmartMatrixForsage.sol\":10870:10897  address freeReferrerAddress */\n      0x00\n        /* \"contracts/SmartMatrixForsage.sol\":10900:10942  findFreeX3Referrer(referrerAddress, level) */\n      tag_239\n        /* \"contracts/SmartMatrixForsage.sol\":10919:10934  referrerAddress */\n      dup4\n        /* \"contracts/SmartMatrixForsage.sol\":10936:10941  level */\n      dup4\n        /* \"contracts/SmartMatrixForsage.sol\":10900:10918  findFreeX3Referrer */\n      tag_119\n        /* \"contracts/SmartMatrixForsage.sol\":10900:10942  findFreeX3Referrer(referrerAddress, level) */\n      jump\t// in\n    tag_239:\n        /* \"contracts/SmartMatrixForsage.sol\":10870:10942  address freeReferrerAddress = findFreeX3Referrer(referrerAddress, level) */\n      swap1\n      pop\n        /* \"contracts/SmartMatrixForsage.sol\":11018:11037  freeReferrerAddress */\n      dup1\n        /* \"contracts/SmartMatrixForsage.sol\":10960:11037  users[referrerAddress].x3Matrix[level].currentReferrer != freeReferrerAddress */\n      0xffffffffffffffffffffffffffffffffffffffff\n      and\n        /* \"contracts/SmartMatrixForsage.sol\":10960:10965  users */\n      0x00\n        /* \"contracts/SmartMatrixForsage.sol\":10960:10982  users[referrerAddress] */\n      0x00\n        /* \"contracts/SmartMatrixForsage.sol\":10966:10981  referrerAddress */\n      dup6\n        /* \"contracts/SmartMatrixForsage.sol\":10960:10982  users[referrerAddress] */\n      0xffffffffffffffffffffffffffffffffffffffff\n      and\n      0xffffffffffffffffffffffffffffffffffffffff\n      and\n      dup2\n      mstore\n      0x20\n      add\n      swap1\n      dup2\n      mstore\n      0x20\n      add\n      0x00\n      keccak256\n        /* \"contracts/SmartMatrixForsage.sol\":10960:10991  users[referrerAddress].x3Matrix */\n      0x06\n      add\n        /* \"contracts/SmartMatrixForsage.sol\":10960:10998  users[referrerAddress].x3Matrix[level] */\n      0x00\n        /* \"contracts/SmartMatrixForsage.sol\":10992:10997  level */\n      dup5\n        /* \"contracts/SmartMatrixForsage.sol\":10960:10998  users[referrerAddress].x3Matrix[level] */\n      0xff\n      and\n      0xff\n      and\n      dup2\n      mstore\n      0x20\n      add\n      swap1\n      dup2\n      mstore\n      0x20\n      add\n      0x00\n      keccak256\n        /* \"contracts/SmartMatrixForsage.sol\":10960:11014  users[referrerAddress].x3Matrix[level].currentReferrer */\n      0x00\n      add\n      0x00\n      swap1\n      sload\n      swap1\n      0x0100\n      exp\n      swap1\n      div\n      0xffffffffffffffffffffffffffffffffffffffff\n      and\n        /* \"contracts/SmartMatrixForsage.sol\":10960:11037  users[referrerAddress].x3Matrix[level].currentReferrer != freeReferrerAddress */\n      0xffffffffffffffffffffffffffffffffffffffff\n      and\n      eq\n        /* \"contracts/SmartMatrixForsage.sol\":10956:11148  if (users[referrerAddress].x3Matrix[level].currentReferrer != freeReferrerAddress) {... */\n      tag_240\n      jumpi\n        /* \"contracts/SmartMatrixForsage.sol\":11114:11133  freeReferrerAddress */\n      dup1\n        /* \"contracts/SmartMatrixForsage.sol\":11057:11062  users */\n      0x00\n        /* \"contracts/SmartMatrixForsage.sol\":11057:11079  users[referrerAddress] */\n      0x00\n        /* \"contracts/SmartMatrixForsage.sol\":11063:11078  referrerAddress */\n      dup6\n        /* \"contracts/SmartMatrixForsage.sol\":11057:11079  users[referrerAddress] */\n      0xffffffffffffffffffffffffffffffffffffffff\n      and\n      0xffffffffffffffffffffffffffffffffffffffff\n      and\n      dup2\n      mstore\n      0x20\n      add\n      swap1\n      dup2\n      mstore\n      0x20\n      add\n      0x00\n      keccak256\n        /* \"contracts/SmartMatrixForsage.sol\":11057:11088  users[referrerAddress].x3Matrix */\n      0x06\n      add\n        /* \"contracts/SmartMatrixForsage.sol\":11057:11095  users[referrerAddress].x3Matrix[level] */\n      0x00\n        /* \"contracts/SmartMatrixForsage.sol\":11089:11094  level */\n      dup5\n        /* \"contracts/SmartMatrixForsage.sol\":11057:11095  users[referrerAddress].x3Matrix[level] */\n      0xff\n      and\n      0xff\n      and\n      dup2\n      mstore\n      0x20\n      add\n      swap1\n      dup2\n      mstore\n      0x20\n      add\n      0x00\n      keccak256\n        /* \"contracts/SmartMatrixForsage.sol\":11057:11111  users[referrerAddress].x3Matrix[level].currentReferrer */\n      0x00\n      add\n      0x00\n        /* \"contracts/SmartMatrixForsage.sol\":11057:11133  users[referrerAddress].x3Matrix[level].currentReferrer = freeReferrerAddress */\n      0x0100\n      exp\n      dup2\n      sload\n      dup2\n      0xffffffffffffffffffffffffffffffffffffffff\n      mul\n      not\n      and\n      swap1\n      dup4\n      0xffffffffffffffffffffffffffffffffffffffff\n      and\n      mul\n      or\n      swap1\n      sstore\n      pop\n        /* \"contracts/SmartMatrixForsage.sol\":10956:11148  if (users[referrerAddress].x3Matrix[level].currentReferrer != freeReferrerAddress) {... */\n    tag_240:\n        /* \"contracts/SmartMatrixForsage.sol\":11174:11179  users */\n      0x00\n        /* \"contracts/SmartMatrixForsage.sol\":11174:11196  users[referrerAddress] */\n      0x00\n        /* \"contracts/SmartMatrixForsage.sol\":11180:11195  referrerAddress */\n      dup5\n        /* \"contracts/SmartMatrixForsage.sol\":11174:11196  users[referrerAddress] */\n      0xffffffffffffffffffffffffffffffffffffffff\n      and\n      0xffffffffffffffffffffffffffffffffffffffff\n      and\n      dup2\n      mstore\n      0x20\n      add\n      swap1\n      dup2\n      mstore\n      0x20\n      add\n      0x00\n      keccak256\n        /* \"contracts/SmartMatrixForsage.sol\":11174:11205  users[referrerAddress].x3Matrix */\n      0x06\n      add\n        /* \"contracts/SmartMatrixForsage.sol\":11174:11212  users[referrerAddress].x3Matrix[level] */\n      0x00\n        /* \"contracts/SmartMatrixForsage.sol\":11206:11211  level */\n      dup4\n        /* \"contracts/SmartMatrixForsage.sol\":11174:11212  users[referrerAddress].x3Matrix[level] */\n      0xff\n      and\n      0xff\n      and\n      dup2\n      mstore\n      0x20\n      add\n      swap1\n      dup2\n      mstore\n      0x20\n      add\n      0x00\n      keccak256\n        /* \"contracts/SmartMatrixForsage.sol\":11174:11226  users[referrerAddress].x3Matrix[level].reinvestCount */\n      0x03\n      add\n      0x00\n        /* \"contracts/SmartMatrixForsage.sol\":11174:11228  users[referrerAddress].x3Matrix[level].reinvestCount++ */\n      dup2\n      sload\n      dup1\n      swap3\n      swap2\n      swap1\n      tag_241\n      swap1\n      tag_137\n      jump\t// in\n    tag_241:\n      swap2\n      swap1\n      pop\n      sstore\n      pop\n        /* \"contracts/SmartMatrixForsage.sol\":11294:11305  userAddress */\n      dup4\n        /* \"contracts/SmartMatrixForsage.sol\":11247:11316  Reinvest(referrerAddress, freeReferrerAddress, userAddress, 1, level) */\n      0xffffffffffffffffffffffffffffffffffffffff\n      and\n        /* \"contracts/SmartMatrixForsage.sol\":11273:11292  freeReferrerAddress */\n      dup2\n        /* \"contracts/SmartMatrixForsage.sol\":11247:11316  Reinvest(referrerAddress, freeReferrerAddress, userAddress, 1, level) */\n      0xffffffffffffffffffffffffffffffffffffffff\n      and\n        /* \"contracts/SmartMatrixForsage.sol\":11256:11271  referrerAddress */\n      dup5\n        /* \"contracts/SmartMatrixForsage.sol\":11247:11316  Reinvest(referrerAddress, freeReferrerAddress, userAddress, 1, level) */\n      0xffffffffffffffffffffffffffffffffffffffff\n      and\n      0xa00c953eff38ec1b71e7fe060b2ab8df0bbe5354319fbdde4fbdafd6324386a6\n        /* \"contracts/SmartMatrixForsage.sol\":11307:11308  1 */\n      0x01\n        /* \"contracts/SmartMatrixForsage.sol\":11310:11315  level */\n      dup7\n        /* \"contracts/SmartMatrixForsage.sol\":11247:11316  Reinvest(referrerAddress, freeReferrerAddress, userAddress, 1, level) */\n      mload(0x40)\n      tag_242\n      swap3\n      swap2\n      swap1\n      tag_218\n      jump\t// in\n    tag_242:\n      mload(0x40)\n      dup1\n      swap2\n      sub\n      swap1\n      log4\n        /* \"contracts/SmartMatrixForsage.sol\":11330:11391  updateX3Referrer(referrerAddress, freeReferrerAddress, level) */\n      tag_243\n        /* \"contracts/SmartMatrixForsage.sol\":11347:11362  referrerAddress */\n      dup4\n        /* \"contracts/SmartMatrixForsage.sol\":11364:11383  freeReferrerAddress */\n      dup3\n        /* \"contracts/SmartMatrixForsage.sol\":11385:11390  level */\n      dup5\n        /* \"contracts/SmartMatrixForsage.sol\":11330:11346  updateX3Referrer */\n      tag_141\n        /* \"contracts/SmartMatrixForsage.sol\":11330:11391  updateX3Referrer(referrerAddress, freeReferrerAddress, level) */\n      jump\t// in\n    tag_243:\n        /* \"contracts/SmartMatrixForsage.sol\":10856:11402  {... */\n      pop\n        /* \"contracts/SmartMatrixForsage.sol\":10826:11667  if (referrerAddress != owner) {... */\n      jump(tag_244)\n    tag_238:\n        /* \"contracts/SmartMatrixForsage.sol\":11483:11529  sendETHDividends(owner, userAddress, 1, level) */\n      tag_245\n        /* \"contracts/SmartMatrixForsage.sol\":11500:11505  owner */\n      immutable(\"0x5ae62207e7adee0b793bf869601474e77943fa4d9e3e0420f34d788e59bc19bd\")\n        /* \"contracts/SmartMatrixForsage.sol\":11507:11518  userAddress */\n      dup5\n        /* \"contracts/SmartMatrixForsage.sol\":11520:11521  1 */\n      0x01\n        /* \"contracts/SmartMatrixForsage.sol\":11523:11528  level */\n      dup5\n        /* \"contracts/SmartMatrixForsage.sol\":11483:11499  sendETHDividends */\n      tag_229\n        /* \"contracts/SmartMatrixForsage.sol\":11483:11529  sendETHDividends(owner, userAddress, 1, level) */\n      jump\t// in\n    tag_245:\n        /* \"contracts/SmartMatrixForsage.sol\":11543:11548  users */\n      0x00\n        /* \"contracts/SmartMatrixForsage.sol\":11543:11555  users[owner] */\n      0x00\n        /* \"contracts/SmartMatrixForsage.sol\":11549:11554  owner */\n      immutable(\"0x5ae62207e7adee0b793bf869601474e77943fa4d9e3e0420f34d788e59bc19bd\")\n        /* \"contracts/SmartMatrixForsage.sol\":11543:11555  users[owner] */\n      0xffffffffffffffffffffffffffffffffffffffff\n      and\n      0xffffffffffffffffffffffffffffffffffffffff\n      and\n      dup2\n      mstore\n      0x20\n      add\n      swap1\n      dup2\n      mstore\n      0x20\n      add\n      0x00\n      keccak256\n        /* \"contracts/SmartMatrixForsage.sol\":11543:11564  users[owner].x3Matrix */\n      0x06\n      add\n        /* \"contracts/SmartMatrixForsage.sol\":11543:11571  users[owner].x3Matrix[level] */\n      0x00\n        /* \"contracts/SmartMatrixForsage.sol\":11565:11570  level */\n      dup3\n        /* \"contracts/SmartMatrixForsage.sol\":11543:11571  users[owner].x3Matrix[level] */\n      0xff\n      and\n      0xff\n      and\n      dup2\n      mstore\n      0x20\n      add\n      swap1\n      dup2\n      mstore\n      0x20\n      add\n      0x00\n      keccak256\n        /* \"contracts/SmartMatrixForsage.sol\":11543:11585  users[owner].x3Matrix[level].reinvestCount */\n      0x03\n      add\n      0x00\n        /* \"contracts/SmartMatrixForsage.sol\":11543:11587  users[owner].x3Matrix[level].reinvestCount++ */\n      dup2\n      sload\n      dup1\n      swap3\n      swap2\n      swap1\n      tag_246\n      swap1\n      tag_137\n      jump\t// in\n    tag_246:\n      swap2\n      swap1\n      pop\n      sstore\n      pop\n        /* \"contracts/SmartMatrixForsage.sol\":11634:11645  userAddress */\n      dup3\n        /* \"contracts/SmartMatrixForsage.sol\":11606:11656  Reinvest(owner, address(0), userAddress, 1, level) */\n      0xffffffffffffffffffffffffffffffffffffffff\n      and\n        /* \"contracts/SmartMatrixForsage.sol\":11630:11631  0 */\n      0x00\n        /* \"contracts/SmartMatrixForsage.sol\":11606:11656  Reinvest(owner, address(0), userAddress, 1, level) */\n      0xffffffffffffffffffffffffffffffffffffffff\n      and\n        /* \"contracts/SmartMatrixForsage.sol\":11615:11620  owner */\n      immutable(\"0x5ae62207e7adee0b793bf869601474e77943fa4d9e3e0420f34d788e59bc19bd\")\n        /* \"contracts/SmartMatrixForsage.sol\":11606:11656  Reinvest(owner, address(0), userAddress, 1, level) */\n      0xffffffffffffffffffffffffffffffffffffffff\n      and\n      0xa00c953eff38ec1b71e7fe060b2ab8df0bbe5354319fbdde4fbdafd6324386a6\n        /* \"contracts/SmartMatrixForsage.sol\":11647:11648  1 */\n      0x01\n        /* \"contracts/SmartMatrixForsage.sol\":11650:11655  level */\n      dup6\n        /* \"contracts/SmartMatrixForsage.sol\":11606:11656  Reinvest(owner, address(0), userAddress, 1, level) */\n      mload(0x40)\n      tag_247\n      swap3\n      swap2\n      swap1\n      tag_218\n      jump\t// in\n    tag_247:\n      mload(0x40)\n      dup1\n      swap2\n      sub\n      swap1\n      log4\n        /* \"contracts/SmartMatrixForsage.sol\":10826:11667  if (referrerAddress != owner) {... */\n    tag_244:\n        /* \"contracts/SmartMatrixForsage.sol\":9822:11673  function updateX3Referrer(address userAddress, address referrerAddress, uint8 level) private {... */\n    tag_223:\n      pop\n      pop\n      pop\n      jump\t// out\n        /* \"contracts/SmartMatrixForsage.sol\":13458:14078  function sendETHDividends(address userAddress, address _from, uint8 matrix, uint8 level) private {... */\n    tag_229:\n        /* \"contracts/SmartMatrixForsage.sol\":13566:13582  address receiver */\n      0x00\n        /* \"contracts/SmartMatrixForsage.sol\":13584:13605  bool isExtraDividends */\n      0x00\n        /* \"contracts/SmartMatrixForsage.sol\":13609:13659  findEthReceiver(userAddress, _from, matrix, level) */\n      tag_249\n        /* \"contracts/SmartMatrixForsage.sol\":13625:13636  userAddress */\n      dup7\n        /* \"contracts/SmartMatrixForsage.sol\":13638:13643  _from */\n      dup7\n        /* \"contracts/SmartMatrixForsage.sol\":13645:13651  matrix */\n      dup7\n        /* \"contracts/SmartMatrixForsage.sol\":13653:13658  level */\n      dup7\n        /* \"contracts/SmartMatrixForsage.sol\":13609:13624  findEthReceiver */\n      tag_250\n        /* \"contracts/SmartMatrixForsage.sol\":13609:13659  findEthReceiver(userAddress, _from, matrix, level) */\n      jump\t// in\n    tag_249:\n        /* \"contracts/SmartMatrixForsage.sol\":13565:13659  (address receiver, bool isExtraDividends) = findEthReceiver(userAddress, _from, matrix, level) */\n      swap2\n      pop\n      swap2\n      pop\n        /* \"contracts/SmartMatrixForsage.sol\":13670:13684  uint256 amount */\n      0x00\n        /* \"contracts/SmartMatrixForsage.sol\":13687:13697  levelPrice */\n      0x04\n        /* \"contracts/SmartMatrixForsage.sol\":13687:13704  levelPrice[level] */\n      0x00\n        /* \"contracts/SmartMatrixForsage.sol\":13698:13703  level */\n      dup6\n        /* \"contracts/SmartMatrixForsage.sol\":13687:13704  levelPrice[level] */\n      0xff\n      and\n      0xff\n      and\n      dup2\n      mstore\n      0x20\n      add\n      swap1\n      dup2\n      mstore\n      0x20\n      add\n      0x00\n      keccak256\n      sload\n        /* \"contracts/SmartMatrixForsage.sol\":13670:13704  uint256 amount = levelPrice[level] */\n      swap1\n      pop\n        /* \"contracts/SmartMatrixForsage.sol\":13810:13816  amount */\n      dup1\n        /* \"contracts/SmartMatrixForsage.sol\":13779:13784  users */\n      0x00\n        /* \"contracts/SmartMatrixForsage.sol\":13779:13794  users[receiver] */\n      0x00\n        /* \"contracts/SmartMatrixForsage.sol\":13785:13793  receiver */\n      dup6\n        /* \"contracts/SmartMatrixForsage.sol\":13779:13794  users[receiver] */\n      0xffffffffffffffffffffffffffffffffffffffff\n      and\n      0xffffffffffffffffffffffffffffffffffffffff\n      and\n      dup2\n      mstore\n      0x20\n      add\n      swap1\n      dup2\n      mstore\n      0x20\n      add\n      0x00\n      keccak256\n        /* \"contracts/SmartMatrixForsage.sol\":13779:13806  users[receiver].totalEarned */\n      0x03\n      add\n      0x00\n        /* \"contracts/SmartMatrixForsage.sol\":13779:13816  users[receiver].totalEarned += amount */\n      dup3\n      dup3\n      sload\n      tag_251\n      swap2\n      swap1\n      tag_252\n      jump\t// in\n    tag_251:\n      swap3\n      pop\n      pop\n      dup2\n      swap1\n      sstore\n      pop\n        /* \"contracts/SmartMatrixForsage.sol\":13862:13868  amount */\n      dup1\n        /* \"contracts/SmartMatrixForsage.sol\":13826:13831  users */\n      0x00\n        /* \"contracts/SmartMatrixForsage.sol\":13826:13841  users[receiver] */\n      0x00\n        /* \"contracts/SmartMatrixForsage.sol\":13832:13840  receiver */\n      dup6\n        /* \"contracts/SmartMatrixForsage.sol\":13826:13841  users[receiver] */\n      0xffffffffffffffffffffffffffffffffffffffff\n      and\n      0xffffffffffffffffffffffffffffffffffffffff\n      and\n      dup2\n      mstore\n      0x20\n      add\n      swap1\n      dup2\n      mstore\n      0x20\n      add\n      0x00\n      keccak256\n        /* \"contracts/SmartMatrixForsage.sol\":13826:13858  users[receiver].availableBalance */\n      0x04\n      add\n      0x00\n        /* \"contracts/SmartMatrixForsage.sol\":13826:13868  users[receiver].availableBalance += amount */\n      dup3\n      dup3\n      sload\n      tag_253\n      swap2\n      swap1\n      tag_252\n      jump\t// in\n    tag_253:\n      swap3\n      pop\n      pop\n      dup2\n      swap1\n      sstore\n      pop\n        /* \"contracts/SmartMatrixForsage.sol\":13919:13924  _from */\n      dup6\n        /* \"contracts/SmartMatrixForsage.sol\":13892:13948  EarningsCredited(receiver, _from, matrix, level, amount) */\n      0xffffffffffffffffffffffffffffffffffffffff\n      and\n        /* \"contracts/SmartMatrixForsage.sol\":13909:13917  receiver */\n      dup4\n        /* \"contracts/SmartMatrixForsage.sol\":13892:13948  EarningsCredited(receiver, _from, matrix, level, amount) */\n      0xffffffffffffffffffffffffffffffffffffffff\n      and\n      0xa2a8c50f6cc6bbf4aa97a6e8c3a27861dc25de71b4e015c94fa0073c35b0dd91\n        /* \"contracts/SmartMatrixForsage.sol\":13926:13932  matrix */\n      dup8\n        /* \"contracts/SmartMatrixForsage.sol\":13934:13939  level */\n      dup8\n        /* \"contracts/SmartMatrixForsage.sol\":13941:13947  amount */\n      dup6\n        /* \"contracts/SmartMatrixForsage.sol\":13892:13948  EarningsCredited(receiver, _from, matrix, level, amount) */\n      mload(0x40)\n      tag_254\n      swap4\n      swap3\n      swap2\n      swap1\n      tag_255\n      jump\t// in\n    tag_254:\n      mload(0x40)\n      dup1\n      swap2\n      sub\n      swap1\n      log3\n        /* \"contracts/SmartMatrixForsage.sol\":13971:13987  isExtraDividends */\n      dup2\n        /* \"contracts/SmartMatrixForsage.sol\":13967:14072  if (isExtraDividends) {... */\n      iszero\n      tag_256\n      jumpi\n        /* \"contracts/SmartMatrixForsage.sol\":14037:14045  receiver */\n      dup3\n        /* \"contracts/SmartMatrixForsage.sol\":14008:14061  SentExtraEthDividends(_from, receiver, matrix, level) */\n      0xffffffffffffffffffffffffffffffffffffffff\n      and\n        /* \"contracts/SmartMatrixForsage.sol\":14030:14035  _from */\n      dup7\n        /* \"contracts/SmartMatrixForsage.sol\":14008:14061  SentExtraEthDividends(_from, receiver, matrix, level) */\n      0xffffffffffffffffffffffffffffffffffffffff\n      and\n      0xf0ddc65c0d411f042f723dcfa1b7d13e85a35b7b70761d447c6500411cacf328\n        /* \"contracts/SmartMatrixForsage.sol\":14047:14053  matrix */\n      dup8\n        /* \"contracts/SmartMatrixForsage.sol\":14055:14060  level */\n      dup8\n        /* \"contracts/SmartMatrixForsage.sol\":14008:14061  SentExtraEthDividends(_from, receiver, matrix, level) */\n      mload(0x40)\n      tag_257\n      swap3\n      swap2\n      swap1\n      tag_258\n      jump\t// in\n    tag_257:\n      mload(0x40)\n      dup1\n      swap2\n      sub\n      swap1\n      log3\n        /* \"contracts/SmartMatrixForsage.sol\":13967:14072  if (isExtraDividends) {... */\n    tag_256:\n        /* \"contracts/SmartMatrixForsage.sol\":13555:14078  {... */\n      pop\n      pop\n      pop\n        /* \"contracts/SmartMatrixForsage.sol\":13458:14078  function sendETHDividends(address userAddress, address _from, uint8 matrix, uint8 level) private {... */\n      pop\n      pop\n      pop\n      pop\n      jump\t// out\n        /* \"contracts/SmartMatrixForsage.sol\":12640:13269  function findEthReceiver(address userAddress, address _from, uint8 matrix, uint8 level) private returns(address, bool) {... */\n    tag_250:\n        /* \"contracts/SmartMatrixForsage.sol\":12744:12751  address */\n      0x00\n        /* \"contracts/SmartMatrixForsage.sol\":12753:12757  bool */\n      0x00\n        /* \"contracts/SmartMatrixForsage.sol\":12769:12785  address receiver */\n      0x00\n        /* \"contracts/SmartMatrixForsage.sol\":12788:12799  userAddress */\n      dup7\n        /* \"contracts/SmartMatrixForsage.sol\":12769:12799  address receiver = userAddress */\n      swap1\n      pop\n        /* \"contracts/SmartMatrixForsage.sol\":12809:12830  bool isExtraDividends */\n      0x00\n        /* \"contracts/SmartMatrixForsage.sol\":12909:13263  while (true) {... */\n    tag_260:\n        /* \"contracts/SmartMatrixForsage.sol\":12916:12920  true */\n      0x01\n        /* \"contracts/SmartMatrixForsage.sol\":12909:13263  while (true) {... */\n      iszero\n      tag_261\n      jumpi\n        /* \"contracts/SmartMatrixForsage.sol\":12940:12945  users */\n      0x00\n        /* \"contracts/SmartMatrixForsage.sol\":12940:12955  users[receiver] */\n      0x00\n        /* \"contracts/SmartMatrixForsage.sol\":12946:12954  receiver */\n      dup4\n        /* \"contracts/SmartMatrixForsage.sol\":12940:12955  users[receiver] */\n      0xffffffffffffffffffffffffffffffffffffffff\n      and\n      0xffffffffffffffffffffffffffffffffffffffff\n      and\n      dup2\n      mstore\n      0x20\n      add\n      swap1\n      dup2\n      mstore\n      0x20\n      add\n      0x00\n      keccak256\n        /* \"contracts/SmartMatrixForsage.sol\":12940:12964  users[receiver].x3Matrix */\n      0x06\n      add\n        /* \"contracts/SmartMatrixForsage.sol\":12940:12971  users[receiver].x3Matrix[level] */\n      0x00\n        /* \"contracts/SmartMatrixForsage.sol\":12965:12970  level */\n      dup7\n        /* \"contracts/SmartMatrixForsage.sol\":12940:12971  users[receiver].x3Matrix[level] */\n      0xff\n      and\n      0xff\n      and\n      dup2\n      mstore\n      0x20\n      add\n      swap1\n      dup2\n      mstore\n      0x20\n      add\n      0x00\n      keccak256\n        /* \"contracts/SmartMatrixForsage.sol\":12940:12979  users[receiver].x3Matrix[level].blocked */\n      0x02\n      add\n      0x00\n      swap1\n      sload\n      swap1\n      0x0100\n      exp\n      swap1\n      div\n      0xff\n      and\n        /* \"contracts/SmartMatrixForsage.sol\":12936:13253  if (users[receiver].x3Matrix[level].blocked) {... */\n      iszero\n      tag_262\n      jumpi\n        /* \"contracts/SmartMatrixForsage.sol\":13031:13036  _from */\n      dup7\n        /* \"contracts/SmartMatrixForsage.sol\":13004:13047  MissedEthReceive(receiver, _from, 1, level) */\n      0xffffffffffffffffffffffffffffffffffffffff\n      and\n        /* \"contracts/SmartMatrixForsage.sol\":13021:13029  receiver */\n      dup3\n        /* \"contracts/SmartMatrixForsage.sol\":13004:13047  MissedEthReceive(receiver, _from, 1, level) */\n      0xffffffffffffffffffffffffffffffffffffffff\n      and\n      0xfc0cb63f8dbd6b20ceb84a3c5358a41576a1479e6ecd040b4b985525dc09a709\n        /* \"contracts/SmartMatrixForsage.sol\":13038:13039  1 */\n      0x01\n        /* \"contracts/SmartMatrixForsage.sol\":13041:13046  level */\n      dup9\n        /* \"contracts/SmartMatrixForsage.sol\":13004:13047  MissedEthReceive(receiver, _from, 1, level) */\n      mload(0x40)\n      tag_263\n      swap3\n      swap2\n      swap1\n      tag_218\n      jump\t// in\n    tag_263:\n      mload(0x40)\n      dup1\n      swap2\n      sub\n      swap1\n      log3\n        /* \"contracts/SmartMatrixForsage.sol\":13084:13088  true */\n      0x01\n        /* \"contracts/SmartMatrixForsage.sol\":13065:13088  isExtraDividends = true */\n      swap1\n      pop\n        /* \"contracts/SmartMatrixForsage.sol\":13117:13122  users */\n      0x00\n        /* \"contracts/SmartMatrixForsage.sol\":13117:13132  users[receiver] */\n      0x00\n        /* \"contracts/SmartMatrixForsage.sol\":13123:13131  receiver */\n      dup4\n        /* \"contracts/SmartMatrixForsage.sol\":13117:13132  users[receiver] */\n      0xffffffffffffffffffffffffffffffffffffffff\n      and\n      0xffffffffffffffffffffffffffffffffffffffff\n      and\n      dup2\n      mstore\n      0x20\n      add\n      swap1\n      dup2\n      mstore\n      0x20\n      add\n      0x00\n      keccak256\n        /* \"contracts/SmartMatrixForsage.sol\":13117:13141  users[receiver].x3Matrix */\n      0x06\n      add\n        /* \"contracts/SmartMatrixForsage.sol\":13117:13148  users[receiver].x3Matrix[level] */\n      0x00\n        /* \"contracts/SmartMatrixForsage.sol\":13142:13147  level */\n      dup7\n        /* \"contracts/SmartMatrixForsage.sol\":13117:13148  users[receiver].x3Matrix[level] */\n      0xff\n      and\n      0xff\n      and\n      dup2\n      mstore\n      0x20\n      add\n      swap1\n      dup2\n      mstore\n      0x20\n      add\n      0x00\n      keccak256\n        /* \"contracts/SmartMatrixForsage.sol\":13117:13164  users[receiver].x3Matrix[level].currentReferrer */\n      0x00\n      add\n      0x00\n      swap1\n      sload\n      swap1\n      0x0100\n      exp\n      swap1\n      div\n      0xffffffffffffffffffffffffffffffffffffffff\n      and\n        /* \"contracts/SmartMatrixForsage.sol\":13106:13164  receiver = users[receiver].x3Matrix[level].currentReferrer */\n      swap2\n      pop\n        /* \"contracts/SmartMatrixForsage.sol\":12936:13253  if (users[receiver].x3Matrix[level].blocked) {... */\n      jump(tag_264)\n    tag_262:\n        /* \"contracts/SmartMatrixForsage.sol\":13211:13219  receiver */\n      dup2\n        /* \"contracts/SmartMatrixForsage.sol\":13221:13237  isExtraDividends */\n      dup2\n        /* \"contracts/SmartMatrixForsage.sol\":13203:13238  return (receiver, isExtraDividends) */\n      swap4\n      pop\n      swap4\n      pop\n      pop\n      pop\n      jump(tag_259)\n        /* \"contracts/SmartMatrixForsage.sol\":12936:13253  if (users[receiver].x3Matrix[level].blocked) {... */\n    tag_264:\n        /* \"contracts/SmartMatrixForsage.sol\":12909:13263  while (true) {... */\n      jump(tag_260)\n    tag_261:\n        /* \"contracts/SmartMatrixForsage.sol\":12759:13269  {... */\n      pop\n      pop\n        /* \"contracts/SmartMatrixForsage.sol\":12640:13269  function findEthReceiver(address userAddress, address _from, uint8 matrix, uint8 level) private returns(address, bool) {... */\n    tag_259:\n      swap5\n      pop\n      swap5\n      swap3\n      pop\n      pop\n      pop\n      jump\t// out\n    tag_233:\n      pop\n      dup1\n      sload\n      0x00\n      dup3\n      sstore\n      swap1\n      0x00\n      mstore\n      keccak256(0x00, 0x20)\n      swap1\n      dup2\n      add\n      swap1\n      tag_266\n      swap2\n      swap1\n      tag_267\n      jump\t// in\n    tag_266:\n      pop\n      jump\t// out\n    tag_267:\n    tag_268:\n      dup1\n      dup3\n      gt\n      iszero\n      tag_269\n      jumpi\n      0x00\n      dup2\n      0x00\n      swap1\n      sstore\n      pop\n      0x01\n      add\n      jump(tag_268)\n    tag_269:\n      pop\n      swap1\n      jump\t// out\n        /* \"#utility.yul\":88:205   */\n    tag_271:\n        /* \"#utility.yul\":197:198   */\n      0x00\n        /* \"#utility.yul\":194:195   */\n      0x00\n        /* \"#utility.yul\":187:199   */\n      revert\n        /* \"#utility.yul\":334:411   */\n    tag_273:\n        /* \"#utility.yul\":371:378   */\n      0x00\n        /* \"#utility.yul\":400:405   */\n      dup2\n        /* \"#utility.yul\":389:405   */\n      swap1\n      pop\n        /* \"#utility.yul\":334:411   */\n      swap2\n      swap1\n      pop\n      jump\t// out\n        /* \"#utility.yul\":417:539   */\n    tag_274:\n        /* \"#utility.yul\":490:514   */\n      tag_343\n        /* \"#utility.yul\":508:513   */\n      dup2\n        /* \"#utility.yul\":490:514   */\n      tag_273\n      jump\t// in\n    tag_343:\n        /* \"#utility.yul\":483:488   */\n      dup2\n        /* \"#utility.yul\":480:515   */\n      eq\n        /* \"#utility.yul\":470:533   */\n      tag_344\n      jumpi\n        /* \"#utility.yul\":529:530   */\n      0x00\n        /* \"#utility.yul\":526:527   */\n      0x00\n        /* \"#utility.yul\":519:531   */\n      revert\n        /* \"#utility.yul\":470:533   */\n    tag_344:\n        /* \"#utility.yul\":417:539   */\n      pop\n      jump\t// out\n        /* \"#utility.yul\":545:684   */\n    tag_275:\n        /* \"#utility.yul\":591:596   */\n      0x00\n        /* \"#utility.yul\":629:635   */\n      dup2\n        /* \"#utility.yul\":616:636   */\n      calldataload\n        /* \"#utility.yul\":607:636   */\n      swap1\n      pop\n        /* \"#utility.yul\":645:678   */\n      tag_346\n        /* \"#utility.yul\":672:677   */\n      dup2\n        /* \"#utility.yul\":645:678   */\n      tag_274\n      jump\t// in\n    tag_346:\n        /* \"#utility.yul\":545:684   */\n      swap3\n      swap2\n      pop\n      pop\n      jump\t// out\n        /* \"#utility.yul\":690:1019   */\n    tag_38:\n        /* \"#utility.yul\":749:755   */\n      0x00\n        /* \"#utility.yul\":798:800   */\n      0x20\n        /* \"#utility.yul\":786:795   */\n      dup3\n        /* \"#utility.yul\":777:784   */\n      dup5\n        /* \"#utility.yul\":773:796   */\n      sub\n        /* \"#utility.yul\":769:801   */\n      slt\n        /* \"#utility.yul\":766:885   */\n      iszero\n      tag_348\n      jumpi\n        /* \"#utility.yul\":804:883   */\n      tag_349\n      tag_271\n      jump\t// in\n    tag_349:\n        /* \"#utility.yul\":766:885   */\n    tag_348:\n        /* \"#utility.yul\":924:925   */\n      0x00\n        /* \"#utility.yul\":949:1002   */\n      tag_350\n        /* \"#utility.yul\":994:1001   */\n      dup5\n        /* \"#utility.yul\":985:991   */\n      dup3\n        /* \"#utility.yul\":974:983   */\n      dup6\n        /* \"#utility.yul\":970:992   */\n      add\n        /* \"#utility.yul\":949:1002   */\n      tag_275\n      jump\t// in\n    tag_350:\n        /* \"#utility.yul\":939:1002   */\n      swap2\n      pop\n        /* \"#utility.yul\":895:1012   */\n      pop\n        /* \"#utility.yul\":690:1019   */\n      swap3\n      swap2\n      pop\n      pop\n      jump\t// out\n        /* \"#utility.yul\":1025:1151   */\n    tag_276:\n        /* \"#utility.yul\":1062:1069   */\n      0x00\n        /* \"#utility.yul\":1102:1144   */\n      0xffffffffffffffffffffffffffffffffffffffff\n        /* \"#utility.yul\":1095:1100   */\n      dup3\n        /* \"#utility.yul\":1091:1145   */\n      and\n        /* \"#utility.yul\":1080:1145   */\n      swap1\n      pop\n        /* \"#utility.yul\":1025:1151   */\n      swap2\n      swap1\n      pop\n      jump\t// out\n        /* \"#utility.yul\":1157:1253   */\n    tag_277:\n        /* \"#utility.yul\":1194:1201   */\n      0x00\n        /* \"#utility.yul\":1223:1247   */\n      tag_353\n        /* \"#utility.yul\":1241:1246   */\n      dup3\n        /* \"#utility.yul\":1223:1247   */\n      tag_276\n      jump\t// in\n    tag_353:\n        /* \"#utility.yul\":1212:1247   */\n      swap1\n      pop\n        /* \"#utility.yul\":1157:1253   */\n      swap2\n      swap1\n      pop\n      jump\t// out\n        /* \"#utility.yul\":1259:1381   */\n    tag_278:\n        /* \"#utility.yul\":1332:1356   */\n      tag_355\n        /* \"#utility.yul\":1350:1355   */\n      dup2\n        /* \"#utility.yul\":1332:1356   */\n      tag_277\n      jump\t// in\n    tag_355:\n        /* \"#utility.yul\":1325:1330   */\n      dup2\n        /* \"#utility.yul\":1322:1357   */\n      eq\n        /* \"#utility.yul\":1312:1375   */\n      tag_356\n      jumpi\n        /* \"#utility.yul\":1371:1372   */\n      0x00\n        /* \"#utility.yul\":1368:1369   */\n      0x00\n        /* \"#utility.yul\":1361:1373   */\n      revert\n        /* \"#utility.yul\":1312:1375   */\n    tag_356:\n        /* \"#utility.yul\":1259:1381   */\n      pop\n      jump\t// out\n        /* \"#utility.yul\":1387:1526   */\n    tag_279:\n        /* \"#utility.yul\":1433:1438   */\n      0x00\n        /* \"#utility.yul\":1471:1477   */\n      dup2\n        /* \"#utility.yul\":1458:1478   */\n      calldataload\n        /* \"#utility.yul\":1449:1478   */\n      swap1\n      pop\n        /* \"#utility.yul\":1487:1520   */\n      tag_358\n        /* \"#utility.yul\":1514:1519   */\n      dup2\n        /* \"#utility.yul\":1487:1520   */\n      tag_278\n      jump\t// in\n    tag_358:\n        /* \"#utility.yul\":1387:1526   */\n      swap3\n      swap2\n      pop\n      pop\n      jump\t// out\n        /* \"#utility.yul\":1532:1618   */\n    tag_280:\n        /* \"#utility.yul\":1567:1574   */\n      0x00\n        /* \"#utility.yul\":1607:1611   */\n      0xff\n        /* \"#utility.yul\":1600:1605   */\n      dup3\n        /* \"#utility.yul\":1596:1612   */\n      and\n        /* \"#utility.yul\":1585:1612   */\n      swap1\n      pop\n        /* \"#utility.yul\":1532:1618   */\n      swap2\n      swap1\n      pop\n      jump\t// out\n        /* \"#utility.yul\":1624:1742   */\n    tag_281:\n        /* \"#utility.yul\":1695:1717   */\n      tag_361\n        /* \"#utility.yul\":1711:1716   */\n      dup2\n        /* \"#utility.yul\":1695:1717   */\n      tag_280\n      jump\t// in\n    tag_361:\n        /* \"#utility.yul\":1688:1693   */\n      dup2\n        /* \"#utility.yul\":1685:1718   */\n      eq\n        /* \"#utility.yul\":1675:1736   */\n      tag_362\n      jumpi\n        /* \"#utility.yul\":1732:1733   */\n      0x00\n        /* \"#utility.yul\":1729:1730   */\n      0x00\n        /* \"#utility.yul\":1722:1734   */\n      revert\n        /* \"#utility.yul\":1675:1736   */\n    tag_362:\n        /* \"#utility.yul\":1624:1742   */\n      pop\n      jump\t// out\n        /* \"#utility.yul\":1748:1883   */\n    tag_282:\n        /* \"#utility.yul\":1792:1797   */\n      0x00\n        /* \"#utility.yul\":1830:1836   */\n      dup2\n        /* \"#utility.yul\":1817:1837   */\n      calldataload\n        /* \"#utility.yul\":1808:1837   */\n      swap1\n      pop\n        /* \"#utility.yul\":1846:1877   */\n      tag_364\n        /* \"#utility.yul\":1871:1876   */\n      dup2\n        /* \"#utility.yul\":1846:1877   */\n      tag_281\n      jump\t// in\n    tag_364:\n        /* \"#utility.yul\":1748:1883   */\n      swap3\n      swap2\n      pop\n      pop\n      jump\t// out\n        /* \"#utility.yul\":1889:2359   */\n    tag_43:\n        /* \"#utility.yul\":1955:1961   */\n      0x00\n        /* \"#utility.yul\":1963:1969   */\n      0x00\n        /* \"#utility.yul\":2012:2014   */\n      0x40\n        /* \"#utility.yul\":2000:2009   */\n      dup4\n        /* \"#utility.yul\":1991:1998   */\n      dup6\n        /* \"#utility.yul\":1987:2010   */\n      sub\n        /* \"#utility.yul\":1983:2015   */\n      slt\n        /* \"#utility.yul\":1980:2099   */\n      iszero\n      tag_366\n      jumpi\n        /* \"#utility.yul\":2018:2097   */\n      tag_367\n      tag_271\n      jump\t// in\n    tag_367:\n        /* \"#utility.yul\":1980:2099   */\n    tag_366:\n        /* \"#utility.yul\":2138:2139   */\n      0x00\n        /* \"#utility.yul\":2163:2216   */\n      tag_368\n        /* \"#utility.yul\":2208:2215   */\n      dup6\n        /* \"#utility.yul\":2199:2205   */\n      dup3\n        /* \"#utility.yul\":2188:2197   */\n      dup7\n        /* \"#utility.yul\":2184:2206   */\n      add\n        /* \"#utility.yul\":2163:2216   */\n      tag_279\n      jump\t// in\n    tag_368:\n        /* \"#utility.yul\":2153:2216   */\n      swap3\n      pop\n        /* \"#utility.yul\":2109:2226   */\n      pop\n        /* \"#utility.yul\":2265:2267   */\n      0x20\n        /* \"#utility.yul\":2291:2342   */\n      tag_369\n        /* \"#utility.yul\":2334:2341   */\n      dup6\n        /* \"#utility.yul\":2325:2331   */\n      dup3\n        /* \"#utility.yul\":2314:2323   */\n      dup7\n        /* \"#utility.yul\":2310:2332   */\n      add\n        /* \"#utility.yul\":2291:2342   */\n      tag_282\n      jump\t// in\n    tag_369:\n        /* \"#utility.yul\":2281:2342   */\n      swap2\n      pop\n        /* \"#utility.yul\":2236:2352   */\n      pop\n        /* \"#utility.yul\":1889:2359   */\n      swap3\n      pop\n      swap3\n      swap1\n      pop\n      jump\t// out\n        /* \"#utility.yul\":2365:2455   */\n    tag_283:\n        /* \"#utility.yul\":2399:2406   */\n      0x00\n        /* \"#utility.yul\":2442:2447   */\n      dup2\n        /* \"#utility.yul\":2435:2448   */\n      iszero\n        /* \"#utility.yul\":2428:2449   */\n      iszero\n        /* \"#utility.yul\":2417:2449   */\n      swap1\n      pop\n        /* \"#utility.yul\":2365:2455   */\n      swap2\n      swap1\n      pop\n      jump\t// out\n        /* \"#utility.yul\":2461:2570   */\n    tag_284:\n        /* \"#utility.yul\":2542:2563   */\n      tag_372\n        /* \"#utility.yul\":2557:2562   */\n      dup2\n        /* \"#utility.yul\":2542:2563   */\n      tag_283\n      jump\t// in\n    tag_372:\n        /* \"#utility.yul\":2537:2540   */\n      dup3\n        /* \"#utility.yul\":2530:2564   */\n      mstore\n        /* \"#utility.yul\":2461:2570   */\n      pop\n      pop\n      jump\t// out\n        /* \"#utility.yul\":2576:2786   */\n    tag_46:\n        /* \"#utility.yul\":2663:2667   */\n      0x00\n        /* \"#utility.yul\":2701:2703   */\n      0x20\n        /* \"#utility.yul\":2690:2699   */\n      dup3\n        /* \"#utility.yul\":2686:2704   */\n      add\n        /* \"#utility.yul\":2678:2704   */\n      swap1\n      pop\n        /* \"#utility.yul\":2714:2779   */\n      tag_374\n        /* \"#utility.yul\":2776:2777   */\n      0x00\n        /* \"#utility.yul\":2765:2774   */\n      dup4\n        /* \"#utility.yul\":2761:2778   */\n      add\n        /* \"#utility.yul\":2752:2758   */\n      dup5\n        /* \"#utility.yul\":2714:2779   */\n      tag_284\n      jump\t// in\n    tag_374:\n        /* \"#utility.yul\":2576:2786   */\n      swap3\n      swap2\n      pop\n      pop\n      jump\t// out\n        /* \"#utility.yul\":2792:2904   */\n    tag_285:\n        /* \"#utility.yul\":2875:2897   */\n      tag_376\n        /* \"#utility.yul\":2891:2896   */\n      dup2\n        /* \"#utility.yul\":2875:2897   */\n      tag_280\n      jump\t// in\n    tag_376:\n        /* \"#utility.yul\":2870:2873   */\n      dup3\n        /* \"#utility.yul\":2863:2898   */\n      mstore\n        /* \"#utility.yul\":2792:2904   */\n      pop\n      pop\n      jump\t// out\n        /* \"#utility.yul\":2910:3124   */\n    tag_51:\n        /* \"#utility.yul\":2999:3003   */\n      0x00\n        /* \"#utility.yul\":3037:3039   */\n      0x20\n        /* \"#utility.yul\":3026:3035   */\n      dup3\n        /* \"#utility.yul\":3022:3040   */\n      add\n        /* \"#utility.yul\":3014:3040   */\n      swap1\n      pop\n        /* \"#utility.yul\":3050:3117   */\n      tag_378\n        /* \"#utility.yul\":3114:3115   */\n      0x00\n        /* \"#utility.yul\":3103:3112   */\n      dup4\n        /* \"#utility.yul\":3099:3116   */\n      add\n        /* \"#utility.yul\":3090:3096   */\n      dup5\n        /* \"#utility.yul\":3050:3117   */\n      tag_285\n      jump\t// in\n    tag_378:\n        /* \"#utility.yul\":2910:3124   */\n      swap3\n      swap2\n      pop\n      pop\n      jump\t// out\n        /* \"#utility.yul\":3130:3248   */\n    tag_286:\n        /* \"#utility.yul\":3217:3241   */\n      tag_380\n        /* \"#utility.yul\":3235:3240   */\n      dup2\n        /* \"#utility.yul\":3217:3241   */\n      tag_277\n      jump\t// in\n    tag_380:\n        /* \"#utility.yul\":3212:3215   */\n      dup3\n        /* \"#utility.yul\":3205:3242   */\n      mstore\n        /* \"#utility.yul\":3130:3248   */\n      pop\n      pop\n      jump\t// out\n        /* \"#utility.yul\":3254:3476   */\n    tag_57:\n        /* \"#utility.yul\":3347:3351   */\n      0x00\n        /* \"#utility.yul\":3385:3387   */\n      0x20\n        /* \"#utility.yul\":3374:3383   */\n      dup3\n        /* \"#utility.yul\":3370:3388   */\n      add\n        /* \"#utility.yul\":3362:3388   */\n      swap1\n      pop\n        /* \"#utility.yul\":3398:3469   */\n      tag_382\n        /* \"#utility.yul\":3466:3467   */\n      0x00\n        /* \"#utility.yul\":3455:3464   */\n      dup4\n        /* \"#utility.yul\":3451:3468   */\n      add\n        /* \"#utility.yul\":3442:3448   */\n      dup5\n        /* \"#utility.yul\":3398:3469   */\n      tag_286\n      jump\t// in\n    tag_382:\n        /* \"#utility.yul\":3254:3476   */\n      swap3\n      swap2\n      pop\n      pop\n      jump\t// out\n        /* \"#utility.yul\":3482:3600   */\n    tag_287:\n        /* \"#utility.yul\":3569:3593   */\n      tag_384\n        /* \"#utility.yul\":3587:3592   */\n      dup2\n        /* \"#utility.yul\":3569:3593   */\n      tag_273\n      jump\t// in\n    tag_384:\n        /* \"#utility.yul\":3564:3567   */\n      dup3\n        /* \"#utility.yul\":3557:3594   */\n      mstore\n        /* \"#utility.yul\":3482:3600   */\n      pop\n      pop\n      jump\t// out\n        /* \"#utility.yul\":3606:3828   */\n    tag_62:\n        /* \"#utility.yul\":3699:3703   */\n      0x00\n        /* \"#utility.yul\":3737:3739   */\n      0x20\n        /* \"#utility.yul\":3726:3735   */\n      dup3\n        /* \"#utility.yul\":3722:3740   */\n      add\n        /* \"#utility.yul\":3714:3740   */\n      swap1\n      pop\n        /* \"#utility.yul\":3750:3821   */\n      tag_386\n        /* \"#utility.yul\":3818:3819   */\n      0x00\n        /* \"#utility.yul\":3807:3816   */\n      dup4\n        /* \"#utility.yul\":3803:3820   */\n      add\n        /* \"#utility.yul\":3794:3800   */\n      dup5\n        /* \"#utility.yul\":3750:3821   */\n      tag_287\n      jump\t// in\n    tag_386:\n        /* \"#utility.yul\":3606:3828   */\n      swap3\n      swap2\n      pop\n      pop\n      jump\t// out\n        /* \"#utility.yul\":3834:4163   */\n    tag_74:\n        /* \"#utility.yul\":3893:3899   */\n      0x00\n        /* \"#utility.yul\":3942:3944   */\n      0x20\n        /* \"#utility.yul\":3930:3939   */\n      dup3\n        /* \"#utility.yul\":3921:3928   */\n      dup5\n        /* \"#utility.yul\":3917:3940   */\n      sub\n        /* \"#utility.yul\":3913:3945   */\n      slt\n        /* \"#utility.yul\":3910:4029   */\n      iszero\n      tag_388\n      jumpi\n        /* \"#utility.yul\":3948:4027   */\n      tag_389\n      tag_271\n      jump\t// in\n    tag_389:\n        /* \"#utility.yul\":3910:4029   */\n    tag_388:\n        /* \"#utility.yul\":4068:4069   */\n      0x00\n        /* \"#utility.yul\":4093:4146   */\n      tag_390\n        /* \"#utility.yul\":4138:4145   */\n      dup5\n        /* \"#utility.yul\":4129:4135   */\n      dup3\n        /* \"#utility.yul\":4118:4127   */\n      dup6\n        /* \"#utility.yul\":4114:4136   */\n      add\n        /* \"#utility.yul\":4093:4146   */\n      tag_279\n      jump\t// in\n    tag_390:\n        /* \"#utility.yul\":4083:4146   */\n      swap2\n      pop\n        /* \"#utility.yul\":4039:4156   */\n      pop\n        /* \"#utility.yul\":3834:4163   */\n      swap3\n      swap2\n      pop\n      pop\n      jump\t// out\n        /* \"#utility.yul\":4169:4501   */\n    tag_77:\n        /* \"#utility.yul\":4290:4294   */\n      0x00\n        /* \"#utility.yul\":4328:4330   */\n      0x40\n        /* \"#utility.yul\":4317:4326   */\n      dup3\n        /* \"#utility.yul\":4313:4331   */\n      add\n        /* \"#utility.yul\":4305:4331   */\n      swap1\n      pop\n        /* \"#utility.yul\":4341:4412   */\n      tag_392\n        /* \"#utility.yul\":4409:4410   */\n      0x00\n        /* \"#utility.yul\":4398:4407   */\n      dup4\n        /* \"#utility.yul\":4394:4411   */\n      add\n        /* \"#utility.yul\":4385:4391   */\n      dup6\n        /* \"#utility.yul\":4341:4412   */\n      tag_287\n      jump\t// in\n    tag_392:\n        /* \"#utility.yul\":4422:4494   */\n      tag_393\n        /* \"#utility.yul\":4490:4492   */\n      0x20\n        /* \"#utility.yul\":4479:4488   */\n      dup4\n        /* \"#utility.yul\":4475:4493   */\n      add\n        /* \"#utility.yul\":4466:4472   */\n      dup5\n        /* \"#utility.yul\":4422:4494   */\n      tag_287\n      jump\t// in\n    tag_393:\n        /* \"#utility.yul\":4169:4501   */\n      swap4\n      swap3\n      pop\n      pop\n      pop\n      jump\t// out\n        /* \"#utility.yul\":4507:4621   */\n    tag_288:\n        /* \"#utility.yul\":4574:4580   */\n      0x00\n        /* \"#utility.yul\":4608:4613   */\n      dup2\n        /* \"#utility.yul\":4602:4614   */\n      mload\n        /* \"#utility.yul\":4592:4614   */\n      swap1\n      pop\n        /* \"#utility.yul\":4507:4621   */\n      swap2\n      swap1\n      pop\n      jump\t// out\n        /* \"#utility.yul\":4627:4811   */\n    tag_289:\n        /* \"#utility.yul\":4726:4737   */\n      0x00\n        /* \"#utility.yul\":4760:4766   */\n      dup3\n        /* \"#utility.yul\":4755:4758   */\n      dup3\n        /* \"#utility.yul\":4748:4767   */\n      mstore\n        /* \"#utility.yul\":4800:4804   */\n      0x20\n        /* \"#utility.yul\":4795:4798   */\n      dup3\n        /* \"#utility.yul\":4791:4805   */\n      add\n        /* \"#utility.yul\":4776:4805   */\n      swap1\n      pop\n        /* \"#utility.yul\":4627:4811   */\n      swap3\n      swap2\n      pop\n      pop\n      jump\t// out\n        /* \"#utility.yul\":4817:4949   */\n    tag_290:\n        /* \"#utility.yul\":4884:4888   */\n      0x00\n        /* \"#utility.yul\":4907:4910   */\n      dup2\n        /* \"#utility.yul\":4899:4910   */\n      swap1\n      pop\n        /* \"#utility.yul\":4937:4941   */\n      0x20\n        /* \"#utility.yul\":4932:4935   */\n      dup3\n        /* \"#utility.yul\":4928:4942   */\n      add\n        /* \"#utility.yul\":4920:4942   */\n      swap1\n      pop\n        /* \"#utility.yul\":4817:4949   */\n      swap2\n      swap1\n      pop\n      jump\t// out\n        /* \"#utility.yul\":4955:5063   */\n    tag_291:\n        /* \"#utility.yul\":5032:5056   */\n      tag_398\n        /* \"#utility.yul\":5050:5055   */\n      dup2\n        /* \"#utility.yul\":5032:5056   */\n      tag_277\n      jump\t// in\n    tag_398:\n        /* \"#utility.yul\":5027:5030   */\n      dup3\n        /* \"#utility.yul\":5020:5057   */\n      mstore\n        /* \"#utility.yul\":4955:5063   */\n      pop\n      pop\n      jump\t// out\n        /* \"#utility.yul\":5069:5248   */\n    tag_292:\n        /* \"#utility.yul\":5138:5148   */\n      0x00\n        /* \"#utility.yul\":5159:5205   */\n      tag_400\n        /* \"#utility.yul\":5201:5204   */\n      dup4\n        /* \"#utility.yul\":5193:5199   */\n      dup4\n        /* \"#utility.yul\":5159:5205   */\n      tag_291\n      jump\t// in\n    tag_400:\n        /* \"#utility.yul\":5237:5241   */\n      0x20\n        /* \"#utility.yul\":5232:5235   */\n      dup4\n        /* \"#utility.yul\":5228:5242   */\n      add\n        /* \"#utility.yul\":5214:5242   */\n      swap1\n      pop\n        /* \"#utility.yul\":5069:5248   */\n      swap3\n      swap2\n      pop\n      pop\n      jump\t// out\n        /* \"#utility.yul\":5254:5367   */\n    tag_293:\n        /* \"#utility.yul\":5324:5328   */\n      0x00\n        /* \"#utility.yul\":5356:5360   */\n      0x20\n        /* \"#utility.yul\":5351:5354   */\n      dup3\n        /* \"#utility.yul\":5347:5361   */\n      add\n        /* \"#utility.yul\":5339:5361   */\n      swap1\n      pop\n        /* \"#utility.yul\":5254:5367   */\n      swap2\n      swap1\n      pop\n      jump\t// out\n        /* \"#utility.yul\":5403:6135   */\n    tag_294:\n        /* \"#utility.yul\":5522:5525   */\n      0x00\n        /* \"#utility.yul\":5551:5605   */\n      tag_403\n        /* \"#utility.yul\":5599:5604   */\n      dup3\n        /* \"#utility.yul\":5551:5605   */\n      tag_288\n      jump\t// in\n    tag_403:\n        /* \"#utility.yul\":5621:5707   */\n      tag_404\n        /* \"#utility.yul\":5700:5706   */\n      dup2\n        /* \"#utility.yul\":5695:5698   */\n      dup6\n        /* \"#utility.yul\":5621:5707   */\n      tag_289\n      jump\t// in\n    tag_404:\n        /* \"#utility.yul\":5614:5707   */\n      swap4\n      pop\n        /* \"#utility.yul\":5731:5787   */\n      tag_405\n        /* \"#utility.yul\":5781:5786   */\n      dup4\n        /* \"#utility.yul\":5731:5787   */\n      tag_290\n      jump\t// in\n    tag_405:\n        /* \"#utility.yul\":5810:5817   */\n      dup1\n        /* \"#utility.yul\":5841:5842   */\n      0x00\n        /* \"#utility.yul\":5826:6110   */\n    tag_406:\n        /* \"#utility.yul\":5851:5857   */\n      dup4\n        /* \"#utility.yul\":5848:5849   */\n      dup2\n        /* \"#utility.yul\":5845:5858   */\n      lt\n        /* \"#utility.yul\":5826:6110   */\n      iszero\n      tag_408\n      jumpi\n        /* \"#utility.yul\":5927:5933   */\n      dup2\n        /* \"#utility.yul\":5921:5934   */\n      mload\n        /* \"#utility.yul\":5954:6017   */\n      tag_409\n        /* \"#utility.yul\":6013:6016   */\n      dup9\n        /* \"#utility.yul\":5998:6011   */\n      dup3\n        /* \"#utility.yul\":5954:6017   */\n      tag_292\n      jump\t// in\n    tag_409:\n        /* \"#utility.yul\":5947:6017   */\n      swap8\n      pop\n        /* \"#utility.yul\":6040:6100   */\n      tag_410\n        /* \"#utility.yul\":6093:6099   */\n      dup4\n        /* \"#utility.yul\":6040:6100   */\n      tag_293\n      jump\t// in\n    tag_410:\n        /* \"#utility.yul\":6030:6100   */\n      swap3\n      pop\n        /* \"#utility.yul\":5886:6110   */\n      pop\n        /* \"#utility.yul\":5873:5874   */\n      0x01\n        /* \"#utility.yul\":5870:5871   */\n      dup2\n        /* \"#utility.yul\":5866:5875   */\n      add\n        /* \"#utility.yul\":5861:5875   */\n      swap1\n      pop\n        /* \"#utility.yul\":5826:6110   */\n      jump(tag_406)\n    tag_408:\n        /* \"#utility.yul\":5830:5844   */\n      pop\n        /* \"#utility.yul\":6126:6129   */\n      dup6\n        /* \"#utility.yul\":6119:6129   */\n      swap4\n      pop\n        /* \"#utility.yul\":5527:6135   */\n      pop\n      pop\n      pop\n        /* \"#utility.yul\":5403:6135   */\n      swap3\n      swap2\n      pop\n      pop\n      jump\t// out\n        /* \"#utility.yul\":6141:6722   */\n    tag_95:\n        /* \"#utility.yul\":6334:6338   */\n      0x00\n        /* \"#utility.yul\":6372:6374   */\n      0x60\n        /* \"#utility.yul\":6361:6370   */\n      dup3\n        /* \"#utility.yul\":6357:6375   */\n      add\n        /* \"#utility.yul\":6349:6375   */\n      swap1\n      pop\n        /* \"#utility.yul\":6385:6456   */\n      tag_412\n        /* \"#utility.yul\":6453:6454   */\n      0x00\n        /* \"#utility.yul\":6442:6451   */\n      dup4\n        /* \"#utility.yul\":6438:6455   */\n      add\n        /* \"#utility.yul\":6429:6435   */\n      dup7\n        /* \"#utility.yul\":6385:6456   */\n      tag_286\n      jump\t// in\n    tag_412:\n        /* \"#utility.yul\":6503:6512   */\n      dup2\n        /* \"#utility.yul\":6497:6501   */\n      dup2\n        /* \"#utility.yul\":6493:6513   */\n      sub\n        /* \"#utility.yul\":6488:6490   */\n      0x20\n        /* \"#utility.yul\":6477:6486   */\n      dup4\n        /* \"#utility.yul\":6473:6491   */\n      add\n        /* \"#utility.yul\":6466:6514   */\n      mstore\n        /* \"#utility.yul\":6531:6639   */\n      tag_413\n        /* \"#utility.yul\":6634:6638   */\n      dup2\n        /* \"#utility.yul\":6625:6631   */\n      dup6\n        /* \"#utility.yul\":6531:6639   */\n      tag_294\n      jump\t// in\n    tag_413:\n        /* \"#utility.yul\":6523:6639   */\n      swap1\n      pop\n        /* \"#utility.yul\":6649:6715   */\n      tag_414\n        /* \"#utility.yul\":6711:6713   */\n      0x40\n        /* \"#utility.yul\":6700:6709   */\n      dup4\n        /* \"#utility.yul\":6696:6714   */\n      add\n        /* \"#utility.yul\":6687:6693   */\n      dup5\n        /* \"#utility.yul\":6649:6715   */\n      tag_284\n      jump\t// in\n    tag_414:\n        /* \"#utility.yul\":6141:6722   */\n      swap5\n      swap4\n      pop\n      pop\n      pop\n      pop\n      jump\t// out\n        /* \"#utility.yul\":6728:7392   */\n    tag_105:\n        /* \"#utility.yul\":6933:6937   */\n      0x00\n        /* \"#utility.yul\":6971:6974   */\n      0xa0\n        /* \"#utility.yul\":6960:6969   */\n      dup3\n        /* \"#utility.yul\":6956:6975   */\n      add\n        /* \"#utility.yul\":6948:6975   */\n      swap1\n      pop\n        /* \"#utility.yul\":6985:7056   */\n      tag_416\n        /* \"#utility.yul\":7053:7054   */\n      0x00\n        /* \"#utility.yul\":7042:7051   */\n      dup4\n        /* \"#utility.yul\":7038:7055   */\n      add\n        /* \"#utility.yul\":7029:7035   */\n      dup9\n        /* \"#utility.yul\":6985:7056   */\n      tag_287\n      jump\t// in\n    tag_416:\n        /* \"#utility.yul\":7066:7138   */\n      tag_417\n        /* \"#utility.yul\":7134:7136   */\n      0x20\n        /* \"#utility.yul\":7123:7132   */\n      dup4\n        /* \"#utility.yul\":7119:7137   */\n      add\n        /* \"#utility.yul\":7110:7116   */\n      dup8\n        /* \"#utility.yul\":7066:7138   */\n      tag_286\n      jump\t// in\n    tag_417:\n        /* \"#utility.yul\":7148:7220   */\n      tag_418\n        /* \"#utility.yul\":7216:7218   */\n      0x40\n        /* \"#utility.yul\":7205:7214   */\n      dup4\n        /* \"#utility.yul\":7201:7219   */\n      add\n        /* \"#utility.yul\":7192:7198   */\n      dup7\n        /* \"#utility.yul\":7148:7220   */\n      tag_287\n      jump\t// in\n    tag_418:\n        /* \"#utility.yul\":7230:7302   */\n      tag_419\n        /* \"#utility.yul\":7298:7300   */\n      0x60\n        /* \"#utility.yul\":7287:7296   */\n      dup4\n        /* \"#utility.yul\":7283:7301   */\n      add\n        /* \"#utility.yul\":7274:7280   */\n      dup6\n        /* \"#utility.yul\":7230:7302   */\n      tag_287\n      jump\t// in\n    tag_419:\n        /* \"#utility.yul\":7312:7385   */\n      tag_420\n        /* \"#utility.yul\":7380:7383   */\n      0x80\n        /* \"#utility.yul\":7369:7378   */\n      dup4\n        /* \"#utility.yul\":7365:7384   */\n      add\n        /* \"#utility.yul\":7356:7362   */\n      dup5\n        /* \"#utility.yul\":7312:7385   */\n      tag_287\n      jump\t// in\n    tag_420:\n        /* \"#utility.yul\":6728:7392   */\n      swap7\n      swap6\n      pop\n      pop\n      pop\n      pop\n      pop\n      pop\n      jump\t// out\n        /* \"#utility.yul\":7398:7864   */\n    tag_108:\n        /* \"#utility.yul\":7462:7468   */\n      0x00\n        /* \"#utility.yul\":7470:7476   */\n      0x00\n        /* \"#utility.yul\":7519:7521   */\n      0x40\n        /* \"#utility.yul\":7507:7516   */\n      dup4\n        /* \"#utility.yul\":7498:7505   */\n      dup6\n        /* \"#utility.yul\":7494:7517   */\n      sub\n        /* \"#utility.yul\":7490:7522   */\n      slt\n        /* \"#utility.yul\":7487:7606   */\n      iszero\n      tag_422\n      jumpi\n        /* \"#utility.yul\":7525:7604   */\n      tag_423\n      tag_271\n      jump\t// in\n    tag_423:\n        /* \"#utility.yul\":7487:7606   */\n    tag_422:\n        /* \"#utility.yul\":7645:7646   */\n      0x00\n        /* \"#utility.yul\":7670:7721   */\n      tag_424\n        /* \"#utility.yul\":7713:7720   */\n      dup6\n        /* \"#utility.yul\":7704:7710   */\n      dup3\n        /* \"#utility.yul\":7693:7702   */\n      dup7\n        /* \"#utility.yul\":7689:7711   */\n      add\n        /* \"#utility.yul\":7670:7721   */\n      tag_282\n      jump\t// in\n    tag_424:\n        /* \"#utility.yul\":7660:7721   */\n      swap3\n      pop\n        /* \"#utility.yul\":7616:7731   */\n      pop\n        /* \"#utility.yul\":7770:7772   */\n      0x20\n        /* \"#utility.yul\":7796:7847   */\n      tag_425\n        /* \"#utility.yul\":7839:7846   */\n      dup6\n        /* \"#utility.yul\":7830:7836   */\n      dup3\n        /* \"#utility.yul\":7819:7828   */\n      dup7\n        /* \"#utility.yul\":7815:7837   */\n      add\n        /* \"#utility.yul\":7796:7847   */\n      tag_282\n      jump\t// in\n    tag_425:\n        /* \"#utility.yul\":7786:7847   */\n      swap2\n      pop\n        /* \"#utility.yul\":7741:7857   */\n      pop\n        /* \"#utility.yul\":7398:7864   */\n      swap3\n      pop\n      swap3\n      swap1\n      pop\n      jump\t// out\n        /* \"#utility.yul\":7870:8195   */\n    tag_113:\n        /* \"#utility.yul\":7927:7933   */\n      0x00\n        /* \"#utility.yul\":7976:7978   */\n      0x20\n        /* \"#utility.yul\":7964:7973   */\n      dup3\n        /* \"#utility.yul\":7955:7962   */\n      dup5\n        /* \"#utility.yul\":7951:7974   */\n      sub\n        /* \"#utility.yul\":7947:7979   */\n      slt\n        /* \"#utility.yul\":7944:8063   */\n      iszero\n      tag_427\n      jumpi\n        /* \"#utility.yul\":7982:8061   */\n      tag_428\n      tag_271\n      jump\t// in\n    tag_428:\n        /* \"#utility.yul\":7944:8063   */\n    tag_427:\n        /* \"#utility.yul\":8102:8103   */\n      0x00\n        /* \"#utility.yul\":8127:8178   */\n      tag_429\n        /* \"#utility.yul\":8170:8177   */\n      dup5\n        /* \"#utility.yul\":8161:8167   */\n      dup3\n        /* \"#utility.yul\":8150:8159   */\n      dup6\n        /* \"#utility.yul\":8146:8168   */\n      add\n        /* \"#utility.yul\":8127:8178   */\n      tag_282\n      jump\t// in\n    tag_429:\n        /* \"#utility.yul\":8117:8178   */\n      swap2\n      pop\n        /* \"#utility.yul\":8073:8188   */\n      pop\n        /* \"#utility.yul\":7870:8195   */\n      swap3\n      swap2\n      pop\n      pop\n      jump\t// out\n        /* \"#utility.yul\":8201:8370   */\n    tag_295:\n        /* \"#utility.yul\":8285:8296   */\n      0x00\n        /* \"#utility.yul\":8319:8325   */\n      dup3\n        /* \"#utility.yul\":8314:8317   */\n      dup3\n        /* \"#utility.yul\":8307:8326   */\n      mstore\n        /* \"#utility.yul\":8359:8363   */\n      0x20\n        /* \"#utility.yul\":8354:8357   */\n      dup3\n        /* \"#utility.yul\":8350:8364   */\n      add\n        /* \"#utility.yul\":8335:8364   */\n      swap1\n      pop\n        /* \"#utility.yul\":8201:8370   */\n      swap3\n      swap2\n      pop\n      pop\n      jump\t// out\n        /* \"#utility.yul\":8376:8548   */\n    tag_296:\n        /* \"#utility.yul\":8516:8540   */\n      0x726567697374726174696f6e20636f737420302e303500000000000000000000\n        /* \"#utility.yul\":8512:8513   */\n      0x00\n        /* \"#utility.yul\":8504:8510   */\n      dup3\n        /* \"#utility.yul\":8500:8514   */\n      add\n        /* \"#utility.yul\":8493:8541   */\n      mstore\n        /* \"#utility.yul\":8376:8548   */\n      pop\n      jump\t// out\n        /* \"#utility.yul\":8554:8920   */\n    tag_297:\n        /* \"#utility.yul\":8696:8699   */\n      0x00\n        /* \"#utility.yul\":8717:8784   */\n      tag_433\n        /* \"#utility.yul\":8781:8783   */\n      0x16\n        /* \"#utility.yul\":8776:8779   */\n      dup4\n        /* \"#utility.yul\":8717:8784   */\n      tag_295\n      jump\t// in\n    tag_433:\n        /* \"#utility.yul\":8710:8784   */\n      swap2\n      pop\n        /* \"#utility.yul\":8793:8886   */\n      tag_434\n        /* \"#utility.yul\":8882:8885   */\n      dup3\n        /* \"#utility.yul\":8793:8886   */\n      tag_296\n      jump\t// in\n    tag_434:\n        /* \"#utility.yul\":8911:8913   */\n      0x20\n        /* \"#utility.yul\":8906:8909   */\n      dup3\n        /* \"#utility.yul\":8902:8914   */\n      add\n        /* \"#utility.yul\":8895:8914   */\n      swap1\n      pop\n        /* \"#utility.yul\":8554:8920   */\n      swap2\n      swap1\n      pop\n      jump\t// out\n        /* \"#utility.yul\":8926:9345   */\n    tag_124:\n        /* \"#utility.yul\":9092:9096   */\n      0x00\n        /* \"#utility.yul\":9130:9132   */\n      0x20\n        /* \"#utility.yul\":9119:9128   */\n      dup3\n        /* \"#utility.yul\":9115:9133   */\n      add\n        /* \"#utility.yul\":9107:9133   */\n      swap1\n      pop\n        /* \"#utility.yul\":9179:9188   */\n      dup2\n        /* \"#utility.yul\":9173:9177   */\n      dup2\n        /* \"#utility.yul\":9169:9189   */\n      sub\n        /* \"#utility.yul\":9165:9166   */\n      0x00\n        /* \"#utility.yul\":9154:9163   */\n      dup4\n        /* \"#utility.yul\":9150:9167   */\n      add\n        /* \"#utility.yul\":9143:9190   */\n      mstore\n        /* \"#utility.yul\":9207:9338   */\n      tag_436\n        /* \"#utility.yul\":9333:9337   */\n      dup2\n        /* \"#utility.yul\":9207:9338   */\n      tag_297\n      jump\t// in\n    tag_436:\n        /* \"#utility.yul\":9199:9338   */\n      swap1\n      pop\n        /* \"#utility.yul\":8926:9345   */\n      swap2\n      swap1\n      pop\n      jump\t// out\n        /* \"#utility.yul\":9351:9512   */\n    tag_298:\n        /* \"#utility.yul\":9491:9504   */\n      0x7573657220657869737473000000000000000000000000000000000000000000\n        /* \"#utility.yul\":9487:9488   */\n      0x00\n        /* \"#utility.yul\":9479:9485   */\n      dup3\n        /* \"#utility.yul\":9475:9489   */\n      add\n        /* \"#utility.yul\":9468:9505   */\n      mstore\n        /* \"#utility.yul\":9351:9512   */\n      pop\n      jump\t// out\n        /* \"#utility.yul\":9518:9884   */\n    tag_299:\n        /* \"#utility.yul\":9660:9663   */\n      0x00\n        /* \"#utility.yul\":9681:9748   */\n      tag_439\n        /* \"#utility.yul\":9745:9747   */\n      0x0b\n        /* \"#utility.yul\":9740:9743   */\n      dup4\n        /* \"#utility.yul\":9681:9748   */\n      tag_295\n      jump\t// in\n    tag_439:\n        /* \"#utility.yul\":9674:9748   */\n      swap2\n      pop\n        /* \"#utility.yul\":9757:9850   */\n      tag_440\n        /* \"#utility.yul\":9846:9849   */\n      dup3\n        /* \"#utility.yul\":9757:9850   */\n      tag_298\n      jump\t// in\n    tag_440:\n        /* \"#utility.yul\":9875:9877   */\n      0x20\n        /* \"#utility.yul\":9870:9873   */\n      dup3\n        /* \"#utility.yul\":9866:9878   */\n      add\n        /* \"#utility.yul\":9859:9878   */\n      swap1\n      pop\n        /* \"#utility.yul\":9518:9884   */\n      swap2\n      swap1\n      pop\n      jump\t// out\n        /* \"#utility.yul\":9890:10309   */\n    tag_128:\n        /* \"#utility.yul\":10056:10060   */\n      0x00\n        /* \"#utility.yul\":10094:10096   */\n      0x20\n        /* \"#utility.yul\":10083:10092   */\n      dup3\n        /* \"#utility.yul\":10079:10097   */\n      add\n        /* \"#utility.yul\":10071:10097   */\n      swap1\n      pop\n        /* \"#utility.yul\":10143:10152   */\n      dup2\n        /* \"#utility.yul\":10137:10141   */\n      dup2\n        /* \"#utility.yul\":10133:10153   */\n      sub\n        /* \"#utility.yul\":10129:10130   */\n      0x00\n        /* \"#utility.yul\":10118:10127   */\n      dup4\n        /* \"#utility.yul\":10114:10131   */\n      add\n        /* \"#utility.yul\":10107:10154   */\n      mstore\n        /* \"#utility.yul\":10171:10302   */\n      tag_442\n        /* \"#utility.yul\":10297:10301   */\n      dup2\n        /* \"#utility.yul\":10171:10302   */\n      tag_299\n      jump\t// in\n    tag_442:\n        /* \"#utility.yul\":10163:10302   */\n      swap1\n      pop\n        /* \"#utility.yul\":9890:10309   */\n      swap2\n      swap1\n      pop\n      jump\t// out\n        /* \"#utility.yul\":10315:10484   */\n    tag_300:\n        /* \"#utility.yul\":10455:10476   */\n      0x7265666572726572206e6f742065786973747300000000000000000000000000\n        /* \"#utility.yul\":10451:10452   */\n      0x00\n        /* \"#utility.yul\":10443:10449   */\n      dup3\n        /* \"#utility.yul\":10439:10453   */\n      add\n        /* \"#utility.yul\":10432:10477   */\n      mstore\n        /* \"#utility.yul\":10315:10484   */\n      pop\n      jump\t// out\n        /* \"#utility.yul\":10490:10856   */\n    tag_301:\n        /* \"#utility.yul\":10632:10635   */\n      0x00\n        /* \"#utility.yul\":10653:10720   */\n      tag_445\n        /* \"#utility.yul\":10717:10719   */\n      0x13\n        /* \"#utility.yul\":10712:10715   */\n      dup4\n        /* \"#utility.yul\":10653:10720   */\n      tag_295\n      jump\t// in\n    tag_445:\n        /* \"#utility.yul\":10646:10720   */\n      swap2\n      pop\n        /* \"#utility.yul\":10729:10822   */\n      tag_446\n        /* \"#utility.yul\":10818:10821   */\n      dup3\n        /* \"#utility.yul\":10729:10822   */\n      tag_300\n      jump\t// in\n    tag_446:\n        /* \"#utility.yul\":10847:10849   */\n      0x20\n        /* \"#utility.yul\":10842:10845   */\n      dup3\n        /* \"#utility.yul\":10838:10850   */\n      add\n        /* \"#utility.yul\":10831:10850   */\n      swap1\n      pop\n        /* \"#utility.yul\":10490:10856   */\n      swap2\n      swap1\n      pop\n      jump\t// out\n        /* \"#utility.yul\":10862:11281   */\n    tag_132:\n        /* \"#utility.yul\":11028:11032   */\n      0x00\n        /* \"#utility.yul\":11066:11068   */\n      0x20\n        /* \"#utility.yul\":11055:11064   */\n      dup3\n        /* \"#utility.yul\":11051:11069   */\n      add\n        /* \"#utility.yul\":11043:11069   */\n      swap1\n      pop\n        /* \"#utility.yul\":11115:11124   */\n      dup2\n        /* \"#utility.yul\":11109:11113   */\n      dup2\n        /* \"#utility.yul\":11105:11125   */\n      sub\n        /* \"#utility.yul\":11101:11102   */\n      0x00\n        /* \"#utility.yul\":11090:11099   */\n      dup4\n        /* \"#utility.yul\":11086:11103   */\n      add\n        /* \"#utility.yul\":11079:11126   */\n      mstore\n        /* \"#utility.yul\":11143:11274   */\n      tag_448\n        /* \"#utility.yul\":11269:11273   */\n      dup2\n        /* \"#utility.yul\":11143:11274   */\n      tag_301\n      jump\t// in\n    tag_448:\n        /* \"#utility.yul\":11135:11274   */\n      swap1\n      pop\n        /* \"#utility.yul\":10862:11281   */\n      swap2\n      swap1\n      pop\n      jump\t// out\n        /* \"#utility.yul\":11287:11457   */\n    tag_302:\n        /* \"#utility.yul\":11427:11449   */\n      0x63616e6e6f74206265206120636f6e7472616374000000000000000000000000\n        /* \"#utility.yul\":11423:11424   */\n      0x00\n        /* \"#utility.yul\":11415:11421   */\n      dup3\n        /* \"#utility.yul\":11411:11425   */\n      add\n        /* \"#utility.yul\":11404:11450   */\n      mstore\n        /* \"#utility.yul\":11287:11457   */\n      pop\n      jump\t// out\n        /* \"#utility.yul\":11463:11829   */\n    tag_303:\n        /* \"#utility.yul\":11605:11608   */\n      0x00\n        /* \"#utility.yul\":11626:11693   */\n      tag_451\n        /* \"#utility.yul\":11690:11692   */\n      0x14\n        /* \"#utility.yul\":11685:11688   */\n      dup4\n        /* \"#utility.yul\":11626:11693   */\n      tag_295\n      jump\t// in\n    tag_451:\n        /* \"#utility.yul\":11619:11693   */\n      swap2\n      pop\n        /* \"#utility.yul\":11702:11795   */\n      tag_452\n        /* \"#utility.yul\":11791:11794   */\n      dup3\n        /* \"#utility.yul\":11702:11795   */\n      tag_302\n      jump\t// in\n    tag_452:\n        /* \"#utility.yul\":11820:11822   */\n      0x20\n        /* \"#utility.yul\":11815:11818   */\n      dup3\n        /* \"#utility.yul\":11811:11823   */\n      add\n        /* \"#utility.yul\":11804:11823   */\n      swap1\n      pop\n        /* \"#utility.yul\":11463:11829   */\n      swap2\n      swap1\n      pop\n      jump\t// out\n        /* \"#utility.yul\":11835:12254   */\n    tag_135:\n        /* \"#utility.yul\":12001:12005   */\n      0x00\n        /* \"#utility.yul\":12039:12041   */\n      0x20\n        /* \"#utility.yul\":12028:12037   */\n      dup3\n        /* \"#utility.yul\":12024:12042   */\n      add\n        /* \"#utility.yul\":12016:12042   */\n      swap1\n      pop\n        /* \"#utility.yul\":12088:12097   */\n      dup2\n        /* \"#utility.yul\":12082:12086   */\n      dup2\n        /* \"#utility.yul\":12078:12098   */\n      sub\n        /* \"#utility.yul\":12074:12075   */\n      0x00\n        /* \"#utility.yul\":12063:12072   */\n      dup4\n        /* \"#utility.yul\":12059:12076   */\n      add\n        /* \"#utility.yul\":12052:12099   */\n      mstore\n        /* \"#utility.yul\":12116:12247   */\n      tag_454\n        /* \"#utility.yul\":12242:12246   */\n      dup2\n        /* \"#utility.yul\":12116:12247   */\n      tag_303\n      jump\t// in\n    tag_454:\n        /* \"#utility.yul\":12108:12247   */\n      swap1\n      pop\n        /* \"#utility.yul\":11835:12254   */\n      swap2\n      swap1\n      pop\n      jump\t// out\n        /* \"#utility.yul\":12260:12440   */\n    tag_304:\n        /* \"#utility.yul\":12308:12385   */\n      0x4e487b7100000000000000000000000000000000000000000000000000000000\n        /* \"#utility.yul\":12305:12306   */\n      0x00\n        /* \"#utility.yul\":12298:12386   */\n      mstore\n        /* \"#utility.yul\":12405:12409   */\n      0x11\n        /* \"#utility.yul\":12402:12403   */\n      0x04\n        /* \"#utility.yul\":12395:12410   */\n      mstore\n        /* \"#utility.yul\":12429:12433   */\n      0x24\n        /* \"#utility.yul\":12426:12427   */\n      0x00\n        /* \"#utility.yul\":12419:12434   */\n      revert\n        /* \"#utility.yul\":12446:12679   */\n    tag_137:\n        /* \"#utility.yul\":12485:12488   */\n      0x00\n        /* \"#utility.yul\":12508:12532   */\n      tag_457\n        /* \"#utility.yul\":12526:12531   */\n      dup3\n        /* \"#utility.yul\":12508:12532   */\n      tag_273\n      jump\t// in\n    tag_457:\n        /* \"#utility.yul\":12499:12532   */\n      swap2\n      pop\n        /* \"#utility.yul\":12554:12620   */\n      0xffffffffffffffffffffffffffffffffffffffffffffffffffffffffffffffff\n        /* \"#utility.yul\":12547:12552   */\n      dup3\n        /* \"#utility.yul\":12544:12621   */\n      sub\n        /* \"#utility.yul\":12541:12644   */\n      tag_458\n      jumpi\n        /* \"#utility.yul\":12624:12642   */\n      tag_459\n      tag_304\n      jump\t// in\n    tag_459:\n        /* \"#utility.yul\":12541:12644   */\n    tag_458:\n        /* \"#utility.yul\":12671:12672   */\n      0x01\n        /* \"#utility.yul\":12664:12669   */\n      dup3\n        /* \"#utility.yul\":12660:12673   */\n      add\n        /* \"#utility.yul\":12653:12673   */\n      swap1\n      pop\n        /* \"#utility.yul\":12446:12679   */\n      swap2\n      swap1\n      pop\n      jump\t// out\n        /* \"#utility.yul\":12685:12854   */\n    tag_305:\n        /* \"#utility.yul\":12825:12846   */\n      0x55736572206e6f74207265676973746572656400000000000000000000000000\n        /* \"#utility.yul\":12821:12822   */\n      0x00\n        /* \"#utility.yul\":12813:12819   */\n      dup3\n        /* \"#utility.yul\":12809:12823   */\n      add\n        /* \"#utility.yul\":12802:12847   */\n      mstore\n        /* \"#utility.yul\":12685:12854   */\n      pop\n      jump\t// out\n        /* \"#utility.yul\":12860:13226   */\n    tag_306:\n        /* \"#utility.yul\":13002:13005   */\n      0x00\n        /* \"#utility.yul\":13023:13090   */\n      tag_462\n        /* \"#utility.yul\":13087:13089   */\n      0x13\n        /* \"#utility.yul\":13082:13085   */\n      dup4\n        /* \"#utility.yul\":13023:13090   */\n      tag_295\n      jump\t// in\n    tag_462:\n        /* \"#utility.yul\":13016:13090   */\n      swap2\n      pop\n        /* \"#utility.yul\":13099:13192   */\n      tag_463\n        /* \"#utility.yul\":13188:13191   */\n      dup3\n        /* \"#utility.yul\":13099:13192   */\n      tag_305\n      jump\t// in\n    tag_463:\n        /* \"#utility.yul\":13217:13219   */\n      0x20\n        /* \"#utility.yul\":13212:13215   */\n      dup3\n        /* \"#utility.yul\":13208:13220   */\n      add\n        /* \"#utility.yul\":13201:13220   */\n      swap1\n      pop\n        /* \"#utility.yul\":12860:13226   */\n      swap2\n      swap1\n      pop\n      jump\t// out\n        /* \"#utility.yul\":13232:13651   */\n    tag_148:\n        /* \"#utility.yul\":13398:13402   */\n      0x00\n        /* \"#utility.yul\":13436:13438   */\n      0x20\n        /* \"#utility.yul\":13425:13434   */\n      dup3\n        /* \"#utility.yul\":13421:13439   */\n      add\n        /* \"#utility.yul\":13413:13439   */\n      swap1\n      pop\n        /* \"#utility.yul\":13485:13494   */\n      dup2\n        /* \"#utility.yul\":13479:13483   */\n      dup2\n        /* \"#utility.yul\":13475:13495   */\n      sub\n        /* \"#utility.yul\":13471:13472   */\n      0x00\n        /* \"#utility.yul\":13460:13469   */\n      dup4\n        /* \"#utility.yul\":13456:13473   */\n      add\n        /* \"#utility.yul\":13449:13496   */\n      mstore\n        /* \"#utility.yul\":13513:13644   */\n      tag_465\n        /* \"#utility.yul\":13639:13643   */\n      dup2\n        /* \"#utility.yul\":13513:13644   */\n      tag_306\n      jump\t// in\n    tag_465:\n        /* \"#utility.yul\":13505:13644   */\n      swap1\n      pop\n        /* \"#utility.yul\":13232:13651   */\n      swap2\n      swap1\n      pop\n      jump\t// out\n        /* \"#utility.yul\":13657:13830   */\n    tag_307:\n        /* \"#utility.yul\":13797:13822   */\n      0x416d6f756e74206d75737420626520706f736974697665000000000000000000\n        /* \"#utility.yul\":13793:13794   */\n      0x00\n        /* \"#utility.yul\":13785:13791   */\n      dup3\n        /* \"#utility.yul\":13781:13795   */\n      add\n        /* \"#utility.yul\":13774:13823   */\n      mstore\n        /* \"#utility.yul\":13657:13830   */\n      pop\n      jump\t// out\n        /* \"#utility.yul\":13836:14202   */\n    tag_308:\n        /* \"#utility.yul\":13978:13981   */\n      0x00\n        /* \"#utility.yul\":13999:14066   */\n      tag_468\n        /* \"#utility.yul\":14063:14065   */\n      0x17\n        /* \"#utility.yul\":14058:14061   */\n      dup4\n        /* \"#utility.yul\":13999:14066   */\n      tag_295\n      jump\t// in\n    tag_468:\n        /* \"#utility.yul\":13992:14066   */\n      swap2\n      pop\n        /* \"#utility.yul\":14075:14168   */\n      tag_469\n        /* \"#utility.yul\":14164:14167   */\n      dup3\n        /* \"#utility.yul\":14075:14168   */\n      tag_307\n      jump\t// in\n    tag_469:\n        /* \"#utility.yul\":14193:14195   */\n      0x20\n        /* \"#utility.yul\":14188:14191   */\n      dup3\n        /* \"#utility.yul\":14184:14196   */\n      add\n        /* \"#utility.yul\":14177:14196   */\n      swap1\n      pop\n        /* \"#utility.yul\":13836:14202   */\n      swap2\n      swap1\n      pop\n      jump\t// out\n        /* \"#utility.yul\":14208:14627   */\n    tag_151:\n        /* \"#utility.yul\":14374:14378   */\n      0x00\n        /* \"#utility.yul\":14412:14414   */\n      0x20\n        /* \"#utility.yul\":14401:14410   */\n      dup3\n        /* \"#utility.yul\":14397:14415   */\n      add\n        /* \"#utility.yul\":14389:14415   */\n      swap1\n      pop\n        /* \"#utility.yul\":14461:14470   */\n      dup2\n        /* \"#utility.yul\":14455:14459   */\n      dup2\n        /* \"#utility.yul\":14451:14471   */\n      sub\n        /* \"#utility.yul\":14447:14448   */\n      0x00\n        /* \"#utility.yul\":14436:14445   */\n      dup4\n        /* \"#utility.yul\":14432:14449   */\n      add\n        /* \"#utility.yul\":14425:14472   */\n      mstore\n        /* \"#utility.yul\":14489:14620   */\n      tag_471\n        /* \"#utility.yul\":14615:14619   */\n      dup2\n        /* \"#utility.yul\":14489:14620   */\n      tag_308\n      jump\t// in\n    tag_471:\n        /* \"#utility.yul\":14481:14620   */\n      swap1\n      pop\n        /* \"#utility.yul\":14208:14627   */\n      swap2\n      swap1\n      pop\n      jump\t// out\n        /* \"#utility.yul\":14633:14803   */\n    tag_309:\n        /* \"#utility.yul\":14773:14795   */\n      0x496e73756666696369656e742062616c616e6365000000000000000000000000\n        /* \"#utility.yul\":14769:14770   */\n      0x00\n        /* \"#utility.yul\":14761:14767   */\n      dup3\n        /* \"#utility.yul\":14757:14771   */\n      add\n        /* \"#utility.yul\":14750:14796   */\n      mstore\n        /* \"#utility.yul\":14633:14803   */\n      pop\n      jump\t// out\n        /* \"#utility.yul\":14809:15175   */\n    tag_310:\n        /* \"#utility.yul\":14951:14954   */\n      0x00\n        /* \"#utility.yul\":14972:15039   */\n      tag_474\n        /* \"#utility.yul\":15036:15038   */\n      0x14\n        /* \"#utility.yul\":15031:15034   */\n      dup4\n        /* \"#utility.yul\":14972:15039   */\n      tag_295\n      jump\t// in\n    tag_474:\n        /* \"#utility.yul\":14965:15039   */\n      swap2\n      pop\n        /* \"#utility.yul\":15048:15141   */\n      tag_475\n        /* \"#utility.yul\":15137:15140   */\n      dup3\n        /* \"#utility.yul\":15048:15141   */\n      tag_309\n      jump\t// in\n    tag_475:\n        /* \"#utility.yul\":15166:15168   */\n      0x20\n        /* \"#utility.yul\":15161:15164   */\n      dup3\n        /* \"#utility.yul\":15157:15169   */\n      add\n        /* \"#utility.yul\":15150:15169   */\n      swap1\n      pop\n        /* \"#utility.yul\":14809:15175   */\n      swap2\n      swap1\n      pop\n      jump\t// out\n        /* \"#utility.yul\":15181:15600   */\n    tag_154:\n        /* \"#utility.yul\":15347:15351   */\n      0x00\n        /* \"#utility.yul\":15385:15387   */\n      0x20\n        /* \"#utility.yul\":15374:15383   */\n      dup3\n        /* \"#utility.yul\":15370:15388   */\n      add\n        /* \"#utility.yul\":15362:15388   */\n      swap1\n      pop\n        /* \"#utility.yul\":15434:15443   */\n      dup2\n        /* \"#utility.yul\":15428:15432   */\n      dup2\n        /* \"#utility.yul\":15424:15444   */\n      sub\n        /* \"#utility.yul\":15420:15421   */\n      0x00\n        /* \"#utility.yul\":15409:15418   */\n      dup4\n        /* \"#utility.yul\":15405:15422   */\n      add\n        /* \"#utility.yul\":15398:15445   */\n      mstore\n        /* \"#utility.yul\":15462:15593   */\n      tag_477\n        /* \"#utility.yul\":15588:15592   */\n      dup2\n        /* \"#utility.yul\":15462:15593   */\n      tag_310\n      jump\t// in\n    tag_477:\n        /* \"#utility.yul\":15454:15593   */\n      swap1\n      pop\n        /* \"#utility.yul\":15181:15600   */\n      swap2\n      swap1\n      pop\n      jump\t// out\n        /* \"#utility.yul\":15606:15800   */\n    tag_156:\n        /* \"#utility.yul\":15646:15650   */\n      0x00\n        /* \"#utility.yul\":15666:15686   */\n      tag_479\n        /* \"#utility.yul\":15684:15685   */\n      dup3\n        /* \"#utility.yul\":15666:15686   */\n      tag_273\n      jump\t// in\n    tag_479:\n        /* \"#utility.yul\":15661:15686   */\n      swap2\n      pop\n        /* \"#utility.yul\":15700:15720   */\n      tag_480\n        /* \"#utility.yul\":15718:15719   */\n      dup4\n        /* \"#utility.yul\":15700:15720   */\n      tag_273\n      jump\t// in\n    tag_480:\n        /* \"#utility.yul\":15695:15720   */\n      swap3\n      pop\n        /* \"#utility.yul\":15744:15745   */\n      dup3\n        /* \"#utility.yul\":15741:15742   */\n      dup3\n        /* \"#utility.yul\":15737:15746   */\n      sub\n        /* \"#utility.yul\":15729:15746   */\n      swap1\n      pop\n        /* \"#utility.yul\":15768:15769   */\n      dup2\n        /* \"#utility.yul\":15762:15766   */\n      dup2\n        /* \"#utility.yul\":15759:15770   */\n      gt\n        /* \"#utility.yul\":15756:15793   */\n      iszero\n      tag_481\n      jumpi\n        /* \"#utility.yul\":15773:15791   */\n      tag_482\n      tag_304\n      jump\t// in\n    tag_482:\n        /* \"#utility.yul\":15756:15793   */\n    tag_481:\n        /* \"#utility.yul\":15606:15800   */\n      swap3\n      swap2\n      pop\n      pop\n      jump\t// out\n        /* \"#utility.yul\":15806:15953   */\n    tag_311:\n        /* \"#utility.yul\":15907:15918   */\n      0x00\n        /* \"#utility.yul\":15944:15947   */\n      dup2\n        /* \"#utility.yul\":15929:15947   */\n      swap1\n      pop\n        /* \"#utility.yul\":15806:15953   */\n      swap3\n      swap2\n      pop\n      pop\n      jump\t// out\n        /* \"#utility.yul\":15959:16073   */\n    tag_312:\n      pop\n      jump\t// out\n        /* \"#utility.yul\":16079:16477   */\n    tag_313:\n        /* \"#utility.yul\":16238:16241   */\n      0x00\n        /* \"#utility.yul\":16259:16342   */\n      tag_486\n        /* \"#utility.yul\":16340:16341   */\n      0x00\n        /* \"#utility.yul\":16335:16338   */\n      dup4\n        /* \"#utility.yul\":16259:16342   */\n      tag_311\n      jump\t// in\n    tag_486:\n        /* \"#utility.yul\":16252:16342   */\n      swap2\n      pop\n        /* \"#utility.yul\":16351:16444   */\n      tag_487\n        /* \"#utility.yul\":16440:16443   */\n      dup3\n        /* \"#utility.yul\":16351:16444   */\n      tag_312\n      jump\t// in\n    tag_487:\n        /* \"#utility.yul\":16469:16470   */\n      0x00\n        /* \"#utility.yul\":16464:16467   */\n      dup3\n        /* \"#utility.yul\":16460:16471   */\n      add\n        /* \"#utility.yul\":16453:16471   */\n      swap1\n      pop\n        /* \"#utility.yul\":16079:16477   */\n      swap2\n      swap1\n      pop\n      jump\t// out\n        /* \"#utility.yul\":16483:16862   */\n    tag_159:\n        /* \"#utility.yul\":16667:16670   */\n      0x00\n        /* \"#utility.yul\":16689:16836   */\n      tag_489\n        /* \"#utility.yul\":16832:16835   */\n      dup3\n        /* \"#utility.yul\":16689:16836   */\n      tag_313\n      jump\t// in\n    tag_489:\n        /* \"#utility.yul\":16682:16836   */\n      swap2\n      pop\n        /* \"#utility.yul\":16853:16856   */\n      dup2\n        /* \"#utility.yul\":16846:16856   */\n      swap1\n      pop\n        /* \"#utility.yul\":16483:16862   */\n      swap2\n      swap1\n      pop\n      jump\t// out\n        /* \"#utility.yul\":16868:17035   */\n    tag_314:\n        /* \"#utility.yul\":17008:17027   */\n      0x5769746864726177616c206661696c6564000000000000000000000000000000\n        /* \"#utility.yul\":17004:17005   */\n      0x00\n        /* \"#utility.yul\":16996:17002   */\n      dup3\n        /* \"#utility.yul\":16992:17006   */\n      add\n        /* \"#utility.yul\":16985:17028   */\n      mstore\n        /* \"#utility.yul\":16868:17035   */\n      pop\n      jump\t// out\n        /* \"#utility.yul\":17041:17407   */\n    tag_315:\n        /* \"#utility.yul\":17183:17186   */\n      0x00\n        /* \"#utility.yul\":17204:17271   */\n      tag_492\n        /* \"#utility.yul\":17268:17270   */\n      0x11\n        /* \"#utility.yul\":17263:17266   */\n      dup4\n        /* \"#utility.yul\":17204:17271   */\n      tag_295\n      jump\t// in\n    tag_492:\n        /* \"#utility.yul\":17197:17271   */\n      swap2\n      pop\n        /* \"#utility.yul\":17280:17373   */\n      tag_493\n        /* \"#utility.yul\":17369:17372   */\n      dup3\n        /* \"#utility.yul\":17280:17373   */\n      tag_314\n      jump\t// in\n    tag_493:\n        /* \"#utility.yul\":17398:17400   */\n      0x20\n        /* \"#utility.yul\":17393:17396   */\n      dup3\n        /* \"#utility.yul\":17389:17401   */\n      add\n        /* \"#utility.yul\":17382:17401   */\n      swap1\n      pop\n        /* \"#utility.yul\":17041:17407   */\n      swap2\n      swap1\n      pop\n      jump\t// out\n        /* \"#utility.yul\":17413:17832   */\n    tag_165:\n        /* \"#utility.yul\":17579:17583   */\n      0x00\n        /* \"#utility.yul\":17617:17619   */\n      0x20\n        /* \"#utility.yul\":17606:17615   */\n      dup3\n        /* \"#utility.yul\":17602:17620   */\n      add\n        /* \"#utility.yul\":17594:17620   */\n      swap1\n      pop\n        /* \"#utility.yul\":17666:17675   */\n      dup2\n        /* \"#utility.yul\":17660:17664   */\n      dup2\n        /* \"#utility.yul\":17656:17676   */\n      sub\n        /* \"#utility.yul\":17652:17653   */\n      0x00\n        /* \"#utility.yul\":17641:17650   */\n      dup4\n        /* \"#utility.yul\":17637:17654   */\n      add\n        /* \"#utility.yul\":17630:17677   */\n      mstore\n        /* \"#utility.yul\":17694:17825   */\n      tag_495\n        /* \"#utility.yul\":17820:17824   */\n      dup2\n        /* \"#utility.yul\":17694:17825   */\n      tag_315\n      jump\t// in\n    tag_495:\n        /* \"#utility.yul\":17686:17825   */\n      swap1\n      pop\n        /* \"#utility.yul\":17413:17832   */\n      swap2\n      swap1\n      pop\n      jump\t// out\n        /* \"#utility.yul\":17838:18010   */\n    tag_316:\n        /* \"#utility.yul\":17978:18002   */\n      0x4e6f2062616c616e636520746f20776974686472617700000000000000000000\n        /* \"#utility.yul\":17974:17975   */\n      0x00\n        /* \"#utility.yul\":17966:17972   */\n      dup3\n        /* \"#utility.yul\":17962:17976   */\n      add\n        /* \"#utility.yul\":17955:18003   */\n      mstore\n        /* \"#utility.yul\":17838:18010   */\n      pop\n      jump\t// out\n        /* \"#utility.yul\":18016:18382   */\n    tag_317:\n        /* \"#utility.yul\":18158:18161   */\n      0x00\n        /* \"#utility.yul\":18179:18246   */\n      tag_498\n        /* \"#utility.yul\":18243:18245   */\n      0x16\n        /* \"#utility.yul\":18238:18241   */\n      dup4\n        /* \"#utility.yul\":18179:18246   */\n      tag_295\n      jump\t// in\n    tag_498:\n        /* \"#utility.yul\":18172:18246   */\n      swap2\n      pop\n        /* \"#utility.yul\":18255:18348   */\n      tag_499\n        /* \"#utility.yul\":18344:18347   */\n      dup3\n        /* \"#utility.yul\":18255:18348   */\n      tag_316\n      jump\t// in\n    tag_499:\n        /* \"#utility.yul\":18373:18375   */\n      0x20\n        /* \"#utility.yul\":18368:18371   */\n      dup3\n        /* \"#utility.yul\":18364:18376   */\n      add\n        /* \"#utility.yul\":18357:18376   */\n      swap1\n      pop\n        /* \"#utility.yul\":18016:18382   */\n      swap2\n      swap1\n      pop\n      jump\t// out\n        /* \"#utility.yul\":18388:18807   */\n    tag_173:\n        /* \"#utility.yul\":18554:18558   */\n      0x00\n        /* \"#utility.yul\":18592:18594   */\n      0x20\n        /* \"#utility.yul\":18581:18590   */\n      dup3\n        /* \"#utility.yul\":18577:18595   */\n      add\n        /* \"#utility.yul\":18569:18595   */\n      swap1\n      pop\n        /* \"#utility.yul\":18641:18650   */\n      dup2\n        /* \"#utility.yul\":18635:18639   */\n      dup2\n        /* \"#utility.yul\":18631:18651   */\n      sub\n        /* \"#utility.yul\":18627:18628   */\n      0x00\n        /* \"#utility.yul\":18616:18625   */\n      dup4\n        /* \"#utility.yul\":18612:18629   */\n      add\n        /* \"#utility.yul\":18605:18652   */\n      mstore\n        /* \"#utility.yul\":18669:18800   */\n      tag_501\n        /* \"#utility.yul\":18795:18799   */\n      dup2\n        /* \"#utility.yul\":18669:18800   */\n      tag_317\n      jump\t// in\n    tag_501:\n        /* \"#utility.yul\":18661:18800   */\n      swap1\n      pop\n        /* \"#utility.yul\":18388:18807   */\n      swap2\n      swap1\n      pop\n      jump\t// out\n        /* \"#utility.yul\":18813:18982   */\n    tag_318:\n        /* \"#utility.yul\":18953:18974   */\n      0x5573657220646f6573206e6f7420657869737400000000000000000000000000\n        /* \"#utility.yul\":18949:18950   */\n      0x00\n        /* \"#utility.yul\":18941:18947   */\n      dup3\n        /* \"#utility.yul\":18937:18951   */\n      add\n        /* \"#utility.yul\":18930:18975   */\n      mstore\n        /* \"#utility.yul\":18813:18982   */\n      pop\n      jump\t// out\n        /* \"#utility.yul\":18988:19354   */\n    tag_319:\n        /* \"#utility.yul\":19130:19133   */\n      0x00\n        /* \"#utility.yul\":19151:19218   */\n      tag_504\n        /* \"#utility.yul\":19215:19217   */\n      0x13\n        /* \"#utility.yul\":19210:19213   */\n      dup4\n        /* \"#utility.yul\":19151:19218   */\n      tag_295\n      jump\t// in\n    tag_504:\n        /* \"#utility.yul\":19144:19218   */\n      swap2\n      pop\n        /* \"#utility.yul\":19227:19320   */\n      tag_505\n        /* \"#utility.yul\":19316:19319   */\n      dup3\n        /* \"#utility.yul\":19227:19320   */\n      tag_318\n      jump\t// in\n    tag_505:\n        /* \"#utility.yul\":19345:19347   */\n      0x20\n        /* \"#utility.yul\":19340:19343   */\n      dup3\n        /* \"#utility.yul\":19336:19348   */\n      add\n        /* \"#utility.yul\":19329:19348   */\n      swap1\n      pop\n        /* \"#utility.yul\":18988:19354   */\n      swap2\n      swap1\n      pop\n      jump\t// out\n        /* \"#utility.yul\":19360:19779   */\n    tag_185:\n        /* \"#utility.yul\":19526:19530   */\n      0x00\n        /* \"#utility.yul\":19564:19566   */\n      0x20\n        /* \"#utility.yul\":19553:19562   */\n      dup3\n        /* \"#utility.yul\":19549:19567   */\n      add\n        /* \"#utility.yul\":19541:19567   */\n      swap1\n      pop\n        /* \"#utility.yul\":19613:19622   */\n      dup2\n        /* \"#utility.yul\":19607:19611   */\n      dup2\n        /* \"#utility.yul\":19603:19623   */\n      sub\n        /* \"#utility.yul\":19599:19600   */\n      0x00\n        /* \"#utility.yul\":19588:19597   */\n      dup4\n        /* \"#utility.yul\":19584:19601   */\n      add\n        /* \"#utility.yul\":19577:19624   */\n      mstore\n        /* \"#utility.yul\":19641:19772   */\n      tag_507\n        /* \"#utility.yul\":19767:19771   */\n      dup2\n        /* \"#utility.yul\":19641:19772   */\n      tag_319\n      jump\t// in\n    tag_507:\n        /* \"#utility.yul\":19633:19772   */\n      swap1\n      pop\n        /* \"#utility.yul\":19360:19779   */\n      swap2\n      swap1\n      pop\n      jump\t// out\n        /* \"#utility.yul\":19785:20007   */\n    tag_320:\n        /* \"#utility.yul\":19925:19959   */\n      0x75736572206973206e6f74206578697374732e20526567697374657220666972\n        /* \"#utility.yul\":19921:19922   */\n      0x00\n        /* \"#utility.yul\":19913:19919   */\n      dup3\n        /* \"#utility.yul\":19909:19923   */\n      add\n        /* \"#utility.yul\":19902:19960   */\n      mstore\n        /* \"#utility.yul\":19994:19999   */\n      0x73742e0000000000000000000000000000000000000000000000000000000000\n        /* \"#utility.yul\":19989:19991   */\n      0x20\n        /* \"#utility.yul\":19981:19987   */\n      dup3\n        /* \"#utility.yul\":19977:19992   */\n      add\n        /* \"#utility.yul\":19970:20000   */\n      mstore\n        /* \"#utility.yul\":19785:20007   */\n      pop\n      jump\t// out\n        /* \"#utility.yul\":20013:20379   */\n    tag_321:\n        /* \"#utility.yul\":20155:20158   */\n      0x00\n        /* \"#utility.yul\":20176:20243   */\n      tag_510\n        /* \"#utility.yul\":20240:20242   */\n      0x23\n        /* \"#utility.yul\":20235:20238   */\n      dup4\n        /* \"#utility.yul\":20176:20243   */\n      tag_295\n      jump\t// in\n    tag_510:\n        /* \"#utility.yul\":20169:20243   */\n      swap2\n      pop\n        /* \"#utility.yul\":20252:20345   */\n      tag_511\n        /* \"#utility.yul\":20341:20344   */\n      dup3\n        /* \"#utility.yul\":20252:20345   */\n      tag_320\n      jump\t// in\n    tag_511:\n        /* \"#utility.yul\":20370:20372   */\n      0x40\n        /* \"#utility.yul\":20365:20368   */\n      dup3\n        /* \"#utility.yul\":20361:20373   */\n      add\n        /* \"#utility.yul\":20354:20373   */\n      swap1\n      pop\n        /* \"#utility.yul\":20013:20379   */\n      swap2\n      swap1\n      pop\n      jump\t// out\n        /* \"#utility.yul\":20385:20804   */\n    tag_197:\n        /* \"#utility.yul\":20551:20555   */\n      0x00\n        /* \"#utility.yul\":20589:20591   */\n      0x20\n        /* \"#utility.yul\":20578:20587   */\n      dup3\n        /* \"#utility.yul\":20574:20592   */\n      add\n        /* \"#utility.yul\":20566:20592   */\n      swap1\n      pop\n        /* \"#utility.yul\":20638:20647   */\n      dup2\n        /* \"#utility.yul\":20632:20636   */\n      dup2\n        /* \"#utility.yul\":20628:20648   */\n      sub\n        /* \"#utility.yul\":20624:20625   */\n      0x00\n        /* \"#utility.yul\":20613:20622   */\n      dup4\n        /* \"#utility.yul\":20609:20626   */\n      add\n        /* \"#utility.yul\":20602:20649   */\n      mstore\n        /* \"#utility.yul\":20666:20797   */\n      tag_513\n        /* \"#utility.yul\":20792:20796   */\n      dup2\n        /* \"#utility.yul\":20666:20797   */\n      tag_321\n      jump\t// in\n    tag_513:\n        /* \"#utility.yul\":20658:20797   */\n      swap1\n      pop\n        /* \"#utility.yul\":20385:20804   */\n      swap2\n      swap1\n      pop\n      jump\t// out\n        /* \"#utility.yul\":20810:20974   */\n    tag_322:\n        /* \"#utility.yul\":20950:20966   */\n      0x696e76616c6964206d6174726978000000000000000000000000000000000000\n        /* \"#utility.yul\":20946:20947   */\n      0x00\n        /* \"#utility.yul\":20938:20944   */\n      dup3\n        /* \"#utility.yul\":20934:20948   */\n      add\n        /* \"#utility.yul\":20927:20967   */\n      mstore\n        /* \"#utility.yul\":20810:20974   */\n      pop\n      jump\t// out\n        /* \"#utility.yul\":20980:21346   */\n    tag_323:\n        /* \"#utility.yul\":21122:21125   */\n      0x00\n        /* \"#utility.yul\":21143:21210   */\n      tag_516\n        /* \"#utility.yul\":21207:21209   */\n      0x0e\n        /* \"#utility.yul\":21202:21205   */\n      dup4\n        /* \"#utility.yul\":21143:21210   */\n      tag_295\n      jump\t// in\n    tag_516:\n        /* \"#utility.yul\":21136:21210   */\n      swap2\n      pop\n        /* \"#utility.yul\":21219:21312   */\n      tag_517\n        /* \"#utility.yul\":21308:21311   */\n      dup3\n        /* \"#utility.yul\":21219:21312   */\n      tag_322\n      jump\t// in\n    tag_517:\n        /* \"#utility.yul\":21337:21339   */\n      0x20\n        /* \"#utility.yul\":21332:21335   */\n      dup3\n        /* \"#utility.yul\":21328:21340   */\n      add\n        /* \"#utility.yul\":21321:21340   */\n      swap1\n      pop\n        /* \"#utility.yul\":20980:21346   */\n      swap2\n      swap1\n      pop\n      jump\t// out\n        /* \"#utility.yul\":21352:21771   */\n    tag_200:\n        /* \"#utility.yul\":21518:21522   */\n      0x00\n        /* \"#utility.yul\":21556:21558   */\n      0x20\n        /* \"#utility.yul\":21545:21554   */\n      dup3\n        /* \"#utility.yul\":21541:21559   */\n      add\n        /* \"#utility.yul\":21533:21559   */\n      swap1\n      pop\n        /* \"#utility.yul\":21605:21614   */\n      dup2\n        /* \"#utility.yul\":21599:21603   */\n      dup2\n        /* \"#utility.yul\":21595:21615   */\n      sub\n        /* \"#utility.yul\":21591:21592   */\n      0x00\n        /* \"#utility.yul\":21580:21589   */\n      dup4\n        /* \"#utility.yul\":21576:21593   */\n      add\n        /* \"#utility.yul\":21569:21616   */\n      mstore\n        /* \"#utility.yul\":21633:21764   */\n      tag_519\n        /* \"#utility.yul\":21759:21763   */\n      dup2\n        /* \"#utility.yul\":21633:21764   */\n      tag_323\n      jump\t// in\n    tag_519:\n        /* \"#utility.yul\":21625:21764   */\n      swap1\n      pop\n        /* \"#utility.yul\":21352:21771   */\n      swap2\n      swap1\n      pop\n      jump\t// out\n        /* \"#utility.yul\":21777:21940   */\n    tag_324:\n        /* \"#utility.yul\":21917:21932   */\n      0x696e76616c696420707269636500000000000000000000000000000000000000\n        /* \"#utility.yul\":21913:21914   */\n      0x00\n        /* \"#utility.yul\":21905:21911   */\n      dup3\n        /* \"#utility.yul\":21901:21915   */\n      add\n        /* \"#utility.yul\":21894:21933   */\n      mstore\n        /* \"#utility.yul\":21777:21940   */\n      pop\n      jump\t// out\n        /* \"#utility.yul\":21946:22312   */\n    tag_325:\n        /* \"#utility.yul\":22088:22091   */\n      0x00\n        /* \"#utility.yul\":22109:22176   */\n      tag_522\n        /* \"#utility.yul\":22173:22175   */\n      0x0d\n        /* \"#utility.yul\":22168:22171   */\n      dup4\n        /* \"#utility.yul\":22109:22176   */\n      tag_295\n      jump\t// in\n    tag_522:\n        /* \"#utility.yul\":22102:22176   */\n      swap2\n      pop\n        /* \"#utility.yul\":22185:22278   */\n      tag_523\n        /* \"#utility.yul\":22274:22277   */\n      dup3\n        /* \"#utility.yul\":22185:22278   */\n      tag_324\n      jump\t// in\n    tag_523:\n        /* \"#utility.yul\":22303:22305   */\n      0x20\n        /* \"#utility.yul\":22298:22301   */\n      dup3\n        /* \"#utility.yul\":22294:22306   */\n      add\n        /* \"#utility.yul\":22287:22306   */\n      swap1\n      pop\n        /* \"#utility.yul\":21946:22312   */\n      swap2\n      swap1\n      pop\n      jump\t// out\n        /* \"#utility.yul\":22318:22737   */\n    tag_203:\n        /* \"#utility.yul\":22484:22488   */\n      0x00\n        /* \"#utility.yul\":22522:22524   */\n      0x20\n        /* \"#utility.yul\":22511:22520   */\n      dup3\n        /* \"#utility.yul\":22507:22525   */\n      add\n        /* \"#utility.yul\":22499:22525   */\n      swap1\n      pop\n        /* \"#utility.yul\":22571:22580   */\n      dup2\n        /* \"#utility.yul\":22565:22569   */\n      dup2\n        /* \"#utility.yul\":22561:22581   */\n      sub\n        /* \"#utility.yul\":22557:22558   */\n      0x00\n        /* \"#utility.yul\":22546:22555   */\n      dup4\n        /* \"#utility.yul\":22542:22559   */\n      add\n        /* \"#utility.yul\":22535:22582   */\n      mstore\n        /* \"#utility.yul\":22599:22730   */\n      tag_525\n        /* \"#utility.yul\":22725:22729   */\n      dup2\n        /* \"#utility.yul\":22599:22730   */\n      tag_325\n      jump\t// in\n    tag_525:\n        /* \"#utility.yul\":22591:22730   */\n      swap1\n      pop\n        /* \"#utility.yul\":22318:22737   */\n      swap2\n      swap1\n      pop\n      jump\t// out\n        /* \"#utility.yul\":22743:22906   */\n    tag_326:\n        /* \"#utility.yul\":22883:22898   */\n      0x696e76616c6964206c6576656c00000000000000000000000000000000000000\n        /* \"#utility.yul\":22879:22880   */\n      0x00\n        /* \"#utility.yul\":22871:22877   */\n      dup3\n        /* \"#utility.yul\":22867:22881   */\n      add\n        /* \"#utility.yul\":22860:22899   */\n      mstore\n        /* \"#utility.yul\":22743:22906   */\n      pop\n      jump\t// out\n        /* \"#utility.yul\":22912:23278   */\n    tag_327:\n        /* \"#utility.yul\":23054:23057   */\n      0x00\n        /* \"#utility.yul\":23075:23142   */\n      tag_528\n        /* \"#utility.yul\":23139:23141   */\n      0x0d\n        /* \"#utility.yul\":23134:23137   */\n      dup4\n        /* \"#utility.yul\":23075:23142   */\n      tag_295\n      jump\t// in\n    tag_528:\n        /* \"#utility.yul\":23068:23142   */\n      swap2\n      pop\n        /* \"#utility.yul\":23151:23244   */\n      tag_529\n        /* \"#utility.yul\":23240:23243   */\n      dup3\n        /* \"#utility.yul\":23151:23244   */\n      tag_326\n      jump\t// in\n    tag_529:\n        /* \"#utility.yul\":23269:23271   */\n      0x20\n        /* \"#utility.yul\":23264:23267   */\n      dup3\n        /* \"#utility.yul\":23260:23272   */\n      add\n        /* \"#utility.yul\":23253:23272   */\n      swap1\n      pop\n        /* \"#utility.yul\":22912:23278   */\n      swap2\n      swap1\n      pop\n      jump\t// out\n        /* \"#utility.yul\":23284:23703   */\n    tag_207:\n        /* \"#utility.yul\":23450:23454   */\n      0x00\n        /* \"#utility.yul\":23488:23490   */\n      0x20\n        /* \"#utility.yul\":23477:23486   */\n      dup3\n        /* \"#utility.yul\":23473:23491   */\n      add\n        /* \"#utility.yul\":23465:23491   */\n      swap1\n      pop\n        /* \"#utility.yul\":23537:23546   */\n      dup2\n        /* \"#utility.yul\":23531:23535   */\n      dup2\n        /* \"#utility.yul\":23527:23547   */\n      sub\n        /* \"#utility.yul\":23523:23524   */\n      0x00\n        /* \"#utility.yul\":23512:23521   */\n      dup4\n        /* \"#utility.yul\":23508:23525   */\n      add\n        /* \"#utility.yul\":23501:23548   */\n      mstore\n        /* \"#utility.yul\":23565:23696   */\n      tag_531\n        /* \"#utility.yul\":23691:23695   */\n      dup2\n        /* \"#utility.yul\":23565:23696   */\n      tag_327\n      jump\t// in\n    tag_531:\n        /* \"#utility.yul\":23557:23696   */\n      swap1\n      pop\n        /* \"#utility.yul\":23284:23703   */\n      swap2\n      swap1\n      pop\n      jump\t// out\n        /* \"#utility.yul\":23709:23882   */\n    tag_328:\n        /* \"#utility.yul\":23849:23874   */\n      0x6c6576656c20616c726561647920616374697661746564000000000000000000\n        /* \"#utility.yul\":23845:23846   */\n      0x00\n        /* \"#utility.yul\":23837:23843   */\n      dup3\n        /* \"#utility.yul\":23833:23847   */\n      add\n        /* \"#utility.yul\":23826:23875   */\n      mstore\n        /* \"#utility.yul\":23709:23882   */\n      pop\n      jump\t// out\n        /* \"#utility.yul\":23888:24254   */\n    tag_329:\n        /* \"#utility.yul\":24030:24033   */\n      0x00\n        /* \"#utility.yul\":24051:24118   */\n      tag_534\n        /* \"#utility.yul\":24115:24117   */\n      0x17\n        /* \"#utility.yul\":24110:24113   */\n      dup4\n        /* \"#utility.yul\":24051:24118   */\n      tag_295\n      jump\t// in\n    tag_534:\n        /* \"#utility.yul\":24044:24118   */\n      swap2\n      pop\n        /* \"#utility.yul\":24127:24220   */\n      tag_535\n        /* \"#utility.yul\":24216:24219   */\n      dup3\n        /* \"#utility.yul\":24127:24220   */\n      tag_328\n      jump\t// in\n    tag_535:\n        /* \"#utility.yul\":24245:24247   */\n      0x20\n        /* \"#utility.yul\":24240:24243   */\n      dup3\n        /* \"#utility.yul\":24236:24248   */\n      add\n        /* \"#utility.yul\":24229:24248   */\n      swap1\n      pop\n        /* \"#utility.yul\":23888:24254   */\n      swap2\n      swap1\n      pop\n      jump\t// out\n        /* \"#utility.yul\":24260:24679   */\n    tag_210:\n        /* \"#utility.yul\":24426:24430   */\n      0x00\n        /* \"#utility.yul\":24464:24466   */\n      0x20\n        /* \"#utility.yul\":24453:24462   */\n      dup3\n        /* \"#utility.yul\":24449:24467   */\n      add\n        /* \"#utility.yul\":24441:24467   */\n      swap1\n      pop\n        /* \"#utility.yul\":24513:24522   */\n      dup2\n        /* \"#utility.yul\":24507:24511   */\n      dup2\n        /* \"#utility.yul\":24503:24523   */\n      sub\n        /* \"#utility.yul\":24499:24500   */\n      0x00\n        /* \"#utility.yul\":24488:24497   */\n      dup4\n        /* \"#utility.yul\":24484:24501   */\n      add\n        /* \"#utility.yul\":24477:24524   */\n      mstore\n        /* \"#utility.yul\":24541:24672   */\n      tag_537\n        /* \"#utility.yul\":24667:24671   */\n      dup2\n        /* \"#utility.yul\":24541:24672   */\n      tag_329\n      jump\t// in\n    tag_537:\n        /* \"#utility.yul\":24533:24672   */\n      swap1\n      pop\n        /* \"#utility.yul\":24260:24679   */\n      swap2\n      swap1\n      pop\n      jump\t// out\n        /* \"#utility.yul\":24685:24876   */\n    tag_212:\n        /* \"#utility.yul\":24723:24727   */\n      0x00\n        /* \"#utility.yul\":24743:24761   */\n      tag_539\n        /* \"#utility.yul\":24759:24760   */\n      dup3\n        /* \"#utility.yul\":24743:24761   */\n      tag_280\n      jump\t// in\n    tag_539:\n        /* \"#utility.yul\":24738:24761   */\n      swap2\n      pop\n        /* \"#utility.yul\":24775:24793   */\n      tag_540\n        /* \"#utility.yul\":24791:24792   */\n      dup4\n        /* \"#utility.yul\":24775:24793   */\n      tag_280\n      jump\t// in\n    tag_540:\n        /* \"#utility.yul\":24770:24793   */\n      swap3\n      pop\n        /* \"#utility.yul\":24817:24818   */\n      dup3\n        /* \"#utility.yul\":24814:24815   */\n      dup3\n        /* \"#utility.yul\":24810:24819   */\n      sub\n        /* \"#utility.yul\":24802:24819   */\n      swap1\n      pop\n        /* \"#utility.yul\":24841:24845   */\n      0xff\n        /* \"#utility.yul\":24835:24839   */\n      dup2\n        /* \"#utility.yul\":24832:24846   */\n      gt\n        /* \"#utility.yul\":24829:24869   */\n      iszero\n      tag_541\n      jumpi\n        /* \"#utility.yul\":24849:24867   */\n      tag_542\n      tag_304\n      jump\t// in\n    tag_542:\n        /* \"#utility.yul\":24829:24869   */\n    tag_541:\n        /* \"#utility.yul\":24685:24876   */\n      swap3\n      swap2\n      pop\n      pop\n      jump\t// out\n        /* \"#utility.yul\":24882:24967   */\n    tag_330:\n        /* \"#utility.yul\":24927:24934   */\n      0x00\n        /* \"#utility.yul\":24956:24961   */\n      dup2\n        /* \"#utility.yul\":24945:24961   */\n      swap1\n      pop\n        /* \"#utility.yul\":24882:24967   */\n      swap2\n      swap1\n      pop\n      jump\t// out\n        /* \"#utility.yul\":24973:25033   */\n    tag_331:\n        /* \"#utility.yul\":25001:25004   */\n      0x00\n        /* \"#utility.yul\":25022:25027   */\n      dup2\n        /* \"#utility.yul\":25015:25027   */\n      swap1\n      pop\n        /* \"#utility.yul\":24973:25033   */\n      swap2\n      swap1\n      pop\n      jump\t// out\n        /* \"#utility.yul\":25039:25193   */\n    tag_332:\n        /* \"#utility.yul\":25095:25104   */\n      0x00\n        /* \"#utility.yul\":25128:25187   */\n      tag_546\n        /* \"#utility.yul\":25144:25186   */\n      tag_547\n        /* \"#utility.yul\":25153:25185   */\n      tag_548\n        /* \"#utility.yul\":25179:25184   */\n      dup5\n        /* \"#utility.yul\":25153:25185   */\n      tag_330\n      jump\t// in\n    tag_548:\n        /* \"#utility.yul\":25144:25186   */\n      tag_331\n      jump\t// in\n    tag_547:\n        /* \"#utility.yul\":25128:25187   */\n      tag_280\n      jump\t// in\n    tag_546:\n        /* \"#utility.yul\":25115:25187   */\n      swap1\n      pop\n        /* \"#utility.yul\":25039:25193   */\n      swap2\n      swap1\n      pop\n      jump\t// out\n        /* \"#utility.yul\":25199:25342   */\n    tag_333:\n        /* \"#utility.yul\":25292:25335   */\n      tag_550\n        /* \"#utility.yul\":25329:25334   */\n      dup2\n        /* \"#utility.yul\":25292:25335   */\n      tag_332\n      jump\t// in\n    tag_550:\n        /* \"#utility.yul\":25287:25290   */\n      dup3\n        /* \"#utility.yul\":25280:25336   */\n      mstore\n        /* \"#utility.yul\":25199:25342   */\n      pop\n      pop\n      jump\t// out\n        /* \"#utility.yul\":25348:25684   */\n    tag_218:\n        /* \"#utility.yul\":25471:25475   */\n      0x00\n        /* \"#utility.yul\":25509:25511   */\n      0x40\n        /* \"#utility.yul\":25498:25507   */\n      dup3\n        /* \"#utility.yul\":25494:25512   */\n      add\n        /* \"#utility.yul\":25486:25512   */\n      swap1\n      pop\n        /* \"#utility.yul\":25522:25599   */\n      tag_552\n        /* \"#utility.yul\":25596:25597   */\n      0x00\n        /* \"#utility.yul\":25585:25594   */\n      dup4\n        /* \"#utility.yul\":25581:25598   */\n      add\n        /* \"#utility.yul\":25572:25578   */\n      dup6\n        /* \"#utility.yul\":25522:25599   */\n      tag_333\n      jump\t// in\n    tag_552:\n        /* \"#utility.yul\":25609:25677   */\n      tag_553\n        /* \"#utility.yul\":25673:25675   */\n      0x20\n        /* \"#utility.yul\":25662:25671   */\n      dup4\n        /* \"#utility.yul\":25658:25676   */\n      add\n        /* \"#utility.yul\":25649:25655   */\n      dup5\n        /* \"#utility.yul\":25609:25677   */\n      tag_285\n      jump\t// in\n    tag_553:\n        /* \"#utility.yul\":25348:25684   */\n      swap4\n      swap3\n      pop\n      pop\n      pop\n      jump\t// out\n        /* \"#utility.yul\":25690:26128   */\n    tag_227:\n        /* \"#utility.yul\":25837:25841   */\n      0x00\n        /* \"#utility.yul\":25875:25877   */\n      0x60\n        /* \"#utility.yul\":25864:25873   */\n      dup3\n        /* \"#utility.yul\":25860:25878   */\n      add\n        /* \"#utility.yul\":25852:25878   */\n      swap1\n      pop\n        /* \"#utility.yul\":25888:25965   */\n      tag_555\n        /* \"#utility.yul\":25962:25963   */\n      0x00\n        /* \"#utility.yul\":25951:25960   */\n      dup4\n        /* \"#utility.yul\":25947:25964   */\n      add\n        /* \"#utility.yul\":25938:25944   */\n      dup7\n        /* \"#utility.yul\":25888:25965   */\n      tag_333\n      jump\t// in\n    tag_555:\n        /* \"#utility.yul\":25975:26043   */\n      tag_556\n        /* \"#utility.yul\":26039:26041   */\n      0x20\n        /* \"#utility.yul\":26028:26037   */\n      dup4\n        /* \"#utility.yul\":26024:26042   */\n      add\n        /* \"#utility.yul\":26015:26021   */\n      dup6\n        /* \"#utility.yul\":25975:26043   */\n      tag_285\n      jump\t// in\n    tag_556:\n        /* \"#utility.yul\":26053:26121   */\n      tag_557\n        /* \"#utility.yul\":26117:26119   */\n      0x40\n        /* \"#utility.yul\":26106:26115   */\n      dup4\n        /* \"#utility.yul\":26102:26120   */\n      add\n        /* \"#utility.yul\":26093:26099   */\n      dup5\n        /* \"#utility.yul\":26053:26121   */\n      tag_285\n      jump\t// in\n    tag_557:\n        /* \"#utility.yul\":25690:26128   */\n      swap5\n      swap4\n      pop\n      pop\n      pop\n      pop\n      jump\t// out\n        /* \"#utility.yul\":26134:26219   */\n    tag_334:\n        /* \"#utility.yul\":26179:26186   */\n      0x00\n        /* \"#utility.yul\":26208:26213   */\n      dup2\n        /* \"#utility.yul\":26197:26213   */\n      swap1\n      pop\n        /* \"#utility.yul\":26134:26219   */\n      swap2\n      swap1\n      pop\n      jump\t// out\n        /* \"#utility.yul\":26225:26379   */\n    tag_335:\n        /* \"#utility.yul\":26281:26290   */\n      0x00\n        /* \"#utility.yul\":26314:26373   */\n      tag_560\n        /* \"#utility.yul\":26330:26372   */\n      tag_561\n        /* \"#utility.yul\":26339:26371   */\n      tag_562\n        /* \"#utility.yul\":26365:26370   */\n      dup5\n        /* \"#utility.yul\":26339:26371   */\n      tag_334\n      jump\t// in\n    tag_562:\n        /* \"#utility.yul\":26330:26372   */\n      tag_331\n      jump\t// in\n    tag_561:\n        /* \"#utility.yul\":26314:26373   */\n      tag_280\n      jump\t// in\n    tag_560:\n        /* \"#utility.yul\":26301:26373   */\n      swap1\n      pop\n        /* \"#utility.yul\":26225:26379   */\n      swap2\n      swap1\n      pop\n      jump\t// out\n        /* \"#utility.yul\":26385:26528   */\n    tag_336:\n        /* \"#utility.yul\":26478:26521   */\n      tag_564\n        /* \"#utility.yul\":26515:26520   */\n      dup2\n        /* \"#utility.yul\":26478:26521   */\n      tag_335\n      jump\t// in\n    tag_564:\n        /* \"#utility.yul\":26473:26476   */\n      dup3\n        /* \"#utility.yul\":26466:26522   */\n      mstore\n        /* \"#utility.yul\":26385:26528   */\n      pop\n      pop\n      jump\t// out\n        /* \"#utility.yul\":26534:26992   */\n    tag_231:\n        /* \"#utility.yul\":26691:26695   */\n      0x00\n        /* \"#utility.yul\":26729:26731   */\n      0x60\n        /* \"#utility.yul\":26718:26727   */\n      dup3\n        /* \"#utility.yul\":26714:26732   */\n      add\n        /* \"#utility.yul\":26706:26732   */\n      swap1\n      pop\n        /* \"#utility.yul\":26742:26819   */\n      tag_566\n        /* \"#utility.yul\":26816:26817   */\n      0x00\n        /* \"#utility.yul\":26805:26814   */\n      dup4\n        /* \"#utility.yul\":26801:26818   */\n      add\n        /* \"#utility.yul\":26792:26798   */\n      dup7\n        /* \"#utility.yul\":26742:26819   */\n      tag_333\n      jump\t// in\n    tag_566:\n        /* \"#utility.yul\":26829:26897   */\n      tag_567\n        /* \"#utility.yul\":26893:26895   */\n      0x20\n        /* \"#utility.yul\":26882:26891   */\n      dup4\n        /* \"#utility.yul\":26878:26896   */\n      add\n        /* \"#utility.yul\":26869:26875   */\n      dup6\n        /* \"#utility.yul\":26829:26897   */\n      tag_285\n      jump\t// in\n    tag_567:\n        /* \"#utility.yul\":26907:26985   */\n      tag_568\n        /* \"#utility.yul\":26981:26983   */\n      0x40\n        /* \"#utility.yul\":26970:26979   */\n      dup4\n        /* \"#utility.yul\":26966:26984   */\n      add\n        /* \"#utility.yul\":26957:26963   */\n      dup5\n        /* \"#utility.yul\":26907:26985   */\n      tag_336\n      jump\t// in\n    tag_568:\n        /* \"#utility.yul\":26534:26992   */\n      swap5\n      swap4\n      pop\n      pop\n      pop\n      pop\n      jump\t// out\n        /* \"#utility.yul\":26998:27186   */\n    tag_235:\n        /* \"#utility.yul\":27036:27039   */\n      0x00\n        /* \"#utility.yul\":27055:27073   */\n      tag_570\n        /* \"#utility.yul\":27071:27072   */\n      dup3\n        /* \"#utility.yul\":27055:27073   */\n      tag_280\n      jump\t// in\n    tag_570:\n        /* \"#utility.yul\":27050:27073   */\n      swap2\n      pop\n        /* \"#utility.yul\":27087:27105   */\n      tag_571\n        /* \"#utility.yul\":27103:27104   */\n      dup4\n        /* \"#utility.yul\":27087:27105   */\n      tag_280\n      jump\t// in\n    tag_571:\n        /* \"#utility.yul\":27082:27105   */\n      swap3\n      pop\n        /* \"#utility.yul\":27128:27129   */\n      dup3\n        /* \"#utility.yul\":27125:27126   */\n      dup3\n        /* \"#utility.yul\":27121:27130   */\n      add\n        /* \"#utility.yul\":27114:27130   */\n      swap1\n      pop\n        /* \"#utility.yul\":27151:27155   */\n      0xff\n        /* \"#utility.yul\":27146:27149   */\n      dup2\n        /* \"#utility.yul\":27143:27156   */\n      gt\n        /* \"#utility.yul\":27140:27179   */\n      iszero\n      tag_572\n      jumpi\n        /* \"#utility.yul\":27159:27177   */\n      tag_573\n      tag_304\n      jump\t// in\n    tag_573:\n        /* \"#utility.yul\":27140:27179   */\n    tag_572:\n        /* \"#utility.yul\":26998:27186   */\n      swap3\n      swap2\n      pop\n      pop\n      jump\t// out\n        /* \"#utility.yul\":27192:27383   */\n    tag_252:\n        /* \"#utility.yul\":27232:27235   */\n      0x00\n        /* \"#utility.yul\":27251:27271   */\n      tag_575\n        /* \"#utility.yul\":27269:27270   */\n      dup3\n        /* \"#utility.yul\":27251:27271   */\n      tag_273\n      jump\t// in\n    tag_575:\n        /* \"#utility.yul\":27246:27271   */\n      swap2\n      pop\n        /* \"#utility.yul\":27285:27305   */\n      tag_576\n        /* \"#utility.yul\":27303:27304   */\n      dup4\n        /* \"#utility.yul\":27285:27305   */\n      tag_273\n      jump\t// in\n    tag_576:\n        /* \"#utility.yul\":27280:27305   */\n      swap3\n      pop\n        /* \"#utility.yul\":27328:27329   */\n      dup3\n        /* \"#utility.yul\":27325:27326   */\n      dup3\n        /* \"#utility.yul\":27321:27330   */\n      add\n        /* \"#utility.yul\":27314:27330   */\n      swap1\n      pop\n        /* \"#utility.yul\":27349:27352   */\n      dup1\n        /* \"#utility.yul\":27346:27347   */\n      dup3\n        /* \"#utility.yul\":27343:27353   */\n      gt\n        /* \"#utility.yul\":27340:27376   */\n      iszero\n      tag_577\n      jumpi\n        /* \"#utility.yul\":27356:27374   */\n      tag_578\n      tag_304\n      jump\t// in\n    tag_578:\n        /* \"#utility.yul\":27340:27376   */\n    tag_577:\n        /* \"#utility.yul\":27192:27383   */\n      swap3\n      swap2\n      pop\n      pop\n      jump\t// out\n        /* \"#utility.yul\":27389:27815   */\n    tag_255:\n        /* \"#utility.yul\":27530:27534   */\n      0x00\n        /* \"#utility.yul\":27568:27570   */\n      0x60\n        /* \"#utility.yul\":27557:27566   */\n      dup3\n        /* \"#utility.yul\":27553:27571   */\n      add\n        /* \"#utility.yul\":27545:27571   */\n      swap1\n      pop\n        /* \"#utility.yul\":27581:27648   */\n      tag_580\n        /* \"#utility.yul\":27645:27646   */\n      0x00\n        /* \"#utility.yul\":27634:27643   */\n      dup4\n        /* \"#utility.yul\":27630:27647   */\n      add\n        /* \"#utility.yul\":27621:27627   */\n      dup7\n        /* \"#utility.yul\":27581:27648   */\n      tag_285\n      jump\t// in\n    tag_580:\n        /* \"#utility.yul\":27658:27726   */\n      tag_581\n        /* \"#utility.yul\":27722:27724   */\n      0x20\n        /* \"#utility.yul\":27711:27720   */\n      dup4\n        /* \"#utility.yul\":27707:27725   */\n      add\n        /* \"#utility.yul\":27698:27704   */\n      dup6\n        /* \"#utility.yul\":27658:27726   */\n      tag_285\n      jump\t// in\n    tag_581:\n        /* \"#utility.yul\":27736:27808   */\n      tag_582\n        /* \"#utility.yul\":27804:27806   */\n      0x40\n        /* \"#utility.yul\":27793:27802   */\n      dup4\n        /* \"#utility.yul\":27789:27807   */\n      add\n        /* \"#utility.yul\":27780:27786   */\n      dup5\n        /* \"#utility.yul\":27736:27808   */\n      tag_287\n      jump\t// in\n    tag_582:\n        /* \"#utility.yul\":27389:27815   */\n      swap5\n      swap4\n      pop\n      pop\n      pop\n      pop\n      jump\t// out\n        /* \"#utility.yul\":27821:28137   */\n    tag_258:\n        /* \"#utility.yul\":27934:27938   */\n      0x00\n        /* \"#utility.yul\":27972:27974   */\n      0x40\n        /* \"#utility.yul\":27961:27970   */\n      dup3\n        /* \"#utility.yul\":27957:27975   */\n      add\n        /* \"#utility.yul\":27949:27975   */\n      swap1\n      pop\n        /* \"#utility.yul\":27985:28052   */\n      tag_584\n        /* \"#utility.yul\":28049:28050   */\n      0x00\n        /* \"#utility.yul\":28038:28047   */\n      dup4\n        /* \"#utility.yul\":28034:28051   */\n      add\n        /* \"#utility.yul\":28025:28031   */\n      dup6\n        /* \"#utility.yul\":27985:28052   */\n      tag_285\n      jump\t// in\n    tag_584:\n        /* \"#utility.yul\":28062:28130   */\n      tag_585\n        /* \"#utility.yul\":28126:28128   */\n      0x20\n        /* \"#utility.yul\":28115:28124   */\n      dup4\n        /* \"#utility.yul\":28111:28129   */\n      add\n        /* \"#utility.yul\":28102:28108   */\n      dup5\n        /* \"#utility.yul\":28062:28130   */\n      tag_285\n      jump\t// in\n    tag_585:\n        /* \"#utility.yul\":27821:28137   */\n      swap4\n      swap3\n      pop\n      pop\n      pop\n      jump\t// out\n\n    auxdata: 0xa26469706673582212200d8a54198ff8f39e15321869a4cd43e179def7a06f6de7c7fce63e7c8dca15c264736f6c634300081e0033\n}\n",
				"bytecode": {
					"linkReferences": {},
					"object": "60a06040526002600355348015610014575f5ffd5b5060405161366c38038061366c833981810160405281019061003691906103aa565b5f73ffffffffffffffffffffffffffffffffffffffff168173ffffffffffffffffffffffffffffffffffffffff16036100a4576040517f08c379a000000000000000000000000000000000000000000000000000000000815260040161009b9061042f565b60405180910390fd5b6658d15e1762800060045f600160ff1681526020019081526020015f20819055505f600290505b600c60ff168160ff161161013757600260045f6001846100eb9190610486565b60ff1660ff1681526020019081526020015f205461010991906104c3565b60045f8360ff1660ff1681526020019081526020015f2081905550808061012f90610504565b9150506100cb565b508073ffffffffffffffffffffffffffffffffffffffff1660808173ffffffffffffffffffffffffffffffffffffffff16815250505f5f5f8373ffffffffffffffffffffffffffffffffffffffff1673ffffffffffffffffffffffffffffffffffffffff1681526020019081526020015f2090506001815f01819055505f816001015f6101000a81548173ffffffffffffffffffffffffffffffffffffffff021916908373ffffffffffffffffffffffffffffffffffffffff1602179055505f81600201819055505f81600301819055505f81600401819055508160015f600181526020019081526020015f205f6101000a81548173ffffffffffffffffffffffffffffffffffffffff021916908373ffffffffffffffffffffffffffffffffffffffff1602179055508160025f600181526020019081526020015f205f6101000a81548173ffffffffffffffffffffffffffffffffffffffff021916908373ffffffffffffffffffffffffffffffffffffffff1602179055505f600190505b600c60ff168160ff16116103445760015f5f8573ffffffffffffffffffffffffffffffffffffffff1673ffffffffffffffffffffffffffffffffffffffff1681526020019081526020015f206005015f8360ff1660ff1681526020019081526020015f205f6101000a81548160ff021916908315150217905550808061033c90610504565b9150506102b7565b50505061052c565b5f5ffd5b5f73ffffffffffffffffffffffffffffffffffffffff82169050919050565b5f61037982610350565b9050919050565b6103898161036f565b8114610393575f5ffd5b50565b5f815190506103a481610380565b92915050565b5f602082840312156103bf576103be61034c565b5b5f6103cc84828501610396565b91505092915050565b5f82825260208201905092915050565b7f496e76616c6964206f776e6572206164647265737300000000000000000000005f82015250565b5f6104196015836103d5565b9150610424826103e5565b602082019050919050565b5f6020820190508181035f8301526104468161040d565b9050919050565b5f60ff82169050919050565b7f4e487b71000000000000000000000000000000000000000000000000000000005f52601160045260245ffd5b5f6104908261044d565b915061049b8361044d565b9250828203905060ff8111156104b4576104b3610459565b5b92915050565b5f819050919050565b5f6104cd826104ba565b91506104d8836104ba565b92508282026104e6816104ba565b915082820484148315176104fd576104fc610459565b5b5092915050565b5f61050e8261044d565b915060ff820361052157610520610459565b5b600182019050919050565b6080516130fe61056e5f395f818161010c0152818161019d0152818161122001528181611c5001528181611eec01528181611f180152611fd001526130fe5ff3fe608060405260043610610101575f3560e01c8063509222cd116100945780638da5cb5b116100635780638da5cb5b14610407578063a87430ba14610431578063be389d5714610471578063ecabdf791461048d578063fa45323d146104c957610132565b8063509222cd146103475780636f9fb98a14610383578063797eee24146103ad57806383ba31b2146103c957610132565b8063348d4487116100d0578063348d44871461028e5780633ccfd60b146102b85780634635fd68146102ce578063477348921461030a57610132565b80630562b9f7146101c457806307279e2a146101ec57806329c70400146102285780632a2d0c471461025257610132565b3661013257610130337f0000000000000000000000000000000000000000000000000000000000000000610505565b005b60145f36905003610197576101923361018d5f368080601f0160208091040260200160405190810160405280939291908181526020018383808284375f81840152601f19601f820116905080830192505050505050506109de565b610505565b6101c2565b6101c1337f0000000000000000000000000000000000000000000000000000000000000000610505565b5b005b3480156101cf575f5ffd5b506101ea60048036038101906101e591906123ec565b6109eb565b005b3480156101f7575f5ffd5b50610212600480360381019061020d91906124a7565b610c46565b60405161021f91906124ff565b60405180910390f35b348015610233575f5ffd5b5061023c610cb0565b6040516102499190612527565b60405180910390f35b34801561025d575f5ffd5b50610278600480360381019061027391906123ec565b610cb5565b604051610285919061254f565b60405180910390f35b348015610299575f5ffd5b506102a2610ce5565b6040516102af9190612577565b60405180910390f35b3480156102c3575f5ffd5b506102cc610ceb565b005b3480156102d9575f5ffd5b506102f460048036038101906102ef91906123ec565b610ef6565b604051610301919061254f565b60405180910390f35b348015610315575f5ffd5b50610330600480360381019061032b9190612590565b610f26565b60405161033e9291906125bb565b60405180910390f35b348015610352575f5ffd5b5061036d60048036038101906103689190612590565b610ff9565b60405161037a91906124ff565b60405180910390f35b34801561038e575f5ffd5b50610397611043565b6040516103a49190612577565b60405180910390f35b6103c760048036038101906103c29190612590565b61104a565b005b3480156103d4575f5ffd5b506103ef60048036038101906103ea91906124a7565b611057565b6040516103fe93929190612699565b60405180910390f35b348015610412575f5ffd5b5061041b61121e565b604051610428919061254f565b60405180910390f35b34801561043c575f5ffd5b5061045760048036038101906104529190612590565b611242565b6040516104689594939291906126d5565b60405180910390f35b61048b60048036038101906104869190612726565b611292565b005b348015610498575f5ffd5b506104b360048036038101906104ae9190612764565b6116e8565b6040516104c09190612577565b60405180910390f35b3480156104d4575f5ffd5b506104ef60048036038101906104ea91906124a7565b6116fd565b6040516104fc919061254f565b60405180910390f35b66b1a2bc2ec50000341461054e576040517f08c379a0000000000000000000000000000000000000000000000000000000008152600401610545906127e9565b60405180910390fd5b61055782610ff9565b15610597576040517f08c379a000000000000000000000000000000000000000000000000000000000815260040161058e90612851565b60405180910390fd5b6105a081610ff9565b6105df576040517f08c379a00000000000000000000000000000000000000000000000000000000081526004016105d6906128b9565b60405180910390fd5b5f823b90505f8163ffffffff161461062c576040517f08c379a000000000000000000000000000000000000000000000000000000000815260040161062390612921565b60405180910390fd5b5f5f5f8573ffffffffffffffffffffffffffffffffffffffff1673ffffffffffffffffffffffffffffffffffffffff1681526020019081526020015f209050600354815f018190555082816001015f6101000a81548173ffffffffffffffffffffffffffffffffffffffff021916908373ffffffffffffffffffffffffffffffffffffffff1602179055505f81600201819055505f81600301819055505f81600401819055508360015f60035481526020019081526020015f205f6101000a81548173ffffffffffffffffffffffffffffffffffffffff021916908373ffffffffffffffffffffffffffffffffffffffff1602179055508360025f60035481526020019081526020015f205f6101000a81548173ffffffffffffffffffffffffffffffffffffffff021916908373ffffffffffffffffffffffffffffffffffffffff16021790555060015f5f8673ffffffffffffffffffffffffffffffffffffffff1673ffffffffffffffffffffffffffffffffffffffff1681526020019081526020015f206005015f600160ff1681526020019081526020015f205f6101000a81548160ff02191690831515021790555060035f8154809291906107f09061296c565b91905055505f5f8473ffffffffffffffffffffffffffffffffffffffff1673ffffffffffffffffffffffffffffffffffffffff1681526020019081526020015f206002015f8154809291906108449061296c565b91905055505f6108558560016116fd565b9050805f5f8773ffffffffffffffffffffffffffffffffffffffff1673ffffffffffffffffffffffffffffffffffffffff1681526020019081526020015f206006015f600160ff1681526020019081526020015f205f015f6101000a81548173ffffffffffffffffffffffffffffffffffffffff021916908373ffffffffffffffffffffffffffffffffffffffff1602179055506108f58582600161189d565b5f5f8673ffffffffffffffffffffffffffffffffffffffff1673ffffffffffffffffffffffffffffffffffffffff1681526020019081526020015f205f01548473ffffffffffffffffffffffffffffffffffffffff168673ffffffffffffffffffffffffffffffffffffffff167f309bb360e8b69c23937ccc5fb01f9aeeead1c95a99604e175113ff82f2b1723a5f5f8973ffffffffffffffffffffffffffffffffffffffff1673ffffffffffffffffffffffffffffffffffffffff1681526020019081526020015f205f01546040516109cf9190612577565b60405180910390a45050505050565b5f60148201519050919050565b6109f433610ff9565b610a33576040517f08c379a0000000000000000000000000000000000000000000000000000000008152600401610a2a906129fd565b60405180910390fd5b5f8111610a75576040517f08c379a0000000000000000000000000000000000000000000000000000000008152600401610a6c90612a65565b60405180910390fd5b805f5f3373ffffffffffffffffffffffffffffffffffffffff1673ffffffffffffffffffffffffffffffffffffffff1681526020019081526020015f20600401541015610af7576040517f08c379a0000000000000000000000000000000000000000000000000000000008152600401610aee90612acd565b60405180910390fd5b805f5f3373ffffffffffffffffffffffffffffffffffffffff1673ffffffffffffffffffffffffffffffffffffffff1681526020019081526020015f206004015f828254610b459190612aeb565b925050819055503373ffffffffffffffffffffffffffffffffffffffff167f7fcf532c15f0a6db0bd6d0e038bea71d30d808c7d98cb3bf7268a95bf5081b6582604051610b929190612577565b60405180910390a25f3373ffffffffffffffffffffffffffffffffffffffff1682604051610bbf90612b4b565b5f6040518083038185875af1925050503d805f8114610bf9576040519150601f19603f3d011682016040523d82523d5f602084013e610bfe565b606091505b5050905080610c42576040517f08c379a0000000000000000000000000000000000000000000000000000000008152600401610c3990612ba9565b60405180910390fd5b5050565b5f5f5f8473ffffffffffffffffffffffffffffffffffffffff1673ffffffffffffffffffffffffffffffffffffffff1681526020019081526020015f206005015f8360ff1660ff1681526020019081526020015f205f9054906101000a900460ff16905092915050565b600c81565b6001602052805f5260405f205f915054906101000a900473ffffffffffffffffffffffffffffffffffffffff1681565b60035481565b610cf433610ff9565b610d33576040517f08c379a0000000000000000000000000000000000000000000000000000000008152600401610d2a906129fd565b60405180910390fd5b5f5f5f3373ffffffffffffffffffffffffffffffffffffffff1673ffffffffffffffffffffffffffffffffffffffff1681526020019081526020015f206004015490505f8111610db8576040517f08c379a0000000000000000000000000000000000000000000000000000000008152600401610daf90612c11565b60405180910390fd5b5f5f5f3373ffffffffffffffffffffffffffffffffffffffff1673ffffffffffffffffffffffffffffffffffffffff1681526020019081526020015f20600401819055503373ffffffffffffffffffffffffffffffffffffffff167f7fcf532c15f0a6db0bd6d0e038bea71d30d808c7d98cb3bf7268a95bf5081b6582604051610e429190612577565b60405180910390a25f3373ffffffffffffffffffffffffffffffffffffffff1682604051610e6f90612b4b565b5f6040518083038185875af1925050503d805f8114610ea9576040519150601f19603f3d011682016040523d82523d5f602084013e610eae565b606091505b5050905080610ef2576040517f08c379a0000000000000000000000000000000000000000000000000000000008152600401610ee990612ba9565b60405180910390fd5b5050565b6002602052805f5260405f205f915054906101000a900473ffffffffffffffffffffffffffffffffffffffff1681565b5f5f610f3183610ff9565b610f70576040517f08c379a0000000000000000000000000000000000000000000000000000000008152600401610f6790612c79565b60405180910390fd5b5f5f8473ffffffffffffffffffffffffffffffffffffffff1673ffffffffffffffffffffffffffffffffffffffff1681526020019081526020015f20600301545f5f8573ffffffffffffffffffffffffffffffffffffffff1673ffffffffffffffffffffffffffffffffffffffff1681526020019081526020015f206004015491509150915091565b5f5f5f5f8473ffffffffffffffffffffffffffffffffffffffff1673ffffffffffffffffffffffffffffffffffffffff1681526020019081526020015f205f015414159050919050565b5f47905090565b6110543382610505565b50565b5f60605f5f5f8673ffffffffffffffffffffffffffffffffffffffff1673ffffffffffffffffffffffffffffffffffffffff1681526020019081526020015f206006015f8560ff1660ff1681526020019081526020015f205f015f9054906101000a900473ffffffffffffffffffffffffffffffffffffffff165f5f8773ffffffffffffffffffffffffffffffffffffffff1673ffffffffffffffffffffffffffffffffffffffff1681526020019081526020015f206006015f8660ff1660ff1681526020019081526020015f206001015f5f8873ffffffffffffffffffffffffffffffffffffffff1673ffffffffffffffffffffffffffffffffffffffff1681526020019081526020015f206006015f8760ff1660ff1681526020019081526020015f206002015f9054906101000a900460ff168180548060200260200160405190810160405280929190818152602001828054801561120a57602002820191905f5260205f20905b815f9054906101000a900473ffffffffffffffffffffffffffffffffffffffff1673ffffffffffffffffffffffffffffffffffffffff16815260200190600101908083116111c1575b505050505091509250925092509250925092565b7f000000000000000000000000000000000000000000000000000000000000000081565b5f602052805f5260405f205f91509050805f015490806001015f9054906101000a900473ffffffffffffffffffffffffffffffffffffffff16908060020154908060030154908060040154905085565b61129b33610ff9565b6112da576040517f08c379a00000000000000000000000000000000000000000000000000000000081526004016112d190612d07565b60405180910390fd5b60018260ff1614611320576040517f08c379a000000000000000000000000000000000000000000000000000000000815260040161131790612d6f565b60405180910390fd5b60045f8260ff1660ff1681526020019081526020015f20543414611379576040517f08c379a000000000000000000000000000000000000000000000000000000000815260040161137090612dd7565b60405180910390fd5b60018160ff161180156113935750600c60ff168160ff1611155b6113d2576040517f08c379a00000000000000000000000000000000000000000000000000000000081526004016113c990612e3f565b60405180910390fd5b5f5f3373ffffffffffffffffffffffffffffffffffffffff1673ffffffffffffffffffffffffffffffffffffffff1681526020019081526020015f206005015f8260ff1660ff1681526020019081526020015f205f9054906101000a900460ff1615611473576040517f08c379a000000000000000000000000000000000000000000000000000000000815260040161146a90612ea7565b60405180910390fd5b5f5f3373ffffffffffffffffffffffffffffffffffffffff1673ffffffffffffffffffffffffffffffffffffffff1681526020019081526020015f206006015f6001836114c09190612ec5565b60ff1660ff1681526020019081526020015f206002015f9054906101000a900460ff1615611563575f5f5f3373ffffffffffffffffffffffffffffffffffffffff1673ffffffffffffffffffffffffffffffffffffffff1681526020019081526020015f206006015f6001846115369190612ec5565b60ff1660ff1681526020019081526020015f206002015f6101000a81548160ff0219169083151502179055505b5f61156e33836116fd565b9050805f5f3373ffffffffffffffffffffffffffffffffffffffff1673ffffffffffffffffffffffffffffffffffffffff1681526020019081526020015f206006015f8460ff1660ff1681526020019081526020015f205f015f6101000a81548173ffffffffffffffffffffffffffffffffffffffff021916908373ffffffffffffffffffffffffffffffffffffffff16021790555060015f5f3373ffffffffffffffffffffffffffffffffffffffff1673ffffffffffffffffffffffffffffffffffffffff1681526020019081526020015f206005015f8460ff1660ff1681526020019081526020015f205f6101000a81548160ff02191690831515021790555061167b33828461189d565b8073ffffffffffffffffffffffffffffffffffffffff163373ffffffffffffffffffffffffffffffffffffffff167f18a92df19fd94d6cfff209966673a5ca05a1c8e2bb68e097fce2bdc2ed8111196001856040516116db929190612f3b565b60405180910390a3505050565b6004602052805f5260405f205f915090505481565b5f5b600115611896575f5f5f5f8673ffffffffffffffffffffffffffffffffffffffff1673ffffffffffffffffffffffffffffffffffffffff1681526020019081526020015f206001015f9054906101000a900473ffffffffffffffffffffffffffffffffffffffff1673ffffffffffffffffffffffffffffffffffffffff1673ffffffffffffffffffffffffffffffffffffffff1681526020019081526020015f206005015f8360ff1660ff1681526020019081526020015f205f9054906101000a900460ff1615611830575f5f8473ffffffffffffffffffffffffffffffffffffffff1673ffffffffffffffffffffffffffffffffffffffff1681526020019081526020015f206001015f9054906101000a900473ffffffffffffffffffffffffffffffffffffffff169050611897565b5f5f8473ffffffffffffffffffffffffffffffffffffffff1673ffffffffffffffffffffffffffffffffffffffff1681526020019081526020015f206001015f9054906101000a900473ffffffffffffffffffffffffffffffffffffffff1692506116ff565b5b92915050565b5f5f8373ffffffffffffffffffffffffffffffffffffffff1673ffffffffffffffffffffffffffffffffffffffff1681526020019081526020015f206006015f8260ff1660ff1681526020019081526020015f2060010183908060018154018082558091505060019003905f5260205f20015f9091909190916101000a81548173ffffffffffffffffffffffffffffffffffffffff021916908373ffffffffffffffffffffffffffffffffffffffff16021790555060035f5f8473ffffffffffffffffffffffffffffffffffffffff1673ffffffffffffffffffffffffffffffffffffffff1681526020019081526020015f206006015f8360ff1660ff1681526020019081526020015f20600101805490501015611a8b578173ffffffffffffffffffffffffffffffffffffffff168373ffffffffffffffffffffffffffffffffffffffff167f68062c5925c4317adf3a7095478d28b33fd8b41458bc7620b61bc46bf1b24d826001845f5f8873ffffffffffffffffffffffffffffffffffffffff1673ffffffffffffffffffffffffffffffffffffffff1681526020019081526020015f206006015f8760ff1660ff1681526020019081526020015f2060010180549050604051611a7193929190612f62565b60405180910390a3611a868284600184612046565b612041565b8173ffffffffffffffffffffffffffffffffffffffff168373ffffffffffffffffffffffffffffffffffffffff167f68062c5925c4317adf3a7095478d28b33fd8b41458bc7620b61bc46bf1b24d826001846003604051611aee93929190612fd0565b60405180910390a35f5f8373ffffffffffffffffffffffffffffffffffffffff1673ffffffffffffffffffffffffffffffffffffffff1681526020019081526020015f206006015f8260ff1660ff1681526020019081526020015f206001015f611b58919061237c565b5f5f8373ffffffffffffffffffffffffffffffffffffffff1673ffffffffffffffffffffffffffffffffffffffff1681526020019081526020015f206005015f600183611ba59190613005565b60ff1660ff1681526020019081526020015f205f9054906101000a900460ff16158015611bd95750600c60ff168160ff1614155b15611c4e5760015f5f8473ffffffffffffffffffffffffffffffffffffffff1673ffffffffffffffffffffffffffffffffffffffff1681526020019081526020015f206006015f8360ff1660ff1681526020019081526020015f206002015f6101000a81548160ff0219169083151502179055505b7f000000000000000000000000000000000000000000000000000000000000000073ffffffffffffffffffffffffffffffffffffffff168273ffffffffffffffffffffffffffffffffffffffff1614611ee7575f611cac83836116fd565b90508073ffffffffffffffffffffffffffffffffffffffff165f5f8573ffffffffffffffffffffffffffffffffffffffff1673ffffffffffffffffffffffffffffffffffffffff1681526020019081526020015f206006015f8460ff1660ff1681526020019081526020015f205f015f9054906101000a900473ffffffffffffffffffffffffffffffffffffffff1673ffffffffffffffffffffffffffffffffffffffff1614611deb57805f5f8573ffffffffffffffffffffffffffffffffffffffff1673ffffffffffffffffffffffffffffffffffffffff1681526020019081526020015f206006015f8460ff1660ff1681526020019081526020015f205f015f6101000a81548173ffffffffffffffffffffffffffffffffffffffff021916908373ffffffffffffffffffffffffffffffffffffffff1602179055505b5f5f8473ffffffffffffffffffffffffffffffffffffffff1673ffffffffffffffffffffffffffffffffffffffff1681526020019081526020015f206006015f8360ff1660ff1681526020019081526020015f206003015f815480929190611e529061296c565b91905055508373ffffffffffffffffffffffffffffffffffffffff168173ffffffffffffffffffffffffffffffffffffffff168473ffffffffffffffffffffffffffffffffffffffff167fa00c953eff38ec1b71e7fe060b2ab8df0bbe5354319fbdde4fbdafd6324386a6600186604051611ece929190612f3b565b60405180910390a4611ee183828461189d565b50612040565b611f147f000000000000000000000000000000000000000000000000000000000000000084600184612046565b5f5f7f000000000000000000000000000000000000000000000000000000000000000073ffffffffffffffffffffffffffffffffffffffff1673ffffffffffffffffffffffffffffffffffffffff1681526020019081526020015f206006015f8260ff1660ff1681526020019081526020015f206003015f815480929190611f9b9061296c565b91905055508273ffffffffffffffffffffffffffffffffffffffff165f73ffffffffffffffffffffffffffffffffffffffff167f000000000000000000000000000000000000000000000000000000000000000073ffffffffffffffffffffffffffffffffffffffff167fa00c953eff38ec1b71e7fe060b2ab8df0bbe5354319fbdde4fbdafd6324386a6600185604051612037929190612f3b565b60405180910390a45b5b505050565b5f5f612054868686866121fd565b915091505f60045f8560ff1660ff1681526020019081526020015f20549050805f5f8573ffffffffffffffffffffffffffffffffffffffff1673ffffffffffffffffffffffffffffffffffffffff1681526020019081526020015f206003015f8282546120c19190613039565b92505081905550805f5f8573ffffffffffffffffffffffffffffffffffffffff1673ffffffffffffffffffffffffffffffffffffffff1681526020019081526020015f206004015f8282546121169190613039565b925050819055508573ffffffffffffffffffffffffffffffffffffffff168373ffffffffffffffffffffffffffffffffffffffff167fa2a8c50f6cc6bbf4aa97a6e8c3a27861dc25de71b4e015c94fa0073c35b0dd9187878560405161217e9392919061306c565b60405180910390a381156121f4578273ffffffffffffffffffffffffffffffffffffffff168673ffffffffffffffffffffffffffffffffffffffff167ff0ddc65c0d411f042f723dcfa1b7d13e85a35b7b70761d447c6500411cacf32887876040516121eb9291906130a1565b60405180910390a35b50505050505050565b5f5f5f8690505f5b600115612370575f5f8373ffffffffffffffffffffffffffffffffffffffff1673ffffffffffffffffffffffffffffffffffffffff1681526020019081526020015f206006015f8660ff1660ff1681526020019081526020015f206002015f9054906101000a900460ff161561235e578673ffffffffffffffffffffffffffffffffffffffff168273ffffffffffffffffffffffffffffffffffffffff167ffc0cb63f8dbd6b20ceb84a3c5358a41576a1479e6ecd040b4b985525dc09a7096001886040516122d5929190612f3b565b60405180910390a3600190505f5f8373ffffffffffffffffffffffffffffffffffffffff1673ffffffffffffffffffffffffffffffffffffffff1681526020019081526020015f206006015f8660ff1660ff1681526020019081526020015f205f015f9054906101000a900473ffffffffffffffffffffffffffffffffffffffff16915061236b565b8181935093505050612373565b612205565b50505b94509492505050565b5080545f8255905f5260205f2090810190612397919061239a565b50565b5b808211156123b1575f815f90555060010161239b565b5090565b5f5ffd5b5f819050919050565b6123cb816123b9565b81146123d5575f5ffd5b50565b5f813590506123e6816123c2565b92915050565b5f60208284031215612401576124006123b5565b5b5f61240e848285016123d8565b91505092915050565b5f73ffffffffffffffffffffffffffffffffffffffff82169050919050565b5f61244082612417565b9050919050565b61245081612436565b811461245a575f5ffd5b50565b5f8135905061246b81612447565b92915050565b5f60ff82169050919050565b61248681612471565b8114612490575f5ffd5b50565b5f813590506124a18161247d565b92915050565b5f5f604083850312156124bd576124bc6123b5565b5b5f6124ca8582860161245d565b92505060206124db85828601612493565b9150509250929050565b5f8115159050919050565b6124f9816124e5565b82525050565b5f6020820190506125125f8301846124f0565b92915050565b61252181612471565b82525050565b5f60208201905061253a5f830184612518565b92915050565b61254981612436565b82525050565b5f6020820190506125625f830184612540565b92915050565b612571816123b9565b82525050565b5f60208201905061258a5f830184612568565b92915050565b5f602082840312156125a5576125a46123b5565b5b5f6125b28482850161245d565b91505092915050565b5f6040820190506125ce5f830185612568565b6125db6020830184612568565b9392505050565b5f81519050919050565b5f82825260208201905092915050565b5f819050602082019050919050565b61261481612436565b82525050565b5f612625838361260b565b60208301905092915050565b5f602082019050919050565b5f612647826125e2565b61265181856125ec565b935061265c836125fc565b805f5b8381101561268c578151612673888261261a565b975061267e83612631565b92505060018101905061265f565b5085935050505092915050565b5f6060820190506126ac5f830186612540565b81810360208301526126be818561263d565b90506126cd60408301846124f0565b949350505050565b5f60a0820190506126e85f830188612568565b6126f56020830187612540565b6127026040830186612568565b61270f6060830185612568565b61271c6080830184612568565b9695505050505050565b5f5f6040838503121561273c5761273b6123b5565b5b5f61274985828601612493565b925050602061275a85828601612493565b9150509250929050565b5f60208284031215612779576127786123b5565b5b5f61278684828501612493565b91505092915050565b5f82825260208201905092915050565b7f726567697374726174696f6e20636f737420302e3035000000000000000000005f82015250565b5f6127d360168361278f565b91506127de8261279f565b602082019050919050565b5f6020820190508181035f830152612800816127c7565b9050919050565b7f75736572206578697374730000000000000000000000000000000000000000005f82015250565b5f61283b600b8361278f565b915061284682612807565b602082019050919050565b5f6020820190508181035f8301526128688161282f565b9050919050565b7f7265666572726572206e6f7420657869737473000000000000000000000000005f82015250565b5f6128a360138361278f565b91506128ae8261286f565b602082019050919050565b5f6020820190508181035f8301526128d081612897565b9050919050565b7f63616e6e6f74206265206120636f6e74726163740000000000000000000000005f82015250565b5f61290b60148361278f565b9150612916826128d7565b602082019050919050565b5f6020820190508181035f830152612938816128ff565b9050919050565b7f4e487b71000000000000000000000000000000000000000000000000000000005f52601160045260245ffd5b5f612976826123b9565b91507fffffffffffffffffffffffffffffffffffffffffffffffffffffffffffffffff82036129a8576129a761293f565b5b600182019050919050565b7f55736572206e6f742072656769737465726564000000000000000000000000005f82015250565b5f6129e760138361278f565b91506129f2826129b3565b602082019050919050565b5f6020820190508181035f830152612a14816129db565b9050919050565b7f416d6f756e74206d75737420626520706f7369746976650000000000000000005f82015250565b5f612a4f60178361278f565b9150612a5a82612a1b565b602082019050919050565b5f6020820190508181035f830152612a7c81612a43565b9050919050565b7f496e73756666696369656e742062616c616e63650000000000000000000000005f82015250565b5f612ab760148361278f565b9150612ac282612a83565b602082019050919050565b5f6020820190508181035f830152612ae481612aab565b9050919050565b5f612af5826123b9565b9150612b00836123b9565b9250828203905081811115612b1857612b1761293f565b5b92915050565b5f81905092915050565b50565b5f612b365f83612b1e565b9150612b4182612b28565b5f82019050919050565b5f612b5582612b2b565b9150819050919050565b7f5769746864726177616c206661696c65640000000000000000000000000000005f82015250565b5f612b9360118361278f565b9150612b9e82612b5f565b602082019050919050565b5f6020820190508181035f830152612bc081612b87565b9050919050565b7f4e6f2062616c616e636520746f207769746864726177000000000000000000005f82015250565b5f612bfb60168361278f565b9150612c0682612bc7565b602082019050919050565b5f6020820190508181035f830152612c2881612bef565b9050919050565b7f5573657220646f6573206e6f74206578697374000000000000000000000000005f82015250565b5f612c6360138361278f565b9150612c6e82612c2f565b602082019050919050565b5f6020820190508181035f830152612c9081612c57565b9050919050565b7f75736572206973206e6f74206578697374732e205265676973746572206669725f8201527f73742e0000000000000000000000000000000000000000000000000000000000602082015250565b5f612cf160238361278f565b9150612cfc82612c97565b604082019050919050565b5f6020820190508181035f830152612d1e81612ce5565b9050919050565b7f696e76616c6964206d61747269780000000000000000000000000000000000005f82015250565b5f612d59600e8361278f565b9150612d6482612d25565b602082019050919050565b5f6020820190508181035f830152612d8681612d4d565b9050919050565b7f696e76616c6964207072696365000000000000000000000000000000000000005f82015250565b5f612dc1600d8361278f565b9150612dcc82612d8d565b602082019050919050565b5f6020820190508181035f830152612dee81612db5565b9050919050565b7f696e76616c6964206c6576656c000000000000000000000000000000000000005f82015250565b5f612e29600d8361278f565b9150612e3482612df5565b602082019050919050565b5f6020820190508181035f830152612e5681612e1d565b9050919050565b7f6c6576656c20616c7265616479206163746976617465640000000000000000005f82015250565b5f612e9160178361278f565b9150612e9c82612e5d565b602082019050919050565b5f6020820190508181035f830152612ebe81612e85565b9050919050565b5f612ecf82612471565b9150612eda83612471565b9250828203905060ff811115612ef357612ef261293f565b5b92915050565b5f819050919050565b5f819050919050565b5f612f25612f20612f1b84612ef9565b612f02565b612471565b9050919050565b612f3581612f0b565b82525050565b5f604082019050612f4e5f830185612f2c565b612f5b6020830184612518565b9392505050565b5f606082019050612f755f830186612f2c565b612f826020830185612518565b612f8f6040830184612518565b949350505050565b5f819050919050565b5f612fba612fb5612fb084612f97565b612f02565b612471565b9050919050565b612fca81612fa0565b82525050565b5f606082019050612fe35f830186612f2c565b612ff06020830185612518565b612ffd6040830184612fc1565b949350505050565b5f61300f82612471565b915061301a83612471565b9250828201905060ff8111156130335761303261293f565b5b92915050565b5f613043826123b9565b915061304e836123b9565b92508282019050808211156130665761306561293f565b5b92915050565b5f60608201905061307f5f830186612518565b61308c6020830185612518565b6130996040830184612568565b949350505050565b5f6040820190506130b45f830185612518565b6130c16020830184612518565b939250505056fea26469706673582212200d8a54198ff8f39e15321869a4cd43e179def7a06f6de7c7fce63e7c8dca15c264736f6c634300081e0033",
					"opcodes": "PUSH1 0xA0 PUSH1 0x40 MSTORE PUSH1 0x2 PUSH1 0x3 SSTORE CALLVALUE DUP1 ISZERO PUSH2 0x14 JUMPI PUSH0 PUSH0 REVERT JUMPDEST POP PUSH1 0x40 MLOAD PUSH2 0x366C CODESIZE SUB DUP1 PUSH2 0x366C DUP4 CODECOPY DUP2 DUP2 ADD PUSH1 0x40 MSTORE DUP2 ADD SWAP1 PUSH2 0x36 SWAP2 SWAP1 PUSH2 0x3AA JUMP JUMPDEST PUSH0 PUSH20 0xFFFFFFFFFFFFFFFFFFFFFFFFFFFFFFFFFFFFFFFF AND DUP2 PUSH20 0xFFFFFFFFFFFFFFFFFFFFFFFFFFFFFFFFFFFFFFFF AND SUB PUSH2 0xA4 JUMPI PUSH1 0x40 MLOAD PUSH32 0x8C379A000000000000000000000000000000000000000000000000000000000 DUP2 MSTORE PUSH1 0x4 ADD PUSH2 0x9B SWAP1 PUSH2 0x42F JUMP JUMPDEST PUSH1 0x40 MLOAD DUP1 SWAP2 SUB SWAP1 REVERT JUMPDEST PUSH7 0x58D15E17628000 PUSH1 0x4 PUSH0 PUSH1 0x1 PUSH1 0xFF AND DUP2 MSTORE PUSH1 0x20 ADD SWAP1 DUP2 MSTORE PUSH1 0x20 ADD PUSH0 KECCAK256 DUP2 SWAP1 SSTORE POP PUSH0 PUSH1 0x2 SWAP1 POP JUMPDEST PUSH1 0xC PUSH1 0xFF AND DUP2 PUSH1 0xFF AND GT PUSH2 0x137 JUMPI PUSH1 0x2 PUSH1 0x4 PUSH0 PUSH1 0x1 DUP5 PUSH2 0xEB SWAP2 SWAP1 PUSH2 0x486 JUMP JUMPDEST PUSH1 0xFF AND PUSH1 0xFF AND DUP2 MSTORE PUSH1 0x20 ADD SWAP1 DUP2 MSTORE PUSH1 0x20 ADD PUSH0 KECCAK256 SLOAD PUSH2 0x109 SWAP2 SWAP1 PUSH2 0x4C3 JUMP JUMPDEST PUSH1 0x4 PUSH0 DUP4 PUSH1 0xFF AND PUSH1 0xFF AND DUP2 MSTORE PUSH1 0x20 ADD SWAP1 DUP2 MSTORE PUSH1 0x20 ADD PUSH0 KECCAK256 DUP2 SWAP1 SSTORE POP DUP1 DUP1 PUSH2 0x12F SWAP1 PUSH2 0x504 JUMP JUMPDEST SWAP2 POP POP PUSH2 0xCB JUMP JUMPDEST POP DUP1 PUSH20 0xFFFFFFFFFFFFFFFFFFFFFFFFFFFFFFFFFFFFFFFF AND PUSH1 0x80 DUP2 PUSH20 0xFFFFFFFFFFFFFFFFFFFFFFFFFFFFFFFFFFFFFFFF AND DUP2 MSTORE POP POP PUSH0 PUSH0 PUSH0 DUP4 PUSH20 0xFFFFFFFFFFFFFFFFFFFFFFFFFFFFFFFFFFFFFFFF AND PUSH20 0xFFFFFFFFFFFFFFFFFFFFFFFFFFFFFFFFFFFFFFFF AND DUP2 MSTORE PUSH1 0x20 ADD SWAP1 DUP2 MSTORE PUSH1 0x20 ADD PUSH0 KECCAK256 SWAP1 POP PUSH1 0x1 DUP2 PUSH0 ADD DUP2 SWAP1 SSTORE POP PUSH0 DUP2 PUSH1 0x1 ADD PUSH0 PUSH2 0x100 EXP DUP2 SLOAD DUP2 PUSH20 0xFFFFFFFFFFFFFFFFFFFFFFFFFFFFFFFFFFFFFFFF MUL NOT AND SWAP1 DUP4 PUSH20 0xFFFFFFFFFFFFFFFFFFFFFFFFFFFFFFFFFFFFFFFF AND MUL OR SWAP1 SSTORE POP PUSH0 DUP2 PUSH1 0x2 ADD DUP2 SWAP1 SSTORE POP PUSH0 DUP2 PUSH1 0x3 ADD DUP2 SWAP1 SSTORE POP PUSH0 DUP2 PUSH1 0x4 ADD DUP2 SWAP1 SSTORE POP DUP2 PUSH1 0x1 PUSH0 PUSH1 0x1 DUP2 MSTORE PUSH1 0x20 ADD SWAP1 DUP2 MSTORE PUSH1 0x20 ADD PUSH0 KECCAK256 PUSH0 PUSH2 0x100 EXP DUP2 SLOAD DUP2 PUSH20 0xFFFFFFFFFFFFFFFFFFFFFFFFFFFFFFFFFFFFFFFF MUL NOT AND SWAP1 DUP4 PUSH20 0xFFFFFFFFFFFFFFFFFFFFFFFFFFFFFFFFFFFFFFFF AND MUL OR SWAP1 SSTORE POP DUP2 PUSH1 0x2 PUSH0 PUSH1 0x1 DUP2 MSTORE PUSH1 0x20 ADD SWAP1 DUP2 MSTORE PUSH1 0x20 ADD PUSH0 KECCAK256 PUSH0 PUSH2 0x100 EXP DUP2 SLOAD DUP2 PUSH20 0xFFFFFFFFFFFFFFFFFFFFFFFFFFFFFFFFFFFFFFFF MUL NOT AND SWAP1 DUP4 PUSH20 0xFFFFFFFFFFFFFFFFFFFFFFFFFFFFFFFFFFFFFFFF AND MUL OR SWAP1 SSTORE POP PUSH0 PUSH1 0x1 SWAP1 POP JUMPDEST PUSH1 0xC PUSH1 0xFF AND DUP2 PUSH1 0xFF AND GT PUSH2 0x344 JUMPI PUSH1 0x1 PUSH0 PUSH0 DUP6 PUSH20 0xFFFFFFFFFFFFFFFFFFFFFFFFFFFFFFFFFFFFFFFF AND PUSH20 0xFFFFFFFFFFFFFFFFFFFFFFFFFFFFFFFFFFFFFFFF AND DUP2 MSTORE PUSH1 0x20 ADD SWAP1 DUP2 MSTORE PUSH1 0x20 ADD PUSH0 KECCAK256 PUSH1 0x5 ADD PUSH0 DUP4 PUSH1 0xFF AND PUSH1 0xFF AND DUP2 MSTORE PUSH1 0x20 ADD SWAP1 DUP2 MSTORE PUSH1 0x20 ADD PUSH0 KECCAK256 PUSH0 PUSH2 0x100 EXP DUP2 SLOAD DUP2 PUSH1 0xFF MUL NOT AND SWAP1 DUP4 ISZERO ISZERO MUL OR SWAP1 SSTORE POP DUP1 DUP1 PUSH2 0x33C SWAP1 PUSH2 0x504 JUMP JUMPDEST SWAP2 POP POP PUSH2 0x2B7 JUMP JUMPDEST POP POP POP PUSH2 0x52C JUMP JUMPDEST PUSH0 PUSH0 REVERT JUMPDEST PUSH0 PUSH20 0xFFFFFFFFFFFFFFFFFFFFFFFFFFFFFFFFFFFFFFFF DUP3 AND SWAP1 POP SWAP2 SWAP1 POP JUMP JUMPDEST PUSH0 PUSH2 0x379 DUP3 PUSH2 0x350 JUMP JUMPDEST SWAP1 POP SWAP2 SWAP1 POP JUMP JUMPDEST PUSH2 0x389 DUP2 PUSH2 0x36F JUMP JUMPDEST DUP2 EQ PUSH2 0x393 JUMPI PUSH0 PUSH0 REVERT JUMPDEST POP JUMP JUMPDEST PUSH0 DUP2 MLOAD SWAP1 POP PUSH2 0x3A4 DUP2 PUSH2 0x380 JUMP JUMPDEST SWAP3 SWAP2 POP POP JUMP JUMPDEST PUSH0 PUSH1 0x20 DUP3 DUP5 SUB SLT ISZERO PUSH2 0x3BF JUMPI PUSH2 0x3BE PUSH2 0x34C JUMP JUMPDEST JUMPDEST PUSH0 PUSH2 0x3CC DUP5 DUP3 DUP6 ADD PUSH2 0x396 JUMP JUMPDEST SWAP2 POP POP SWAP3 SWAP2 POP POP JUMP JUMPDEST PUSH0 DUP3 DUP3 MSTORE PUSH1 0x20 DUP3 ADD SWAP1 POP SWAP3 SWAP2 POP POP JUMP JUMPDEST PUSH32 0x496E76616C6964206F776E657220616464726573730000000000000000000000 PUSH0 DUP3 ADD MSTORE POP JUMP JUMPDEST PUSH0 PUSH2 0x419 PUSH1 0x15 DUP4 PUSH2 0x3D5 JUMP JUMPDEST SWAP2 POP PUSH2 0x424 DUP3 PUSH2 0x3E5 JUMP JUMPDEST PUSH1 0x20 DUP3 ADD SWAP1 POP SWAP2 SWAP1 POP JUMP JUMPDEST PUSH0 PUSH1 0x20 DUP3 ADD SWAP1 POP DUP2 DUP2 SUB PUSH0 DUP4 ADD MSTORE PUSH2 0x446 DUP2 PUSH2 0x40D JUMP JUMPDEST SWAP1 POP SWAP2 SWAP1 POP JUMP JUMPDEST PUSH0 PUSH1 0xFF DUP3 AND SWAP1 POP SWAP2 SWAP1 POP JUMP JUMPDEST PUSH32 0x4E487B7100000000000000000000000000000000000000000000000000000000 PUSH0 MSTORE PUSH1 0x11 PUSH1 0x4 MSTORE PUSH1 0x24 PUSH0 REVERT JUMPDEST PUSH0 PUSH2 0x490 DUP3 PUSH2 0x44D JUMP JUMPDEST SWAP2 POP PUSH2 0x49B DUP4 PUSH2 0x44D JUMP JUMPDEST SWAP3 POP DUP3 DUP3 SUB SWAP1 POP PUSH1 0xFF DUP2 GT ISZERO PUSH2 0x4B4 JUMPI PUSH2 0x4B3 PUSH2 0x459 JUMP JUMPDEST JUMPDEST SWAP3 SWAP2 POP POP JUMP JUMPDEST PUSH0 DUP2 SWAP1 POP SWAP2 SWAP1 POP JUMP JUMPDEST PUSH0 PUSH2 0x4CD DUP3 PUSH2 0x4BA JUMP JUMPDEST SWAP2 POP PUSH2 0x4D8 DUP4 PUSH2 0x4BA JUMP JUMPDEST SWAP3 POP DUP3 DUP3 MUL PUSH2 0x4E6 DUP2 PUSH2 0x4BA JUMP JUMPDEST SWAP2 POP DUP3 DUP3 DIV DUP5 EQ DUP4 ISZERO OR PUSH2 0x4FD JUMPI PUSH2 0x4FC PUSH2 0x459 JUMP JUMPDEST JUMPDEST POP SWAP3 SWAP2 POP POP JUMP JUMPDEST PUSH0 PUSH2 0x50E DUP3 PUSH2 0x44D JUMP JUMPDEST SWAP2 POP PUSH1 0xFF DUP3 SUB PUSH2 0x521 JUMPI PUSH2 0x520 PUSH2 0x459 JUMP JUMPDEST JUMPDEST PUSH1 0x1 DUP3 ADD SWAP1 POP SWAP2 SWAP1 POP JUMP JUMPDEST PUSH1 0x80 MLOAD PUSH2 0x30FE PUSH2 0x56E PUSH0 CODECOPY PUSH0 DUP2 DUP2 PUSH2 0x10C ADD MSTORE DUP2 DUP2 PUSH2 0x19D ADD MSTORE DUP2 DUP2 PUSH2 0x1220 ADD MSTORE DUP2 DUP2 PUSH2 0x1C50 ADD MSTORE DUP2 DUP2 PUSH2 0x1EEC ADD MSTORE DUP2 DUP2 PUSH2 0x1F18 ADD MSTORE PUSH2 0x1FD0 ADD MSTORE PUSH2 0x30FE PUSH0 RETURN INVALID PUSH1 0x80 PUSH1 0x40 MSTORE PUSH1 0x4 CALLDATASIZE LT PUSH2 0x101 JUMPI PUSH0 CALLDATALOAD PUSH1 0xE0 SHR DUP1 PUSH4 0x509222CD GT PUSH2 0x94 JUMPI DUP1 PUSH4 0x8DA5CB5B GT PUSH2 0x63 JUMPI DUP1 PUSH4 0x8DA5CB5B EQ PUSH2 0x407 JUMPI DUP1 PUSH4 0xA87430BA EQ PUSH2 0x431 JUMPI DUP1 PUSH4 0xBE389D57 EQ PUSH2 0x471 JUMPI DUP1 PUSH4 0xECABDF79 EQ PUSH2 0x48D JUMPI DUP1 PUSH4 0xFA45323D EQ PUSH2 0x4C9 JUMPI PUSH2 0x132 JUMP JUMPDEST DUP1 PUSH4 0x509222CD EQ PUSH2 0x347 JUMPI DUP1 PUSH4 0x6F9FB98A EQ PUSH2 0x383 JUMPI DUP1 PUSH4 0x797EEE24 EQ PUSH2 0x3AD JUMPI DUP1 PUSH4 0x83BA31B2 EQ PUSH2 0x3C9 JUMPI PUSH2 0x132 JUMP JUMPDEST DUP1 PUSH4 0x348D4487 GT PUSH2 0xD0 JUMPI DUP1 PUSH4 0x348D4487 EQ PUSH2 0x28E JUMPI DUP1 PUSH4 0x3CCFD60B EQ PUSH2 0x2B8 JUMPI DUP1 PUSH4 0x4635FD68 EQ PUSH2 0x2CE JUMPI DUP1 PUSH4 0x47734892 EQ PUSH2 0x30A JUMPI PUSH2 0x132 JUMP JUMPDEST DUP1 PUSH4 0x562B9F7 EQ PUSH2 0x1C4 JUMPI DUP1 PUSH4 0x7279E2A EQ PUSH2 0x1EC JUMPI DUP1 PUSH4 0x29C70400 EQ PUSH2 0x228 JUMPI DUP1 PUSH4 0x2A2D0C47 EQ PUSH2 0x252 JUMPI PUSH2 0x132 JUMP JUMPDEST CALLDATASIZE PUSH2 0x132 JUMPI PUSH2 0x130 CALLER PUSH32 0x0 PUSH2 0x505 JUMP JUMPDEST STOP JUMPDEST PUSH1 0x14 PUSH0 CALLDATASIZE SWAP1 POP SUB PUSH2 0x197 JUMPI PUSH2 0x192 CALLER PUSH2 0x18D PUSH0 CALLDATASIZE DUP1 DUP1 PUSH1 0x1F ADD PUSH1 0x20 DUP1 SWAP2 DIV MUL PUSH1 0x20 ADD PUSH1 0x40 MLOAD SWAP1 DUP2 ADD PUSH1 0x40 MSTORE DUP1 SWAP4 SWAP3 SWAP2 SWAP1 DUP2 DUP2 MSTORE PUSH1 0x20 ADD DUP4 DUP4 DUP1 DUP3 DUP5 CALLDATACOPY PUSH0 DUP2 DUP5 ADD MSTORE PUSH1 0x1F NOT PUSH1 0x1F DUP3 ADD AND SWAP1 POP DUP1 DUP4 ADD SWAP3 POP POP POP POP POP POP POP PUSH2 0x9DE JUMP JUMPDEST PUSH2 0x505 JUMP JUMPDEST PUSH2 0x1C2 JUMP JUMPDEST PUSH2 0x1C1 CALLER PUSH32 0x0 PUSH2 0x505 JUMP JUMPDEST JUMPDEST STOP JUMPDEST CALLVALUE DUP1 ISZERO PUSH2 0x1CF JUMPI PUSH0 PUSH0 REVERT JUMPDEST POP PUSH2 0x1EA PUSH1 0x4 DUP1 CALLDATASIZE SUB DUP2 ADD SWAP1 PUSH2 0x1E5 SWAP2 SWAP1 PUSH2 0x23EC JUMP JUMPDEST PUSH2 0x9EB JUMP JUMPDEST STOP JUMPDEST CALLVALUE DUP1 ISZERO PUSH2 0x1F7 JUMPI PUSH0 PUSH0 REVERT JUMPDEST POP PUSH2 0x212 PUSH1 0x4 DUP1 CALLDATASIZE SUB DUP2 ADD SWAP1 PUSH2 0x20D SWAP2 SWAP1 PUSH2 0x24A7 JUMP JUMPDEST PUSH2 0xC46 JUMP JUMPDEST PUSH1 0x40 MLOAD PUSH2 0x21F SWAP2 SWAP1 PUSH2 0x24FF JUMP JUMPDEST PUSH1 0x40 MLOAD DUP1 SWAP2 SUB SWAP1 RETURN JUMPDEST CALLVALUE DUP1 ISZERO PUSH2 0x233 JUMPI PUSH0 PUSH0 REVERT JUMPDEST POP PUSH2 0x23C PUSH2 0xCB0 JUMP JUMPDEST PUSH1 0x40 MLOAD PUSH2 0x249 SWAP2 SWAP1 PUSH2 0x2527 JUMP JUMPDEST PUSH1 0x40 MLOAD DUP1 SWAP2 SUB SWAP1 RETURN JUMPDEST CALLVALUE DUP1 ISZERO PUSH2 0x25D JUMPI PUSH0 PUSH0 REVERT JUMPDEST POP PUSH2 0x278 PUSH1 0x4 DUP1 CALLDATASIZE SUB DUP2 ADD SWAP1 PUSH2 0x273 SWAP2 SWAP1 PUSH2 0x23EC JUMP JUMPDEST PUSH2 0xCB5 JUMP JUMPDEST PUSH1 0x40 MLOAD PUSH2 0x285 SWAP2 SWAP1 PUSH2 0x254F JUMP JUMPDEST PUSH1 0x40 MLOAD DUP1 SWAP2 SUB SWAP1 RETURN JUMPDEST CALLVALUE DUP1 ISZERO PUSH2 0x299 JUMPI PUSH0 PUSH0 REVERT JUMPDEST POP PUSH2 0x2A2 PUSH2 0xCE5 JUMP JUMPDEST PUSH1 0x40 MLOAD PUSH2 0x2AF SWAP2 SWAP1 PUSH2 0x2577 JUMP JUMPDEST PUSH1 0x40 MLOAD DUP1 SWAP2 SUB SWAP1 RETURN JUMPDEST CALLVALUE DUP1 ISZERO PUSH2 0x2C3 JUMPI PUSH0 PUSH0 REVERT JUMPDEST POP PUSH2 0x2CC PUSH2 0xCEB JUMP JUMPDEST STOP JUMPDEST CALLVALUE DUP1 ISZERO PUSH2 0x2D9 JUMPI PUSH0 PUSH0 REVERT JUMPDEST POP PUSH2 0x2F4 PUSH1 0x4 DUP1 CALLDATASIZE SUB DUP2 ADD SWAP1 PUSH2 0x2EF SWAP2 SWAP1 PUSH2 0x23EC JUMP JUMPDEST PUSH2 0xEF6 JUMP JUMPDEST PUSH1 0x40 MLOAD PUSH2 0x301 SWAP2 SWAP1 PUSH2 0x254F JUMP JUMPDEST PUSH1 0x40 MLOAD DUP1 SWAP2 SUB SWAP1 RETURN JUMPDEST CALLVALUE DUP1 ISZERO PUSH2 0x315 JUMPI PUSH0 PUSH0 REVERT JUMPDEST POP PUSH2 0x330 PUSH1 0x4 DUP1 CALLDATASIZE SUB DUP2 ADD SWAP1 PUSH2 0x32B SWAP2 SWAP1 PUSH2 0x2590 JUMP JUMPDEST PUSH2 0xF26 JUMP JUMPDEST PUSH1 0x40 MLOAD PUSH2 0x33E SWAP3 SWAP2 SWAP1 PUSH2 0x25BB JUMP JUMPDEST PUSH1 0x40 MLOAD DUP1 SWAP2 SUB SWAP1 RETURN JUMPDEST CALLVALUE DUP1 ISZERO PUSH2 0x352 JUMPI PUSH0 PUSH0 REVERT JUMPDEST POP PUSH2 0x36D PUSH1 0x4 DUP1 CALLDATASIZE SUB DUP2 ADD SWAP1 PUSH2 0x368 SWAP2 SWAP1 PUSH2 0x2590 JUMP JUMPDEST PUSH2 0xFF9 JUMP JUMPDEST PUSH1 0x40 MLOAD PUSH2 0x37A SWAP2 SWAP1 PUSH2 0x24FF JUMP JUMPDEST PUSH1 0x40 MLOAD DUP1 SWAP2 SUB SWAP1 RETURN JUMPDEST CALLVALUE DUP1 ISZERO PUSH2 0x38E JUMPI PUSH0 PUSH0 REVERT JUMPDEST POP PUSH2 0x397 PUSH2 0x1043 JUMP JUMPDEST PUSH1 0x40 MLOAD PUSH2 0x3A4 SWAP2 SWAP1 PUSH2 0x2577 JUMP JUMPDEST PUSH1 0x40 MLOAD DUP1 SWAP2 SUB SWAP1 RETURN JUMPDEST PUSH2 0x3C7 PUSH1 0x4 DUP1 CALLDATASIZE SUB DUP2 ADD SWAP1 PUSH2 0x3C2 SWAP2 SWAP1 PUSH2 0x2590 JUMP JUMPDEST PUSH2 0x104A JUMP JUMPDEST STOP JUMPDEST CALLVALUE DUP1 ISZERO PUSH2 0x3D4 JUMPI PUSH0 PUSH0 REVERT JUMPDEST POP PUSH2 0x3EF PUSH1 0x4 DUP1 CALLDATASIZE SUB DUP2 ADD SWAP1 PUSH2 0x3EA SWAP2 SWAP1 PUSH2 0x24A7 JUMP JUMPDEST PUSH2 0x1057 JUMP JUMPDEST PUSH1 0x40 MLOAD PUSH2 0x3FE SWAP4 SWAP3 SWAP2 SWAP1 PUSH2 0x2699 JUMP JUMPDEST PUSH1 0x40 MLOAD DUP1 SWAP2 SUB SWAP1 RETURN JUMPDEST CALLVALUE DUP1 ISZERO PUSH2 0x412 JUMPI PUSH0 PUSH0 REVERT JUMPDEST POP PUSH2 0x41B PUSH2 0x121E JUMP JUMPDEST PUSH1 0x40 MLOAD PUSH2 0x428 SWAP2 SWAP1 PUSH2 0x254F JUMP JUMPDEST PUSH1 0x40 MLOAD DUP1 SWAP2 SUB SWAP1 RETURN JUMPDEST CALLVALUE DUP1 ISZERO PUSH2 0x43C JUMPI PUSH0 PUSH0 REVERT JUMPDEST POP PUSH2 0x457 PUSH1 0x4 DUP1 CALLDATASIZE SUB DUP2 ADD SWAP1 PUSH2 0x452 SWAP2 SWAP1 PUSH2 0x2590 JUMP JUMPDEST PUSH2 0x1242 JUMP JUMPDEST PUSH1 0x40 MLOAD PUSH2 0x468 SWAP6 SWAP5 SWAP4 SWAP3 SWAP2 SWAP1 PUSH2 0x26D5 JUMP JUMPDEST PUSH1 0x40 MLOAD DUP1 SWAP2 SUB SWAP1 RETURN JUMPDEST PUSH2 0x48B PUSH1 0x4 DUP1 CALLDATASIZE SUB DUP2 ADD SWAP1 PUSH2 0x486 SWAP2 SWAP1 PUSH2 0x2726 JUMP JUMPDEST PUSH2 0x1292 JUMP JUMPDEST STOP JUMPDEST CALLVALUE DUP1 ISZERO PUSH2 0x498 JUMPI PUSH0 PUSH0 REVERT JUMPDEST POP PUSH2 0x4B3 PUSH1 0x4 DUP1 CALLDATASIZE SUB DUP2 ADD SWAP1 PUSH2 0x4AE SWAP2 SWAP1 PUSH2 0x2764 JUMP JUMPDEST PUSH2 0x16E8 JUMP JUMPDEST PUSH1 0x40 MLOAD PUSH2 0x4C0 SWAP2 SWAP1 PUSH2 0x2577 JUMP JUMPDEST PUSH1 0x40 MLOAD DUP1 SWAP2 SUB SWAP1 RETURN JUMPDEST CALLVALUE DUP1 ISZERO PUSH2 0x4D4 JUMPI PUSH0 PUSH0 REVERT JUMPDEST POP PUSH2 0x4EF PUSH1 0x4 DUP1 CALLDATASIZE SUB DUP2 ADD SWAP1 PUSH2 0x4EA SWAP2 SWAP1 PUSH2 0x24A7 JUMP JUMPDEST PUSH2 0x16FD JUMP JUMPDEST PUSH1 0x40 MLOAD PUSH2 0x4FC SWAP2 SWAP1 PUSH2 0x254F JUMP JUMPDEST PUSH1 0x40 MLOAD DUP1 SWAP2 SUB SWAP1 RETURN JUMPDEST PUSH7 0xB1A2BC2EC50000 CALLVALUE EQ PUSH2 0x54E JUMPI PUSH1 0x40 MLOAD PUSH32 0x8C379A000000000000000000000000000000000000000000000000000000000 DUP2 MSTORE PUSH1 0x4 ADD PUSH2 0x545 SWAP1 PUSH2 0x27E9 JUMP JUMPDEST PUSH1 0x40 MLOAD DUP1 SWAP2 SUB SWAP1 REVERT JUMPDEST PUSH2 0x557 DUP3 PUSH2 0xFF9 JUMP JUMPDEST ISZERO PUSH2 0x597 JUMPI PUSH1 0x40 MLOAD PUSH32 0x8C379A000000000000000000000000000000000000000000000000000000000 DUP2 MSTORE PUSH1 0x4 ADD PUSH2 0x58E SWAP1 PUSH2 0x2851 JUMP JUMPDEST PUSH1 0x40 MLOAD DUP1 SWAP2 SUB SWAP1 REVERT JUMPDEST PUSH2 0x5A0 DUP2 PUSH2 0xFF9 JUMP JUMPDEST PUSH2 0x5DF JUMPI PUSH1 0x40 MLOAD PUSH32 0x8C379A000000000000000000000000000000000000000000000000000000000 DUP2 MSTORE PUSH1 0x4 ADD PUSH2 0x5D6 SWAP1 PUSH2 0x28B9 JUMP JUMPDEST PUSH1 0x40 MLOAD DUP1 SWAP2 SUB SWAP1 REVERT JUMPDEST PUSH0 DUP3 EXTCODESIZE SWAP1 POP PUSH0 DUP2 PUSH4 0xFFFFFFFF AND EQ PUSH2 0x62C JUMPI PUSH1 0x40 MLOAD PUSH32 0x8C379A000000000000000000000000000000000000000000000000000000000 DUP2 MSTORE PUSH1 0x4 ADD PUSH2 0x623 SWAP1 PUSH2 0x2921 JUMP JUMPDEST PUSH1 0x40 MLOAD DUP1 SWAP2 SUB SWAP1 REVERT JUMPDEST PUSH0 PUSH0 PUSH0 DUP6 PUSH20 0xFFFFFFFFFFFFFFFFFFFFFFFFFFFFFFFFFFFFFFFF AND PUSH20 0xFFFFFFFFFFFFFFFFFFFFFFFFFFFFFFFFFFFFFFFF AND DUP2 MSTORE PUSH1 0x20 ADD SWAP1 DUP2 MSTORE PUSH1 0x20 ADD PUSH0 KECCAK256 SWAP1 POP PUSH1 0x3 SLOAD DUP2 PUSH0 ADD DUP2 SWAP1 SSTORE POP DUP3 DUP2 PUSH1 0x1 ADD PUSH0 PUSH2 0x100 EXP DUP2 SLOAD DUP2 PUSH20 0xFFFFFFFFFFFFFFFFFFFFFFFFFFFFFFFFFFFFFFFF MUL NOT AND SWAP1 DUP4 PUSH20 0xFFFFFFFFFFFFFFFFFFFFFFFFFFFFFFFFFFFFFFFF AND MUL OR SWAP1 SSTORE POP PUSH0 DUP2 PUSH1 0x2 ADD DUP2 SWAP1 SSTORE POP PUSH0 DUP2 PUSH1 0x3 ADD DUP2 SWAP1 SSTORE POP PUSH0 DUP2 PUSH1 0x4 ADD DUP2 SWAP1 SSTORE POP DUP4 PUSH1 0x1 PUSH0 PUSH1 0x3 SLOAD DUP2 MSTORE PUSH1 0x20 ADD SWAP1 DUP2 MSTORE PUSH1 0x20 ADD PUSH0 KECCAK256 PUSH0 PUSH2 0x100 EXP DUP2 SLOAD DUP2 PUSH20 0xFFFFFFFFFFFFFFFFFFFFFFFFFFFFFFFFFFFFFFFF MUL NOT AND SWAP1 DUP4 PUSH20 0xFFFFFFFFFFFFFFFFFFFFFFFFFFFFFFFFFFFFFFFF AND MUL OR SWAP1 SSTORE POP DUP4 PUSH1 0x2 PUSH0 PUSH1 0x3 SLOAD DUP2 MSTORE PUSH1 0x20 ADD SWAP1 DUP2 MSTORE PUSH1 0x20 ADD PUSH0 KECCAK256 PUSH0 PUSH2 0x100 EXP DUP2 SLOAD DUP2 PUSH20 0xFFFFFFFFFFFFFFFFFFFFFFFFFFFFFFFFFFFFFFFF MUL NOT AND SWAP1 DUP4 PUSH20 0xFFFFFFFFFFFFFFFFFFFFFFFFFFFFFFFFFFFFFFFF AND MUL OR SWAP1 SSTORE POP PUSH1 0x1 PUSH0 PUSH0 DUP7 PUSH20 0xFFFFFFFFFFFFFFFFFFFFFFFFFFFFFFFFFFFFFFFF AND PUSH20 0xFFFFFFFFFFFFFFFFFFFFFFFFFFFFFFFFFFFFFFFF AND DUP2 MSTORE PUSH1 0x20 ADD SWAP1 DUP2 MSTORE PUSH1 0x20 ADD PUSH0 KECCAK256 PUSH1 0x5 ADD PUSH0 PUSH1 0x1 PUSH1 0xFF AND DUP2 MSTORE PUSH1 0x20 ADD SWAP1 DUP2 MSTORE PUSH1 0x20 ADD PUSH0 KECCAK256 PUSH0 PUSH2 0x100 EXP DUP2 SLOAD DUP2 PUSH1 0xFF MUL NOT AND SWAP1 DUP4 ISZERO ISZERO MUL OR SWAP1 SSTORE POP PUSH1 0x3 PUSH0 DUP2 SLOAD DUP1 SWAP3 SWAP2 SWAP1 PUSH2 0x7F0 SWAP1 PUSH2 0x296C JUMP JUMPDEST SWAP2 SWAP1 POP SSTORE POP PUSH0 PUSH0 DUP5 PUSH20 0xFFFFFFFFFFFFFFFFFFFFFFFFFFFFFFFFFFFFFFFF AND PUSH20 0xFFFFFFFFFFFFFFFFFFFFFFFFFFFFFFFFFFFFFFFF AND DUP2 MSTORE PUSH1 0x20 ADD SWAP1 DUP2 MSTORE PUSH1 0x20 ADD PUSH0 KECCAK256 PUSH1 0x2 ADD PUSH0 DUP2 SLOAD DUP1 SWAP3 SWAP2 SWAP1 PUSH2 0x844 SWAP1 PUSH2 0x296C JUMP JUMPDEST SWAP2 SWAP1 POP SSTORE POP PUSH0 PUSH2 0x855 DUP6 PUSH1 0x1 PUSH2 0x16FD JUMP JUMPDEST SWAP1 POP DUP1 PUSH0 PUSH0 DUP8 PUSH20 0xFFFFFFFFFFFFFFFFFFFFFFFFFFFFFFFFFFFFFFFF AND PUSH20 0xFFFFFFFFFFFFFFFFFFFFFFFFFFFFFFFFFFFFFFFF AND DUP2 MSTORE PUSH1 0x20 ADD SWAP1 DUP2 MSTORE PUSH1 0x20 ADD PUSH0 KECCAK256 PUSH1 0x6 ADD PUSH0 PUSH1 0x1 PUSH1 0xFF AND DUP2 MSTORE PUSH1 0x20 ADD SWAP1 DUP2 MSTORE PUSH1 0x20 ADD PUSH0 KECCAK256 PUSH0 ADD PUSH0 PUSH2 0x100 EXP DUP2 SLOAD DUP2 PUSH20 0xFFFFFFFFFFFFFFFFFFFFFFFFFFFFFFFFFFFFFFFF MUL NOT AND SWAP1 DUP4 PUSH20 0xFFFFFFFFFFFFFFFFFFFFFFFFFFFFFFFFFFFFFFFF AND MUL OR SWAP1 SSTORE POP PUSH2 0x8F5 DUP6 DUP3 PUSH1 0x1 PUSH2 0x189D JUMP JUMPDEST PUSH0 PUSH0 DUP7 PUSH20 0xFFFFFFFFFFFFFFFFFFFFFFFFFFFFFFFFFFFFFFFF AND PUSH20 0xFFFFFFFFFFFFFFFFFFFFFFFFFFFFFFFFFFFFFFFF AND DUP2 MSTORE PUSH1 0x20 ADD SWAP1 DUP2 MSTORE PUSH1 0x20 ADD PUSH0 KECCAK256 PUSH0 ADD SLOAD DUP5 PUSH20 0xFFFFFFFFFFFFFFFFFFFFFFFFFFFFFFFFFFFFFFFF AND DUP7 PUSH20 0xFFFFFFFFFFFFFFFFFFFFFFFFFFFFFFFFFFFFFFFF AND PUSH32 0x309BB360E8B69C23937CCC5FB01F9AEEEAD1C95A99604E175113FF82F2B1723A PUSH0 PUSH0 DUP10 PUSH20 0xFFFFFFFFFFFFFFFFFFFFFFFFFFFFFFFFFFFFFFFF AND PUSH20 0xFFFFFFFFFFFFFFFFFFFFFFFFFFFFFFFFFFFFFFFF AND DUP2 MSTORE PUSH1 0x20 ADD SWAP1 DUP2 MSTORE PUSH1 0x20 ADD PUSH0 KECCAK256 PUSH0 ADD SLOAD PUSH1 0x40 MLOAD PUSH2 0x9CF SWAP2 SWAP1 PUSH2 0x2577 JUMP JUMPDEST PUSH1 0x40 MLOAD DUP1 SWAP2 SUB SWAP1 LOG4 POP POP POP POP POP JUMP JUMPDEST PUSH0 PUSH1 0x14 DUP3 ADD MLOAD SWAP1 POP SWAP2 SWAP1 POP JUMP JUMPDEST PUSH2 0x9F4 CALLER PUSH2 0xFF9 JUMP JUMPDEST PUSH2 0xA33 JUMPI PUSH1 0x40 MLOAD PUSH32 0x8C379A000000000000000000000000000000000000000000000000000000000 DUP2 MSTORE PUSH1 0x4 ADD PUSH2 0xA2A SWAP1 PUSH2 0x29FD JUMP JUMPDEST PUSH1 0x40 MLOAD DUP1 SWAP2 SUB SWAP1 REVERT JUMPDEST PUSH0 DUP2 GT PUSH2 0xA75 JUMPI PUSH1 0x40 MLOAD PUSH32 0x8C379A000000000000000000000000000000000000000000000000000000000 DUP2 MSTORE PUSH1 0x4 ADD PUSH2 0xA6C SWAP1 PUSH2 0x2A65 JUMP JUMPDEST PUSH1 0x40 MLOAD DUP1 SWAP2 SUB SWAP1 REVERT JUMPDEST DUP1 PUSH0 PUSH0 CALLER PUSH20 0xFFFFFFFFFFFFFFFFFFFFFFFFFFFFFFFFFFFFFFFF AND PUSH20 0xFFFFFFFFFFFFFFFFFFFFFFFFFFFFFFFFFFFFFFFF AND DUP2 MSTORE PUSH1 0x20 ADD SWAP1 DUP2 MSTORE PUSH1 0x20 ADD PUSH0 KECCAK256 PUSH1 0x4 ADD SLOAD LT ISZERO PUSH2 0xAF7 JUMPI PUSH1 0x40 MLOAD PUSH32 0x8C379A000000000000000000000000000000000000000000000000000000000 DUP2 MSTORE PUSH1 0x4 ADD PUSH2 0xAEE SWAP1 PUSH2 0x2ACD JUMP JUMPDEST PUSH1 0x40 MLOAD DUP1 SWAP2 SUB SWAP1 REVERT JUMPDEST DUP1 PUSH0 PUSH0 CALLER PUSH20 0xFFFFFFFFFFFFFFFFFFFFFFFFFFFFFFFFFFFFFFFF AND PUSH20 0xFFFFFFFFFFFFFFFFFFFFFFFFFFFFFFFFFFFFFFFF AND DUP2 MSTORE PUSH1 0x20 ADD SWAP1 DUP2 MSTORE PUSH1 0x20 ADD PUSH0 KECCAK256 PUSH1 0x4 ADD PUSH0 DUP3 DUP3 SLOAD PUSH2 0xB45 SWAP2 SWAP1 PUSH2 0x2AEB JUMP JUMPDEST SWAP3 POP POP DUP2 SWAP1 SSTORE POP CALLER PUSH20 0xFFFFFFFFFFFFFFFFFFFFFFFFFFFFFFFFFFFFFFFF AND PUSH32 0x7FCF532C15F0A6DB0BD6D0E038BEA71D30D808C7D98CB3BF7268A95BF5081B65 DUP3 PUSH1 0x40 MLOAD PUSH2 0xB92 SWAP2 SWAP1 PUSH2 0x2577 JUMP JUMPDEST PUSH1 0x40 MLOAD DUP1 SWAP2 SUB SWAP1 LOG2 PUSH0 CALLER PUSH20 0xFFFFFFFFFFFFFFFFFFFFFFFFFFFFFFFFFFFFFFFF AND DUP3 PUSH1 0x40 MLOAD PUSH2 0xBBF SWAP1 PUSH2 0x2B4B JUMP JUMPDEST PUSH0 PUSH1 0x40 MLOAD DUP1 DUP4 SUB DUP2 DUP6 DUP8 GAS CALL SWAP3 POP POP POP RETURNDATASIZE DUP1 PUSH0 DUP2 EQ PUSH2 0xBF9 JUMPI PUSH1 0x40 MLOAD SWAP2 POP PUSH1 0x1F NOT PUSH1 0x3F RETURNDATASIZE ADD AND DUP3 ADD PUSH1 0x40 MSTORE RETURNDATASIZE DUP3 MSTORE RETURNDATASIZE PUSH0 PUSH1 0x20 DUP5 ADD RETURNDATACOPY PUSH2 0xBFE JUMP JUMPDEST PUSH1 0x60 SWAP2 POP JUMPDEST POP POP SWAP1 POP DUP1 PUSH2 0xC42 JUMPI PUSH1 0x40 MLOAD PUSH32 0x8C379A000000000000000000000000000000000000000000000000000000000 DUP2 MSTORE PUSH1 0x4 ADD PUSH2 0xC39 SWAP1 PUSH2 0x2BA9 JUMP JUMPDEST PUSH1 0x40 MLOAD DUP1 SWAP2 SUB SWAP1 REVERT JUMPDEST POP POP JUMP JUMPDEST PUSH0 PUSH0 PUSH0 DUP5 PUSH20 0xFFFFFFFFFFFFFFFFFFFFFFFFFFFFFFFFFFFFFFFF AND PUSH20 0xFFFFFFFFFFFFFFFFFFFFFFFFFFFFFFFFFFFFFFFF AND DUP2 MSTORE PUSH1 0x20 ADD SWAP1 DUP2 MSTORE PUSH1 0x20 ADD PUSH0 KECCAK256 PUSH1 0x5 ADD PUSH0 DUP4 PUSH1 0xFF AND PUSH1 0xFF AND DUP2 MSTORE PUSH1 0x20 ADD SWAP1 DUP2 MSTORE PUSH1 0x20 ADD PUSH0 KECCAK256 PUSH0 SWAP1 SLOAD SWAP1 PUSH2 0x100 EXP SWAP1 DIV PUSH1 0xFF AND SWAP1 POP SWAP3 SWAP2 POP POP JUMP JUMPDEST PUSH1 0xC DUP2 JUMP JUMPDEST PUSH1 0x1 PUSH1 0x20 MSTORE DUP1 PUSH0 MSTORE PUSH1 0x40 PUSH0 KECCAK256 PUSH0 SWAP2 POP SLOAD SWAP1 PUSH2 0x100 EXP SWAP1 DIV PUSH20 0xFFFFFFFFFFFFFFFFFFFFFFFFFFFFFFFFFFFFFFFF AND DUP2 JUMP JUMPDEST PUSH1 0x3 SLOAD DUP2 JUMP JUMPDEST PUSH2 0xCF4 CALLER PUSH2 0xFF9 JUMP JUMPDEST PUSH2 0xD33 JUMPI PUSH1 0x40 MLOAD PUSH32 0x8C379A000000000000000000000000000000000000000000000000000000000 DUP2 MSTORE PUSH1 0x4 ADD PUSH2 0xD2A SWAP1 PUSH2 0x29FD JUMP JUMPDEST PUSH1 0x40 MLOAD DUP1 SWAP2 SUB SWAP1 REVERT JUMPDEST PUSH0 PUSH0 PUSH0 CALLER PUSH20 0xFFFFFFFFFFFFFFFFFFFFFFFFFFFFFFFFFFFFFFFF AND PUSH20 0xFFFFFFFFFFFFFFFFFFFFFFFFFFFFFFFFFFFFFFFF AND DUP2 MSTORE PUSH1 0x20 ADD SWAP1 DUP2 MSTORE PUSH1 0x20 ADD PUSH0 KECCAK256 PUSH1 0x4 ADD SLOAD SWAP1 POP PUSH0 DUP2 GT PUSH2 0xDB8 JUMPI PUSH1 0x40 MLOAD PUSH32 0x8C379A000000000000000000000000000000000000000000000000000000000 DUP2 MSTORE PUSH1 0x4 ADD PUSH2 0xDAF SWAP1 PUSH2 0x2C11 JUMP JUMPDEST PUSH1 0x40 MLOAD DUP1 SWAP2 SUB SWAP1 REVERT JUMPDEST PUSH0 PUSH0 PUSH0 CALLER PUSH20 0xFFFFFFFFFFFFFFFFFFFFFFFFFFFFFFFFFFFFFFFF AND PUSH20 0xFFFFFFFFFFFFFFFFFFFFFFFFFFFFFFFFFFFFFFFF AND DUP2 MSTORE PUSH1 0x20 ADD SWAP1 DUP2 MSTORE PUSH1 0x20 ADD PUSH0 KECCAK256 PUSH1 0x4 ADD DUP2 SWAP1 SSTORE POP CALLER PUSH20 0xFFFFFFFFFFFFFFFFFFFFFFFFFFFFFFFFFFFFFFFF AND PUSH32 0x7FCF532C15F0A6DB0BD6D0E038BEA71D30D808C7D98CB3BF7268A95BF5081B65 DUP3 PUSH1 0x40 MLOAD PUSH2 0xE42 SWAP2 SWAP1 PUSH2 0x2577 JUMP JUMPDEST PUSH1 0x40 MLOAD DUP1 SWAP2 SUB SWAP1 LOG2 PUSH0 CALLER PUSH20 0xFFFFFFFFFFFFFFFFFFFFFFFFFFFFFFFFFFFFFFFF AND DUP3 PUSH1 0x40 MLOAD PUSH2 0xE6F SWAP1 PUSH2 0x2B4B JUMP JUMPDEST PUSH0 PUSH1 0x40 MLOAD DUP1 DUP4 SUB DUP2 DUP6 DUP8 GAS CALL SWAP3 POP POP POP RETURNDATASIZE DUP1 PUSH0 DUP2 EQ PUSH2 0xEA9 JUMPI PUSH1 0x40 MLOAD SWAP2 POP PUSH1 0x1F NOT PUSH1 0x3F RETURNDATASIZE ADD AND DUP3 ADD PUSH1 0x40 MSTORE RETURNDATASIZE DUP3 MSTORE RETURNDATASIZE PUSH0 PUSH1 0x20 DUP5 ADD RETURNDATACOPY PUSH2 0xEAE JUMP JUMPDEST PUSH1 0x60 SWAP2 POP JUMPDEST POP POP SWAP1 POP DUP1 PUSH2 0xEF2 JUMPI PUSH1 0x40 MLOAD PUSH32 0x8C379A000000000000000000000000000000000000000000000000000000000 DUP2 MSTORE PUSH1 0x4 ADD PUSH2 0xEE9 SWAP1 PUSH2 0x2BA9 JUMP JUMPDEST PUSH1 0x40 MLOAD DUP1 SWAP2 SUB SWAP1 REVERT JUMPDEST POP POP JUMP JUMPDEST PUSH1 0x2 PUSH1 0x20 MSTORE DUP1 PUSH0 MSTORE PUSH1 0x40 PUSH0 KECCAK256 PUSH0 SWAP2 POP SLOAD SWAP1 PUSH2 0x100 EXP SWAP1 DIV PUSH20 0xFFFFFFFFFFFFFFFFFFFFFFFFFFFFFFFFFFFFFFFF AND DUP2 JUMP JUMPDEST PUSH0 PUSH0 PUSH2 0xF31 DUP4 PUSH2 0xFF9 JUMP JUMPDEST PUSH2 0xF70 JUMPI PUSH1 0x40 MLOAD PUSH32 0x8C379A000000000000000000000000000000000000000000000000000000000 DUP2 MSTORE PUSH1 0x4 ADD PUSH2 0xF67 SWAP1 PUSH2 0x2C79 JUMP JUMPDEST PUSH1 0x40 MLOAD DUP1 SWAP2 SUB SWAP1 REVERT JUMPDEST PUSH0 PUSH0 DUP5 PUSH20 0xFFFFFFFFFFFFFFFFFFFFFFFFFFFFFFFFFFFFFFFF AND PUSH20 0xFFFFFFFFFFFFFFFFFFFFFFFFFFFFFFFFFFFFFFFF AND DUP2 MSTORE PUSH1 0x20 ADD SWAP1 DUP2 MSTORE PUSH1 0x20 ADD PUSH0 KECCAK256 PUSH1 0x3 ADD SLOAD PUSH0 PUSH0 DUP6 PUSH20 0xFFFFFFFFFFFFFFFFFFFFFFFFFFFFFFFFFFFFFFFF AND PUSH20 0xFFFFFFFFFFFFFFFFFFFFFFFFFFFFFFFFFFFFFFFF AND DUP2 MSTORE PUSH1 0x20 ADD SWAP1 DUP2 MSTORE PUSH1 0x20 ADD PUSH0 KECCAK256 PUSH1 0x4 ADD SLOAD SWAP2 POP SWAP2 POP SWAP2 POP SWAP2 JUMP JUMPDEST PUSH0 PUSH0 PUSH0 PUSH0 DUP5 PUSH20 0xFFFFFFFFFFFFFFFFFFFFFFFFFFFFFFFFFFFFFFFF AND PUSH20 0xFFFFFFFFFFFFFFFFFFFFFFFFFFFFFFFFFFFFFFFF AND DUP2 MSTORE PUSH1 0x20 ADD SWAP1 DUP2 MSTORE PUSH1 0x20 ADD PUSH0 KECCAK256 PUSH0 ADD SLOAD EQ ISZERO SWAP1 POP SWAP2 SWAP1 POP JUMP JUMPDEST PUSH0 SELFBALANCE SWAP1 POP SWAP1 JUMP JUMPDEST PUSH2 0x1054 CALLER DUP3 PUSH2 0x505 JUMP JUMPDEST POP JUMP JUMPDEST PUSH0 PUSH1 0x60 PUSH0 PUSH0 PUSH0 DUP7 PUSH20 0xFFFFFFFFFFFFFFFFFFFFFFFFFFFFFFFFFFFFFFFF AND PUSH20 0xFFFFFFFFFFFFFFFFFFFFFFFFFFFFFFFFFFFFFFFF AND DUP2 MSTORE PUSH1 0x20 ADD SWAP1 DUP2 MSTORE PUSH1 0x20 ADD PUSH0 KECCAK256 PUSH1 0x6 ADD PUSH0 DUP6 PUSH1 0xFF AND PUSH1 0xFF AND DUP2 MSTORE PUSH1 0x20 ADD SWAP1 DUP2 MSTORE PUSH1 0x20 ADD PUSH0 KECCAK256 PUSH0 ADD PUSH0 SWAP1 SLOAD SWAP1 PUSH2 0x100 EXP SWAP1 DIV PUSH20 0xFFFFFFFFFFFFFFFFFFFFFFFFFFFFFFFFFFFFFFFF AND PUSH0 PUSH0 DUP8 PUSH20 0xFFFFFFFFFFFFFFFFFFFFFFFFFFFFFFFFFFFFFFFF AND PUSH20 0xFFFFFFFFFFFFFFFFFFFFFFFFFFFFFFFFFFFFFFFF AND DUP2 MSTORE PUSH1 0x20 ADD SWAP1 DUP2 MSTORE PUSH1 0x20 ADD PUSH0 KECCAK256 PUSH1 0x6 ADD PUSH0 DUP7 PUSH1 0xFF AND PUSH1 0xFF AND DUP2 MSTORE PUSH1 0x20 ADD SWAP1 DUP2 MSTORE PUSH1 0x20 ADD PUSH0 KECCAK256 PUSH1 0x1 ADD PUSH0 PUSH0 DUP9 PUSH20 0xFFFFFFFFFFFFFFFFFFFFFFFFFFFFFFFFFFFFFFFF AND PUSH20 0xFFFFFFFFFFFFFFFFFFFFFFFFFFFFFFFFFFFFFFFF AND DUP2 MSTORE PUSH1 0x20 ADD SWAP1 DUP2 MSTORE PUSH1 0x20 ADD PUSH0 KECCAK256 PUSH1 0x6 ADD PUSH0 DUP8 PUSH1 0xFF AND PUSH1 0xFF AND DUP2 MSTORE PUSH1 0x20 ADD SWAP1 DUP2 MSTORE PUSH1 0x20 ADD PUSH0 KECCAK256 PUSH1 0x2 ADD PUSH0 SWAP1 SLOAD SWAP1 PUSH2 0x100 EXP SWAP1 DIV PUSH1 0xFF AND DUP2 DUP1 SLOAD DUP1 PUSH1 0x20 MUL PUSH1 0x20 ADD PUSH1 0x40 MLOAD SWAP1 DUP2 ADD PUSH1 0x40 MSTORE DUP1 SWAP3 SWAP2 SWAP1 DUP2 DUP2 MSTORE PUSH1 0x20 ADD DUP3 DUP1 SLOAD DUP1 ISZERO PUSH2 0x120A JUMPI PUSH1 0x20 MUL DUP3 ADD SWAP2 SWAP1 PUSH0 MSTORE PUSH1 0x20 PUSH0 KECCAK256 SWAP1 JUMPDEST DUP2 PUSH0 SWAP1 SLOAD SWAP1 PUSH2 0x100 EXP SWAP1 DIV PUSH20 0xFFFFFFFFFFFFFFFFFFFFFFFFFFFFFFFFFFFFFFFF AND PUSH20 0xFFFFFFFFFFFFFFFFFFFFFFFFFFFFFFFFFFFFFFFF AND DUP2 MSTORE PUSH1 0x20 ADD SWAP1 PUSH1 0x1 ADD SWAP1 DUP1 DUP4 GT PUSH2 0x11C1 JUMPI JUMPDEST POP POP POP POP POP SWAP2 POP SWAP3 POP SWAP3 POP SWAP3 POP SWAP3 POP SWAP3 POP SWAP3 JUMP JUMPDEST PUSH32 0x0 DUP2 JUMP JUMPDEST PUSH0 PUSH1 0x20 MSTORE DUP1 PUSH0 MSTORE PUSH1 0x40 PUSH0 KECCAK256 PUSH0 SWAP2 POP SWAP1 POP DUP1 PUSH0 ADD SLOAD SWAP1 DUP1 PUSH1 0x1 ADD PUSH0 SWAP1 SLOAD SWAP1 PUSH2 0x100 EXP SWAP1 DIV PUSH20 0xFFFFFFFFFFFFFFFFFFFFFFFFFFFFFFFFFFFFFFFF AND SWAP1 DUP1 PUSH1 0x2 ADD SLOAD SWAP1 DUP1 PUSH1 0x3 ADD SLOAD SWAP1 DUP1 PUSH1 0x4 ADD SLOAD SWAP1 POP DUP6 JUMP JUMPDEST PUSH2 0x129B CALLER PUSH2 0xFF9 JUMP JUMPDEST PUSH2 0x12DA JUMPI PUSH1 0x40 MLOAD PUSH32 0x8C379A000000000000000000000000000000000000000000000000000000000 DUP2 MSTORE PUSH1 0x4 ADD PUSH2 0x12D1 SWAP1 PUSH2 0x2D07 JUMP JUMPDEST PUSH1 0x40 MLOAD DUP1 SWAP2 SUB SWAP1 REVERT JUMPDEST PUSH1 0x1 DUP3 PUSH1 0xFF AND EQ PUSH2 0x1320 JUMPI PUSH1 0x40 MLOAD PUSH32 0x8C379A000000000000000000000000000000000000000000000000000000000 DUP2 MSTORE PUSH1 0x4 ADD PUSH2 0x1317 SWAP1 PUSH2 0x2D6F JUMP JUMPDEST PUSH1 0x40 MLOAD DUP1 SWAP2 SUB SWAP1 REVERT JUMPDEST PUSH1 0x4 PUSH0 DUP3 PUSH1 0xFF AND PUSH1 0xFF AND DUP2 MSTORE PUSH1 0x20 ADD SWAP1 DUP2 MSTORE PUSH1 0x20 ADD PUSH0 KECCAK256 SLOAD CALLVALUE EQ PUSH2 0x1379 JUMPI PUSH1 0x40 MLOAD PUSH32 0x8C379A000000000000000000000000000000000000000000000000000000000 DUP2 MSTORE PUSH1 0x4 ADD PUSH2 0x1370 SWAP1 PUSH2 0x2DD7 JUMP JUMPDEST PUSH1 0x40 MLOAD DUP1 SWAP2 SUB SWAP1 REVERT JUMPDEST PUSH1 0x1 DUP2 PUSH1 0xFF AND GT DUP1 ISZERO PUSH2 0x1393 JUMPI POP PUSH1 0xC PUSH1 0xFF AND DUP2 PUSH1 0xFF AND GT ISZERO JUMPDEST PUSH2 0x13D2 JUMPI PUSH1 0x40 MLOAD PUSH32 0x8C379A000000000000000000000000000000000000000000000000000000000 DUP2 MSTORE PUSH1 0x4 ADD PUSH2 0x13C9 SWAP1 PUSH2 0x2E3F JUMP JUMPDEST PUSH1 0x40 MLOAD DUP1 SWAP2 SUB SWAP1 REVERT JUMPDEST PUSH0 PUSH0 CALLER PUSH20 0xFFFFFFFFFFFFFFFFFFFFFFFFFFFFFFFFFFFFFFFF AND PUSH20 0xFFFFFFFFFFFFFFFFFFFFFFFFFFFFFFFFFFFFFFFF AND DUP2 MSTORE PUSH1 0x20 ADD SWAP1 DUP2 MSTORE PUSH1 0x20 ADD PUSH0 KECCAK256 PUSH1 0x5 ADD PUSH0 DUP3 PUSH1 0xFF AND PUSH1 0xFF AND DUP2 MSTORE PUSH1 0x20 ADD SWAP1 DUP2 MSTORE PUSH1 0x20 ADD PUSH0 KECCAK256 PUSH0 SWAP1 SLOAD SWAP1 PUSH2 0x100 EXP SWAP1 DIV PUSH1 0xFF AND ISZERO PUSH2 0x1473 JUMPI PUSH1 0x40 MLOAD PUSH32 0x8C379A000000000000000000000000000000000000000000000000000000000 DUP2 MSTORE PUSH1 0x4 ADD PUSH2 0x146A SWAP1 PUSH2 0x2EA7 JUMP JUMPDEST PUSH1 0x40 MLOAD DUP1 SWAP2 SUB SWAP1 REVERT JUMPDEST PUSH0 PUSH0 CALLER PUSH20 0xFFFFFFFFFFFFFFFFFFFFFFFFFFFFFFFFFFFFFFFF AND PUSH20 0xFFFFFFFFFFFFFFFFFFFFFFFFFFFFFFFFFFFFFFFF AND DUP2 MSTORE PUSH1 0x20 ADD SWAP1 DUP2 MSTORE PUSH1 0x20 ADD PUSH0 KECCAK256 PUSH1 0x6 ADD PUSH0 PUSH1 0x1 DUP4 PUSH2 0x14C0 SWAP2 SWAP1 PUSH2 0x2EC5 JUMP JUMPDEST PUSH1 0xFF AND PUSH1 0xFF AND DUP2 MSTORE PUSH1 0x20 ADD SWAP1 DUP2 MSTORE PUSH1 0x20 ADD PUSH0 KECCAK256 PUSH1 0x2 ADD PUSH0 SWAP1 SLOAD SWAP1 PUSH2 0x100 EXP SWAP1 DIV PUSH1 0xFF AND ISZERO PUSH2 0x1563 JUMPI PUSH0 PUSH0 PUSH0 CALLER PUSH20 0xFFFFFFFFFFFFFFFFFFFFFFFFFFFFFFFFFFFFFFFF AND PUSH20 0xFFFFFFFFFFFFFFFFFFFFFFFFFFFFFFFFFFFFFFFF AND DUP2 MSTORE PUSH1 0x20 ADD SWAP1 DUP2 MSTORE PUSH1 0x20 ADD PUSH0 KECCAK256 PUSH1 0x6 ADD PUSH0 PUSH1 0x1 DUP5 PUSH2 0x1536 SWAP2 SWAP1 PUSH2 0x2EC5 JUMP JUMPDEST PUSH1 0xFF AND PUSH1 0xFF AND DUP2 MSTORE PUSH1 0x20 ADD SWAP1 DUP2 MSTORE PUSH1 0x20 ADD PUSH0 KECCAK256 PUSH1 0x2 ADD PUSH0 PUSH2 0x100 EXP DUP2 SLOAD DUP2 PUSH1 0xFF MUL NOT AND SWAP1 DUP4 ISZERO ISZERO MUL OR SWAP1 SSTORE POP JUMPDEST PUSH0 PUSH2 0x156E CALLER DUP4 PUSH2 0x16FD JUMP JUMPDEST SWAP1 POP DUP1 PUSH0 PUSH0 CALLER PUSH20 0xFFFFFFFFFFFFFFFFFFFFFFFFFFFFFFFFFFFFFFFF AND PUSH20 0xFFFFFFFFFFFFFFFFFFFFFFFFFFFFFFFFFFFFFFFF AND DUP2 MSTORE PUSH1 0x20 ADD SWAP1 DUP2 MSTORE PUSH1 0x20 ADD PUSH0 KECCAK256 PUSH1 0x6 ADD PUSH0 DUP5 PUSH1 0xFF AND PUSH1 0xFF AND DUP2 MSTORE PUSH1 0x20 ADD SWAP1 DUP2 MSTORE PUSH1 0x20 ADD PUSH0 KECCAK256 PUSH0 ADD PUSH0 PUSH2 0x100 EXP DUP2 SLOAD DUP2 PUSH20 0xFFFFFFFFFFFFFFFFFFFFFFFFFFFFFFFFFFFFFFFF MUL NOT AND SWAP1 DUP4 PUSH20 0xFFFFFFFFFFFFFFFFFFFFFFFFFFFFFFFFFFFFFFFF AND MUL OR SWAP1 SSTORE POP PUSH1 0x1 PUSH0 PUSH0 CALLER PUSH20 0xFFFFFFFFFFFFFFFFFFFFFFFFFFFFFFFFFFFFFFFF AND PUSH20 0xFFFFFFFFFFFFFFFFFFFFFFFFFFFFFFFFFFFFFFFF AND DUP2 MSTORE PUSH1 0x20 ADD SWAP1 DUP2 MSTORE PUSH1 0x20 ADD PUSH0 KECCAK256 PUSH1 0x5 ADD PUSH0 DUP5 PUSH1 0xFF AND PUSH1 0xFF AND DUP2 MSTORE PUSH1 0x20 ADD SWAP1 DUP2 MSTORE PUSH1 0x20 ADD PUSH0 KECCAK256 PUSH0 PUSH2 0x100 EXP DUP2 SLOAD DUP2 PUSH1 0xFF MUL NOT AND SWAP1 DUP4 ISZERO ISZERO MUL OR SWAP1 SSTORE POP PUSH2 0x167B CALLER DUP3 DUP5 PUSH2 0x189D JUMP JUMPDEST DUP1 PUSH20 0xFFFFFFFFFFFFFFFFFFFFFFFFFFFFFFFFFFFFFFFF AND CALLER PUSH20 0xFFFFFFFFFFFFFFFFFFFFFFFFFFFFFFFFFFFFFFFF AND PUSH32 0x18A92DF19FD94D6CFFF209966673A5CA05A1C8E2BB68E097FCE2BDC2ED811119 PUSH1 0x1 DUP6 PUSH1 0x40 MLOAD PUSH2 0x16DB SWAP3 SWAP2 SWAP1 PUSH2 0x2F3B JUMP JUMPDEST PUSH1 0x40 MLOAD DUP1 SWAP2 SUB SWAP1 LOG3 POP POP POP JUMP JUMPDEST PUSH1 0x4 PUSH1 0x20 MSTORE DUP1 PUSH0 MSTORE PUSH1 0x40 PUSH0 KECCAK256 PUSH0 SWAP2 POP SWAP1 POP SLOAD DUP2 JUMP JUMPDEST PUSH0 JUMPDEST PUSH1 0x1 ISZERO PUSH2 0x1896 JUMPI PUSH0 PUSH0 PUSH0 PUSH0 DUP7 PUSH20 0xFFFFFFFFFFFFFFFFFFFFFFFFFFFFFFFFFFFFFFFF AND PUSH20 0xFFFFFFFFFFFFFFFFFFFFFFFFFFFFFFFFFFFFFFFF AND DUP2 MSTORE PUSH1 0x20 ADD SWAP1 DUP2 MSTORE PUSH1 0x20 ADD PUSH0 KECCAK256 PUSH1 0x1 ADD PUSH0 SWAP1 SLOAD SWAP1 PUSH2 0x100 EXP SWAP1 DIV PUSH20 0xFFFFFFFFFFFFFFFFFFFFFFFFFFFFFFFFFFFFFFFF AND PUSH20 0xFFFFFFFFFFFFFFFFFFFFFFFFFFFFFFFFFFFFFFFF AND PUSH20 0xFFFFFFFFFFFFFFFFFFFFFFFFFFFFFFFFFFFFFFFF AND DUP2 MSTORE PUSH1 0x20 ADD SWAP1 DUP2 MSTORE PUSH1 0x20 ADD PUSH0 KECCAK256 PUSH1 0x5 ADD PUSH0 DUP4 PUSH1 0xFF AND PUSH1 0xFF AND DUP2 MSTORE PUSH1 0x20 ADD SWAP1 DUP2 MSTORE PUSH1 0x20 ADD PUSH0 KECCAK256 PUSH0 SWAP1 SLOAD SWAP1 PUSH2 0x100 EXP SWAP1 DIV PUSH1 0xFF AND ISZERO PUSH2 0x1830 JUMPI PUSH0 PUSH0 DUP5 PUSH20 0xFFFFFFFFFFFFFFFFFFFFFFFFFFFFFFFFFFFFFFFF AND PUSH20 0xFFFFFFFFFFFFFFFFFFFFFFFFFFFFFFFFFFFFFFFF AND DUP2 MSTORE PUSH1 0x20 ADD SWAP1 DUP2 MSTORE PUSH1 0x20 ADD PUSH0 KECCAK256 PUSH1 0x1 ADD PUSH0 SWAP1 SLOAD SWAP1 PUSH2 0x100 EXP SWAP1 DIV PUSH20 0xFFFFFFFFFFFFFFFFFFFFFFFFFFFFFFFFFFFFFFFF AND SWAP1 POP PUSH2 0x1897 JUMP JUMPDEST PUSH0 PUSH0 DUP5 PUSH20 0xFFFFFFFFFFFFFFFFFFFFFFFFFFFFFFFFFFFFFFFF AND PUSH20 0xFFFFFFFFFFFFFFFFFFFFFFFFFFFFFFFFFFFFFFFF AND DUP2 MSTORE PUSH1 0x20 ADD SWAP1 DUP2 MSTORE PUSH1 0x20 ADD PUSH0 KECCAK256 PUSH1 0x1 ADD PUSH0 SWAP1 SLOAD SWAP1 PUSH2 0x100 EXP SWAP1 DIV PUSH20 0xFFFFFFFFFFFFFFFFFFFFFFFFFFFFFFFFFFFFFFFF AND SWAP3 POP PUSH2 0x16FF JUMP JUMPDEST JUMPDEST SWAP3 SWAP2 POP POP JUMP JUMPDEST PUSH0 PUSH0 DUP4 PUSH20 0xFFFFFFFFFFFFFFFFFFFFFFFFFFFFFFFFFFFFFFFF AND PUSH20 0xFFFFFFFFFFFFFFFFFFFFFFFFFFFFFFFFFFFFFFFF AND DUP2 MSTORE PUSH1 0x20 ADD SWAP1 DUP2 MSTORE PUSH1 0x20 ADD PUSH0 KECCAK256 PUSH1 0x6 ADD PUSH0 DUP3 PUSH1 0xFF AND PUSH1 0xFF AND DUP2 MSTORE PUSH1 0x20 ADD SWAP1 DUP2 MSTORE PUSH1 0x20 ADD PUSH0 KECCAK256 PUSH1 0x1 ADD DUP4 SWAP1 DUP1 PUSH1 0x1 DUP2 SLOAD ADD DUP1 DUP3 SSTORE DUP1 SWAP2 POP POP PUSH1 0x1 SWAP1 SUB SWAP1 PUSH0 MSTORE PUSH1 0x20 PUSH0 KECCAK256 ADD PUSH0 SWAP1 SWAP2 SWAP1 SWAP2 SWAP1 SWAP2 PUSH2 0x100 EXP DUP2 SLOAD DUP2 PUSH20 0xFFFFFFFFFFFFFFFFFFFFFFFFFFFFFFFFFFFFFFFF MUL NOT AND SWAP1 DUP4 PUSH20 0xFFFFFFFFFFFFFFFFFFFFFFFFFFFFFFFFFFFFFFFF AND MUL OR SWAP1 SSTORE POP PUSH1 0x3 PUSH0 PUSH0 DUP5 PUSH20 0xFFFFFFFFFFFFFFFFFFFFFFFFFFFFFFFFFFFFFFFF AND PUSH20 0xFFFFFFFFFFFFFFFFFFFFFFFFFFFFFFFFFFFFFFFF AND DUP2 MSTORE PUSH1 0x20 ADD SWAP1 DUP2 MSTORE PUSH1 0x20 ADD PUSH0 KECCAK256 PUSH1 0x6 ADD PUSH0 DUP4 PUSH1 0xFF AND PUSH1 0xFF AND DUP2 MSTORE PUSH1 0x20 ADD SWAP1 DUP2 MSTORE PUSH1 0x20 ADD PUSH0 KECCAK256 PUSH1 0x1 ADD DUP1 SLOAD SWAP1 POP LT ISZERO PUSH2 0x1A8B JUMPI DUP2 PUSH20 0xFFFFFFFFFFFFFFFFFFFFFFFFFFFFFFFFFFFFFFFF AND DUP4 PUSH20 0xFFFFFFFFFFFFFFFFFFFFFFFFFFFFFFFFFFFFFFFF AND PUSH32 0x68062C5925C4317ADF3A7095478D28B33FD8B41458BC7620B61BC46BF1B24D82 PUSH1 0x1 DUP5 PUSH0 PUSH0 DUP9 PUSH20 0xFFFFFFFFFFFFFFFFFFFFFFFFFFFFFFFFFFFFFFFF AND PUSH20 0xFFFFFFFFFFFFFFFFFFFFFFFFFFFFFFFFFFFFFFFF AND DUP2 MSTORE PUSH1 0x20 ADD SWAP1 DUP2 MSTORE PUSH1 0x20 ADD PUSH0 KECCAK256 PUSH1 0x6 ADD PUSH0 DUP8 PUSH1 0xFF AND PUSH1 0xFF AND DUP2 MSTORE PUSH1 0x20 ADD SWAP1 DUP2 MSTORE PUSH1 0x20 ADD PUSH0 KECCAK256 PUSH1 0x1 ADD DUP1 SLOAD SWAP1 POP PUSH1 0x40 MLOAD PUSH2 0x1A71 SWAP4 SWAP3 SWAP2 SWAP1 PUSH2 0x2F62 JUMP JUMPDEST PUSH1 0x40 MLOAD DUP1 SWAP2 SUB SWAP1 LOG3 PUSH2 0x1A86 DUP3 DUP5 PUSH1 0x1 DUP5 PUSH2 0x2046 JUMP JUMPDEST PUSH2 0x2041 JUMP JUMPDEST DUP2 PUSH20 0xFFFFFFFFFFFFFFFFFFFFFFFFFFFFFFFFFFFFFFFF AND DUP4 PUSH20 0xFFFFFFFFFFFFFFFFFFFFFFFFFFFFFFFFFFFFFFFF AND PUSH32 0x68062C5925C4317ADF3A7095478D28B33FD8B41458BC7620B61BC46BF1B24D82 PUSH1 0x1 DUP5 PUSH1 0x3 PUSH1 0x40 MLOAD PUSH2 0x1AEE SWAP4 SWAP3 SWAP2 SWAP1 PUSH2 0x2FD0 JUMP JUMPDEST PUSH1 0x40 MLOAD DUP1 SWAP2 SUB SWAP1 LOG3 PUSH0 PUSH0 DUP4 PUSH20 0xFFFFFFFFFFFFFFFFFFFFFFFFFFFFFFFFFFFFFFFF AND PUSH20 0xFFFFFFFFFFFFFFFFFFFFFFFFFFFFFFFFFFFFFFFF AND DUP2 MSTORE PUSH1 0x20 ADD SWAP1 DUP2 MSTORE PUSH1 0x20 ADD PUSH0 KECCAK256 PUSH1 0x6 ADD PUSH0 DUP3 PUSH1 0xFF AND PUSH1 0xFF AND DUP2 MSTORE PUSH1 0x20 ADD SWAP1 DUP2 MSTORE PUSH1 0x20 ADD PUSH0 KECCAK256 PUSH1 0x1 ADD PUSH0 PUSH2 0x1B58 SWAP2 SWAP1 PUSH2 0x237C JUMP JUMPDEST PUSH0 PUSH0 DUP4 PUSH20 0xFFFFFFFFFFFFFFFFFFFFFFFFFFFFFFFFFFFFFFFF AND PUSH20 0xFFFFFFFFFFFFFFFFFFFFFFFFFFFFFFFFFFFFFFFF AND DUP2 MSTORE PUSH1 0x20 ADD SWAP1 DUP2 MSTORE PUSH1 0x20 ADD PUSH0 KECCAK256 PUSH1 0x5 ADD PUSH0 PUSH1 0x1 DUP4 PUSH2 0x1BA5 SWAP2 SWAP1 PUSH2 0x3005 JUMP JUMPDEST PUSH1 0xFF AND PUSH1 0xFF AND DUP2 MSTORE PUSH1 0x20 ADD SWAP1 DUP2 MSTORE PUSH1 0x20 ADD PUSH0 KECCAK256 PUSH0 SWAP1 SLOAD SWAP1 PUSH2 0x100 EXP SWAP1 DIV PUSH1 0xFF AND ISZERO DUP1 ISZERO PUSH2 0x1BD9 JUMPI POP PUSH1 0xC PUSH1 0xFF AND DUP2 PUSH1 0xFF AND EQ ISZERO JUMPDEST ISZERO PUSH2 0x1C4E JUMPI PUSH1 0x1 PUSH0 PUSH0 DUP5 PUSH20 0xFFFFFFFFFFFFFFFFFFFFFFFFFFFFFFFFFFFFFFFF AND PUSH20 0xFFFFFFFFFFFFFFFFFFFFFFFFFFFFFFFFFFFFFFFF AND DUP2 MSTORE PUSH1 0x20 ADD SWAP1 DUP2 MSTORE PUSH1 0x20 ADD PUSH0 KECCAK256 PUSH1 0x6 ADD PUSH0 DUP4 PUSH1 0xFF AND PUSH1 0xFF AND DUP2 MSTORE PUSH1 0x20 ADD SWAP1 DUP2 MSTORE PUSH1 0x20 ADD PUSH0 KECCAK256 PUSH1 0x2 ADD PUSH0 PUSH2 0x100 EXP DUP2 SLOAD DUP2 PUSH1 0xFF MUL NOT AND SWAP1 DUP4 ISZERO ISZERO MUL OR SWAP1 SSTORE POP JUMPDEST PUSH32 0x0 PUSH20 0xFFFFFFFFFFFFFFFFFFFFFFFFFFFFFFFFFFFFFFFF AND DUP3 PUSH20 0xFFFFFFFFFFFFFFFFFFFFFFFFFFFFFFFFFFFFFFFF AND EQ PUSH2 0x1EE7 JUMPI PUSH0 PUSH2 0x1CAC DUP4 DUP4 PUSH2 0x16FD JUMP JUMPDEST SWAP1 POP DUP1 PUSH20 0xFFFFFFFFFFFFFFFFFFFFFFFFFFFFFFFFFFFFFFFF AND PUSH0 PUSH0 DUP6 PUSH20 0xFFFFFFFFFFFFFFFFFFFFFFFFFFFFFFFFFFFFFFFF AND PUSH20 0xFFFFFFFFFFFFFFFFFFFFFFFFFFFFFFFFFFFFFFFF AND DUP2 MSTORE PUSH1 0x20 ADD SWAP1 DUP2 MSTORE PUSH1 0x20 ADD PUSH0 KECCAK256 PUSH1 0x6 ADD PUSH0 DUP5 PUSH1 0xFF AND PUSH1 0xFF AND DUP2 MSTORE PUSH1 0x20 ADD SWAP1 DUP2 MSTORE PUSH1 0x20 ADD PUSH0 KECCAK256 PUSH0 ADD PUSH0 SWAP1 SLOAD SWAP1 PUSH2 0x100 EXP SWAP1 DIV PUSH20 0xFFFFFFFFFFFFFFFFFFFFFFFFFFFFFFFFFFFFFFFF AND PUSH20 0xFFFFFFFFFFFFFFFFFFFFFFFFFFFFFFFFFFFFFFFF AND EQ PUSH2 0x1DEB JUMPI DUP1 PUSH0 PUSH0 DUP6 PUSH20 0xFFFFFFFFFFFFFFFFFFFFFFFFFFFFFFFFFFFFFFFF AND PUSH20 0xFFFFFFFFFFFFFFFFFFFFFFFFFFFFFFFFFFFFFFFF AND DUP2 MSTORE PUSH1 0x20 ADD SWAP1 DUP2 MSTORE PUSH1 0x20 ADD PUSH0 KECCAK256 PUSH1 0x6 ADD PUSH0 DUP5 PUSH1 0xFF AND PUSH1 0xFF AND DUP2 MSTORE PUSH1 0x20 ADD SWAP1 DUP2 MSTORE PUSH1 0x20 ADD PUSH0 KECCAK256 PUSH0 ADD PUSH0 PUSH2 0x100 EXP DUP2 SLOAD DUP2 PUSH20 0xFFFFFFFFFFFFFFFFFFFFFFFFFFFFFFFFFFFFFFFF MUL NOT AND SWAP1 DUP4 PUSH20 0xFFFFFFFFFFFFFFFFFFFFFFFFFFFFFFFFFFFFFFFF AND MUL OR SWAP1 SSTORE POP JUMPDEST PUSH0 PUSH0 DUP5 PUSH20 0xFFFFFFFFFFFFFFFFFFFFFFFFFFFFFFFFFFFFFFFF AND PUSH20 0xFFFFFFFFFFFFFFFFFFFFFFFFFFFFFFFFFFFFFFFF AND DUP2 MSTORE PUSH1 0x20 ADD SWAP1 DUP2 MSTORE PUSH1 0x20 ADD PUSH0 KECCAK256 PUSH1 0x6 ADD PUSH0 DUP4 PUSH1 0xFF AND PUSH1 0xFF AND DUP2 MSTORE PUSH1 0x20 ADD SWAP1 DUP2 MSTORE PUSH1 0x20 ADD PUSH0 KECCAK256 PUSH1 0x3 ADD PUSH0 DUP2 SLOAD DUP1 SWAP3 SWAP2 SWAP1 PUSH2 0x1E52 SWAP1 PUSH2 0x296C JUMP JUMPDEST SWAP2 SWAP1 POP SSTORE POP DUP4 PUSH20 0xFFFFFFFFFFFFFFFFFFFFFFFFFFFFFFFFFFFFFFFF AND DUP2 PUSH20 0xFFFFFFFFFFFFFFFFFFFFFFFFFFFFFFFFFFFFFFFF AND DUP5 PUSH20 0xFFFFFFFFFFFFFFFFFFFFFFFFFFFFFFFFFFFFFFFF AND PUSH32 0xA00C953EFF38EC1B71E7FE060B2AB8DF0BBE5354319FBDDE4FBDAFD6324386A6 PUSH1 0x1 DUP7 PUSH1 0x40 MLOAD PUSH2 0x1ECE SWAP3 SWAP2 SWAP1 PUSH2 0x2F3B JUMP JUMPDEST PUSH1 0x40 MLOAD DUP1 SWAP2 SUB SWAP1 LOG4 PUSH2 0x1EE1 DUP4 DUP3 DUP5 PUSH2 0x189D JUMP JUMPDEST POP PUSH2 0x2040 JUMP JUMPDEST PUSH2 0x1F14 PUSH32 0x0 DUP5 PUSH1 0x1 DUP5 PUSH2 0x2046 JUMP JUMPDEST PUSH0 PUSH0 PUSH32 0x0 PUSH20 0xFFFFFFFFFFFFFFFFFFFFFFFFFFFFFFFFFFFFFFFF AND PUSH20 0xFFFFFFFFFFFFFFFFFFFFFFFFFFFFFFFFFFFFFFFF AND DUP2 MSTORE PUSH1 0x20 ADD SWAP1 DUP2 MSTORE PUSH1 0x20 ADD PUSH0 KECCAK256 PUSH1 0x6 ADD PUSH0 DUP3 PUSH1 0xFF AND PUSH1 0xFF AND DUP2 MSTORE PUSH1 0x20 ADD SWAP1 DUP2 MSTORE PUSH1 0x20 ADD PUSH0 KECCAK256 PUSH1 0x3 ADD PUSH0 DUP2 SLOAD DUP1 SWAP3 SWAP2 SWAP1 PUSH2 0x1F9B SWAP1 PUSH2 0x296C JUMP JUMPDEST SWAP2 SWAP1 POP SSTORE POP DUP3 PUSH20 0xFFFFFFFFFFFFFFFFFFFFFFFFFFFFFFFFFFFFFFFF AND PUSH0 PUSH20 0xFFFFFFFFFFFFFFFFFFFFFFFFFFFFFFFFFFFFFFFF AND PUSH32 0x0 PUSH20 0xFFFFFFFFFFFFFFFFFFFFFFFFFFFFFFFFFFFFFFFF AND PUSH32 0xA00C953EFF38EC1B71E7FE060B2AB8DF0BBE5354319FBDDE4FBDAFD6324386A6 PUSH1 0x1 DUP6 PUSH1 0x40 MLOAD PUSH2 0x2037 SWAP3 SWAP2 SWAP1 PUSH2 0x2F3B JUMP JUMPDEST PUSH1 0x40 MLOAD DUP1 SWAP2 SUB SWAP1 LOG4 JUMPDEST JUMPDEST POP POP POP JUMP JUMPDEST PUSH0 PUSH0 PUSH2 0x2054 DUP7 DUP7 DUP7 DUP7 PUSH2 0x21FD JUMP JUMPDEST SWAP2 POP SWAP2 POP PUSH0 PUSH1 0x4 PUSH0 DUP6 PUSH1 0xFF AND PUSH1 0xFF AND DUP2 MSTORE PUSH1 0x20 ADD SWAP1 DUP2 MSTORE PUSH1 0x20 ADD PUSH0 KECCAK256 SLOAD SWAP1 POP DUP1 PUSH0 PUSH0 DUP6 PUSH20 0xFFFFFFFFFFFFFFFFFFFFFFFFFFFFFFFFFFFFFFFF AND PUSH20 0xFFFFFFFFFFFFFFFFFFFFFFFFFFFFFFFFFFFFFFFF AND DUP2 MSTORE PUSH1 0x20 ADD SWAP1 DUP2 MSTORE PUSH1 0x20 ADD PUSH0 KECCAK256 PUSH1 0x3 ADD PUSH0 DUP3 DUP3 SLOAD PUSH2 0x20C1 SWAP2 SWAP1 PUSH2 0x3039 JUMP JUMPDEST SWAP3 POP POP DUP2 SWAP1 SSTORE POP DUP1 PUSH0 PUSH0 DUP6 PUSH20 0xFFFFFFFFFFFFFFFFFFFFFFFFFFFFFFFFFFFFFFFF AND PUSH20 0xFFFFFFFFFFFFFFFFFFFFFFFFFFFFFFFFFFFFFFFF AND DUP2 MSTORE PUSH1 0x20 ADD SWAP1 DUP2 MSTORE PUSH1 0x20 ADD PUSH0 KECCAK256 PUSH1 0x4 ADD PUSH0 DUP3 DUP3 SLOAD PUSH2 0x2116 SWAP2 SWAP1 PUSH2 0x3039 JUMP JUMPDEST SWAP3 POP POP DUP2 SWAP1 SSTORE POP DUP6 PUSH20 0xFFFFFFFFFFFFFFFFFFFFFFFFFFFFFFFFFFFFFFFF AND DUP4 PUSH20 0xFFFFFFFFFFFFFFFFFFFFFFFFFFFFFFFFFFFFFFFF AND PUSH32 0xA2A8C50F6CC6BBF4AA97A6E8C3A27861DC25DE71B4E015C94FA0073C35B0DD91 DUP8 DUP8 DUP6 PUSH1 0x40 MLOAD PUSH2 0x217E SWAP4 SWAP3 SWAP2 SWAP1 PUSH2 0x306C JUMP JUMPDEST PUSH1 0x40 MLOAD DUP1 SWAP2 SUB SWAP1 LOG3 DUP2 ISZERO PUSH2 0x21F4 JUMPI DUP3 PUSH20 0xFFFFFFFFFFFFFFFFFFFFFFFFFFFFFFFFFFFFFFFF AND DUP7 PUSH20 0xFFFFFFFFFFFFFFFFFFFFFFFFFFFFFFFFFFFFFFFF AND PUSH32 0xF0DDC65C0D411F042F723DCFA1B7D13E85A35B7B70761D447C6500411CACF328 DUP8 DUP8 PUSH1 0x40 MLOAD PUSH2 0x21EB SWAP3 SWAP2 SWAP1 PUSH2 0x30A1 JUMP JUMPDEST PUSH1 0x40 MLOAD DUP1 SWAP2 SUB SWAP1 LOG3 JUMPDEST POP POP POP POP POP POP POP JUMP JUMPDEST PUSH0 PUSH0 PUSH0 DUP7 SWAP1 POP PUSH0 JUMPDEST PUSH1 0x1 ISZERO PUSH2 0x2370 JUMPI PUSH0 PUSH0 DUP4 PUSH20 0xFFFFFFFFFFFFFFFFFFFFFFFFFFFFFFFFFFFFFFFF AND PUSH20 0xFFFFFFFFFFFFFFFFFFFFFFFFFFFFFFFFFFFFFFFF AND DUP2 MSTORE PUSH1 0x20 ADD SWAP1 DUP2 MSTORE PUSH1 0x20 ADD PUSH0 KECCAK256 PUSH1 0x6 ADD PUSH0 DUP7 PUSH1 0xFF AND PUSH1 0xFF AND DUP2 MSTORE PUSH1 0x20 ADD SWAP1 DUP2 MSTORE PUSH1 0x20 ADD PUSH0 KECCAK256 PUSH1 0x2 ADD PUSH0 SWAP1 SLOAD SWAP1 PUSH2 0x100 EXP SWAP1 DIV PUSH1 0xFF AND ISZERO PUSH2 0x235E JUMPI DUP7 PUSH20 0xFFFFFFFFFFFFFFFFFFFFFFFFFFFFFFFFFFFFFFFF AND DUP3 PUSH20 0xFFFFFFFFFFFFFFFFFFFFFFFFFFFFFFFFFFFFFFFF AND PUSH32 0xFC0CB63F8DBD6B20CEB84A3C5358A41576A1479E6ECD040B4B985525DC09A709 PUSH1 0x1 DUP9 PUSH1 0x40 MLOAD PUSH2 0x22D5 SWAP3 SWAP2 SWAP1 PUSH2 0x2F3B JUMP JUMPDEST PUSH1 0x40 MLOAD DUP1 SWAP2 SUB SWAP1 LOG3 PUSH1 0x1 SWAP1 POP PUSH0 PUSH0 DUP4 PUSH20 0xFFFFFFFFFFFFFFFFFFFFFFFFFFFFFFFFFFFFFFFF AND PUSH20 0xFFFFFFFFFFFFFFFFFFFFFFFFFFFFFFFFFFFFFFFF AND DUP2 MSTORE PUSH1 0x20 ADD SWAP1 DUP2 MSTORE PUSH1 0x20 ADD PUSH0 KECCAK256 PUSH1 0x6 ADD PUSH0 DUP7 PUSH1 0xFF AND PUSH1 0xFF AND DUP2 MSTORE PUSH1 0x20 ADD SWAP1 DUP2 MSTORE PUSH1 0x20 ADD PUSH0 KECCAK256 PUSH0 ADD PUSH0 SWAP1 SLOAD SWAP1 PUSH2 0x100 EXP SWAP1 DIV PUSH20 0xFFFFFFFFFFFFFFFFFFFFFFFFFFFFFFFFFFFFFFFF AND SWAP2 POP PUSH2 0x236B JUMP JUMPDEST DUP2 DUP2 SWAP4 POP SWAP4 POP POP POP PUSH2 0x2373 JUMP JUMPDEST PUSH2 0x2205 JUMP JUMPDEST POP POP JUMPDEST SWAP5 POP SWAP5 SWAP3 POP POP POP JUMP JUMPDEST POP DUP1 SLOAD PUSH0 DUP3 SSTORE SWAP1 PUSH0 MSTORE PUSH1 0x20 PUSH0 KECCAK256 SWAP1 DUP2 ADD SWAP1 PUSH2 0x2397 SWAP2 SWAP1 PUSH2 0x239A JUMP JUMPDEST POP JUMP JUMPDEST JUMPDEST DUP1 DUP3 GT ISZERO PUSH2 0x23B1 JUMPI PUSH0 DUP2 PUSH0 SWAP1 SSTORE POP PUSH1 0x1 ADD PUSH2 0x239B JUMP JUMPDEST POP SWAP1 JUMP JUMPDEST PUSH0 PUSH0 REVERT JUMPDEST PUSH0 DUP2 SWAP1 POP SWAP2 SWAP1 POP JUMP JUMPDEST PUSH2 0x23CB DUP2 PUSH2 0x23B9 JUMP JUMPDEST DUP2 EQ PUSH2 0x23D5 JUMPI PUSH0 PUSH0 REVERT JUMPDEST POP JUMP JUMPDEST PUSH0 DUP2 CALLDATALOAD SWAP1 POP PUSH2 0x23E6 DUP2 PUSH2 0x23C2 JUMP JUMPDEST SWAP3 SWAP2 POP POP JUMP JUMPDEST PUSH0 PUSH1 0x20 DUP3 DUP5 SUB SLT ISZERO PUSH2 0x2401 JUMPI PUSH2 0x2400 PUSH2 0x23B5 JUMP JUMPDEST JUMPDEST PUSH0 PUSH2 0x240E DUP5 DUP3 DUP6 ADD PUSH2 0x23D8 JUMP JUMPDEST SWAP2 POP POP SWAP3 SWAP2 POP POP JUMP JUMPDEST PUSH0 PUSH20 0xFFFFFFFFFFFFFFFFFFFFFFFFFFFFFFFFFFFFFFFF DUP3 AND SWAP1 POP SWAP2 SWAP1 POP JUMP JUMPDEST PUSH0 PUSH2 0x2440 DUP3 PUSH2 0x2417 JUMP JUMPDEST SWAP1 POP SWAP2 SWAP1 POP JUMP JUMPDEST PUSH2 0x2450 DUP2 PUSH2 0x2436 JUMP JUMPDEST DUP2 EQ PUSH2 0x245A JUMPI PUSH0 PUSH0 REVERT JUMPDEST POP JUMP JUMPDEST PUSH0 DUP2 CALLDATALOAD SWAP1 POP PUSH2 0x246B DUP2 PUSH2 0x2447 JUMP JUMPDEST SWAP3 SWAP2 POP POP JUMP JUMPDEST PUSH0 PUSH1 0xFF DUP3 AND SWAP1 POP SWAP2 SWAP1 POP JUMP JUMPDEST PUSH2 0x2486 DUP2 PUSH2 0x2471 JUMP JUMPDEST DUP2 EQ PUSH2 0x2490 JUMPI PUSH0 PUSH0 REVERT JUMPDEST POP JUMP JUMPDEST PUSH0 DUP2 CALLDATALOAD SWAP1 POP PUSH2 0x24A1 DUP2 PUSH2 0x247D JUMP JUMPDEST SWAP3 SWAP2 POP POP JUMP JUMPDEST PUSH0 PUSH0 PUSH1 0x40 DUP4 DUP6 SUB SLT ISZERO PUSH2 0x24BD JUMPI PUSH2 0x24BC PUSH2 0x23B5 JUMP JUMPDEST JUMPDEST PUSH0 PUSH2 0x24CA DUP6 DUP3 DUP7 ADD PUSH2 0x245D JUMP JUMPDEST SWAP3 POP POP PUSH1 0x20 PUSH2 0x24DB DUP6 DUP3 DUP7 ADD PUSH2 0x2493 JUMP JUMPDEST SWAP2 POP POP SWAP3 POP SWAP3 SWAP1 POP JUMP JUMPDEST PUSH0 DUP2 ISZERO ISZERO SWAP1 POP SWAP2 SWAP1 POP JUMP JUMPDEST PUSH2 0x24F9 DUP2 PUSH2 0x24E5 JUMP JUMPDEST DUP3 MSTORE POP POP JUMP JUMPDEST PUSH0 PUSH1 0x20 DUP3 ADD SWAP1 POP PUSH2 0x2512 PUSH0 DUP4 ADD DUP5 PUSH2 0x24F0 JUMP JUMPDEST SWAP3 SWAP2 POP POP JUMP JUMPDEST PUSH2 0x2521 DUP2 PUSH2 0x2471 JUMP JUMPDEST DUP3 MSTORE POP POP JUMP JUMPDEST PUSH0 PUSH1 0x20 DUP3 ADD SWAP1 POP PUSH2 0x253A PUSH0 DUP4 ADD DUP5 PUSH2 0x2518 JUMP JUMPDEST SWAP3 SWAP2 POP POP JUMP JUMPDEST PUSH2 0x2549 DUP2 PUSH2 0x2436 JUMP JUMPDEST DUP3 MSTORE POP POP JUMP JUMPDEST PUSH0 PUSH1 0x20 DUP3 ADD SWAP1 POP PUSH2 0x2562 PUSH0 DUP4 ADD DUP5 PUSH2 0x2540 JUMP JUMPDEST SWAP3 SWAP2 POP POP JUMP JUMPDEST PUSH2 0x2571 DUP2 PUSH2 0x23B9 JUMP JUMPDEST DUP3 MSTORE POP POP JUMP JUMPDEST PUSH0 PUSH1 0x20 DUP3 ADD SWAP1 POP PUSH2 0x258A PUSH0 DUP4 ADD DUP5 PUSH2 0x2568 JUMP JUMPDEST SWAP3 SWAP2 POP POP JUMP JUMPDEST PUSH0 PUSH1 0x20 DUP3 DUP5 SUB SLT ISZERO PUSH2 0x25A5 JUMPI PUSH2 0x25A4 PUSH2 0x23B5 JUMP JUMPDEST JUMPDEST PUSH0 PUSH2 0x25B2 DUP5 DUP3 DUP6 ADD PUSH2 0x245D JUMP JUMPDEST SWAP2 POP POP SWAP3 SWAP2 POP POP JUMP JUMPDEST PUSH0 PUSH1 0x40 DUP3 ADD SWAP1 POP PUSH2 0x25CE PUSH0 DUP4 ADD DUP6 PUSH2 0x2568 JUMP JUMPDEST PUSH2 0x25DB PUSH1 0x20 DUP4 ADD DUP5 PUSH2 0x2568 JUMP JUMPDEST SWAP4 SWAP3 POP POP POP JUMP JUMPDEST PUSH0 DUP2 MLOAD SWAP1 POP SWAP2 SWAP1 POP JUMP JUMPDEST PUSH0 DUP3 DUP3 MSTORE PUSH1 0x20 DUP3 ADD SWAP1 POP SWAP3 SWAP2 POP POP JUMP JUMPDEST PUSH0 DUP2 SWAP1 POP PUSH1 0x20 DUP3 ADD SWAP1 POP SWAP2 SWAP1 POP JUMP JUMPDEST PUSH2 0x2614 DUP2 PUSH2 0x2436 JUMP JUMPDEST DUP3 MSTORE POP POP JUMP JUMPDEST PUSH0 PUSH2 0x2625 DUP4 DUP4 PUSH2 0x260B JUMP JUMPDEST PUSH1 0x20 DUP4 ADD SWAP1 POP SWAP3 SWAP2 POP POP JUMP JUMPDEST PUSH0 PUSH1 0x20 DUP3 ADD SWAP1 POP SWAP2 SWAP1 POP JUMP JUMPDEST PUSH0 PUSH2 0x2647 DUP3 PUSH2 0x25E2 JUMP JUMPDEST PUSH2 0x2651 DUP2 DUP6 PUSH2 0x25EC JUMP JUMPDEST SWAP4 POP PUSH2 0x265C DUP4 PUSH2 0x25FC JUMP JUMPDEST DUP1 PUSH0 JUMPDEST DUP4 DUP2 LT ISZERO PUSH2 0x268C JUMPI DUP2 MLOAD PUSH2 0x2673 DUP9 DUP3 PUSH2 0x261A JUMP JUMPDEST SWAP8 POP PUSH2 0x267E DUP4 PUSH2 0x2631 JUMP JUMPDEST SWAP3 POP POP PUSH1 0x1 DUP2 ADD SWAP1 POP PUSH2 0x265F JUMP JUMPDEST POP DUP6 SWAP4 POP POP POP POP SWAP3 SWAP2 POP POP JUMP JUMPDEST PUSH0 PUSH1 0x60 DUP3 ADD SWAP1 POP PUSH2 0x26AC PUSH0 DUP4 ADD DUP7 PUSH2 0x2540 JUMP JUMPDEST DUP2 DUP2 SUB PUSH1 0x20 DUP4 ADD MSTORE PUSH2 0x26BE DUP2 DUP6 PUSH2 0x263D JUMP JUMPDEST SWAP1 POP PUSH2 0x26CD PUSH1 0x40 DUP4 ADD DUP5 PUSH2 0x24F0 JUMP JUMPDEST SWAP5 SWAP4 POP POP POP POP JUMP JUMPDEST PUSH0 PUSH1 0xA0 DUP3 ADD SWAP1 POP PUSH2 0x26E8 PUSH0 DUP4 ADD DUP9 PUSH2 0x2568 JUMP JUMPDEST PUSH2 0x26F5 PUSH1 0x20 DUP4 ADD DUP8 PUSH2 0x2540 JUMP JUMPDEST PUSH2 0x2702 PUSH1 0x40 DUP4 ADD DUP7 PUSH2 0x2568 JUMP JUMPDEST PUSH2 0x270F PUSH1 0x60 DUP4 ADD DUP6 PUSH2 0x2568 JUMP JUMPDEST PUSH2 0x271C PUSH1 0x80 DUP4 ADD DUP5 PUSH2 0x2568 JUMP JUMPDEST SWAP7 SWAP6 POP POP POP POP POP POP JUMP JUMPDEST PUSH0 PUSH0 PUSH1 0x40 DUP4 DUP6 SUB SLT ISZERO PUSH2 0x273C JUMPI PUSH2 0x273B PUSH2 0x23B5 JUMP JUMPDEST JUMPDEST PUSH0 PUSH2 0x2749 DUP6 DUP3 DUP7 ADD PUSH2 0x2493 JUMP JUMPDEST SWAP3 POP POP PUSH1 0x20 PUSH2 0x275A DUP6 DUP3 DUP7 ADD PUSH2 0x2493 JUMP JUMPDEST SWAP2 POP POP SWAP3 POP SWAP3 SWAP1 POP JUMP JUMPDEST PUSH0 PUSH1 0x20 DUP3 DUP5 SUB SLT ISZERO PUSH2 0x2779 JUMPI PUSH2 0x2778 PUSH2 0x23B5 JUMP JUMPDEST JUMPDEST PUSH0 PUSH2 0x2786 DUP5 DUP3 DUP6 ADD PUSH2 0x2493 JUMP JUMPDEST SWAP2 POP POP SWAP3 SWAP2 POP POP JUMP JUMPDEST PUSH0 DUP3 DUP3 MSTORE PUSH1 0x20 DUP3 ADD SWAP1 POP SWAP3 SWAP2 POP POP JUMP JUMPDEST PUSH32 0x726567697374726174696F6E20636F737420302E303500000000000000000000 PUSH0 DUP3 ADD MSTORE POP JUMP JUMPDEST PUSH0 PUSH2 0x27D3 PUSH1 0x16 DUP4 PUSH2 0x278F JUMP JUMPDEST SWAP2 POP PUSH2 0x27DE DUP3 PUSH2 0x279F JUMP JUMPDEST PUSH1 0x20 DUP3 ADD SWAP1 POP SWAP2 SWAP1 POP JUMP JUMPDEST PUSH0 PUSH1 0x20 DUP3 ADD SWAP1 POP DUP2 DUP2 SUB PUSH0 DUP4 ADD MSTORE PUSH2 0x2800 DUP2 PUSH2 0x27C7 JUMP JUMPDEST SWAP1 POP SWAP2 SWAP1 POP JUMP JUMPDEST PUSH32 0x7573657220657869737473000000000000000000000000000000000000000000 PUSH0 DUP3 ADD MSTORE POP JUMP JUMPDEST PUSH0 PUSH2 0x283B PUSH1 0xB DUP4 PUSH2 0x278F JUMP JUMPDEST SWAP2 POP PUSH2 0x2846 DUP3 PUSH2 0x2807 JUMP JUMPDEST PUSH1 0x20 DUP3 ADD SWAP1 POP SWAP2 SWAP1 POP JUMP JUMPDEST PUSH0 PUSH1 0x20 DUP3 ADD SWAP1 POP DUP2 DUP2 SUB PUSH0 DUP4 ADD MSTORE PUSH2 0x2868 DUP2 PUSH2 0x282F JUMP JUMPDEST SWAP1 POP SWAP2 SWAP1 POP JUMP JUMPDEST PUSH32 0x7265666572726572206E6F742065786973747300000000000000000000000000 PUSH0 DUP3 ADD MSTORE POP JUMP JUMPDEST PUSH0 PUSH2 0x28A3 PUSH1 0x13 DUP4 PUSH2 0x278F JUMP JUMPDEST SWAP2 POP PUSH2 0x28AE DUP3 PUSH2 0x286F JUMP JUMPDEST PUSH1 0x20 DUP3 ADD SWAP1 POP SWAP2 SWAP1 POP JUMP JUMPDEST PUSH0 PUSH1 0x20 DUP3 ADD SWAP1 POP DUP2 DUP2 SUB PUSH0 DUP4 ADD MSTORE PUSH2 0x28D0 DUP2 PUSH2 0x2897 JUMP JUMPDEST SWAP1 POP SWAP2 SWAP1 POP JUMP JUMPDEST PUSH32 0x63616E6E6F74206265206120636F6E7472616374000000000000000000000000 PUSH0 DUP3 ADD MSTORE POP JUMP JUMPDEST PUSH0 PUSH2 0x290B PUSH1 0x14 DUP4 PUSH2 0x278F JUMP JUMPDEST SWAP2 POP PUSH2 0x2916 DUP3 PUSH2 0x28D7 JUMP JUMPDEST PUSH1 0x20 DUP3 ADD SWAP1 POP SWAP2 SWAP1 POP JUMP JUMPDEST PUSH0 PUSH1 0x20 DUP3 ADD SWAP1 POP DUP2 DUP2 SUB PUSH0 DUP4 ADD MSTORE PUSH2 0x2938 DUP2 PUSH2 0x28FF JUMP JUMPDEST SWAP1 POP SWAP2 SWAP1 POP JUMP JUMPDEST PUSH32 0x4E487B7100000000000000000000000000000000000000000000000000000000 PUSH0 MSTORE PUSH1 0x11 PUSH1 0x4 MSTORE PUSH1 0x24 PUSH0 REVERT JUMPDEST PUSH0 PUSH2 0x2976 DUP3 PUSH2 0x23B9 JUMP JUMPDEST SWAP2 POP PUSH32 0xFFFFFFFFFFFFFFFFFFFFFFFFFFFFFFFFFFFFFFFFFFFFFFFFFFFFFFFFFFFFFFFF DUP3 SUB PUSH2 0x29A8 JUMPI PUSH2 0x29A7 PUSH2 0x293F JUMP JUMPDEST JUMPDEST PUSH1 0x1 DUP3 ADD SWAP1 POP SWAP2 SWAP1 POP JUMP JUMPDEST PUSH32 0x55736572206E6F74207265676973746572656400000000000000000000000000 PUSH0 DUP3 ADD MSTORE POP JUMP JUMPDEST PUSH0 PUSH2 0x29E7 PUSH1 0x13 DUP4 PUSH2 0x278F JUMP JUMPDEST SWAP2 POP PUSH2 0x29F2 DUP3 PUSH2 0x29B3 JUMP JUMPDEST PUSH1 0x20 DUP3 ADD SWAP1 POP SWAP2 SWAP1 POP JUMP JUMPDEST PUSH0 PUSH1 0x20 DUP3 ADD SWAP1 POP DUP2 DUP2 SUB PUSH0 DUP4 ADD MSTORE PUSH2 0x2A14 DUP2 PUSH2 0x29DB JUMP JUMPDEST SWAP1 POP SWAP2 SWAP1 POP JUMP JUMPDEST PUSH32 0x416D6F756E74206D75737420626520706F736974697665000000000000000000 PUSH0 DUP3 ADD MSTORE POP JUMP JUMPDEST PUSH0 PUSH2 0x2A4F PUSH1 0x17 DUP4 PUSH2 0x278F JUMP JUMPDEST SWAP2 POP PUSH2 0x2A5A DUP3 PUSH2 0x2A1B JUMP JUMPDEST PUSH1 0x20 DUP3 ADD SWAP1 POP SWAP2 SWAP1 POP JUMP JUMPDEST PUSH0 PUSH1 0x20 DUP3 ADD SWAP1 POP DUP2 DUP2 SUB PUSH0 DUP4 ADD MSTORE PUSH2 0x2A7C DUP2 PUSH2 0x2A43 JUMP JUMPDEST SWAP1 POP SWAP2 SWAP1 POP JUMP JUMPDEST PUSH32 0x496E73756666696369656E742062616C616E6365000000000000000000000000 PUSH0 DUP3 ADD MSTORE POP JUMP JUMPDEST PUSH0 PUSH2 0x2AB7 PUSH1 0x14 DUP4 PUSH2 0x278F JUMP JUMPDEST SWAP2 POP PUSH2 0x2AC2 DUP3 PUSH2 0x2A83 JUMP JUMPDEST PUSH1 0x20 DUP3 ADD SWAP1 POP SWAP2 SWAP1 POP JUMP JUMPDEST PUSH0 PUSH1 0x20 DUP3 ADD SWAP1 POP DUP2 DUP2 SUB PUSH0 DUP4 ADD MSTORE PUSH2 0x2AE4 DUP2 PUSH2 0x2AAB JUMP JUMPDEST SWAP1 POP SWAP2 SWAP1 POP JUMP JUMPDEST PUSH0 PUSH2 0x2AF5 DUP3 PUSH2 0x23B9 JUMP JUMPDEST SWAP2 POP PUSH2 0x2B00 DUP4 PUSH2 0x23B9 JUMP JUMPDEST SWAP3 POP DUP3 DUP3 SUB SWAP1 POP DUP2 DUP2 GT ISZERO PUSH2 0x2B18 JUMPI PUSH2 0x2B17 PUSH2 0x293F JUMP JUMPDEST JUMPDEST SWAP3 SWAP2 POP POP JUMP JUMPDEST PUSH0 DUP2 SWAP1 POP SWAP3 SWAP2 POP POP JUMP JUMPDEST POP JUMP JUMPDEST PUSH0 PUSH2 0x2B36 PUSH0 DUP4 PUSH2 0x2B1E JUMP JUMPDEST SWAP2 POP PUSH2 0x2B41 DUP3 PUSH2 0x2B28 JUMP JUMPDEST PUSH0 DUP3 ADD SWAP1 POP SWAP2 SWAP1 POP JUMP JUMPDEST PUSH0 PUSH2 0x2B55 DUP3 PUSH2 0x2B2B JUMP JUMPDEST SWAP2 POP DUP2 SWAP1 POP SWAP2 SWAP1 POP JUMP JUMPDEST PUSH32 0x5769746864726177616C206661696C6564000000000000000000000000000000 PUSH0 DUP3 ADD MSTORE POP JUMP JUMPDEST PUSH0 PUSH2 0x2B93 PUSH1 0x11 DUP4 PUSH2 0x278F JUMP JUMPDEST SWAP2 POP PUSH2 0x2B9E DUP3 PUSH2 0x2B5F JUMP JUMPDEST PUSH1 0x20 DUP3 ADD SWAP1 POP SWAP2 SWAP1 POP JUMP JUMPDEST PUSH0 PUSH1 0x20 DUP3 ADD SWAP1 POP DUP2 DUP2 SUB PUSH0 DUP4 ADD MSTORE PUSH2 0x2BC0 DUP2 PUSH2 0x2B87 JUMP JUMPDEST SWAP1 POP SWAP2 SWAP1 POP JUMP JUMPDEST PUSH32 0x4E6F2062616C616E636520746F20776974686472617700000000000000000000 PUSH0 DUP3 ADD MSTORE POP JUMP JUMPDEST PUSH0 PUSH2 0x2BFB PUSH1 0x16 DUP4 PUSH2 0x278F JUMP JUMPDEST SWAP2 POP PUSH2 0x2C06 DUP3 PUSH2 0x2BC7 JUMP JUMPDEST PUSH1 0x20 DUP3 ADD SWAP1 POP SWAP2 SWAP1 POP JUMP JUMPDEST PUSH0 PUSH1 0x20 DUP3 ADD SWAP1 POP DUP2 DUP2 SUB PUSH0 DUP4 ADD MSTORE PUSH2 0x2C28 DUP2 PUSH2 0x2BEF JUMP JUMPDEST SWAP1 POP SWAP2 SWAP1 POP JUMP JUMPDEST PUSH32 0x5573657220646F6573206E6F7420657869737400000000000000000000000000 PUSH0 DUP3 ADD MSTORE POP JUMP JUMPDEST PUSH0 PUSH2 0x2C63 PUSH1 0x13 DUP4 PUSH2 0x278F JUMP JUMPDEST SWAP2 POP PUSH2 0x2C6E DUP3 PUSH2 0x2C2F JUMP JUMPDEST PUSH1 0x20 DUP3 ADD SWAP1 POP SWAP2 SWAP1 POP JUMP JUMPDEST PUSH0 PUSH1 0x20 DUP3 ADD SWAP1 POP DUP2 DUP2 SUB PUSH0 DUP4 ADD MSTORE PUSH2 0x2C90 DUP2 PUSH2 0x2C57 JUMP JUMPDEST SWAP1 POP SWAP2 SWAP1 POP JUMP JUMPDEST PUSH32 0x75736572206973206E6F74206578697374732E20526567697374657220666972 PUSH0 DUP3 ADD MSTORE PUSH32 0x73742E0000000000000000000000000000000000000000000000000000000000 PUSH1 0x20 DUP3 ADD MSTORE POP JUMP JUMPDEST PUSH0 PUSH2 0x2CF1 PUSH1 0x23 DUP4 PUSH2 0x278F JUMP JUMPDEST SWAP2 POP PUSH2 0x2CFC DUP3 PUSH2 0x2C97 JUMP JUMPDEST PUSH1 0x40 DUP3 ADD SWAP1 POP SWAP2 SWAP1 POP JUMP JUMPDEST PUSH0 PUSH1 0x20 DUP3 ADD SWAP1 POP DUP2 DUP2 SUB PUSH0 DUP4 ADD MSTORE PUSH2 0x2D1E DUP2 PUSH2 0x2CE5 JUMP JUMPDEST SWAP1 POP SWAP2 SWAP1 POP JUMP JUMPDEST PUSH32 0x696E76616C6964206D6174726978000000000000000000000000000000000000 PUSH0 DUP3 ADD MSTORE POP JUMP JUMPDEST PUSH0 PUSH2 0x2D59 PUSH1 0xE DUP4 PUSH2 0x278F JUMP JUMPDEST SWAP2 POP PUSH2 0x2D64 DUP3 PUSH2 0x2D25 JUMP JUMPDEST PUSH1 0x20 DUP3 ADD SWAP1 POP SWAP2 SWAP1 POP JUMP JUMPDEST PUSH0 PUSH1 0x20 DUP3 ADD SWAP1 POP DUP2 DUP2 SUB PUSH0 DUP4 ADD MSTORE PUSH2 0x2D86 DUP2 PUSH2 0x2D4D JUMP JUMPDEST SWAP1 POP SWAP2 SWAP1 POP JUMP JUMPDEST PUSH32 0x696E76616C696420707269636500000000000000000000000000000000000000 PUSH0 DUP3 ADD MSTORE POP JUMP JUMPDEST PUSH0 PUSH2 0x2DC1 PUSH1 0xD DUP4 PUSH2 0x278F JUMP JUMPDEST SWAP2 POP PUSH2 0x2DCC DUP3 PUSH2 0x2D8D JUMP JUMPDEST PUSH1 0x20 DUP3 ADD SWAP1 POP SWAP2 SWAP1 POP JUMP JUMPDEST PUSH0 PUSH1 0x20 DUP3 ADD SWAP1 POP DUP2 DUP2 SUB PUSH0 DUP4 ADD MSTORE PUSH2 0x2DEE DUP2 PUSH2 0x2DB5 JUMP JUMPDEST SWAP1 POP SWAP2 SWAP1 POP JUMP JUMPDEST PUSH32 0x696E76616C6964206C6576656C00000000000000000000000000000000000000 PUSH0 DUP3 ADD MSTORE POP JUMP JUMPDEST PUSH0 PUSH2 0x2E29 PUSH1 0xD DUP4 PUSH2 0x278F JUMP JUMPDEST SWAP2 POP PUSH2 0x2E34 DUP3 PUSH2 0x2DF5 JUMP JUMPDEST PUSH1 0x20 DUP3 ADD SWAP1 POP SWAP2 SWAP1 POP JUMP JUMPDEST PUSH0 PUSH1 0x20 DUP3 ADD SWAP1 POP DUP2 DUP2 SUB PUSH0 DUP4 ADD MSTORE PUSH2 0x2E56 DUP2 PUSH2 0x2E1D JUMP JUMPDEST SWAP1 POP SWAP2 SWAP1 POP JUMP JUMPDEST PUSH32 0x6C6576656C20616C726561647920616374697661746564000000000000000000 PUSH0 DUP3 ADD MSTORE POP JUMP JUMPDEST PUSH0 PUSH2 0x2E91 PUSH1 0x17 DUP4 PUSH2 0x278F JUMP JUMPDEST SWAP2 POP PUSH2 0x2E9C DUP3 PUSH2 0x2E5D JUMP JUMPDEST PUSH1 0x20 DUP3 ADD SWAP1 POP SWAP2 SWAP1 POP JUMP JUMPDEST PUSH0 PUSH1 0x20 DUP3 ADD SWAP1 POP DUP2 DUP2 SUB PUSH0 DUP4 ADD MSTORE PUSH2 0x2EBE DUP2 PUSH2 0x2E85 JUMP JUMPDEST SWAP1 POP SWAP2 SWAP1 POP JUMP JUMPDEST PUSH0 PUSH2 0x2ECF DUP3 PUSH2 0x2471 JUMP JUMPDEST SWAP2 POP PUSH2 0x2EDA DUP4 PUSH2 0x2471 JUMP JUMPDEST SWAP3 POP DUP3 DUP3 SUB SWAP1 POP PUSH1 0xFF DUP2 GT ISZERO PUSH2 0x2EF3 JUMPI PUSH2 0x2EF2 PUSH2 0x293F JUMP JUMPDEST JUMPDEST SWAP3 SWAP2 POP POP JUMP JUMPDEST PUSH0 DUP2 SWAP1 POP SWAP2 SWAP1 POP JUMP JUMPDEST PUSH0 DUP2 SWAP1 POP SWAP2 SWAP1 POP JUMP JUMPDEST PUSH0 PUSH2 0x2F25 PUSH2 0x2F20 PUSH2 0x2F1B DUP5 PUSH2 0x2EF9 JUMP JUMPDEST PUSH2 0x2F02 JUMP JUMPDEST PUSH2 0x2471 JUMP JUMPDEST SWAP1 POP SWAP2 SWAP1 POP JUMP JUMPDEST PUSH2 0x2F35 DUP2 PUSH2 0x2F0B JUMP JUMPDEST DUP3 MSTORE POP POP JUMP JUMPDEST PUSH0 PUSH1 0x40 DUP3 ADD SWAP1 POP PUSH2 0x2F4E PUSH0 DUP4 ADD DUP6 PUSH2 0x2F2C JUMP JUMPDEST PUSH2 0x2F5B PUSH1 0x20 DUP4 ADD DUP5 PUSH2 0x2518 JUMP JUMPDEST SWAP4 SWAP3 POP POP POP JUMP JUMPDEST PUSH0 PUSH1 0x60 DUP3 ADD SWAP1 POP PUSH2 0x2F75 PUSH0 DUP4 ADD DUP7 PUSH2 0x2F2C JUMP JUMPDEST PUSH2 0x2F82 PUSH1 0x20 DUP4 ADD DUP6 PUSH2 0x2518 JUMP JUMPDEST PUSH2 0x2F8F PUSH1 0x40 DUP4 ADD DUP5 PUSH2 0x2518 JUMP JUMPDEST SWAP5 SWAP4 POP POP POP POP JUMP JUMPDEST PUSH0 DUP2 SWAP1 POP SWAP2 SWAP1 POP JUMP JUMPDEST PUSH0 PUSH2 0x2FBA PUSH2 0x2FB5 PUSH2 0x2FB0 DUP5 PUSH2 0x2F97 JUMP JUMPDEST PUSH2 0x2F02 JUMP JUMPDEST PUSH2 0x2471 JUMP JUMPDEST SWAP1 POP SWAP2 SWAP1 POP JUMP JUMPDEST PUSH2 0x2FCA DUP2 PUSH2 0x2FA0 JUMP JUMPDEST DUP3 MSTORE POP POP JUMP JUMPDEST PUSH0 PUSH1 0x60 DUP3 ADD SWAP1 POP PUSH2 0x2FE3 PUSH0 DUP4 ADD DUP7 PUSH2 0x2F2C JUMP JUMPDEST PUSH2 0x2FF0 PUSH1 0x20 DUP4 ADD DUP6 PUSH2 0x2518 JUMP JUMPDEST PUSH2 0x2FFD PUSH1 0x40 DUP4 ADD DUP5 PUSH2 0x2FC1 JUMP JUMPDEST SWAP5 SWAP4 POP POP POP POP JUMP JUMPDEST PUSH0 PUSH2 0x300F DUP3 PUSH2 0x2471 JUMP JUMPDEST SWAP2 POP PUSH2 0x301A DUP4 PUSH2 0x2471 JUMP JUMPDEST SWAP3 POP DUP3 DUP3 ADD SWAP1 POP PUSH1 0xFF DUP2 GT ISZERO PUSH2 0x3033 JUMPI PUSH2 0x3032 PUSH2 0x293F JUMP JUMPDEST JUMPDEST SWAP3 SWAP2 POP POP JUMP JUMPDEST PUSH0 PUSH2 0x3043 DUP3 PUSH2 0x23B9 JUMP JUMPDEST SWAP2 POP PUSH2 0x304E DUP4 PUSH2 0x23B9 JUMP JUMPDEST SWAP3 POP DUP3 DUP3 ADD SWAP1 POP DUP1 DUP3 GT ISZERO PUSH2 0x3066 JUMPI PUSH2 0x3065 PUSH2 0x293F JUMP JUMPDEST JUMPDEST SWAP3 SWAP2 POP POP JUMP JUMPDEST PUSH0 PUSH1 0x60 DUP3 ADD SWAP1 POP PUSH2 0x307F PUSH0 DUP4 ADD DUP7 PUSH2 0x2518 JUMP JUMPDEST PUSH2 0x308C PUSH1 0x20 DUP4 ADD DUP6 PUSH2 0x2518 JUMP JUMPDEST PUSH2 0x3099 PUSH1 0x40 DUP4 ADD DUP5 PUSH2 0x2568 JUMP JUMPDEST SWAP5 SWAP4 POP POP POP POP JUMP JUMPDEST PUSH0 PUSH1 0x40 DUP3 ADD SWAP1 POP PUSH2 0x30B4 PUSH0 DUP4 ADD DUP6 PUSH2 0x2518 JUMP JUMPDEST PUSH2 0x30C1 PUSH1 0x20 DUP4 ADD DUP5 PUSH2 0x2518 JUMP JUMPDEST SWAP4 SWAP3 POP POP POP JUMP INVALID LOG2 PUSH5 0x6970667358 0x22 SLT KECCAK256 0xD DUP11 SLOAD NOT DUP16 EXTCALL RETURN SWAP15 ISZERO ORIGIN XOR PUSH10 0xA4CD43E179DEF7A06F6D SWAPN 0xC7 0xFC DUPN 0x3E PUSH29 0x8DCA15C264736F6C634300081E00330000000000000000000000000000 "
				},
				"gasEstimates": {
					"creation": {
						"codeDepositCost": "2508400",
						"executionCost": "infinite",
						"totalCost": "infinite"
					},
					"external": {
						"": "infinite",
						"LAST_LEVEL()": "399",
						"buyNewLevel(uint8,uint8)": "infinite",
						"findFreeX3Referrer(address,uint8)": "infinite",
						"getContractBalance()": "379",
						"getUserBalance(address)": "infinite",
						"idToAddress(uint256)": "2917",
						"isUserExists(address)": "2870",
						"lastUserId()": "2448",
						"levelPrice(uint8)": "2848",
						"owner()": "infinite",
						"registrationExt(address)": "infinite",
						"userIds(uint256)": "2894",
						"users(address)": "infinite",
						"usersActiveX3Levels(address,uint8)": "3185",
						"usersX3Matrix(address,uint8)": "infinite",
						"withdraw()": "infinite",
						"withdrawAmount(uint256)": "infinite"
					},
					"internal": {
						"bytesToAddress(bytes memory)": "infinite",
						"findEthReceiver(address,address,uint8,uint8)": "infinite",
						"registration(address,address)": "infinite",
						"sendETHDividends(address,address,uint8,uint8)": "infinite",
						"updateX3Referrer(address,address,uint8)": "infinite"
					}
				},
				"methodIdentifiers": {
					"LAST_LEVEL()": "29c70400",
					"buyNewLevel(uint8,uint8)": "be389d57",
					"findFreeX3Referrer(address,uint8)": "fa45323d",
					"getContractBalance()": "6f9fb98a",
					"getUserBalance(address)": "47734892",
					"idToAddress(uint256)": "2a2d0c47",
					"isUserExists(address)": "509222cd",
					"lastUserId()": "348d4487",
					"levelPrice(uint8)": "ecabdf79",
					"owner()": "8da5cb5b",
					"registrationExt(address)": "797eee24",
					"userIds(uint256)": "4635fd68",
					"users(address)": "a87430ba",
					"usersActiveX3Levels(address,uint8)": "07279e2a",
					"usersX3Matrix(address,uint8)": "83ba31b2",
					"withdraw()": "3ccfd60b",
					"withdrawAmount(uint256)": "0562b9f7"
				}
			},
			"storageLayout": {
				"storage": [
					{
						"astId": 44,
						"contract": "contracts/SmartMatrixForsage.sol:SmartMatrixForsage",
						"label": "users",
						"offset": 0,
						"slot": "0",
						"type": "t_mapping(t_address,t_struct(User)23_storage)"
					},
					{
						"astId": 49,
						"contract": "contracts/SmartMatrixForsage.sol:SmartMatrixForsage",
						"label": "idToAddress",
						"offset": 0,
						"slot": "1",
						"type": "t_mapping(t_uint256,t_address)"
					},
					{
						"astId": 54,
						"contract": "contracts/SmartMatrixForsage.sol:SmartMatrixForsage",
						"label": "userIds",
						"offset": 0,
						"slot": "2",
						"type": "t_mapping(t_uint256,t_address)"
					},
					{
						"astId": 58,
						"contract": "contracts/SmartMatrixForsage.sol:SmartMatrixForsage",
						"label": "lastUserId",
						"offset": 0,
						"slot": "3",
						"type": "t_uint256"
					},
					{
						"astId": 66,
						"contract": "contracts/SmartMatrixForsage.sol:SmartMatrixForsage",
						"label": "levelPrice",
						"offset": 0,
						"slot": "4",
						"type": "t_mapping(t_uint8,t_uint256)"
					}
				],
				"types": {
					"t_address": {
						"encoding": "inplace",
						"label": "address",
						"numberOfBytes": "20"
					},
					"t_array(t_address)dyn_storage": {
						"base": "t_address",
						"encoding": "dynamic_array",
						"label": "address[]",
						"numberOfBytes": "32"
					},
					"t_bool": {
						"encoding": "inplace",
						"label": "bool",
						"numberOfBytes": "1"
					},
					"t_mapping(t_address,t_struct(User)23_storage)": {
						"encoding": "mapping",
						"key": "t_address",
						"label": "mapping(address => struct SmartMatrixForsage.User)",
						"numberOfBytes": "32",
						"value": "t_struct(User)23_storage"
					},
					"t_mapping(t_uint256,t_address)": {
						"encoding": "mapping",
						"key": "t_uint256",
						"label": "mapping(uint256 => address)",
						"numberOfBytes": "32",
						"value": "t_address"
					},
					"t_mapping(t_uint8,t_bool)": {
						"encoding": "mapping",
						"key": "t_uint8",
						"label": "mapping(uint8 => bool)",
						"numberOfBytes": "32",
						"value": "t_bool"
					},
					"t_mapping(t_uint8,t_struct(X3)34_storage)": {
						"encoding": "mapping",
						"key": "t_uint8",
						"label": "mapping(uint8 => struct SmartMatrixForsage.X3)",
						"numberOfBytes": "32",
						"value": "t_struct(X3)34_storage"
					},
					"t_mapping(t_uint8,t_uint256)": {
						"encoding": "mapping",
						"key": "t_uint8",
						"label": "mapping(uint8 => uint256)",
						"numberOfBytes": "32",
						"value": "t_uint256"
					},
					"t_struct(User)23_storage": {
						"encoding": "inplace",
						"label": "struct SmartMatrixForsage.User",
						"members": [
							{
								"astId": 5,
								"contract": "contracts/SmartMatrixForsage.sol:SmartMatrixForsage",
								"label": "id",
								"offset": 0,
								"slot": "0",
								"type": "t_uint256"
							},
							{
								"astId": 7,
								"contract": "contracts/SmartMatrixForsage.sol:SmartMatrixForsage",
								"label": "referrer",
								"offset": 0,
								"slot": "1",
								"type": "t_address"
							},
							{
								"astId": 9,
								"contract": "contracts/SmartMatrixForsage.sol:SmartMatrixForsage",
								"label": "partnersCount",
								"offset": 0,
								"slot": "2",
								"type": "t_uint256"
							},
							{
								"astId": 11,
								"contract": "contracts/SmartMatrixForsage.sol:SmartMatrixForsage",
								"label": "totalEarned",
								"offset": 0,
								"slot": "3",
								"type": "t_uint256"
							},
							{
								"astId": 13,
								"contract": "contracts/SmartMatrixForsage.sol:SmartMatrixForsage",
								"label": "availableBalance",
								"offset": 0,
								"slot": "4",
								"type": "t_uint256"
							},
							{
								"astId": 17,
								"contract": "contracts/SmartMatrixForsage.sol:SmartMatrixForsage",
								"label": "activeX3Levels",
								"offset": 0,
								"slot": "5",
								"type": "t_mapping(t_uint8,t_bool)"
							},
							{
								"astId": 22,
								"contract": "contracts/SmartMatrixForsage.sol:SmartMatrixForsage",
								"label": "x3Matrix",
								"offset": 0,
								"slot": "6",
								"type": "t_mapping(t_uint8,t_struct(X3)34_storage)"
							}
						],
						"numberOfBytes": "224"
					},
					"t_struct(X3)34_storage": {
						"encoding": "inplace",
						"label": "struct SmartMatrixForsage.X3",
						"members": [
							{
								"astId": 26,
								"contract": "contracts/SmartMatrixForsage.sol:SmartMatrixForsage",
								"label": "currentReferrer",
								"offset": 0,
								"slot": "0",
								"type": "t_address"
							},
							{
								"astId": 29,
								"contract": "contracts/SmartMatrixForsage.sol:SmartMatrixForsage",
								"label": "referrals",
								"offset": 0,
								"slot": "1",
								"type": "t_array(t_address)dyn_storage"
							},
							{
								"astId": 31,
								"contract": "contracts/SmartMatrixForsage.sol:SmartMatrixForsage",
								"label": "blocked",
								"offset": 0,
								"slot": "2",
								"type": "t_bool"
							},
							{
								"astId": 33,
								"contract": "contracts/SmartMatrixForsage.sol:SmartMatrixForsage",
								"label": "reinvestCount",
								"offset": 0,
								"slot": "3",
								"type": "t_uint256"
							}
						],
						"numberOfBytes": "128"
					},
					"t_uint256": {
						"encoding": "inplace",
						"label": "uint256",
						"numberOfBytes": "32"
					},
					"t_uint8": {
						"encoding": "inplace",
						"label": "uint8",
						"numberOfBytes": "1"
					}
				}
			},
			"userdoc": {
				"kind": "user",
				"methods": {
					"LAST_LEVEL()": {
						"notice": "Total number of levels"
					},
					"buyNewLevel(uint8,uint8)": {
						"notice": "Purchase a new level"
					},
					"constructor": {
						"notice": "Initialize contract with owner"
					},
					"findFreeX3Referrer(address,uint8)": {
						"notice": "Find the first active referrer up the chain for a level"
					},
					"getContractBalance()": {
						"notice": "Get total ETH held by contract"
					},
					"getUserBalance(address)": {
						"notice": "Get user's balance information"
					},
					"idToAddress(uint256)": {
						"notice": "Address lookup by user ID"
					},
					"isUserExists(address)": {
						"notice": "Check if user exists"
					},
					"lastUserId()": {
						"notice": "Next user ID to assign"
					},
					"levelPrice(uint8)": {
						"notice": "Price in wei for each level"
					},
					"owner()": {
						"notice": "Contract owner (immutable after deployment)"
					},
					"registrationExt(address)": {
						"notice": "Register a new user under a referrer"
					},
					"userIds(uint256)": {
						"notice": "Address lookup by user ID (duplicate for compatibility)"
					},
					"users(address)": {
						"notice": "User data by address"
					},
					"usersActiveX3Levels(address,uint8)": {
						"notice": "Check if level is active for user"
					},
					"usersX3Matrix(address,uint8)": {
						"notice": "Get matrix information for user at level"
					},
					"withdraw()": {
						"notice": "Withdraw entire available balance"
					},
					"withdrawAmount(uint256)": {
						"notice": "Withdraw specific amount"
					}
				},
				"notice": "Multi-level marketing smart contract with X3 matrix structure",
				"version": 1
			}
		}
	}
}