{
	"contracts/Vesting.sol": {
		"Vesting": {
			"abi": [
				{
					"inputs": [
						{
							"internalType": "address",
							"name": "_tokenContract",
							"type": "address"
						}
					],
					"stateMutability": "nonpayable",
					"type": "constructor"
				},
				{
					"anonymous": false,
					"inputs": [
						{
							"indexed": false,
							"internalType": "address",
							"name": "_to",
							"type": "address"
						},
						{
							"indexed": false,
							"internalType": "uint256",
							"name": "_amount",
							"type": "uint256"
						}
					],
					"name": "withdraw",
					"type": "event"
				},
				{
					"inputs": [
						{
							"internalType": "address",
							"name": "",
							"type": "address"
						}
					],
					"name": "VestingTime",
					"outputs": [
						{
							"internalType": "uint256",
							"name": "",
							"type": "uint256"
						}
					],
					"stateMutability": "view",
					"type": "function"
				},
				{
					"inputs": [
						{
							"internalType": "address",
							"name": "user",
							"type": "address"
						}
					],
					"name": "ViewVestingAmount",
					"outputs": [
						{
							"internalType": "uint256",
							"name": "",
							"type": "uint256"
						}
					],
					"stateMutability": "view",
					"type": "function"
				},
				{
					"inputs": [
						{
							"internalType": "address",
							"name": "",
							"type": "address"
						}
					],
					"name": "completedMoth",
					"outputs": [
						{
							"internalType": "uint256",
							"name": "",
							"type": "uint256"
						}
					],
					"stateMutability": "view",
					"type": "function"
				},
				{
					"inputs": [],
					"name": "decimals",
					"outputs": [
						{
							"internalType": "uint256",
							"name": "",
							"type": "uint256"
						}
					],
					"stateMutability": "view",
					"type": "function"
				},
				{
					"inputs": [],
					"name": "deployTimestamp",
					"outputs": [
						{
							"internalType": "uint256",
							"name": "",
							"type": "uint256"
						}
					],
					"stateMutability": "view",
					"type": "function"
				},
				{
					"inputs": [
						{
							"internalType": "address",
							"name": "",
							"type": "address"
						}
					],
					"name": "lockingWallet",
					"outputs": [
						{
							"internalType": "uint256",
							"name": "",
							"type": "uint256"
						}
					],
					"stateMutability": "view",
					"type": "function"
				},
				{
					"inputs": [],
					"name": "onemonth",
					"outputs": [
						{
							"internalType": "uint256",
							"name": "",
							"type": "uint256"
						}
					],
					"stateMutability": "view",
					"type": "function"
				},
				{
					"inputs": [],
					"name": "owner",
					"outputs": [
						{
							"internalType": "address",
							"name": "",
							"type": "address"
						}
					],
					"stateMutability": "view",
					"type": "function"
				},
				{
					"inputs": [],
					"name": "tokenContract",
					"outputs": [
						{
							"internalType": "address",
							"name": "",
							"type": "address"
						}
					],
					"stateMutability": "view",
					"type": "function"
				},
				{
					"inputs": [
						{
							"internalType": "address",
							"name": "",
							"type": "address"
						}
					],
					"name": "unlockDate",
					"outputs": [
						{
							"internalType": "uint256",
							"name": "",
							"type": "uint256"
						}
					],
					"stateMutability": "view",
					"type": "function"
				},
				{
					"inputs": [
						{
							"internalType": "address",
							"name": "user",
							"type": "address"
						}
					],
					"name": "viewLeftAmount",
					"outputs": [
						{
							"internalType": "uint256",
							"name": "",
							"type": "uint256"
						}
					],
					"stateMutability": "view",
					"type": "function"
				},
				{
					"inputs": [
						{
							"internalType": "address",
							"name": "user",
							"type": "address"
						}
					],
					"name": "viewLeftMonth",
					"outputs": [
						{
							"internalType": "uint256",
							"name": "",
							"type": "uint256"
						}
					],
					"stateMutability": "view",
					"type": "function"
				},
				{
					"inputs": [],
					"name": "withdrawTokens",
					"outputs": [
						{
							"internalType": "bool",
							"name": "",
							"type": "bool"
						}
					],
					"stateMutability": "nonpayable",
					"type": "function"
				},
				{
					"inputs": [
						{
							"internalType": "address",
							"name": "",
							"type": "address"
						},
						{
							"internalType": "uint256",
							"name": "",
							"type": "uint256"
						}
					],
					"name": "withdrawdetails",
					"outputs": [
						{
							"internalType": "uint256",
							"name": "time",
							"type": "uint256"
						},
						{
							"internalType": "uint256",
							"name": "amount",
							"type": "uint256"
						}
					],
					"stateMutability": "view",
					"type": "function"
				}
			],
			"devdoc": {
				"events": {
					"withdraw(address,uint256)": {
						"details": "To show contract event  ."
					}
				},
				"kind": "dev",
				"methods": {
					"ViewVestingAmount(address)": {
						"details": "ViewVestingAmount shows available Team Allocation amount of particular wallet parameters : user (wallet Address)              "
					},
					"viewLeftAmount(address)": {
						"details": "returns left vesting amount."
					},
					"viewLeftMonth(address)": {
						"details": "returns left vesting month."
					},
					"withdrawTokens()": {
						"details": "Team Allocation amount release in particular category wallet."
					}
				},
				"version": 1
			},
			"evm": {
				"assembly": "    /* \"contracts/Vesting.sol\":407:5704  contract Vesting { ... */\n  mstore(0x40, 0x80)\n    /* \"contracts/Vesting.sol\":829:830  0 */\n  0x00\n    /* \"contracts/Vesting.sol\":792:831  address public tokenContract=address(0) */\n  0x06\n  exp(0x0100, 0x00)\n  dup2\n  sload\n  dup2\n  0xffffffffffffffffffffffffffffffffffffffff\n  mul\n  not\n  and\n  swap1\n  dup4\n  0xffffffffffffffffffffffffffffffffffffffff\n  and\n  mul\n  or\n  swap1\n  sstore\n  pop\n    /* \"contracts/Vesting.sol\":861:876  31*1*(24*60*60) */\n  0x28de80\n    /* \"contracts/Vesting.sol\":837:877  uint public onemonth = (31*1*(24*60*60)) */\n  0x07\n  sstore\n    /* \"contracts/Vesting.sol\":974:2905  constructor( address _tokenContract) {... */\n  callvalue\n  dup1\n  iszero\n  tag_1\n  jumpi\n  0x00\n  dup1\n  revert\ntag_1:\n  pop\n  mload(0x40)\n  sub(codesize, bytecodeSize)\n  dup1\n  bytecodeSize\n  dup4\n  codecopy\n  dup2\n  dup2\n  add\n  0x40\n  mstore\n  dup2\n  add\n  swap1\n  tag_2\n  swap2\n  swap1\n  tag_3\n  jump\t// in\ntag_2:\n    /* \"contracts/Vesting.sol\":1027:1037  msg.sender */\n  caller\n    /* \"contracts/Vesting.sol\":1021:1026  owner */\n  0x00\n  dup1\n    /* \"contracts/Vesting.sol\":1021:1037  owner=msg.sender */\n  0x0100\n  exp\n  dup2\n  sload\n  dup2\n  0xffffffffffffffffffffffffffffffffffffffff\n  mul\n  not\n  and\n  swap1\n  dup4\n  0xffffffffffffffffffffffffffffffffffffffff\n  and\n  mul\n  or\n  swap1\n  sstore\n  pop\n    /* \"contracts/Vesting.sol\":1062:1076  _tokenContract */\n  dup1\n    /* \"contracts/Vesting.sol\":1047:1060  tokenContract */\n  0x06\n  0x00\n    /* \"contracts/Vesting.sol\":1047:1076  tokenContract= _tokenContract */\n  0x0100\n  exp\n  dup2\n  sload\n  dup2\n  0xffffffffffffffffffffffffffffffffffffffff\n  mul\n  not\n  and\n  swap1\n  dup4\n  0xffffffffffffffffffffffffffffffffffffffff\n  and\n  mul\n  or\n  swap1\n  sstore\n  pop\n    /* \"contracts/Vesting.sol\":1173:1188  block.timestamp */\n  timestamp\n    /* \"contracts/Vesting.sol\":1155:1170  deployTimestamp */\n  0x05\n    /* \"contracts/Vesting.sol\":1155:1188  deployTimestamp = block.timestamp */\n  dup2\n  swap1\n  sstore\n  pop\n    /* \"contracts/Vesting.sol\":1223:1236  tokenContract */\n  0x06\n  0x00\n  swap1\n  sload\n  swap1\n  0x0100\n  exp\n  swap1\n  div\n  0xffffffffffffffffffffffffffffffffffffffff\n  and\n    /* \"contracts/Vesting.sol\":1217:1246  Token(tokenContract).decimals */\n  0xffffffffffffffffffffffffffffffffffffffff\n  and\n  0x313ce567\n    /* \"contracts/Vesting.sol\":1217:1248  Token(tokenContract).decimals() */\n  mload(0x40)\n  dup2\n  0xffffffff\n  and\n  0xe0\n  shl\n  dup2\n  mstore\n  0x04\n  add\n  0x20\n  mload(0x40)\n  dup1\n  dup4\n  sub\n  dup2\n  dup7\n  gas\n  staticcall\n  iszero\n  dup1\n  iszero\n  tag_7\n  jumpi\n  returndatasize\n  0x00\n  dup1\n  returndatacopy\n  revert(0x00, returndatasize)\ntag_7:\n  pop\n  pop\n  pop\n  pop\n  mload(0x40)\n  returndatasize\n  not(0x1f)\n  0x1f\n  dup3\n  add\n  and\n  dup3\n  add\n  dup1\n  0x40\n  mstore\n  pop\n  dup2\n  add\n  swap1\n  tag_8\n  swap2\n  swap1\n  tag_9\n  jump\t// in\ntag_8:\n    /* \"contracts/Vesting.sol\":1208:1248  decimals=Token(tokenContract).decimals() */\n  0xff\n  and\n    /* \"contracts/Vesting.sol\":1208:1216  decimals */\n  0x08\n    /* \"contracts/Vesting.sol\":1208:1248  decimals=Token(tokenContract).decimals() */\n  dup2\n  swap1\n  sstore\n  pop\n    /* \"contracts/Vesting.sol\":1358:1366  decimals */\n  sload(0x08)\n    /* \"contracts/Vesting.sol\":1354:1356  10 */\n  0x0a\n    /* \"contracts/Vesting.sol\":1354:1366  10**decimals */\n  tag_10\n  swap2\n  swap1\n  tag_11\n  jump\t// in\ntag_10:\n    /* \"contracts/Vesting.sol\":1340:1351  37500000000 */\n  0x08bb2c9700\n    /* \"contracts/Vesting.sol\":1340:1367  37500000000* (10**decimals) */\n  tag_12\n  swap2\n  swap1\n  tag_13\n  jump\t// in\ntag_12:\n    /* \"contracts/Vesting.sol\":1282:1295  lockingWallet */\n  0x01\n    /* \"contracts/Vesting.sol\":1282:1339  lockingWallet[0x1CEA248182955AE4f10700Ad51ABfBc901520b9f] */\n  0x00\n    /* \"contracts/Vesting.sol\":1296:1338  0x1CEA248182955AE4f10700Ad51ABfBc901520b9f */\n  0x1cea248182955ae4f10700ad51abfbc901520b9f\n    /* \"contracts/Vesting.sol\":1282:1339  lockingWallet[0x1CEA248182955AE4f10700Ad51ABfBc901520b9f] */\n  0xffffffffffffffffffffffffffffffffffffffff\n  and\n  0xffffffffffffffffffffffffffffffffffffffff\n  and\n  dup2\n  mstore\n  0x20\n  add\n  swap1\n  dup2\n  mstore\n  0x20\n  add\n  0x00\n  keccak256\n    /* \"contracts/Vesting.sol\":1282:1367  lockingWallet[0x1CEA248182955AE4f10700Ad51ABfBc901520b9f]=37500000000* (10**decimals) */\n  dup2\n  swap1\n  sstore\n  pop\n    /* \"contracts/Vesting.sol\":1469:1471  24 */\n  0x18\n    /* \"contracts/Vesting.sol\":1413:1424  VestingTime */\n  0x02\n    /* \"contracts/Vesting.sol\":1413:1468  VestingTime[0x1CEA248182955AE4f10700Ad51ABfBc901520b9f] */\n  0x00\n    /* \"contracts/Vesting.sol\":1425:1467  0x1CEA248182955AE4f10700Ad51ABfBc901520b9f */\n  0x1cea248182955ae4f10700ad51abfbc901520b9f\n    /* \"contracts/Vesting.sol\":1413:1468  VestingTime[0x1CEA248182955AE4f10700Ad51ABfBc901520b9f] */\n  0xffffffffffffffffffffffffffffffffffffffff\n  and\n  0xffffffffffffffffffffffffffffffffffffffff\n  and\n  dup2\n  mstore\n  0x20\n  add\n  swap1\n  dup2\n  mstore\n  0x20\n  add\n  0x00\n  keccak256\n    /* \"contracts/Vesting.sol\":1413:1471  VestingTime[0x1CEA248182955AE4f10700Ad51ABfBc901520b9f]=24 */\n  dup2\n  swap1\n  sstore\n  pop\n    /* \"contracts/Vesting.sol\":1633:1641  24*60*60 */\n  0x015180\n    /* \"contracts/Vesting.sol\":1576:1587  VestingTime */\n  0x02\n    /* \"contracts/Vesting.sol\":1576:1631  VestingTime[0x1CEA248182955AE4f10700Ad51ABfBc901520b9f] */\n  0x00\n    /* \"contracts/Vesting.sol\":1588:1630  0x1CEA248182955AE4f10700Ad51ABfBc901520b9f */\n  0x1cea248182955ae4f10700ad51abfbc901520b9f\n    /* \"contracts/Vesting.sol\":1576:1631  VestingTime[0x1CEA248182955AE4f10700Ad51ABfBc901520b9f] */\n  0xffffffffffffffffffffffffffffffffffffffff\n  and\n  0xffffffffffffffffffffffffffffffffffffffff\n  and\n  dup2\n  mstore\n  0x20\n  add\n  swap1\n  dup2\n  mstore\n  0x20\n  add\n  0x00\n  keccak256\n  sload\n    /* \"contracts/Vesting.sol\":1573:1575  31 */\n  0x1f\n    /* \"contracts/Vesting.sol\":1573:1631  31*VestingTime[0x1CEA248182955AE4f10700Ad51ABfBc901520b9f] */\n  tag_14\n  swap2\n  swap1\n  tag_13\n  jump\t// in\ntag_14:\n    /* \"contracts/Vesting.sol\":1573:1642  31*VestingTime[0x1CEA248182955AE4f10700Ad51ABfBc901520b9f]*(24*60*60) */\n  tag_15\n  swap2\n  swap1\n  tag_13\n  jump\t// in\ntag_15:\n    /* \"contracts/Vesting.sol\":1554:1569  deployTimestamp */\n  sload(0x05)\n    /* \"contracts/Vesting.sol\":1554:1643  deployTimestamp + (31*VestingTime[0x1CEA248182955AE4f10700Ad51ABfBc901520b9f]*(24*60*60)) */\n  tag_16\n  swap2\n  swap1\n  tag_17\n  jump\t// in\ntag_16:\n    /* \"contracts/Vesting.sol\":1496:1506  unlockDate */\n  0x03\n    /* \"contracts/Vesting.sol\":1496:1550  unlockDate[0x1CEA248182955AE4f10700Ad51ABfBc901520b9f] */\n  0x00\n    /* \"contracts/Vesting.sol\":1507:1549  0x1CEA248182955AE4f10700Ad51ABfBc901520b9f */\n  0x1cea248182955ae4f10700ad51abfbc901520b9f\n    /* \"contracts/Vesting.sol\":1496:1550  unlockDate[0x1CEA248182955AE4f10700Ad51ABfBc901520b9f] */\n  0xffffffffffffffffffffffffffffffffffffffff\n  and\n  0xffffffffffffffffffffffffffffffffffffffff\n  and\n  dup2\n  mstore\n  0x20\n  add\n  swap1\n  dup2\n  mstore\n  0x20\n  add\n  0x00\n  keccak256\n    /* \"contracts/Vesting.sol\":1496:1643  unlockDate[0x1CEA248182955AE4f10700Ad51ABfBc901520b9f] =  deployTimestamp + (31*VestingTime[0x1CEA248182955AE4f10700Ad51ABfBc901520b9f]*(24*60*60)) */\n  dup2\n  swap1\n  sstore\n  pop\n    /* \"contracts/Vesting.sol\":1768:1776  decimals */\n  sload(0x08)\n    /* \"contracts/Vesting.sol\":1764:1766  10 */\n  0x0a\n    /* \"contracts/Vesting.sol\":1764:1776  10**decimals */\n  tag_18\n  swap2\n  swap1\n  tag_11\n  jump\t// in\ntag_18:\n    /* \"contracts/Vesting.sol\":1750:1761  37500000000 */\n  0x08bb2c9700\n    /* \"contracts/Vesting.sol\":1750:1777  37500000000* (10**decimals) */\n  tag_19\n  swap2\n  swap1\n  tag_13\n  jump\t// in\ntag_19:\n    /* \"contracts/Vesting.sol\":1692:1705  lockingWallet */\n  0x01\n    /* \"contracts/Vesting.sol\":1692:1749  lockingWallet[0x7d8Eab143ab39B9fbE4d5c692eb908c8DF7f82a4] */\n  0x00\n    /* \"contracts/Vesting.sol\":1706:1748  0x7d8Eab143ab39B9fbE4d5c692eb908c8DF7f82a4 */\n  0x7d8eab143ab39b9fbe4d5c692eb908c8df7f82a4\n    /* \"contracts/Vesting.sol\":1692:1749  lockingWallet[0x7d8Eab143ab39B9fbE4d5c692eb908c8DF7f82a4] */\n  0xffffffffffffffffffffffffffffffffffffffff\n  and\n  0xffffffffffffffffffffffffffffffffffffffff\n  and\n  dup2\n  mstore\n  0x20\n  add\n  swap1\n  dup2\n  mstore\n  0x20\n  add\n  0x00\n  keccak256\n    /* \"contracts/Vesting.sol\":1692:1777  lockingWallet[0x7d8Eab143ab39B9fbE4d5c692eb908c8DF7f82a4]=37500000000* (10**decimals) */\n  dup2\n  swap1\n  sstore\n  pop\n    /* \"contracts/Vesting.sol\":1879:1881  36 */\n  0x24\n    /* \"contracts/Vesting.sol\":1823:1834  VestingTime */\n  0x02\n    /* \"contracts/Vesting.sol\":1823:1878  VestingTime[0x7d8Eab143ab39B9fbE4d5c692eb908c8DF7f82a4] */\n  0x00\n    /* \"contracts/Vesting.sol\":1835:1877  0x7d8Eab143ab39B9fbE4d5c692eb908c8DF7f82a4 */\n  0x7d8eab143ab39b9fbe4d5c692eb908c8df7f82a4\n    /* \"contracts/Vesting.sol\":1823:1878  VestingTime[0x7d8Eab143ab39B9fbE4d5c692eb908c8DF7f82a4] */\n  0xffffffffffffffffffffffffffffffffffffffff\n  and\n  0xffffffffffffffffffffffffffffffffffffffff\n  and\n  dup2\n  mstore\n  0x20\n  add\n  swap1\n  dup2\n  mstore\n  0x20\n  add\n  0x00\n  keccak256\n    /* \"contracts/Vesting.sol\":1823:1881  VestingTime[0x7d8Eab143ab39B9fbE4d5c692eb908c8DF7f82a4]=36 */\n  dup2\n  swap1\n  sstore\n  pop\n    /* \"contracts/Vesting.sol\":2043:2051  24*60*60 */\n  0x015180\n    /* \"contracts/Vesting.sol\":1986:1997  VestingTime */\n  0x02\n    /* \"contracts/Vesting.sol\":1986:2041  VestingTime[0x7d8Eab143ab39B9fbE4d5c692eb908c8DF7f82a4] */\n  0x00\n    /* \"contracts/Vesting.sol\":1998:2040  0x7d8Eab143ab39B9fbE4d5c692eb908c8DF7f82a4 */\n  0x7d8eab143ab39b9fbe4d5c692eb908c8df7f82a4\n    /* \"contracts/Vesting.sol\":1986:2041  VestingTime[0x7d8Eab143ab39B9fbE4d5c692eb908c8DF7f82a4] */\n  0xffffffffffffffffffffffffffffffffffffffff\n  and\n  0xffffffffffffffffffffffffffffffffffffffff\n  and\n  dup2\n  mstore\n  0x20\n  add\n  swap1\n  dup2\n  mstore\n  0x20\n  add\n  0x00\n  keccak256\n  sload\n    /* \"contracts/Vesting.sol\":1983:1985  31 */\n  0x1f\n    /* \"contracts/Vesting.sol\":1983:2041  31*VestingTime[0x7d8Eab143ab39B9fbE4d5c692eb908c8DF7f82a4] */\n  tag_20\n  swap2\n  swap1\n  tag_13\n  jump\t// in\ntag_20:\n    /* \"contracts/Vesting.sol\":1983:2052  31*VestingTime[0x7d8Eab143ab39B9fbE4d5c692eb908c8DF7f82a4]*(24*60*60) */\n  tag_21\n  swap2\n  swap1\n  tag_13\n  jump\t// in\ntag_21:\n    /* \"contracts/Vesting.sol\":1964:1979  deployTimestamp */\n  sload(0x05)\n    /* \"contracts/Vesting.sol\":1964:2053  deployTimestamp + (31*VestingTime[0x7d8Eab143ab39B9fbE4d5c692eb908c8DF7f82a4]*(24*60*60)) */\n  tag_22\n  swap2\n  swap1\n  tag_17\n  jump\t// in\ntag_22:\n    /* \"contracts/Vesting.sol\":1906:1916  unlockDate */\n  0x03\n    /* \"contracts/Vesting.sol\":1906:1960  unlockDate[0x7d8Eab143ab39B9fbE4d5c692eb908c8DF7f82a4] */\n  0x00\n    /* \"contracts/Vesting.sol\":1917:1959  0x7d8Eab143ab39B9fbE4d5c692eb908c8DF7f82a4 */\n  0x7d8eab143ab39b9fbe4d5c692eb908c8df7f82a4\n    /* \"contracts/Vesting.sol\":1906:1960  unlockDate[0x7d8Eab143ab39B9fbE4d5c692eb908c8DF7f82a4] */\n  0xffffffffffffffffffffffffffffffffffffffff\n  and\n  0xffffffffffffffffffffffffffffffffffffffff\n  and\n  dup2\n  mstore\n  0x20\n  add\n  swap1\n  dup2\n  mstore\n  0x20\n  add\n  0x00\n  keccak256\n    /* \"contracts/Vesting.sol\":1906:2053  unlockDate[0x7d8Eab143ab39B9fbE4d5c692eb908c8DF7f82a4] =  deployTimestamp + (31*VestingTime[0x7d8Eab143ab39B9fbE4d5c692eb908c8DF7f82a4]*(24*60*60)) */\n  dup2\n  swap1\n  sstore\n  pop\n    /* \"contracts/Vesting.sol\":2178:2186  decimals */\n  sload(0x08)\n    /* \"contracts/Vesting.sol\":2174:2176  10 */\n  0x0a\n    /* \"contracts/Vesting.sol\":2174:2186  10**decimals */\n  tag_23\n  swap2\n  swap1\n  tag_11\n  jump\t// in\ntag_23:\n    /* \"contracts/Vesting.sol\":2160:2171  37500000000 */\n  0x08bb2c9700\n    /* \"contracts/Vesting.sol\":2160:2187  37500000000* (10**decimals) */\n  tag_24\n  swap2\n  swap1\n  tag_13\n  jump\t// in\ntag_24:\n    /* \"contracts/Vesting.sol\":2102:2115  lockingWallet */\n  0x01\n    /* \"contracts/Vesting.sol\":2102:2159  lockingWallet[0xA71fEa77ED3b9Dc02855ba44A9d927AE0Be405da] */\n  0x00\n    /* \"contracts/Vesting.sol\":2116:2158  0xA71fEa77ED3b9Dc02855ba44A9d927AE0Be405da */\n  0xa71fea77ed3b9dc02855ba44a9d927ae0be405da\n    /* \"contracts/Vesting.sol\":2102:2159  lockingWallet[0xA71fEa77ED3b9Dc02855ba44A9d927AE0Be405da] */\n  0xffffffffffffffffffffffffffffffffffffffff\n  and\n  0xffffffffffffffffffffffffffffffffffffffff\n  and\n  dup2\n  mstore\n  0x20\n  add\n  swap1\n  dup2\n  mstore\n  0x20\n  add\n  0x00\n  keccak256\n    /* \"contracts/Vesting.sol\":2102:2187  lockingWallet[0xA71fEa77ED3b9Dc02855ba44A9d927AE0Be405da]=37500000000* (10**decimals) */\n  dup2\n  swap1\n  sstore\n  pop\n    /* \"contracts/Vesting.sol\":2289:2291  48 */\n  0x30\n    /* \"contracts/Vesting.sol\":2233:2244  VestingTime */\n  0x02\n    /* \"contracts/Vesting.sol\":2233:2288  VestingTime[0xA71fEa77ED3b9Dc02855ba44A9d927AE0Be405da] */\n  0x00\n    /* \"contracts/Vesting.sol\":2245:2287  0xA71fEa77ED3b9Dc02855ba44A9d927AE0Be405da */\n  0xa71fea77ed3b9dc02855ba44a9d927ae0be405da\n    /* \"contracts/Vesting.sol\":2233:2288  VestingTime[0xA71fEa77ED3b9Dc02855ba44A9d927AE0Be405da] */\n  0xffffffffffffffffffffffffffffffffffffffff\n  and\n  0xffffffffffffffffffffffffffffffffffffffff\n  and\n  dup2\n  mstore\n  0x20\n  add\n  swap1\n  dup2\n  mstore\n  0x20\n  add\n  0x00\n  keccak256\n    /* \"contracts/Vesting.sol\":2233:2291  VestingTime[0xA71fEa77ED3b9Dc02855ba44A9d927AE0Be405da]=48 */\n  dup2\n  swap1\n  sstore\n  pop\n    /* \"contracts/Vesting.sol\":2453:2461  24*60*60 */\n  0x015180\n    /* \"contracts/Vesting.sol\":2396:2407  VestingTime */\n  0x02\n    /* \"contracts/Vesting.sol\":2396:2451  VestingTime[0xA71fEa77ED3b9Dc02855ba44A9d927AE0Be405da] */\n  0x00\n    /* \"contracts/Vesting.sol\":2408:2450  0xA71fEa77ED3b9Dc02855ba44A9d927AE0Be405da */\n  0xa71fea77ed3b9dc02855ba44a9d927ae0be405da\n    /* \"contracts/Vesting.sol\":2396:2451  VestingTime[0xA71fEa77ED3b9Dc02855ba44A9d927AE0Be405da] */\n  0xffffffffffffffffffffffffffffffffffffffff\n  and\n  0xffffffffffffffffffffffffffffffffffffffff\n  and\n  dup2\n  mstore\n  0x20\n  add\n  swap1\n  dup2\n  mstore\n  0x20\n  add\n  0x00\n  keccak256\n  sload\n    /* \"contracts/Vesting.sol\":2393:2395  31 */\n  0x1f\n    /* \"contracts/Vesting.sol\":2393:2451  31*VestingTime[0xA71fEa77ED3b9Dc02855ba44A9d927AE0Be405da] */\n  tag_25\n  swap2\n  swap1\n  tag_13\n  jump\t// in\ntag_25:\n    /* \"contracts/Vesting.sol\":2393:2462  31*VestingTime[0xA71fEa77ED3b9Dc02855ba44A9d927AE0Be405da]*(24*60*60) */\n  tag_26\n  swap2\n  swap1\n  tag_13\n  jump\t// in\ntag_26:\n    /* \"contracts/Vesting.sol\":2374:2389  deployTimestamp */\n  sload(0x05)\n    /* \"contracts/Vesting.sol\":2374:2463  deployTimestamp + (31*VestingTime[0xA71fEa77ED3b9Dc02855ba44A9d927AE0Be405da]*(24*60*60)) */\n  tag_27\n  swap2\n  swap1\n  tag_17\n  jump\t// in\ntag_27:\n    /* \"contracts/Vesting.sol\":2316:2326  unlockDate */\n  0x03\n    /* \"contracts/Vesting.sol\":2316:2370  unlockDate[0xA71fEa77ED3b9Dc02855ba44A9d927AE0Be405da] */\n  0x00\n    /* \"contracts/Vesting.sol\":2327:2369  0xA71fEa77ED3b9Dc02855ba44A9d927AE0Be405da */\n  0xa71fea77ed3b9dc02855ba44a9d927ae0be405da\n    /* \"contracts/Vesting.sol\":2316:2370  unlockDate[0xA71fEa77ED3b9Dc02855ba44A9d927AE0Be405da] */\n  0xffffffffffffffffffffffffffffffffffffffff\n  and\n  0xffffffffffffffffffffffffffffffffffffffff\n  and\n  dup2\n  mstore\n  0x20\n  add\n  swap1\n  dup2\n  mstore\n  0x20\n  add\n  0x00\n  keccak256\n    /* \"contracts/Vesting.sol\":2316:2463  unlockDate[0xA71fEa77ED3b9Dc02855ba44A9d927AE0Be405da] =  deployTimestamp + (31*VestingTime[0xA71fEa77ED3b9Dc02855ba44A9d927AE0Be405da]*(24*60*60)) */\n  dup2\n  swap1\n  sstore\n  pop\n    /* \"contracts/Vesting.sol\":2589:2597  decimals */\n  sload(0x08)\n    /* \"contracts/Vesting.sol\":2585:2587  10 */\n  0x0a\n    /* \"contracts/Vesting.sol\":2585:2597  10**decimals */\n  tag_28\n  swap2\n  swap1\n  tag_11\n  jump\t// in\ntag_28:\n    /* \"contracts/Vesting.sol\":2571:2582  37500000000 */\n  0x08bb2c9700\n    /* \"contracts/Vesting.sol\":2571:2598  37500000000* (10**decimals) */\n  tag_29\n  swap2\n  swap1\n  tag_13\n  jump\t// in\ntag_29:\n    /* \"contracts/Vesting.sol\":2513:2526  lockingWallet */\n  0x01\n    /* \"contracts/Vesting.sol\":2513:2570  lockingWallet[0xebAADb0768c45CCD8fbB721720a134Ed78474056] */\n  0x00\n    /* \"contracts/Vesting.sol\":2527:2569  0xebAADb0768c45CCD8fbB721720a134Ed78474056 */\n  0xebaadb0768c45ccd8fbb721720a134ed78474056\n    /* \"contracts/Vesting.sol\":2513:2570  lockingWallet[0xebAADb0768c45CCD8fbB721720a134Ed78474056] */\n  0xffffffffffffffffffffffffffffffffffffffff\n  and\n  0xffffffffffffffffffffffffffffffffffffffff\n  and\n  dup2\n  mstore\n  0x20\n  add\n  swap1\n  dup2\n  mstore\n  0x20\n  add\n  0x00\n  keccak256\n    /* \"contracts/Vesting.sol\":2513:2598  lockingWallet[0xebAADb0768c45CCD8fbB721720a134Ed78474056]=37500000000* (10**decimals) */\n  dup2\n  swap1\n  sstore\n  pop\n    /* \"contracts/Vesting.sol\":2700:2702  60 */\n  0x3c\n    /* \"contracts/Vesting.sol\":2644:2655  VestingTime */\n  0x02\n    /* \"contracts/Vesting.sol\":2644:2699  VestingTime[0xebAADb0768c45CCD8fbB721720a134Ed78474056] */\n  0x00\n    /* \"contracts/Vesting.sol\":2656:2698  0xebAADb0768c45CCD8fbB721720a134Ed78474056 */\n  0xebaadb0768c45ccd8fbb721720a134ed78474056\n    /* \"contracts/Vesting.sol\":2644:2699  VestingTime[0xebAADb0768c45CCD8fbB721720a134Ed78474056] */\n  0xffffffffffffffffffffffffffffffffffffffff\n  and\n  0xffffffffffffffffffffffffffffffffffffffff\n  and\n  dup2\n  mstore\n  0x20\n  add\n  swap1\n  dup2\n  mstore\n  0x20\n  add\n  0x00\n  keccak256\n    /* \"contracts/Vesting.sol\":2644:2702  VestingTime[0xebAADb0768c45CCD8fbB721720a134Ed78474056]=60 */\n  dup2\n  swap1\n  sstore\n  pop\n    /* \"contracts/Vesting.sol\":2864:2872  24*60*60 */\n  0x015180\n    /* \"contracts/Vesting.sol\":2807:2818  VestingTime */\n  0x02\n    /* \"contracts/Vesting.sol\":2807:2862  VestingTime[0xebAADb0768c45CCD8fbB721720a134Ed78474056] */\n  0x00\n    /* \"contracts/Vesting.sol\":2819:2861  0xebAADb0768c45CCD8fbB721720a134Ed78474056 */\n  0xebaadb0768c45ccd8fbb721720a134ed78474056\n    /* \"contracts/Vesting.sol\":2807:2862  VestingTime[0xebAADb0768c45CCD8fbB721720a134Ed78474056] */\n  0xffffffffffffffffffffffffffffffffffffffff\n  and\n  0xffffffffffffffffffffffffffffffffffffffff\n  and\n  dup2\n  mstore\n  0x20\n  add\n  swap1\n  dup2\n  mstore\n  0x20\n  add\n  0x00\n  keccak256\n  sload\n    /* \"contracts/Vesting.sol\":2804:2806  31 */\n  0x1f\n    /* \"contracts/Vesting.sol\":2804:2862  31*VestingTime[0xebAADb0768c45CCD8fbB721720a134Ed78474056] */\n  tag_30\n  swap2\n  swap1\n  tag_13\n  jump\t// in\ntag_30:\n    /* \"contracts/Vesting.sol\":2804:2873  31*VestingTime[0xebAADb0768c45CCD8fbB721720a134Ed78474056]*(24*60*60) */\n  tag_31\n  swap2\n  swap1\n  tag_13\n  jump\t// in\ntag_31:\n    /* \"contracts/Vesting.sol\":2785:2800  deployTimestamp */\n  sload(0x05)\n    /* \"contracts/Vesting.sol\":2785:2874  deployTimestamp + (31*VestingTime[0xebAADb0768c45CCD8fbB721720a134Ed78474056]*(24*60*60)) */\n  tag_32\n  swap2\n  swap1\n  tag_17\n  jump\t// in\ntag_32:\n    /* \"contracts/Vesting.sol\":2727:2737  unlockDate */\n  0x03\n    /* \"contracts/Vesting.sol\":2727:2781  unlockDate[0xebAADb0768c45CCD8fbB721720a134Ed78474056] */\n  0x00\n    /* \"contracts/Vesting.sol\":2738:2780  0xebAADb0768c45CCD8fbB721720a134Ed78474056 */\n  0xebaadb0768c45ccd8fbb721720a134ed78474056\n    /* \"contracts/Vesting.sol\":2727:2781  unlockDate[0xebAADb0768c45CCD8fbB721720a134Ed78474056] */\n  0xffffffffffffffffffffffffffffffffffffffff\n  and\n  0xffffffffffffffffffffffffffffffffffffffff\n  and\n  dup2\n  mstore\n  0x20\n  add\n  swap1\n  dup2\n  mstore\n  0x20\n  add\n  0x00\n  keccak256\n    /* \"contracts/Vesting.sol\":2727:2874  unlockDate[0xebAADb0768c45CCD8fbB721720a134Ed78474056] =  deployTimestamp + (31*VestingTime[0xebAADb0768c45CCD8fbB721720a134Ed78474056]*(24*60*60)) */\n  dup2\n  swap1\n  sstore\n  pop\n    /* \"contracts/Vesting.sol\":974:2905  constructor( address _tokenContract) {... */\n  pop\n    /* \"contracts/Vesting.sol\":407:5704  contract Vesting { ... */\n  jump(tag_33)\n    /* \"#utility.yul\":88:205   */\ntag_35:\n    /* \"#utility.yul\":197:198   */\n  0x00\n    /* \"#utility.yul\":194:195   */\n  dup1\n    /* \"#utility.yul\":187:199   */\n  revert\n    /* \"#utility.yul\":334:460   */\ntag_37:\n    /* \"#utility.yul\":371:378   */\n  0x00\n    /* \"#utility.yul\":411:453   */\n  0xffffffffffffffffffffffffffffffffffffffff\n    /* \"#utility.yul\":404:409   */\n  dup3\n    /* \"#utility.yul\":400:454   */\n  and\n    /* \"#utility.yul\":389:454   */\n  swap1\n  pop\n    /* \"#utility.yul\":334:460   */\n  swap2\n  swap1\n  pop\n  jump\t// out\n    /* \"#utility.yul\":466:562   */\ntag_38:\n    /* \"#utility.yul\":503:510   */\n  0x00\n    /* \"#utility.yul\":532:556   */\n  tag_55\n    /* \"#utility.yul\":550:555   */\n  dup3\n    /* \"#utility.yul\":532:556   */\n  tag_37\n  jump\t// in\ntag_55:\n    /* \"#utility.yul\":521:556   */\n  swap1\n  pop\n    /* \"#utility.yul\":466:562   */\n  swap2\n  swap1\n  pop\n  jump\t// out\n    /* \"#utility.yul\":568:690   */\ntag_39:\n    /* \"#utility.yul\":641:665   */\n  tag_57\n    /* \"#utility.yul\":659:664   */\n  dup2\n    /* \"#utility.yul\":641:665   */\n  tag_38\n  jump\t// in\ntag_57:\n    /* \"#utility.yul\":634:639   */\n  dup2\n    /* \"#utility.yul\":631:666   */\n  eq\n    /* \"#utility.yul\":621:684   */\n  tag_58\n  jumpi\n    /* \"#utility.yul\":680:681   */\n  0x00\n    /* \"#utility.yul\":677:678   */\n  dup1\n    /* \"#utility.yul\":670:682   */\n  revert\n    /* \"#utility.yul\":621:684   */\ntag_58:\n    /* \"#utility.yul\":568:690   */\n  pop\n  jump\t// out\n    /* \"#utility.yul\":696:839   */\ntag_40:\n    /* \"#utility.yul\":753:758   */\n  0x00\n    /* \"#utility.yul\":784:790   */\n  dup2\n    /* \"#utility.yul\":778:791   */\n  mload\n    /* \"#utility.yul\":769:791   */\n  swap1\n  pop\n    /* \"#utility.yul\":800:833   */\n  tag_60\n    /* \"#utility.yul\":827:832   */\n  dup2\n    /* \"#utility.yul\":800:833   */\n  tag_39\n  jump\t// in\ntag_60:\n    /* \"#utility.yul\":696:839   */\n  swap3\n  swap2\n  pop\n  pop\n  jump\t// out\n    /* \"#utility.yul\":845:1196   */\ntag_3:\n    /* \"#utility.yul\":915:921   */\n  0x00\n    /* \"#utility.yul\":964:966   */\n  0x20\n    /* \"#utility.yul\":952:961   */\n  dup3\n    /* \"#utility.yul\":943:950   */\n  dup5\n    /* \"#utility.yul\":939:962   */\n  sub\n    /* \"#utility.yul\":935:967   */\n  slt\n    /* \"#utility.yul\":932:1051   */\n  iszero\n  tag_62\n  jumpi\n    /* \"#utility.yul\":970:1049   */\n  tag_63\n  tag_35\n  jump\t// in\ntag_63:\n    /* \"#utility.yul\":932:1051   */\ntag_62:\n    /* \"#utility.yul\":1090:1091   */\n  0x00\n    /* \"#utility.yul\":1115:1179   */\n  tag_64\n    /* \"#utility.yul\":1171:1178   */\n  dup5\n    /* \"#utility.yul\":1162:1168   */\n  dup3\n    /* \"#utility.yul\":1151:1160   */\n  dup6\n    /* \"#utility.yul\":1147:1169   */\n  add\n    /* \"#utility.yul\":1115:1179   */\n  tag_40\n  jump\t// in\ntag_64:\n    /* \"#utility.yul\":1105:1179   */\n  swap2\n  pop\n    /* \"#utility.yul\":1061:1189   */\n  pop\n    /* \"#utility.yul\":845:1196   */\n  swap3\n  swap2\n  pop\n  pop\n  jump\t// out\n    /* \"#utility.yul\":1202:1288   */\ntag_41:\n    /* \"#utility.yul\":1237:1244   */\n  0x00\n    /* \"#utility.yul\":1277:1281   */\n  0xff\n    /* \"#utility.yul\":1270:1275   */\n  dup3\n    /* \"#utility.yul\":1266:1282   */\n  and\n    /* \"#utility.yul\":1255:1282   */\n  swap1\n  pop\n    /* \"#utility.yul\":1202:1288   */\n  swap2\n  swap1\n  pop\n  jump\t// out\n    /* \"#utility.yul\":1294:1412   */\ntag_42:\n    /* \"#utility.yul\":1365:1387   */\n  tag_67\n    /* \"#utility.yul\":1381:1386   */\n  dup2\n    /* \"#utility.yul\":1365:1387   */\n  tag_41\n  jump\t// in\ntag_67:\n    /* \"#utility.yul\":1358:1363   */\n  dup2\n    /* \"#utility.yul\":1355:1388   */\n  eq\n    /* \"#utility.yul\":1345:1406   */\n  tag_68\n  jumpi\n    /* \"#utility.yul\":1402:1403   */\n  0x00\n    /* \"#utility.yul\":1399:1400   */\n  dup1\n    /* \"#utility.yul\":1392:1404   */\n  revert\n    /* \"#utility.yul\":1345:1406   */\ntag_68:\n    /* \"#utility.yul\":1294:1412   */\n  pop\n  jump\t// out\n    /* \"#utility.yul\":1418:1557   */\ntag_43:\n    /* \"#utility.yul\":1473:1478   */\n  0x00\n    /* \"#utility.yul\":1504:1510   */\n  dup2\n    /* \"#utility.yul\":1498:1511   */\n  mload\n    /* \"#utility.yul\":1489:1511   */\n  swap1\n  pop\n    /* \"#utility.yul\":1520:1551   */\n  tag_70\n    /* \"#utility.yul\":1545:1550   */\n  dup2\n    /* \"#utility.yul\":1520:1551   */\n  tag_42\n  jump\t// in\ntag_70:\n    /* \"#utility.yul\":1418:1557   */\n  swap3\n  swap2\n  pop\n  pop\n  jump\t// out\n    /* \"#utility.yul\":1563:1910   */\ntag_9:\n    /* \"#utility.yul\":1631:1637   */\n  0x00\n    /* \"#utility.yul\":1680:1682   */\n  0x20\n    /* \"#utility.yul\":1668:1677   */\n  dup3\n    /* \"#utility.yul\":1659:1666   */\n  dup5\n    /* \"#utility.yul\":1655:1678   */\n  sub\n    /* \"#utility.yul\":1651:1683   */\n  slt\n    /* \"#utility.yul\":1648:1767   */\n  iszero\n  tag_72\n  jumpi\n    /* \"#utility.yul\":1686:1765   */\n  tag_73\n  tag_35\n  jump\t// in\ntag_73:\n    /* \"#utility.yul\":1648:1767   */\ntag_72:\n    /* \"#utility.yul\":1806:1807   */\n  0x00\n    /* \"#utility.yul\":1831:1893   */\n  tag_74\n    /* \"#utility.yul\":1885:1892   */\n  dup5\n    /* \"#utility.yul\":1876:1882   */\n  dup3\n    /* \"#utility.yul\":1865:1874   */\n  dup6\n    /* \"#utility.yul\":1861:1883   */\n  add\n    /* \"#utility.yul\":1831:1893   */\n  tag_43\n  jump\t// in\ntag_74:\n    /* \"#utility.yul\":1821:1893   */\n  swap2\n  pop\n    /* \"#utility.yul\":1777:1903   */\n  pop\n    /* \"#utility.yul\":1563:1910   */\n  swap3\n  swap2\n  pop\n  pop\n  jump\t// out\n    /* \"#utility.yul\":1916:2096   */\ntag_44:\n    /* \"#utility.yul\":1964:2041   */\n  0x4e487b7100000000000000000000000000000000000000000000000000000000\n    /* \"#utility.yul\":1961:1962   */\n  0x00\n    /* \"#utility.yul\":1954:2042   */\n  mstore\n    /* \"#utility.yul\":2061:2065   */\n  0x11\n    /* \"#utility.yul\":2058:2059   */\n  0x04\n    /* \"#utility.yul\":2051:2066   */\n  mstore\n    /* \"#utility.yul\":2085:2089   */\n  0x24\n    /* \"#utility.yul\":2082:2083   */\n  0x00\n    /* \"#utility.yul\":2075:2090   */\n  revert\n    /* \"#utility.yul\":2102:2204   */\ntag_45:\n    /* \"#utility.yul\":2144:2152   */\n  0x00\n    /* \"#utility.yul\":2191:2196   */\n  dup2\n    /* \"#utility.yul\":2188:2189   */\n  0x01\n    /* \"#utility.yul\":2184:2197   */\n  shr\n    /* \"#utility.yul\":2163:2197   */\n  swap1\n  pop\n    /* \"#utility.yul\":2102:2204   */\n  swap2\n  swap1\n  pop\n  jump\t// out\n    /* \"#utility.yul\":2210:3058   */\ntag_46:\n    /* \"#utility.yul\":2271:2276   */\n  0x00\n    /* \"#utility.yul\":2278:2282   */\n  dup1\n    /* \"#utility.yul\":2302:2308   */\n  dup3\n    /* \"#utility.yul\":2293:2308   */\n  swap2\n  pop\n    /* \"#utility.yul\":2326:2331   */\n  dup4\n    /* \"#utility.yul\":2317:2331   */\n  swap1\n  pop\n    /* \"#utility.yul\":2340:3052   */\ntag_78:\n    /* \"#utility.yul\":2361:2362   */\n  0x01\n    /* \"#utility.yul\":2351:2359   */\n  dup6\n    /* \"#utility.yul\":2348:2363   */\n  gt\n    /* \"#utility.yul\":2340:3052   */\n  iszero\n  tag_80\n  jumpi\n    /* \"#utility.yul\":2456:2460   */\n  dup1\n    /* \"#utility.yul\":2451:2454   */\n  dup7\n    /* \"#utility.yul\":2447:2461   */\n  div\n    /* \"#utility.yul\":2441:2445   */\n  dup2\n    /* \"#utility.yul\":2438:2462   */\n  gt\n    /* \"#utility.yul\":2435:2485   */\n  iszero\n  tag_81\n  jumpi\n    /* \"#utility.yul\":2465:2483   */\n  tag_82\n  tag_44\n  jump\t// in\ntag_82:\n    /* \"#utility.yul\":2435:2485   */\ntag_81:\n    /* \"#utility.yul\":2515:2516   */\n  0x01\n    /* \"#utility.yul\":2505:2513   */\n  dup6\n    /* \"#utility.yul\":2501:2517   */\n  and\n    /* \"#utility.yul\":2498:2949   */\n  iszero\n  tag_83\n  jumpi\n    /* \"#utility.yul\":2930:2934   */\n  dup1\n    /* \"#utility.yul\":2923:2928   */\n  dup3\n    /* \"#utility.yul\":2919:2935   */\n  mul\n    /* \"#utility.yul\":2910:2935   */\n  swap2\n  pop\n    /* \"#utility.yul\":2498:2949   */\ntag_83:\n    /* \"#utility.yul\":2980:2984   */\n  dup1\n    /* \"#utility.yul\":2974:2978   */\n  dup2\n    /* \"#utility.yul\":2970:2985   */\n  mul\n    /* \"#utility.yul\":2962:2985   */\n  swap1\n  pop\n    /* \"#utility.yul\":3010:3042   */\n  tag_84\n    /* \"#utility.yul\":3033:3041   */\n  dup6\n    /* \"#utility.yul\":3010:3042   */\n  tag_45\n  jump\t// in\ntag_84:\n    /* \"#utility.yul\":2998:3042   */\n  swap5\n  pop\n    /* \"#utility.yul\":2340:3052   */\n  jump(tag_78)\ntag_80:\n    /* \"#utility.yul\":2210:3058   */\n  swap5\n  pop\n  swap5\n  swap3\n  pop\n  pop\n  pop\n  jump\t// out\n    /* \"#utility.yul\":3064:4137   */\ntag_47:\n    /* \"#utility.yul\":3118:3123   */\n  0x00\n    /* \"#utility.yul\":3309:3317   */\n  dup3\n    /* \"#utility.yul\":3299:3339   */\n  tag_86\n  jumpi\n    /* \"#utility.yul\":3330:3331   */\n  0x01\n    /* \"#utility.yul\":3321:3331   */\n  swap1\n  pop\n    /* \"#utility.yul\":3332:3337   */\n  jump(tag_85)\n    /* \"#utility.yul\":3299:3339   */\ntag_86:\n    /* \"#utility.yul\":3358:3362   */\n  dup2\n    /* \"#utility.yul\":3348:3384   */\n  tag_87\n  jumpi\n    /* \"#utility.yul\":3375:3376   */\n  0x00\n    /* \"#utility.yul\":3366:3376   */\n  swap1\n  pop\n    /* \"#utility.yul\":3377:3382   */\n  jump(tag_85)\n    /* \"#utility.yul\":3348:3384   */\ntag_87:\n    /* \"#utility.yul\":3444:3448   */\n  dup2\n    /* \"#utility.yul\":3492:3493   */\n  0x01\n    /* \"#utility.yul\":3487:3514   */\n  dup2\n  eq\n  tag_89\n  jumpi\n    /* \"#utility.yul\":3528:3529   */\n  0x02\n    /* \"#utility.yul\":3523:3714   */\n  dup2\n  eq\n  tag_90\n  jumpi\n    /* \"#utility.yul\":3437:3714   */\n  jump(tag_88)\n    /* \"#utility.yul\":3487:3514   */\ntag_89:\n    /* \"#utility.yul\":3505:3506   */\n  0x01\n    /* \"#utility.yul\":3496:3506   */\n  swap2\n  pop\n    /* \"#utility.yul\":3507:3512   */\n  pop\n  jump(tag_85)\n    /* \"#utility.yul\":3523:3714   */\ntag_90:\n    /* \"#utility.yul\":3568:3571   */\n  0xff\n    /* \"#utility.yul\":3558:3566   */\n  dup5\n    /* \"#utility.yul\":3555:3572   */\n  gt\n    /* \"#utility.yul\":3552:3595   */\n  iszero\n  tag_91\n  jumpi\n    /* \"#utility.yul\":3575:3593   */\n  tag_92\n  tag_44\n  jump\t// in\ntag_92:\n    /* \"#utility.yul\":3552:3595   */\ntag_91:\n    /* \"#utility.yul\":3624:3632   */\n  dup4\n    /* \"#utility.yul\":3621:3622   */\n  0x02\n    /* \"#utility.yul\":3617:3633   */\n  exp\n    /* \"#utility.yul\":3608:3633   */\n  swap2\n  pop\n    /* \"#utility.yul\":3659:3662   */\n  dup5\n    /* \"#utility.yul\":3652:3657   */\n  dup3\n    /* \"#utility.yul\":3649:3663   */\n  gt\n    /* \"#utility.yul\":3646:3686   */\n  iszero\n  tag_93\n  jumpi\n    /* \"#utility.yul\":3666:3684   */\n  tag_94\n  tag_44\n  jump\t// in\ntag_94:\n    /* \"#utility.yul\":3646:3686   */\ntag_93:\n    /* \"#utility.yul\":3699:3704   */\n  pop\n  jump(tag_85)\n    /* \"#utility.yul\":3437:3714   */\ntag_88:\n  pop\n    /* \"#utility.yul\":3823:3825   */\n  0x20\n    /* \"#utility.yul\":3813:3821   */\n  dup4\n    /* \"#utility.yul\":3810:3826   */\n  lt\n    /* \"#utility.yul\":3804:3807   */\n  0x0133\n    /* \"#utility.yul\":3798:3802   */\n  dup4\n    /* \"#utility.yul\":3795:3808   */\n  lt\n    /* \"#utility.yul\":3791:3827   */\n  and\n    /* \"#utility.yul\":3773:3775   */\n  0x4e\n    /* \"#utility.yul\":3763:3771   */\n  dup5\n    /* \"#utility.yul\":3760:3776   */\n  lt\n    /* \"#utility.yul\":3755:3757   */\n  0x0b\n    /* \"#utility.yul\":3749:3753   */\n  dup5\n    /* \"#utility.yul\":3746:3758   */\n  lt\n    /* \"#utility.yul\":3742:3777   */\n  and\n    /* \"#utility.yul\":3726:3837   */\n  or\n    /* \"#utility.yul\":3723:3969   */\n  iszero\n  tag_95\n  jumpi\n    /* \"#utility.yul\":3879:3887   */\n  dup3\n    /* \"#utility.yul\":3873:3877   */\n  dup3\n    /* \"#utility.yul\":3869:3888   */\n  exp\n    /* \"#utility.yul\":3860:3888   */\n  swap1\n  pop\n    /* \"#utility.yul\":3914:3917   */\n  dup4\n    /* \"#utility.yul\":3907:3912   */\n  dup2\n    /* \"#utility.yul\":3904:3918   */\n  gt\n    /* \"#utility.yul\":3901:3941   */\n  iszero\n  tag_96\n  jumpi\n    /* \"#utility.yul\":3921:3939   */\n  tag_97\n  tag_44\n  jump\t// in\ntag_97:\n    /* \"#utility.yul\":3901:3941   */\ntag_96:\n    /* \"#utility.yul\":3954:3959   */\n  jump(tag_85)\n    /* \"#utility.yul\":3723:3969   */\ntag_95:\n    /* \"#utility.yul\":3994:4036   */\n  tag_98\n    /* \"#utility.yul\":4032:4035   */\n  dup5\n    /* \"#utility.yul\":4022:4030   */\n  dup5\n    /* \"#utility.yul\":4016:4020   */\n  dup5\n    /* \"#utility.yul\":4013:4014   */\n  0x01\n    /* \"#utility.yul\":3994:4036   */\n  tag_46\n  jump\t// in\ntag_98:\n    /* \"#utility.yul\":3979:4036   */\n  swap3\n  pop\n  swap1\n  pop\n    /* \"#utility.yul\":4068:4072   */\n  dup2\n    /* \"#utility.yul\":4063:4066   */\n  dup5\n    /* \"#utility.yul\":4059:4073   */\n  div\n    /* \"#utility.yul\":4052:4057   */\n  dup2\n    /* \"#utility.yul\":4049:4074   */\n  gt\n    /* \"#utility.yul\":4046:4097   */\n  iszero\n  tag_99\n  jumpi\n    /* \"#utility.yul\":4077:4095   */\n  tag_100\n  tag_44\n  jump\t// in\ntag_100:\n    /* \"#utility.yul\":4046:4097   */\ntag_99:\n    /* \"#utility.yul\":4126:4130   */\n  dup2\n    /* \"#utility.yul\":4119:4124   */\n  dup2\n    /* \"#utility.yul\":4115:4131   */\n  mul\n    /* \"#utility.yul\":4106:4131   */\n  swap1\n  pop\n    /* \"#utility.yul\":3064:4137   */\ntag_85:\n  swap4\n  swap3\n  pop\n  pop\n  pop\n  jump\t// out\n    /* \"#utility.yul\":4143:4220   */\ntag_48:\n    /* \"#utility.yul\":4180:4187   */\n  0x00\n    /* \"#utility.yul\":4209:4214   */\n  dup2\n    /* \"#utility.yul\":4198:4214   */\n  swap1\n  pop\n    /* \"#utility.yul\":4143:4220   */\n  swap2\n  swap1\n  pop\n  jump\t// out\n    /* \"#utility.yul\":4226:4511   */\ntag_11:\n    /* \"#utility.yul\":4286:4291   */\n  0x00\n    /* \"#utility.yul\":4310:4333   */\n  tag_103\n    /* \"#utility.yul\":4328:4332   */\n  dup3\n    /* \"#utility.yul\":4310:4333   */\n  tag_48\n  jump\t// in\ntag_103:\n    /* \"#utility.yul\":4302:4333   */\n  swap2\n  pop\n    /* \"#utility.yul\":4354:4381   */\n  tag_104\n    /* \"#utility.yul\":4372:4380   */\n  dup4\n    /* \"#utility.yul\":4354:4381   */\n  tag_48\n  jump\t// in\ntag_104:\n    /* \"#utility.yul\":4342:4381   */\n  swap3\n  pop\n    /* \"#utility.yul\":4400:4504   */\n  tag_105\n    /* \"#utility.yul\":4437:4503   */\n  0xffffffffffffffffffffffffffffffffffffffffffffffffffffffffffffffff\n    /* \"#utility.yul\":4427:4435   */\n  dup5\n    /* \"#utility.yul\":4421:4425   */\n  dup5\n    /* \"#utility.yul\":4400:4504   */\n  tag_47\n  jump\t// in\ntag_105:\n    /* \"#utility.yul\":4391:4504   */\n  swap1\n  pop\n    /* \"#utility.yul\":4226:4511   */\n  swap3\n  swap2\n  pop\n  pop\n  jump\t// out\n    /* \"#utility.yul\":4517:4927   */\ntag_13:\n    /* \"#utility.yul\":4557:4564   */\n  0x00\n    /* \"#utility.yul\":4580:4600   */\n  tag_107\n    /* \"#utility.yul\":4598:4599   */\n  dup3\n    /* \"#utility.yul\":4580:4600   */\n  tag_48\n  jump\t// in\ntag_107:\n    /* \"#utility.yul\":4575:4600   */\n  swap2\n  pop\n    /* \"#utility.yul\":4614:4634   */\n  tag_108\n    /* \"#utility.yul\":4632:4633   */\n  dup4\n    /* \"#utility.yul\":4614:4634   */\n  tag_48\n  jump\t// in\ntag_108:\n    /* \"#utility.yul\":4609:4634   */\n  swap3\n  pop\n    /* \"#utility.yul\":4669:4670   */\n  dup3\n    /* \"#utility.yul\":4666:4667   */\n  dup3\n    /* \"#utility.yul\":4662:4671   */\n  mul\n    /* \"#utility.yul\":4691:4721   */\n  tag_109\n    /* \"#utility.yul\":4709:4720   */\n  dup2\n    /* \"#utility.yul\":4691:4721   */\n  tag_48\n  jump\t// in\ntag_109:\n    /* \"#utility.yul\":4680:4721   */\n  swap2\n  pop\n    /* \"#utility.yul\":4870:4871   */\n  dup3\n    /* \"#utility.yul\":4861:4868   */\n  dup3\n    /* \"#utility.yul\":4857:4872   */\n  div\n    /* \"#utility.yul\":4854:4855   */\n  dup5\n    /* \"#utility.yul\":4851:4873   */\n  eq\n    /* \"#utility.yul\":4831:4832   */\n  dup4\n    /* \"#utility.yul\":4824:4833   */\n  iszero\n    /* \"#utility.yul\":4804:4887   */\n  or\n    /* \"#utility.yul\":4781:4920   */\n  tag_110\n  jumpi\n    /* \"#utility.yul\":4900:4918   */\n  tag_111\n  tag_44\n  jump\t// in\ntag_111:\n    /* \"#utility.yul\":4781:4920   */\ntag_110:\n    /* \"#utility.yul\":4565:4927   */\n  pop\n    /* \"#utility.yul\":4517:4927   */\n  swap3\n  swap2\n  pop\n  pop\n  jump\t// out\n    /* \"#utility.yul\":4933:5124   */\ntag_17:\n    /* \"#utility.yul\":4973:4976   */\n  0x00\n    /* \"#utility.yul\":4992:5012   */\n  tag_113\n    /* \"#utility.yul\":5010:5011   */\n  dup3\n    /* \"#utility.yul\":4992:5012   */\n  tag_48\n  jump\t// in\ntag_113:\n    /* \"#utility.yul\":4987:5012   */\n  swap2\n  pop\n    /* \"#utility.yul\":5026:5046   */\n  tag_114\n    /* \"#utility.yul\":5044:5045   */\n  dup4\n    /* \"#utility.yul\":5026:5046   */\n  tag_48\n  jump\t// in\ntag_114:\n    /* \"#utility.yul\":5021:5046   */\n  swap3\n  pop\n    /* \"#utility.yul\":5069:5070   */\n  dup3\n    /* \"#utility.yul\":5066:5067   */\n  dup3\n    /* \"#utility.yul\":5062:5071   */\n  add\n    /* \"#utility.yul\":5055:5071   */\n  swap1\n  pop\n    /* \"#utility.yul\":5090:5093   */\n  dup1\n    /* \"#utility.yul\":5087:5088   */\n  dup3\n    /* \"#utility.yul\":5084:5094   */\n  gt\n    /* \"#utility.yul\":5081:5117   */\n  iszero\n  tag_115\n  jumpi\n    /* \"#utility.yul\":5097:5115   */\n  tag_116\n  tag_44\n  jump\t// in\ntag_116:\n    /* \"#utility.yul\":5081:5117   */\ntag_115:\n    /* \"#utility.yul\":4933:5124   */\n  swap3\n  swap2\n  pop\n  pop\n  jump\t// out\n    /* \"contracts/Vesting.sol\":407:5704  contract Vesting { ... */\ntag_33:\n  dataSize(sub_0)\n  dup1\n  dataOffset(sub_0)\n  0x00\n  codecopy\n  0x00\n  return\nstop\n\nsub_0: assembly {\n        /* \"contracts/Vesting.sol\":407:5704  contract Vesting { ... */\n      mstore(0x40, 0x80)\n      callvalue\n      dup1\n      iszero\n      tag_1\n      jumpi\n      0x00\n      dup1\n      revert\n    tag_1:\n      pop\n      jumpi(tag_2, lt(calldatasize, 0x04))\n      shr(0xe0, calldataload(0x00))\n      dup1\n      0x74c76c70\n      gt\n      tag_17\n      jumpi\n      dup1\n      0x8d8f2adb\n      gt\n      tag_18\n      jumpi\n      dup1\n      0x8d8f2adb\n      eq\n      tag_13\n      jumpi\n      dup1\n      0x8da5cb5b\n      eq\n      tag_14\n      jumpi\n      dup1\n      0xb6c85464\n      eq\n      tag_15\n      jumpi\n      dup1\n      0xd2cc8c22\n      eq\n      tag_16\n      jumpi\n      jump(tag_2)\n    tag_18:\n      dup1\n      0x74c76c70\n      eq\n      tag_10\n      jumpi\n      dup1\n      0x7d35f8bf\n      eq\n      tag_11\n      jumpi\n      dup1\n      0x849f02e9\n      eq\n      tag_12\n      jumpi\n      jump(tag_2)\n    tag_17:\n      dup1\n      0x49ccd69e\n      gt\n      tag_19\n      jumpi\n      dup1\n      0x49ccd69e\n      eq\n      tag_6\n      jumpi\n      dup1\n      0x55a373d6\n      eq\n      tag_7\n      jumpi\n      dup1\n      0x607ad0d7\n      eq\n      tag_8\n      jumpi\n      dup1\n      0x688225d6\n      eq\n      tag_9\n      jumpi\n      jump(tag_2)\n    tag_19:\n      dup1\n      0x29cac259\n      eq\n      tag_3\n      jumpi\n      dup1\n      0x313ce567\n      eq\n      tag_4\n      jumpi\n      dup1\n      0x42f74a9b\n      eq\n      tag_5\n      jumpi\n    tag_2:\n      0x00\n      dup1\n      revert\n        /* \"contracts/Vesting.sol\":584:627  mapping(address => uint) public VestingTime */\n    tag_3:\n      tag_20\n      0x04\n      dup1\n      calldatasize\n      sub\n      dup2\n      add\n      swap1\n      tag_21\n      swap2\n      swap1\n      tag_22\n      jump\t// in\n    tag_21:\n      tag_23\n      jump\t// in\n    tag_20:\n      mload(0x40)\n      tag_24\n      swap2\n      swap1\n      tag_25\n      jump\t// in\n    tag_24:\n      mload(0x40)\n      dup1\n      swap2\n      sub\n      swap1\n      return\n        /* \"contracts/Vesting.sol\":886:909  uint256 public decimals */\n    tag_4:\n      tag_26\n      tag_27\n      jump\t// in\n    tag_26:\n      mload(0x40)\n      tag_28\n      swap2\n      swap1\n      tag_25\n      jump\t// in\n    tag_28:\n      mload(0x40)\n      dup1\n      swap2\n      sub\n      swap1\n      return\n        /* \"contracts/Vesting.sol\":3860:4044  function viewLeftAmount(address user) public view returns (uint){... */\n    tag_5:\n      tag_29\n      0x04\n      dup1\n      calldatasize\n      sub\n      dup2\n      add\n      swap1\n      tag_30\n      swap2\n      swap1\n      tag_22\n      jump\t// in\n    tag_30:\n      tag_31\n      jump\t// in\n    tag_29:\n      mload(0x40)\n      tag_32\n      swap2\n      swap1\n      tag_25\n      jump\t// in\n    tag_32:\n      mload(0x40)\n      dup1\n      swap2\n      sub\n      swap1\n      return\n        /* \"contracts/Vesting.sol\":633:675  mapping(address => uint) public unlockDate */\n    tag_6:\n      tag_33\n      0x04\n      dup1\n      calldatasize\n      sub\n      dup2\n      add\n      swap1\n      tag_34\n      swap2\n      swap1\n      tag_22\n      jump\t// in\n    tag_34:\n      tag_35\n      jump\t// in\n    tag_33:\n      mload(0x40)\n      tag_36\n      swap2\n      swap1\n      tag_25\n      jump\t// in\n    tag_36:\n      mload(0x40)\n      dup1\n      swap2\n      sub\n      swap1\n      return\n        /* \"contracts/Vesting.sol\":792:831  address public tokenContract=address(0) */\n    tag_7:\n      tag_37\n      tag_38\n      jump\t// in\n    tag_37:\n      mload(0x40)\n      tag_39\n      swap2\n      swap1\n      tag_40\n      jump\t// in\n    tag_39:\n      mload(0x40)\n      dup1\n      swap2\n      sub\n      swap1\n      return\n        /* \"contracts/Vesting.sol\":759:786  uint public deployTimestamp */\n    tag_8:\n      tag_41\n      tag_42\n      jump\t// in\n    tag_41:\n      mload(0x40)\n      tag_43\n      swap2\n      swap1\n      tag_25\n      jump\t// in\n    tag_43:\n      mload(0x40)\n      dup1\n      swap2\n      sub\n      swap1\n      return\n        /* \"contracts/Vesting.sol\":837:877  uint public onemonth = (31*1*(24*60*60)) */\n    tag_9:\n      tag_44\n      tag_45\n      jump\t// in\n    tag_44:\n      mload(0x40)\n      tag_46\n      swap2\n      swap1\n      tag_25\n      jump\t// in\n    tag_46:\n      mload(0x40)\n      dup1\n      swap2\n      sub\n      swap1\n      return\n        /* \"contracts/Vesting.sol\":681:753  mapping(address=>mapping(uint=>_withdrawdetails)) public withdrawdetails */\n    tag_10:\n      tag_47\n      0x04\n      dup1\n      calldatasize\n      sub\n      dup2\n      add\n      swap1\n      tag_48\n      swap2\n      swap1\n      tag_49\n      jump\t// in\n    tag_48:\n      tag_50\n      jump\t// in\n    tag_47:\n      mload(0x40)\n      tag_51\n      swap3\n      swap2\n      swap1\n      tag_52\n      jump\t// in\n    tag_51:\n      mload(0x40)\n      dup1\n      swap2\n      sub\n      swap1\n      return\n        /* \"contracts/Vesting.sol\":4113:4597  function viewLeftMonth( address user) public view returns (uint){... */\n    tag_11:\n      tag_53\n      0x04\n      dup1\n      calldatasize\n      sub\n      dup2\n      add\n      swap1\n      tag_54\n      swap2\n      swap1\n      tag_22\n      jump\t// in\n    tag_54:\n      tag_55\n      jump\t// in\n    tag_53:\n      mload(0x40)\n      tag_56\n      swap2\n      swap1\n      tag_25\n      jump\t// in\n    tag_56:\n      mload(0x40)\n      dup1\n      swap2\n      sub\n      swap1\n      return\n        /* \"contracts/Vesting.sol\":3180:3789  function ViewVestingAmount( address user )public view returns (uint){ ... */\n    tag_12:\n      tag_57\n      0x04\n      dup1\n      calldatasize\n      sub\n      dup2\n      add\n      swap1\n      tag_58\n      swap2\n      swap1\n      tag_22\n      jump\t// in\n    tag_58:\n      tag_59\n      jump\t// in\n    tag_57:\n      mload(0x40)\n      tag_60\n      swap2\n      swap1\n      tag_25\n      jump\t// in\n    tag_60:\n      mload(0x40)\n      dup1\n      swap2\n      sub\n      swap1\n      return\n        /* \"contracts/Vesting.sol\":4705:5702  function withdrawTokens()public returns (bool){ ... */\n    tag_13:\n      tag_61\n      tag_62\n      jump\t// in\n    tag_61:\n      mload(0x40)\n      tag_63\n      swap2\n      swap1\n      tag_64\n      jump\t// in\n    tag_63:\n      mload(0x40)\n      dup1\n      swap2\n      sub\n      swap1\n      return\n        /* \"contracts/Vesting.sol\":506:526  address public owner */\n    tag_14:\n      tag_65\n      tag_66\n      jump\t// in\n    tag_65:\n      mload(0x40)\n      tag_67\n      swap2\n      swap1\n      tag_40\n      jump\t// in\n    tag_67:\n      mload(0x40)\n      dup1\n      swap2\n      sub\n      swap1\n      return\n        /* \"contracts/Vesting.sol\":533:578  mapping(address => uint) public lockingWallet */\n    tag_15:\n      tag_68\n      0x04\n      dup1\n      calldatasize\n      sub\n      dup2\n      add\n      swap1\n      tag_69\n      swap2\n      swap1\n      tag_22\n      jump\t// in\n    tag_69:\n      tag_70\n      jump\t// in\n    tag_68:\n      mload(0x40)\n      tag_71\n      swap2\n      swap1\n      tag_25\n      jump\t// in\n    tag_71:\n      mload(0x40)\n      dup1\n      swap2\n      sub\n      swap1\n      return\n        /* \"contracts/Vesting.sol\":916:961  mapping(address => uint) public completedMoth */\n    tag_16:\n      tag_72\n      0x04\n      dup1\n      calldatasize\n      sub\n      dup2\n      add\n      swap1\n      tag_73\n      swap2\n      swap1\n      tag_22\n      jump\t// in\n    tag_73:\n      tag_74\n      jump\t// in\n    tag_72:\n      mload(0x40)\n      tag_75\n      swap2\n      swap1\n      tag_25\n      jump\t// in\n    tag_75:\n      mload(0x40)\n      dup1\n      swap2\n      sub\n      swap1\n      return\n        /* \"contracts/Vesting.sol\":584:627  mapping(address => uint) public VestingTime */\n    tag_23:\n      mstore(0x20, 0x02)\n      dup1\n      0x00\n      mstore\n      keccak256(0x00, 0x40)\n      0x00\n      swap2\n      pop\n      swap1\n      pop\n      sload\n      dup2\n      jump\t// out\n        /* \"contracts/Vesting.sol\":886:909  uint256 public decimals */\n    tag_27:\n      sload(0x08)\n      dup2\n      jump\t// out\n        /* \"contracts/Vesting.sol\":3860:4044  function viewLeftAmount(address user) public view returns (uint){... */\n    tag_31:\n        /* \"contracts/Vesting.sol\":3919:3923  uint */\n      0x00\n        /* \"contracts/Vesting.sol\":3938:3953  uint LeftAmount */\n      dup1\n        /* \"contracts/Vesting.sol\":3955:3974  viewLeftMonth(user) */\n      tag_77\n        /* \"contracts/Vesting.sol\":3969:3973  user */\n      dup4\n        /* \"contracts/Vesting.sol\":3955:3968  viewLeftMonth */\n      tag_55\n        /* \"contracts/Vesting.sol\":3955:3974  viewLeftMonth(user) */\n      jump\t// in\n    tag_77:\n        /* \"contracts/Vesting.sol\":3938:3974  uint LeftAmount =viewLeftMonth(user) */\n      swap1\n      pop\n        /* \"contracts/Vesting.sol\":4027:4037  LeftAmount */\n      dup1\n        /* \"contracts/Vesting.sol\":4023:4025  12 */\n      0x0c\n        /* \"contracts/Vesting.sol\":4003:4016  lockingWallet */\n      0x01\n        /* \"contracts/Vesting.sol\":4003:4022  lockingWallet[user] */\n      0x00\n        /* \"contracts/Vesting.sol\":4017:4021  user */\n      dup7\n        /* \"contracts/Vesting.sol\":4003:4022  lockingWallet[user] */\n      0xffffffffffffffffffffffffffffffffffffffff\n      and\n      0xffffffffffffffffffffffffffffffffffffffff\n      and\n      dup2\n      mstore\n      0x20\n      add\n      swap1\n      dup2\n      mstore\n      0x20\n      add\n      0x00\n      keccak256\n      sload\n        /* \"contracts/Vesting.sol\":4003:4025  lockingWallet[user]/12 */\n      tag_78\n      swap2\n      swap1\n      tag_79\n      jump\t// in\n    tag_78:\n        /* \"contracts/Vesting.sol\":4002:4037  (lockingWallet[user]/12)*LeftAmount */\n      tag_80\n      swap2\n      swap1\n      tag_81\n      jump\t// in\n    tag_80:\n        /* \"contracts/Vesting.sol\":3995:4037  return (lockingWallet[user]/12)*LeftAmount */\n      swap2\n      pop\n      pop\n        /* \"contracts/Vesting.sol\":3860:4044  function viewLeftAmount(address user) public view returns (uint){... */\n      swap2\n      swap1\n      pop\n      jump\t// out\n        /* \"contracts/Vesting.sol\":633:675  mapping(address => uint) public unlockDate */\n    tag_35:\n      mstore(0x20, 0x03)\n      dup1\n      0x00\n      mstore\n      keccak256(0x00, 0x40)\n      0x00\n      swap2\n      pop\n      swap1\n      pop\n      sload\n      dup2\n      jump\t// out\n        /* \"contracts/Vesting.sol\":792:831  address public tokenContract=address(0) */\n    tag_38:\n      0x06\n      0x00\n      swap1\n      sload\n      swap1\n      0x0100\n      exp\n      swap1\n      div\n      0xffffffffffffffffffffffffffffffffffffffff\n      and\n      dup2\n      jump\t// out\n        /* \"contracts/Vesting.sol\":759:786  uint public deployTimestamp */\n    tag_42:\n      sload(0x05)\n      dup2\n      jump\t// out\n        /* \"contracts/Vesting.sol\":837:877  uint public onemonth = (31*1*(24*60*60)) */\n    tag_45:\n      sload(0x07)\n      dup2\n      jump\t// out\n        /* \"contracts/Vesting.sol\":681:753  mapping(address=>mapping(uint=>_withdrawdetails)) public withdrawdetails */\n    tag_50:\n      mstore(0x20, 0x04)\n      dup2\n      0x00\n      mstore\n      mstore(0x20, keccak256(0x00, 0x40))\n      dup1\n      0x00\n      mstore\n      keccak256(0x00, 0x40)\n      0x00\n      swap2\n      pop\n      swap2\n      pop\n      pop\n      dup1\n      0x00\n      add\n      sload\n      swap1\n      dup1\n      0x01\n      add\n      sload\n      swap1\n      pop\n      dup3\n      jump\t// out\n        /* \"contracts/Vesting.sol\":4113:4597  function viewLeftMonth( address user) public view returns (uint){... */\n    tag_55:\n        /* \"contracts/Vesting.sol\":4172:4176  uint */\n      0x00\n        /* \"contracts/Vesting.sol\":4191:4205  uint compmonth */\n      dup1\n        /* \"contracts/Vesting.sol\":4206:4207  0 */\n      0x00\n        /* \"contracts/Vesting.sol\":4191:4207  uint compmonth=0 */\n      swap1\n      pop\n        /* \"contracts/Vesting.sol\":4226:4232  uint i */\n      0x00\n        /* \"contracts/Vesting.sol\":4222:4557  for(uint i=0;i<12;i++) ... */\n    tag_83:\n        /* \"contracts/Vesting.sol\":4237:4239  12 */\n      0x0c\n        /* \"contracts/Vesting.sol\":4235:4236  i */\n      dup2\n        /* \"contracts/Vesting.sol\":4235:4239  i<12 */\n      lt\n        /* \"contracts/Vesting.sol\":4222:4557  for(uint i=0;i<12;i++) ... */\n      iszero\n      tag_84\n      jumpi\n        /* \"contracts/Vesting.sol\":4300:4315  block.timestamp */\n      timestamp\n        /* \"contracts/Vesting.sol\":4282:4292  unlockDate */\n      0x03\n        /* \"contracts/Vesting.sol\":4282:4298  unlockDate[user] */\n      0x00\n        /* \"contracts/Vesting.sol\":4293:4297  user */\n      dup7\n        /* \"contracts/Vesting.sol\":4282:4298  unlockDate[user] */\n      0xffffffffffffffffffffffffffffffffffffffff\n      and\n      0xffffffffffffffffffffffffffffffffffffffff\n      and\n      dup2\n      mstore\n      0x20\n      add\n      swap1\n      dup2\n      mstore\n      0x20\n      add\n      0x00\n      keccak256\n      sload\n        /* \"contracts/Vesting.sol\":4282:4315  unlockDate[user]<=block.timestamp */\n      gt\n        /* \"contracts/Vesting.sol\":4279:4540  if(unlockDate[user]<=block.timestamp){... */\n      tag_86\n      jumpi\n        /* \"contracts/Vesting.sol\":4388:4389  i */\n      dup1\n        /* \"contracts/Vesting.sol\":4379:4387  onemonth */\n      sload(0x07)\n        /* \"contracts/Vesting.sol\":4379:4389  onemonth*i */\n      tag_87\n      swap2\n      swap1\n      tag_81\n      jump\t// in\n    tag_87:\n        /* \"contracts/Vesting.sol\":4361:4371  unlockDate */\n      0x03\n        /* \"contracts/Vesting.sol\":4361:4377  unlockDate[user] */\n      0x00\n        /* \"contracts/Vesting.sol\":4372:4376  user */\n      dup7\n        /* \"contracts/Vesting.sol\":4361:4377  unlockDate[user] */\n      0xffffffffffffffffffffffffffffffffffffffff\n      and\n      0xffffffffffffffffffffffffffffffffffffffff\n      and\n      dup2\n      mstore\n      0x20\n      add\n      swap1\n      dup2\n      mstore\n      0x20\n      add\n      0x00\n      keccak256\n      sload\n        /* \"contracts/Vesting.sol\":4361:4390  unlockDate[user]+(onemonth*i) */\n      tag_88\n      swap2\n      swap1\n      tag_89\n      jump\t// in\n    tag_88:\n        /* \"contracts/Vesting.sol\":4344:4359  block.timestamp */\n      timestamp\n        /* \"contracts/Vesting.sol\":4344:4390  block.timestamp>=unlockDate[user]+(onemonth*i) */\n      lt\n        /* \"contracts/Vesting.sol\":4341:4521  if(block.timestamp>=unlockDate[user]+(onemonth*i)){ ... */\n      tag_90\n      jumpi\n        /* \"contracts/Vesting.sol\":4430:4431  1 */\n      0x01\n        /* \"contracts/Vesting.sol\":4419:4431  compmonth+=1 */\n      dup3\n      tag_91\n      swap2\n      swap1\n      tag_89\n      jump\t// in\n    tag_91:\n      swap2\n      pop\n        /* \"contracts/Vesting.sol\":4341:4521  if(block.timestamp>=unlockDate[user]+(onemonth*i)){ ... */\n      jump(tag_92)\n    tag_90:\n        /* \"contracts/Vesting.sol\":4491:4496  break */\n      jump(tag_84)\n        /* \"contracts/Vesting.sol\":4341:4521  if(block.timestamp>=unlockDate[user]+(onemonth*i)){ ... */\n    tag_92:\n        /* \"contracts/Vesting.sol\":4279:4540  if(unlockDate[user]<=block.timestamp){... */\n    tag_86:\n        /* \"contracts/Vesting.sol\":4240:4243  i++ */\n      dup1\n      dup1\n      tag_93\n      swap1\n      tag_94\n      jump\t// in\n    tag_93:\n      swap2\n      pop\n      pop\n        /* \"contracts/Vesting.sol\":4222:4557  for(uint i=0;i<12;i++) ... */\n      jump(tag_83)\n    tag_84:\n      pop\n        /* \"contracts/Vesting.sol\":4581:4590  compmonth */\n      dup1\n        /* \"contracts/Vesting.sol\":4578:4580  12 */\n      0x0c\n        /* \"contracts/Vesting.sol\":4578:4590  12-compmonth */\n      tag_95\n      swap2\n      swap1\n      tag_96\n      jump\t// in\n    tag_95:\n        /* \"contracts/Vesting.sol\":4571:4590  return 12-compmonth */\n      swap2\n      pop\n      pop\n        /* \"contracts/Vesting.sol\":4113:4597  function viewLeftMonth( address user) public view returns (uint){... */\n      swap2\n      swap1\n      pop\n      jump\t// out\n        /* \"contracts/Vesting.sol\":3180:3789  function ViewVestingAmount( address user )public view returns (uint){ ... */\n    tag_59:\n        /* \"contracts/Vesting.sol\":3243:3247  uint */\n      0x00\n        /* \"contracts/Vesting.sol\":3259:3277  uint VestingAmount */\n      dup1\n        /* \"contracts/Vesting.sol\":3280:3281  0 */\n      0x00\n        /* \"contracts/Vesting.sol\":3259:3281  uint VestingAmount = 0 */\n      swap1\n      pop\n        /* \"contracts/Vesting.sol\":3296:3302  uint i */\n      0x00\n        /* \"contracts/Vesting.sol\":3292:3745  for(uint i=0;i<12;i++) ... */\n    tag_98:\n        /* \"contracts/Vesting.sol\":3307:3309  12 */\n      0x0c\n        /* \"contracts/Vesting.sol\":3305:3306  i */\n      dup2\n        /* \"contracts/Vesting.sol\":3305:3309  i<12 */\n      lt\n        /* \"contracts/Vesting.sol\":3292:3745  for(uint i=0;i<12;i++) ... */\n      iszero\n      tag_99\n      jumpi\n        /* \"contracts/Vesting.sol\":3360:3375  block.timestamp */\n      timestamp\n        /* \"contracts/Vesting.sol\":3342:3352  unlockDate */\n      0x03\n        /* \"contracts/Vesting.sol\":3342:3358  unlockDate[user] */\n      0x00\n        /* \"contracts/Vesting.sol\":3353:3357  user */\n      dup7\n        /* \"contracts/Vesting.sol\":3342:3358  unlockDate[user] */\n      0xffffffffffffffffffffffffffffffffffffffff\n      and\n      0xffffffffffffffffffffffffffffffffffffffff\n      and\n      dup2\n      mstore\n      0x20\n      add\n      swap1\n      dup2\n      mstore\n      0x20\n      add\n      0x00\n      keccak256\n      sload\n        /* \"contracts/Vesting.sol\":3342:3375  unlockDate[user]<=block.timestamp */\n      gt\n        /* \"contracts/Vesting.sol\":3339:3735  if(unlockDate[user]<=block.timestamp){... */\n      tag_101\n      jumpi\n        /* \"contracts/Vesting.sol\":3442:3443  i */\n      dup1\n        /* \"contracts/Vesting.sol\":3433:3441  onemonth */\n      sload(0x07)\n        /* \"contracts/Vesting.sol\":3433:3443  onemonth*i */\n      tag_102\n      swap2\n      swap1\n      tag_81\n      jump\t// in\n    tag_102:\n        /* \"contracts/Vesting.sol\":3415:3425  unlockDate */\n      0x03\n        /* \"contracts/Vesting.sol\":3415:3431  unlockDate[user] */\n      0x00\n        /* \"contracts/Vesting.sol\":3426:3430  user */\n      dup7\n        /* \"contracts/Vesting.sol\":3415:3431  unlockDate[user] */\n      0xffffffffffffffffffffffffffffffffffffffff\n      and\n      0xffffffffffffffffffffffffffffffffffffffff\n      and\n      dup2\n      mstore\n      0x20\n      add\n      swap1\n      dup2\n      mstore\n      0x20\n      add\n      0x00\n      keccak256\n      sload\n        /* \"contracts/Vesting.sol\":3415:3444  unlockDate[user]+(onemonth*i) */\n      tag_103\n      swap2\n      swap1\n      tag_89\n      jump\t// in\n    tag_103:\n        /* \"contracts/Vesting.sol\":3398:3413  block.timestamp */\n      timestamp\n        /* \"contracts/Vesting.sol\":3398:3444  block.timestamp>=unlockDate[user]+(onemonth*i) */\n      lt\n        /* \"contracts/Vesting.sol\":3395:3719  if(block.timestamp>=unlockDate[user]+(onemonth*i)) { ... */\n      tag_104\n      jumpi\n        /* \"contracts/Vesting.sol\":3506:3507  0 */\n      0x00\n        /* \"contracts/Vesting.sol\":3473:3488  withdrawdetails */\n      0x04\n        /* \"contracts/Vesting.sol\":3473:3494  withdrawdetails[user] */\n      0x00\n        /* \"contracts/Vesting.sol\":3489:3493  user */\n      dup7\n        /* \"contracts/Vesting.sol\":3473:3494  withdrawdetails[user] */\n      0xffffffffffffffffffffffffffffffffffffffff\n      and\n      0xffffffffffffffffffffffffffffffffffffffff\n      and\n      dup2\n      mstore\n      0x20\n      add\n      swap1\n      dup2\n      mstore\n      0x20\n      add\n      0x00\n      keccak256\n        /* \"contracts/Vesting.sol\":3473:3499  withdrawdetails[user][i+1] */\n      0x00\n        /* \"contracts/Vesting.sol\":3497:3498  1 */\n      0x01\n        /* \"contracts/Vesting.sol\":3495:3496  i */\n      dup5\n        /* \"contracts/Vesting.sol\":3495:3498  i+1 */\n      tag_105\n      swap2\n      swap1\n      tag_89\n      jump\t// in\n    tag_105:\n        /* \"contracts/Vesting.sol\":3473:3499  withdrawdetails[user][i+1] */\n      dup2\n      mstore\n      0x20\n      add\n      swap1\n      dup2\n      mstore\n      0x20\n      add\n      0x00\n      keccak256\n        /* \"contracts/Vesting.sol\":3473:3504  withdrawdetails[user][i+1].time */\n      0x00\n      add\n      sload\n        /* \"contracts/Vesting.sol\":3473:3507  withdrawdetails[user][i+1].time==0 */\n      sub\n        /* \"contracts/Vesting.sol\":3470:3643  if(withdrawdetails[user][i+1].time==0) ... */\n      tag_106\n      jumpi\n        /* \"contracts/Vesting.sol\":3593:3595  12 */\n      0x0c\n        /* \"contracts/Vesting.sol\":3573:3586  lockingWallet */\n      0x01\n        /* \"contracts/Vesting.sol\":3573:3592  lockingWallet[user] */\n      0x00\n        /* \"contracts/Vesting.sol\":3587:3591  user */\n      dup7\n        /* \"contracts/Vesting.sol\":3573:3592  lockingWallet[user] */\n      0xffffffffffffffffffffffffffffffffffffffff\n      and\n      0xffffffffffffffffffffffffffffffffffffffff\n      and\n      dup2\n      mstore\n      0x20\n      add\n      swap1\n      dup2\n      mstore\n      0x20\n      add\n      0x00\n      keccak256\n      sload\n        /* \"contracts/Vesting.sol\":3573:3595  lockingWallet[user]/12 */\n      tag_107\n      swap2\n      swap1\n      tag_79\n      jump\t// in\n    tag_107:\n        /* \"contracts/Vesting.sol\":3558:3595  VestingAmount+=lockingWallet[user]/12 */\n      dup3\n      tag_108\n      swap2\n      swap1\n      tag_89\n      jump\t// in\n    tag_108:\n      swap2\n      pop\n        /* \"contracts/Vesting.sol\":3470:3643  if(withdrawdetails[user][i+1].time==0) ... */\n    tag_106:\n        /* \"contracts/Vesting.sol\":3395:3719  if(block.timestamp>=unlockDate[user]+(onemonth*i)) { ... */\n      jump(tag_109)\n    tag_104:\n        /* \"contracts/Vesting.sol\":3693:3698  break */\n      jump(tag_99)\n        /* \"contracts/Vesting.sol\":3395:3719  if(block.timestamp>=unlockDate[user]+(onemonth*i)) { ... */\n    tag_109:\n        /* \"contracts/Vesting.sol\":3339:3735  if(unlockDate[user]<=block.timestamp){... */\n    tag_101:\n        /* \"contracts/Vesting.sol\":3310:3313  i++ */\n      dup1\n      dup1\n      tag_110\n      swap1\n      tag_94\n      jump\t// in\n    tag_110:\n      swap2\n      pop\n      pop\n        /* \"contracts/Vesting.sol\":3292:3745  for(uint i=0;i<12;i++) ... */\n      jump(tag_98)\n    tag_99:\n      pop\n        /* \"contracts/Vesting.sol\":3768:3781  VestingAmount */\n      dup1\n        /* \"contracts/Vesting.sol\":3761:3781  return VestingAmount */\n      swap2\n      pop\n      pop\n        /* \"contracts/Vesting.sol\":3180:3789  function ViewVestingAmount( address user )public view returns (uint){ ... */\n      swap2\n      swap1\n      pop\n      jump\t// out\n        /* \"contracts/Vesting.sol\":4705:5702  function withdrawTokens()public returns (bool){ ... */\n    tag_62:\n        /* \"contracts/Vesting.sol\":4746:4750  bool */\n      0x00\n        /* \"contracts/Vesting.sol\":4762:4780  uint VestingAmount */\n      dup1\n        /* \"contracts/Vesting.sol\":4783:4784  0 */\n      0x00\n        /* \"contracts/Vesting.sol\":4762:4784  uint VestingAmount = 0 */\n      swap1\n      pop\n        /* \"contracts/Vesting.sol\":4804:4810  uint i */\n      0x00\n        /* \"contracts/Vesting.sol\":4800:5448  for(uint i=0;i<12;i++) ... */\n    tag_112:\n        /* \"contracts/Vesting.sol\":4815:4817  12 */\n      0x0c\n        /* \"contracts/Vesting.sol\":4813:4814  i */\n      dup2\n        /* \"contracts/Vesting.sol\":4813:4817  i<12 */\n      lt\n        /* \"contracts/Vesting.sol\":4800:5448  for(uint i=0;i<12;i++) ... */\n      iszero\n      tag_113\n      jumpi\n        /* \"contracts/Vesting.sol\":4889:4904  block.timestamp */\n      timestamp\n        /* \"contracts/Vesting.sol\":4865:4875  unlockDate */\n      0x03\n        /* \"contracts/Vesting.sol\":4865:4887  unlockDate[msg.sender] */\n      0x00\n        /* \"contracts/Vesting.sol\":4876:4886  msg.sender */\n      caller\n        /* \"contracts/Vesting.sol\":4865:4887  unlockDate[msg.sender] */\n      0xffffffffffffffffffffffffffffffffffffffff\n      and\n      0xffffffffffffffffffffffffffffffffffffffff\n      and\n      dup2\n      mstore\n      0x20\n      add\n      swap1\n      dup2\n      mstore\n      0x20\n      add\n      0x00\n      keccak256\n      sload\n        /* \"contracts/Vesting.sol\":4865:4904  unlockDate[msg.sender]<=block.timestamp */\n      gt\n      iszero\n        /* \"contracts/Vesting.sol\":4857:4926  require(unlockDate[msg.sender]<=block.timestamp,\"Unable to Withdraw\") */\n      tag_115\n      jumpi\n      mload(0x40)\n      0x08c379a000000000000000000000000000000000000000000000000000000000\n      dup2\n      mstore\n      0x04\n      add\n      tag_116\n      swap1\n      tag_117\n      jump\t// in\n    tag_116:\n      mload(0x40)\n      dup1\n      swap2\n      sub\n      swap1\n      revert\n    tag_115:\n        /* \"contracts/Vesting.sol\":4999:5000  i */\n      dup1\n        /* \"contracts/Vesting.sol\":4990:4998  onemonth */\n      sload(0x07)\n        /* \"contracts/Vesting.sol\":4990:5000  onemonth*i */\n      tag_118\n      swap2\n      swap1\n      tag_81\n      jump\t// in\n    tag_118:\n        /* \"contracts/Vesting.sol\":4966:4976  unlockDate */\n      0x03\n        /* \"contracts/Vesting.sol\":4966:4988  unlockDate[msg.sender] */\n      0x00\n        /* \"contracts/Vesting.sol\":4977:4987  msg.sender */\n      caller\n        /* \"contracts/Vesting.sol\":4966:4988  unlockDate[msg.sender] */\n      0xffffffffffffffffffffffffffffffffffffffff\n      and\n      0xffffffffffffffffffffffffffffffffffffffff\n      and\n      dup2\n      mstore\n      0x20\n      add\n      swap1\n      dup2\n      mstore\n      0x20\n      add\n      0x00\n      keccak256\n      sload\n        /* \"contracts/Vesting.sol\":4966:5001  unlockDate[msg.sender]+(onemonth*i) */\n      tag_119\n      swap2\n      swap1\n      tag_89\n      jump\t// in\n    tag_119:\n        /* \"contracts/Vesting.sol\":4949:4964  block.timestamp */\n      timestamp\n        /* \"contracts/Vesting.sol\":4949:5001  block.timestamp>=unlockDate[msg.sender]+(onemonth*i) */\n      lt\n        /* \"contracts/Vesting.sol\":4946:5432  if(block.timestamp>=unlockDate[msg.sender]+(onemonth*i)){ ... */\n      tag_120\n      jumpi\n        /* \"contracts/Vesting.sol\":5068:5069  0 */\n      0x00\n        /* \"contracts/Vesting.sol\":5029:5044  withdrawdetails */\n      0x04\n        /* \"contracts/Vesting.sol\":5029:5056  withdrawdetails[msg.sender] */\n      0x00\n        /* \"contracts/Vesting.sol\":5045:5055  msg.sender */\n      caller\n        /* \"contracts/Vesting.sol\":5029:5056  withdrawdetails[msg.sender] */\n      0xffffffffffffffffffffffffffffffffffffffff\n      and\n      0xffffffffffffffffffffffffffffffffffffffff\n      and\n      dup2\n      mstore\n      0x20\n      add\n      swap1\n      dup2\n      mstore\n      0x20\n      add\n      0x00\n      keccak256\n        /* \"contracts/Vesting.sol\":5029:5061  withdrawdetails[msg.sender][i+1] */\n      0x00\n        /* \"contracts/Vesting.sol\":5059:5060  1 */\n      0x01\n        /* \"contracts/Vesting.sol\":5057:5058  i */\n      dup5\n        /* \"contracts/Vesting.sol\":5057:5060  i+1 */\n      tag_121\n      swap2\n      swap1\n      tag_89\n      jump\t// in\n    tag_121:\n        /* \"contracts/Vesting.sol\":5029:5061  withdrawdetails[msg.sender][i+1] */\n      dup2\n      mstore\n      0x20\n      add\n      swap1\n      dup2\n      mstore\n      0x20\n      add\n      0x00\n      keccak256\n        /* \"contracts/Vesting.sol\":5029:5066  withdrawdetails[msg.sender][i+1].time */\n      0x00\n      add\n      sload\n        /* \"contracts/Vesting.sol\":5029:5069  withdrawdetails[msg.sender][i+1].time==0 */\n      sub\n        /* \"contracts/Vesting.sol\":5026:5356  if(withdrawdetails[msg.sender][i+1].time==0) ... */\n      tag_122\n      jumpi\n        /* \"contracts/Vesting.sol\":5161:5163  12 */\n      0x0c\n        /* \"contracts/Vesting.sol\":5135:5148  lockingWallet */\n      0x01\n        /* \"contracts/Vesting.sol\":5135:5160  lockingWallet[msg.sender] */\n      0x00\n        /* \"contracts/Vesting.sol\":5149:5159  msg.sender */\n      caller\n        /* \"contracts/Vesting.sol\":5135:5160  lockingWallet[msg.sender] */\n      0xffffffffffffffffffffffffffffffffffffffff\n      and\n      0xffffffffffffffffffffffffffffffffffffffff\n      and\n      dup2\n      mstore\n      0x20\n      add\n      swap1\n      dup2\n      mstore\n      0x20\n      add\n      0x00\n      keccak256\n      sload\n        /* \"contracts/Vesting.sol\":5135:5163  lockingWallet[msg.sender]/12 */\n      tag_123\n      swap2\n      swap1\n      tag_79\n      jump\t// in\n    tag_123:\n        /* \"contracts/Vesting.sol\":5120:5163  VestingAmount+=lockingWallet[msg.sender]/12 */\n      dup3\n      tag_124\n      swap2\n      swap1\n      tag_89\n      jump\t// in\n    tag_124:\n      swap2\n      pop\n        /* \"contracts/Vesting.sol\":5223:5285  _withdrawdetails(block.timestamp,lockingWallet[msg.sender]/12) */\n      mload(0x40)\n      dup1\n      0x40\n      add\n      0x40\n      mstore\n      dup1\n        /* \"contracts/Vesting.sol\":5240:5255  block.timestamp */\n      timestamp\n        /* \"contracts/Vesting.sol\":5223:5285  _withdrawdetails(block.timestamp,lockingWallet[msg.sender]/12) */\n      dup2\n      mstore\n      0x20\n      add\n        /* \"contracts/Vesting.sol\":5282:5284  12 */\n      0x0c\n        /* \"contracts/Vesting.sol\":5256:5269  lockingWallet */\n      0x01\n        /* \"contracts/Vesting.sol\":5256:5281  lockingWallet[msg.sender] */\n      0x00\n        /* \"contracts/Vesting.sol\":5270:5280  msg.sender */\n      caller\n        /* \"contracts/Vesting.sol\":5256:5281  lockingWallet[msg.sender] */\n      0xffffffffffffffffffffffffffffffffffffffff\n      and\n      0xffffffffffffffffffffffffffffffffffffffff\n      and\n      dup2\n      mstore\n      0x20\n      add\n      swap1\n      dup2\n      mstore\n      0x20\n      add\n      0x00\n      keccak256\n      sload\n        /* \"contracts/Vesting.sol\":5256:5284  lockingWallet[msg.sender]/12 */\n      tag_125\n      swap2\n      swap1\n      tag_79\n      jump\t// in\n    tag_125:\n        /* \"contracts/Vesting.sol\":5223:5285  _withdrawdetails(block.timestamp,lockingWallet[msg.sender]/12) */\n      dup2\n      mstore\n      pop\n        /* \"contracts/Vesting.sol\":5190:5205  withdrawdetails */\n      0x04\n        /* \"contracts/Vesting.sol\":5190:5217  withdrawdetails[msg.sender] */\n      0x00\n        /* \"contracts/Vesting.sol\":5206:5216  msg.sender */\n      caller\n        /* \"contracts/Vesting.sol\":5190:5217  withdrawdetails[msg.sender] */\n      0xffffffffffffffffffffffffffffffffffffffff\n      and\n      0xffffffffffffffffffffffffffffffffffffffff\n      and\n      dup2\n      mstore\n      0x20\n      add\n      swap1\n      dup2\n      mstore\n      0x20\n      add\n      0x00\n      keccak256\n        /* \"contracts/Vesting.sol\":5190:5222  withdrawdetails[msg.sender][i+1] */\n      0x00\n        /* \"contracts/Vesting.sol\":5220:5221  1 */\n      0x01\n        /* \"contracts/Vesting.sol\":5218:5219  i */\n      dup5\n        /* \"contracts/Vesting.sol\":5218:5221  i+1 */\n      tag_126\n      swap2\n      swap1\n      tag_89\n      jump\t// in\n    tag_126:\n        /* \"contracts/Vesting.sol\":5190:5222  withdrawdetails[msg.sender][i+1] */\n      dup2\n      mstore\n      0x20\n      add\n      swap1\n      dup2\n      mstore\n      0x20\n      add\n      0x00\n      keccak256\n        /* \"contracts/Vesting.sol\":5190:5285  withdrawdetails[msg.sender][i+1]=_withdrawdetails(block.timestamp,lockingWallet[msg.sender]/12) */\n      0x00\n      dup3\n      add\n      mload\n      dup2\n      0x00\n      add\n      sstore\n      0x20\n      dup3\n      add\n      mload\n      dup2\n      0x01\n      add\n      sstore\n      swap1\n      pop\n      pop\n        /* \"contracts/Vesting.sol\":5026:5356  if(withdrawdetails[msg.sender][i+1].time==0) ... */\n    tag_122:\n        /* \"contracts/Vesting.sol\":4946:5432  if(block.timestamp>=unlockDate[msg.sender]+(onemonth*i)){ ... */\n      jump(tag_127)\n    tag_120:\n        /* \"contracts/Vesting.sol\":5406:5411  break */\n      jump(tag_113)\n        /* \"contracts/Vesting.sol\":4946:5432  if(block.timestamp>=unlockDate[msg.sender]+(onemonth*i)){ ... */\n    tag_127:\n        /* \"contracts/Vesting.sol\":4818:4821  i++ */\n      dup1\n      dup1\n      tag_128\n      swap1\n      tag_94\n      jump\t// in\n    tag_128:\n      swap2\n      pop\n      pop\n        /* \"contracts/Vesting.sol\":4800:5448  for(uint i=0;i<12;i++) ... */\n      jump(tag_112)\n    tag_113:\n      pop\n        /* \"contracts/Vesting.sol\":5487:5488  0 */\n      0x00\n        /* \"contracts/Vesting.sol\":5471:5484  VestingAmount */\n      dup2\n        /* \"contracts/Vesting.sol\":5471:5488  VestingAmount > 0 */\n      gt\n        /* \"contracts/Vesting.sol\":5463:5532  require(VestingAmount > 0,\"Withdraw amount should be greater then 0\") */\n      tag_129\n      jumpi\n      mload(0x40)\n      0x08c379a000000000000000000000000000000000000000000000000000000000\n      dup2\n      mstore\n      0x04\n      add\n      tag_130\n      swap1\n      tag_131\n      jump\t// in\n    tag_130:\n      mload(0x40)\n      dup1\n      swap2\n      sub\n      swap1\n      revert\n    tag_129:\n        /* \"contracts/Vesting.sol\":5553:5566  tokenContract */\n      0x06\n      0x00\n      swap1\n      sload\n      swap1\n      0x0100\n      exp\n      swap1\n      div\n      0xffffffffffffffffffffffffffffffffffffffff\n      and\n        /* \"contracts/Vesting.sol\":5547:5576  Token(tokenContract).transfer */\n      0xffffffffffffffffffffffffffffffffffffffff\n      and\n      0xa9059cbb\n        /* \"contracts/Vesting.sol\":5577:5587  msg.sender */\n      caller\n        /* \"contracts/Vesting.sol\":5589:5602  VestingAmount */\n      dup4\n        /* \"contracts/Vesting.sol\":5547:5603  Token(tokenContract).transfer(msg.sender, VestingAmount) */\n      mload(0x40)\n      dup4\n      0xffffffff\n      and\n      0xe0\n      shl\n      dup2\n      mstore\n      0x04\n      add\n      tag_132\n      swap3\n      swap2\n      swap1\n      tag_133\n      jump\t// in\n    tag_132:\n      0x20\n      mload(0x40)\n      dup1\n      dup4\n      sub\n      dup2\n      0x00\n      dup8\n      gas\n      call\n      iszero\n      dup1\n      iszero\n      tag_135\n      jumpi\n      returndatasize\n      0x00\n      dup1\n      returndatacopy\n      revert(0x00, returndatasize)\n    tag_135:\n      pop\n      pop\n      pop\n      pop\n      mload(0x40)\n      returndatasize\n      not(0x1f)\n      0x1f\n      dup3\n      add\n      and\n      dup3\n      add\n      dup1\n      0x40\n      mstore\n      pop\n      dup2\n      add\n      swap1\n      tag_136\n      swap2\n      swap1\n      tag_137\n      jump\t// in\n    tag_136:\n      pop\n        /* \"contracts/Vesting.sol\":5635:5669  withdraw(msg.sender,VestingAmount) */\n      0xf3fef3a3f44f9c277339b67d54f015748bd8d6b77a985b0ab6e71126b018c34a\n        /* \"contracts/Vesting.sol\":5644:5654  msg.sender */\n      caller\n        /* \"contracts/Vesting.sol\":5655:5668  VestingAmount */\n      dup3\n        /* \"contracts/Vesting.sol\":5635:5669  withdraw(msg.sender,VestingAmount) */\n      mload(0x40)\n      tag_138\n      swap3\n      swap2\n      swap1\n      tag_133\n      jump\t// in\n    tag_138:\n      mload(0x40)\n      dup1\n      swap2\n      sub\n      swap1\n      log1\n        /* \"contracts/Vesting.sol\":5691:5695  true */\n      0x01\n        /* \"contracts/Vesting.sol\":5684:5695  return true */\n      swap2\n      pop\n      pop\n        /* \"contracts/Vesting.sol\":4705:5702  function withdrawTokens()public returns (bool){ ... */\n      swap1\n      jump\t// out\n        /* \"contracts/Vesting.sol\":506:526  address public owner */\n    tag_66:\n      0x00\n      dup1\n      sload\n      swap1\n      0x0100\n      exp\n      swap1\n      div\n      0xffffffffffffffffffffffffffffffffffffffff\n      and\n      dup2\n      jump\t// out\n        /* \"contracts/Vesting.sol\":533:578  mapping(address => uint) public lockingWallet */\n    tag_70:\n      mstore(0x20, 0x01)\n      dup1\n      0x00\n      mstore\n      keccak256(0x00, 0x40)\n      0x00\n      swap2\n      pop\n      swap1\n      pop\n      sload\n      dup2\n      jump\t// out\n        /* \"contracts/Vesting.sol\":916:961  mapping(address => uint) public completedMoth */\n    tag_74:\n      mstore(0x20, 0x09)\n      dup1\n      0x00\n      mstore\n      keccak256(0x00, 0x40)\n      0x00\n      swap2\n      pop\n      swap1\n      pop\n      sload\n      dup2\n      jump\t// out\n        /* \"#utility.yul\":88:205   */\n    tag_140:\n        /* \"#utility.yul\":197:198   */\n      0x00\n        /* \"#utility.yul\":194:195   */\n      dup1\n        /* \"#utility.yul\":187:199   */\n      revert\n        /* \"#utility.yul\":334:460   */\n    tag_142:\n        /* \"#utility.yul\":371:378   */\n      0x00\n        /* \"#utility.yul\":411:453   */\n      0xffffffffffffffffffffffffffffffffffffffff\n        /* \"#utility.yul\":404:409   */\n      dup3\n        /* \"#utility.yul\":400:454   */\n      and\n        /* \"#utility.yul\":389:454   */\n      swap1\n      pop\n        /* \"#utility.yul\":334:460   */\n      swap2\n      swap1\n      pop\n      jump\t// out\n        /* \"#utility.yul\":466:562   */\n    tag_143:\n        /* \"#utility.yul\":503:510   */\n      0x00\n        /* \"#utility.yul\":532:556   */\n      tag_168\n        /* \"#utility.yul\":550:555   */\n      dup3\n        /* \"#utility.yul\":532:556   */\n      tag_142\n      jump\t// in\n    tag_168:\n        /* \"#utility.yul\":521:556   */\n      swap1\n      pop\n        /* \"#utility.yul\":466:562   */\n      swap2\n      swap1\n      pop\n      jump\t// out\n        /* \"#utility.yul\":568:690   */\n    tag_144:\n        /* \"#utility.yul\":641:665   */\n      tag_170\n        /* \"#utility.yul\":659:664   */\n      dup2\n        /* \"#utility.yul\":641:665   */\n      tag_143\n      jump\t// in\n    tag_170:\n        /* \"#utility.yul\":634:639   */\n      dup2\n        /* \"#utility.yul\":631:666   */\n      eq\n        /* \"#utility.yul\":621:684   */\n      tag_171\n      jumpi\n        /* \"#utility.yul\":680:681   */\n      0x00\n        /* \"#utility.yul\":677:678   */\n      dup1\n        /* \"#utility.yul\":670:682   */\n      revert\n        /* \"#utility.yul\":621:684   */\n    tag_171:\n        /* \"#utility.yul\":568:690   */\n      pop\n      jump\t// out\n        /* \"#utility.yul\":696:835   */\n    tag_145:\n        /* \"#utility.yul\":742:747   */\n      0x00\n        /* \"#utility.yul\":780:786   */\n      dup2\n        /* \"#utility.yul\":767:787   */\n      calldataload\n        /* \"#utility.yul\":758:787   */\n      swap1\n      pop\n        /* \"#utility.yul\":796:829   */\n      tag_173\n        /* \"#utility.yul\":823:828   */\n      dup2\n        /* \"#utility.yul\":796:829   */\n      tag_144\n      jump\t// in\n    tag_173:\n        /* \"#utility.yul\":696:835   */\n      swap3\n      swap2\n      pop\n      pop\n      jump\t// out\n        /* \"#utility.yul\":841:1170   */\n    tag_22:\n        /* \"#utility.yul\":900:906   */\n      0x00\n        /* \"#utility.yul\":949:951   */\n      0x20\n        /* \"#utility.yul\":937:946   */\n      dup3\n        /* \"#utility.yul\":928:935   */\n      dup5\n        /* \"#utility.yul\":924:947   */\n      sub\n        /* \"#utility.yul\":920:952   */\n      slt\n        /* \"#utility.yul\":917:1036   */\n      iszero\n      tag_175\n      jumpi\n        /* \"#utility.yul\":955:1034   */\n      tag_176\n      tag_140\n      jump\t// in\n    tag_176:\n        /* \"#utility.yul\":917:1036   */\n    tag_175:\n        /* \"#utility.yul\":1075:1076   */\n      0x00\n        /* \"#utility.yul\":1100:1153   */\n      tag_177\n        /* \"#utility.yul\":1145:1152   */\n      dup5\n        /* \"#utility.yul\":1136:1142   */\n      dup3\n        /* \"#utility.yul\":1125:1134   */\n      dup6\n        /* \"#utility.yul\":1121:1143   */\n      add\n        /* \"#utility.yul\":1100:1153   */\n      tag_145\n      jump\t// in\n    tag_177:\n        /* \"#utility.yul\":1090:1153   */\n      swap2\n      pop\n        /* \"#utility.yul\":1046:1163   */\n      pop\n        /* \"#utility.yul\":841:1170   */\n      swap3\n      swap2\n      pop\n      pop\n      jump\t// out\n        /* \"#utility.yul\":1176:1253   */\n    tag_146:\n        /* \"#utility.yul\":1213:1220   */\n      0x00\n        /* \"#utility.yul\":1242:1247   */\n      dup2\n        /* \"#utility.yul\":1231:1247   */\n      swap1\n      pop\n        /* \"#utility.yul\":1176:1253   */\n      swap2\n      swap1\n      pop\n      jump\t// out\n        /* \"#utility.yul\":1259:1377   */\n    tag_147:\n        /* \"#utility.yul\":1346:1370   */\n      tag_180\n        /* \"#utility.yul\":1364:1369   */\n      dup2\n        /* \"#utility.yul\":1346:1370   */\n      tag_146\n      jump\t// in\n    tag_180:\n        /* \"#utility.yul\":1341:1344   */\n      dup3\n        /* \"#utility.yul\":1334:1371   */\n      mstore\n        /* \"#utility.yul\":1259:1377   */\n      pop\n      pop\n      jump\t// out\n        /* \"#utility.yul\":1383:1605   */\n    tag_25:\n        /* \"#utility.yul\":1476:1480   */\n      0x00\n        /* \"#utility.yul\":1514:1516   */\n      0x20\n        /* \"#utility.yul\":1503:1512   */\n      dup3\n        /* \"#utility.yul\":1499:1517   */\n      add\n        /* \"#utility.yul\":1491:1517   */\n      swap1\n      pop\n        /* \"#utility.yul\":1527:1598   */\n      tag_182\n        /* \"#utility.yul\":1595:1596   */\n      0x00\n        /* \"#utility.yul\":1584:1593   */\n      dup4\n        /* \"#utility.yul\":1580:1597   */\n      add\n        /* \"#utility.yul\":1571:1577   */\n      dup5\n        /* \"#utility.yul\":1527:1598   */\n      tag_147\n      jump\t// in\n    tag_182:\n        /* \"#utility.yul\":1383:1605   */\n      swap3\n      swap2\n      pop\n      pop\n      jump\t// out\n        /* \"#utility.yul\":1611:1729   */\n    tag_148:\n        /* \"#utility.yul\":1698:1722   */\n      tag_184\n        /* \"#utility.yul\":1716:1721   */\n      dup2\n        /* \"#utility.yul\":1698:1722   */\n      tag_143\n      jump\t// in\n    tag_184:\n        /* \"#utility.yul\":1693:1696   */\n      dup3\n        /* \"#utility.yul\":1686:1723   */\n      mstore\n        /* \"#utility.yul\":1611:1729   */\n      pop\n      pop\n      jump\t// out\n        /* \"#utility.yul\":1735:1957   */\n    tag_40:\n        /* \"#utility.yul\":1828:1832   */\n      0x00\n        /* \"#utility.yul\":1866:1868   */\n      0x20\n        /* \"#utility.yul\":1855:1864   */\n      dup3\n        /* \"#utility.yul\":1851:1869   */\n      add\n        /* \"#utility.yul\":1843:1869   */\n      swap1\n      pop\n        /* \"#utility.yul\":1879:1950   */\n      tag_186\n        /* \"#utility.yul\":1947:1948   */\n      0x00\n        /* \"#utility.yul\":1936:1945   */\n      dup4\n        /* \"#utility.yul\":1932:1949   */\n      add\n        /* \"#utility.yul\":1923:1929   */\n      dup5\n        /* \"#utility.yul\":1879:1950   */\n      tag_148\n      jump\t// in\n    tag_186:\n        /* \"#utility.yul\":1735:1957   */\n      swap3\n      swap2\n      pop\n      pop\n      jump\t// out\n        /* \"#utility.yul\":1963:2085   */\n    tag_149:\n        /* \"#utility.yul\":2036:2060   */\n      tag_188\n        /* \"#utility.yul\":2054:2059   */\n      dup2\n        /* \"#utility.yul\":2036:2060   */\n      tag_146\n      jump\t// in\n    tag_188:\n        /* \"#utility.yul\":2029:2034   */\n      dup2\n        /* \"#utility.yul\":2026:2061   */\n      eq\n        /* \"#utility.yul\":2016:2079   */\n      tag_189\n      jumpi\n        /* \"#utility.yul\":2075:2076   */\n      0x00\n        /* \"#utility.yul\":2072:2073   */\n      dup1\n        /* \"#utility.yul\":2065:2077   */\n      revert\n        /* \"#utility.yul\":2016:2079   */\n    tag_189:\n        /* \"#utility.yul\":1963:2085   */\n      pop\n      jump\t// out\n        /* \"#utility.yul\":2091:2230   */\n    tag_150:\n        /* \"#utility.yul\":2137:2142   */\n      0x00\n        /* \"#utility.yul\":2175:2181   */\n      dup2\n        /* \"#utility.yul\":2162:2182   */\n      calldataload\n        /* \"#utility.yul\":2153:2182   */\n      swap1\n      pop\n        /* \"#utility.yul\":2191:2224   */\n      tag_191\n        /* \"#utility.yul\":2218:2223   */\n      dup2\n        /* \"#utility.yul\":2191:2224   */\n      tag_149\n      jump\t// in\n    tag_191:\n        /* \"#utility.yul\":2091:2230   */\n      swap3\n      swap2\n      pop\n      pop\n      jump\t// out\n        /* \"#utility.yul\":2236:2710   */\n    tag_49:\n        /* \"#utility.yul\":2304:2310   */\n      0x00\n        /* \"#utility.yul\":2312:2318   */\n      dup1\n        /* \"#utility.yul\":2361:2363   */\n      0x40\n        /* \"#utility.yul\":2349:2358   */\n      dup4\n        /* \"#utility.yul\":2340:2347   */\n      dup6\n        /* \"#utility.yul\":2336:2359   */\n      sub\n        /* \"#utility.yul\":2332:2364   */\n      slt\n        /* \"#utility.yul\":2329:2448   */\n      iszero\n      tag_193\n      jumpi\n        /* \"#utility.yul\":2367:2446   */\n      tag_194\n      tag_140\n      jump\t// in\n    tag_194:\n        /* \"#utility.yul\":2329:2448   */\n    tag_193:\n        /* \"#utility.yul\":2487:2488   */\n      0x00\n        /* \"#utility.yul\":2512:2565   */\n      tag_195\n        /* \"#utility.yul\":2557:2564   */\n      dup6\n        /* \"#utility.yul\":2548:2554   */\n      dup3\n        /* \"#utility.yul\":2537:2546   */\n      dup7\n        /* \"#utility.yul\":2533:2555   */\n      add\n        /* \"#utility.yul\":2512:2565   */\n      tag_145\n      jump\t// in\n    tag_195:\n        /* \"#utility.yul\":2502:2565   */\n      swap3\n      pop\n        /* \"#utility.yul\":2458:2575   */\n      pop\n        /* \"#utility.yul\":2614:2616   */\n      0x20\n        /* \"#utility.yul\":2640:2693   */\n      tag_196\n        /* \"#utility.yul\":2685:2692   */\n      dup6\n        /* \"#utility.yul\":2676:2682   */\n      dup3\n        /* \"#utility.yul\":2665:2674   */\n      dup7\n        /* \"#utility.yul\":2661:2683   */\n      add\n        /* \"#utility.yul\":2640:2693   */\n      tag_150\n      jump\t// in\n    tag_196:\n        /* \"#utility.yul\":2630:2693   */\n      swap2\n      pop\n        /* \"#utility.yul\":2585:2703   */\n      pop\n        /* \"#utility.yul\":2236:2710   */\n      swap3\n      pop\n      swap3\n      swap1\n      pop\n      jump\t// out\n        /* \"#utility.yul\":2716:3048   */\n    tag_52:\n        /* \"#utility.yul\":2837:2841   */\n      0x00\n        /* \"#utility.yul\":2875:2877   */\n      0x40\n        /* \"#utility.yul\":2864:2873   */\n      dup3\n        /* \"#utility.yul\":2860:2878   */\n      add\n        /* \"#utility.yul\":2852:2878   */\n      swap1\n      pop\n        /* \"#utility.yul\":2888:2959   */\n      tag_198\n        /* \"#utility.yul\":2956:2957   */\n      0x00\n        /* \"#utility.yul\":2945:2954   */\n      dup4\n        /* \"#utility.yul\":2941:2958   */\n      add\n        /* \"#utility.yul\":2932:2938   */\n      dup6\n        /* \"#utility.yul\":2888:2959   */\n      tag_147\n      jump\t// in\n    tag_198:\n        /* \"#utility.yul\":2969:3041   */\n      tag_199\n        /* \"#utility.yul\":3037:3039   */\n      0x20\n        /* \"#utility.yul\":3026:3035   */\n      dup4\n        /* \"#utility.yul\":3022:3040   */\n      add\n        /* \"#utility.yul\":3013:3019   */\n      dup5\n        /* \"#utility.yul\":2969:3041   */\n      tag_147\n      jump\t// in\n    tag_199:\n        /* \"#utility.yul\":2716:3048   */\n      swap4\n      swap3\n      pop\n      pop\n      pop\n      jump\t// out\n        /* \"#utility.yul\":3054:3144   */\n    tag_151:\n        /* \"#utility.yul\":3088:3095   */\n      0x00\n        /* \"#utility.yul\":3131:3136   */\n      dup2\n        /* \"#utility.yul\":3124:3137   */\n      iszero\n        /* \"#utility.yul\":3117:3138   */\n      iszero\n        /* \"#utility.yul\":3106:3138   */\n      swap1\n      pop\n        /* \"#utility.yul\":3054:3144   */\n      swap2\n      swap1\n      pop\n      jump\t// out\n        /* \"#utility.yul\":3150:3259   */\n    tag_152:\n        /* \"#utility.yul\":3231:3252   */\n      tag_202\n        /* \"#utility.yul\":3246:3251   */\n      dup2\n        /* \"#utility.yul\":3231:3252   */\n      tag_151\n      jump\t// in\n    tag_202:\n        /* \"#utility.yul\":3226:3229   */\n      dup3\n        /* \"#utility.yul\":3219:3253   */\n      mstore\n        /* \"#utility.yul\":3150:3259   */\n      pop\n      pop\n      jump\t// out\n        /* \"#utility.yul\":3265:3475   */\n    tag_64:\n        /* \"#utility.yul\":3352:3356   */\n      0x00\n        /* \"#utility.yul\":3390:3392   */\n      0x20\n        /* \"#utility.yul\":3379:3388   */\n      dup3\n        /* \"#utility.yul\":3375:3393   */\n      add\n        /* \"#utility.yul\":3367:3393   */\n      swap1\n      pop\n        /* \"#utility.yul\":3403:3468   */\n      tag_204\n        /* \"#utility.yul\":3465:3466   */\n      0x00\n        /* \"#utility.yul\":3454:3463   */\n      dup4\n        /* \"#utility.yul\":3450:3467   */\n      add\n        /* \"#utility.yul\":3441:3447   */\n      dup5\n        /* \"#utility.yul\":3403:3468   */\n      tag_152\n      jump\t// in\n    tag_204:\n        /* \"#utility.yul\":3265:3475   */\n      swap3\n      swap2\n      pop\n      pop\n      jump\t// out\n        /* \"#utility.yul\":3481:3661   */\n    tag_153:\n        /* \"#utility.yul\":3529:3606   */\n      0x4e487b7100000000000000000000000000000000000000000000000000000000\n        /* \"#utility.yul\":3526:3527   */\n      0x00\n        /* \"#utility.yul\":3519:3607   */\n      mstore\n        /* \"#utility.yul\":3626:3630   */\n      0x12\n        /* \"#utility.yul\":3623:3624   */\n      0x04\n        /* \"#utility.yul\":3616:3631   */\n      mstore\n        /* \"#utility.yul\":3650:3654   */\n      0x24\n        /* \"#utility.yul\":3647:3648   */\n      0x00\n        /* \"#utility.yul\":3640:3655   */\n      revert\n        /* \"#utility.yul\":3667:3847   */\n    tag_154:\n        /* \"#utility.yul\":3715:3792   */\n      0x4e487b7100000000000000000000000000000000000000000000000000000000\n        /* \"#utility.yul\":3712:3713   */\n      0x00\n        /* \"#utility.yul\":3705:3793   */\n      mstore\n        /* \"#utility.yul\":3812:3816   */\n      0x11\n        /* \"#utility.yul\":3809:3810   */\n      0x04\n        /* \"#utility.yul\":3802:3817   */\n      mstore\n        /* \"#utility.yul\":3836:3840   */\n      0x24\n        /* \"#utility.yul\":3833:3834   */\n      0x00\n        /* \"#utility.yul\":3826:3841   */\n      revert\n        /* \"#utility.yul\":3853:4038   */\n    tag_79:\n        /* \"#utility.yul\":3893:3894   */\n      0x00\n        /* \"#utility.yul\":3910:3930   */\n      tag_208\n        /* \"#utility.yul\":3928:3929   */\n      dup3\n        /* \"#utility.yul\":3910:3930   */\n      tag_146\n      jump\t// in\n    tag_208:\n        /* \"#utility.yul\":3905:3930   */\n      swap2\n      pop\n        /* \"#utility.yul\":3944:3964   */\n      tag_209\n        /* \"#utility.yul\":3962:3963   */\n      dup4\n        /* \"#utility.yul\":3944:3964   */\n      tag_146\n      jump\t// in\n    tag_209:\n        /* \"#utility.yul\":3939:3964   */\n      swap3\n      pop\n        /* \"#utility.yul\":3983:3984   */\n      dup3\n        /* \"#utility.yul\":3973:4008   */\n      tag_210\n      jumpi\n        /* \"#utility.yul\":3988:4006   */\n      tag_211\n      tag_153\n      jump\t// in\n    tag_211:\n        /* \"#utility.yul\":3973:4008   */\n    tag_210:\n        /* \"#utility.yul\":4030:4031   */\n      dup3\n        /* \"#utility.yul\":4027:4028   */\n      dup3\n        /* \"#utility.yul\":4023:4032   */\n      div\n        /* \"#utility.yul\":4018:4032   */\n      swap1\n      pop\n        /* \"#utility.yul\":3853:4038   */\n      swap3\n      swap2\n      pop\n      pop\n      jump\t// out\n        /* \"#utility.yul\":4044:4454   */\n    tag_81:\n        /* \"#utility.yul\":4084:4091   */\n      0x00\n        /* \"#utility.yul\":4107:4127   */\n      tag_213\n        /* \"#utility.yul\":4125:4126   */\n      dup3\n        /* \"#utility.yul\":4107:4127   */\n      tag_146\n      jump\t// in\n    tag_213:\n        /* \"#utility.yul\":4102:4127   */\n      swap2\n      pop\n        /* \"#utility.yul\":4141:4161   */\n      tag_214\n        /* \"#utility.yul\":4159:4160   */\n      dup4\n        /* \"#utility.yul\":4141:4161   */\n      tag_146\n      jump\t// in\n    tag_214:\n        /* \"#utility.yul\":4136:4161   */\n      swap3\n      pop\n        /* \"#utility.yul\":4196:4197   */\n      dup3\n        /* \"#utility.yul\":4193:4194   */\n      dup3\n        /* \"#utility.yul\":4189:4198   */\n      mul\n        /* \"#utility.yul\":4218:4248   */\n      tag_215\n        /* \"#utility.yul\":4236:4247   */\n      dup2\n        /* \"#utility.yul\":4218:4248   */\n      tag_146\n      jump\t// in\n    tag_215:\n        /* \"#utility.yul\":4207:4248   */\n      swap2\n      pop\n        /* \"#utility.yul\":4397:4398   */\n      dup3\n        /* \"#utility.yul\":4388:4395   */\n      dup3\n        /* \"#utility.yul\":4384:4399   */\n      div\n        /* \"#utility.yul\":4381:4382   */\n      dup5\n        /* \"#utility.yul\":4378:4400   */\n      eq\n        /* \"#utility.yul\":4358:4359   */\n      dup4\n        /* \"#utility.yul\":4351:4360   */\n      iszero\n        /* \"#utility.yul\":4331:4414   */\n      or\n        /* \"#utility.yul\":4308:4447   */\n      tag_216\n      jumpi\n        /* \"#utility.yul\":4427:4445   */\n      tag_217\n      tag_154\n      jump\t// in\n    tag_217:\n        /* \"#utility.yul\":4308:4447   */\n    tag_216:\n        /* \"#utility.yul\":4092:4454   */\n      pop\n        /* \"#utility.yul\":4044:4454   */\n      swap3\n      swap2\n      pop\n      pop\n      jump\t// out\n        /* \"#utility.yul\":4460:4651   */\n    tag_89:\n        /* \"#utility.yul\":4500:4503   */\n      0x00\n        /* \"#utility.yul\":4519:4539   */\n      tag_219\n        /* \"#utility.yul\":4537:4538   */\n      dup3\n        /* \"#utility.yul\":4519:4539   */\n      tag_146\n      jump\t// in\n    tag_219:\n        /* \"#utility.yul\":4514:4539   */\n      swap2\n      pop\n        /* \"#utility.yul\":4553:4573   */\n      tag_220\n        /* \"#utility.yul\":4571:4572   */\n      dup4\n        /* \"#utility.yul\":4553:4573   */\n      tag_146\n      jump\t// in\n    tag_220:\n        /* \"#utility.yul\":4548:4573   */\n      swap3\n      pop\n        /* \"#utility.yul\":4596:4597   */\n      dup3\n        /* \"#utility.yul\":4593:4594   */\n      dup3\n        /* \"#utility.yul\":4589:4598   */\n      add\n        /* \"#utility.yul\":4582:4598   */\n      swap1\n      pop\n        /* \"#utility.yul\":4617:4620   */\n      dup1\n        /* \"#utility.yul\":4614:4615   */\n      dup3\n        /* \"#utility.yul\":4611:4621   */\n      gt\n        /* \"#utility.yul\":4608:4644   */\n      iszero\n      tag_221\n      jumpi\n        /* \"#utility.yul\":4624:4642   */\n      tag_222\n      tag_154\n      jump\t// in\n    tag_222:\n        /* \"#utility.yul\":4608:4644   */\n    tag_221:\n        /* \"#utility.yul\":4460:4651   */\n      swap3\n      swap2\n      pop\n      pop\n      jump\t// out\n        /* \"#utility.yul\":4657:4890   */\n    tag_94:\n        /* \"#utility.yul\":4696:4699   */\n      0x00\n        /* \"#utility.yul\":4719:4743   */\n      tag_224\n        /* \"#utility.yul\":4737:4742   */\n      dup3\n        /* \"#utility.yul\":4719:4743   */\n      tag_146\n      jump\t// in\n    tag_224:\n        /* \"#utility.yul\":4710:4743   */\n      swap2\n      pop\n        /* \"#utility.yul\":4765:4831   */\n      0xffffffffffffffffffffffffffffffffffffffffffffffffffffffffffffffff\n        /* \"#utility.yul\":4758:4763   */\n      dup3\n        /* \"#utility.yul\":4755:4832   */\n      sub\n        /* \"#utility.yul\":4752:4855   */\n      tag_225\n      jumpi\n        /* \"#utility.yul\":4835:4853   */\n      tag_226\n      tag_154\n      jump\t// in\n    tag_226:\n        /* \"#utility.yul\":4752:4855   */\n    tag_225:\n        /* \"#utility.yul\":4882:4883   */\n      0x01\n        /* \"#utility.yul\":4875:4880   */\n      dup3\n        /* \"#utility.yul\":4871:4884   */\n      add\n        /* \"#utility.yul\":4864:4884   */\n      swap1\n      pop\n        /* \"#utility.yul\":4657:4890   */\n      swap2\n      swap1\n      pop\n      jump\t// out\n        /* \"#utility.yul\":4896:5090   */\n    tag_96:\n        /* \"#utility.yul\":4936:4940   */\n      0x00\n        /* \"#utility.yul\":4956:4976   */\n      tag_228\n        /* \"#utility.yul\":4974:4975   */\n      dup3\n        /* \"#utility.yul\":4956:4976   */\n      tag_146\n      jump\t// in\n    tag_228:\n        /* \"#utility.yul\":4951:4976   */\n      swap2\n      pop\n        /* \"#utility.yul\":4990:5010   */\n      tag_229\n        /* \"#utility.yul\":5008:5009   */\n      dup4\n        /* \"#utility.yul\":4990:5010   */\n      tag_146\n      jump\t// in\n    tag_229:\n        /* \"#utility.yul\":4985:5010   */\n      swap3\n      pop\n        /* \"#utility.yul\":5034:5035   */\n      dup3\n        /* \"#utility.yul\":5031:5032   */\n      dup3\n        /* \"#utility.yul\":5027:5036   */\n      sub\n        /* \"#utility.yul\":5019:5036   */\n      swap1\n      pop\n        /* \"#utility.yul\":5058:5059   */\n      dup2\n        /* \"#utility.yul\":5052:5056   */\n      dup2\n        /* \"#utility.yul\":5049:5060   */\n      gt\n        /* \"#utility.yul\":5046:5083   */\n      iszero\n      tag_230\n      jumpi\n        /* \"#utility.yul\":5063:5081   */\n      tag_231\n      tag_154\n      jump\t// in\n    tag_231:\n        /* \"#utility.yul\":5046:5083   */\n    tag_230:\n        /* \"#utility.yul\":4896:5090   */\n      swap3\n      swap2\n      pop\n      pop\n      jump\t// out\n        /* \"#utility.yul\":5096:5265   */\n    tag_155:\n        /* \"#utility.yul\":5180:5191   */\n      0x00\n        /* \"#utility.yul\":5214:5220   */\n      dup3\n        /* \"#utility.yul\":5209:5212   */\n      dup3\n        /* \"#utility.yul\":5202:5221   */\n      mstore\n        /* \"#utility.yul\":5254:5258   */\n      0x20\n        /* \"#utility.yul\":5249:5252   */\n      dup3\n        /* \"#utility.yul\":5245:5259   */\n      add\n        /* \"#utility.yul\":5230:5259   */\n      swap1\n      pop\n        /* \"#utility.yul\":5096:5265   */\n      swap3\n      swap2\n      pop\n      pop\n      jump\t// out\n        /* \"#utility.yul\":5271:5439   */\n    tag_156:\n        /* \"#utility.yul\":5411:5431   */\n      0x556e61626c6520746f2057697468647261770000000000000000000000000000\n        /* \"#utility.yul\":5407:5408   */\n      0x00\n        /* \"#utility.yul\":5399:5405   */\n      dup3\n        /* \"#utility.yul\":5395:5409   */\n      add\n        /* \"#utility.yul\":5388:5432   */\n      mstore\n        /* \"#utility.yul\":5271:5439   */\n      pop\n      jump\t// out\n        /* \"#utility.yul\":5445:5811   */\n    tag_157:\n        /* \"#utility.yul\":5587:5590   */\n      0x00\n        /* \"#utility.yul\":5608:5675   */\n      tag_235\n        /* \"#utility.yul\":5672:5674   */\n      0x12\n        /* \"#utility.yul\":5667:5670   */\n      dup4\n        /* \"#utility.yul\":5608:5675   */\n      tag_155\n      jump\t// in\n    tag_235:\n        /* \"#utility.yul\":5601:5675   */\n      swap2\n      pop\n        /* \"#utility.yul\":5684:5777   */\n      tag_236\n        /* \"#utility.yul\":5773:5776   */\n      dup3\n        /* \"#utility.yul\":5684:5777   */\n      tag_156\n      jump\t// in\n    tag_236:\n        /* \"#utility.yul\":5802:5804   */\n      0x20\n        /* \"#utility.yul\":5797:5800   */\n      dup3\n        /* \"#utility.yul\":5793:5805   */\n      add\n        /* \"#utility.yul\":5786:5805   */\n      swap1\n      pop\n        /* \"#utility.yul\":5445:5811   */\n      swap2\n      swap1\n      pop\n      jump\t// out\n        /* \"#utility.yul\":5817:6236   */\n    tag_117:\n        /* \"#utility.yul\":5983:5987   */\n      0x00\n        /* \"#utility.yul\":6021:6023   */\n      0x20\n        /* \"#utility.yul\":6010:6019   */\n      dup3\n        /* \"#utility.yul\":6006:6024   */\n      add\n        /* \"#utility.yul\":5998:6024   */\n      swap1\n      pop\n        /* \"#utility.yul\":6070:6079   */\n      dup2\n        /* \"#utility.yul\":6064:6068   */\n      dup2\n        /* \"#utility.yul\":6060:6080   */\n      sub\n        /* \"#utility.yul\":6056:6057   */\n      0x00\n        /* \"#utility.yul\":6045:6054   */\n      dup4\n        /* \"#utility.yul\":6041:6058   */\n      add\n        /* \"#utility.yul\":6034:6081   */\n      mstore\n        /* \"#utility.yul\":6098:6229   */\n      tag_238\n        /* \"#utility.yul\":6224:6228   */\n      dup2\n        /* \"#utility.yul\":6098:6229   */\n      tag_157\n      jump\t// in\n    tag_238:\n        /* \"#utility.yul\":6090:6229   */\n      swap1\n      pop\n        /* \"#utility.yul\":5817:6236   */\n      swap2\n      swap1\n      pop\n      jump\t// out\n        /* \"#utility.yul\":6242:6469   */\n    tag_158:\n        /* \"#utility.yul\":6382:6416   */\n      0x576974686472617720616d6f756e742073686f756c6420626520677265617465\n        /* \"#utility.yul\":6378:6379   */\n      0x00\n        /* \"#utility.yul\":6370:6376   */\n      dup3\n        /* \"#utility.yul\":6366:6380   */\n      add\n        /* \"#utility.yul\":6359:6417   */\n      mstore\n        /* \"#utility.yul\":6451:6461   */\n      0x72207468656e2030000000000000000000000000000000000000000000000000\n        /* \"#utility.yul\":6446:6448   */\n      0x20\n        /* \"#utility.yul\":6438:6444   */\n      dup3\n        /* \"#utility.yul\":6434:6449   */\n      add\n        /* \"#utility.yul\":6427:6462   */\n      mstore\n        /* \"#utility.yul\":6242:6469   */\n      pop\n      jump\t// out\n        /* \"#utility.yul\":6475:6841   */\n    tag_159:\n        /* \"#utility.yul\":6617:6620   */\n      0x00\n        /* \"#utility.yul\":6638:6705   */\n      tag_241\n        /* \"#utility.yul\":6702:6704   */\n      0x28\n        /* \"#utility.yul\":6697:6700   */\n      dup4\n        /* \"#utility.yul\":6638:6705   */\n      tag_155\n      jump\t// in\n    tag_241:\n        /* \"#utility.yul\":6631:6705   */\n      swap2\n      pop\n        /* \"#utility.yul\":6714:6807   */\n      tag_242\n        /* \"#utility.yul\":6803:6806   */\n      dup3\n        /* \"#utility.yul\":6714:6807   */\n      tag_158\n      jump\t// in\n    tag_242:\n        /* \"#utility.yul\":6832:6834   */\n      0x40\n        /* \"#utility.yul\":6827:6830   */\n      dup3\n        /* \"#utility.yul\":6823:6835   */\n      add\n        /* \"#utility.yul\":6816:6835   */\n      swap1\n      pop\n        /* \"#utility.yul\":6475:6841   */\n      swap2\n      swap1\n      pop\n      jump\t// out\n        /* \"#utility.yul\":6847:7266   */\n    tag_131:\n        /* \"#utility.yul\":7013:7017   */\n      0x00\n        /* \"#utility.yul\":7051:7053   */\n      0x20\n        /* \"#utility.yul\":7040:7049   */\n      dup3\n        /* \"#utility.yul\":7036:7054   */\n      add\n        /* \"#utility.yul\":7028:7054   */\n      swap1\n      pop\n        /* \"#utility.yul\":7100:7109   */\n      dup2\n        /* \"#utility.yul\":7094:7098   */\n      dup2\n        /* \"#utility.yul\":7090:7110   */\n      sub\n        /* \"#utility.yul\":7086:7087   */\n      0x00\n        /* \"#utility.yul\":7075:7084   */\n      dup4\n        /* \"#utility.yul\":7071:7088   */\n      add\n        /* \"#utility.yul\":7064:7111   */\n      mstore\n        /* \"#utility.yul\":7128:7259   */\n      tag_244\n        /* \"#utility.yul\":7254:7258   */\n      dup2\n        /* \"#utility.yul\":7128:7259   */\n      tag_159\n      jump\t// in\n    tag_244:\n        /* \"#utility.yul\":7120:7259   */\n      swap1\n      pop\n        /* \"#utility.yul\":6847:7266   */\n      swap2\n      swap1\n      pop\n      jump\t// out\n        /* \"#utility.yul\":7272:7604   */\n    tag_133:\n        /* \"#utility.yul\":7393:7397   */\n      0x00\n        /* \"#utility.yul\":7431:7433   */\n      0x40\n        /* \"#utility.yul\":7420:7429   */\n      dup3\n        /* \"#utility.yul\":7416:7434   */\n      add\n        /* \"#utility.yul\":7408:7434   */\n      swap1\n      pop\n        /* \"#utility.yul\":7444:7515   */\n      tag_246\n        /* \"#utility.yul\":7512:7513   */\n      0x00\n        /* \"#utility.yul\":7501:7510   */\n      dup4\n        /* \"#utility.yul\":7497:7514   */\n      add\n        /* \"#utility.yul\":7488:7494   */\n      dup6\n        /* \"#utility.yul\":7444:7515   */\n      tag_148\n      jump\t// in\n    tag_246:\n        /* \"#utility.yul\":7525:7597   */\n      tag_247\n        /* \"#utility.yul\":7593:7595   */\n      0x20\n        /* \"#utility.yul\":7582:7591   */\n      dup4\n        /* \"#utility.yul\":7578:7596   */\n      add\n        /* \"#utility.yul\":7569:7575   */\n      dup5\n        /* \"#utility.yul\":7525:7597   */\n      tag_147\n      jump\t// in\n    tag_247:\n        /* \"#utility.yul\":7272:7604   */\n      swap4\n      swap3\n      pop\n      pop\n      pop\n      jump\t// out\n        /* \"#utility.yul\":7610:7726   */\n    tag_160:\n        /* \"#utility.yul\":7680:7701   */\n      tag_249\n        /* \"#utility.yul\":7695:7700   */\n      dup2\n        /* \"#utility.yul\":7680:7701   */\n      tag_151\n      jump\t// in\n    tag_249:\n        /* \"#utility.yul\":7673:7678   */\n      dup2\n        /* \"#utility.yul\":7670:7702   */\n      eq\n        /* \"#utility.yul\":7660:7720   */\n      tag_250\n      jumpi\n        /* \"#utility.yul\":7716:7717   */\n      0x00\n        /* \"#utility.yul\":7713:7714   */\n      dup1\n        /* \"#utility.yul\":7706:7718   */\n      revert\n        /* \"#utility.yul\":7660:7720   */\n    tag_250:\n        /* \"#utility.yul\":7610:7726   */\n      pop\n      jump\t// out\n        /* \"#utility.yul\":7732:7869   */\n    tag_161:\n        /* \"#utility.yul\":7786:7791   */\n      0x00\n        /* \"#utility.yul\":7817:7823   */\n      dup2\n        /* \"#utility.yul\":7811:7824   */\n      mload\n        /* \"#utility.yul\":7802:7824   */\n      swap1\n      pop\n        /* \"#utility.yul\":7833:7863   */\n      tag_252\n        /* \"#utility.yul\":7857:7862   */\n      dup2\n        /* \"#utility.yul\":7833:7863   */\n      tag_160\n      jump\t// in\n    tag_252:\n        /* \"#utility.yul\":7732:7869   */\n      swap3\n      swap2\n      pop\n      pop\n      jump\t// out\n        /* \"#utility.yul\":7875:8220   */\n    tag_137:\n        /* \"#utility.yul\":7942:7948   */\n      0x00\n        /* \"#utility.yul\":7991:7993   */\n      0x20\n        /* \"#utility.yul\":7979:7988   */\n      dup3\n        /* \"#utility.yul\":7970:7977   */\n      dup5\n        /* \"#utility.yul\":7966:7989   */\n      sub\n        /* \"#utility.yul\":7962:7994   */\n      slt\n        /* \"#utility.yul\":7959:8078   */\n      iszero\n      tag_254\n      jumpi\n        /* \"#utility.yul\":7997:8076   */\n      tag_255\n      tag_140\n      jump\t// in\n    tag_255:\n        /* \"#utility.yul\":7959:8078   */\n    tag_254:\n        /* \"#utility.yul\":8117:8118   */\n      0x00\n        /* \"#utility.yul\":8142:8203   */\n      tag_256\n        /* \"#utility.yul\":8195:8202   */\n      dup5\n        /* \"#utility.yul\":8186:8192   */\n      dup3\n        /* \"#utility.yul\":8175:8184   */\n      dup6\n        /* \"#utility.yul\":8171:8193   */\n      add\n        /* \"#utility.yul\":8142:8203   */\n      tag_161\n      jump\t// in\n    tag_256:\n        /* \"#utility.yul\":8132:8203   */\n      swap2\n      pop\n        /* \"#utility.yul\":8088:8213   */\n      pop\n        /* \"#utility.yul\":7875:8220   */\n      swap3\n      swap2\n      pop\n      pop\n      jump\t// out\n\n    auxdata: 0xa2646970667358221220a6a39542c904211ec56ec896152e4d4ded0d7b4e3ffb28e8f7638f383d6a97df64736f6c63430008130033\n}\n",
				"bytecode": {
					"linkReferences": {},
					"object": "60806040526000600660006101000a81548173ffffffffffffffffffffffffffffffffffffffff021916908373ffffffffffffffffffffffffffffffffffffffff1602179055506228de806007553480156200005a57600080fd5b5060405162001bbb38038062001bbb8339818101604052810190620000809190620008c2565b336000806101000a81548173ffffffffffffffffffffffffffffffffffffffff021916908373ffffffffffffffffffffffffffffffffffffffff16021790555080600660006101000a81548173ffffffffffffffffffffffffffffffffffffffff021916908373ffffffffffffffffffffffffffffffffffffffff16021790555042600581905550600660009054906101000a900473ffffffffffffffffffffffffffffffffffffffff1673ffffffffffffffffffffffffffffffffffffffff1663313ce5676040518163ffffffff1660e01b8152600401602060405180830381865afa15801562000176573d6000803e3d6000fd5b505050506040513d601f19601f820116820180604052508101906200019c919062000932565b60ff16600881905550600854600a620001b6919062000af1565b6408bb2c9700620001c8919062000b42565b60016000731cea248182955ae4f10700ad51abfbc901520b9f73ffffffffffffffffffffffffffffffffffffffff1673ffffffffffffffffffffffffffffffffffffffff16815260200190815260200160002081905550601860026000731cea248182955ae4f10700ad51abfbc901520b9f73ffffffffffffffffffffffffffffffffffffffff1673ffffffffffffffffffffffffffffffffffffffff168152602001908152602001600020819055506201518060026000731cea248182955ae4f10700ad51abfbc901520b9f73ffffffffffffffffffffffffffffffffffffffff1673ffffffffffffffffffffffffffffffffffffffff16815260200190815260200160002054601f620002de919062000b42565b620002ea919062000b42565b600554620002f9919062000b8d565b60036000731cea248182955ae4f10700ad51abfbc901520b9f73ffffffffffffffffffffffffffffffffffffffff1673ffffffffffffffffffffffffffffffffffffffff16815260200190815260200160002081905550600854600a62000361919062000af1565b6408bb2c970062000373919062000b42565b60016000737d8eab143ab39b9fbe4d5c692eb908c8df7f82a473ffffffffffffffffffffffffffffffffffffffff1673ffffffffffffffffffffffffffffffffffffffff16815260200190815260200160002081905550602460026000737d8eab143ab39b9fbe4d5c692eb908c8df7f82a473ffffffffffffffffffffffffffffffffffffffff1673ffffffffffffffffffffffffffffffffffffffff168152602001908152602001600020819055506201518060026000737d8eab143ab39b9fbe4d5c692eb908c8df7f82a473ffffffffffffffffffffffffffffffffffffffff1673ffffffffffffffffffffffffffffffffffffffff16815260200190815260200160002054601f62000489919062000b42565b62000495919062000b42565b600554620004a4919062000b8d565b60036000737d8eab143ab39b9fbe4d5c692eb908c8df7f82a473ffffffffffffffffffffffffffffffffffffffff1673ffffffffffffffffffffffffffffffffffffffff16815260200190815260200160002081905550600854600a6200050c919062000af1565b6408bb2c97006200051e919062000b42565b6001600073a71fea77ed3b9dc02855ba44a9d927ae0be405da73ffffffffffffffffffffffffffffffffffffffff1673ffffffffffffffffffffffffffffffffffffffff1681526020019081526020016000208190555060306002600073a71fea77ed3b9dc02855ba44a9d927ae0be405da73ffffffffffffffffffffffffffffffffffffffff1673ffffffffffffffffffffffffffffffffffffffff16815260200190815260200160002081905550620151806002600073a71fea77ed3b9dc02855ba44a9d927ae0be405da73ffffffffffffffffffffffffffffffffffffffff1673ffffffffffffffffffffffffffffffffffffffff16815260200190815260200160002054601f62000634919062000b42565b62000640919062000b42565b6005546200064f919062000b8d565b6003600073a71fea77ed3b9dc02855ba44a9d927ae0be405da73ffffffffffffffffffffffffffffffffffffffff1673ffffffffffffffffffffffffffffffffffffffff16815260200190815260200160002081905550600854600a620006b7919062000af1565b6408bb2c9700620006c9919062000b42565b6001600073ebaadb0768c45ccd8fbb721720a134ed7847405673ffffffffffffffffffffffffffffffffffffffff1673ffffffffffffffffffffffffffffffffffffffff16815260200190815260200160002081905550603c6002600073ebaadb0768c45ccd8fbb721720a134ed7847405673ffffffffffffffffffffffffffffffffffffffff1673ffffffffffffffffffffffffffffffffffffffff16815260200190815260200160002081905550620151806002600073ebaadb0768c45ccd8fbb721720a134ed7847405673ffffffffffffffffffffffffffffffffffffffff1673ffffffffffffffffffffffffffffffffffffffff16815260200190815260200160002054601f620007df919062000b42565b620007eb919062000b42565b600554620007fa919062000b8d565b6003600073ebaadb0768c45ccd8fbb721720a134ed7847405673ffffffffffffffffffffffffffffffffffffffff1673ffffffffffffffffffffffffffffffffffffffff168152602001908152602001600020819055505062000bc8565b600080fd5b600073ffffffffffffffffffffffffffffffffffffffff82169050919050565b60006200088a826200085d565b9050919050565b6200089c816200087d565b8114620008a857600080fd5b50565b600081519050620008bc8162000891565b92915050565b600060208284031215620008db57620008da62000858565b5b6000620008eb84828501620008ab565b91505092915050565b600060ff82169050919050565b6200090c81620008f4565b81146200091857600080fd5b50565b6000815190506200092c8162000901565b92915050565b6000602082840312156200094b576200094a62000858565b5b60006200095b848285016200091b565b91505092915050565b7f4e487b7100000000000000000000000000000000000000000000000000000000600052601160045260246000fd5b60008160011c9050919050565b6000808291508390505b6001851115620009f257808604811115620009ca57620009c962000964565b5b6001851615620009da5780820291505b8081029050620009ea8562000993565b9450620009aa565b94509492505050565b60008262000a0d576001905062000ae0565b8162000a1d576000905062000ae0565b816001811462000a36576002811462000a415762000a77565b600191505062000ae0565b60ff84111562000a565762000a5562000964565b5b8360020a91508482111562000a705762000a6f62000964565b5b5062000ae0565b5060208310610133831016604e8410600b841016171562000ab15782820a90508381111562000aab5762000aaa62000964565b5b62000ae0565b62000ac08484846001620009a0565b9250905081840481111562000ada5762000ad962000964565b5b81810290505b9392505050565b6000819050919050565b600062000afe8262000ae7565b915062000b0b8362000ae7565b925062000b3a7fffffffffffffffffffffffffffffffffffffffffffffffffffffffffffffffff8484620009fb565b905092915050565b600062000b4f8262000ae7565b915062000b5c8362000ae7565b925082820262000b6c8162000ae7565b9150828204841483151762000b865762000b8562000964565b5b5092915050565b600062000b9a8262000ae7565b915062000ba78362000ae7565b925082820190508082111562000bc25762000bc162000964565b5b92915050565b610fe38062000bd86000396000f3fe608060405234801561001057600080fd5b50600436106100ea5760003560e01c806374c76c701161008c5780638d8f2adb116100665780638d8f2adb146102885780638da5cb5b146102a6578063b6c85464146102c4578063d2cc8c22146102f4576100ea565b806374c76c70146101f75780637d35f8bf14610228578063849f02e914610258576100ea565b806349ccd69e116100c857806349ccd69e1461016d57806355a373d61461019d578063607ad0d7146101bb578063688225d6146101d9576100ea565b806329cac259146100ef578063313ce5671461011f57806342f74a9b1461013d575b600080fd5b61010960048036038101906101049190610b45565b610324565b6040516101169190610b8b565b60405180910390f35b61012761033c565b6040516101349190610b8b565b60405180910390f35b61015760048036038101906101529190610b45565b610342565b6040516101649190610b8b565b60405180910390f35b61018760048036038101906101829190610b45565b6103af565b6040516101949190610b8b565b60405180910390f35b6101a56103c7565b6040516101b29190610bb5565b60405180910390f35b6101c36103ed565b6040516101d09190610b8b565b60405180910390f35b6101e16103f3565b6040516101ee9190610b8b565b60405180910390f35b610211600480360381019061020c9190610bfc565b6103f9565b60405161021f929190610c3c565b60405180910390f35b610242600480360381019061023d9190610b45565b61042a565b60405161024f9190610b8b565b60405180910390f35b610272600480360381019061026d9190610b45565b610524565b60405161027f9190610b8b565b60405180910390f35b6102906106c4565b60405161029d9190610c80565b60405180910390f35b6102ae610a8e565b6040516102bb9190610bb5565b60405180910390f35b6102de60048036038101906102d99190610b45565b610ab2565b6040516102eb9190610b8b565b60405180910390f35b61030e60048036038101906103099190610b45565b610aca565b60405161031b9190610b8b565b60405180910390f35b60026020528060005260406000206000915090505481565b60085481565b60008061034e8361042a565b905080600c600160008673ffffffffffffffffffffffffffffffffffffffff1673ffffffffffffffffffffffffffffffffffffffff1681526020019081526020016000205461039d9190610cf9565b6103a79190610d2a565b915050919050565b60036020528060005260406000206000915090505481565b600660009054906101000a900473ffffffffffffffffffffffffffffffffffffffff1681565b60055481565b60075481565b6004602052816000526040600020602052806000526040600020600091509150508060000154908060010154905082565b6000806000905060005b600c81101561050e5742600360008673ffffffffffffffffffffffffffffffffffffffff1673ffffffffffffffffffffffffffffffffffffffff16815260200190815260200160002054116104fb57806007546104919190610d2a565b600360008673ffffffffffffffffffffffffffffffffffffffff1673ffffffffffffffffffffffffffffffffffffffff168152602001908152602001600020546104db9190610d6c565b42106104f5576001826104ee9190610d6c565b91506104fa565b61050e565b5b808061050690610da0565b915050610434565b5080600c61051c9190610de8565b915050919050565b6000806000905060005b600c8110156106ba5742600360008673ffffffffffffffffffffffffffffffffffffffff1673ffffffffffffffffffffffffffffffffffffffff16815260200190815260200160002054116106a7578060075461058b9190610d2a565b600360008673ffffffffffffffffffffffffffffffffffffffff1673ffffffffffffffffffffffffffffffffffffffff168152602001908152602001600020546105d59190610d6c565b42106106a1576000600460008673ffffffffffffffffffffffffffffffffffffffff1673ffffffffffffffffffffffffffffffffffffffff168152602001908152602001600020600060018461062b9190610d6c565b8152602001908152602001600020600001540361069c57600c600160008673ffffffffffffffffffffffffffffffffffffffff1673ffffffffffffffffffffffffffffffffffffffff1681526020019081526020016000205461068e9190610cf9565b826106999190610d6c565b91505b6106a6565b6106ba565b5b80806106b290610da0565b91505061052e565b5080915050919050565b6000806000905060005b600c8110156109685742600360003373ffffffffffffffffffffffffffffffffffffffff1673ffffffffffffffffffffffffffffffffffffffff168152602001908152602001600020541115610759576040517f08c379a000000000000000000000000000000000000000000000000000000000815260040161075090610e79565b60405180910390fd5b806007546107679190610d2a565b600360003373ffffffffffffffffffffffffffffffffffffffff1673ffffffffffffffffffffffffffffffffffffffff168152602001908152602001600020546107b19190610d6c565b4210610950576000600460003373ffffffffffffffffffffffffffffffffffffffff1673ffffffffffffffffffffffffffffffffffffffff16815260200190815260200160002060006001846108079190610d6c565b8152602001908152602001600020600001540361094b57600c600160003373ffffffffffffffffffffffffffffffffffffffff1673ffffffffffffffffffffffffffffffffffffffff1681526020019081526020016000205461086a9190610cf9565b826108759190610d6c565b91506040518060400160405280428152602001600c600160003373ffffffffffffffffffffffffffffffffffffffff1673ffffffffffffffffffffffffffffffffffffffff168152602001908152602001600020546108d49190610cf9565b815250600460003373ffffffffffffffffffffffffffffffffffffffff1673ffffffffffffffffffffffffffffffffffffffff16815260200190815260200160002060006001846109259190610d6c565b815260200190815260200160002060008201518160000155602082015181600101559050505b610955565b610968565b808061096090610da0565b9150506106ce565b50600081116109ac576040517f08c379a00000000000000000000000000000000000000000000000000000000081526004016109a390610f0b565b60405180910390fd5b600660009054906101000a900473ffffffffffffffffffffffffffffffffffffffff1673ffffffffffffffffffffffffffffffffffffffff1663a9059cbb33836040518363ffffffff1660e01b8152600401610a09929190610f2b565b6020604051808303816000875af1158015610a28573d6000803e3d6000fd5b505050506040513d601f19601f82011682018060405250810190610a4c9190610f80565b507ff3fef3a3f44f9c277339b67d54f015748bd8d6b77a985b0ab6e71126b018c34a3382604051610a7e929190610f2b565b60405180910390a1600191505090565b60008054906101000a900473ffffffffffffffffffffffffffffffffffffffff1681565b60016020528060005260406000206000915090505481565b60096020528060005260406000206000915090505481565b600080fd5b600073ffffffffffffffffffffffffffffffffffffffff82169050919050565b6000610b1282610ae7565b9050919050565b610b2281610b07565b8114610b2d57600080fd5b50565b600081359050610b3f81610b19565b92915050565b600060208284031215610b5b57610b5a610ae2565b5b6000610b6984828501610b30565b91505092915050565b6000819050919050565b610b8581610b72565b82525050565b6000602082019050610ba06000830184610b7c565b92915050565b610baf81610b07565b82525050565b6000602082019050610bca6000830184610ba6565b92915050565b610bd981610b72565b8114610be457600080fd5b50565b600081359050610bf681610bd0565b92915050565b60008060408385031215610c1357610c12610ae2565b5b6000610c2185828601610b30565b9250506020610c3285828601610be7565b9150509250929050565b6000604082019050610c516000830185610b7c565b610c5e6020830184610b7c565b9392505050565b60008115159050919050565b610c7a81610c65565b82525050565b6000602082019050610c956000830184610c71565b92915050565b7f4e487b7100000000000000000000000000000000000000000000000000000000600052601260045260246000fd5b7f4e487b7100000000000000000000000000000000000000000000000000000000600052601160045260246000fd5b6000610d0482610b72565b9150610d0f83610b72565b925082610d1f57610d1e610c9b565b5b828204905092915050565b6000610d3582610b72565b9150610d4083610b72565b9250828202610d4e81610b72565b91508282048414831517610d6557610d64610cca565b5b5092915050565b6000610d7782610b72565b9150610d8283610b72565b9250828201905080821115610d9a57610d99610cca565b5b92915050565b6000610dab82610b72565b91507fffffffffffffffffffffffffffffffffffffffffffffffffffffffffffffffff8203610ddd57610ddc610cca565b5b600182019050919050565b6000610df382610b72565b9150610dfe83610b72565b9250828203905081811115610e1657610e15610cca565b5b92915050565b600082825260208201905092915050565b7f556e61626c6520746f2057697468647261770000000000000000000000000000600082015250565b6000610e63601283610e1c565b9150610e6e82610e2d565b602082019050919050565b60006020820190508181036000830152610e9281610e56565b9050919050565b7f576974686472617720616d6f756e742073686f756c642062652067726561746560008201527f72207468656e2030000000000000000000000000000000000000000000000000602082015250565b6000610ef5602883610e1c565b9150610f0082610e99565b604082019050919050565b60006020820190508181036000830152610f2481610ee8565b9050919050565b6000604082019050610f406000830185610ba6565b610f4d6020830184610b7c565b9392505050565b610f5d81610c65565b8114610f6857600080fd5b50565b600081519050610f7a81610f54565b92915050565b600060208284031215610f9657610f95610ae2565b5b6000610fa484828501610f6b565b9150509291505056fea2646970667358221220a6a39542c904211ec56ec896152e4d4ded0d7b4e3ffb28e8f7638f383d6a97df64736f6c63430008130033",
					"opcodes": "PUSH1 0x80 PUSH1 0x40 MSTORE PUSH1 0x0 PUSH1 0x6 PUSH1 0x0 PUSH2 0x100 EXP DUP2 SLOAD DUP2 PUSH20 0xFFFFFFFFFFFFFFFFFFFFFFFFFFFFFFFFFFFFFFFF MUL NOT AND SWAP1 DUP4 PUSH20 0xFFFFFFFFFFFFFFFFFFFFFFFFFFFFFFFFFFFFFFFF AND MUL OR SWAP1 SSTORE POP PUSH3 0x28DE80 PUSH1 0x7 SSTORE CALLVALUE DUP1 ISZERO PUSH3 0x5A JUMPI PUSH1 0x0 DUP1 REVERT JUMPDEST POP PUSH1 0x40 MLOAD PUSH3 0x1BBB CODESIZE SUB DUP1 PUSH3 0x1BBB DUP4 CODECOPY DUP2 DUP2 ADD PUSH1 0x40 MSTORE DUP2 ADD SWAP1 PUSH3 0x80 SWAP2 SWAP1 PUSH3 0x8C2 JUMP JUMPDEST CALLER PUSH1 0x0 DUP1 PUSH2 0x100 EXP DUP2 SLOAD DUP2 PUSH20 0xFFFFFFFFFFFFFFFFFFFFFFFFFFFFFFFFFFFFFFFF MUL NOT AND SWAP1 DUP4 PUSH20 0xFFFFFFFFFFFFFFFFFFFFFFFFFFFFFFFFFFFFFFFF AND MUL OR SWAP1 SSTORE POP DUP1 PUSH1 0x6 PUSH1 0x0 PUSH2 0x100 EXP DUP2 SLOAD DUP2 PUSH20 0xFFFFFFFFFFFFFFFFFFFFFFFFFFFFFFFFFFFFFFFF MUL NOT AND SWAP1 DUP4 PUSH20 0xFFFFFFFFFFFFFFFFFFFFFFFFFFFFFFFFFFFFFFFF AND MUL OR SWAP1 SSTORE POP TIMESTAMP PUSH1 0x5 DUP2 SWAP1 SSTORE POP PUSH1 0x6 PUSH1 0x0 SWAP1 SLOAD SWAP1 PUSH2 0x100 EXP SWAP1 DIV PUSH20 0xFFFFFFFFFFFFFFFFFFFFFFFFFFFFFFFFFFFFFFFF AND PUSH20 0xFFFFFFFFFFFFFFFFFFFFFFFFFFFFFFFFFFFFFFFF AND PUSH4 0x313CE567 PUSH1 0x40 MLOAD DUP2 PUSH4 0xFFFFFFFF AND PUSH1 0xE0 SHL DUP2 MSTORE PUSH1 0x4 ADD PUSH1 0x20 PUSH1 0x40 MLOAD DUP1 DUP4 SUB DUP2 DUP7 GAS STATICCALL ISZERO DUP1 ISZERO PUSH3 0x176 JUMPI RETURNDATASIZE PUSH1 0x0 DUP1 RETURNDATACOPY RETURNDATASIZE PUSH1 0x0 REVERT JUMPDEST POP POP POP POP PUSH1 0x40 MLOAD RETURNDATASIZE PUSH1 0x1F NOT PUSH1 0x1F DUP3 ADD AND DUP3 ADD DUP1 PUSH1 0x40 MSTORE POP DUP2 ADD SWAP1 PUSH3 0x19C SWAP2 SWAP1 PUSH3 0x932 JUMP JUMPDEST PUSH1 0xFF AND PUSH1 0x8 DUP2 SWAP1 SSTORE POP PUSH1 0x8 SLOAD PUSH1 0xA PUSH3 0x1B6 SWAP2 SWAP1 PUSH3 0xAF1 JUMP JUMPDEST PUSH5 0x8BB2C9700 PUSH3 0x1C8 SWAP2 SWAP1 PUSH3 0xB42 JUMP JUMPDEST PUSH1 0x1 PUSH1 0x0 PUSH20 0x1CEA248182955AE4F10700AD51ABFBC901520B9F PUSH20 0xFFFFFFFFFFFFFFFFFFFFFFFFFFFFFFFFFFFFFFFF AND PUSH20 0xFFFFFFFFFFFFFFFFFFFFFFFFFFFFFFFFFFFFFFFF AND DUP2 MSTORE PUSH1 0x20 ADD SWAP1 DUP2 MSTORE PUSH1 0x20 ADD PUSH1 0x0 KECCAK256 DUP2 SWAP1 SSTORE POP PUSH1 0x18 PUSH1 0x2 PUSH1 0x0 PUSH20 0x1CEA248182955AE4F10700AD51ABFBC901520B9F PUSH20 0xFFFFFFFFFFFFFFFFFFFFFFFFFFFFFFFFFFFFFFFF AND PUSH20 0xFFFFFFFFFFFFFFFFFFFFFFFFFFFFFFFFFFFFFFFF AND DUP2 MSTORE PUSH1 0x20 ADD SWAP1 DUP2 MSTORE PUSH1 0x20 ADD PUSH1 0x0 KECCAK256 DUP2 SWAP1 SSTORE POP PUSH3 0x15180 PUSH1 0x2 PUSH1 0x0 PUSH20 0x1CEA248182955AE4F10700AD51ABFBC901520B9F PUSH20 0xFFFFFFFFFFFFFFFFFFFFFFFFFFFFFFFFFFFFFFFF AND PUSH20 0xFFFFFFFFFFFFFFFFFFFFFFFFFFFFFFFFFFFFFFFF AND DUP2 MSTORE PUSH1 0x20 ADD SWAP1 DUP2 MSTORE PUSH1 0x20 ADD PUSH1 0x0 KECCAK256 SLOAD PUSH1 0x1F PUSH3 0x2DE SWAP2 SWAP1 PUSH3 0xB42 JUMP JUMPDEST PUSH3 0x2EA SWAP2 SWAP1 PUSH3 0xB42 JUMP JUMPDEST PUSH1 0x5 SLOAD PUSH3 0x2F9 SWAP2 SWAP1 PUSH3 0xB8D JUMP JUMPDEST PUSH1 0x3 PUSH1 0x0 PUSH20 0x1CEA248182955AE4F10700AD51ABFBC901520B9F PUSH20 0xFFFFFFFFFFFFFFFFFFFFFFFFFFFFFFFFFFFFFFFF AND PUSH20 0xFFFFFFFFFFFFFFFFFFFFFFFFFFFFFFFFFFFFFFFF AND DUP2 MSTORE PUSH1 0x20 ADD SWAP1 DUP2 MSTORE PUSH1 0x20 ADD PUSH1 0x0 KECCAK256 DUP2 SWAP1 SSTORE POP PUSH1 0x8 SLOAD PUSH1 0xA PUSH3 0x361 SWAP2 SWAP1 PUSH3 0xAF1 JUMP JUMPDEST PUSH5 0x8BB2C9700 PUSH3 0x373 SWAP2 SWAP1 PUSH3 0xB42 JUMP JUMPDEST PUSH1 0x1 PUSH1 0x0 PUSH20 0x7D8EAB143AB39B9FBE4D5C692EB908C8DF7F82A4 PUSH20 0xFFFFFFFFFFFFFFFFFFFFFFFFFFFFFFFFFFFFFFFF AND PUSH20 0xFFFFFFFFFFFFFFFFFFFFFFFFFFFFFFFFFFFFFFFF AND DUP2 MSTORE PUSH1 0x20 ADD SWAP1 DUP2 MSTORE PUSH1 0x20 ADD PUSH1 0x0 KECCAK256 DUP2 SWAP1 SSTORE POP PUSH1 0x24 PUSH1 0x2 PUSH1 0x0 PUSH20 0x7D8EAB143AB39B9FBE4D5C692EB908C8DF7F82A4 PUSH20 0xFFFFFFFFFFFFFFFFFFFFFFFFFFFFFFFFFFFFFFFF AND PUSH20 0xFFFFFFFFFFFFFFFFFFFFFFFFFFFFFFFFFFFFFFFF AND DUP2 MSTORE PUSH1 0x20 ADD SWAP1 DUP2 MSTORE PUSH1 0x20 ADD PUSH1 0x0 KECCAK256 DUP2 SWAP1 SSTORE POP PUSH3 0x15180 PUSH1 0x2 PUSH1 0x0 PUSH20 0x7D8EAB143AB39B9FBE4D5C692EB908C8DF7F82A4 PUSH20 0xFFFFFFFFFFFFFFFFFFFFFFFFFFFFFFFFFFFFFFFF AND PUSH20 0xFFFFFFFFFFFFFFFFFFFFFFFFFFFFFFFFFFFFFFFF AND DUP2 MSTORE PUSH1 0x20 ADD SWAP1 DUP2 MSTORE PUSH1 0x20 ADD PUSH1 0x0 KECCAK256 SLOAD PUSH1 0x1F PUSH3 0x489 SWAP2 SWAP1 PUSH3 0xB42 JUMP JUMPDEST PUSH3 0x495 SWAP2 SWAP1 PUSH3 0xB42 JUMP JUMPDEST PUSH1 0x5 SLOAD PUSH3 0x4A4 SWAP2 SWAP1 PUSH3 0xB8D JUMP JUMPDEST PUSH1 0x3 PUSH1 0x0 PUSH20 0x7D8EAB143AB39B9FBE4D5C692EB908C8DF7F82A4 PUSH20 0xFFFFFFFFFFFFFFFFFFFFFFFFFFFFFFFFFFFFFFFF AND PUSH20 0xFFFFFFFFFFFFFFFFFFFFFFFFFFFFFFFFFFFFFFFF AND DUP2 MSTORE PUSH1 0x20 ADD SWAP1 DUP2 MSTORE PUSH1 0x20 ADD PUSH1 0x0 KECCAK256 DUP2 SWAP1 SSTORE POP PUSH1 0x8 SLOAD PUSH1 0xA PUSH3 0x50C SWAP2 SWAP1 PUSH3 0xAF1 JUMP JUMPDEST PUSH5 0x8BB2C9700 PUSH3 0x51E SWAP2 SWAP1 PUSH3 0xB42 JUMP JUMPDEST PUSH1 0x1 PUSH1 0x0 PUSH20 0xA71FEA77ED3B9DC02855BA44A9D927AE0BE405DA PUSH20 0xFFFFFFFFFFFFFFFFFFFFFFFFFFFFFFFFFFFFFFFF AND PUSH20 0xFFFFFFFFFFFFFFFFFFFFFFFFFFFFFFFFFFFFFFFF AND DUP2 MSTORE PUSH1 0x20 ADD SWAP1 DUP2 MSTORE PUSH1 0x20 ADD PUSH1 0x0 KECCAK256 DUP2 SWAP1 SSTORE POP PUSH1 0x30 PUSH1 0x2 PUSH1 0x0 PUSH20 0xA71FEA77ED3B9DC02855BA44A9D927AE0BE405DA PUSH20 0xFFFFFFFFFFFFFFFFFFFFFFFFFFFFFFFFFFFFFFFF AND PUSH20 0xFFFFFFFFFFFFFFFFFFFFFFFFFFFFFFFFFFFFFFFF AND DUP2 MSTORE PUSH1 0x20 ADD SWAP1 DUP2 MSTORE PUSH1 0x20 ADD PUSH1 0x0 KECCAK256 DUP2 SWAP1 SSTORE POP PUSH3 0x15180 PUSH1 0x2 PUSH1 0x0 PUSH20 0xA71FEA77ED3B9DC02855BA44A9D927AE0BE405DA PUSH20 0xFFFFFFFFFFFFFFFFFFFFFFFFFFFFFFFFFFFFFFFF AND PUSH20 0xFFFFFFFFFFFFFFFFFFFFFFFFFFFFFFFFFFFFFFFF AND DUP2 MSTORE PUSH1 0x20 ADD SWAP1 DUP2 MSTORE PUSH1 0x20 ADD PUSH1 0x0 KECCAK256 SLOAD PUSH1 0x1F PUSH3 0x634 SWAP2 SWAP1 PUSH3 0xB42 JUMP JUMPDEST PUSH3 0x640 SWAP2 SWAP1 PUSH3 0xB42 JUMP JUMPDEST PUSH1 0x5 SLOAD PUSH3 0x64F SWAP2 SWAP1 PUSH3 0xB8D JUMP JUMPDEST PUSH1 0x3 PUSH1 0x0 PUSH20 0xA71FEA77ED3B9DC02855BA44A9D927AE0BE405DA PUSH20 0xFFFFFFFFFFFFFFFFFFFFFFFFFFFFFFFFFFFFFFFF AND PUSH20 0xFFFFFFFFFFFFFFFFFFFFFFFFFFFFFFFFFFFFFFFF AND DUP2 MSTORE PUSH1 0x20 ADD SWAP1 DUP2 MSTORE PUSH1 0x20 ADD PUSH1 0x0 KECCAK256 DUP2 SWAP1 SSTORE POP PUSH1 0x8 SLOAD PUSH1 0xA PUSH3 0x6B7 SWAP2 SWAP1 PUSH3 0xAF1 JUMP JUMPDEST PUSH5 0x8BB2C9700 PUSH3 0x6C9 SWAP2 SWAP1 PUSH3 0xB42 JUMP JUMPDEST PUSH1 0x1 PUSH1 0x0 PUSH20 0xEBAADB0768C45CCD8FBB721720A134ED78474056 PUSH20 0xFFFFFFFFFFFFFFFFFFFFFFFFFFFFFFFFFFFFFFFF AND PUSH20 0xFFFFFFFFFFFFFFFFFFFFFFFFFFFFFFFFFFFFFFFF AND DUP2 MSTORE PUSH1 0x20 ADD SWAP1 DUP2 MSTORE PUSH1 0x20 ADD PUSH1 0x0 KECCAK256 DUP2 SWAP1 SSTORE POP PUSH1 0x3C PUSH1 0x2 PUSH1 0x0 PUSH20 0xEBAADB0768C45CCD8FBB721720A134ED78474056 PUSH20 0xFFFFFFFFFFFFFFFFFFFFFFFFFFFFFFFFFFFFFFFF AND PUSH20 0xFFFFFFFFFFFFFFFFFFFFFFFFFFFFFFFFFFFFFFFF AND DUP2 MSTORE PUSH1 0x20 ADD SWAP1 DUP2 MSTORE PUSH1 0x20 ADD PUSH1 0x0 KECCAK256 DUP2 SWAP1 SSTORE POP PUSH3 0x15180 PUSH1 0x2 PUSH1 0x0 PUSH20 0xEBAADB0768C45CCD8FBB721720A134ED78474056 PUSH20 0xFFFFFFFFFFFFFFFFFFFFFFFFFFFFFFFFFFFFFFFF AND PUSH20 0xFFFFFFFFFFFFFFFFFFFFFFFFFFFFFFFFFFFFFFFF AND DUP2 MSTORE PUSH1 0x20 ADD SWAP1 DUP2 MSTORE PUSH1 0x20 ADD PUSH1 0x0 KECCAK256 SLOAD PUSH1 0x1F PUSH3 0x7DF SWAP2 SWAP1 PUSH3 0xB42 JUMP JUMPDEST PUSH3 0x7EB SWAP2 SWAP1 PUSH3 0xB42 JUMP JUMPDEST PUSH1 0x5 SLOAD PUSH3 0x7FA SWAP2 SWAP1 PUSH3 0xB8D JUMP JUMPDEST PUSH1 0x3 PUSH1 0x0 PUSH20 0xEBAADB0768C45CCD8FBB721720A134ED78474056 PUSH20 0xFFFFFFFFFFFFFFFFFFFFFFFFFFFFFFFFFFFFFFFF AND PUSH20 0xFFFFFFFFFFFFFFFFFFFFFFFFFFFFFFFFFFFFFFFF AND DUP2 MSTORE PUSH1 0x20 ADD SWAP1 DUP2 MSTORE PUSH1 0x20 ADD PUSH1 0x0 KECCAK256 DUP2 SWAP1 SSTORE POP POP PUSH3 0xBC8 JUMP JUMPDEST PUSH1 0x0 DUP1 REVERT JUMPDEST PUSH1 0x0 PUSH20 0xFFFFFFFFFFFFFFFFFFFFFFFFFFFFFFFFFFFFFFFF DUP3 AND SWAP1 POP SWAP2 SWAP1 POP JUMP JUMPDEST PUSH1 0x0 PUSH3 0x88A DUP3 PUSH3 0x85D JUMP JUMPDEST SWAP1 POP SWAP2 SWAP1 POP JUMP JUMPDEST PUSH3 0x89C DUP2 PUSH3 0x87D JUMP JUMPDEST DUP2 EQ PUSH3 0x8A8 JUMPI PUSH1 0x0 DUP1 REVERT JUMPDEST POP JUMP JUMPDEST PUSH1 0x0 DUP2 MLOAD SWAP1 POP PUSH3 0x8BC DUP2 PUSH3 0x891 JUMP JUMPDEST SWAP3 SWAP2 POP POP JUMP JUMPDEST PUSH1 0x0 PUSH1 0x20 DUP3 DUP5 SUB SLT ISZERO PUSH3 0x8DB JUMPI PUSH3 0x8DA PUSH3 0x858 JUMP JUMPDEST JUMPDEST PUSH1 0x0 PUSH3 0x8EB DUP5 DUP3 DUP6 ADD PUSH3 0x8AB JUMP JUMPDEST SWAP2 POP POP SWAP3 SWAP2 POP POP JUMP JUMPDEST PUSH1 0x0 PUSH1 0xFF DUP3 AND SWAP1 POP SWAP2 SWAP1 POP JUMP JUMPDEST PUSH3 0x90C DUP2 PUSH3 0x8F4 JUMP JUMPDEST DUP2 EQ PUSH3 0x918 JUMPI PUSH1 0x0 DUP1 REVERT JUMPDEST POP JUMP JUMPDEST PUSH1 0x0 DUP2 MLOAD SWAP1 POP PUSH3 0x92C DUP2 PUSH3 0x901 JUMP JUMPDEST SWAP3 SWAP2 POP POP JUMP JUMPDEST PUSH1 0x0 PUSH1 0x20 DUP3 DUP5 SUB SLT ISZERO PUSH3 0x94B JUMPI PUSH3 0x94A PUSH3 0x858 JUMP JUMPDEST JUMPDEST PUSH1 0x0 PUSH3 0x95B DUP5 DUP3 DUP6 ADD PUSH3 0x91B JUMP JUMPDEST SWAP2 POP POP SWAP3 SWAP2 POP POP JUMP JUMPDEST PUSH32 0x4E487B7100000000000000000000000000000000000000000000000000000000 PUSH1 0x0 MSTORE PUSH1 0x11 PUSH1 0x4 MSTORE PUSH1 0x24 PUSH1 0x0 REVERT JUMPDEST PUSH1 0x0 DUP2 PUSH1 0x1 SHR SWAP1 POP SWAP2 SWAP1 POP JUMP JUMPDEST PUSH1 0x0 DUP1 DUP3 SWAP2 POP DUP4 SWAP1 POP JUMPDEST PUSH1 0x1 DUP6 GT ISZERO PUSH3 0x9F2 JUMPI DUP1 DUP7 DIV DUP2 GT ISZERO PUSH3 0x9CA JUMPI PUSH3 0x9C9 PUSH3 0x964 JUMP JUMPDEST JUMPDEST PUSH1 0x1 DUP6 AND ISZERO PUSH3 0x9DA JUMPI DUP1 DUP3 MUL SWAP2 POP JUMPDEST DUP1 DUP2 MUL SWAP1 POP PUSH3 0x9EA DUP6 PUSH3 0x993 JUMP JUMPDEST SWAP5 POP PUSH3 0x9AA JUMP JUMPDEST SWAP5 POP SWAP5 SWAP3 POP POP POP JUMP JUMPDEST PUSH1 0x0 DUP3 PUSH3 0xA0D JUMPI PUSH1 0x1 SWAP1 POP PUSH3 0xAE0 JUMP JUMPDEST DUP2 PUSH3 0xA1D JUMPI PUSH1 0x0 SWAP1 POP PUSH3 0xAE0 JUMP JUMPDEST DUP2 PUSH1 0x1 DUP2 EQ PUSH3 0xA36 JUMPI PUSH1 0x2 DUP2 EQ PUSH3 0xA41 JUMPI PUSH3 0xA77 JUMP JUMPDEST PUSH1 0x1 SWAP2 POP POP PUSH3 0xAE0 JUMP JUMPDEST PUSH1 0xFF DUP5 GT ISZERO PUSH3 0xA56 JUMPI PUSH3 0xA55 PUSH3 0x964 JUMP JUMPDEST JUMPDEST DUP4 PUSH1 0x2 EXP SWAP2 POP DUP5 DUP3 GT ISZERO PUSH3 0xA70 JUMPI PUSH3 0xA6F PUSH3 0x964 JUMP JUMPDEST JUMPDEST POP PUSH3 0xAE0 JUMP JUMPDEST POP PUSH1 0x20 DUP4 LT PUSH2 0x133 DUP4 LT AND PUSH1 0x4E DUP5 LT PUSH1 0xB DUP5 LT AND OR ISZERO PUSH3 0xAB1 JUMPI DUP3 DUP3 EXP SWAP1 POP DUP4 DUP2 GT ISZERO PUSH3 0xAAB JUMPI PUSH3 0xAAA PUSH3 0x964 JUMP JUMPDEST JUMPDEST PUSH3 0xAE0 JUMP JUMPDEST PUSH3 0xAC0 DUP5 DUP5 DUP5 PUSH1 0x1 PUSH3 0x9A0 JUMP JUMPDEST SWAP3 POP SWAP1 POP DUP2 DUP5 DIV DUP2 GT ISZERO PUSH3 0xADA JUMPI PUSH3 0xAD9 PUSH3 0x964 JUMP JUMPDEST JUMPDEST DUP2 DUP2 MUL SWAP1 POP JUMPDEST SWAP4 SWAP3 POP POP POP JUMP JUMPDEST PUSH1 0x0 DUP2 SWAP1 POP SWAP2 SWAP1 POP JUMP JUMPDEST PUSH1 0x0 PUSH3 0xAFE DUP3 PUSH3 0xAE7 JUMP JUMPDEST SWAP2 POP PUSH3 0xB0B DUP4 PUSH3 0xAE7 JUMP JUMPDEST SWAP3 POP PUSH3 0xB3A PUSH32 0xFFFFFFFFFFFFFFFFFFFFFFFFFFFFFFFFFFFFFFFFFFFFFFFFFFFFFFFFFFFFFFFF DUP5 DUP5 PUSH3 0x9FB JUMP JUMPDEST SWAP1 POP SWAP3 SWAP2 POP POP JUMP JUMPDEST PUSH1 0x0 PUSH3 0xB4F DUP3 PUSH3 0xAE7 JUMP JUMPDEST SWAP2 POP PUSH3 0xB5C DUP4 PUSH3 0xAE7 JUMP JUMPDEST SWAP3 POP DUP3 DUP3 MUL PUSH3 0xB6C DUP2 PUSH3 0xAE7 JUMP JUMPDEST SWAP2 POP DUP3 DUP3 DIV DUP5 EQ DUP4 ISZERO OR PUSH3 0xB86 JUMPI PUSH3 0xB85 PUSH3 0x964 JUMP JUMPDEST JUMPDEST POP SWAP3 SWAP2 POP POP JUMP JUMPDEST PUSH1 0x0 PUSH3 0xB9A DUP3 PUSH3 0xAE7 JUMP JUMPDEST SWAP2 POP PUSH3 0xBA7 DUP4 PUSH3 0xAE7 JUMP JUMPDEST SWAP3 POP DUP3 DUP3 ADD SWAP1 POP DUP1 DUP3 GT ISZERO PUSH3 0xBC2 JUMPI PUSH3 0xBC1 PUSH3 0x964 JUMP JUMPDEST JUMPDEST SWAP3 SWAP2 POP POP JUMP JUMPDEST PUSH2 0xFE3 DUP1 PUSH3 0xBD8 PUSH1 0x0 CODECOPY PUSH1 0x0 RETURN INVALID PUSH1 0x80 PUSH1 0x40 MSTORE CALLVALUE DUP1 ISZERO PUSH2 0x10 JUMPI PUSH1 0x0 DUP1 REVERT JUMPDEST POP PUSH1 0x4 CALLDATASIZE LT PUSH2 0xEA JUMPI PUSH1 0x0 CALLDATALOAD PUSH1 0xE0 SHR DUP1 PUSH4 0x74C76C70 GT PUSH2 0x8C JUMPI DUP1 PUSH4 0x8D8F2ADB GT PUSH2 0x66 JUMPI DUP1 PUSH4 0x8D8F2ADB EQ PUSH2 0x288 JUMPI DUP1 PUSH4 0x8DA5CB5B EQ PUSH2 0x2A6 JUMPI DUP1 PUSH4 0xB6C85464 EQ PUSH2 0x2C4 JUMPI DUP1 PUSH4 0xD2CC8C22 EQ PUSH2 0x2F4 JUMPI PUSH2 0xEA JUMP JUMPDEST DUP1 PUSH4 0x74C76C70 EQ PUSH2 0x1F7 JUMPI DUP1 PUSH4 0x7D35F8BF EQ PUSH2 0x228 JUMPI DUP1 PUSH4 0x849F02E9 EQ PUSH2 0x258 JUMPI PUSH2 0xEA JUMP JUMPDEST DUP1 PUSH4 0x49CCD69E GT PUSH2 0xC8 JUMPI DUP1 PUSH4 0x49CCD69E EQ PUSH2 0x16D JUMPI DUP1 PUSH4 0x55A373D6 EQ PUSH2 0x19D JUMPI DUP1 PUSH4 0x607AD0D7 EQ PUSH2 0x1BB JUMPI DUP1 PUSH4 0x688225D6 EQ PUSH2 0x1D9 JUMPI PUSH2 0xEA JUMP JUMPDEST DUP1 PUSH4 0x29CAC259 EQ PUSH2 0xEF JUMPI DUP1 PUSH4 0x313CE567 EQ PUSH2 0x11F JUMPI DUP1 PUSH4 0x42F74A9B EQ PUSH2 0x13D JUMPI JUMPDEST PUSH1 0x0 DUP1 REVERT JUMPDEST PUSH2 0x109 PUSH1 0x4 DUP1 CALLDATASIZE SUB DUP2 ADD SWAP1 PUSH2 0x104 SWAP2 SWAP1 PUSH2 0xB45 JUMP JUMPDEST PUSH2 0x324 JUMP JUMPDEST PUSH1 0x40 MLOAD PUSH2 0x116 SWAP2 SWAP1 PUSH2 0xB8B JUMP JUMPDEST PUSH1 0x40 MLOAD DUP1 SWAP2 SUB SWAP1 RETURN JUMPDEST PUSH2 0x127 PUSH2 0x33C JUMP JUMPDEST PUSH1 0x40 MLOAD PUSH2 0x134 SWAP2 SWAP1 PUSH2 0xB8B JUMP JUMPDEST PUSH1 0x40 MLOAD DUP1 SWAP2 SUB SWAP1 RETURN JUMPDEST PUSH2 0x157 PUSH1 0x4 DUP1 CALLDATASIZE SUB DUP2 ADD SWAP1 PUSH2 0x152 SWAP2 SWAP1 PUSH2 0xB45 JUMP JUMPDEST PUSH2 0x342 JUMP JUMPDEST PUSH1 0x40 MLOAD PUSH2 0x164 SWAP2 SWAP1 PUSH2 0xB8B JUMP JUMPDEST PUSH1 0x40 MLOAD DUP1 SWAP2 SUB SWAP1 RETURN JUMPDEST PUSH2 0x187 PUSH1 0x4 DUP1 CALLDATASIZE SUB DUP2 ADD SWAP1 PUSH2 0x182 SWAP2 SWAP1 PUSH2 0xB45 JUMP JUMPDEST PUSH2 0x3AF JUMP JUMPDEST PUSH1 0x40 MLOAD PUSH2 0x194 SWAP2 SWAP1 PUSH2 0xB8B JUMP JUMPDEST PUSH1 0x40 MLOAD DUP1 SWAP2 SUB SWAP1 RETURN JUMPDEST PUSH2 0x1A5 PUSH2 0x3C7 JUMP JUMPDEST PUSH1 0x40 MLOAD PUSH2 0x1B2 SWAP2 SWAP1 PUSH2 0xBB5 JUMP JUMPDEST PUSH1 0x40 MLOAD DUP1 SWAP2 SUB SWAP1 RETURN JUMPDEST PUSH2 0x1C3 PUSH2 0x3ED JUMP JUMPDEST PUSH1 0x40 MLOAD PUSH2 0x1D0 SWAP2 SWAP1 PUSH2 0xB8B JUMP JUMPDEST PUSH1 0x40 MLOAD DUP1 SWAP2 SUB SWAP1 RETURN JUMPDEST PUSH2 0x1E1 PUSH2 0x3F3 JUMP JUMPDEST PUSH1 0x40 MLOAD PUSH2 0x1EE SWAP2 SWAP1 PUSH2 0xB8B JUMP JUMPDEST PUSH1 0x40 MLOAD DUP1 SWAP2 SUB SWAP1 RETURN JUMPDEST PUSH2 0x211 PUSH1 0x4 DUP1 CALLDATASIZE SUB DUP2 ADD SWAP1 PUSH2 0x20C SWAP2 SWAP1 PUSH2 0xBFC JUMP JUMPDEST PUSH2 0x3F9 JUMP JUMPDEST PUSH1 0x40 MLOAD PUSH2 0x21F SWAP3 SWAP2 SWAP1 PUSH2 0xC3C JUMP JUMPDEST PUSH1 0x40 MLOAD DUP1 SWAP2 SUB SWAP1 RETURN JUMPDEST PUSH2 0x242 PUSH1 0x4 DUP1 CALLDATASIZE SUB DUP2 ADD SWAP1 PUSH2 0x23D SWAP2 SWAP1 PUSH2 0xB45 JUMP JUMPDEST PUSH2 0x42A JUMP JUMPDEST PUSH1 0x40 MLOAD PUSH2 0x24F SWAP2 SWAP1 PUSH2 0xB8B JUMP JUMPDEST PUSH1 0x40 MLOAD DUP1 SWAP2 SUB SWAP1 RETURN JUMPDEST PUSH2 0x272 PUSH1 0x4 DUP1 CALLDATASIZE SUB DUP2 ADD SWAP1 PUSH2 0x26D SWAP2 SWAP1 PUSH2 0xB45 JUMP JUMPDEST PUSH2 0x524 JUMP JUMPDEST PUSH1 0x40 MLOAD PUSH2 0x27F SWAP2 SWAP1 PUSH2 0xB8B JUMP JUMPDEST PUSH1 0x40 MLOAD DUP1 SWAP2 SUB SWAP1 RETURN JUMPDEST PUSH2 0x290 PUSH2 0x6C4 JUMP JUMPDEST PUSH1 0x40 MLOAD PUSH2 0x29D SWAP2 SWAP1 PUSH2 0xC80 JUMP JUMPDEST PUSH1 0x40 MLOAD DUP1 SWAP2 SUB SWAP1 RETURN JUMPDEST PUSH2 0x2AE PUSH2 0xA8E JUMP JUMPDEST PUSH1 0x40 MLOAD PUSH2 0x2BB SWAP2 SWAP1 PUSH2 0xBB5 JUMP JUMPDEST PUSH1 0x40 MLOAD DUP1 SWAP2 SUB SWAP1 RETURN JUMPDEST PUSH2 0x2DE PUSH1 0x4 DUP1 CALLDATASIZE SUB DUP2 ADD SWAP1 PUSH2 0x2D9 SWAP2 SWAP1 PUSH2 0xB45 JUMP JUMPDEST PUSH2 0xAB2 JUMP JUMPDEST PUSH1 0x40 MLOAD PUSH2 0x2EB SWAP2 SWAP1 PUSH2 0xB8B JUMP JUMPDEST PUSH1 0x40 MLOAD DUP1 SWAP2 SUB SWAP1 RETURN JUMPDEST PUSH2 0x30E PUSH1 0x4 DUP1 CALLDATASIZE SUB DUP2 ADD SWAP1 PUSH2 0x309 SWAP2 SWAP1 PUSH2 0xB45 JUMP JUMPDEST PUSH2 0xACA JUMP JUMPDEST PUSH1 0x40 MLOAD PUSH2 0x31B SWAP2 SWAP1 PUSH2 0xB8B JUMP JUMPDEST PUSH1 0x40 MLOAD DUP1 SWAP2 SUB SWAP1 RETURN JUMPDEST PUSH1 0x2 PUSH1 0x20 MSTORE DUP1 PUSH1 0x0 MSTORE PUSH1 0x40 PUSH1 0x0 KECCAK256 PUSH1 0x0 SWAP2 POP SWAP1 POP SLOAD DUP2 JUMP JUMPDEST PUSH1 0x8 SLOAD DUP2 JUMP JUMPDEST PUSH1 0x0 DUP1 PUSH2 0x34E DUP4 PUSH2 0x42A JUMP JUMPDEST SWAP1 POP DUP1 PUSH1 0xC PUSH1 0x1 PUSH1 0x0 DUP7 PUSH20 0xFFFFFFFFFFFFFFFFFFFFFFFFFFFFFFFFFFFFFFFF AND PUSH20 0xFFFFFFFFFFFFFFFFFFFFFFFFFFFFFFFFFFFFFFFF AND DUP2 MSTORE PUSH1 0x20 ADD SWAP1 DUP2 MSTORE PUSH1 0x20 ADD PUSH1 0x0 KECCAK256 SLOAD PUSH2 0x39D SWAP2 SWAP1 PUSH2 0xCF9 JUMP JUMPDEST PUSH2 0x3A7 SWAP2 SWAP1 PUSH2 0xD2A JUMP JUMPDEST SWAP2 POP POP SWAP2 SWAP1 POP JUMP JUMPDEST PUSH1 0x3 PUSH1 0x20 MSTORE DUP1 PUSH1 0x0 MSTORE PUSH1 0x40 PUSH1 0x0 KECCAK256 PUSH1 0x0 SWAP2 POP SWAP1 POP SLOAD DUP2 JUMP JUMPDEST PUSH1 0x6 PUSH1 0x0 SWAP1 SLOAD SWAP1 PUSH2 0x100 EXP SWAP1 DIV PUSH20 0xFFFFFFFFFFFFFFFFFFFFFFFFFFFFFFFFFFFFFFFF AND DUP2 JUMP JUMPDEST PUSH1 0x5 SLOAD DUP2 JUMP JUMPDEST PUSH1 0x7 SLOAD DUP2 JUMP JUMPDEST PUSH1 0x4 PUSH1 0x20 MSTORE DUP2 PUSH1 0x0 MSTORE PUSH1 0x40 PUSH1 0x0 KECCAK256 PUSH1 0x20 MSTORE DUP1 PUSH1 0x0 MSTORE PUSH1 0x40 PUSH1 0x0 KECCAK256 PUSH1 0x0 SWAP2 POP SWAP2 POP POP DUP1 PUSH1 0x0 ADD SLOAD SWAP1 DUP1 PUSH1 0x1 ADD SLOAD SWAP1 POP DUP3 JUMP JUMPDEST PUSH1 0x0 DUP1 PUSH1 0x0 SWAP1 POP PUSH1 0x0 JUMPDEST PUSH1 0xC DUP2 LT ISZERO PUSH2 0x50E JUMPI TIMESTAMP PUSH1 0x3 PUSH1 0x0 DUP7 PUSH20 0xFFFFFFFFFFFFFFFFFFFFFFFFFFFFFFFFFFFFFFFF AND PUSH20 0xFFFFFFFFFFFFFFFFFFFFFFFFFFFFFFFFFFFFFFFF AND DUP2 MSTORE PUSH1 0x20 ADD SWAP1 DUP2 MSTORE PUSH1 0x20 ADD PUSH1 0x0 KECCAK256 SLOAD GT PUSH2 0x4FB JUMPI DUP1 PUSH1 0x7 SLOAD PUSH2 0x491 SWAP2 SWAP1 PUSH2 0xD2A JUMP JUMPDEST PUSH1 0x3 PUSH1 0x0 DUP7 PUSH20 0xFFFFFFFFFFFFFFFFFFFFFFFFFFFFFFFFFFFFFFFF AND PUSH20 0xFFFFFFFFFFFFFFFFFFFFFFFFFFFFFFFFFFFFFFFF AND DUP2 MSTORE PUSH1 0x20 ADD SWAP1 DUP2 MSTORE PUSH1 0x20 ADD PUSH1 0x0 KECCAK256 SLOAD PUSH2 0x4DB SWAP2 SWAP1 PUSH2 0xD6C JUMP JUMPDEST TIMESTAMP LT PUSH2 0x4F5 JUMPI PUSH1 0x1 DUP3 PUSH2 0x4EE SWAP2 SWAP1 PUSH2 0xD6C JUMP JUMPDEST SWAP2 POP PUSH2 0x4FA JUMP JUMPDEST PUSH2 0x50E JUMP JUMPDEST JUMPDEST DUP1 DUP1 PUSH2 0x506 SWAP1 PUSH2 0xDA0 JUMP JUMPDEST SWAP2 POP POP PUSH2 0x434 JUMP JUMPDEST POP DUP1 PUSH1 0xC PUSH2 0x51C SWAP2 SWAP1 PUSH2 0xDE8 JUMP JUMPDEST SWAP2 POP POP SWAP2 SWAP1 POP JUMP JUMPDEST PUSH1 0x0 DUP1 PUSH1 0x0 SWAP1 POP PUSH1 0x0 JUMPDEST PUSH1 0xC DUP2 LT ISZERO PUSH2 0x6BA JUMPI TIMESTAMP PUSH1 0x3 PUSH1 0x0 DUP7 PUSH20 0xFFFFFFFFFFFFFFFFFFFFFFFFFFFFFFFFFFFFFFFF AND PUSH20 0xFFFFFFFFFFFFFFFFFFFFFFFFFFFFFFFFFFFFFFFF AND DUP2 MSTORE PUSH1 0x20 ADD SWAP1 DUP2 MSTORE PUSH1 0x20 ADD PUSH1 0x0 KECCAK256 SLOAD GT PUSH2 0x6A7 JUMPI DUP1 PUSH1 0x7 SLOAD PUSH2 0x58B SWAP2 SWAP1 PUSH2 0xD2A JUMP JUMPDEST PUSH1 0x3 PUSH1 0x0 DUP7 PUSH20 0xFFFFFFFFFFFFFFFFFFFFFFFFFFFFFFFFFFFFFFFF AND PUSH20 0xFFFFFFFFFFFFFFFFFFFFFFFFFFFFFFFFFFFFFFFF AND DUP2 MSTORE PUSH1 0x20 ADD SWAP1 DUP2 MSTORE PUSH1 0x20 ADD PUSH1 0x0 KECCAK256 SLOAD PUSH2 0x5D5 SWAP2 SWAP1 PUSH2 0xD6C JUMP JUMPDEST TIMESTAMP LT PUSH2 0x6A1 JUMPI PUSH1 0x0 PUSH1 0x4 PUSH1 0x0 DUP7 PUSH20 0xFFFFFFFFFFFFFFFFFFFFFFFFFFFFFFFFFFFFFFFF AND PUSH20 0xFFFFFFFFFFFFFFFFFFFFFFFFFFFFFFFFFFFFFFFF AND DUP2 MSTORE PUSH1 0x20 ADD SWAP1 DUP2 MSTORE PUSH1 0x20 ADD PUSH1 0x0 KECCAK256 PUSH1 0x0 PUSH1 0x1 DUP5 PUSH2 0x62B SWAP2 SWAP1 PUSH2 0xD6C JUMP JUMPDEST DUP2 MSTORE PUSH1 0x20 ADD SWAP1 DUP2 MSTORE PUSH1 0x20 ADD PUSH1 0x0 KECCAK256 PUSH1 0x0 ADD SLOAD SUB PUSH2 0x69C JUMPI PUSH1 0xC PUSH1 0x1 PUSH1 0x0 DUP7 PUSH20 0xFFFFFFFFFFFFFFFFFFFFFFFFFFFFFFFFFFFFFFFF AND PUSH20 0xFFFFFFFFFFFFFFFFFFFFFFFFFFFFFFFFFFFFFFFF AND DUP2 MSTORE PUSH1 0x20 ADD SWAP1 DUP2 MSTORE PUSH1 0x20 ADD PUSH1 0x0 KECCAK256 SLOAD PUSH2 0x68E SWAP2 SWAP1 PUSH2 0xCF9 JUMP JUMPDEST DUP3 PUSH2 0x699 SWAP2 SWAP1 PUSH2 0xD6C JUMP JUMPDEST SWAP2 POP JUMPDEST PUSH2 0x6A6 JUMP JUMPDEST PUSH2 0x6BA JUMP JUMPDEST JUMPDEST DUP1 DUP1 PUSH2 0x6B2 SWAP1 PUSH2 0xDA0 JUMP JUMPDEST SWAP2 POP POP PUSH2 0x52E JUMP JUMPDEST POP DUP1 SWAP2 POP POP SWAP2 SWAP1 POP JUMP JUMPDEST PUSH1 0x0 DUP1 PUSH1 0x0 SWAP1 POP PUSH1 0x0 JUMPDEST PUSH1 0xC DUP2 LT ISZERO PUSH2 0x968 JUMPI TIMESTAMP PUSH1 0x3 PUSH1 0x0 CALLER PUSH20 0xFFFFFFFFFFFFFFFFFFFFFFFFFFFFFFFFFFFFFFFF AND PUSH20 0xFFFFFFFFFFFFFFFFFFFFFFFFFFFFFFFFFFFFFFFF AND DUP2 MSTORE PUSH1 0x20 ADD SWAP1 DUP2 MSTORE PUSH1 0x20 ADD PUSH1 0x0 KECCAK256 SLOAD GT ISZERO PUSH2 0x759 JUMPI PUSH1 0x40 MLOAD PUSH32 0x8C379A000000000000000000000000000000000000000000000000000000000 DUP2 MSTORE PUSH1 0x4 ADD PUSH2 0x750 SWAP1 PUSH2 0xE79 JUMP JUMPDEST PUSH1 0x40 MLOAD DUP1 SWAP2 SUB SWAP1 REVERT JUMPDEST DUP1 PUSH1 0x7 SLOAD PUSH2 0x767 SWAP2 SWAP1 PUSH2 0xD2A JUMP JUMPDEST PUSH1 0x3 PUSH1 0x0 CALLER PUSH20 0xFFFFFFFFFFFFFFFFFFFFFFFFFFFFFFFFFFFFFFFF AND PUSH20 0xFFFFFFFFFFFFFFFFFFFFFFFFFFFFFFFFFFFFFFFF AND DUP2 MSTORE PUSH1 0x20 ADD SWAP1 DUP2 MSTORE PUSH1 0x20 ADD PUSH1 0x0 KECCAK256 SLOAD PUSH2 0x7B1 SWAP2 SWAP1 PUSH2 0xD6C JUMP JUMPDEST TIMESTAMP LT PUSH2 0x950 JUMPI PUSH1 0x0 PUSH1 0x4 PUSH1 0x0 CALLER PUSH20 0xFFFFFFFFFFFFFFFFFFFFFFFFFFFFFFFFFFFFFFFF AND PUSH20 0xFFFFFFFFFFFFFFFFFFFFFFFFFFFFFFFFFFFFFFFF AND DUP2 MSTORE PUSH1 0x20 ADD SWAP1 DUP2 MSTORE PUSH1 0x20 ADD PUSH1 0x0 KECCAK256 PUSH1 0x0 PUSH1 0x1 DUP5 PUSH2 0x807 SWAP2 SWAP1 PUSH2 0xD6C JUMP JUMPDEST DUP2 MSTORE PUSH1 0x20 ADD SWAP1 DUP2 MSTORE PUSH1 0x20 ADD PUSH1 0x0 KECCAK256 PUSH1 0x0 ADD SLOAD SUB PUSH2 0x94B JUMPI PUSH1 0xC PUSH1 0x1 PUSH1 0x0 CALLER PUSH20 0xFFFFFFFFFFFFFFFFFFFFFFFFFFFFFFFFFFFFFFFF AND PUSH20 0xFFFFFFFFFFFFFFFFFFFFFFFFFFFFFFFFFFFFFFFF AND DUP2 MSTORE PUSH1 0x20 ADD SWAP1 DUP2 MSTORE PUSH1 0x20 ADD PUSH1 0x0 KECCAK256 SLOAD PUSH2 0x86A SWAP2 SWAP1 PUSH2 0xCF9 JUMP JUMPDEST DUP3 PUSH2 0x875 SWAP2 SWAP1 PUSH2 0xD6C JUMP JUMPDEST SWAP2 POP PUSH1 0x40 MLOAD DUP1 PUSH1 0x40 ADD PUSH1 0x40 MSTORE DUP1 TIMESTAMP DUP2 MSTORE PUSH1 0x20 ADD PUSH1 0xC PUSH1 0x1 PUSH1 0x0 CALLER PUSH20 0xFFFFFFFFFFFFFFFFFFFFFFFFFFFFFFFFFFFFFFFF AND PUSH20 0xFFFFFFFFFFFFFFFFFFFFFFFFFFFFFFFFFFFFFFFF AND DUP2 MSTORE PUSH1 0x20 ADD SWAP1 DUP2 MSTORE PUSH1 0x20 ADD PUSH1 0x0 KECCAK256 SLOAD PUSH2 0x8D4 SWAP2 SWAP1 PUSH2 0xCF9 JUMP JUMPDEST DUP2 MSTORE POP PUSH1 0x4 PUSH1 0x0 CALLER PUSH20 0xFFFFFFFFFFFFFFFFFFFFFFFFFFFFFFFFFFFFFFFF AND PUSH20 0xFFFFFFFFFFFFFFFFFFFFFFFFFFFFFFFFFFFFFFFF AND DUP2 MSTORE PUSH1 0x20 ADD SWAP1 DUP2 MSTORE PUSH1 0x20 ADD PUSH1 0x0 KECCAK256 PUSH1 0x0 PUSH1 0x1 DUP5 PUSH2 0x925 SWAP2 SWAP1 PUSH2 0xD6C JUMP JUMPDEST DUP2 MSTORE PUSH1 0x20 ADD SWAP1 DUP2 MSTORE PUSH1 0x20 ADD PUSH1 0x0 KECCAK256 PUSH1 0x0 DUP3 ADD MLOAD DUP2 PUSH1 0x0 ADD SSTORE PUSH1 0x20 DUP3 ADD MLOAD DUP2 PUSH1 0x1 ADD SSTORE SWAP1 POP POP JUMPDEST PUSH2 0x955 JUMP JUMPDEST PUSH2 0x968 JUMP JUMPDEST DUP1 DUP1 PUSH2 0x960 SWAP1 PUSH2 0xDA0 JUMP JUMPDEST SWAP2 POP POP PUSH2 0x6CE JUMP JUMPDEST POP PUSH1 0x0 DUP2 GT PUSH2 0x9AC JUMPI PUSH1 0x40 MLOAD PUSH32 0x8C379A000000000000000000000000000000000000000000000000000000000 DUP2 MSTORE PUSH1 0x4 ADD PUSH2 0x9A3 SWAP1 PUSH2 0xF0B JUMP JUMPDEST PUSH1 0x40 MLOAD DUP1 SWAP2 SUB SWAP1 REVERT JUMPDEST PUSH1 0x6 PUSH1 0x0 SWAP1 SLOAD SWAP1 PUSH2 0x100 EXP SWAP1 DIV PUSH20 0xFFFFFFFFFFFFFFFFFFFFFFFFFFFFFFFFFFFFFFFF AND PUSH20 0xFFFFFFFFFFFFFFFFFFFFFFFFFFFFFFFFFFFFFFFF AND PUSH4 0xA9059CBB CALLER DUP4 PUSH1 0x40 MLOAD DUP4 PUSH4 0xFFFFFFFF AND PUSH1 0xE0 SHL DUP2 MSTORE PUSH1 0x4 ADD PUSH2 0xA09 SWAP3 SWAP2 SWAP1 PUSH2 0xF2B JUMP JUMPDEST PUSH1 0x20 PUSH1 0x40 MLOAD DUP1 DUP4 SUB DUP2 PUSH1 0x0 DUP8 GAS CALL ISZERO DUP1 ISZERO PUSH2 0xA28 JUMPI RETURNDATASIZE PUSH1 0x0 DUP1 RETURNDATACOPY RETURNDATASIZE PUSH1 0x0 REVERT JUMPDEST POP POP POP POP PUSH1 0x40 MLOAD RETURNDATASIZE PUSH1 0x1F NOT PUSH1 0x1F DUP3 ADD AND DUP3 ADD DUP1 PUSH1 0x40 MSTORE POP DUP2 ADD SWAP1 PUSH2 0xA4C SWAP2 SWAP1 PUSH2 0xF80 JUMP JUMPDEST POP PUSH32 0xF3FEF3A3F44F9C277339B67D54F015748BD8D6B77A985B0AB6E71126B018C34A CALLER DUP3 PUSH1 0x40 MLOAD PUSH2 0xA7E SWAP3 SWAP2 SWAP1 PUSH2 0xF2B JUMP JUMPDEST PUSH1 0x40 MLOAD DUP1 SWAP2 SUB SWAP1 LOG1 PUSH1 0x1 SWAP2 POP POP SWAP1 JUMP JUMPDEST PUSH1 0x0 DUP1 SLOAD SWAP1 PUSH2 0x100 EXP SWAP1 DIV PUSH20 0xFFFFFFFFFFFFFFFFFFFFFFFFFFFFFFFFFFFFFFFF AND DUP2 JUMP JUMPDEST PUSH1 0x1 PUSH1 0x20 MSTORE DUP1 PUSH1 0x0 MSTORE PUSH1 0x40 PUSH1 0x0 KECCAK256 PUSH1 0x0 SWAP2 POP SWAP1 POP SLOAD DUP2 JUMP JUMPDEST PUSH1 0x9 PUSH1 0x20 MSTORE DUP1 PUSH1 0x0 MSTORE PUSH1 0x40 PUSH1 0x0 KECCAK256 PUSH1 0x0 SWAP2 POP SWAP1 POP SLOAD DUP2 JUMP JUMPDEST PUSH1 0x0 DUP1 REVERT JUMPDEST PUSH1 0x0 PUSH20 0xFFFFFFFFFFFFFFFFFFFFFFFFFFFFFFFFFFFFFFFF DUP3 AND SWAP1 POP SWAP2 SWAP1 POP JUMP JUMPDEST PUSH1 0x0 PUSH2 0xB12 DUP3 PUSH2 0xAE7 JUMP JUMPDEST SWAP1 POP SWAP2 SWAP1 POP JUMP JUMPDEST PUSH2 0xB22 DUP2 PUSH2 0xB07 JUMP JUMPDEST DUP2 EQ PUSH2 0xB2D JUMPI PUSH1 0x0 DUP1 REVERT JUMPDEST POP JUMP JUMPDEST PUSH1 0x0 DUP2 CALLDATALOAD SWAP1 POP PUSH2 0xB3F DUP2 PUSH2 0xB19 JUMP JUMPDEST SWAP3 SWAP2 POP POP JUMP JUMPDEST PUSH1 0x0 PUSH1 0x20 DUP3 DUP5 SUB SLT ISZERO PUSH2 0xB5B JUMPI PUSH2 0xB5A PUSH2 0xAE2 JUMP JUMPDEST JUMPDEST PUSH1 0x0 PUSH2 0xB69 DUP5 DUP3 DUP6 ADD PUSH2 0xB30 JUMP JUMPDEST SWAP2 POP POP SWAP3 SWAP2 POP POP JUMP JUMPDEST PUSH1 0x0 DUP2 SWAP1 POP SWAP2 SWAP1 POP JUMP JUMPDEST PUSH2 0xB85 DUP2 PUSH2 0xB72 JUMP JUMPDEST DUP3 MSTORE POP POP JUMP JUMPDEST PUSH1 0x0 PUSH1 0x20 DUP3 ADD SWAP1 POP PUSH2 0xBA0 PUSH1 0x0 DUP4 ADD DUP5 PUSH2 0xB7C JUMP JUMPDEST SWAP3 SWAP2 POP POP JUMP JUMPDEST PUSH2 0xBAF DUP2 PUSH2 0xB07 JUMP JUMPDEST DUP3 MSTORE POP POP JUMP JUMPDEST PUSH1 0x0 PUSH1 0x20 DUP3 ADD SWAP1 POP PUSH2 0xBCA PUSH1 0x0 DUP4 ADD DUP5 PUSH2 0xBA6 JUMP JUMPDEST SWAP3 SWAP2 POP POP JUMP JUMPDEST PUSH2 0xBD9 DUP2 PUSH2 0xB72 JUMP JUMPDEST DUP2 EQ PUSH2 0xBE4 JUMPI PUSH1 0x0 DUP1 REVERT JUMPDEST POP JUMP JUMPDEST PUSH1 0x0 DUP2 CALLDATALOAD SWAP1 POP PUSH2 0xBF6 DUP2 PUSH2 0xBD0 JUMP JUMPDEST SWAP3 SWAP2 POP POP JUMP JUMPDEST PUSH1 0x0 DUP1 PUSH1 0x40 DUP4 DUP6 SUB SLT ISZERO PUSH2 0xC13 JUMPI PUSH2 0xC12 PUSH2 0xAE2 JUMP JUMPDEST JUMPDEST PUSH1 0x0 PUSH2 0xC21 DUP6 DUP3 DUP7 ADD PUSH2 0xB30 JUMP JUMPDEST SWAP3 POP POP PUSH1 0x20 PUSH2 0xC32 DUP6 DUP3 DUP7 ADD PUSH2 0xBE7 JUMP JUMPDEST SWAP2 POP POP SWAP3 POP SWAP3 SWAP1 POP JUMP JUMPDEST PUSH1 0x0 PUSH1 0x40 DUP3 ADD SWAP1 POP PUSH2 0xC51 PUSH1 0x0 DUP4 ADD DUP6 PUSH2 0xB7C JUMP JUMPDEST PUSH2 0xC5E PUSH1 0x20 DUP4 ADD DUP5 PUSH2 0xB7C JUMP JUMPDEST SWAP4 SWAP3 POP POP POP JUMP JUMPDEST PUSH1 0x0 DUP2 ISZERO ISZERO SWAP1 POP SWAP2 SWAP1 POP JUMP JUMPDEST PUSH2 0xC7A DUP2 PUSH2 0xC65 JUMP JUMPDEST DUP3 MSTORE POP POP JUMP JUMPDEST PUSH1 0x0 PUSH1 0x20 DUP3 ADD SWAP1 POP PUSH2 0xC95 PUSH1 0x0 DUP4 ADD DUP5 PUSH2 0xC71 JUMP JUMPDEST SWAP3 SWAP2 POP POP JUMP JUMPDEST PUSH32 0x4E487B7100000000000000000000000000000000000000000000000000000000 PUSH1 0x0 MSTORE PUSH1 0x12 PUSH1 0x4 MSTORE PUSH1 0x24 PUSH1 0x0 REVERT JUMPDEST PUSH32 0x4E487B7100000000000000000000000000000000000000000000000000000000 PUSH1 0x0 MSTORE PUSH1 0x11 PUSH1 0x4 MSTORE PUSH1 0x24 PUSH1 0x0 REVERT JUMPDEST PUSH1 0x0 PUSH2 0xD04 DUP3 PUSH2 0xB72 JUMP JUMPDEST SWAP2 POP PUSH2 0xD0F DUP4 PUSH2 0xB72 JUMP JUMPDEST SWAP3 POP DUP3 PUSH2 0xD1F JUMPI PUSH2 0xD1E PUSH2 0xC9B JUMP JUMPDEST JUMPDEST DUP3 DUP3 DIV SWAP1 POP SWAP3 SWAP2 POP POP JUMP JUMPDEST PUSH1 0x0 PUSH2 0xD35 DUP3 PUSH2 0xB72 JUMP JUMPDEST SWAP2 POP PUSH2 0xD40 DUP4 PUSH2 0xB72 JUMP JUMPDEST SWAP3 POP DUP3 DUP3 MUL PUSH2 0xD4E DUP2 PUSH2 0xB72 JUMP JUMPDEST SWAP2 POP DUP3 DUP3 DIV DUP5 EQ DUP4 ISZERO OR PUSH2 0xD65 JUMPI PUSH2 0xD64 PUSH2 0xCCA JUMP JUMPDEST JUMPDEST POP SWAP3 SWAP2 POP POP JUMP JUMPDEST PUSH1 0x0 PUSH2 0xD77 DUP3 PUSH2 0xB72 JUMP JUMPDEST SWAP2 POP PUSH2 0xD82 DUP4 PUSH2 0xB72 JUMP JUMPDEST SWAP3 POP DUP3 DUP3 ADD SWAP1 POP DUP1 DUP3 GT ISZERO PUSH2 0xD9A JUMPI PUSH2 0xD99 PUSH2 0xCCA JUMP JUMPDEST JUMPDEST SWAP3 SWAP2 POP POP JUMP JUMPDEST PUSH1 0x0 PUSH2 0xDAB DUP3 PUSH2 0xB72 JUMP JUMPDEST SWAP2 POP PUSH32 0xFFFFFFFFFFFFFFFFFFFFFFFFFFFFFFFFFFFFFFFFFFFFFFFFFFFFFFFFFFFFFFFF DUP3 SUB PUSH2 0xDDD JUMPI PUSH2 0xDDC PUSH2 0xCCA JUMP JUMPDEST JUMPDEST PUSH1 0x1 DUP3 ADD SWAP1 POP SWAP2 SWAP1 POP JUMP JUMPDEST PUSH1 0x0 PUSH2 0xDF3 DUP3 PUSH2 0xB72 JUMP JUMPDEST SWAP2 POP PUSH2 0xDFE DUP4 PUSH2 0xB72 JUMP JUMPDEST SWAP3 POP DUP3 DUP3 SUB SWAP1 POP DUP2 DUP2 GT ISZERO PUSH2 0xE16 JUMPI PUSH2 0xE15 PUSH2 0xCCA JUMP JUMPDEST JUMPDEST SWAP3 SWAP2 POP POP JUMP JUMPDEST PUSH1 0x0 DUP3 DUP3 MSTORE PUSH1 0x20 DUP3 ADD SWAP1 POP SWAP3 SWAP2 POP POP JUMP JUMPDEST PUSH32 0x556E61626C6520746F2057697468647261770000000000000000000000000000 PUSH1 0x0 DUP3 ADD MSTORE POP JUMP JUMPDEST PUSH1 0x0 PUSH2 0xE63 PUSH1 0x12 DUP4 PUSH2 0xE1C JUMP JUMPDEST SWAP2 POP PUSH2 0xE6E DUP3 PUSH2 0xE2D JUMP JUMPDEST PUSH1 0x20 DUP3 ADD SWAP1 POP SWAP2 SWAP1 POP JUMP JUMPDEST PUSH1 0x0 PUSH1 0x20 DUP3 ADD SWAP1 POP DUP2 DUP2 SUB PUSH1 0x0 DUP4 ADD MSTORE PUSH2 0xE92 DUP2 PUSH2 0xE56 JUMP JUMPDEST SWAP1 POP SWAP2 SWAP1 POP JUMP JUMPDEST PUSH32 0x576974686472617720616D6F756E742073686F756C6420626520677265617465 PUSH1 0x0 DUP3 ADD MSTORE PUSH32 0x72207468656E2030000000000000000000000000000000000000000000000000 PUSH1 0x20 DUP3 ADD MSTORE POP JUMP JUMPDEST PUSH1 0x0 PUSH2 0xEF5 PUSH1 0x28 DUP4 PUSH2 0xE1C JUMP JUMPDEST SWAP2 POP PUSH2 0xF00 DUP3 PUSH2 0xE99 JUMP JUMPDEST PUSH1 0x40 DUP3 ADD SWAP1 POP SWAP2 SWAP1 POP JUMP JUMPDEST PUSH1 0x0 PUSH1 0x20 DUP3 ADD SWAP1 POP DUP2 DUP2 SUB PUSH1 0x0 DUP4 ADD MSTORE PUSH2 0xF24 DUP2 PUSH2 0xEE8 JUMP JUMPDEST SWAP1 POP SWAP2 SWAP1 POP JUMP JUMPDEST PUSH1 0x0 PUSH1 0x40 DUP3 ADD SWAP1 POP PUSH2 0xF40 PUSH1 0x0 DUP4 ADD DUP6 PUSH2 0xBA6 JUMP JUMPDEST PUSH2 0xF4D PUSH1 0x20 DUP4 ADD DUP5 PUSH2 0xB7C JUMP JUMPDEST SWAP4 SWAP3 POP POP POP JUMP JUMPDEST PUSH2 0xF5D DUP2 PUSH2 0xC65 JUMP JUMPDEST DUP2 EQ PUSH2 0xF68 JUMPI PUSH1 0x0 DUP1 REVERT JUMPDEST POP JUMP JUMPDEST PUSH1 0x0 DUP2 MLOAD SWAP1 POP PUSH2 0xF7A DUP2 PUSH2 0xF54 JUMP JUMPDEST SWAP3 SWAP2 POP POP JUMP JUMPDEST PUSH1 0x0 PUSH1 0x20 DUP3 DUP5 SUB SLT ISZERO PUSH2 0xF96 JUMPI PUSH2 0xF95 PUSH2 0xAE2 JUMP JUMPDEST JUMPDEST PUSH1 0x0 PUSH2 0xFA4 DUP5 DUP3 DUP6 ADD PUSH2 0xF6B JUMP JUMPDEST SWAP2 POP POP SWAP3 SWAP2 POP POP JUMP INVALID LOG2 PUSH5 0x6970667358 0x22 SLT KECCAK256 0xA6 LOG3 SWAP6 TIMESTAMP 0xC9 DIV 0x21 0x1E 0xC5 PUSH15 0xC896152E4D4DED0D7B4E3FFB28E8F7 PUSH4 0x8F383D6A SWAP8 0xDF PUSH5 0x736F6C6343 STOP ADDMOD SGT STOP CALLER "
				},
				"gasEstimates": {
					"creation": {
						"codeDepositCost": "813400",
						"executionCost": "infinite",
						"totalCost": "infinite"
					},
					"external": {
						"VestingTime(address)": "2838",
						"ViewVestingAmount(address)": "infinite",
						"completedMoth(address)": "2902",
						"decimals()": "2475",
						"deployTimestamp()": "2496",
						"lockingWallet(address)": "2880",
						"onemonth()": "2518",
						"owner()": "2555",
						"tokenContract()": "2559",
						"unlockDate(address)": "2837",
						"viewLeftAmount(address)": "infinite",
						"viewLeftMonth(address)": "infinite",
						"withdrawTokens()": "infinite",
						"withdrawdetails(address,uint256)": "infinite"
					}
				},
				"methodIdentifiers": {
					"VestingTime(address)": "29cac259",
					"ViewVestingAmount(address)": "849f02e9",
					"completedMoth(address)": "d2cc8c22",
					"decimals()": "313ce567",
					"deployTimestamp()": "607ad0d7",
					"lockingWallet(address)": "b6c85464",
					"onemonth()": "688225d6",
					"owner()": "8da5cb5b",
					"tokenContract()": "55a373d6",
					"unlockDate(address)": "49ccd69e",
					"viewLeftAmount(address)": "42f74a9b",
					"viewLeftMonth(address)": "7d35f8bf",
					"withdrawTokens()": "8d8f2adb",
					"withdrawdetails(address,uint256)": "74c76c70"
				}
			},
			"storageLayout": {
				"storage": [
					{
						"astId": 42,
						"contract": "contracts/Vesting.sol:Vesting",
						"label": "owner",
						"offset": 0,
						"slot": "0",
						"type": "t_address"
					},
					{
						"astId": 46,
						"contract": "contracts/Vesting.sol:Vesting",
						"label": "lockingWallet",
						"offset": 0,
						"slot": "1",
						"type": "t_mapping(t_address,t_uint256)"
					},
					{
						"astId": 50,
						"contract": "contracts/Vesting.sol:Vesting",
						"label": "VestingTime",
						"offset": 0,
						"slot": "2",
						"type": "t_mapping(t_address,t_uint256)"
					},
					{
						"astId": 54,
						"contract": "contracts/Vesting.sol:Vesting",
						"label": "unlockDate",
						"offset": 0,
						"slot": "3",
						"type": "t_mapping(t_address,t_uint256)"
					},
					{
						"astId": 61,
						"contract": "contracts/Vesting.sol:Vesting",
						"label": "withdrawdetails",
						"offset": 0,
						"slot": "4",
						"type": "t_mapping(t_address,t_mapping(t_uint256,t_struct(_withdrawdetails)40_storage))"
					},
					{
						"astId": 63,
						"contract": "contracts/Vesting.sol:Vesting",
						"label": "deployTimestamp",
						"offset": 0,
						"slot": "5",
						"type": "t_uint256"
					},
					{
						"astId": 69,
						"contract": "contracts/Vesting.sol:Vesting",
						"label": "tokenContract",
						"offset": 0,
						"slot": "6",
						"type": "t_address"
					},
					{
						"astId": 82,
						"contract": "contracts/Vesting.sol:Vesting",
						"label": "onemonth",
						"offset": 0,
						"slot": "7",
						"type": "t_uint256"
					},
					{
						"astId": 84,
						"contract": "contracts/Vesting.sol:Vesting",
						"label": "decimals",
						"offset": 0,
						"slot": "8",
						"type": "t_uint256"
					},
					{
						"astId": 88,
						"contract": "contracts/Vesting.sol:Vesting",
						"label": "completedMoth",
						"offset": 0,
						"slot": "9",
						"type": "t_mapping(t_address,t_uint256)"
					}
				],
				"types": {
					"t_address": {
						"encoding": "inplace",
						"label": "address",
						"numberOfBytes": "20"
					},
					"t_mapping(t_address,t_mapping(t_uint256,t_struct(_withdrawdetails)40_storage))": {
						"encoding": "mapping",
						"key": "t_address",
						"label": "mapping(address => mapping(uint256 => struct Vesting._withdrawdetails))",
						"numberOfBytes": "32",
						"value": "t_mapping(t_uint256,t_struct(_withdrawdetails)40_storage)"
					},
					"t_mapping(t_address,t_uint256)": {
						"encoding": "mapping",
						"key": "t_address",
						"label": "mapping(address => uint256)",
						"numberOfBytes": "32",
						"value": "t_uint256"
					},
					"t_mapping(t_uint256,t_struct(_withdrawdetails)40_storage)": {
						"encoding": "mapping",
						"key": "t_uint256",
						"label": "mapping(uint256 => struct Vesting._withdrawdetails)",
						"numberOfBytes": "32",
						"value": "t_struct(_withdrawdetails)40_storage"
					},
					"t_struct(_withdrawdetails)40_storage": {
						"encoding": "inplace",
						"label": "struct Vesting._withdrawdetails",
						"members": [
							{
								"astId": 37,
								"contract": "contracts/Vesting.sol:Vesting",
								"label": "time",
								"offset": 0,
								"slot": "0",
								"type": "t_uint256"
							},
							{
								"astId": 39,
								"contract": "contracts/Vesting.sol:Vesting",
								"label": "amount",
								"offset": 0,
								"slot": "1",
								"type": "t_uint256"
							}
						],
						"numberOfBytes": "64"
					},
					"t_uint256": {
						"encoding": "inplace",
						"label": "uint256",
						"numberOfBytes": "32"
					}
				}
			},
			"userdoc": {
				"kind": "user",
				"methods": {},
				"version": 1
			}
		}
	}
}