{
	"contracts/Liquiditylocked.sol": {
		"Liquiditylocked": {
			"abi": [
				{
					"inputs": [
						{
							"internalType": "address",
							"name": "_LPContract",
							"type": "address"
						},
						{
							"internalType": "uint256",
							"name": "_amount",
							"type": "uint256"
						}
					],
					"stateMutability": "nonpayable",
					"type": "constructor"
				},
				{
					"anonymous": false,
					"inputs": [
						{
							"indexed": true,
							"internalType": "address",
							"name": "previousOwner",
							"type": "address"
						},
						{
							"indexed": true,
							"internalType": "address",
							"name": "newOwner",
							"type": "address"
						}
					],
					"name": "OwnershipTransferred",
					"type": "event"
				},
				{
					"anonymous": false,
					"inputs": [
						{
							"indexed": false,
							"internalType": "address",
							"name": "_to",
							"type": "address"
						},
						{
							"indexed": false,
							"internalType": "uint256",
							"name": "_amount",
							"type": "uint256"
						}
					],
					"name": "claim",
					"type": "event"
				},
				{
					"inputs": [],
					"name": "Claim",
					"outputs": [
						{
							"internalType": "bool",
							"name": "",
							"type": "bool"
						}
					],
					"stateMutability": "nonpayable",
					"type": "function"
				},
				{
					"inputs": [],
					"name": "LPAddress",
					"outputs": [
						{
							"internalType": "address",
							"name": "",
							"type": "address"
						}
					],
					"stateMutability": "view",
					"type": "function"
				},
				{
					"inputs": [],
					"name": "deployTimestamp",
					"outputs": [
						{
							"internalType": "uint256",
							"name": "",
							"type": "uint256"
						}
					],
					"stateMutability": "view",
					"type": "function"
				},
				{
					"inputs": [],
					"name": "isOwner",
					"outputs": [
						{
							"internalType": "bool",
							"name": "",
							"type": "bool"
						}
					],
					"stateMutability": "view",
					"type": "function"
				},
				{
					"inputs": [],
					"name": "lockedamount",
					"outputs": [
						{
							"internalType": "uint256",
							"name": "",
							"type": "uint256"
						}
					],
					"stateMutability": "view",
					"type": "function"
				},
				{
					"inputs": [],
					"name": "owner",
					"outputs": [
						{
							"internalType": "address",
							"name": "",
							"type": "address"
						}
					],
					"stateMutability": "view",
					"type": "function"
				},
				{
					"inputs": [],
					"name": "renounceOwnership",
					"outputs": [],
					"stateMutability": "nonpayable",
					"type": "function"
				},
				{
					"inputs": [
						{
							"internalType": "address",
							"name": "newOwner",
							"type": "address"
						}
					],
					"name": "transferOwnership",
					"outputs": [],
					"stateMutability": "nonpayable",
					"type": "function"
				},
				{
					"inputs": [],
					"name": "unlockDate",
					"outputs": [
						{
							"internalType": "uint256",
							"name": "",
							"type": "uint256"
						}
					],
					"stateMutability": "view",
					"type": "function"
				}
			],
			"devdoc": {
				"events": {
					"claim(address,uint256)": {
						"details": "To show contract event  ."
					}
				},
				"kind": "dev",
				"methods": {
					"isOwner()": {
						"returns": {
							"_0": "true if `msg.sender` is the owner of the contract."
						}
					},
					"owner()": {
						"returns": {
							"_0": "the address of the owner."
						}
					},
					"renounceOwnership()": {
						"details": "Allows the current owner to relinquish control of the contract. It will not be possible to call the functions with the `onlyOwner` modifier anymore."
					},
					"transferOwnership(address)": {
						"details": "Allows the current owner to transfer control of the contract to a newOwner.",
						"params": {
							"newOwner": "The address to transfer ownership to."
						}
					}
				},
				"version": 1
			},
			"evm": {
				"assembly": "    /* \"contracts/Liquiditylocked.sol\":2742:3676  contract Liquiditylocked is Ownable {... */\n  mstore(0x40, 0x0100)\n    /* \"contracts/Liquiditylocked.sol\":3055:3409  constructor(address _LPContract, uint256 _amount) {  ... */\n  callvalue\n  dup1\n  iszero\n  tag_1\n  jumpi\n  0x00\n  dup1\n  revert\ntag_1:\n  pop\n  mload(0x40)\n  sub(codesize, bytecodeSize)\n  dup1\n  bytecodeSize\n  dup4\n  codecopy\n  dup2\n  dup2\n  add\n  0x40\n  mstore\n  dup2\n  add\n  swap1\n  tag_2\n  swap2\n  swap1\n  tag_3\n  jump\t// in\ntag_2:\n    /* \"contracts/Liquiditylocked.sol\":1097:1107  msg.sender */\n  caller\n    /* \"contracts/Liquiditylocked.sol\":1088:1094  _owner */\n  0x00\n  dup1\n    /* \"contracts/Liquiditylocked.sol\":1088:1107  _owner = msg.sender */\n  0x0100\n  exp\n  dup2\n  sload\n  dup2\n  0xffffffffffffffffffffffffffffffffffffffff\n  mul\n  not\n  and\n  swap1\n  dup4\n  0xffffffffffffffffffffffffffffffffffffffff\n  and\n  mul\n  or\n  swap1\n  sstore\n  pop\n    /* \"contracts/Liquiditylocked.sol\":1155:1161  _owner */\n  0x00\n  dup1\n  sload\n  swap1\n  0x0100\n  exp\n  swap1\n  div\n  0xffffffffffffffffffffffffffffffffffffffff\n  and\n    /* \"contracts/Liquiditylocked.sol\":1122:1162  OwnershipTransferred(address(0), _owner) */\n  0xffffffffffffffffffffffffffffffffffffffff\n  and\n    /* \"contracts/Liquiditylocked.sol\":1151:1152  0 */\n  0x00\n    /* \"contracts/Liquiditylocked.sol\":1122:1162  OwnershipTransferred(address(0), _owner) */\n  0xffffffffffffffffffffffffffffffffffffffff\n  and\n  0x8be0079c531659141344cd1fd0a4f28419497f9722a3daafe3b4186f6b6457e0\n  mload(0x40)\n  mload(0x40)\n  dup1\n  swap2\n  sub\n  swap1\n  log3\n    /* \"contracts/Liquiditylocked.sol\":3133:3148  block.timestamp */\n  timestamp\n    /* \"contracts/Liquiditylocked.sol\":3117:3148  deployTimestamp=block.timestamp */\n  0xe0\n  dup2\n  dup2\n  mstore\n  pop\n  pop\n    /* \"contracts/Liquiditylocked.sol\":3169:3180  _LPContract */\n  dup2\n    /* \"contracts/Liquiditylocked.sol\":3158:3180  LPAddress= _LPContract */\n  0xffffffffffffffffffffffffffffffffffffffff\n  and\n  0x80\n  dup2\n  0xffffffffffffffffffffffffffffffffffffffff\n  and\n  dup2\n  mstore\n  pop\n  pop\n    /* \"contracts/Liquiditylocked.sol\":3244:3251  _amount */\n  dup1\n    /* \"contracts/Liquiditylocked.sol\":3209:3218  LPAddress */\n  mload(0x80)\n    /* \"contracts/Liquiditylocked.sol\":3202:3229  TokenI(LPAddress).balanceOf */\n  0xffffffffffffffffffffffffffffffffffffffff\n  and\n  0x70a08231\n    /* \"contracts/Liquiditylocked.sol\":3230:3240  msg.sender */\n  caller\n    /* \"contracts/Liquiditylocked.sol\":3202:3241  TokenI(LPAddress).balanceOf(msg.sender) */\n  mload(0x40)\n  dup3\n  0xffffffff\n  and\n  0xe0\n  shl\n  dup2\n  mstore\n  0x04\n  add\n  tag_8\n  swap2\n  swap1\n  tag_9\n  jump\t// in\ntag_8:\n  0x20\n  mload(0x40)\n  dup1\n  dup4\n  sub\n  dup2\n  0x00\n  dup8\n  gas\n  call\n  iszero\n  dup1\n  iszero\n  tag_11\n  jumpi\n  returndatasize\n  0x00\n  dup1\n  returndatacopy\n  revert(0x00, returndatasize)\ntag_11:\n  pop\n  pop\n  pop\n  pop\n  mload(0x40)\n  returndatasize\n  not(0x1f)\n  0x1f\n  dup3\n  add\n  and\n  dup3\n  add\n  dup1\n  0x40\n  mstore\n  pop\n  dup2\n  add\n  swap1\n  tag_12\n  swap2\n  swap1\n  tag_13\n  jump\t// in\ntag_12:\n    /* \"contracts/Liquiditylocked.sol\":3202:3251  TokenI(LPAddress).balanceOf(msg.sender) > _amount */\n  gt\n    /* \"contracts/Liquiditylocked.sol\":3194:3275  require(TokenI(LPAddress).balanceOf(msg.sender) > _amount, \"Insufficient tokens\") */\n  tag_14\n  jumpi\n  mload(0x40)\n  0x08c379a000000000000000000000000000000000000000000000000000000000\n  dup2\n  mstore\n  0x04\n  add\n  tag_15\n  swap1\n  tag_16\n  jump\t// in\ntag_15:\n  mload(0x40)\n  dup1\n  swap2\n  sub\n  swap1\n  revert\ntag_14:\n    /* \"contracts/Liquiditylocked.sol\":3327:3346  31*12*15*(24*60*60) */\n  0x1cbc7200\n    /* \"contracts/Liquiditylocked.sol\":3308:3323  deployTimestamp */\n  mload(0xe0)\n    /* \"contracts/Liquiditylocked.sol\":3308:3347  deployTimestamp + (31*12*15*(24*60*60)) */\n  tag_17\n  swap2\n  swap1\n  tag_18\n  jump\t// in\ntag_17:\n    /* \"contracts/Liquiditylocked.sol\":3294:3347  unlockDate =  deployTimestamp + (31*12*15*(24*60*60)) */\n  0xa0\n  dup2\n  dup2\n  mstore\n  pop\n  pop\n    /* \"contracts/Liquiditylocked.sol\":3395:3402  _amount */\n  dup1\n    /* \"contracts/Liquiditylocked.sol\":3380:3402  lockedamount = _amount */\n  0xc0\n  dup2\n  dup2\n  mstore\n  pop\n  pop\n    /* \"contracts/Liquiditylocked.sol\":3055:3409  constructor(address _LPContract, uint256 _amount) {  ... */\n  pop\n  pop\n    /* \"contracts/Liquiditylocked.sol\":2742:3676  contract Liquiditylocked is Ownable {... */\n  jump(tag_19)\n    /* \"#utility.yul\":88:205   */\ntag_21:\n    /* \"#utility.yul\":197:198   */\n  0x00\n    /* \"#utility.yul\":194:195   */\n  dup1\n    /* \"#utility.yul\":187:199   */\n  revert\n    /* \"#utility.yul\":334:460   */\ntag_23:\n    /* \"#utility.yul\":371:378   */\n  0x00\n    /* \"#utility.yul\":411:453   */\n  0xffffffffffffffffffffffffffffffffffffffff\n    /* \"#utility.yul\":404:409   */\n  dup3\n    /* \"#utility.yul\":400:454   */\n  and\n    /* \"#utility.yul\":389:454   */\n  swap1\n  pop\n    /* \"#utility.yul\":334:460   */\n  swap2\n  swap1\n  pop\n  jump\t// out\n    /* \"#utility.yul\":466:562   */\ntag_24:\n    /* \"#utility.yul\":503:510   */\n  0x00\n    /* \"#utility.yul\":532:556   */\n  tag_41\n    /* \"#utility.yul\":550:555   */\n  dup3\n    /* \"#utility.yul\":532:556   */\n  tag_23\n  jump\t// in\ntag_41:\n    /* \"#utility.yul\":521:556   */\n  swap1\n  pop\n    /* \"#utility.yul\":466:562   */\n  swap2\n  swap1\n  pop\n  jump\t// out\n    /* \"#utility.yul\":568:690   */\ntag_25:\n    /* \"#utility.yul\":641:665   */\n  tag_43\n    /* \"#utility.yul\":659:664   */\n  dup2\n    /* \"#utility.yul\":641:665   */\n  tag_24\n  jump\t// in\ntag_43:\n    /* \"#utility.yul\":634:639   */\n  dup2\n    /* \"#utility.yul\":631:666   */\n  eq\n    /* \"#utility.yul\":621:684   */\n  tag_44\n  jumpi\n    /* \"#utility.yul\":680:681   */\n  0x00\n    /* \"#utility.yul\":677:678   */\n  dup1\n    /* \"#utility.yul\":670:682   */\n  revert\n    /* \"#utility.yul\":621:684   */\ntag_44:\n    /* \"#utility.yul\":568:690   */\n  pop\n  jump\t// out\n    /* \"#utility.yul\":696:839   */\ntag_26:\n    /* \"#utility.yul\":753:758   */\n  0x00\n    /* \"#utility.yul\":784:790   */\n  dup2\n    /* \"#utility.yul\":778:791   */\n  mload\n    /* \"#utility.yul\":769:791   */\n  swap1\n  pop\n    /* \"#utility.yul\":800:833   */\n  tag_46\n    /* \"#utility.yul\":827:832   */\n  dup2\n    /* \"#utility.yul\":800:833   */\n  tag_25\n  jump\t// in\ntag_46:\n    /* \"#utility.yul\":696:839   */\n  swap3\n  swap2\n  pop\n  pop\n  jump\t// out\n    /* \"#utility.yul\":845:922   */\ntag_27:\n    /* \"#utility.yul\":882:889   */\n  0x00\n    /* \"#utility.yul\":911:916   */\n  dup2\n    /* \"#utility.yul\":900:916   */\n  swap1\n  pop\n    /* \"#utility.yul\":845:922   */\n  swap2\n  swap1\n  pop\n  jump\t// out\n    /* \"#utility.yul\":928:1050   */\ntag_28:\n    /* \"#utility.yul\":1001:1025   */\n  tag_49\n    /* \"#utility.yul\":1019:1024   */\n  dup2\n    /* \"#utility.yul\":1001:1025   */\n  tag_27\n  jump\t// in\ntag_49:\n    /* \"#utility.yul\":994:999   */\n  dup2\n    /* \"#utility.yul\":991:1026   */\n  eq\n    /* \"#utility.yul\":981:1044   */\n  tag_50\n  jumpi\n    /* \"#utility.yul\":1040:1041   */\n  0x00\n    /* \"#utility.yul\":1037:1038   */\n  dup1\n    /* \"#utility.yul\":1030:1042   */\n  revert\n    /* \"#utility.yul\":981:1044   */\ntag_50:\n    /* \"#utility.yul\":928:1050   */\n  pop\n  jump\t// out\n    /* \"#utility.yul\":1056:1199   */\ntag_29:\n    /* \"#utility.yul\":1113:1118   */\n  0x00\n    /* \"#utility.yul\":1144:1150   */\n  dup2\n    /* \"#utility.yul\":1138:1151   */\n  mload\n    /* \"#utility.yul\":1129:1151   */\n  swap1\n  pop\n    /* \"#utility.yul\":1160:1193   */\n  tag_52\n    /* \"#utility.yul\":1187:1192   */\n  dup2\n    /* \"#utility.yul\":1160:1193   */\n  tag_28\n  jump\t// in\ntag_52:\n    /* \"#utility.yul\":1056:1199   */\n  swap3\n  swap2\n  pop\n  pop\n  jump\t// out\n    /* \"#utility.yul\":1205:1712   */\ntag_3:\n    /* \"#utility.yul\":1284:1290   */\n  0x00\n    /* \"#utility.yul\":1292:1298   */\n  dup1\n    /* \"#utility.yul\":1341:1343   */\n  0x40\n    /* \"#utility.yul\":1329:1338   */\n  dup4\n    /* \"#utility.yul\":1320:1327   */\n  dup6\n    /* \"#utility.yul\":1316:1339   */\n  sub\n    /* \"#utility.yul\":1312:1344   */\n  slt\n    /* \"#utility.yul\":1309:1428   */\n  iszero\n  tag_54\n  jumpi\n    /* \"#utility.yul\":1347:1426   */\n  tag_55\n  tag_21\n  jump\t// in\ntag_55:\n    /* \"#utility.yul\":1309:1428   */\ntag_54:\n    /* \"#utility.yul\":1467:1468   */\n  0x00\n    /* \"#utility.yul\":1492:1556   */\n  tag_56\n    /* \"#utility.yul\":1548:1555   */\n  dup6\n    /* \"#utility.yul\":1539:1545   */\n  dup3\n    /* \"#utility.yul\":1528:1537   */\n  dup7\n    /* \"#utility.yul\":1524:1546   */\n  add\n    /* \"#utility.yul\":1492:1556   */\n  tag_26\n  jump\t// in\ntag_56:\n    /* \"#utility.yul\":1482:1556   */\n  swap3\n  pop\n    /* \"#utility.yul\":1438:1566   */\n  pop\n    /* \"#utility.yul\":1605:1607   */\n  0x20\n    /* \"#utility.yul\":1631:1695   */\n  tag_57\n    /* \"#utility.yul\":1687:1694   */\n  dup6\n    /* \"#utility.yul\":1678:1684   */\n  dup3\n    /* \"#utility.yul\":1667:1676   */\n  dup7\n    /* \"#utility.yul\":1663:1685   */\n  add\n    /* \"#utility.yul\":1631:1695   */\n  tag_29\n  jump\t// in\ntag_57:\n    /* \"#utility.yul\":1621:1695   */\n  swap2\n  pop\n    /* \"#utility.yul\":1576:1705   */\n  pop\n    /* \"#utility.yul\":1205:1712   */\n  swap3\n  pop\n  swap3\n  swap1\n  pop\n  jump\t// out\n    /* \"#utility.yul\":1718:1836   */\ntag_30:\n    /* \"#utility.yul\":1805:1829   */\n  tag_59\n    /* \"#utility.yul\":1823:1828   */\n  dup2\n    /* \"#utility.yul\":1805:1829   */\n  tag_24\n  jump\t// in\ntag_59:\n    /* \"#utility.yul\":1800:1803   */\n  dup3\n    /* \"#utility.yul\":1793:1830   */\n  mstore\n    /* \"#utility.yul\":1718:1836   */\n  pop\n  pop\n  jump\t// out\n    /* \"#utility.yul\":1842:2064   */\ntag_9:\n    /* \"#utility.yul\":1935:1939   */\n  0x00\n    /* \"#utility.yul\":1973:1975   */\n  0x20\n    /* \"#utility.yul\":1962:1971   */\n  dup3\n    /* \"#utility.yul\":1958:1976   */\n  add\n    /* \"#utility.yul\":1950:1976   */\n  swap1\n  pop\n    /* \"#utility.yul\":1986:2057   */\n  tag_61\n    /* \"#utility.yul\":2054:2055   */\n  0x00\n    /* \"#utility.yul\":2043:2052   */\n  dup4\n    /* \"#utility.yul\":2039:2056   */\n  add\n    /* \"#utility.yul\":2030:2036   */\n  dup5\n    /* \"#utility.yul\":1986:2057   */\n  tag_30\n  jump\t// in\ntag_61:\n    /* \"#utility.yul\":1842:2064   */\n  swap3\n  swap2\n  pop\n  pop\n  jump\t// out\n    /* \"#utility.yul\":2070:2421   */\ntag_13:\n    /* \"#utility.yul\":2140:2146   */\n  0x00\n    /* \"#utility.yul\":2189:2191   */\n  0x20\n    /* \"#utility.yul\":2177:2186   */\n  dup3\n    /* \"#utility.yul\":2168:2175   */\n  dup5\n    /* \"#utility.yul\":2164:2187   */\n  sub\n    /* \"#utility.yul\":2160:2192   */\n  slt\n    /* \"#utility.yul\":2157:2276   */\n  iszero\n  tag_63\n  jumpi\n    /* \"#utility.yul\":2195:2274   */\n  tag_64\n  tag_21\n  jump\t// in\ntag_64:\n    /* \"#utility.yul\":2157:2276   */\ntag_63:\n    /* \"#utility.yul\":2315:2316   */\n  0x00\n    /* \"#utility.yul\":2340:2404   */\n  tag_65\n    /* \"#utility.yul\":2396:2403   */\n  dup5\n    /* \"#utility.yul\":2387:2393   */\n  dup3\n    /* \"#utility.yul\":2376:2385   */\n  dup6\n    /* \"#utility.yul\":2372:2394   */\n  add\n    /* \"#utility.yul\":2340:2404   */\n  tag_29\n  jump\t// in\ntag_65:\n    /* \"#utility.yul\":2330:2404   */\n  swap2\n  pop\n    /* \"#utility.yul\":2286:2414   */\n  pop\n    /* \"#utility.yul\":2070:2421   */\n  swap3\n  swap2\n  pop\n  pop\n  jump\t// out\n    /* \"#utility.yul\":2427:2596   */\ntag_31:\n    /* \"#utility.yul\":2511:2522   */\n  0x00\n    /* \"#utility.yul\":2545:2551   */\n  dup3\n    /* \"#utility.yul\":2540:2543   */\n  dup3\n    /* \"#utility.yul\":2533:2552   */\n  mstore\n    /* \"#utility.yul\":2585:2589   */\n  0x20\n    /* \"#utility.yul\":2580:2583   */\n  dup3\n    /* \"#utility.yul\":2576:2590   */\n  add\n    /* \"#utility.yul\":2561:2590   */\n  swap1\n  pop\n    /* \"#utility.yul\":2427:2596   */\n  swap3\n  swap2\n  pop\n  pop\n  jump\t// out\n    /* \"#utility.yul\":2602:2771   */\ntag_32:\n    /* \"#utility.yul\":2742:2763   */\n  0x496e73756666696369656e7420746f6b656e7300000000000000000000000000\n    /* \"#utility.yul\":2738:2739   */\n  0x00\n    /* \"#utility.yul\":2730:2736   */\n  dup3\n    /* \"#utility.yul\":2726:2740   */\n  add\n    /* \"#utility.yul\":2719:2764   */\n  mstore\n    /* \"#utility.yul\":2602:2771   */\n  pop\n  jump\t// out\n    /* \"#utility.yul\":2777:3143   */\ntag_33:\n    /* \"#utility.yul\":2919:2922   */\n  0x00\n    /* \"#utility.yul\":2940:3007   */\n  tag_69\n    /* \"#utility.yul\":3004:3006   */\n  0x13\n    /* \"#utility.yul\":2999:3002   */\n  dup4\n    /* \"#utility.yul\":2940:3007   */\n  tag_31\n  jump\t// in\ntag_69:\n    /* \"#utility.yul\":2933:3007   */\n  swap2\n  pop\n    /* \"#utility.yul\":3016:3109   */\n  tag_70\n    /* \"#utility.yul\":3105:3108   */\n  dup3\n    /* \"#utility.yul\":3016:3109   */\n  tag_32\n  jump\t// in\ntag_70:\n    /* \"#utility.yul\":3134:3136   */\n  0x20\n    /* \"#utility.yul\":3129:3132   */\n  dup3\n    /* \"#utility.yul\":3125:3137   */\n  add\n    /* \"#utility.yul\":3118:3137   */\n  swap1\n  pop\n    /* \"#utility.yul\":2777:3143   */\n  swap2\n  swap1\n  pop\n  jump\t// out\n    /* \"#utility.yul\":3149:3568   */\ntag_16:\n    /* \"#utility.yul\":3315:3319   */\n  0x00\n    /* \"#utility.yul\":3353:3355   */\n  0x20\n    /* \"#utility.yul\":3342:3351   */\n  dup3\n    /* \"#utility.yul\":3338:3356   */\n  add\n    /* \"#utility.yul\":3330:3356   */\n  swap1\n  pop\n    /* \"#utility.yul\":3402:3411   */\n  dup2\n    /* \"#utility.yul\":3396:3400   */\n  dup2\n    /* \"#utility.yul\":3392:3412   */\n  sub\n    /* \"#utility.yul\":3388:3389   */\n  0x00\n    /* \"#utility.yul\":3377:3386   */\n  dup4\n    /* \"#utility.yul\":3373:3390   */\n  add\n    /* \"#utility.yul\":3366:3413   */\n  mstore\n    /* \"#utility.yul\":3430:3561   */\n  tag_72\n    /* \"#utility.yul\":3556:3560   */\n  dup2\n    /* \"#utility.yul\":3430:3561   */\n  tag_33\n  jump\t// in\ntag_72:\n    /* \"#utility.yul\":3422:3561   */\n  swap1\n  pop\n    /* \"#utility.yul\":3149:3568   */\n  swap2\n  swap1\n  pop\n  jump\t// out\n    /* \"#utility.yul\":3574:3754   */\ntag_34:\n    /* \"#utility.yul\":3622:3699   */\n  0x4e487b7100000000000000000000000000000000000000000000000000000000\n    /* \"#utility.yul\":3619:3620   */\n  0x00\n    /* \"#utility.yul\":3612:3700   */\n  mstore\n    /* \"#utility.yul\":3719:3723   */\n  0x11\n    /* \"#utility.yul\":3716:3717   */\n  0x04\n    /* \"#utility.yul\":3709:3724   */\n  mstore\n    /* \"#utility.yul\":3743:3747   */\n  0x24\n    /* \"#utility.yul\":3740:3741   */\n  0x00\n    /* \"#utility.yul\":3733:3748   */\n  revert\n    /* \"#utility.yul\":3760:3951   */\ntag_18:\n    /* \"#utility.yul\":3800:3803   */\n  0x00\n    /* \"#utility.yul\":3819:3839   */\n  tag_75\n    /* \"#utility.yul\":3837:3838   */\n  dup3\n    /* \"#utility.yul\":3819:3839   */\n  tag_27\n  jump\t// in\ntag_75:\n    /* \"#utility.yul\":3814:3839   */\n  swap2\n  pop\n    /* \"#utility.yul\":3853:3873   */\n  tag_76\n    /* \"#utility.yul\":3871:3872   */\n  dup4\n    /* \"#utility.yul\":3853:3873   */\n  tag_27\n  jump\t// in\ntag_76:\n    /* \"#utility.yul\":3848:3873   */\n  swap3\n  pop\n    /* \"#utility.yul\":3896:3897   */\n  dup3\n    /* \"#utility.yul\":3893:3894   */\n  dup3\n    /* \"#utility.yul\":3889:3898   */\n  add\n    /* \"#utility.yul\":3882:3898   */\n  swap1\n  pop\n    /* \"#utility.yul\":3917:3920   */\n  dup1\n    /* \"#utility.yul\":3914:3915   */\n  dup3\n    /* \"#utility.yul\":3911:3921   */\n  gt\n    /* \"#utility.yul\":3908:3944   */\n  iszero\n  tag_77\n  jumpi\n    /* \"#utility.yul\":3924:3942   */\n  tag_78\n  tag_34\n  jump\t// in\ntag_78:\n    /* \"#utility.yul\":3908:3944   */\ntag_77:\n    /* \"#utility.yul\":3760:3951   */\n  swap3\n  swap2\n  pop\n  pop\n  jump\t// out\n    /* \"contracts/Liquiditylocked.sol\":2742:3676  contract Liquiditylocked is Ownable {... */\ntag_19:\n  mload(0x80)\n  mload(0xa0)\n  mload(0xc0)\n  mload(0xe0)\n  codecopy(0x00, dataOffset(sub_0), dataSize(sub_0))\n  0x00\n  assignImmutable(\"0x20d2ac2a28641786ba03eff53facea687b35e08e680a1b71922c6fc1ed1f2735\")\n  0x00\n  assignImmutable(\"0x73aad4ff595a8813cc7d440d244545017c77098528f010a7caaa7d74c382f6c5\")\n  0x00\n  assignImmutable(\"0x1b6edb65b6c2611a7285cc668f4110f574a7bc3b0d28690b40a16f141eada39a\")\n  0x00\n  assignImmutable(\"0xa65d03add95baf22e482ebcd3423aa9bf9d8b0ec3fca2831960080b84536d360\")\n  return(0x00, dataSize(sub_0))\nstop\n\nsub_0: assembly {\n        /* \"contracts/Liquiditylocked.sol\":2742:3676  contract Liquiditylocked is Ownable {... */\n      mstore(0x40, 0x80)\n      callvalue\n      dup1\n      iszero\n      tag_1\n      jumpi\n      0x00\n      dup1\n      revert\n    tag_1:\n      pop\n      jumpi(tag_2, lt(calldatasize, 0x04))\n      shr(0xe0, calldataload(0x00))\n      dup1\n      0x715018a6\n      gt\n      tag_12\n      jumpi\n      dup1\n      0x715018a6\n      eq\n      tag_7\n      jumpi\n      dup1\n      0x8da5cb5b\n      eq\n      tag_8\n      jumpi\n      dup1\n      0x8f32d59b\n      eq\n      tag_9\n      jumpi\n      dup1\n      0xa70ebb20\n      eq\n      tag_10\n      jumpi\n      dup1\n      0xf2fde38b\n      eq\n      tag_11\n      jumpi\n      jump(tag_2)\n    tag_12:\n      dup1\n      0x120f2eda\n      eq\n      tag_3\n      jumpi\n      dup1\n      0x3158952e\n      eq\n      tag_4\n      jumpi\n      dup1\n      0x607ad0d7\n      eq\n      tag_5\n      jumpi\n      dup1\n      0x69ac5721\n      eq\n      tag_6\n      jumpi\n    tag_2:\n      0x00\n      dup1\n      revert\n        /* \"contracts/Liquiditylocked.sol\":2785:2819  address public immutable LPAddress */\n    tag_3:\n      tag_13\n      tag_14\n      jump\t// in\n    tag_13:\n      mload(0x40)\n      tag_15\n      swap2\n      swap1\n      tag_16\n      jump\t// in\n    tag_15:\n      mload(0x40)\n      dup1\n      swap2\n      sub\n      swap1\n      return\n        /* \"contracts/Liquiditylocked.sol\":3415:3672  function Claim() public onlyOwner returns(bool){        ... */\n    tag_4:\n      tag_17\n      tag_18\n      jump\t// in\n    tag_17:\n      mload(0x40)\n      tag_19\n      swap2\n      swap1\n      tag_20\n      jump\t// in\n    tag_19:\n      mload(0x40)\n      dup1\n      swap2\n      sub\n      swap1\n      return\n        /* \"contracts/Liquiditylocked.sol\":2909:2949  uint256 public immutable deployTimestamp */\n    tag_5:\n      tag_21\n      tag_22\n      jump\t// in\n    tag_21:\n      mload(0x40)\n      tag_23\n      swap2\n      swap1\n      tag_24\n      jump\t// in\n    tag_23:\n      mload(0x40)\n      dup1\n      swap2\n      sub\n      swap1\n      return\n        /* \"contracts/Liquiditylocked.sol\":2825:2860  uint256 public immutable unlockDate */\n    tag_6:\n      tag_25\n      tag_26\n      jump\t// in\n    tag_25:\n      mload(0x40)\n      tag_27\n      swap2\n      swap1\n      tag_24\n      jump\t// in\n    tag_27:\n      mload(0x40)\n      dup1\n      swap2\n      sub\n      swap1\n      return\n        /* \"contracts/Liquiditylocked.sol\":1996:2133  function renounceOwnership() public onlyOwner {... */\n    tag_7:\n      tag_28\n      tag_29\n      jump\t// in\n    tag_28:\n      stop\n        /* \"contracts/Liquiditylocked.sol\":1232:1309  function owner() public view returns (address) {... */\n    tag_8:\n      tag_30\n      tag_31\n      jump\t// in\n    tag_30:\n      mload(0x40)\n      tag_32\n      swap2\n      swap1\n      tag_16\n      jump\t// in\n    tag_32:\n      mload(0x40)\n      dup1\n      swap2\n      sub\n      swap1\n      return\n        /* \"contracts/Liquiditylocked.sol\":1552:1642  function isOwner() public view returns (bool) {... */\n    tag_9:\n      tag_33\n      tag_34\n      jump\t// in\n    tag_33:\n      mload(0x40)\n      tag_35\n      swap2\n      swap1\n      tag_20\n      jump\t// in\n    tag_35:\n      mload(0x40)\n      dup1\n      swap2\n      sub\n      swap1\n      return\n        /* \"contracts/Liquiditylocked.sol\":2866:2903  uint256 public immutable lockedamount */\n    tag_10:\n      tag_36\n      tag_37\n      jump\t// in\n    tag_36:\n      mload(0x40)\n      tag_38\n      swap2\n      swap1\n      tag_24\n      jump\t// in\n    tag_38:\n      mload(0x40)\n      dup1\n      swap2\n      sub\n      swap1\n      return\n        /* \"contracts/Liquiditylocked.sol\":2304:2411  function transferOwnership(address newOwner) public onlyOwner {... */\n    tag_11:\n      tag_39\n      0x04\n      dup1\n      calldatasize\n      sub\n      dup2\n      add\n      swap1\n      tag_40\n      swap2\n      swap1\n      tag_41\n      jump\t// in\n    tag_40:\n      tag_42\n      jump\t// in\n    tag_39:\n      stop\n        /* \"contracts/Liquiditylocked.sol\":2785:2819  address public immutable LPAddress */\n    tag_14:\n      immutable(\"0xa65d03add95baf22e482ebcd3423aa9bf9d8b0ec3fca2831960080b84536d360\")\n      dup2\n      jump\t// out\n        /* \"contracts/Liquiditylocked.sol\":3415:3672  function Claim() public onlyOwner returns(bool){        ... */\n    tag_18:\n        /* \"contracts/Liquiditylocked.sol\":3457:3461  bool */\n      0x00\n        /* \"contracts/Liquiditylocked.sol\":1436:1445  isOwner() */\n      tag_44\n        /* \"contracts/Liquiditylocked.sol\":1436:1443  isOwner */\n      tag_34\n        /* \"contracts/Liquiditylocked.sol\":1436:1445  isOwner() */\n      jump\t// in\n    tag_44:\n        /* \"contracts/Liquiditylocked.sol\":1428:1446  require(isOwner()) */\n      tag_45\n      jumpi\n      0x00\n      dup1\n      revert\n    tag_45:\n        /* \"contracts/Liquiditylocked.sol\":3500:3515  block.timestamp */\n      timestamp\n        /* \"contracts/Liquiditylocked.sol\":3488:3498  unlockDate */\n      immutable(\"0x1b6edb65b6c2611a7285cc668f4110f574a7bc3b0d28690b40a16f141eada39a\")\n        /* \"contracts/Liquiditylocked.sol\":3488:3515  unlockDate<=block.timestamp */\n      gt\n      iszero\n        /* \"contracts/Liquiditylocked.sol\":3480:3536  require(unlockDate<=block.timestamp,\"Liquidity locked!\") */\n      tag_47\n      jumpi\n      mload(0x40)\n      0x08c379a000000000000000000000000000000000000000000000000000000000\n      dup2\n      mstore\n      0x04\n      add\n      tag_48\n      swap1\n      tag_49\n      jump\t// in\n    tag_48:\n      mload(0x40)\n      dup1\n      swap2\n      sub\n      swap1\n      revert\n    tag_47:\n        /* \"contracts/Liquiditylocked.sol\":3554:3563  LPAddress */\n      immutable(\"0xa65d03add95baf22e482ebcd3423aa9bf9d8b0ec3fca2831960080b84536d360\")\n        /* \"contracts/Liquiditylocked.sol\":3547:3573  TokenI(LPAddress).transfer */\n      0xffffffffffffffffffffffffffffffffffffffff\n      and\n      0xa9059cbb\n        /* \"contracts/Liquiditylocked.sol\":3574:3584  msg.sender */\n      caller\n        /* \"contracts/Liquiditylocked.sol\":3586:3598  lockedamount */\n      immutable(\"0x73aad4ff595a8813cc7d440d244545017c77098528f010a7caaa7d74c382f6c5\")\n        /* \"contracts/Liquiditylocked.sol\":3547:3599  TokenI(LPAddress).transfer(msg.sender, lockedamount) */\n      mload(0x40)\n      dup4\n      0xffffffff\n      and\n      0xe0\n      shl\n      dup2\n      mstore\n      0x04\n      add\n      tag_50\n      swap3\n      swap2\n      swap1\n      tag_51\n      jump\t// in\n    tag_50:\n      0x20\n      mload(0x40)\n      dup1\n      dup4\n      sub\n      dup2\n      0x00\n      dup8\n      gas\n      call\n      iszero\n      dup1\n      iszero\n      tag_53\n      jumpi\n      returndatasize\n      0x00\n      dup1\n      returndatacopy\n      revert(0x00, returndatasize)\n    tag_53:\n      pop\n      pop\n      pop\n      pop\n      mload(0x40)\n      returndatasize\n      not(0x1f)\n      0x1f\n      dup3\n      add\n      and\n      dup3\n      add\n      dup1\n      0x40\n      mstore\n      pop\n      dup2\n      add\n      swap1\n      tag_54\n      swap2\n      swap1\n      tag_55\n      jump\t// in\n    tag_54:\n      pop\n        /* \"contracts/Liquiditylocked.sol\":3614:3644  claim(msg.sender,lockedamount) */\n      0xaad3ec96b23739e5c653e387e24c59f5fc4a0724c18ad1970feb0d1444981fac\n        /* \"contracts/Liquiditylocked.sol\":3620:3630  msg.sender */\n      caller\n        /* \"contracts/Liquiditylocked.sol\":3631:3643  lockedamount */\n      immutable(\"0x73aad4ff595a8813cc7d440d244545017c77098528f010a7caaa7d74c382f6c5\")\n        /* \"contracts/Liquiditylocked.sol\":3614:3644  claim(msg.sender,lockedamount) */\n      mload(0x40)\n      tag_56\n      swap3\n      swap2\n      swap1\n      tag_51\n      jump\t// in\n    tag_56:\n      mload(0x40)\n      dup1\n      swap2\n      sub\n      swap1\n      log1\n        /* \"contracts/Liquiditylocked.sol\":3661:3665  true */\n      0x01\n        /* \"contracts/Liquiditylocked.sol\":3654:3665  return true */\n      swap1\n      pop\n        /* \"contracts/Liquiditylocked.sol\":3415:3672  function Claim() public onlyOwner returns(bool){        ... */\n      swap1\n      jump\t// out\n        /* \"contracts/Liquiditylocked.sol\":2909:2949  uint256 public immutable deployTimestamp */\n    tag_22:\n      immutable(\"0x20d2ac2a28641786ba03eff53facea687b35e08e680a1b71922c6fc1ed1f2735\")\n      dup2\n      jump\t// out\n        /* \"contracts/Liquiditylocked.sol\":2825:2860  uint256 public immutable unlockDate */\n    tag_26:\n      immutable(\"0x1b6edb65b6c2611a7285cc668f4110f574a7bc3b0d28690b40a16f141eada39a\")\n      dup2\n      jump\t// out\n        /* \"contracts/Liquiditylocked.sol\":1996:2133  function renounceOwnership() public onlyOwner {... */\n    tag_29:\n        /* \"contracts/Liquiditylocked.sol\":1436:1445  isOwner() */\n      tag_58\n        /* \"contracts/Liquiditylocked.sol\":1436:1443  isOwner */\n      tag_34\n        /* \"contracts/Liquiditylocked.sol\":1436:1445  isOwner() */\n      jump\t// in\n    tag_58:\n        /* \"contracts/Liquiditylocked.sol\":1428:1446  require(isOwner()) */\n      tag_59\n      jumpi\n      0x00\n      dup1\n      revert\n    tag_59:\n        /* \"contracts/Liquiditylocked.sol\":2094:2095  0 */\n      0x00\n        /* \"contracts/Liquiditylocked.sol\":2057:2097  OwnershipTransferred(_owner, address(0)) */\n      0xffffffffffffffffffffffffffffffffffffffff\n      and\n        /* \"contracts/Liquiditylocked.sol\":2078:2084  _owner */\n      0x00\n      dup1\n      sload\n      swap1\n      0x0100\n      exp\n      swap1\n      div\n      0xffffffffffffffffffffffffffffffffffffffff\n      and\n        /* \"contracts/Liquiditylocked.sol\":2057:2097  OwnershipTransferred(_owner, address(0)) */\n      0xffffffffffffffffffffffffffffffffffffffff\n      and\n      0x8be0079c531659141344cd1fd0a4f28419497f9722a3daafe3b4186f6b6457e0\n      mload(0x40)\n      mload(0x40)\n      dup1\n      swap2\n      sub\n      swap1\n      log3\n        /* \"contracts/Liquiditylocked.sol\":2124:2125  0 */\n      0x00\n        /* \"contracts/Liquiditylocked.sol\":2107:2113  _owner */\n      dup1\n      0x00\n        /* \"contracts/Liquiditylocked.sol\":2107:2126  _owner = address(0) */\n      0x0100\n      exp\n      dup2\n      sload\n      dup2\n      0xffffffffffffffffffffffffffffffffffffffff\n      mul\n      not\n      and\n      swap1\n      dup4\n      0xffffffffffffffffffffffffffffffffffffffff\n      and\n      mul\n      or\n      swap1\n      sstore\n      pop\n        /* \"contracts/Liquiditylocked.sol\":1996:2133  function renounceOwnership() public onlyOwner {... */\n      jump\t// out\n        /* \"contracts/Liquiditylocked.sol\":1232:1309  function owner() public view returns (address) {... */\n    tag_31:\n        /* \"contracts/Liquiditylocked.sol\":1270:1277  address */\n      0x00\n        /* \"contracts/Liquiditylocked.sol\":1296:1302  _owner */\n      dup1\n      0x00\n      swap1\n      sload\n      swap1\n      0x0100\n      exp\n      swap1\n      div\n      0xffffffffffffffffffffffffffffffffffffffff\n      and\n        /* \"contracts/Liquiditylocked.sol\":1289:1302  return _owner */\n      swap1\n      pop\n        /* \"contracts/Liquiditylocked.sol\":1232:1309  function owner() public view returns (address) {... */\n      swap1\n      jump\t// out\n        /* \"contracts/Liquiditylocked.sol\":1552:1642  function isOwner() public view returns (bool) {... */\n    tag_34:\n        /* \"contracts/Liquiditylocked.sol\":1592:1596  bool */\n      0x00\n        /* \"contracts/Liquiditylocked.sol\":1629:1635  _owner */\n      dup1\n      0x00\n      swap1\n      sload\n      swap1\n      0x0100\n      exp\n      swap1\n      div\n      0xffffffffffffffffffffffffffffffffffffffff\n      and\n        /* \"contracts/Liquiditylocked.sol\":1615:1635  msg.sender == _owner */\n      0xffffffffffffffffffffffffffffffffffffffff\n      and\n        /* \"contracts/Liquiditylocked.sol\":1615:1625  msg.sender */\n      caller\n        /* \"contracts/Liquiditylocked.sol\":1615:1635  msg.sender == _owner */\n      0xffffffffffffffffffffffffffffffffffffffff\n      and\n      eq\n        /* \"contracts/Liquiditylocked.sol\":1608:1635  return msg.sender == _owner */\n      swap1\n      pop\n        /* \"contracts/Liquiditylocked.sol\":1552:1642  function isOwner() public view returns (bool) {... */\n      swap1\n      jump\t// out\n        /* \"contracts/Liquiditylocked.sol\":2866:2903  uint256 public immutable lockedamount */\n    tag_37:\n      immutable(\"0x73aad4ff595a8813cc7d440d244545017c77098528f010a7caaa7d74c382f6c5\")\n      dup2\n      jump\t// out\n        /* \"contracts/Liquiditylocked.sol\":2304:2411  function transferOwnership(address newOwner) public onlyOwner {... */\n    tag_42:\n        /* \"contracts/Liquiditylocked.sol\":1436:1445  isOwner() */\n      tag_64\n        /* \"contracts/Liquiditylocked.sol\":1436:1443  isOwner */\n      tag_34\n        /* \"contracts/Liquiditylocked.sol\":1436:1445  isOwner() */\n      jump\t// in\n    tag_64:\n        /* \"contracts/Liquiditylocked.sol\":1428:1446  require(isOwner()) */\n      tag_65\n      jumpi\n      0x00\n      dup1\n      revert\n    tag_65:\n        /* \"contracts/Liquiditylocked.sol\":2376:2404  _transferOwnership(newOwner) */\n      tag_67\n        /* \"contracts/Liquiditylocked.sol\":2395:2403  newOwner */\n      dup2\n        /* \"contracts/Liquiditylocked.sol\":2376:2394  _transferOwnership */\n      tag_68\n        /* \"contracts/Liquiditylocked.sol\":2376:2404  _transferOwnership(newOwner) */\n      jump\t// in\n    tag_67:\n        /* \"contracts/Liquiditylocked.sol\":2304:2411  function transferOwnership(address newOwner) public onlyOwner {... */\n      pop\n      jump\t// out\n        /* \"contracts/Liquiditylocked.sol\":2555:2738  function _transferOwnership(address newOwner) internal {... */\n    tag_68:\n        /* \"contracts/Liquiditylocked.sol\":2648:2649  0 */\n      0x00\n        /* \"contracts/Liquiditylocked.sol\":2628:2650  newOwner != address(0) */\n      0xffffffffffffffffffffffffffffffffffffffff\n      and\n        /* \"contracts/Liquiditylocked.sol\":2628:2636  newOwner */\n      dup2\n        /* \"contracts/Liquiditylocked.sol\":2628:2650  newOwner != address(0) */\n      0xffffffffffffffffffffffffffffffffffffffff\n      and\n      sub\n        /* \"contracts/Liquiditylocked.sol\":2620:2651  require(newOwner != address(0)) */\n      tag_70\n      jumpi\n      0x00\n      dup1\n      revert\n    tag_70:\n        /* \"contracts/Liquiditylocked.sol\":2695:2703  newOwner */\n      dup1\n        /* \"contracts/Liquiditylocked.sol\":2666:2704  OwnershipTransferred(_owner, newOwner) */\n      0xffffffffffffffffffffffffffffffffffffffff\n      and\n        /* \"contracts/Liquiditylocked.sol\":2687:2693  _owner */\n      0x00\n      dup1\n      sload\n      swap1\n      0x0100\n      exp\n      swap1\n      div\n      0xffffffffffffffffffffffffffffffffffffffff\n      and\n        /* \"contracts/Liquiditylocked.sol\":2666:2704  OwnershipTransferred(_owner, newOwner) */\n      0xffffffffffffffffffffffffffffffffffffffff\n      and\n      0x8be0079c531659141344cd1fd0a4f28419497f9722a3daafe3b4186f6b6457e0\n      mload(0x40)\n      mload(0x40)\n      dup1\n      swap2\n      sub\n      swap1\n      log3\n        /* \"contracts/Liquiditylocked.sol\":2723:2731  newOwner */\n      dup1\n        /* \"contracts/Liquiditylocked.sol\":2714:2720  _owner */\n      0x00\n      dup1\n        /* \"contracts/Liquiditylocked.sol\":2714:2731  _owner = newOwner */\n      0x0100\n      exp\n      dup2\n      sload\n      dup2\n      0xffffffffffffffffffffffffffffffffffffffff\n      mul\n      not\n      and\n      swap1\n      dup4\n      0xffffffffffffffffffffffffffffffffffffffff\n      and\n      mul\n      or\n      swap1\n      sstore\n      pop\n        /* \"contracts/Liquiditylocked.sol\":2555:2738  function _transferOwnership(address newOwner) internal {... */\n      pop\n      jump\t// out\n        /* \"#utility.yul\":7:133   */\n    tag_71:\n        /* \"#utility.yul\":44:51   */\n      0x00\n        /* \"#utility.yul\":84:126   */\n      0xffffffffffffffffffffffffffffffffffffffff\n        /* \"#utility.yul\":77:82   */\n      dup3\n        /* \"#utility.yul\":73:127   */\n      and\n        /* \"#utility.yul\":62:127   */\n      swap1\n      pop\n        /* \"#utility.yul\":7:133   */\n      swap2\n      swap1\n      pop\n      jump\t// out\n        /* \"#utility.yul\":139:235   */\n    tag_72:\n        /* \"#utility.yul\":176:183   */\n      0x00\n        /* \"#utility.yul\":205:229   */\n      tag_91\n        /* \"#utility.yul\":223:228   */\n      dup3\n        /* \"#utility.yul\":205:229   */\n      tag_71\n      jump\t// in\n    tag_91:\n        /* \"#utility.yul\":194:229   */\n      swap1\n      pop\n        /* \"#utility.yul\":139:235   */\n      swap2\n      swap1\n      pop\n      jump\t// out\n        /* \"#utility.yul\":241:359   */\n    tag_73:\n        /* \"#utility.yul\":328:352   */\n      tag_93\n        /* \"#utility.yul\":346:351   */\n      dup2\n        /* \"#utility.yul\":328:352   */\n      tag_72\n      jump\t// in\n    tag_93:\n        /* \"#utility.yul\":323:326   */\n      dup3\n        /* \"#utility.yul\":316:353   */\n      mstore\n        /* \"#utility.yul\":241:359   */\n      pop\n      pop\n      jump\t// out\n        /* \"#utility.yul\":365:587   */\n    tag_16:\n        /* \"#utility.yul\":458:462   */\n      0x00\n        /* \"#utility.yul\":496:498   */\n      0x20\n        /* \"#utility.yul\":485:494   */\n      dup3\n        /* \"#utility.yul\":481:499   */\n      add\n        /* \"#utility.yul\":473:499   */\n      swap1\n      pop\n        /* \"#utility.yul\":509:580   */\n      tag_95\n        /* \"#utility.yul\":577:578   */\n      0x00\n        /* \"#utility.yul\":566:575   */\n      dup4\n        /* \"#utility.yul\":562:579   */\n      add\n        /* \"#utility.yul\":553:559   */\n      dup5\n        /* \"#utility.yul\":509:580   */\n      tag_73\n      jump\t// in\n    tag_95:\n        /* \"#utility.yul\":365:587   */\n      swap3\n      swap2\n      pop\n      pop\n      jump\t// out\n        /* \"#utility.yul\":593:683   */\n    tag_74:\n        /* \"#utility.yul\":627:634   */\n      0x00\n        /* \"#utility.yul\":670:675   */\n      dup2\n        /* \"#utility.yul\":663:676   */\n      iszero\n        /* \"#utility.yul\":656:677   */\n      iszero\n        /* \"#utility.yul\":645:677   */\n      swap1\n      pop\n        /* \"#utility.yul\":593:683   */\n      swap2\n      swap1\n      pop\n      jump\t// out\n        /* \"#utility.yul\":689:798   */\n    tag_75:\n        /* \"#utility.yul\":770:791   */\n      tag_98\n        /* \"#utility.yul\":785:790   */\n      dup2\n        /* \"#utility.yul\":770:791   */\n      tag_74\n      jump\t// in\n    tag_98:\n        /* \"#utility.yul\":765:768   */\n      dup3\n        /* \"#utility.yul\":758:792   */\n      mstore\n        /* \"#utility.yul\":689:798   */\n      pop\n      pop\n      jump\t// out\n        /* \"#utility.yul\":804:1014   */\n    tag_20:\n        /* \"#utility.yul\":891:895   */\n      0x00\n        /* \"#utility.yul\":929:931   */\n      0x20\n        /* \"#utility.yul\":918:927   */\n      dup3\n        /* \"#utility.yul\":914:932   */\n      add\n        /* \"#utility.yul\":906:932   */\n      swap1\n      pop\n        /* \"#utility.yul\":942:1007   */\n      tag_100\n        /* \"#utility.yul\":1004:1005   */\n      0x00\n        /* \"#utility.yul\":993:1002   */\n      dup4\n        /* \"#utility.yul\":989:1006   */\n      add\n        /* \"#utility.yul\":980:986   */\n      dup5\n        /* \"#utility.yul\":942:1007   */\n      tag_75\n      jump\t// in\n    tag_100:\n        /* \"#utility.yul\":804:1014   */\n      swap3\n      swap2\n      pop\n      pop\n      jump\t// out\n        /* \"#utility.yul\":1020:1097   */\n    tag_76:\n        /* \"#utility.yul\":1057:1064   */\n      0x00\n        /* \"#utility.yul\":1086:1091   */\n      dup2\n        /* \"#utility.yul\":1075:1091   */\n      swap1\n      pop\n        /* \"#utility.yul\":1020:1097   */\n      swap2\n      swap1\n      pop\n      jump\t// out\n        /* \"#utility.yul\":1103:1221   */\n    tag_77:\n        /* \"#utility.yul\":1190:1214   */\n      tag_103\n        /* \"#utility.yul\":1208:1213   */\n      dup2\n        /* \"#utility.yul\":1190:1214   */\n      tag_76\n      jump\t// in\n    tag_103:\n        /* \"#utility.yul\":1185:1188   */\n      dup3\n        /* \"#utility.yul\":1178:1215   */\n      mstore\n        /* \"#utility.yul\":1103:1221   */\n      pop\n      pop\n      jump\t// out\n        /* \"#utility.yul\":1227:1449   */\n    tag_24:\n        /* \"#utility.yul\":1320:1324   */\n      0x00\n        /* \"#utility.yul\":1358:1360   */\n      0x20\n        /* \"#utility.yul\":1347:1356   */\n      dup3\n        /* \"#utility.yul\":1343:1361   */\n      add\n        /* \"#utility.yul\":1335:1361   */\n      swap1\n      pop\n        /* \"#utility.yul\":1371:1442   */\n      tag_105\n        /* \"#utility.yul\":1439:1440   */\n      0x00\n        /* \"#utility.yul\":1428:1437   */\n      dup4\n        /* \"#utility.yul\":1424:1441   */\n      add\n        /* \"#utility.yul\":1415:1421   */\n      dup5\n        /* \"#utility.yul\":1371:1442   */\n      tag_77\n      jump\t// in\n    tag_105:\n        /* \"#utility.yul\":1227:1449   */\n      swap3\n      swap2\n      pop\n      pop\n      jump\t// out\n        /* \"#utility.yul\":1536:1653   */\n    tag_79:\n        /* \"#utility.yul\":1645:1646   */\n      0x00\n        /* \"#utility.yul\":1642:1643   */\n      dup1\n        /* \"#utility.yul\":1635:1647   */\n      revert\n        /* \"#utility.yul\":1782:1904   */\n    tag_81:\n        /* \"#utility.yul\":1855:1879   */\n      tag_110\n        /* \"#utility.yul\":1873:1878   */\n      dup2\n        /* \"#utility.yul\":1855:1879   */\n      tag_72\n      jump\t// in\n    tag_110:\n        /* \"#utility.yul\":1848:1853   */\n      dup2\n        /* \"#utility.yul\":1845:1880   */\n      eq\n        /* \"#utility.yul\":1835:1898   */\n      tag_111\n      jumpi\n        /* \"#utility.yul\":1894:1895   */\n      0x00\n        /* \"#utility.yul\":1891:1892   */\n      dup1\n        /* \"#utility.yul\":1884:1896   */\n      revert\n        /* \"#utility.yul\":1835:1898   */\n    tag_111:\n        /* \"#utility.yul\":1782:1904   */\n      pop\n      jump\t// out\n        /* \"#utility.yul\":1910:2049   */\n    tag_82:\n        /* \"#utility.yul\":1956:1961   */\n      0x00\n        /* \"#utility.yul\":1994:2000   */\n      dup2\n        /* \"#utility.yul\":1981:2001   */\n      calldataload\n        /* \"#utility.yul\":1972:2001   */\n      swap1\n      pop\n        /* \"#utility.yul\":2010:2043   */\n      tag_113\n        /* \"#utility.yul\":2037:2042   */\n      dup2\n        /* \"#utility.yul\":2010:2043   */\n      tag_81\n      jump\t// in\n    tag_113:\n        /* \"#utility.yul\":1910:2049   */\n      swap3\n      swap2\n      pop\n      pop\n      jump\t// out\n        /* \"#utility.yul\":2055:2384   */\n    tag_41:\n        /* \"#utility.yul\":2114:2120   */\n      0x00\n        /* \"#utility.yul\":2163:2165   */\n      0x20\n        /* \"#utility.yul\":2151:2160   */\n      dup3\n        /* \"#utility.yul\":2142:2149   */\n      dup5\n        /* \"#utility.yul\":2138:2161   */\n      sub\n        /* \"#utility.yul\":2134:2166   */\n      slt\n        /* \"#utility.yul\":2131:2250   */\n      iszero\n      tag_115\n      jumpi\n        /* \"#utility.yul\":2169:2248   */\n      tag_116\n      tag_79\n      jump\t// in\n    tag_116:\n        /* \"#utility.yul\":2131:2250   */\n    tag_115:\n        /* \"#utility.yul\":2289:2290   */\n      0x00\n        /* \"#utility.yul\":2314:2367   */\n      tag_117\n        /* \"#utility.yul\":2359:2366   */\n      dup5\n        /* \"#utility.yul\":2350:2356   */\n      dup3\n        /* \"#utility.yul\":2339:2348   */\n      dup6\n        /* \"#utility.yul\":2335:2357   */\n      add\n        /* \"#utility.yul\":2314:2367   */\n      tag_82\n      jump\t// in\n    tag_117:\n        /* \"#utility.yul\":2304:2367   */\n      swap2\n      pop\n        /* \"#utility.yul\":2260:2377   */\n      pop\n        /* \"#utility.yul\":2055:2384   */\n      swap3\n      swap2\n      pop\n      pop\n      jump\t// out\n        /* \"#utility.yul\":2390:2559   */\n    tag_83:\n        /* \"#utility.yul\":2474:2485   */\n      0x00\n        /* \"#utility.yul\":2508:2514   */\n      dup3\n        /* \"#utility.yul\":2503:2506   */\n      dup3\n        /* \"#utility.yul\":2496:2515   */\n      mstore\n        /* \"#utility.yul\":2548:2552   */\n      0x20\n        /* \"#utility.yul\":2543:2546   */\n      dup3\n        /* \"#utility.yul\":2539:2553   */\n      add\n        /* \"#utility.yul\":2524:2553   */\n      swap1\n      pop\n        /* \"#utility.yul\":2390:2559   */\n      swap3\n      swap2\n      pop\n      pop\n      jump\t// out\n        /* \"#utility.yul\":2565:2732   */\n    tag_84:\n        /* \"#utility.yul\":2705:2724   */\n      0x4c6971756964697479206c6f636b656421000000000000000000000000000000\n        /* \"#utility.yul\":2701:2702   */\n      0x00\n        /* \"#utility.yul\":2693:2699   */\n      dup3\n        /* \"#utility.yul\":2689:2703   */\n      add\n        /* \"#utility.yul\":2682:2725   */\n      mstore\n        /* \"#utility.yul\":2565:2732   */\n      pop\n      jump\t// out\n        /* \"#utility.yul\":2738:3104   */\n    tag_85:\n        /* \"#utility.yul\":2880:2883   */\n      0x00\n        /* \"#utility.yul\":2901:2968   */\n      tag_121\n        /* \"#utility.yul\":2965:2967   */\n      0x11\n        /* \"#utility.yul\":2960:2963   */\n      dup4\n        /* \"#utility.yul\":2901:2968   */\n      tag_83\n      jump\t// in\n    tag_121:\n        /* \"#utility.yul\":2894:2968   */\n      swap2\n      pop\n        /* \"#utility.yul\":2977:3070   */\n      tag_122\n        /* \"#utility.yul\":3066:3069   */\n      dup3\n        /* \"#utility.yul\":2977:3070   */\n      tag_84\n      jump\t// in\n    tag_122:\n        /* \"#utility.yul\":3095:3097   */\n      0x20\n        /* \"#utility.yul\":3090:3093   */\n      dup3\n        /* \"#utility.yul\":3086:3098   */\n      add\n        /* \"#utility.yul\":3079:3098   */\n      swap1\n      pop\n        /* \"#utility.yul\":2738:3104   */\n      swap2\n      swap1\n      pop\n      jump\t// out\n        /* \"#utility.yul\":3110:3529   */\n    tag_49:\n        /* \"#utility.yul\":3276:3280   */\n      0x00\n        /* \"#utility.yul\":3314:3316   */\n      0x20\n        /* \"#utility.yul\":3303:3312   */\n      dup3\n        /* \"#utility.yul\":3299:3317   */\n      add\n        /* \"#utility.yul\":3291:3317   */\n      swap1\n      pop\n        /* \"#utility.yul\":3363:3372   */\n      dup2\n        /* \"#utility.yul\":3357:3361   */\n      dup2\n        /* \"#utility.yul\":3353:3373   */\n      sub\n        /* \"#utility.yul\":3349:3350   */\n      0x00\n        /* \"#utility.yul\":3338:3347   */\n      dup4\n        /* \"#utility.yul\":3334:3351   */\n      add\n        /* \"#utility.yul\":3327:3374   */\n      mstore\n        /* \"#utility.yul\":3391:3522   */\n      tag_124\n        /* \"#utility.yul\":3517:3521   */\n      dup2\n        /* \"#utility.yul\":3391:3522   */\n      tag_85\n      jump\t// in\n    tag_124:\n        /* \"#utility.yul\":3383:3522   */\n      swap1\n      pop\n        /* \"#utility.yul\":3110:3529   */\n      swap2\n      swap1\n      pop\n      jump\t// out\n        /* \"#utility.yul\":3535:3867   */\n    tag_51:\n        /* \"#utility.yul\":3656:3660   */\n      0x00\n        /* \"#utility.yul\":3694:3696   */\n      0x40\n        /* \"#utility.yul\":3683:3692   */\n      dup3\n        /* \"#utility.yul\":3679:3697   */\n      add\n        /* \"#utility.yul\":3671:3697   */\n      swap1\n      pop\n        /* \"#utility.yul\":3707:3778   */\n      tag_126\n        /* \"#utility.yul\":3775:3776   */\n      0x00\n        /* \"#utility.yul\":3764:3773   */\n      dup4\n        /* \"#utility.yul\":3760:3777   */\n      add\n        /* \"#utility.yul\":3751:3757   */\n      dup6\n        /* \"#utility.yul\":3707:3778   */\n      tag_73\n      jump\t// in\n    tag_126:\n        /* \"#utility.yul\":3788:3860   */\n      tag_127\n        /* \"#utility.yul\":3856:3858   */\n      0x20\n        /* \"#utility.yul\":3845:3854   */\n      dup4\n        /* \"#utility.yul\":3841:3859   */\n      add\n        /* \"#utility.yul\":3832:3838   */\n      dup5\n        /* \"#utility.yul\":3788:3860   */\n      tag_77\n      jump\t// in\n    tag_127:\n        /* \"#utility.yul\":3535:3867   */\n      swap4\n      swap3\n      pop\n      pop\n      pop\n      jump\t// out\n        /* \"#utility.yul\":3873:3989   */\n    tag_86:\n        /* \"#utility.yul\":3943:3964   */\n      tag_129\n        /* \"#utility.yul\":3958:3963   */\n      dup2\n        /* \"#utility.yul\":3943:3964   */\n      tag_74\n      jump\t// in\n    tag_129:\n        /* \"#utility.yul\":3936:3941   */\n      dup2\n        /* \"#utility.yul\":3933:3965   */\n      eq\n        /* \"#utility.yul\":3923:3983   */\n      tag_130\n      jumpi\n        /* \"#utility.yul\":3979:3980   */\n      0x00\n        /* \"#utility.yul\":3976:3977   */\n      dup1\n        /* \"#utility.yul\":3969:3981   */\n      revert\n        /* \"#utility.yul\":3923:3983   */\n    tag_130:\n        /* \"#utility.yul\":3873:3989   */\n      pop\n      jump\t// out\n        /* \"#utility.yul\":3995:4132   */\n    tag_87:\n        /* \"#utility.yul\":4049:4054   */\n      0x00\n        /* \"#utility.yul\":4080:4086   */\n      dup2\n        /* \"#utility.yul\":4074:4087   */\n      mload\n        /* \"#utility.yul\":4065:4087   */\n      swap1\n      pop\n        /* \"#utility.yul\":4096:4126   */\n      tag_132\n        /* \"#utility.yul\":4120:4125   */\n      dup2\n        /* \"#utility.yul\":4096:4126   */\n      tag_86\n      jump\t// in\n    tag_132:\n        /* \"#utility.yul\":3995:4132   */\n      swap3\n      swap2\n      pop\n      pop\n      jump\t// out\n        /* \"#utility.yul\":4138:4483   */\n    tag_55:\n        /* \"#utility.yul\":4205:4211   */\n      0x00\n        /* \"#utility.yul\":4254:4256   */\n      0x20\n        /* \"#utility.yul\":4242:4251   */\n      dup3\n        /* \"#utility.yul\":4233:4240   */\n      dup5\n        /* \"#utility.yul\":4229:4252   */\n      sub\n        /* \"#utility.yul\":4225:4257   */\n      slt\n        /* \"#utility.yul\":4222:4341   */\n      iszero\n      tag_134\n      jumpi\n        /* \"#utility.yul\":4260:4339   */\n      tag_135\n      tag_79\n      jump\t// in\n    tag_135:\n        /* \"#utility.yul\":4222:4341   */\n    tag_134:\n        /* \"#utility.yul\":4380:4381   */\n      0x00\n        /* \"#utility.yul\":4405:4466   */\n      tag_136\n        /* \"#utility.yul\":4458:4465   */\n      dup5\n        /* \"#utility.yul\":4449:4455   */\n      dup3\n        /* \"#utility.yul\":4438:4447   */\n      dup6\n        /* \"#utility.yul\":4434:4456   */\n      add\n        /* \"#utility.yul\":4405:4466   */\n      tag_87\n      jump\t// in\n    tag_136:\n        /* \"#utility.yul\":4395:4466   */\n      swap2\n      pop\n        /* \"#utility.yul\":4351:4476   */\n      pop\n        /* \"#utility.yul\":4138:4483   */\n      swap3\n      swap2\n      pop\n      pop\n      jump\t// out\n\n    auxdata: 0xa2646970667358221220197cfe2e9b5234df3a0438260a6a49f248175a4b7ae6febeed900c729edd200664736f6c63430008130033\n}\n",
				"bytecode": {
					"linkReferences": {},
					"object": "6101006040523480156200001257600080fd5b5060405162000d2038038062000d208339818101604052810190620000389190620002c6565b336000806101000a81548173ffffffffffffffffffffffffffffffffffffffff021916908373ffffffffffffffffffffffffffffffffffffffff16021790555060008054906101000a900473ffffffffffffffffffffffffffffffffffffffff1673ffffffffffffffffffffffffffffffffffffffff16600073ffffffffffffffffffffffffffffffffffffffff167f8be0079c531659141344cd1fd0a4f28419497f9722a3daafe3b4186f6b6457e060405160405180910390a34260e081815250508173ffffffffffffffffffffffffffffffffffffffff1660808173ffffffffffffffffffffffffffffffffffffffff16815250508060805173ffffffffffffffffffffffffffffffffffffffff166370a08231336040518263ffffffff1660e01b81526004016200016d91906200031e565b6020604051808303816000875af11580156200018d573d6000803e3d6000fd5b505050506040513d601f19601f82011682018060405250810190620001b391906200033b565b11620001f6576040517f08c379a0000000000000000000000000000000000000000000000000000000008152600401620001ed90620003ce565b60405180910390fd5b631cbc720060e0516200020a91906200041f565b60a081815250508060c0818152505050506200045a565b600080fd5b600073ffffffffffffffffffffffffffffffffffffffff82169050919050565b6000620002538262000226565b9050919050565b620002658162000246565b81146200027157600080fd5b50565b60008151905062000285816200025a565b92915050565b6000819050919050565b620002a0816200028b565b8114620002ac57600080fd5b50565b600081519050620002c08162000295565b92915050565b60008060408385031215620002e057620002df62000221565b5b6000620002f08582860162000274565b92505060206200030385828601620002af565b9150509250929050565b620003188162000246565b82525050565b60006020820190506200033560008301846200030d565b92915050565b60006020828403121562000354576200035362000221565b5b60006200036484828501620002af565b91505092915050565b600082825260208201905092915050565b7f496e73756666696369656e7420746f6b656e7300000000000000000000000000600082015250565b6000620003b66013836200036d565b9150620003c3826200037e565b602082019050919050565b60006020820190508181036000830152620003e981620003a7565b9050919050565b7f4e487b7100000000000000000000000000000000000000000000000000000000600052601160045260246000fd5b60006200042c826200028b565b915062000439836200028b565b9250828201905080821115620004545762000453620003f0565b5b92915050565b60805160a05160c05160e051610870620004b0600039600061034b0152600081816102690152818161030d01526104e20152600081816101ca015261036f015260008181610192015261022c01526108706000f3fe608060405234801561001057600080fd5b50600436106100935760003560e01c8063715018a611610066578063715018a6146101105780638da5cb5b1461011a5780638f32d59b14610138578063a70ebb2014610156578063f2fde38b1461017457610093565b8063120f2eda146100985780633158952e146100b6578063607ad0d7146100d457806369ac5721146100f2575b600080fd5b6100a0610190565b6040516100ad9190610658565b60405180910390f35b6100be6101b4565b6040516100cb919061068e565b60405180910390f35b6100dc610349565b6040516100e991906106c2565b60405180910390f35b6100fa61036d565b60405161010791906106c2565b60405180910390f35b610118610391565b005b610122610460565b60405161012f9190610658565b60405180910390f35b610140610489565b60405161014d919061068e565b60405180910390f35b61015e6104e0565b60405161016b91906106c2565b60405180910390f35b61018e6004803603810190610189919061070e565b610504565b005b7f000000000000000000000000000000000000000000000000000000000000000081565b60006101be610489565b6101c757600080fd5b427f0000000000000000000000000000000000000000000000000000000000000000111561022a576040517f08c379a000000000000000000000000000000000000000000000000000000000815260040161022190610798565b60405180910390fd5b7f000000000000000000000000000000000000000000000000000000000000000073ffffffffffffffffffffffffffffffffffffffff1663a9059cbb337f00000000000000000000000000000000000000000000000000000000000000006040518363ffffffff1660e01b81526004016102a59291906107b8565b6020604051808303816000875af11580156102c4573d6000803e3d6000fd5b505050506040513d601f19601f820116820180604052508101906102e8919061080d565b507faad3ec96b23739e5c653e387e24c59f5fc4a0724c18ad1970feb0d1444981fac337f000000000000000000000000000000000000000000000000000000000000000060405161033a9291906107b8565b60405180910390a16001905090565b7f000000000000000000000000000000000000000000000000000000000000000081565b7f000000000000000000000000000000000000000000000000000000000000000081565b610399610489565b6103a257600080fd5b600073ffffffffffffffffffffffffffffffffffffffff1660008054906101000a900473ffffffffffffffffffffffffffffffffffffffff1673ffffffffffffffffffffffffffffffffffffffff167f8be0079c531659141344cd1fd0a4f28419497f9722a3daafe3b4186f6b6457e060405160405180910390a360008060006101000a81548173ffffffffffffffffffffffffffffffffffffffff021916908373ffffffffffffffffffffffffffffffffffffffff160217905550565b60008060009054906101000a900473ffffffffffffffffffffffffffffffffffffffff16905090565b60008060009054906101000a900473ffffffffffffffffffffffffffffffffffffffff1673ffffffffffffffffffffffffffffffffffffffff163373ffffffffffffffffffffffffffffffffffffffff1614905090565b7f000000000000000000000000000000000000000000000000000000000000000081565b61050c610489565b61051557600080fd5b61051e81610521565b50565b600073ffffffffffffffffffffffffffffffffffffffff168173ffffffffffffffffffffffffffffffffffffffff160361055a57600080fd5b8073ffffffffffffffffffffffffffffffffffffffff1660008054906101000a900473ffffffffffffffffffffffffffffffffffffffff1673ffffffffffffffffffffffffffffffffffffffff167f8be0079c531659141344cd1fd0a4f28419497f9722a3daafe3b4186f6b6457e060405160405180910390a3806000806101000a81548173ffffffffffffffffffffffffffffffffffffffff021916908373ffffffffffffffffffffffffffffffffffffffff16021790555050565b600073ffffffffffffffffffffffffffffffffffffffff82169050919050565b600061064282610617565b9050919050565b61065281610637565b82525050565b600060208201905061066d6000830184610649565b92915050565b60008115159050919050565b61068881610673565b82525050565b60006020820190506106a3600083018461067f565b92915050565b6000819050919050565b6106bc816106a9565b82525050565b60006020820190506106d760008301846106b3565b92915050565b600080fd5b6106eb81610637565b81146106f657600080fd5b50565b600081359050610708816106e2565b92915050565b600060208284031215610724576107236106dd565b5b6000610732848285016106f9565b91505092915050565b600082825260208201905092915050565b7f4c6971756964697479206c6f636b656421000000000000000000000000000000600082015250565b600061078260118361073b565b915061078d8261074c565b602082019050919050565b600060208201905081810360008301526107b181610775565b9050919050565b60006040820190506107cd6000830185610649565b6107da60208301846106b3565b9392505050565b6107ea81610673565b81146107f557600080fd5b50565b600081519050610807816107e1565b92915050565b600060208284031215610823576108226106dd565b5b6000610831848285016107f8565b9150509291505056fea2646970667358221220197cfe2e9b5234df3a0438260a6a49f248175a4b7ae6febeed900c729edd200664736f6c63430008130033",
					"opcodes": "PUSH2 0x100 PUSH1 0x40 MSTORE CALLVALUE DUP1 ISZERO PUSH3 0x12 JUMPI PUSH1 0x0 DUP1 REVERT JUMPDEST POP PUSH1 0x40 MLOAD PUSH3 0xD20 CODESIZE SUB DUP1 PUSH3 0xD20 DUP4 CODECOPY DUP2 DUP2 ADD PUSH1 0x40 MSTORE DUP2 ADD SWAP1 PUSH3 0x38 SWAP2 SWAP1 PUSH3 0x2C6 JUMP JUMPDEST CALLER PUSH1 0x0 DUP1 PUSH2 0x100 EXP DUP2 SLOAD DUP2 PUSH20 0xFFFFFFFFFFFFFFFFFFFFFFFFFFFFFFFFFFFFFFFF MUL NOT AND SWAP1 DUP4 PUSH20 0xFFFFFFFFFFFFFFFFFFFFFFFFFFFFFFFFFFFFFFFF AND MUL OR SWAP1 SSTORE POP PUSH1 0x0 DUP1 SLOAD SWAP1 PUSH2 0x100 EXP SWAP1 DIV PUSH20 0xFFFFFFFFFFFFFFFFFFFFFFFFFFFFFFFFFFFFFFFF AND PUSH20 0xFFFFFFFFFFFFFFFFFFFFFFFFFFFFFFFFFFFFFFFF AND PUSH1 0x0 PUSH20 0xFFFFFFFFFFFFFFFFFFFFFFFFFFFFFFFFFFFFFFFF AND PUSH32 0x8BE0079C531659141344CD1FD0A4F28419497F9722A3DAAFE3B4186F6B6457E0 PUSH1 0x40 MLOAD PUSH1 0x40 MLOAD DUP1 SWAP2 SUB SWAP1 LOG3 TIMESTAMP PUSH1 0xE0 DUP2 DUP2 MSTORE POP POP DUP2 PUSH20 0xFFFFFFFFFFFFFFFFFFFFFFFFFFFFFFFFFFFFFFFF AND PUSH1 0x80 DUP2 PUSH20 0xFFFFFFFFFFFFFFFFFFFFFFFFFFFFFFFFFFFFFFFF AND DUP2 MSTORE POP POP DUP1 PUSH1 0x80 MLOAD PUSH20 0xFFFFFFFFFFFFFFFFFFFFFFFFFFFFFFFFFFFFFFFF AND PUSH4 0x70A08231 CALLER PUSH1 0x40 MLOAD DUP3 PUSH4 0xFFFFFFFF AND PUSH1 0xE0 SHL DUP2 MSTORE PUSH1 0x4 ADD PUSH3 0x16D SWAP2 SWAP1 PUSH3 0x31E JUMP JUMPDEST PUSH1 0x20 PUSH1 0x40 MLOAD DUP1 DUP4 SUB DUP2 PUSH1 0x0 DUP8 GAS CALL ISZERO DUP1 ISZERO PUSH3 0x18D JUMPI RETURNDATASIZE PUSH1 0x0 DUP1 RETURNDATACOPY RETURNDATASIZE PUSH1 0x0 REVERT JUMPDEST POP POP POP POP PUSH1 0x40 MLOAD RETURNDATASIZE PUSH1 0x1F NOT PUSH1 0x1F DUP3 ADD AND DUP3 ADD DUP1 PUSH1 0x40 MSTORE POP DUP2 ADD SWAP1 PUSH3 0x1B3 SWAP2 SWAP1 PUSH3 0x33B JUMP JUMPDEST GT PUSH3 0x1F6 JUMPI PUSH1 0x40 MLOAD PUSH32 0x8C379A000000000000000000000000000000000000000000000000000000000 DUP2 MSTORE PUSH1 0x4 ADD PUSH3 0x1ED SWAP1 PUSH3 0x3CE JUMP JUMPDEST PUSH1 0x40 MLOAD DUP1 SWAP2 SUB SWAP1 REVERT JUMPDEST PUSH4 0x1CBC7200 PUSH1 0xE0 MLOAD PUSH3 0x20A SWAP2 SWAP1 PUSH3 0x41F JUMP JUMPDEST PUSH1 0xA0 DUP2 DUP2 MSTORE POP POP DUP1 PUSH1 0xC0 DUP2 DUP2 MSTORE POP POP POP POP PUSH3 0x45A JUMP JUMPDEST PUSH1 0x0 DUP1 REVERT JUMPDEST PUSH1 0x0 PUSH20 0xFFFFFFFFFFFFFFFFFFFFFFFFFFFFFFFFFFFFFFFF DUP3 AND SWAP1 POP SWAP2 SWAP1 POP JUMP JUMPDEST PUSH1 0x0 PUSH3 0x253 DUP3 PUSH3 0x226 JUMP JUMPDEST SWAP1 POP SWAP2 SWAP1 POP JUMP JUMPDEST PUSH3 0x265 DUP2 PUSH3 0x246 JUMP JUMPDEST DUP2 EQ PUSH3 0x271 JUMPI PUSH1 0x0 DUP1 REVERT JUMPDEST POP JUMP JUMPDEST PUSH1 0x0 DUP2 MLOAD SWAP1 POP PUSH3 0x285 DUP2 PUSH3 0x25A JUMP JUMPDEST SWAP3 SWAP2 POP POP JUMP JUMPDEST PUSH1 0x0 DUP2 SWAP1 POP SWAP2 SWAP1 POP JUMP JUMPDEST PUSH3 0x2A0 DUP2 PUSH3 0x28B JUMP JUMPDEST DUP2 EQ PUSH3 0x2AC JUMPI PUSH1 0x0 DUP1 REVERT JUMPDEST POP JUMP JUMPDEST PUSH1 0x0 DUP2 MLOAD SWAP1 POP PUSH3 0x2C0 DUP2 PUSH3 0x295 JUMP JUMPDEST SWAP3 SWAP2 POP POP JUMP JUMPDEST PUSH1 0x0 DUP1 PUSH1 0x40 DUP4 DUP6 SUB SLT ISZERO PUSH3 0x2E0 JUMPI PUSH3 0x2DF PUSH3 0x221 JUMP JUMPDEST JUMPDEST PUSH1 0x0 PUSH3 0x2F0 DUP6 DUP3 DUP7 ADD PUSH3 0x274 JUMP JUMPDEST SWAP3 POP POP PUSH1 0x20 PUSH3 0x303 DUP6 DUP3 DUP7 ADD PUSH3 0x2AF JUMP JUMPDEST SWAP2 POP POP SWAP3 POP SWAP3 SWAP1 POP JUMP JUMPDEST PUSH3 0x318 DUP2 PUSH3 0x246 JUMP JUMPDEST DUP3 MSTORE POP POP JUMP JUMPDEST PUSH1 0x0 PUSH1 0x20 DUP3 ADD SWAP1 POP PUSH3 0x335 PUSH1 0x0 DUP4 ADD DUP5 PUSH3 0x30D JUMP JUMPDEST SWAP3 SWAP2 POP POP JUMP JUMPDEST PUSH1 0x0 PUSH1 0x20 DUP3 DUP5 SUB SLT ISZERO PUSH3 0x354 JUMPI PUSH3 0x353 PUSH3 0x221 JUMP JUMPDEST JUMPDEST PUSH1 0x0 PUSH3 0x364 DUP5 DUP3 DUP6 ADD PUSH3 0x2AF JUMP JUMPDEST SWAP2 POP POP SWAP3 SWAP2 POP POP JUMP JUMPDEST PUSH1 0x0 DUP3 DUP3 MSTORE PUSH1 0x20 DUP3 ADD SWAP1 POP SWAP3 SWAP2 POP POP JUMP JUMPDEST PUSH32 0x496E73756666696369656E7420746F6B656E7300000000000000000000000000 PUSH1 0x0 DUP3 ADD MSTORE POP JUMP JUMPDEST PUSH1 0x0 PUSH3 0x3B6 PUSH1 0x13 DUP4 PUSH3 0x36D JUMP JUMPDEST SWAP2 POP PUSH3 0x3C3 DUP3 PUSH3 0x37E JUMP JUMPDEST PUSH1 0x20 DUP3 ADD SWAP1 POP SWAP2 SWAP1 POP JUMP JUMPDEST PUSH1 0x0 PUSH1 0x20 DUP3 ADD SWAP1 POP DUP2 DUP2 SUB PUSH1 0x0 DUP4 ADD MSTORE PUSH3 0x3E9 DUP2 PUSH3 0x3A7 JUMP JUMPDEST SWAP1 POP SWAP2 SWAP1 POP JUMP JUMPDEST PUSH32 0x4E487B7100000000000000000000000000000000000000000000000000000000 PUSH1 0x0 MSTORE PUSH1 0x11 PUSH1 0x4 MSTORE PUSH1 0x24 PUSH1 0x0 REVERT JUMPDEST PUSH1 0x0 PUSH3 0x42C DUP3 PUSH3 0x28B JUMP JUMPDEST SWAP2 POP PUSH3 0x439 DUP4 PUSH3 0x28B JUMP JUMPDEST SWAP3 POP DUP3 DUP3 ADD SWAP1 POP DUP1 DUP3 GT ISZERO PUSH3 0x454 JUMPI PUSH3 0x453 PUSH3 0x3F0 JUMP JUMPDEST JUMPDEST SWAP3 SWAP2 POP POP JUMP JUMPDEST PUSH1 0x80 MLOAD PUSH1 0xA0 MLOAD PUSH1 0xC0 MLOAD PUSH1 0xE0 MLOAD PUSH2 0x870 PUSH3 0x4B0 PUSH1 0x0 CODECOPY PUSH1 0x0 PUSH2 0x34B ADD MSTORE PUSH1 0x0 DUP2 DUP2 PUSH2 0x269 ADD MSTORE DUP2 DUP2 PUSH2 0x30D ADD MSTORE PUSH2 0x4E2 ADD MSTORE PUSH1 0x0 DUP2 DUP2 PUSH2 0x1CA ADD MSTORE PUSH2 0x36F ADD MSTORE PUSH1 0x0 DUP2 DUP2 PUSH2 0x192 ADD MSTORE PUSH2 0x22C ADD MSTORE PUSH2 0x870 PUSH1 0x0 RETURN INVALID PUSH1 0x80 PUSH1 0x40 MSTORE CALLVALUE DUP1 ISZERO PUSH2 0x10 JUMPI PUSH1 0x0 DUP1 REVERT JUMPDEST POP PUSH1 0x4 CALLDATASIZE LT PUSH2 0x93 JUMPI PUSH1 0x0 CALLDATALOAD PUSH1 0xE0 SHR DUP1 PUSH4 0x715018A6 GT PUSH2 0x66 JUMPI DUP1 PUSH4 0x715018A6 EQ PUSH2 0x110 JUMPI DUP1 PUSH4 0x8DA5CB5B EQ PUSH2 0x11A JUMPI DUP1 PUSH4 0x8F32D59B EQ PUSH2 0x138 JUMPI DUP1 PUSH4 0xA70EBB20 EQ PUSH2 0x156 JUMPI DUP1 PUSH4 0xF2FDE38B EQ PUSH2 0x174 JUMPI PUSH2 0x93 JUMP JUMPDEST DUP1 PUSH4 0x120F2EDA EQ PUSH2 0x98 JUMPI DUP1 PUSH4 0x3158952E EQ PUSH2 0xB6 JUMPI DUP1 PUSH4 0x607AD0D7 EQ PUSH2 0xD4 JUMPI DUP1 PUSH4 0x69AC5721 EQ PUSH2 0xF2 JUMPI JUMPDEST PUSH1 0x0 DUP1 REVERT JUMPDEST PUSH2 0xA0 PUSH2 0x190 JUMP JUMPDEST PUSH1 0x40 MLOAD PUSH2 0xAD SWAP2 SWAP1 PUSH2 0x658 JUMP JUMPDEST PUSH1 0x40 MLOAD DUP1 SWAP2 SUB SWAP1 RETURN JUMPDEST PUSH2 0xBE PUSH2 0x1B4 JUMP JUMPDEST PUSH1 0x40 MLOAD PUSH2 0xCB SWAP2 SWAP1 PUSH2 0x68E JUMP JUMPDEST PUSH1 0x40 MLOAD DUP1 SWAP2 SUB SWAP1 RETURN JUMPDEST PUSH2 0xDC PUSH2 0x349 JUMP JUMPDEST PUSH1 0x40 MLOAD PUSH2 0xE9 SWAP2 SWAP1 PUSH2 0x6C2 JUMP JUMPDEST PUSH1 0x40 MLOAD DUP1 SWAP2 SUB SWAP1 RETURN JUMPDEST PUSH2 0xFA PUSH2 0x36D JUMP JUMPDEST PUSH1 0x40 MLOAD PUSH2 0x107 SWAP2 SWAP1 PUSH2 0x6C2 JUMP JUMPDEST PUSH1 0x40 MLOAD DUP1 SWAP2 SUB SWAP1 RETURN JUMPDEST PUSH2 0x118 PUSH2 0x391 JUMP JUMPDEST STOP JUMPDEST PUSH2 0x122 PUSH2 0x460 JUMP JUMPDEST PUSH1 0x40 MLOAD PUSH2 0x12F SWAP2 SWAP1 PUSH2 0x658 JUMP JUMPDEST PUSH1 0x40 MLOAD DUP1 SWAP2 SUB SWAP1 RETURN JUMPDEST PUSH2 0x140 PUSH2 0x489 JUMP JUMPDEST PUSH1 0x40 MLOAD PUSH2 0x14D SWAP2 SWAP1 PUSH2 0x68E JUMP JUMPDEST PUSH1 0x40 MLOAD DUP1 SWAP2 SUB SWAP1 RETURN JUMPDEST PUSH2 0x15E PUSH2 0x4E0 JUMP JUMPDEST PUSH1 0x40 MLOAD PUSH2 0x16B SWAP2 SWAP1 PUSH2 0x6C2 JUMP JUMPDEST PUSH1 0x40 MLOAD DUP1 SWAP2 SUB SWAP1 RETURN JUMPDEST PUSH2 0x18E PUSH1 0x4 DUP1 CALLDATASIZE SUB DUP2 ADD SWAP1 PUSH2 0x189 SWAP2 SWAP1 PUSH2 0x70E JUMP JUMPDEST PUSH2 0x504 JUMP JUMPDEST STOP JUMPDEST PUSH32 0x0 DUP2 JUMP JUMPDEST PUSH1 0x0 PUSH2 0x1BE PUSH2 0x489 JUMP JUMPDEST PUSH2 0x1C7 JUMPI PUSH1 0x0 DUP1 REVERT JUMPDEST TIMESTAMP PUSH32 0x0 GT ISZERO PUSH2 0x22A JUMPI PUSH1 0x40 MLOAD PUSH32 0x8C379A000000000000000000000000000000000000000000000000000000000 DUP2 MSTORE PUSH1 0x4 ADD PUSH2 0x221 SWAP1 PUSH2 0x798 JUMP JUMPDEST PUSH1 0x40 MLOAD DUP1 SWAP2 SUB SWAP1 REVERT JUMPDEST PUSH32 0x0 PUSH20 0xFFFFFFFFFFFFFFFFFFFFFFFFFFFFFFFFFFFFFFFF AND PUSH4 0xA9059CBB CALLER PUSH32 0x0 PUSH1 0x40 MLOAD DUP4 PUSH4 0xFFFFFFFF AND PUSH1 0xE0 SHL DUP2 MSTORE PUSH1 0x4 ADD PUSH2 0x2A5 SWAP3 SWAP2 SWAP1 PUSH2 0x7B8 JUMP JUMPDEST PUSH1 0x20 PUSH1 0x40 MLOAD DUP1 DUP4 SUB DUP2 PUSH1 0x0 DUP8 GAS CALL ISZERO DUP1 ISZERO PUSH2 0x2C4 JUMPI RETURNDATASIZE PUSH1 0x0 DUP1 RETURNDATACOPY RETURNDATASIZE PUSH1 0x0 REVERT JUMPDEST POP POP POP POP PUSH1 0x40 MLOAD RETURNDATASIZE PUSH1 0x1F NOT PUSH1 0x1F DUP3 ADD AND DUP3 ADD DUP1 PUSH1 0x40 MSTORE POP DUP2 ADD SWAP1 PUSH2 0x2E8 SWAP2 SWAP1 PUSH2 0x80D JUMP JUMPDEST POP PUSH32 0xAAD3EC96B23739E5C653E387E24C59F5FC4A0724C18AD1970FEB0D1444981FAC CALLER PUSH32 0x0 PUSH1 0x40 MLOAD PUSH2 0x33A SWAP3 SWAP2 SWAP1 PUSH2 0x7B8 JUMP JUMPDEST PUSH1 0x40 MLOAD DUP1 SWAP2 SUB SWAP1 LOG1 PUSH1 0x1 SWAP1 POP SWAP1 JUMP JUMPDEST PUSH32 0x0 DUP2 JUMP JUMPDEST PUSH32 0x0 DUP2 JUMP JUMPDEST PUSH2 0x399 PUSH2 0x489 JUMP JUMPDEST PUSH2 0x3A2 JUMPI PUSH1 0x0 DUP1 REVERT JUMPDEST PUSH1 0x0 PUSH20 0xFFFFFFFFFFFFFFFFFFFFFFFFFFFFFFFFFFFFFFFF AND PUSH1 0x0 DUP1 SLOAD SWAP1 PUSH2 0x100 EXP SWAP1 DIV PUSH20 0xFFFFFFFFFFFFFFFFFFFFFFFFFFFFFFFFFFFFFFFF AND PUSH20 0xFFFFFFFFFFFFFFFFFFFFFFFFFFFFFFFFFFFFFFFF AND PUSH32 0x8BE0079C531659141344CD1FD0A4F28419497F9722A3DAAFE3B4186F6B6457E0 PUSH1 0x40 MLOAD PUSH1 0x40 MLOAD DUP1 SWAP2 SUB SWAP1 LOG3 PUSH1 0x0 DUP1 PUSH1 0x0 PUSH2 0x100 EXP DUP2 SLOAD DUP2 PUSH20 0xFFFFFFFFFFFFFFFFFFFFFFFFFFFFFFFFFFFFFFFF MUL NOT AND SWAP1 DUP4 PUSH20 0xFFFFFFFFFFFFFFFFFFFFFFFFFFFFFFFFFFFFFFFF AND MUL OR SWAP1 SSTORE POP JUMP JUMPDEST PUSH1 0x0 DUP1 PUSH1 0x0 SWAP1 SLOAD SWAP1 PUSH2 0x100 EXP SWAP1 DIV PUSH20 0xFFFFFFFFFFFFFFFFFFFFFFFFFFFFFFFFFFFFFFFF AND SWAP1 POP SWAP1 JUMP JUMPDEST PUSH1 0x0 DUP1 PUSH1 0x0 SWAP1 SLOAD SWAP1 PUSH2 0x100 EXP SWAP1 DIV PUSH20 0xFFFFFFFFFFFFFFFFFFFFFFFFFFFFFFFFFFFFFFFF AND PUSH20 0xFFFFFFFFFFFFFFFFFFFFFFFFFFFFFFFFFFFFFFFF AND CALLER PUSH20 0xFFFFFFFFFFFFFFFFFFFFFFFFFFFFFFFFFFFFFFFF AND EQ SWAP1 POP SWAP1 JUMP JUMPDEST PUSH32 0x0 DUP2 JUMP JUMPDEST PUSH2 0x50C PUSH2 0x489 JUMP JUMPDEST PUSH2 0x515 JUMPI PUSH1 0x0 DUP1 REVERT JUMPDEST PUSH2 0x51E DUP2 PUSH2 0x521 JUMP JUMPDEST POP JUMP JUMPDEST PUSH1 0x0 PUSH20 0xFFFFFFFFFFFFFFFFFFFFFFFFFFFFFFFFFFFFFFFF AND DUP2 PUSH20 0xFFFFFFFFFFFFFFFFFFFFFFFFFFFFFFFFFFFFFFFF AND SUB PUSH2 0x55A JUMPI PUSH1 0x0 DUP1 REVERT JUMPDEST DUP1 PUSH20 0xFFFFFFFFFFFFFFFFFFFFFFFFFFFFFFFFFFFFFFFF AND PUSH1 0x0 DUP1 SLOAD SWAP1 PUSH2 0x100 EXP SWAP1 DIV PUSH20 0xFFFFFFFFFFFFFFFFFFFFFFFFFFFFFFFFFFFFFFFF AND PUSH20 0xFFFFFFFFFFFFFFFFFFFFFFFFFFFFFFFFFFFFFFFF AND PUSH32 0x8BE0079C531659141344CD1FD0A4F28419497F9722A3DAAFE3B4186F6B6457E0 PUSH1 0x40 MLOAD PUSH1 0x40 MLOAD DUP1 SWAP2 SUB SWAP1 LOG3 DUP1 PUSH1 0x0 DUP1 PUSH2 0x100 EXP DUP2 SLOAD DUP2 PUSH20 0xFFFFFFFFFFFFFFFFFFFFFFFFFFFFFFFFFFFFFFFF MUL NOT AND SWAP1 DUP4 PUSH20 0xFFFFFFFFFFFFFFFFFFFFFFFFFFFFFFFFFFFFFFFF AND MUL OR SWAP1 SSTORE POP POP JUMP JUMPDEST PUSH1 0x0 PUSH20 0xFFFFFFFFFFFFFFFFFFFFFFFFFFFFFFFFFFFFFFFF DUP3 AND SWAP1 POP SWAP2 SWAP1 POP JUMP JUMPDEST PUSH1 0x0 PUSH2 0x642 DUP3 PUSH2 0x617 JUMP JUMPDEST SWAP1 POP SWAP2 SWAP1 POP JUMP JUMPDEST PUSH2 0x652 DUP2 PUSH2 0x637 JUMP JUMPDEST DUP3 MSTORE POP POP JUMP JUMPDEST PUSH1 0x0 PUSH1 0x20 DUP3 ADD SWAP1 POP PUSH2 0x66D PUSH1 0x0 DUP4 ADD DUP5 PUSH2 0x649 JUMP JUMPDEST SWAP3 SWAP2 POP POP JUMP JUMPDEST PUSH1 0x0 DUP2 ISZERO ISZERO SWAP1 POP SWAP2 SWAP1 POP JUMP JUMPDEST PUSH2 0x688 DUP2 PUSH2 0x673 JUMP JUMPDEST DUP3 MSTORE POP POP JUMP JUMPDEST PUSH1 0x0 PUSH1 0x20 DUP3 ADD SWAP1 POP PUSH2 0x6A3 PUSH1 0x0 DUP4 ADD DUP5 PUSH2 0x67F JUMP JUMPDEST SWAP3 SWAP2 POP POP JUMP JUMPDEST PUSH1 0x0 DUP2 SWAP1 POP SWAP2 SWAP1 POP JUMP JUMPDEST PUSH2 0x6BC DUP2 PUSH2 0x6A9 JUMP JUMPDEST DUP3 MSTORE POP POP JUMP JUMPDEST PUSH1 0x0 PUSH1 0x20 DUP3 ADD SWAP1 POP PUSH2 0x6D7 PUSH1 0x0 DUP4 ADD DUP5 PUSH2 0x6B3 JUMP JUMPDEST SWAP3 SWAP2 POP POP JUMP JUMPDEST PUSH1 0x0 DUP1 REVERT JUMPDEST PUSH2 0x6EB DUP2 PUSH2 0x637 JUMP JUMPDEST DUP2 EQ PUSH2 0x6F6 JUMPI PUSH1 0x0 DUP1 REVERT JUMPDEST POP JUMP JUMPDEST PUSH1 0x0 DUP2 CALLDATALOAD SWAP1 POP PUSH2 0x708 DUP2 PUSH2 0x6E2 JUMP JUMPDEST SWAP3 SWAP2 POP POP JUMP JUMPDEST PUSH1 0x0 PUSH1 0x20 DUP3 DUP5 SUB SLT ISZERO PUSH2 0x724 JUMPI PUSH2 0x723 PUSH2 0x6DD JUMP JUMPDEST JUMPDEST PUSH1 0x0 PUSH2 0x732 DUP5 DUP3 DUP6 ADD PUSH2 0x6F9 JUMP JUMPDEST SWAP2 POP POP SWAP3 SWAP2 POP POP JUMP JUMPDEST PUSH1 0x0 DUP3 DUP3 MSTORE PUSH1 0x20 DUP3 ADD SWAP1 POP SWAP3 SWAP2 POP POP JUMP JUMPDEST PUSH32 0x4C6971756964697479206C6F636B656421000000000000000000000000000000 PUSH1 0x0 DUP3 ADD MSTORE POP JUMP JUMPDEST PUSH1 0x0 PUSH2 0x782 PUSH1 0x11 DUP4 PUSH2 0x73B JUMP JUMPDEST SWAP2 POP PUSH2 0x78D DUP3 PUSH2 0x74C JUMP JUMPDEST PUSH1 0x20 DUP3 ADD SWAP1 POP SWAP2 SWAP1 POP JUMP JUMPDEST PUSH1 0x0 PUSH1 0x20 DUP3 ADD SWAP1 POP DUP2 DUP2 SUB PUSH1 0x0 DUP4 ADD MSTORE PUSH2 0x7B1 DUP2 PUSH2 0x775 JUMP JUMPDEST SWAP1 POP SWAP2 SWAP1 POP JUMP JUMPDEST PUSH1 0x0 PUSH1 0x40 DUP3 ADD SWAP1 POP PUSH2 0x7CD PUSH1 0x0 DUP4 ADD DUP6 PUSH2 0x649 JUMP JUMPDEST PUSH2 0x7DA PUSH1 0x20 DUP4 ADD DUP5 PUSH2 0x6B3 JUMP JUMPDEST SWAP4 SWAP3 POP POP POP JUMP JUMPDEST PUSH2 0x7EA DUP2 PUSH2 0x673 JUMP JUMPDEST DUP2 EQ PUSH2 0x7F5 JUMPI PUSH1 0x0 DUP1 REVERT JUMPDEST POP JUMP JUMPDEST PUSH1 0x0 DUP2 MLOAD SWAP1 POP PUSH2 0x807 DUP2 PUSH2 0x7E1 JUMP JUMPDEST SWAP3 SWAP2 POP POP JUMP JUMPDEST PUSH1 0x0 PUSH1 0x20 DUP3 DUP5 SUB SLT ISZERO PUSH2 0x823 JUMPI PUSH2 0x822 PUSH2 0x6DD JUMP JUMPDEST JUMPDEST PUSH1 0x0 PUSH2 0x831 DUP5 DUP3 DUP6 ADD PUSH2 0x7F8 JUMP JUMPDEST SWAP2 POP POP SWAP3 SWAP2 POP POP JUMP INVALID LOG2 PUSH5 0x6970667358 0x22 SLT KECCAK256 NOT PUSH29 0xFE2E9B5234DF3A0438260A6A49F248175A4B7AE6FEBEED900C729EDD20 MOD PUSH5 0x736F6C6343 STOP ADDMOD SGT STOP CALLER "
				},
				"gasEstimates": {
					"creation": {
						"codeDepositCost": "432000",
						"executionCost": "infinite",
						"totalCost": "infinite"
					},
					"external": {
						"Claim()": "infinite",
						"LPAddress()": "infinite",
						"deployTimestamp()": "infinite",
						"isOwner()": "2540",
						"lockedamount()": "infinite",
						"owner()": "2544",
						"renounceOwnership()": "30294",
						"transferOwnership(address)": "30757",
						"unlockDate()": "infinite"
					}
				},
				"methodIdentifiers": {
					"Claim()": "3158952e",
					"LPAddress()": "120f2eda",
					"deployTimestamp()": "607ad0d7",
					"isOwner()": "8f32d59b",
					"lockedamount()": "a70ebb20",
					"owner()": "8da5cb5b",
					"renounceOwnership()": "715018a6",
					"transferOwnership(address)": "f2fde38b",
					"unlockDate()": "69ac5721"
				}
			},
			"storageLayout": {
				"storage": [
					{
						"astId": 41,
						"contract": "contracts/Liquiditylocked.sol:Liquiditylocked",
						"label": "_owner",
						"offset": 0,
						"slot": "0",
						"type": "t_address"
					}
				],
				"types": {
					"t_address": {
						"encoding": "inplace",
						"label": "address",
						"numberOfBytes": "20"
					}
				}
			},
			"userdoc": {
				"kind": "user",
				"methods": {
					"renounceOwnership()": {
						"notice": "Renouncing ownership will leave the contract without an owner, thereby removing any functionality that is only available to the owner."
					}
				},
				"version": 1
			}
		}
	}
}