{
	"contracts/Stake.sol": {
		"Stake": {
			"abi": [
				{
					"inputs": [
						{
							"internalType": "address",
							"name": "_tokenContract",
							"type": "address"
						}
					],
					"stateMutability": "nonpayable",
					"type": "constructor"
				},
				{
					"anonymous": false,
					"inputs": [
						{
							"indexed": true,
							"internalType": "address",
							"name": "previousOwner",
							"type": "address"
						},
						{
							"indexed": true,
							"internalType": "address",
							"name": "newOwner",
							"type": "address"
						}
					],
					"name": "OwnershipTransferred",
					"type": "event"
				},
				{
					"anonymous": false,
					"inputs": [
						{
							"indexed": false,
							"internalType": "uint256",
							"name": "_stakeid",
							"type": "uint256"
						},
						{
							"indexed": false,
							"internalType": "address",
							"name": "_to",
							"type": "address"
						},
						{
							"indexed": false,
							"internalType": "uint256",
							"name": "_stakeamount",
							"type": "uint256"
						}
					],
					"name": "StakeEvent",
					"type": "event"
				},
				{
					"anonymous": false,
					"inputs": [
						{
							"indexed": false,
							"internalType": "uint256",
							"name": "_stakeid",
							"type": "uint256"
						},
						{
							"indexed": false,
							"internalType": "address",
							"name": "_to",
							"type": "address"
						},
						{
							"indexed": false,
							"internalType": "uint256",
							"name": "_amount",
							"type": "uint256"
						}
					],
					"name": "unstake",
					"type": "event"
				},
				{
					"inputs": [],
					"name": "ActiveStake",
					"outputs": [
						{
							"internalType": "uint256",
							"name": "",
							"type": "uint256"
						}
					],
					"stateMutability": "view",
					"type": "function"
				},
				{
					"inputs": [
						{
							"internalType": "uint256",
							"name": "_stakeDays",
							"type": "uint256"
						},
						{
							"internalType": "uint256",
							"name": "_percentage",
							"type": "uint256"
						}
					],
					"name": "RewardPercentageChange",
					"outputs": [
						{
							"internalType": "uint256",
							"name": "",
							"type": "uint256"
						}
					],
					"stateMutability": "nonpayable",
					"type": "function"
				},
				{
					"inputs": [],
					"name": "RewardPoolAddress",
					"outputs": [
						{
							"internalType": "address",
							"name": "",
							"type": "address"
						}
					],
					"stateMutability": "view",
					"type": "function"
				},
				{
					"inputs": [],
					"name": "TotalProfitedAmt",
					"outputs": [
						{
							"internalType": "uint256",
							"name": "",
							"type": "uint256"
						}
					],
					"stateMutability": "view",
					"type": "function"
				},
				{
					"inputs": [
						{
							"internalType": "address",
							"name": "_rewardaddress",
							"type": "address"
						}
					],
					"name": "changeRewardPoolAddress",
					"outputs": [],
					"stateMutability": "nonpayable",
					"type": "function"
				},
				{
					"inputs": [],
					"name": "isOwner",
					"outputs": [
						{
							"internalType": "bool",
							"name": "",
							"type": "bool"
						}
					],
					"stateMutability": "view",
					"type": "function"
				},
				{
					"inputs": [],
					"name": "owner",
					"outputs": [
						{
							"internalType": "address",
							"name": "",
							"type": "address"
						}
					],
					"stateMutability": "view",
					"type": "function"
				},
				{
					"inputs": [],
					"name": "renounceOwnership",
					"outputs": [],
					"stateMutability": "nonpayable",
					"type": "function"
				},
				{
					"inputs": [
						{
							"internalType": "uint256",
							"name": "_amount",
							"type": "uint256"
						}
					],
					"name": "setRewardToken",
					"outputs": [],
					"stateMutability": "nonpayable",
					"type": "function"
				},
				{
					"inputs": [
						{
							"internalType": "uint256",
							"name": "_staketime",
							"type": "uint256"
						},
						{
							"internalType": "uint256",
							"name": "_stakeamount",
							"type": "uint256"
						}
					],
					"name": "stake",
					"outputs": [
						{
							"internalType": "bool",
							"name": "",
							"type": "bool"
						}
					],
					"stateMutability": "nonpayable",
					"type": "function"
				},
				{
					"inputs": [
						{
							"internalType": "address",
							"name": "",
							"type": "address"
						},
						{
							"internalType": "uint256",
							"name": "",
							"type": "uint256"
						}
					],
					"name": "staking",
					"outputs": [
						{
							"internalType": "uint256",
							"name": "_days",
							"type": "uint256"
						},
						{
							"internalType": "uint256",
							"name": "_stakingStarttime",
							"type": "uint256"
						},
						{
							"internalType": "uint256",
							"name": "_stakingEndtime",
							"type": "uint256"
						},
						{
							"internalType": "uint256",
							"name": "_amount",
							"type": "uint256"
						},
						{
							"internalType": "uint256",
							"name": "_profit",
							"type": "uint256"
						}
					],
					"stateMutability": "view",
					"type": "function"
				},
				{
					"inputs": [],
					"name": "tokenAddress",
					"outputs": [
						{
							"internalType": "address",
							"name": "",
							"type": "address"
						}
					],
					"stateMutability": "view",
					"type": "function"
				},
				{
					"inputs": [
						{
							"internalType": "address",
							"name": "newOwner",
							"type": "address"
						}
					],
					"name": "transferOwnership",
					"outputs": [],
					"stateMutability": "nonpayable",
					"type": "function"
				},
				{
					"inputs": [
						{
							"internalType": "uint256",
							"name": "_stakeid",
							"type": "uint256"
						}
					],
					"name": "unStake",
					"outputs": [
						{
							"internalType": "bool",
							"name": "",
							"type": "bool"
						}
					],
					"stateMutability": "nonpayable",
					"type": "function"
				},
				{
					"inputs": [
						{
							"internalType": "uint256",
							"name": "_stakeDays",
							"type": "uint256"
						}
					],
					"name": "viewPercentage",
					"outputs": [
						{
							"internalType": "uint256",
							"name": "",
							"type": "uint256"
						}
					],
					"stateMutability": "view",
					"type": "function"
				}
			],
			"devdoc": {
				"details": "To Main Stake contract  .",
				"events": {
					"StakeEvent(uint256,address,uint256)": {
						"details": "To show contract event  ."
					}
				},
				"kind": "dev",
				"methods": {
					"ActiveStake()": {
						"details": "returns number of stake, done by particular wallet ."
					},
					"RewardPercentageChange(uint256,uint256)": {
						"details": "return new days wise staking percentage. owner can change staking _percentage ."
					},
					"TotalProfitedAmt()": {
						"details": "returns total staking wallet profited amount"
					},
					"changeRewardPoolAddress(address)": {
						"details": "This wallet is useful for maintain contract token balance. owner can manage profit distribution using rewardPool address."
					},
					"isOwner()": {
						"returns": {
							"_0": "true if `msg.sender` is the owner of the contract."
						}
					},
					"owner()": {
						"returns": {
							"_0": "the address of the owner."
						}
					},
					"renounceOwnership()": {
						"details": "Allows the current owner to relinquish control of the contract. It will not be possible to call the functions with the `onlyOwner` modifier anymore."
					},
					"setRewardToken(uint256)": {
						"details": "set number of token from the RewardPoolAddress"
					},
					"stake(uint256,uint256)": {
						"details": "stake amount for particular duration. parameters : _staketime in days (exp: 30, 90, 180 ,360 )              _stakeamount ( need to set token amount for stake) it will increase activeStake result of particular wallet."
					},
					"transferOwnership(address)": {
						"details": "Allows the current owner to transfer control of the contract to a newOwner.",
						"params": {
							"newOwner": "The address to transfer ownership to."
						}
					},
					"unStake(uint256)": {
						"details": "stake amount release. parameters : _stakeid is active stake ids which is getting from activeStake-1               it will decrease activeStake result of particular wallet. result : If unstake happen before time duration it will set 50% penalty on profited amount else it will sent you all stake amount,          to the staking wallet."
					},
					"viewPercentage(uint256)": {
						"details": "return days wise staking percentage. "
					}
				},
				"version": 1
			},
			"evm": {
				"assembly": "    /* \"contracts/Stake.sol\":2785:8794  contract Stake is Ownable { ... */\n  mstore(0x40, 0x80)\n    /* \"contracts/Stake.sol\":3057:3058  0 */\n  0x00\n    /* \"contracts/Stake.sol\":3021:3059  address public tokenAddress=address(0) */\n  0x02\n  exp(0x0100, 0x00)\n  dup2\n  sload\n  dup2\n  0xffffffffffffffffffffffffffffffffffffffff\n  mul\n  not\n  and\n  swap1\n  dup4\n  0xffffffffffffffffffffffffffffffffffffffff\n  and\n  mul\n  or\n  swap1\n  sstore\n  pop\n    /* \"contracts/Stake.sol\":3338:3601  constructor(address _tokenContract) {... */\n  callvalue\n  dup1\n  iszero\n  tag_1\n  jumpi\n  0x00\n  dup1\n  revert\ntag_1:\n  pop\n  mload(0x40)\n  sub(codesize, bytecodeSize)\n  dup1\n  bytecodeSize\n  dup4\n  codecopy\n  dup2\n  dup2\n  add\n  0x40\n  mstore\n  dup2\n  add\n  swap1\n  tag_2\n  swap2\n  swap1\n  tag_3\n  jump\t// in\ntag_2:\n    /* \"contracts/Stake.sol\":1100:1110  msg.sender */\n  caller\n    /* \"contracts/Stake.sol\":1091:1097  _owner */\n  0x00\n  dup1\n    /* \"contracts/Stake.sol\":1091:1110  _owner = msg.sender */\n  0x0100\n  exp\n  dup2\n  sload\n  dup2\n  0xffffffffffffffffffffffffffffffffffffffff\n  mul\n  not\n  and\n  swap1\n  dup4\n  0xffffffffffffffffffffffffffffffffffffffff\n  and\n  mul\n  or\n  swap1\n  sstore\n  pop\n    /* \"contracts/Stake.sol\":1158:1164  _owner */\n  0x00\n  dup1\n  sload\n  swap1\n  0x0100\n  exp\n  swap1\n  div\n  0xffffffffffffffffffffffffffffffffffffffff\n  and\n    /* \"contracts/Stake.sol\":1125:1165  OwnershipTransferred(address(0), _owner) */\n  0xffffffffffffffffffffffffffffffffffffffff\n  and\n    /* \"contracts/Stake.sol\":1154:1155  0 */\n  0x00\n    /* \"contracts/Stake.sol\":1125:1165  OwnershipTransferred(address(0), _owner) */\n  0xffffffffffffffffffffffffffffffffffffffff\n  and\n  0x8be0079c531659141344cd1fd0a4f28419497f9722a3daafe3b4186f6b6457e0\n  mload(0x40)\n  mload(0x40)\n  dup1\n  swap2\n  sub\n  swap1\n  log3\n    /* \"contracts/Stake.sol\":3398:3412  _tokenContract */\n  dup1\n    /* \"contracts/Stake.sol\":3384:3396  tokenAddress */\n  0x02\n  0x00\n    /* \"contracts/Stake.sol\":3384:3412  tokenAddress= _tokenContract */\n  0x0100\n  exp\n  dup2\n  sload\n  dup2\n  0xffffffffffffffffffffffffffffffffffffffff\n  mul\n  not\n  and\n  swap1\n  dup4\n  0xffffffffffffffffffffffffffffffffffffffff\n  and\n  mul\n  or\n  swap1\n  sstore\n  pop\n    /* \"contracts/Stake.sol\":3476:3479  700 */\n  0x02bc\n    /* \"contracts/Stake.sol\":3453:3469  RewardPercentage */\n  0x06\n    /* \"contracts/Stake.sol\":3453:3473  RewardPercentage[30] */\n  0x00\n    /* \"contracts/Stake.sol\":3470:3472  30 */\n  0x1e\n    /* \"contracts/Stake.sol\":3453:3473  RewardPercentage[30] */\n  dup2\n  mstore\n  0x20\n  add\n  swap1\n  dup2\n  mstore\n  0x20\n  add\n  0x00\n  keccak256\n    /* \"contracts/Stake.sol\":3453:3479  RewardPercentage[30] = 700 */\n  dup2\n  swap1\n  sstore\n  pop\n    /* \"contracts/Stake.sol\":3512:3516  7500 */\n  0x1d4c\n    /* \"contracts/Stake.sol\":3489:3505  RewardPercentage */\n  0x06\n    /* \"contracts/Stake.sol\":3489:3509  RewardPercentage[90] */\n  0x00\n    /* \"contracts/Stake.sol\":3506:3508  90 */\n  0x5a\n    /* \"contracts/Stake.sol\":3489:3509  RewardPercentage[90] */\n  dup2\n  mstore\n  0x20\n  add\n  swap1\n  dup2\n  mstore\n  0x20\n  add\n  0x00\n  keccak256\n    /* \"contracts/Stake.sol\":3489:3516  RewardPercentage[90] = 7500 */\n  dup2\n  swap1\n  sstore\n  pop\n    /* \"contracts/Stake.sol\":3550:3554  3500 */\n  0x0dac\n    /* \"contracts/Stake.sol\":3526:3542  RewardPercentage */\n  0x06\n    /* \"contracts/Stake.sol\":3526:3547  RewardPercentage[180] */\n  0x00\n    /* \"contracts/Stake.sol\":3543:3546  180 */\n  0xb4\n    /* \"contracts/Stake.sol\":3526:3547  RewardPercentage[180] */\n  dup2\n  mstore\n  0x20\n  add\n  swap1\n  dup2\n  mstore\n  0x20\n  add\n  0x00\n  keccak256\n    /* \"contracts/Stake.sol\":3526:3554  RewardPercentage[180] = 3500 */\n  dup2\n  swap1\n  sstore\n  pop\n    /* \"contracts/Stake.sol\":3588:3594  160000 */\n  0x027100\n    /* \"contracts/Stake.sol\":3564:3580  RewardPercentage */\n  0x06\n    /* \"contracts/Stake.sol\":3564:3585  RewardPercentage[360] */\n  0x00\n    /* \"contracts/Stake.sol\":3581:3584  360 */\n  0x0168\n    /* \"contracts/Stake.sol\":3564:3585  RewardPercentage[360] */\n  dup2\n  mstore\n  0x20\n  add\n  swap1\n  dup2\n  mstore\n  0x20\n  add\n  0x00\n  keccak256\n    /* \"contracts/Stake.sol\":3564:3594  RewardPercentage[360] = 160000 */\n  dup2\n  swap1\n  sstore\n  pop\n    /* \"contracts/Stake.sol\":3338:3601  constructor(address _tokenContract) {... */\n  pop\n    /* \"contracts/Stake.sol\":2785:8794  contract Stake is Ownable { ... */\n  jump(tag_8)\n    /* \"#utility.yul\":88:205   */\ntag_10:\n    /* \"#utility.yul\":197:198   */\n  0x00\n    /* \"#utility.yul\":194:195   */\n  dup1\n    /* \"#utility.yul\":187:199   */\n  revert\n    /* \"#utility.yul\":334:460   */\ntag_12:\n    /* \"#utility.yul\":371:378   */\n  0x00\n    /* \"#utility.yul\":411:453   */\n  0xffffffffffffffffffffffffffffffffffffffff\n    /* \"#utility.yul\":404:409   */\n  dup3\n    /* \"#utility.yul\":400:454   */\n  and\n    /* \"#utility.yul\":389:454   */\n  swap1\n  pop\n    /* \"#utility.yul\":334:460   */\n  swap2\n  swap1\n  pop\n  jump\t// out\n    /* \"#utility.yul\":466:562   */\ntag_13:\n    /* \"#utility.yul\":503:510   */\n  0x00\n    /* \"#utility.yul\":532:556   */\n  tag_22\n    /* \"#utility.yul\":550:555   */\n  dup3\n    /* \"#utility.yul\":532:556   */\n  tag_12\n  jump\t// in\ntag_22:\n    /* \"#utility.yul\":521:556   */\n  swap1\n  pop\n    /* \"#utility.yul\":466:562   */\n  swap2\n  swap1\n  pop\n  jump\t// out\n    /* \"#utility.yul\":568:690   */\ntag_14:\n    /* \"#utility.yul\":641:665   */\n  tag_24\n    /* \"#utility.yul\":659:664   */\n  dup2\n    /* \"#utility.yul\":641:665   */\n  tag_13\n  jump\t// in\ntag_24:\n    /* \"#utility.yul\":634:639   */\n  dup2\n    /* \"#utility.yul\":631:666   */\n  eq\n    /* \"#utility.yul\":621:684   */\n  tag_25\n  jumpi\n    /* \"#utility.yul\":680:681   */\n  0x00\n    /* \"#utility.yul\":677:678   */\n  dup1\n    /* \"#utility.yul\":670:682   */\n  revert\n    /* \"#utility.yul\":621:684   */\ntag_25:\n    /* \"#utility.yul\":568:690   */\n  pop\n  jump\t// out\n    /* \"#utility.yul\":696:839   */\ntag_15:\n    /* \"#utility.yul\":753:758   */\n  0x00\n    /* \"#utility.yul\":784:790   */\n  dup2\n    /* \"#utility.yul\":778:791   */\n  mload\n    /* \"#utility.yul\":769:791   */\n  swap1\n  pop\n    /* \"#utility.yul\":800:833   */\n  tag_27\n    /* \"#utility.yul\":827:832   */\n  dup2\n    /* \"#utility.yul\":800:833   */\n  tag_14\n  jump\t// in\ntag_27:\n    /* \"#utility.yul\":696:839   */\n  swap3\n  swap2\n  pop\n  pop\n  jump\t// out\n    /* \"#utility.yul\":845:1196   */\ntag_3:\n    /* \"#utility.yul\":915:921   */\n  0x00\n    /* \"#utility.yul\":964:966   */\n  0x20\n    /* \"#utility.yul\":952:961   */\n  dup3\n    /* \"#utility.yul\":943:950   */\n  dup5\n    /* \"#utility.yul\":939:962   */\n  sub\n    /* \"#utility.yul\":935:967   */\n  slt\n    /* \"#utility.yul\":932:1051   */\n  iszero\n  tag_29\n  jumpi\n    /* \"#utility.yul\":970:1049   */\n  tag_30\n  tag_10\n  jump\t// in\ntag_30:\n    /* \"#utility.yul\":932:1051   */\ntag_29:\n    /* \"#utility.yul\":1090:1091   */\n  0x00\n    /* \"#utility.yul\":1115:1179   */\n  tag_31\n    /* \"#utility.yul\":1171:1178   */\n  dup5\n    /* \"#utility.yul\":1162:1168   */\n  dup3\n    /* \"#utility.yul\":1151:1160   */\n  dup6\n    /* \"#utility.yul\":1147:1169   */\n  add\n    /* \"#utility.yul\":1115:1179   */\n  tag_15\n  jump\t// in\ntag_31:\n    /* \"#utility.yul\":1105:1179   */\n  swap2\n  pop\n    /* \"#utility.yul\":1061:1189   */\n  pop\n    /* \"#utility.yul\":845:1196   */\n  swap3\n  swap2\n  pop\n  pop\n  jump\t// out\n    /* \"contracts/Stake.sol\":2785:8794  contract Stake is Ownable { ... */\ntag_8:\n  dataSize(sub_0)\n  dup1\n  dataOffset(sub_0)\n  0x00\n  codecopy\n  0x00\n  return\nstop\n\nsub_0: assembly {\n        /* \"contracts/Stake.sol\":2785:8794  contract Stake is Ownable { ... */\n      mstore(0x40, 0x80)\n      callvalue\n      dup1\n      iszero\n      tag_1\n      jumpi\n      0x00\n      dup1\n      revert\n    tag_1:\n      pop\n      jumpi(tag_2, lt(calldatasize, 0x04))\n      shr(0xe0, calldataload(0x00))\n      dup1\n      0x7b0472f0\n      gt\n      tag_18\n      jumpi\n      dup1\n      0x9d76ea58\n      gt\n      tag_19\n      jumpi\n      dup1\n      0x9d76ea58\n      eq\n      tag_14\n      jumpi\n      dup1\n      0x9e9593ce\n      eq\n      tag_15\n      jumpi\n      dup1\n      0xb073ca81\n      eq\n      tag_16\n      jumpi\n      dup1\n      0xf2fde38b\n      eq\n      tag_17\n      jumpi\n      jump(tag_2)\n    tag_19:\n      dup1\n      0x7b0472f0\n      eq\n      tag_10\n      jumpi\n      dup1\n      0x8da5cb5b\n      eq\n      tag_11\n      jumpi\n      dup1\n      0x8f32d59b\n      eq\n      tag_12\n      jumpi\n      dup1\n      0x95dfea77\n      eq\n      tag_13\n      jumpi\n      jump(tag_2)\n    tag_18:\n      dup1\n      0x44ed10ba\n      gt\n      tag_20\n      jumpi\n      dup1\n      0x44ed10ba\n      eq\n      tag_6\n      jumpi\n      dup1\n      0x4f17edf9\n      eq\n      tag_7\n      jumpi\n      dup1\n      0x5d3eea91\n      eq\n      tag_8\n      jumpi\n      dup1\n      0x715018a6\n      eq\n      tag_9\n      jumpi\n      jump(tag_2)\n    tag_20:\n      dup1\n      0x07b7d86f\n      eq\n      tag_3\n      jumpi\n      dup1\n      0x1fe19cd9\n      eq\n      tag_4\n      jumpi\n      dup1\n      0x295d801e\n      eq\n      tag_5\n      jumpi\n    tag_2:\n      0x00\n      dup1\n      revert\n        /* \"contracts/Stake.sol\":4995:5217  function setRewardToken(uint _amount) public onlyOwner{     ... */\n    tag_3:\n      tag_21\n      0x04\n      dup1\n      calldatasize\n      sub\n      dup2\n      add\n      swap1\n      tag_22\n      swap2\n      swap1\n      tag_23\n      jump\t// in\n    tag_22:\n      tag_24\n      jump\t// in\n    tag_21:\n      stop\n        /* \"contracts/Stake.sol\":3877:3972  function ActiveStake()public view returns(uint){... */\n    tag_4:\n      tag_25\n      tag_26\n      jump\t// in\n    tag_25:\n      mload(0x40)\n      tag_27\n      swap2\n      swap1\n      tag_28\n      jump\t// in\n    tag_27:\n      mload(0x40)\n      dup1\n      swap2\n      sub\n      swap1\n      return\n        /* \"contracts/Stake.sol\":4136:4262  function changeRewardPoolAddress( address _rewardaddress) public onlyOwner {... */\n    tag_5:\n      tag_29\n      0x04\n      dup1\n      calldatasize\n      sub\n      dup2\n      add\n      swap1\n      tag_30\n      swap2\n      swap1\n      tag_31\n      jump\t// in\n    tag_30:\n      tag_32\n      jump\t// in\n    tag_29:\n      stop\n        /* \"contracts/Stake.sol\":4789:4907  function viewPercentage(uint _stakeDays) public view returns(uint){... */\n    tag_6:\n      tag_33\n      0x04\n      dup1\n      calldatasize\n      sub\n      dup2\n      add\n      swap1\n      tag_34\n      swap2\n      swap1\n      tag_23\n      jump\t// in\n    tag_34:\n      tag_35\n      jump\t// in\n    tag_33:\n      mload(0x40)\n      tag_36\n      swap2\n      swap1\n      tag_28\n      jump\t// in\n    tag_36:\n      mload(0x40)\n      dup1\n      swap2\n      sub\n      swap1\n      return\n        /* \"contracts/Stake.sol\":5304:5510  function TotalProfitedAmt() public view returns(uint){... */\n    tag_7:\n      tag_37\n      tag_38\n      jump\t// in\n    tag_37:\n      mload(0x40)\n      tag_39\n      swap2\n      swap1\n      tag_28\n      jump\t// in\n    tag_39:\n      mload(0x40)\n      dup1\n      swap2\n      sub\n      swap1\n      return\n        /* \"contracts/Stake.sol\":7194:8790  function unStake(uint256 _stakeid) public returns (bool){         ... */\n    tag_8:\n      tag_40\n      0x04\n      dup1\n      calldatasize\n      sub\n      dup2\n      add\n      swap1\n      tag_41\n      swap2\n      swap1\n      tag_23\n      jump\t// in\n    tag_41:\n      tag_42\n      jump\t// in\n    tag_40:\n      mload(0x40)\n      tag_43\n      swap2\n      swap1\n      tag_44\n      jump\t// in\n    tag_43:\n      mload(0x40)\n      dup1\n      swap2\n      sub\n      swap1\n      return\n        /* \"contracts/Stake.sol\":1999:2136  function renounceOwnership() public onlyOwner {... */\n    tag_9:\n      tag_45\n      tag_46\n      jump\t// in\n    tag_45:\n      stop\n        /* \"contracts/Stake.sol\":5782:6789  function stake(uint _staketime , uint _stakeamount) public returns (bool){... */\n    tag_10:\n      tag_47\n      0x04\n      dup1\n      calldatasize\n      sub\n      dup2\n      add\n      swap1\n      tag_48\n      swap2\n      swap1\n      tag_49\n      jump\t// in\n    tag_48:\n      tag_50\n      jump\t// in\n    tag_47:\n      mload(0x40)\n      tag_51\n      swap2\n      swap1\n      tag_44\n      jump\t// in\n    tag_51:\n      mload(0x40)\n      dup1\n      swap2\n      sub\n      swap1\n      return\n        /* \"contracts/Stake.sol\":1235:1312  function owner() public view returns (address) {... */\n    tag_11:\n      tag_52\n      tag_53\n      jump\t// in\n    tag_52:\n      mload(0x40)\n      tag_54\n      swap2\n      swap1\n      tag_55\n      jump\t// in\n    tag_54:\n      mload(0x40)\n      dup1\n      swap2\n      sub\n      swap1\n      return\n        /* \"contracts/Stake.sol\":1555:1645  function isOwner() public view returns (bool) {... */\n    tag_12:\n      tag_56\n      tag_57\n      jump\t// in\n    tag_56:\n      mload(0x40)\n      tag_58\n      swap2\n      swap1\n      tag_44\n      jump\t// in\n    tag_58:\n      mload(0x40)\n      dup1\n      swap2\n      sub\n      swap1\n      return\n        /* \"contracts/Stake.sol\":3065:3124  mapping(address=>mapping(uint256=>_staking)) public staking */\n    tag_13:\n      tag_59\n      0x04\n      dup1\n      calldatasize\n      sub\n      dup2\n      add\n      swap1\n      tag_60\n      swap2\n      swap1\n      tag_61\n      jump\t// in\n    tag_60:\n      tag_62\n      jump\t// in\n    tag_59:\n      mload(0x40)\n      tag_63\n      swap6\n      swap5\n      swap4\n      swap3\n      swap2\n      swap1\n      tag_64\n      jump\t// in\n    tag_63:\n      mload(0x40)\n      dup1\n      swap2\n      sub\n      swap1\n      return\n        /* \"contracts/Stake.sol\":3021:3059  address public tokenAddress=address(0) */\n    tag_14:\n      tag_65\n      tag_66\n      jump\t// in\n    tag_65:\n      mload(0x40)\n      tag_67\n      swap2\n      swap1\n      tag_55\n      jump\t// in\n    tag_67:\n      mload(0x40)\n      dup1\n      swap2\n      sub\n      swap1\n      return\n        /* \"contracts/Stake.sol\":2983:3015  address public RewardPoolAddress */\n    tag_15:\n      tag_68\n      tag_69\n      jump\t// in\n    tag_68:\n      mload(0x40)\n      tag_70\n      swap2\n      swap1\n      tag_55\n      jump\t// in\n    tag_70:\n      mload(0x40)\n      dup1\n      swap2\n      sub\n      swap1\n      return\n        /* \"contracts/Stake.sol\":4386:4710  function RewardPercentageChange( uint256 _stakeDays , uint256 _percentage) public onlyOwner returns(uint256) {... */\n    tag_16:\n      tag_71\n      0x04\n      dup1\n      calldatasize\n      sub\n      dup2\n      add\n      swap1\n      tag_72\n      swap2\n      swap1\n      tag_49\n      jump\t// in\n    tag_72:\n      tag_73\n      jump\t// in\n    tag_71:\n      mload(0x40)\n      tag_74\n      swap2\n      swap1\n      tag_28\n      jump\t// in\n    tag_74:\n      mload(0x40)\n      dup1\n      swap2\n      sub\n      swap1\n      return\n        /* \"contracts/Stake.sol\":2307:2414  function transferOwnership(address newOwner) public onlyOwner {... */\n    tag_17:\n      tag_75\n      0x04\n      dup1\n      calldatasize\n      sub\n      dup2\n      add\n      swap1\n      tag_76\n      swap2\n      swap1\n      tag_31\n      jump\t// in\n    tag_76:\n      tag_77\n      jump\t// in\n    tag_75:\n      stop\n        /* \"contracts/Stake.sol\":4995:5217  function setRewardToken(uint _amount) public onlyOwner{     ... */\n    tag_24:\n        /* \"contracts/Stake.sol\":1439:1448  isOwner() */\n      tag_79\n        /* \"contracts/Stake.sol\":1439:1446  isOwner */\n      tag_57\n        /* \"contracts/Stake.sol\":1439:1448  isOwner() */\n      jump\t// in\n    tag_79:\n        /* \"contracts/Stake.sol\":1431:1449  require(isOwner()) */\n      tag_80\n      jumpi\n      0x00\n      dup1\n      revert\n    tag_80:\n        /* \"contracts/Stake.sol\":5082:5083  0 */\n      0x00\n        /* \"contracts/Stake.sol\":5072:5079  _amount */\n      dup2\n        /* \"contracts/Stake.sol\":5072:5083  _amount > 0 */\n      gt\n        /* \"contracts/Stake.sol\":5064:5118  require(_amount > 0,\"Amount should be greater then 0\") */\n      tag_82\n      jumpi\n      mload(0x40)\n      0x08c379a000000000000000000000000000000000000000000000000000000000\n      dup2\n      mstore\n      0x04\n      add\n      tag_83\n      swap1\n      tag_84\n      jump\t// in\n    tag_83:\n      mload(0x40)\n      dup1\n      swap2\n      sub\n      swap1\n      revert\n    tag_82:\n        /* \"contracts/Stake.sol\":5135:5147  tokenAddress */\n      0x02\n      0x00\n      swap1\n      sload\n      swap1\n      0x0100\n      exp\n      swap1\n      div\n      0xffffffffffffffffffffffffffffffffffffffff\n      and\n        /* \"contracts/Stake.sol\":5128:5161  TokenI(tokenAddress).transferFrom */\n      0xffffffffffffffffffffffffffffffffffffffff\n      and\n      0x23b872dd\n        /* \"contracts/Stake.sol\":5162:5179  RewardPoolAddress */\n      0x01\n      0x00\n      swap1\n      sload\n      swap1\n      0x0100\n      exp\n      swap1\n      div\n      0xffffffffffffffffffffffffffffffffffffffff\n      and\n        /* \"contracts/Stake.sol\":5188:5192  this */\n      address\n        /* \"contracts/Stake.sol\":5195:5202  _amount */\n      dup5\n        /* \"contracts/Stake.sol\":5128:5203  TokenI(tokenAddress).transferFrom(RewardPoolAddress,address(this), _amount) */\n      mload(0x40)\n      dup5\n      0xffffffff\n      and\n      0xe0\n      shl\n      dup2\n      mstore\n      0x04\n      add\n      tag_85\n      swap4\n      swap3\n      swap2\n      swap1\n      tag_86\n      jump\t// in\n    tag_85:\n      0x20\n      mload(0x40)\n      dup1\n      dup4\n      sub\n      dup2\n      0x00\n      dup8\n      gas\n      call\n      iszero\n      dup1\n      iszero\n      tag_88\n      jumpi\n      returndatasize\n      0x00\n      dup1\n      returndatacopy\n      revert(0x00, returndatasize)\n    tag_88:\n      pop\n      pop\n      pop\n      pop\n      mload(0x40)\n      returndatasize\n      not(0x1f)\n      0x1f\n      dup3\n      add\n      and\n      dup3\n      add\n      dup1\n      0x40\n      mstore\n      pop\n      dup2\n      add\n      swap1\n      tag_89\n      swap2\n      swap1\n      tag_90\n      jump\t// in\n    tag_89:\n      pop\n        /* \"contracts/Stake.sol\":4995:5217  function setRewardToken(uint _amount) public onlyOwner{     ... */\n      pop\n      jump\t// out\n        /* \"contracts/Stake.sol\":3877:3972  function ActiveStake()public view returns(uint){... */\n    tag_26:\n        /* \"contracts/Stake.sol\":3919:3923  uint */\n      0x00\n        /* \"contracts/Stake.sol\":3941:3952  activeStake */\n      0x04\n        /* \"contracts/Stake.sol\":3941:3964  activeStake[msg.sender] */\n      0x00\n        /* \"contracts/Stake.sol\":3953:3963  msg.sender */\n      caller\n        /* \"contracts/Stake.sol\":3941:3964  activeStake[msg.sender] */\n      0xffffffffffffffffffffffffffffffffffffffff\n      and\n      0xffffffffffffffffffffffffffffffffffffffff\n      and\n      dup2\n      mstore\n      0x20\n      add\n      swap1\n      dup2\n      mstore\n      0x20\n      add\n      0x00\n      keccak256\n      sload\n        /* \"contracts/Stake.sol\":3934:3964  return activeStake[msg.sender] */\n      swap1\n      pop\n        /* \"contracts/Stake.sol\":3877:3972  function ActiveStake()public view returns(uint){... */\n      swap1\n      jump\t// out\n        /* \"contracts/Stake.sol\":4136:4262  function changeRewardPoolAddress( address _rewardaddress) public onlyOwner {... */\n    tag_32:\n        /* \"contracts/Stake.sol\":1439:1448  isOwner() */\n      tag_93\n        /* \"contracts/Stake.sol\":1439:1446  isOwner */\n      tag_57\n        /* \"contracts/Stake.sol\":1439:1448  isOwner() */\n      jump\t// in\n    tag_93:\n        /* \"contracts/Stake.sol\":1431:1449  require(isOwner()) */\n      tag_94\n      jumpi\n      0x00\n      dup1\n      revert\n    tag_94:\n        /* \"contracts/Stake.sol\":4241:4255  _rewardaddress */\n      dup1\n        /* \"contracts/Stake.sol\":4221:4238  RewardPoolAddress */\n      0x01\n      0x00\n        /* \"contracts/Stake.sol\":4221:4255  RewardPoolAddress = _rewardaddress */\n      0x0100\n      exp\n      dup2\n      sload\n      dup2\n      0xffffffffffffffffffffffffffffffffffffffff\n      mul\n      not\n      and\n      swap1\n      dup4\n      0xffffffffffffffffffffffffffffffffffffffff\n      and\n      mul\n      or\n      swap1\n      sstore\n      pop\n        /* \"contracts/Stake.sol\":4136:4262  function changeRewardPoolAddress( address _rewardaddress) public onlyOwner {... */\n      pop\n      jump\t// out\n        /* \"contracts/Stake.sol\":4789:4907  function viewPercentage(uint _stakeDays) public view returns(uint){... */\n    tag_35:\n        /* \"contracts/Stake.sol\":4850:4854  uint */\n      0x00\n        /* \"contracts/Stake.sol\":4872:4888  RewardPercentage */\n      0x06\n        /* \"contracts/Stake.sol\":4872:4900  RewardPercentage[_stakeDays] */\n      0x00\n        /* \"contracts/Stake.sol\":4889:4899  _stakeDays */\n      dup4\n        /* \"contracts/Stake.sol\":4872:4900  RewardPercentage[_stakeDays] */\n      dup2\n      mstore\n      0x20\n      add\n      swap1\n      dup2\n      mstore\n      0x20\n      add\n      0x00\n      keccak256\n      sload\n        /* \"contracts/Stake.sol\":4865:4900  return RewardPercentage[_stakeDays] */\n      swap1\n      pop\n        /* \"contracts/Stake.sol\":4789:4907  function viewPercentage(uint _stakeDays) public view returns(uint){... */\n      swap2\n      swap1\n      pop\n      jump\t// out\n        /* \"contracts/Stake.sol\":5304:5510  function TotalProfitedAmt() public view returns(uint){... */\n    tag_38:\n        /* \"contracts/Stake.sol\":5352:5356  uint */\n      0x00\n        /* \"contracts/Stake.sol\":5401:5402  0 */\n      dup1\n        /* \"contracts/Stake.sol\":5375:5386  TotalProfit */\n      0x05\n        /* \"contracts/Stake.sol\":5375:5398  TotalProfit[msg.sender] */\n      0x00\n        /* \"contracts/Stake.sol\":5387:5397  msg.sender */\n      caller\n        /* \"contracts/Stake.sol\":5375:5398  TotalProfit[msg.sender] */\n      0xffffffffffffffffffffffffffffffffffffffff\n      and\n      0xffffffffffffffffffffffffffffffffffffffff\n      and\n      dup2\n      mstore\n      0x20\n      add\n      swap1\n      dup2\n      mstore\n      0x20\n      add\n      0x00\n      keccak256\n      sload\n        /* \"contracts/Stake.sol\":5375:5402  TotalProfit[msg.sender] > 0 */\n      gt\n        /* \"contracts/Stake.sol\":5367:5433  require(TotalProfit[msg.sender] > 0,\"Wallet Address is not Exist\") */\n      tag_98\n      jumpi\n      mload(0x40)\n      0x08c379a000000000000000000000000000000000000000000000000000000000\n      dup2\n      mstore\n      0x04\n      add\n      tag_99\n      swap1\n      tag_100\n      jump\t// in\n    tag_99:\n      mload(0x40)\n      dup1\n      swap2\n      sub\n      swap1\n      revert\n    tag_98:\n        /* \"contracts/Stake.sol\":5443:5454  uint profit */\n      0x00\n        /* \"contracts/Stake.sol\":5457:5468  TotalProfit */\n      0x05\n        /* \"contracts/Stake.sol\":5457:5480  TotalProfit[msg.sender] */\n      0x00\n        /* \"contracts/Stake.sol\":5469:5479  msg.sender */\n      caller\n        /* \"contracts/Stake.sol\":5457:5480  TotalProfit[msg.sender] */\n      0xffffffffffffffffffffffffffffffffffffffff\n      and\n      0xffffffffffffffffffffffffffffffffffffffff\n      and\n      dup2\n      mstore\n      0x20\n      add\n      swap1\n      dup2\n      mstore\n      0x20\n      add\n      0x00\n      keccak256\n      sload\n        /* \"contracts/Stake.sol\":5443:5480  uint profit = TotalProfit[msg.sender] */\n      swap1\n      pop\n        /* \"contracts/Stake.sol\":5497:5503  profit */\n      dup1\n        /* \"contracts/Stake.sol\":5490:5503  return profit */\n      swap2\n      pop\n      pop\n        /* \"contracts/Stake.sol\":5304:5510  function TotalProfitedAmt() public view returns(uint){... */\n      swap1\n      jump\t// out\n        /* \"contracts/Stake.sol\":7194:8790  function unStake(uint256 _stakeid) public returns (bool){         ... */\n    tag_42:\n        /* \"contracts/Stake.sol\":7245:7249  bool */\n      0x00\n        /* \"contracts/Stake.sol\":7278:7291  uint totalAmt */\n      dup1\n        /* \"contracts/Stake.sol\":7301:7312  uint profit */\n      0x00\n        /* \"contracts/Stake.sol\":7322:7342  uint remainingProfit */\n      dup1\n        /* \"contracts/Stake.sol\":7352:7364  address user */\n      0x00\n        /* \"contracts/Stake.sol\":7365:7375  msg.sender */\n      caller\n        /* \"contracts/Stake.sol\":7352:7375  address user=msg.sender */\n      swap1\n      pop\n        /* \"contracts/Stake.sol\":7385:7398  uint locktime */\n      0x00\n        /* \"contracts/Stake.sol\":7399:7406  staking */\n      0x03\n        /* \"contracts/Stake.sol\":7399:7412  staking[user] */\n      0x00\n        /* \"contracts/Stake.sol\":7407:7411  user */\n      dup4\n        /* \"contracts/Stake.sol\":7399:7412  staking[user] */\n      0xffffffffffffffffffffffffffffffffffffffff\n      and\n      0xffffffffffffffffffffffffffffffffffffffff\n      and\n      dup2\n      mstore\n      0x20\n      add\n      swap1\n      dup2\n      mstore\n      0x20\n      add\n      0x00\n      keccak256\n        /* \"contracts/Stake.sol\":7399:7422  staking[user][_stakeid] */\n      0x00\n        /* \"contracts/Stake.sol\":7413:7421  _stakeid */\n      dup9\n        /* \"contracts/Stake.sol\":7399:7422  staking[user][_stakeid] */\n      dup2\n      mstore\n      0x20\n      add\n      swap1\n      dup2\n      mstore\n      0x20\n      add\n      0x00\n      keccak256\n        /* \"contracts/Stake.sol\":7399:7438  staking[user][_stakeid]._stakingEndtime */\n      0x02\n      add\n      sload\n        /* \"contracts/Stake.sol\":7385:7438  uint locktime=staking[user][_stakeid]._stakingEndtime */\n      swap1\n      pop\n        /* \"contracts/Stake.sol\":7492:7493  0 */\n      0x00\n        /* \"contracts/Stake.sol\":7458:7465  staking */\n      0x03\n        /* \"contracts/Stake.sol\":7458:7471  staking[user] */\n      0x00\n        /* \"contracts/Stake.sol\":7466:7470  user */\n      dup5\n        /* \"contracts/Stake.sol\":7458:7471  staking[user] */\n      0xffffffffffffffffffffffffffffffffffffffff\n      and\n      0xffffffffffffffffffffffffffffffffffffffff\n      and\n      dup2\n      mstore\n      0x20\n      add\n      swap1\n      dup2\n      mstore\n      0x20\n      add\n      0x00\n      keccak256\n        /* \"contracts/Stake.sol\":7458:7481  staking[user][_stakeid] */\n      0x00\n        /* \"contracts/Stake.sol\":7472:7480  _stakeid */\n      dup10\n        /* \"contracts/Stake.sol\":7458:7481  staking[user][_stakeid] */\n      dup2\n      mstore\n      0x20\n      add\n      swap1\n      dup2\n      mstore\n      0x20\n      add\n      0x00\n      keccak256\n        /* \"contracts/Stake.sol\":7458:7489  staking[user][_stakeid]._amount */\n      0x03\n      add\n      sload\n        /* \"contracts/Stake.sol\":7458:7493  staking[user][_stakeid]._amount > 0 */\n      gt\n        /* \"contracts/Stake.sol\":7450:7524  require(staking[user][_stakeid]._amount > 0,\"Wallet Address is not Exist\") */\n      tag_102\n      jumpi\n      mload(0x40)\n      0x08c379a000000000000000000000000000000000000000000000000000000000\n      dup2\n      mstore\n      0x04\n      add\n      tag_103\n      swap1\n      tag_100\n      jump\t// in\n    tag_103:\n      mload(0x40)\n      dup1\n      swap2\n      sub\n      swap1\n      revert\n    tag_102:\n        /* \"contracts/Stake.sol\":7568:7576  locktime */\n      dup1\n        /* \"contracts/Stake.sol\":7550:7565  block.timestamp */\n      timestamp\n        /* \"contracts/Stake.sol\":7550:7576  block.timestamp > locktime */\n      gt\n        /* \"contracts/Stake.sol\":7547:7892  if(block.timestamp > locktime){... */\n      iszero\n      tag_104\n      jumpi\n        /* \"contracts/Stake.sol\":7599:7606  staking */\n      0x03\n        /* \"contracts/Stake.sol\":7599:7612  staking[user] */\n      0x00\n        /* \"contracts/Stake.sol\":7607:7611  user */\n      dup4\n        /* \"contracts/Stake.sol\":7599:7612  staking[user] */\n      0xffffffffffffffffffffffffffffffffffffffff\n      and\n      0xffffffffffffffffffffffffffffffffffffffff\n      and\n      dup2\n      mstore\n      0x20\n      add\n      swap1\n      dup2\n      mstore\n      0x20\n      add\n      0x00\n      keccak256\n        /* \"contracts/Stake.sol\":7599:7622  staking[user][_stakeid] */\n      0x00\n        /* \"contracts/Stake.sol\":7613:7621  _stakeid */\n      dup9\n        /* \"contracts/Stake.sol\":7599:7622  staking[user][_stakeid] */\n      dup2\n      mstore\n      0x20\n      add\n      swap1\n      dup2\n      mstore\n      0x20\n      add\n      0x00\n      keccak256\n        /* \"contracts/Stake.sol\":7599:7630  staking[user][_stakeid]._profit */\n      0x04\n      add\n      sload\n        /* \"contracts/Stake.sol\":7591:7630  profit= staking[user][_stakeid]._profit */\n      swap4\n      pop\n        /* \"contracts/Stake.sol\":7687:7693  profit */\n      dup4\n        /* \"contracts/Stake.sol\":7654:7661  staking */\n      0x03\n        /* \"contracts/Stake.sol\":7654:7667  staking[user] */\n      0x00\n        /* \"contracts/Stake.sol\":7662:7666  user */\n      dup5\n        /* \"contracts/Stake.sol\":7654:7667  staking[user] */\n      0xffffffffffffffffffffffffffffffffffffffff\n      and\n      0xffffffffffffffffffffffffffffffffffffffff\n      and\n      dup2\n      mstore\n      0x20\n      add\n      swap1\n      dup2\n      mstore\n      0x20\n      add\n      0x00\n      keccak256\n        /* \"contracts/Stake.sol\":7654:7677  staking[user][_stakeid] */\n      0x00\n        /* \"contracts/Stake.sol\":7668:7676  _stakeid */\n      dup10\n        /* \"contracts/Stake.sol\":7654:7677  staking[user][_stakeid] */\n      dup2\n      mstore\n      0x20\n      add\n      swap1\n      dup2\n      mstore\n      0x20\n      add\n      0x00\n      keccak256\n        /* \"contracts/Stake.sol\":7654:7685  staking[user][_stakeid]._amount */\n      0x03\n      add\n      sload\n        /* \"contracts/Stake.sol\":7654:7693  staking[user][_stakeid]._amount+ profit */\n      tag_105\n      swap2\n      swap1\n      tag_106\n      jump\t// in\n    tag_105:\n        /* \"contracts/Stake.sol\":7644:7693  totalAmt= staking[user][_stakeid]._amount+ profit */\n      swap5\n      pop\n        /* \"contracts/Stake.sol\":7547:7892  if(block.timestamp > locktime){... */\n      jump(tag_107)\n    tag_104:\n        /* \"contracts/Stake.sol\":7730:7737  staking */\n      0x03\n        /* \"contracts/Stake.sol\":7730:7743  staking[user] */\n      0x00\n        /* \"contracts/Stake.sol\":7738:7742  user */\n      dup4\n        /* \"contracts/Stake.sol\":7730:7743  staking[user] */\n      0xffffffffffffffffffffffffffffffffffffffff\n      and\n      0xffffffffffffffffffffffffffffffffffffffff\n      and\n      dup2\n      mstore\n      0x20\n      add\n      swap1\n      dup2\n      mstore\n      0x20\n      add\n      0x00\n      keccak256\n        /* \"contracts/Stake.sol\":7730:7753  staking[user][_stakeid] */\n      0x00\n        /* \"contracts/Stake.sol\":7744:7752  _stakeid */\n      dup9\n        /* \"contracts/Stake.sol\":7730:7753  staking[user][_stakeid] */\n      dup2\n      mstore\n      0x20\n      add\n      swap1\n      dup2\n      mstore\n      0x20\n      add\n      0x00\n      keccak256\n        /* \"contracts/Stake.sol\":7730:7761  staking[user][_stakeid]._profit */\n      0x04\n      add\n      sload\n        /* \"contracts/Stake.sol\":7722:7761  profit= staking[user][_stakeid]._profit */\n      swap4\n      pop\n        /* \"contracts/Stake.sol\":7798:7799  2 */\n      0x02\n        /* \"contracts/Stake.sol\":7791:7797  profit */\n      dup5\n        /* \"contracts/Stake.sol\":7791:7799  profit/2 */\n      tag_108\n      swap2\n      swap1\n      tag_109\n      jump\t// in\n    tag_108:\n        /* \"contracts/Stake.sol\":7775:7799  remainingProfit=profit/2 */\n      swap3\n      pop\n        /* \"contracts/Stake.sol\":7866:7881  remainingProfit */\n      dup3\n        /* \"contracts/Stake.sol\":7833:7840  staking */\n      0x03\n        /* \"contracts/Stake.sol\":7833:7846  staking[user] */\n      0x00\n        /* \"contracts/Stake.sol\":7841:7845  user */\n      dup5\n        /* \"contracts/Stake.sol\":7833:7846  staking[user] */\n      0xffffffffffffffffffffffffffffffffffffffff\n      and\n      0xffffffffffffffffffffffffffffffffffffffff\n      and\n      dup2\n      mstore\n      0x20\n      add\n      swap1\n      dup2\n      mstore\n      0x20\n      add\n      0x00\n      keccak256\n        /* \"contracts/Stake.sol\":7833:7856  staking[user][_stakeid] */\n      0x00\n        /* \"contracts/Stake.sol\":7847:7855  _stakeid */\n      dup10\n        /* \"contracts/Stake.sol\":7833:7856  staking[user][_stakeid] */\n      dup2\n      mstore\n      0x20\n      add\n      swap1\n      dup2\n      mstore\n      0x20\n      add\n      0x00\n      keccak256\n        /* \"contracts/Stake.sol\":7833:7864  staking[user][_stakeid]._amount */\n      0x03\n      add\n      sload\n        /* \"contracts/Stake.sol\":7833:7881  staking[user][_stakeid]._amount+ remainingProfit */\n      tag_110\n      swap2\n      swap1\n      tag_106\n      jump\t// in\n    tag_110:\n        /* \"contracts/Stake.sol\":7823:7881  totalAmt= staking[user][_stakeid]._amount+ remainingProfit */\n      swap5\n      pop\n        /* \"contracts/Stake.sol\":7547:7892  if(block.timestamp > locktime){... */\n    tag_107:\n        /* \"contracts/Stake.sol\":7938:7939  1 */\n      0x01\n        /* \"contracts/Stake.sol\":7920:7931  activeStake */\n      0x04\n        /* \"contracts/Stake.sol\":7920:7937  activeStake[user] */\n      0x00\n        /* \"contracts/Stake.sol\":7932:7936  user */\n      dup5\n        /* \"contracts/Stake.sol\":7920:7937  activeStake[user] */\n      0xffffffffffffffffffffffffffffffffffffffff\n      and\n      0xffffffffffffffffffffffffffffffffffffffff\n      and\n      dup2\n      mstore\n      0x20\n      add\n      swap1\n      dup2\n      mstore\n      0x20\n      add\n      0x00\n      keccak256\n      sload\n        /* \"contracts/Stake.sol\":7920:7939  activeStake[user]-1 */\n      tag_111\n      swap2\n      swap1\n      tag_112\n      jump\t// in\n    tag_111:\n        /* \"contracts/Stake.sol\":7902:7913  activeStake */\n      0x04\n        /* \"contracts/Stake.sol\":7902:7919  activeStake[user] */\n      0x00\n        /* \"contracts/Stake.sol\":7914:7918  user */\n      dup5\n        /* \"contracts/Stake.sol\":7902:7919  activeStake[user] */\n      0xffffffffffffffffffffffffffffffffffffffff\n      and\n      0xffffffffffffffffffffffffffffffffffffffff\n      and\n      dup2\n      mstore\n      0x20\n      add\n      swap1\n      dup2\n      mstore\n      0x20\n      add\n      0x00\n      keccak256\n        /* \"contracts/Stake.sol\":7902:7939  activeStake[user]=activeStake[user]-1 */\n      dup2\n      swap1\n      sstore\n      pop\n        /* \"contracts/Stake.sol\":7959:7970  activeStake */\n      0x04\n        /* \"contracts/Stake.sol\":7959:7976  activeStake[user] */\n      0x00\n        /* \"contracts/Stake.sol\":7971:7975  user */\n      dup4\n        /* \"contracts/Stake.sol\":7959:7976  activeStake[user] */\n      0xffffffffffffffffffffffffffffffffffffffff\n      and\n      0xffffffffffffffffffffffffffffffffffffffff\n      and\n      dup2\n      mstore\n      0x20\n      add\n      swap1\n      dup2\n      mstore\n      0x20\n      add\n      0x00\n      keccak256\n      sload\n        /* \"contracts/Stake.sol\":7949:7958  lastStake */\n      0x07\n        /* \"contracts/Stake.sol\":7949:7976  lastStake=activeStake[user] */\n      dup2\n      swap1\n      sstore\n      pop\n        /* \"contracts/Stake.sol\":8019:8026  staking */\n      0x03\n        /* \"contracts/Stake.sol\":8019:8032  staking[user] */\n      0x00\n        /* \"contracts/Stake.sol\":8027:8031  user */\n      dup4\n        /* \"contracts/Stake.sol\":8019:8032  staking[user] */\n      0xffffffffffffffffffffffffffffffffffffffff\n      and\n      0xffffffffffffffffffffffffffffffffffffffff\n      and\n      dup2\n      mstore\n      0x20\n      add\n      swap1\n      dup2\n      mstore\n      0x20\n      add\n      0x00\n      keccak256\n        /* \"contracts/Stake.sol\":8019:8043  staking[user][lastStake] */\n      0x00\n        /* \"contracts/Stake.sol\":8033:8042  lastStake */\n      sload(0x07)\n        /* \"contracts/Stake.sol\":8019:8043  staking[user][lastStake] */\n      dup2\n      mstore\n      0x20\n      add\n      swap1\n      dup2\n      mstore\n      0x20\n      add\n      0x00\n      keccak256\n        /* \"contracts/Stake.sol\":8019:8049  staking[user][lastStake]._days */\n      0x00\n      add\n      sload\n        /* \"contracts/Stake.sol\":7987:7994  staking */\n      0x03\n        /* \"contracts/Stake.sol\":7987:8000  staking[user] */\n      0x00\n        /* \"contracts/Stake.sol\":7995:7999  user */\n      dup5\n        /* \"contracts/Stake.sol\":7987:8000  staking[user] */\n      0xffffffffffffffffffffffffffffffffffffffff\n      and\n      0xffffffffffffffffffffffffffffffffffffffff\n      and\n      dup2\n      mstore\n      0x20\n      add\n      swap1\n      dup2\n      mstore\n      0x20\n      add\n      0x00\n      keccak256\n        /* \"contracts/Stake.sol\":7987:8010  staking[user][_stakeid] */\n      0x00\n        /* \"contracts/Stake.sol\":8001:8009  _stakeid */\n      dup10\n        /* \"contracts/Stake.sol\":7987:8010  staking[user][_stakeid] */\n      dup2\n      mstore\n      0x20\n      add\n      swap1\n      dup2\n      mstore\n      0x20\n      add\n      0x00\n      keccak256\n        /* \"contracts/Stake.sol\":7987:8016  staking[user][_stakeid]._days */\n      0x00\n      add\n        /* \"contracts/Stake.sol\":7987:8049  staking[user][_stakeid]._days = staking[user][lastStake]._days */\n      dup2\n      swap1\n      sstore\n      pop\n        /* \"contracts/Stake.sol\":8093:8100  staking */\n      0x03\n        /* \"contracts/Stake.sol\":8093:8106  staking[user] */\n      0x00\n        /* \"contracts/Stake.sol\":8101:8105  user */\n      dup4\n        /* \"contracts/Stake.sol\":8093:8106  staking[user] */\n      0xffffffffffffffffffffffffffffffffffffffff\n      and\n      0xffffffffffffffffffffffffffffffffffffffff\n      and\n      dup2\n      mstore\n      0x20\n      add\n      swap1\n      dup2\n      mstore\n      0x20\n      add\n      0x00\n      keccak256\n        /* \"contracts/Stake.sol\":8093:8117  staking[user][lastStake] */\n      0x00\n        /* \"contracts/Stake.sol\":8107:8116  lastStake */\n      sload(0x07)\n        /* \"contracts/Stake.sol\":8093:8117  staking[user][lastStake] */\n      dup2\n      mstore\n      0x20\n      add\n      swap1\n      dup2\n      mstore\n      0x20\n      add\n      0x00\n      keccak256\n        /* \"contracts/Stake.sol\":8093:8125  staking[user][lastStake]._amount */\n      0x03\n      add\n      sload\n        /* \"contracts/Stake.sol\":8059:8066  staking */\n      0x03\n        /* \"contracts/Stake.sol\":8059:8072  staking[user] */\n      0x00\n        /* \"contracts/Stake.sol\":8067:8071  user */\n      dup5\n        /* \"contracts/Stake.sol\":8059:8072  staking[user] */\n      0xffffffffffffffffffffffffffffffffffffffff\n      and\n      0xffffffffffffffffffffffffffffffffffffffff\n      and\n      dup2\n      mstore\n      0x20\n      add\n      swap1\n      dup2\n      mstore\n      0x20\n      add\n      0x00\n      keccak256\n        /* \"contracts/Stake.sol\":8059:8082  staking[user][_stakeid] */\n      0x00\n        /* \"contracts/Stake.sol\":8073:8081  _stakeid */\n      dup10\n        /* \"contracts/Stake.sol\":8059:8082  staking[user][_stakeid] */\n      dup2\n      mstore\n      0x20\n      add\n      swap1\n      dup2\n      mstore\n      0x20\n      add\n      0x00\n      keccak256\n        /* \"contracts/Stake.sol\":8059:8090  staking[user][_stakeid]._amount */\n      0x03\n      add\n        /* \"contracts/Stake.sol\":8059:8125  staking[user][_stakeid]._amount = staking[user][lastStake]._amount */\n      dup2\n      swap1\n      sstore\n      pop\n        /* \"contracts/Stake.sol\":8179:8186  staking */\n      0x03\n        /* \"contracts/Stake.sol\":8179:8192  staking[user] */\n      0x00\n        /* \"contracts/Stake.sol\":8187:8191  user */\n      dup4\n        /* \"contracts/Stake.sol\":8179:8192  staking[user] */\n      0xffffffffffffffffffffffffffffffffffffffff\n      and\n      0xffffffffffffffffffffffffffffffffffffffff\n      and\n      dup2\n      mstore\n      0x20\n      add\n      swap1\n      dup2\n      mstore\n      0x20\n      add\n      0x00\n      keccak256\n        /* \"contracts/Stake.sol\":8179:8203  staking[user][lastStake] */\n      0x00\n        /* \"contracts/Stake.sol\":8193:8202  lastStake */\n      sload(0x07)\n        /* \"contracts/Stake.sol\":8179:8203  staking[user][lastStake] */\n      dup2\n      mstore\n      0x20\n      add\n      swap1\n      dup2\n      mstore\n      0x20\n      add\n      0x00\n      keccak256\n        /* \"contracts/Stake.sol\":8179:8221  staking[user][lastStake]._stakingStarttime */\n      0x01\n      add\n      sload\n        /* \"contracts/Stake.sol\":8135:8142  staking */\n      0x03\n        /* \"contracts/Stake.sol\":8135:8148  staking[user] */\n      0x00\n        /* \"contracts/Stake.sol\":8143:8147  user */\n      dup5\n        /* \"contracts/Stake.sol\":8135:8148  staking[user] */\n      0xffffffffffffffffffffffffffffffffffffffff\n      and\n      0xffffffffffffffffffffffffffffffffffffffff\n      and\n      dup2\n      mstore\n      0x20\n      add\n      swap1\n      dup2\n      mstore\n      0x20\n      add\n      0x00\n      keccak256\n        /* \"contracts/Stake.sol\":8135:8158  staking[user][_stakeid] */\n      0x00\n        /* \"contracts/Stake.sol\":8149:8157  _stakeid */\n      dup10\n        /* \"contracts/Stake.sol\":8135:8158  staking[user][_stakeid] */\n      dup2\n      mstore\n      0x20\n      add\n      swap1\n      dup2\n      mstore\n      0x20\n      add\n      0x00\n      keccak256\n        /* \"contracts/Stake.sol\":8135:8176  staking[user][_stakeid]._stakingStarttime */\n      0x01\n      add\n        /* \"contracts/Stake.sol\":8135:8221  staking[user][_stakeid]._stakingStarttime = staking[user][lastStake]._stakingStarttime */\n      dup2\n      swap1\n      sstore\n      pop\n        /* \"contracts/Stake.sol\":8273:8280  staking */\n      0x03\n        /* \"contracts/Stake.sol\":8273:8286  staking[user] */\n      0x00\n        /* \"contracts/Stake.sol\":8281:8285  user */\n      dup4\n        /* \"contracts/Stake.sol\":8273:8286  staking[user] */\n      0xffffffffffffffffffffffffffffffffffffffff\n      and\n      0xffffffffffffffffffffffffffffffffffffffff\n      and\n      dup2\n      mstore\n      0x20\n      add\n      swap1\n      dup2\n      mstore\n      0x20\n      add\n      0x00\n      keccak256\n        /* \"contracts/Stake.sol\":8273:8297  staking[user][lastStake] */\n      0x00\n        /* \"contracts/Stake.sol\":8287:8296  lastStake */\n      sload(0x07)\n        /* \"contracts/Stake.sol\":8273:8297  staking[user][lastStake] */\n      dup2\n      mstore\n      0x20\n      add\n      swap1\n      dup2\n      mstore\n      0x20\n      add\n      0x00\n      keccak256\n        /* \"contracts/Stake.sol\":8273:8313  staking[user][lastStake]._stakingEndtime */\n      0x02\n      add\n      sload\n        /* \"contracts/Stake.sol\":8231:8238  staking */\n      0x03\n        /* \"contracts/Stake.sol\":8231:8244  staking[user] */\n      0x00\n        /* \"contracts/Stake.sol\":8239:8243  user */\n      dup5\n        /* \"contracts/Stake.sol\":8231:8244  staking[user] */\n      0xffffffffffffffffffffffffffffffffffffffff\n      and\n      0xffffffffffffffffffffffffffffffffffffffff\n      and\n      dup2\n      mstore\n      0x20\n      add\n      swap1\n      dup2\n      mstore\n      0x20\n      add\n      0x00\n      keccak256\n        /* \"contracts/Stake.sol\":8231:8254  staking[user][_stakeid] */\n      0x00\n        /* \"contracts/Stake.sol\":8245:8253  _stakeid */\n      dup10\n        /* \"contracts/Stake.sol\":8231:8254  staking[user][_stakeid] */\n      dup2\n      mstore\n      0x20\n      add\n      swap1\n      dup2\n      mstore\n      0x20\n      add\n      0x00\n      keccak256\n        /* \"contracts/Stake.sol\":8231:8270  staking[user][_stakeid]._stakingEndtime */\n      0x02\n      add\n        /* \"contracts/Stake.sol\":8231:8313  staking[user][_stakeid]._stakingEndtime = staking[user][lastStake]._stakingEndtime */\n      dup2\n      swap1\n      sstore\n      pop\n        /* \"contracts/Stake.sol\":8357:8364  staking */\n      0x03\n        /* \"contracts/Stake.sol\":8357:8370  staking[user] */\n      0x00\n        /* \"contracts/Stake.sol\":8365:8369  user */\n      dup4\n        /* \"contracts/Stake.sol\":8357:8370  staking[user] */\n      0xffffffffffffffffffffffffffffffffffffffff\n      and\n      0xffffffffffffffffffffffffffffffffffffffff\n      and\n      dup2\n      mstore\n      0x20\n      add\n      swap1\n      dup2\n      mstore\n      0x20\n      add\n      0x00\n      keccak256\n        /* \"contracts/Stake.sol\":8357:8381  staking[user][lastStake] */\n      0x00\n        /* \"contracts/Stake.sol\":8371:8380  lastStake */\n      sload(0x07)\n        /* \"contracts/Stake.sol\":8357:8381  staking[user][lastStake] */\n      dup2\n      mstore\n      0x20\n      add\n      swap1\n      dup2\n      mstore\n      0x20\n      add\n      0x00\n      keccak256\n        /* \"contracts/Stake.sol\":8357:8389  staking[user][lastStake]._profit */\n      0x04\n      add\n      sload\n        /* \"contracts/Stake.sol\":8323:8330  staking */\n      0x03\n        /* \"contracts/Stake.sol\":8323:8336  staking[user] */\n      0x00\n        /* \"contracts/Stake.sol\":8331:8335  user */\n      dup5\n        /* \"contracts/Stake.sol\":8323:8336  staking[user] */\n      0xffffffffffffffffffffffffffffffffffffffff\n      and\n      0xffffffffffffffffffffffffffffffffffffffff\n      and\n      dup2\n      mstore\n      0x20\n      add\n      swap1\n      dup2\n      mstore\n      0x20\n      add\n      0x00\n      keccak256\n        /* \"contracts/Stake.sol\":8323:8346  staking[user][_stakeid] */\n      0x00\n        /* \"contracts/Stake.sol\":8337:8345  _stakeid */\n      dup10\n        /* \"contracts/Stake.sol\":8323:8346  staking[user][_stakeid] */\n      dup2\n      mstore\n      0x20\n      add\n      swap1\n      dup2\n      mstore\n      0x20\n      add\n      0x00\n      keccak256\n        /* \"contracts/Stake.sol\":8323:8354  staking[user][_stakeid]._profit */\n      0x04\n      add\n        /* \"contracts/Stake.sol\":8323:8389  staking[user][_stakeid]._profit = staking[user][lastStake]._profit */\n      dup2\n      swap1\n      sstore\n      pop\n        /* \"contracts/Stake.sol\":8441:8442  0 */\n      0x00\n        /* \"contracts/Stake.sol\":8408:8415  staking */\n      0x03\n        /* \"contracts/Stake.sol\":8408:8421  staking[user] */\n      0x00\n        /* \"contracts/Stake.sol\":8416:8420  user */\n      dup5\n        /* \"contracts/Stake.sol\":8408:8421  staking[user] */\n      0xffffffffffffffffffffffffffffffffffffffff\n      and\n      0xffffffffffffffffffffffffffffffffffffffff\n      and\n      dup2\n      mstore\n      0x20\n      add\n      swap1\n      dup2\n      mstore\n      0x20\n      add\n      0x00\n      keccak256\n        /* \"contracts/Stake.sol\":8408:8432  staking[user][lastStake] */\n      0x00\n        /* \"contracts/Stake.sol\":8422:8431  lastStake */\n      sload(0x07)\n        /* \"contracts/Stake.sol\":8408:8432  staking[user][lastStake] */\n      dup2\n      mstore\n      0x20\n      add\n      swap1\n      dup2\n      mstore\n      0x20\n      add\n      0x00\n      keccak256\n        /* \"contracts/Stake.sol\":8408:8438  staking[user][lastStake]._days */\n      0x00\n      add\n        /* \"contracts/Stake.sol\":8408:8442  staking[user][lastStake]._days = 0 */\n      dup2\n      swap1\n      sstore\n      pop\n        /* \"contracts/Stake.sol\":8487:8488  0 */\n      0x00\n        /* \"contracts/Stake.sol\":8452:8459  staking */\n      0x03\n        /* \"contracts/Stake.sol\":8452:8465  staking[user] */\n      0x00\n        /* \"contracts/Stake.sol\":8460:8464  user */\n      dup5\n        /* \"contracts/Stake.sol\":8452:8465  staking[user] */\n      0xffffffffffffffffffffffffffffffffffffffff\n      and\n      0xffffffffffffffffffffffffffffffffffffffff\n      and\n      dup2\n      mstore\n      0x20\n      add\n      swap1\n      dup2\n      mstore\n      0x20\n      add\n      0x00\n      keccak256\n        /* \"contracts/Stake.sol\":8452:8476  staking[user][lastStake] */\n      0x00\n        /* \"contracts/Stake.sol\":8466:8475  lastStake */\n      sload(0x07)\n        /* \"contracts/Stake.sol\":8452:8476  staking[user][lastStake] */\n      dup2\n      mstore\n      0x20\n      add\n      swap1\n      dup2\n      mstore\n      0x20\n      add\n      0x00\n      keccak256\n        /* \"contracts/Stake.sol\":8452:8484  staking[user][lastStake]._amount */\n      0x03\n      add\n        /* \"contracts/Stake.sol\":8452:8488  staking[user][lastStake]._amount = 0 */\n      dup2\n      swap1\n      sstore\n      pop\n        /* \"contracts/Stake.sol\":8543:8544  0 */\n      0x00\n        /* \"contracts/Stake.sol\":8498:8505  staking */\n      0x03\n        /* \"contracts/Stake.sol\":8498:8511  staking[user] */\n      0x00\n        /* \"contracts/Stake.sol\":8506:8510  user */\n      dup5\n        /* \"contracts/Stake.sol\":8498:8511  staking[user] */\n      0xffffffffffffffffffffffffffffffffffffffff\n      and\n      0xffffffffffffffffffffffffffffffffffffffff\n      and\n      dup2\n      mstore\n      0x20\n      add\n      swap1\n      dup2\n      mstore\n      0x20\n      add\n      0x00\n      keccak256\n        /* \"contracts/Stake.sol\":8498:8522  staking[user][lastStake] */\n      0x00\n        /* \"contracts/Stake.sol\":8512:8521  lastStake */\n      sload(0x07)\n        /* \"contracts/Stake.sol\":8498:8522  staking[user][lastStake] */\n      dup2\n      mstore\n      0x20\n      add\n      swap1\n      dup2\n      mstore\n      0x20\n      add\n      0x00\n      keccak256\n        /* \"contracts/Stake.sol\":8498:8540  staking[user][lastStake]._stakingStarttime */\n      0x01\n      add\n        /* \"contracts/Stake.sol\":8498:8544  staking[user][lastStake]._stakingStarttime = 0 */\n      dup2\n      swap1\n      sstore\n      pop\n        /* \"contracts/Stake.sol\":8597:8598  0 */\n      0x00\n        /* \"contracts/Stake.sol\":8554:8561  staking */\n      0x03\n        /* \"contracts/Stake.sol\":8554:8567  staking[user] */\n      0x00\n        /* \"contracts/Stake.sol\":8562:8566  user */\n      dup5\n        /* \"contracts/Stake.sol\":8554:8567  staking[user] */\n      0xffffffffffffffffffffffffffffffffffffffff\n      and\n      0xffffffffffffffffffffffffffffffffffffffff\n      and\n      dup2\n      mstore\n      0x20\n      add\n      swap1\n      dup2\n      mstore\n      0x20\n      add\n      0x00\n      keccak256\n        /* \"contracts/Stake.sol\":8554:8578  staking[user][lastStake] */\n      0x00\n        /* \"contracts/Stake.sol\":8568:8577  lastStake */\n      sload(0x07)\n        /* \"contracts/Stake.sol\":8554:8578  staking[user][lastStake] */\n      dup2\n      mstore\n      0x20\n      add\n      swap1\n      dup2\n      mstore\n      0x20\n      add\n      0x00\n      keccak256\n        /* \"contracts/Stake.sol\":8554:8594  staking[user][lastStake]._stakingEndtime */\n      0x02\n      add\n        /* \"contracts/Stake.sol\":8554:8598  staking[user][lastStake]._stakingEndtime = 0 */\n      dup2\n      swap1\n      sstore\n      pop\n        /* \"contracts/Stake.sol\":8643:8644  0 */\n      0x00\n        /* \"contracts/Stake.sol\":8608:8615  staking */\n      0x03\n        /* \"contracts/Stake.sol\":8608:8621  staking[user] */\n      0x00\n        /* \"contracts/Stake.sol\":8616:8620  user */\n      dup5\n        /* \"contracts/Stake.sol\":8608:8621  staking[user] */\n      0xffffffffffffffffffffffffffffffffffffffff\n      and\n      0xffffffffffffffffffffffffffffffffffffffff\n      and\n      dup2\n      mstore\n      0x20\n      add\n      swap1\n      dup2\n      mstore\n      0x20\n      add\n      0x00\n      keccak256\n        /* \"contracts/Stake.sol\":8608:8632  staking[user][lastStake] */\n      0x00\n        /* \"contracts/Stake.sol\":8622:8631  lastStake */\n      sload(0x07)\n        /* \"contracts/Stake.sol\":8608:8632  staking[user][lastStake] */\n      dup2\n      mstore\n      0x20\n      add\n      swap1\n      dup2\n      mstore\n      0x20\n      add\n      0x00\n      keccak256\n        /* \"contracts/Stake.sol\":8608:8640  staking[user][lastStake]._profit */\n      0x04\n      add\n        /* \"contracts/Stake.sol\":8608:8644  staking[user][lastStake]._profit = 0 */\n      dup2\n      swap1\n      sstore\n      pop\n        /* \"contracts/Stake.sol\":8662:8674  tokenAddress */\n      0x02\n      0x00\n      swap1\n      sload\n      swap1\n      0x0100\n      exp\n      swap1\n      div\n      0xffffffffffffffffffffffffffffffffffffffff\n      and\n        /* \"contracts/Stake.sol\":8655:8684  TokenI(tokenAddress).transfer */\n      0xffffffffffffffffffffffffffffffffffffffff\n      and\n      0xa9059cbb\n        /* \"contracts/Stake.sol\":8685:8689  user */\n      dup4\n        /* \"contracts/Stake.sol\":8691:8699  totalAmt */\n      dup8\n        /* \"contracts/Stake.sol\":8655:8700  TokenI(tokenAddress).transfer(user, totalAmt) */\n      mload(0x40)\n      dup4\n      0xffffffff\n      and\n      0xe0\n      shl\n      dup2\n      mstore\n      0x04\n      add\n      tag_113\n      swap3\n      swap2\n      swap1\n      tag_114\n      jump\t// in\n    tag_113:\n      0x20\n      mload(0x40)\n      dup1\n      dup4\n      sub\n      dup2\n      0x00\n      dup8\n      gas\n      call\n      iszero\n      dup1\n      iszero\n      tag_116\n      jumpi\n      returndatasize\n      0x00\n      dup1\n      returndatacopy\n      revert(0x00, returndatasize)\n    tag_116:\n      pop\n      pop\n      pop\n      pop\n      mload(0x40)\n      returndatasize\n      not(0x1f)\n      0x1f\n      dup3\n      add\n      and\n      dup3\n      add\n      dup1\n      0x40\n      mstore\n      pop\n      dup2\n      add\n      swap1\n      tag_117\n      swap2\n      swap1\n      tag_90\n      jump\t// in\n    tag_117:\n      pop\n        /* \"contracts/Stake.sol\":8717:8748  unstake(_stakeid,user,totalAmt) */\n      0x51a7c71612bbc91e40c8399a943910073e3e8efe41f5904135677ee75e995aa4\n        /* \"contracts/Stake.sol\":8725:8733  _stakeid */\n      dup8\n        /* \"contracts/Stake.sol\":8734:8738  user */\n      dup4\n        /* \"contracts/Stake.sol\":8739:8747  totalAmt */\n      dup8\n        /* \"contracts/Stake.sol\":8717:8748  unstake(_stakeid,user,totalAmt) */\n      mload(0x40)\n      tag_118\n      swap4\n      swap3\n      swap2\n      swap1\n      tag_119\n      jump\t// in\n    tag_118:\n      mload(0x40)\n      dup1\n      swap2\n      sub\n      swap1\n      log1\n        /* \"contracts/Stake.sol\":8778:8782  true */\n      0x01\n        /* \"contracts/Stake.sol\":8771:8782  return true */\n      swap6\n      pop\n      pop\n      pop\n      pop\n      pop\n      pop\n        /* \"contracts/Stake.sol\":7194:8790  function unStake(uint256 _stakeid) public returns (bool){         ... */\n      swap2\n      swap1\n      pop\n      jump\t// out\n        /* \"contracts/Stake.sol\":1999:2136  function renounceOwnership() public onlyOwner {... */\n    tag_46:\n        /* \"contracts/Stake.sol\":1439:1448  isOwner() */\n      tag_121\n        /* \"contracts/Stake.sol\":1439:1446  isOwner */\n      tag_57\n        /* \"contracts/Stake.sol\":1439:1448  isOwner() */\n      jump\t// in\n    tag_121:\n        /* \"contracts/Stake.sol\":1431:1449  require(isOwner()) */\n      tag_122\n      jumpi\n      0x00\n      dup1\n      revert\n    tag_122:\n        /* \"contracts/Stake.sol\":2097:2098  0 */\n      0x00\n        /* \"contracts/Stake.sol\":2060:2100  OwnershipTransferred(_owner, address(0)) */\n      0xffffffffffffffffffffffffffffffffffffffff\n      and\n        /* \"contracts/Stake.sol\":2081:2087  _owner */\n      0x00\n      dup1\n      sload\n      swap1\n      0x0100\n      exp\n      swap1\n      div\n      0xffffffffffffffffffffffffffffffffffffffff\n      and\n        /* \"contracts/Stake.sol\":2060:2100  OwnershipTransferred(_owner, address(0)) */\n      0xffffffffffffffffffffffffffffffffffffffff\n      and\n      0x8be0079c531659141344cd1fd0a4f28419497f9722a3daafe3b4186f6b6457e0\n      mload(0x40)\n      mload(0x40)\n      dup1\n      swap2\n      sub\n      swap1\n      log3\n        /* \"contracts/Stake.sol\":2127:2128  0 */\n      0x00\n        /* \"contracts/Stake.sol\":2110:2116  _owner */\n      dup1\n      0x00\n        /* \"contracts/Stake.sol\":2110:2129  _owner = address(0) */\n      0x0100\n      exp\n      dup2\n      sload\n      dup2\n      0xffffffffffffffffffffffffffffffffffffffff\n      mul\n      not\n      and\n      swap1\n      dup4\n      0xffffffffffffffffffffffffffffffffffffffff\n      and\n      mul\n      or\n      swap1\n      sstore\n      pop\n        /* \"contracts/Stake.sol\":1999:2136  function renounceOwnership() public onlyOwner {... */\n      jump\t// out\n        /* \"contracts/Stake.sol\":5782:6789  function stake(uint _staketime , uint _stakeamount) public returns (bool){... */\n    tag_50:\n        /* \"contracts/Stake.sol\":5850:5854  bool */\n      0x00\n        /* \"contracts/Stake.sol\":5895:5896  0 */\n      dup1\n        /* \"contracts/Stake.sol\":5873:5897  msg.sender != address(0) */\n      0xffffffffffffffffffffffffffffffffffffffff\n      and\n        /* \"contracts/Stake.sol\":5873:5883  msg.sender */\n      caller\n        /* \"contracts/Stake.sol\":5873:5897  msg.sender != address(0) */\n      0xffffffffffffffffffffffffffffffffffffffff\n      and\n      sub\n        /* \"contracts/Stake.sol\":5865:5936  require(msg.sender != address(0),\"Wallet Address can not be address 0\") */\n      tag_125\n      jumpi\n      mload(0x40)\n      0x08c379a000000000000000000000000000000000000000000000000000000000\n      dup2\n      mstore\n      0x04\n      add\n      tag_126\n      swap1\n      tag_127\n      jump\t// in\n    tag_126:\n      mload(0x40)\n      dup1\n      swap2\n      sub\n      swap1\n      revert\n    tag_125:\n        /* \"contracts/Stake.sol\":6001:6013  _stakeamount */\n      dup2\n        /* \"contracts/Stake.sol\":5963:5975  tokenAddress */\n      0x02\n      0x00\n      swap1\n      sload\n      swap1\n      0x0100\n      exp\n      swap1\n      div\n      0xffffffffffffffffffffffffffffffffffffffff\n      and\n        /* \"contracts/Stake.sol\":5956:5986  TokenI(tokenAddress).balanceOf */\n      0xffffffffffffffffffffffffffffffffffffffff\n      and\n      0x70a08231\n        /* \"contracts/Stake.sol\":5987:5997  msg.sender */\n      caller\n        /* \"contracts/Stake.sol\":5956:5998  TokenI(tokenAddress).balanceOf(msg.sender) */\n      mload(0x40)\n      dup3\n      0xffffffff\n      and\n      0xe0\n      shl\n      dup2\n      mstore\n      0x04\n      add\n      tag_128\n      swap2\n      swap1\n      tag_55\n      jump\t// in\n    tag_128:\n      0x20\n      mload(0x40)\n      dup1\n      dup4\n      sub\n      dup2\n      0x00\n      dup8\n      gas\n      call\n      iszero\n      dup1\n      iszero\n      tag_130\n      jumpi\n      returndatasize\n      0x00\n      dup1\n      returndatacopy\n      revert(0x00, returndatasize)\n    tag_130:\n      pop\n      pop\n      pop\n      pop\n      mload(0x40)\n      returndatasize\n      not(0x1f)\n      0x1f\n      dup3\n      add\n      and\n      dup3\n      add\n      dup1\n      0x40\n      mstore\n      pop\n      dup2\n      add\n      swap1\n      tag_131\n      swap2\n      swap1\n      tag_132\n      jump\t// in\n    tag_131:\n        /* \"contracts/Stake.sol\":5956:6013  TokenI(tokenAddress).balanceOf(msg.sender) > _stakeamount */\n      gt\n        /* \"contracts/Stake.sol\":5948:6037  require(TokenI(tokenAddress).balanceOf(msg.sender) > _stakeamount, \"Insufficient tokens\") */\n      tag_133\n      jumpi\n      mload(0x40)\n      0x08c379a000000000000000000000000000000000000000000000000000000000\n      dup2\n      mstore\n      0x04\n      add\n      tag_134\n      swap1\n      tag_135\n      jump\t// in\n    tag_134:\n      mload(0x40)\n      dup1\n      swap2\n      sub\n      swap1\n      revert\n    tag_133:\n        /* \"contracts/Stake.sol\":6086:6087  0 */\n      0x00\n        /* \"contracts/Stake.sol\":6055:6071  RewardPercentage */\n      0x06\n        /* \"contracts/Stake.sol\":6055:6083  RewardPercentage[_staketime] */\n      0x00\n        /* \"contracts/Stake.sol\":6072:6082  _staketime */\n      dup6\n        /* \"contracts/Stake.sol\":6055:6083  RewardPercentage[_staketime] */\n      dup2\n      mstore\n      0x20\n      add\n      swap1\n      dup2\n      mstore\n      0x20\n      add\n      0x00\n      keccak256\n      sload\n        /* \"contracts/Stake.sol\":6055:6087  RewardPercentage[_staketime] > 0 */\n      gt\n        /* \"contracts/Stake.sol\":6047:6120  require(RewardPercentage[_staketime] > 0,\"Please enter valid stack days\") */\n      tag_136\n      jumpi\n      mload(0x40)\n      0x08c379a000000000000000000000000000000000000000000000000000000000\n      dup2\n      mstore\n      0x04\n      add\n      tag_137\n      swap1\n      tag_138\n      jump\t// in\n    tag_137:\n      mload(0x40)\n      dup1\n      swap2\n      sub\n      swap1\n      revert\n    tag_136:\n        /* \"contracts/Stake.sol\":6153:6154  0 */\n      0x00\n        /* \"contracts/Stake.sol\":6138:6150  _stakeamount */\n      dup3\n        /* \"contracts/Stake.sol\":6138:6154  _stakeamount > 0 */\n      gt\n        /* \"contracts/Stake.sol\":6130:6189  require(_stakeamount > 0,\"Amount should be greater then 0\") */\n      tag_139\n      jumpi\n      mload(0x40)\n      0x08c379a000000000000000000000000000000000000000000000000000000000\n      dup2\n      mstore\n      0x04\n      add\n      tag_140\n      swap1\n      tag_84\n      jump\t// in\n    tag_140:\n      mload(0x40)\n      dup1\n      swap2\n      sub\n      swap1\n      revert\n    tag_139:\n        /* \"contracts/Stake.sol\":6216:6227  uint profit */\n      0x00\n        /* \"contracts/Stake.sol\":6274:6279  10000 */\n      0x2710\n        /* \"contracts/Stake.sol\":6245:6261  RewardPercentage */\n      0x06\n        /* \"contracts/Stake.sol\":6245:6273  RewardPercentage[_staketime] */\n      0x00\n        /* \"contracts/Stake.sol\":6262:6272  _staketime */\n      dup7\n        /* \"contracts/Stake.sol\":6245:6273  RewardPercentage[_staketime] */\n      dup2\n      mstore\n      0x20\n      add\n      swap1\n      dup2\n      mstore\n      0x20\n      add\n      0x00\n      keccak256\n      sload\n        /* \"contracts/Stake.sol\":6230:6242  _stakeamount */\n      dup5\n        /* \"contracts/Stake.sol\":6230:6273  _stakeamount * RewardPercentage[_staketime] */\n      tag_141\n      swap2\n      swap1\n      tag_142\n      jump\t// in\n    tag_141:\n        /* \"contracts/Stake.sol\":6230:6279  _stakeamount * RewardPercentage[_staketime]/10000 */\n      tag_143\n      swap2\n      swap1\n      tag_109\n      jump\t// in\n    tag_143:\n        /* \"contracts/Stake.sol\":6216:6279  uint profit = _stakeamount * RewardPercentage[_staketime]/10000 */\n      swap1\n      pop\n        /* \"contracts/Stake.sol\":6346:6352  profit */\n      dup1\n        /* \"contracts/Stake.sol\":6322:6333  TotalProfit */\n      0x05\n        /* \"contracts/Stake.sol\":6322:6345  TotalProfit[msg.sender] */\n      0x00\n        /* \"contracts/Stake.sol\":6334:6344  msg.sender */\n      caller\n        /* \"contracts/Stake.sol\":6322:6345  TotalProfit[msg.sender] */\n      0xffffffffffffffffffffffffffffffffffffffff\n      and\n      0xffffffffffffffffffffffffffffffffffffffff\n      and\n      dup2\n      mstore\n      0x20\n      add\n      swap1\n      dup2\n      mstore\n      0x20\n      add\n      0x00\n      keccak256\n      sload\n        /* \"contracts/Stake.sol\":6322:6352  TotalProfit[msg.sender]+profit */\n      tag_144\n      swap2\n      swap1\n      tag_106\n      jump\t// in\n    tag_144:\n        /* \"contracts/Stake.sol\":6298:6309  TotalProfit */\n      0x05\n        /* \"contracts/Stake.sol\":6298:6321  TotalProfit[msg.sender] */\n      0x00\n        /* \"contracts/Stake.sol\":6310:6320  msg.sender */\n      caller\n        /* \"contracts/Stake.sol\":6298:6321  TotalProfit[msg.sender] */\n      0xffffffffffffffffffffffffffffffffffffffff\n      and\n      0xffffffffffffffffffffffffffffffffffffffff\n      and\n      dup2\n      mstore\n      0x20\n      add\n      swap1\n      dup2\n      mstore\n      0x20\n      add\n      0x00\n      keccak256\n        /* \"contracts/Stake.sol\":6298:6352  TotalProfit[msg.sender]=TotalProfit[msg.sender]+profit */\n      dup2\n      swap1\n      sstore\n      pop\n        /* \"contracts/Stake.sol\":6411:6509  _staking(_staketime,block.timestamp,block.timestamp + (_staketime*(24*60*60)),_stakeamount,profit) */\n      mload(0x40)\n      dup1\n      0xa0\n      add\n      0x40\n      mstore\n      dup1\n        /* \"contracts/Stake.sol\":6420:6430  _staketime */\n      dup6\n        /* \"contracts/Stake.sol\":6411:6509  _staking(_staketime,block.timestamp,block.timestamp + (_staketime*(24*60*60)),_stakeamount,profit) */\n      dup2\n      mstore\n      0x20\n      add\n        /* \"contracts/Stake.sol\":6431:6446  block.timestamp */\n      timestamp\n        /* \"contracts/Stake.sol\":6411:6509  _staking(_staketime,block.timestamp,block.timestamp + (_staketime*(24*60*60)),_stakeamount,profit) */\n      dup2\n      mstore\n      0x20\n      add\n        /* \"contracts/Stake.sol\":6478:6486  24*60*60 */\n      0x015180\n        /* \"contracts/Stake.sol\":6466:6476  _staketime */\n      dup7\n        /* \"contracts/Stake.sol\":6466:6487  _staketime*(24*60*60) */\n      tag_145\n      swap2\n      swap1\n      tag_142\n      jump\t// in\n    tag_145:\n        /* \"contracts/Stake.sol\":6447:6462  block.timestamp */\n      timestamp\n        /* \"contracts/Stake.sol\":6447:6488  block.timestamp + (_staketime*(24*60*60)) */\n      tag_146\n      swap2\n      swap1\n      tag_106\n      jump\t// in\n    tag_146:\n        /* \"contracts/Stake.sol\":6411:6509  _staking(_staketime,block.timestamp,block.timestamp + (_staketime*(24*60*60)),_stakeamount,profit) */\n      dup2\n      mstore\n      0x20\n      add\n        /* \"contracts/Stake.sol\":6489:6501  _stakeamount */\n      dup5\n        /* \"contracts/Stake.sol\":6411:6509  _staking(_staketime,block.timestamp,block.timestamp + (_staketime*(24*60*60)),_stakeamount,profit) */\n      dup2\n      mstore\n      0x20\n      add\n        /* \"contracts/Stake.sol\":6502:6508  profit */\n      dup3\n        /* \"contracts/Stake.sol\":6411:6509  _staking(_staketime,block.timestamp,block.timestamp + (_staketime*(24*60*60)),_stakeamount,profit) */\n      dup2\n      mstore\n      pop\n        /* \"contracts/Stake.sol\":6363:6370  staking */\n      0x03\n        /* \"contracts/Stake.sol\":6363:6382  staking[msg.sender] */\n      0x00\n        /* \"contracts/Stake.sol\":6371:6381  msg.sender */\n      caller\n        /* \"contracts/Stake.sol\":6363:6382  staking[msg.sender] */\n      0xffffffffffffffffffffffffffffffffffffffff\n      and\n      0xffffffffffffffffffffffffffffffffffffffff\n      and\n      dup2\n      mstore\n      0x20\n      add\n      swap1\n      dup2\n      mstore\n      0x20\n      add\n      0x00\n      keccak256\n        /* \"contracts/Stake.sol\":6363:6407  staking[msg.sender][activeStake[msg.sender]] */\n      0x00\n        /* \"contracts/Stake.sol\":6383:6394  activeStake */\n      0x04\n        /* \"contracts/Stake.sol\":6383:6406  activeStake[msg.sender] */\n      0x00\n        /* \"contracts/Stake.sol\":6395:6405  msg.sender */\n      caller\n        /* \"contracts/Stake.sol\":6383:6406  activeStake[msg.sender] */\n      0xffffffffffffffffffffffffffffffffffffffff\n      and\n      0xffffffffffffffffffffffffffffffffffffffff\n      and\n      dup2\n      mstore\n      0x20\n      add\n      swap1\n      dup2\n      mstore\n      0x20\n      add\n      0x00\n      keccak256\n      sload\n        /* \"contracts/Stake.sol\":6363:6407  staking[msg.sender][activeStake[msg.sender]] */\n      dup2\n      mstore\n      0x20\n      add\n      swap1\n      dup2\n      mstore\n      0x20\n      add\n      0x00\n      keccak256\n        /* \"contracts/Stake.sol\":6363:6509  staking[msg.sender][activeStake[msg.sender]] =  _staking(_staketime,block.timestamp,block.timestamp + (_staketime*(24*60*60)),_stakeamount,profit) */\n      0x00\n      dup3\n      add\n      mload\n      dup2\n      0x00\n      add\n      sstore\n      0x20\n      dup3\n      add\n      mload\n      dup2\n      0x01\n      add\n      sstore\n      0x40\n      dup3\n      add\n      mload\n      dup2\n      0x02\n      add\n      sstore\n      0x60\n      dup3\n      add\n      mload\n      dup2\n      0x03\n      add\n      sstore\n      0x80\n      dup3\n      add\n      mload\n      dup2\n      0x04\n      add\n      sstore\n      swap1\n      pop\n      pop\n        /* \"contracts/Stake.sol\":6542:6554  tokenAddress */\n      0x02\n      0x00\n      swap1\n      sload\n      swap1\n      0x0100\n      exp\n      swap1\n      div\n      0xffffffffffffffffffffffffffffffffffffffff\n      and\n        /* \"contracts/Stake.sol\":6535:6568  TokenI(tokenAddress).transferFrom */\n      0xffffffffffffffffffffffffffffffffffffffff\n      and\n      0x23b872dd\n        /* \"contracts/Stake.sol\":6569:6579  msg.sender */\n      caller\n        /* \"contracts/Stake.sol\":6588:6592  this */\n      address\n        /* \"contracts/Stake.sol\":6595:6607  _stakeamount */\n      dup7\n        /* \"contracts/Stake.sol\":6535:6608  TokenI(tokenAddress).transferFrom(msg.sender,address(this), _stakeamount) */\n      mload(0x40)\n      dup5\n      0xffffffff\n      and\n      0xe0\n      shl\n      dup2\n      mstore\n      0x04\n      add\n      tag_147\n      swap4\n      swap3\n      swap2\n      swap1\n      tag_86\n      jump\t// in\n    tag_147:\n      0x20\n      mload(0x40)\n      dup1\n      dup4\n      sub\n      dup2\n      0x00\n      dup8\n      gas\n      call\n      iszero\n      dup1\n      iszero\n      tag_149\n      jumpi\n      returndatasize\n      0x00\n      dup1\n      returndatacopy\n      revert(0x00, returndatasize)\n    tag_149:\n      pop\n      pop\n      pop\n      pop\n      mload(0x40)\n      returndatasize\n      not(0x1f)\n      0x1f\n      dup3\n      add\n      and\n      dup3\n      add\n      dup1\n      0x40\n      mstore\n      pop\n      dup2\n      add\n      swap1\n      tag_150\n      swap2\n      swap1\n      tag_90\n      jump\t// in\n    tag_150:\n      pop\n        /* \"contracts/Stake.sol\":6675:6676  1 */\n      0x01\n        /* \"contracts/Stake.sol\":6651:6662  activeStake */\n      0x04\n        /* \"contracts/Stake.sol\":6651:6674  activeStake[msg.sender] */\n      0x00\n        /* \"contracts/Stake.sol\":6663:6673  msg.sender */\n      caller\n        /* \"contracts/Stake.sol\":6651:6674  activeStake[msg.sender] */\n      0xffffffffffffffffffffffffffffffffffffffff\n      and\n      0xffffffffffffffffffffffffffffffffffffffff\n      and\n      dup2\n      mstore\n      0x20\n      add\n      swap1\n      dup2\n      mstore\n      0x20\n      add\n      0x00\n      keccak256\n      sload\n        /* \"contracts/Stake.sol\":6651:6676  activeStake[msg.sender]+1 */\n      tag_151\n      swap2\n      swap1\n      tag_106\n      jump\t// in\n    tag_151:\n        /* \"contracts/Stake.sol\":6627:6638  activeStake */\n      0x04\n        /* \"contracts/Stake.sol\":6627:6650  activeStake[msg.sender] */\n      0x00\n        /* \"contracts/Stake.sol\":6639:6649  msg.sender */\n      caller\n        /* \"contracts/Stake.sol\":6627:6650  activeStake[msg.sender] */\n      0xffffffffffffffffffffffffffffffffffffffff\n      and\n      0xffffffffffffffffffffffffffffffffffffffff\n      and\n      dup2\n      mstore\n      0x20\n      add\n      swap1\n      dup2\n      mstore\n      0x20\n      add\n      0x00\n      keccak256\n        /* \"contracts/Stake.sol\":6627:6676  activeStake[msg.sender]=activeStake[msg.sender]+1 */\n      dup2\n      swap1\n      sstore\n      pop\n        /* \"contracts/Stake.sol\":6692:6754  StakeEvent(activeStake[msg.sender],address(this),_stakeamount) */\n      0x2c5661ed6b4853d3121c31ba3030dcca726029280495b1e64b7da6645779051a\n        /* \"contracts/Stake.sol\":6703:6714  activeStake */\n      0x04\n        /* \"contracts/Stake.sol\":6703:6726  activeStake[msg.sender] */\n      0x00\n        /* \"contracts/Stake.sol\":6715:6725  msg.sender */\n      caller\n        /* \"contracts/Stake.sol\":6703:6726  activeStake[msg.sender] */\n      0xffffffffffffffffffffffffffffffffffffffff\n      and\n      0xffffffffffffffffffffffffffffffffffffffff\n      and\n      dup2\n      mstore\n      0x20\n      add\n      swap1\n      dup2\n      mstore\n      0x20\n      add\n      0x00\n      keccak256\n      sload\n        /* \"contracts/Stake.sol\":6735:6739  this */\n      address\n        /* \"contracts/Stake.sol\":6741:6753  _stakeamount */\n      dup6\n        /* \"contracts/Stake.sol\":6692:6754  StakeEvent(activeStake[msg.sender],address(this),_stakeamount) */\n      mload(0x40)\n      tag_152\n      swap4\n      swap3\n      swap2\n      swap1\n      tag_119\n      jump\t// in\n    tag_152:\n      mload(0x40)\n      dup1\n      swap2\n      sub\n      swap1\n      log1\n        /* \"contracts/Stake.sol\":6771:6775  true */\n      0x01\n        /* \"contracts/Stake.sol\":6764:6775  return true */\n      swap2\n      pop\n      pop\n        /* \"contracts/Stake.sol\":5782:6789  function stake(uint _staketime , uint _stakeamount) public returns (bool){... */\n      swap3\n      swap2\n      pop\n      pop\n      jump\t// out\n        /* \"contracts/Stake.sol\":1235:1312  function owner() public view returns (address) {... */\n    tag_53:\n        /* \"contracts/Stake.sol\":1273:1280  address */\n      0x00\n        /* \"contracts/Stake.sol\":1299:1305  _owner */\n      dup1\n      0x00\n      swap1\n      sload\n      swap1\n      0x0100\n      exp\n      swap1\n      div\n      0xffffffffffffffffffffffffffffffffffffffff\n      and\n        /* \"contracts/Stake.sol\":1292:1305  return _owner */\n      swap1\n      pop\n        /* \"contracts/Stake.sol\":1235:1312  function owner() public view returns (address) {... */\n      swap1\n      jump\t// out\n        /* \"contracts/Stake.sol\":1555:1645  function isOwner() public view returns (bool) {... */\n    tag_57:\n        /* \"contracts/Stake.sol\":1595:1599  bool */\n      0x00\n        /* \"contracts/Stake.sol\":1632:1638  _owner */\n      dup1\n      0x00\n      swap1\n      sload\n      swap1\n      0x0100\n      exp\n      swap1\n      div\n      0xffffffffffffffffffffffffffffffffffffffff\n      and\n        /* \"contracts/Stake.sol\":1618:1638  msg.sender == _owner */\n      0xffffffffffffffffffffffffffffffffffffffff\n      and\n        /* \"contracts/Stake.sol\":1618:1628  msg.sender */\n      caller\n        /* \"contracts/Stake.sol\":1618:1638  msg.sender == _owner */\n      0xffffffffffffffffffffffffffffffffffffffff\n      and\n      eq\n        /* \"contracts/Stake.sol\":1611:1638  return msg.sender == _owner */\n      swap1\n      pop\n        /* \"contracts/Stake.sol\":1555:1645  function isOwner() public view returns (bool) {... */\n      swap1\n      jump\t// out\n        /* \"contracts/Stake.sol\":3065:3124  mapping(address=>mapping(uint256=>_staking)) public staking */\n    tag_62:\n      mstore(0x20, 0x03)\n      dup2\n      0x00\n      mstore\n      mstore(0x20, keccak256(0x00, 0x40))\n      dup1\n      0x00\n      mstore\n      keccak256(0x00, 0x40)\n      0x00\n      swap2\n      pop\n      swap2\n      pop\n      pop\n      dup1\n      0x00\n      add\n      sload\n      swap1\n      dup1\n      0x01\n      add\n      sload\n      swap1\n      dup1\n      0x02\n      add\n      sload\n      swap1\n      dup1\n      0x03\n      add\n      sload\n      swap1\n      dup1\n      0x04\n      add\n      sload\n      swap1\n      pop\n      dup6\n      jump\t// out\n        /* \"contracts/Stake.sol\":3021:3059  address public tokenAddress=address(0) */\n    tag_66:\n      0x02\n      0x00\n      swap1\n      sload\n      swap1\n      0x0100\n      exp\n      swap1\n      div\n      0xffffffffffffffffffffffffffffffffffffffff\n      and\n      dup2\n      jump\t// out\n        /* \"contracts/Stake.sol\":2983:3015  address public RewardPoolAddress */\n    tag_69:\n      0x01\n      0x00\n      swap1\n      sload\n      swap1\n      0x0100\n      exp\n      swap1\n      div\n      0xffffffffffffffffffffffffffffffffffffffff\n      and\n      dup2\n      jump\t// out\n        /* \"contracts/Stake.sol\":4386:4710  function RewardPercentageChange( uint256 _stakeDays , uint256 _percentage) public onlyOwner returns(uint256) {... */\n    tag_73:\n        /* \"contracts/Stake.sol\":4486:4493  uint256 */\n      0x00\n        /* \"contracts/Stake.sol\":1439:1448  isOwner() */\n      tag_156\n        /* \"contracts/Stake.sol\":1439:1446  isOwner */\n      tag_57\n        /* \"contracts/Stake.sol\":1439:1448  isOwner() */\n      jump\t// in\n    tag_156:\n        /* \"contracts/Stake.sol\":1431:1449  require(isOwner()) */\n      tag_157\n      jumpi\n      0x00\n      dup1\n      revert\n    tag_157:\n        /* \"contracts/Stake.sol\":4526:4531  10000 */\n      0x2710\n        /* \"contracts/Stake.sol\":4512:4523  _percentage */\n      dup3\n        /* \"contracts/Stake.sol\":4512:4531  _percentage > 10000 */\n      gt\n        /* \"contracts/Stake.sol\":4512:4557  _percentage > 10000 &&  _percentage < 1000000 */\n      dup1\n      iszero\n      tag_159\n      jumpi\n      pop\n        /* \"contracts/Stake.sol\":4550:4557  1000000 */\n      0x0f4240\n        /* \"contracts/Stake.sol\":4536:4547  _percentage */\n      dup3\n        /* \"contracts/Stake.sol\":4536:4557  _percentage < 1000000 */\n      lt\n        /* \"contracts/Stake.sol\":4512:4557  _percentage > 10000 &&  _percentage < 1000000 */\n    tag_159:\n        /* \"contracts/Stake.sol\":4504:4605  require(_percentage > 10000 &&  _percentage < 1000000,\"Invalid parameter set for change percentage.\") */\n      tag_160\n      jumpi\n      mload(0x40)\n      0x08c379a000000000000000000000000000000000000000000000000000000000\n      dup2\n      mstore\n      0x04\n      add\n      tag_161\n      swap1\n      tag_162\n      jump\t// in\n    tag_161:\n      mload(0x40)\n      dup1\n      swap2\n      sub\n      swap1\n      revert\n    tag_160:\n        /* \"contracts/Stake.sol\":4646:4657  _percentage */\n      dup2\n        /* \"contracts/Stake.sol\":4615:4631  RewardPercentage */\n      0x06\n        /* \"contracts/Stake.sol\":4615:4643  RewardPercentage[_stakeDays] */\n      0x00\n        /* \"contracts/Stake.sol\":4632:4642  _stakeDays */\n      dup6\n        /* \"contracts/Stake.sol\":4615:4643  RewardPercentage[_stakeDays] */\n      dup2\n      mstore\n      0x20\n      add\n      swap1\n      dup2\n      mstore\n      0x20\n      add\n      0x00\n      keccak256\n        /* \"contracts/Stake.sol\":4615:4657  RewardPercentage[_stakeDays] = _percentage */\n      dup2\n      swap1\n      sstore\n      pop\n        /* \"contracts/Stake.sol\":4675:4691  RewardPercentage */\n      0x06\n        /* \"contracts/Stake.sol\":4675:4703  RewardPercentage[_stakeDays] */\n      0x00\n        /* \"contracts/Stake.sol\":4692:4702  _stakeDays */\n      dup5\n        /* \"contracts/Stake.sol\":4675:4703  RewardPercentage[_stakeDays] */\n      dup2\n      mstore\n      0x20\n      add\n      swap1\n      dup2\n      mstore\n      0x20\n      add\n      0x00\n      keccak256\n      sload\n        /* \"contracts/Stake.sol\":4667:4703  return  RewardPercentage[_stakeDays] */\n      swap1\n      pop\n        /* \"contracts/Stake.sol\":4386:4710  function RewardPercentageChange( uint256 _stakeDays , uint256 _percentage) public onlyOwner returns(uint256) {... */\n      swap3\n      swap2\n      pop\n      pop\n      jump\t// out\n        /* \"contracts/Stake.sol\":2307:2414  function transferOwnership(address newOwner) public onlyOwner {... */\n    tag_77:\n        /* \"contracts/Stake.sol\":1439:1448  isOwner() */\n      tag_164\n        /* \"contracts/Stake.sol\":1439:1446  isOwner */\n      tag_57\n        /* \"contracts/Stake.sol\":1439:1448  isOwner() */\n      jump\t// in\n    tag_164:\n        /* \"contracts/Stake.sol\":1431:1449  require(isOwner()) */\n      tag_165\n      jumpi\n      0x00\n      dup1\n      revert\n    tag_165:\n        /* \"contracts/Stake.sol\":2379:2407  _transferOwnership(newOwner) */\n      tag_167\n        /* \"contracts/Stake.sol\":2398:2406  newOwner */\n      dup2\n        /* \"contracts/Stake.sol\":2379:2397  _transferOwnership */\n      tag_168\n        /* \"contracts/Stake.sol\":2379:2407  _transferOwnership(newOwner) */\n      jump\t// in\n    tag_167:\n        /* \"contracts/Stake.sol\":2307:2414  function transferOwnership(address newOwner) public onlyOwner {... */\n      pop\n      jump\t// out\n        /* \"contracts/Stake.sol\":2558:2741  function _transferOwnership(address newOwner) internal {... */\n    tag_168:\n        /* \"contracts/Stake.sol\":2651:2652  0 */\n      0x00\n        /* \"contracts/Stake.sol\":2631:2653  newOwner != address(0) */\n      0xffffffffffffffffffffffffffffffffffffffff\n      and\n        /* \"contracts/Stake.sol\":2631:2639  newOwner */\n      dup2\n        /* \"contracts/Stake.sol\":2631:2653  newOwner != address(0) */\n      0xffffffffffffffffffffffffffffffffffffffff\n      and\n      sub\n        /* \"contracts/Stake.sol\":2623:2654  require(newOwner != address(0)) */\n      tag_170\n      jumpi\n      0x00\n      dup1\n      revert\n    tag_170:\n        /* \"contracts/Stake.sol\":2698:2706  newOwner */\n      dup1\n        /* \"contracts/Stake.sol\":2669:2707  OwnershipTransferred(_owner, newOwner) */\n      0xffffffffffffffffffffffffffffffffffffffff\n      and\n        /* \"contracts/Stake.sol\":2690:2696  _owner */\n      0x00\n      dup1\n      sload\n      swap1\n      0x0100\n      exp\n      swap1\n      div\n      0xffffffffffffffffffffffffffffffffffffffff\n      and\n        /* \"contracts/Stake.sol\":2669:2707  OwnershipTransferred(_owner, newOwner) */\n      0xffffffffffffffffffffffffffffffffffffffff\n      and\n      0x8be0079c531659141344cd1fd0a4f28419497f9722a3daafe3b4186f6b6457e0\n      mload(0x40)\n      mload(0x40)\n      dup1\n      swap2\n      sub\n      swap1\n      log3\n        /* \"contracts/Stake.sol\":2726:2734  newOwner */\n      dup1\n        /* \"contracts/Stake.sol\":2717:2723  _owner */\n      0x00\n      dup1\n        /* \"contracts/Stake.sol\":2717:2734  _owner = newOwner */\n      0x0100\n      exp\n      dup2\n      sload\n      dup2\n      0xffffffffffffffffffffffffffffffffffffffff\n      mul\n      not\n      and\n      swap1\n      dup4\n      0xffffffffffffffffffffffffffffffffffffffff\n      and\n      mul\n      or\n      swap1\n      sstore\n      pop\n        /* \"contracts/Stake.sol\":2558:2741  function _transferOwnership(address newOwner) internal {... */\n      pop\n      jump\t// out\n        /* \"#utility.yul\":88:205   */\n    tag_172:\n        /* \"#utility.yul\":197:198   */\n      0x00\n        /* \"#utility.yul\":194:195   */\n      dup1\n        /* \"#utility.yul\":187:199   */\n      revert\n        /* \"#utility.yul\":334:411   */\n    tag_174:\n        /* \"#utility.yul\":371:378   */\n      0x00\n        /* \"#utility.yul\":400:405   */\n      dup2\n        /* \"#utility.yul\":389:405   */\n      swap1\n      pop\n        /* \"#utility.yul\":334:411   */\n      swap2\n      swap1\n      pop\n      jump\t// out\n        /* \"#utility.yul\":417:539   */\n    tag_175:\n        /* \"#utility.yul\":490:514   */\n      tag_209\n        /* \"#utility.yul\":508:513   */\n      dup2\n        /* \"#utility.yul\":490:514   */\n      tag_174\n      jump\t// in\n    tag_209:\n        /* \"#utility.yul\":483:488   */\n      dup2\n        /* \"#utility.yul\":480:515   */\n      eq\n        /* \"#utility.yul\":470:533   */\n      tag_210\n      jumpi\n        /* \"#utility.yul\":529:530   */\n      0x00\n        /* \"#utility.yul\":526:527   */\n      dup1\n        /* \"#utility.yul\":519:531   */\n      revert\n        /* \"#utility.yul\":470:533   */\n    tag_210:\n        /* \"#utility.yul\":417:539   */\n      pop\n      jump\t// out\n        /* \"#utility.yul\":545:684   */\n    tag_176:\n        /* \"#utility.yul\":591:596   */\n      0x00\n        /* \"#utility.yul\":629:635   */\n      dup2\n        /* \"#utility.yul\":616:636   */\n      calldataload\n        /* \"#utility.yul\":607:636   */\n      swap1\n      pop\n        /* \"#utility.yul\":645:678   */\n      tag_212\n        /* \"#utility.yul\":672:677   */\n      dup2\n        /* \"#utility.yul\":645:678   */\n      tag_175\n      jump\t// in\n    tag_212:\n        /* \"#utility.yul\":545:684   */\n      swap3\n      swap2\n      pop\n      pop\n      jump\t// out\n        /* \"#utility.yul\":690:1019   */\n    tag_23:\n        /* \"#utility.yul\":749:755   */\n      0x00\n        /* \"#utility.yul\":798:800   */\n      0x20\n        /* \"#utility.yul\":786:795   */\n      dup3\n        /* \"#utility.yul\":777:784   */\n      dup5\n        /* \"#utility.yul\":773:796   */\n      sub\n        /* \"#utility.yul\":769:801   */\n      slt\n        /* \"#utility.yul\":766:885   */\n      iszero\n      tag_214\n      jumpi\n        /* \"#utility.yul\":804:883   */\n      tag_215\n      tag_172\n      jump\t// in\n    tag_215:\n        /* \"#utility.yul\":766:885   */\n    tag_214:\n        /* \"#utility.yul\":924:925   */\n      0x00\n        /* \"#utility.yul\":949:1002   */\n      tag_216\n        /* \"#utility.yul\":994:1001   */\n      dup5\n        /* \"#utility.yul\":985:991   */\n      dup3\n        /* \"#utility.yul\":974:983   */\n      dup6\n        /* \"#utility.yul\":970:992   */\n      add\n        /* \"#utility.yul\":949:1002   */\n      tag_176\n      jump\t// in\n    tag_216:\n        /* \"#utility.yul\":939:1002   */\n      swap2\n      pop\n        /* \"#utility.yul\":895:1012   */\n      pop\n        /* \"#utility.yul\":690:1019   */\n      swap3\n      swap2\n      pop\n      pop\n      jump\t// out\n        /* \"#utility.yul\":1025:1143   */\n    tag_177:\n        /* \"#utility.yul\":1112:1136   */\n      tag_218\n        /* \"#utility.yul\":1130:1135   */\n      dup2\n        /* \"#utility.yul\":1112:1136   */\n      tag_174\n      jump\t// in\n    tag_218:\n        /* \"#utility.yul\":1107:1110   */\n      dup3\n        /* \"#utility.yul\":1100:1137   */\n      mstore\n        /* \"#utility.yul\":1025:1143   */\n      pop\n      pop\n      jump\t// out\n        /* \"#utility.yul\":1149:1371   */\n    tag_28:\n        /* \"#utility.yul\":1242:1246   */\n      0x00\n        /* \"#utility.yul\":1280:1282   */\n      0x20\n        /* \"#utility.yul\":1269:1278   */\n      dup3\n        /* \"#utility.yul\":1265:1283   */\n      add\n        /* \"#utility.yul\":1257:1283   */\n      swap1\n      pop\n        /* \"#utility.yul\":1293:1364   */\n      tag_220\n        /* \"#utility.yul\":1361:1362   */\n      0x00\n        /* \"#utility.yul\":1350:1359   */\n      dup4\n        /* \"#utility.yul\":1346:1363   */\n      add\n        /* \"#utility.yul\":1337:1343   */\n      dup5\n        /* \"#utility.yul\":1293:1364   */\n      tag_177\n      jump\t// in\n    tag_220:\n        /* \"#utility.yul\":1149:1371   */\n      swap3\n      swap2\n      pop\n      pop\n      jump\t// out\n        /* \"#utility.yul\":1377:1503   */\n    tag_178:\n        /* \"#utility.yul\":1414:1421   */\n      0x00\n        /* \"#utility.yul\":1454:1496   */\n      0xffffffffffffffffffffffffffffffffffffffff\n        /* \"#utility.yul\":1447:1452   */\n      dup3\n        /* \"#utility.yul\":1443:1497   */\n      and\n        /* \"#utility.yul\":1432:1497   */\n      swap1\n      pop\n        /* \"#utility.yul\":1377:1503   */\n      swap2\n      swap1\n      pop\n      jump\t// out\n        /* \"#utility.yul\":1509:1605   */\n    tag_179:\n        /* \"#utility.yul\":1546:1553   */\n      0x00\n        /* \"#utility.yul\":1575:1599   */\n      tag_223\n        /* \"#utility.yul\":1593:1598   */\n      dup3\n        /* \"#utility.yul\":1575:1599   */\n      tag_178\n      jump\t// in\n    tag_223:\n        /* \"#utility.yul\":1564:1599   */\n      swap1\n      pop\n        /* \"#utility.yul\":1509:1605   */\n      swap2\n      swap1\n      pop\n      jump\t// out\n        /* \"#utility.yul\":1611:1733   */\n    tag_180:\n        /* \"#utility.yul\":1684:1708   */\n      tag_225\n        /* \"#utility.yul\":1702:1707   */\n      dup2\n        /* \"#utility.yul\":1684:1708   */\n      tag_179\n      jump\t// in\n    tag_225:\n        /* \"#utility.yul\":1677:1682   */\n      dup2\n        /* \"#utility.yul\":1674:1709   */\n      eq\n        /* \"#utility.yul\":1664:1727   */\n      tag_226\n      jumpi\n        /* \"#utility.yul\":1723:1724   */\n      0x00\n        /* \"#utility.yul\":1720:1721   */\n      dup1\n        /* \"#utility.yul\":1713:1725   */\n      revert\n        /* \"#utility.yul\":1664:1727   */\n    tag_226:\n        /* \"#utility.yul\":1611:1733   */\n      pop\n      jump\t// out\n        /* \"#utility.yul\":1739:1878   */\n    tag_181:\n        /* \"#utility.yul\":1785:1790   */\n      0x00\n        /* \"#utility.yul\":1823:1829   */\n      dup2\n        /* \"#utility.yul\":1810:1830   */\n      calldataload\n        /* \"#utility.yul\":1801:1830   */\n      swap1\n      pop\n        /* \"#utility.yul\":1839:1872   */\n      tag_228\n        /* \"#utility.yul\":1866:1871   */\n      dup2\n        /* \"#utility.yul\":1839:1872   */\n      tag_180\n      jump\t// in\n    tag_228:\n        /* \"#utility.yul\":1739:1878   */\n      swap3\n      swap2\n      pop\n      pop\n      jump\t// out\n        /* \"#utility.yul\":1884:2213   */\n    tag_31:\n        /* \"#utility.yul\":1943:1949   */\n      0x00\n        /* \"#utility.yul\":1992:1994   */\n      0x20\n        /* \"#utility.yul\":1980:1989   */\n      dup3\n        /* \"#utility.yul\":1971:1978   */\n      dup5\n        /* \"#utility.yul\":1967:1990   */\n      sub\n        /* \"#utility.yul\":1963:1995   */\n      slt\n        /* \"#utility.yul\":1960:2079   */\n      iszero\n      tag_230\n      jumpi\n        /* \"#utility.yul\":1998:2077   */\n      tag_231\n      tag_172\n      jump\t// in\n    tag_231:\n        /* \"#utility.yul\":1960:2079   */\n    tag_230:\n        /* \"#utility.yul\":2118:2119   */\n      0x00\n        /* \"#utility.yul\":2143:2196   */\n      tag_232\n        /* \"#utility.yul\":2188:2195   */\n      dup5\n        /* \"#utility.yul\":2179:2185   */\n      dup3\n        /* \"#utility.yul\":2168:2177   */\n      dup6\n        /* \"#utility.yul\":2164:2186   */\n      add\n        /* \"#utility.yul\":2143:2196   */\n      tag_181\n      jump\t// in\n    tag_232:\n        /* \"#utility.yul\":2133:2196   */\n      swap2\n      pop\n        /* \"#utility.yul\":2089:2206   */\n      pop\n        /* \"#utility.yul\":1884:2213   */\n      swap3\n      swap2\n      pop\n      pop\n      jump\t// out\n        /* \"#utility.yul\":2219:2309   */\n    tag_182:\n        /* \"#utility.yul\":2253:2260   */\n      0x00\n        /* \"#utility.yul\":2296:2301   */\n      dup2\n        /* \"#utility.yul\":2289:2302   */\n      iszero\n        /* \"#utility.yul\":2282:2303   */\n      iszero\n        /* \"#utility.yul\":2271:2303   */\n      swap1\n      pop\n        /* \"#utility.yul\":2219:2309   */\n      swap2\n      swap1\n      pop\n      jump\t// out\n        /* \"#utility.yul\":2315:2424   */\n    tag_183:\n        /* \"#utility.yul\":2396:2417   */\n      tag_235\n        /* \"#utility.yul\":2411:2416   */\n      dup2\n        /* \"#utility.yul\":2396:2417   */\n      tag_182\n      jump\t// in\n    tag_235:\n        /* \"#utility.yul\":2391:2394   */\n      dup3\n        /* \"#utility.yul\":2384:2418   */\n      mstore\n        /* \"#utility.yul\":2315:2424   */\n      pop\n      pop\n      jump\t// out\n        /* \"#utility.yul\":2430:2640   */\n    tag_44:\n        /* \"#utility.yul\":2517:2521   */\n      0x00\n        /* \"#utility.yul\":2555:2557   */\n      0x20\n        /* \"#utility.yul\":2544:2553   */\n      dup3\n        /* \"#utility.yul\":2540:2558   */\n      add\n        /* \"#utility.yul\":2532:2558   */\n      swap1\n      pop\n        /* \"#utility.yul\":2568:2633   */\n      tag_237\n        /* \"#utility.yul\":2630:2631   */\n      0x00\n        /* \"#utility.yul\":2619:2628   */\n      dup4\n        /* \"#utility.yul\":2615:2632   */\n      add\n        /* \"#utility.yul\":2606:2612   */\n      dup5\n        /* \"#utility.yul\":2568:2633   */\n      tag_183\n      jump\t// in\n    tag_237:\n        /* \"#utility.yul\":2430:2640   */\n      swap3\n      swap2\n      pop\n      pop\n      jump\t// out\n        /* \"#utility.yul\":2646:3120   */\n    tag_49:\n        /* \"#utility.yul\":2714:2720   */\n      0x00\n        /* \"#utility.yul\":2722:2728   */\n      dup1\n        /* \"#utility.yul\":2771:2773   */\n      0x40\n        /* \"#utility.yul\":2759:2768   */\n      dup4\n        /* \"#utility.yul\":2750:2757   */\n      dup6\n        /* \"#utility.yul\":2746:2769   */\n      sub\n        /* \"#utility.yul\":2742:2774   */\n      slt\n        /* \"#utility.yul\":2739:2858   */\n      iszero\n      tag_239\n      jumpi\n        /* \"#utility.yul\":2777:2856   */\n      tag_240\n      tag_172\n      jump\t// in\n    tag_240:\n        /* \"#utility.yul\":2739:2858   */\n    tag_239:\n        /* \"#utility.yul\":2897:2898   */\n      0x00\n        /* \"#utility.yul\":2922:2975   */\n      tag_241\n        /* \"#utility.yul\":2967:2974   */\n      dup6\n        /* \"#utility.yul\":2958:2964   */\n      dup3\n        /* \"#utility.yul\":2947:2956   */\n      dup7\n        /* \"#utility.yul\":2943:2965   */\n      add\n        /* \"#utility.yul\":2922:2975   */\n      tag_176\n      jump\t// in\n    tag_241:\n        /* \"#utility.yul\":2912:2975   */\n      swap3\n      pop\n        /* \"#utility.yul\":2868:2985   */\n      pop\n        /* \"#utility.yul\":3024:3026   */\n      0x20\n        /* \"#utility.yul\":3050:3103   */\n      tag_242\n        /* \"#utility.yul\":3095:3102   */\n      dup6\n        /* \"#utility.yul\":3086:3092   */\n      dup3\n        /* \"#utility.yul\":3075:3084   */\n      dup7\n        /* \"#utility.yul\":3071:3093   */\n      add\n        /* \"#utility.yul\":3050:3103   */\n      tag_176\n      jump\t// in\n    tag_242:\n        /* \"#utility.yul\":3040:3103   */\n      swap2\n      pop\n        /* \"#utility.yul\":2995:3113   */\n      pop\n        /* \"#utility.yul\":2646:3120   */\n      swap3\n      pop\n      swap3\n      swap1\n      pop\n      jump\t// out\n        /* \"#utility.yul\":3126:3244   */\n    tag_184:\n        /* \"#utility.yul\":3213:3237   */\n      tag_244\n        /* \"#utility.yul\":3231:3236   */\n      dup2\n        /* \"#utility.yul\":3213:3237   */\n      tag_179\n      jump\t// in\n    tag_244:\n        /* \"#utility.yul\":3208:3211   */\n      dup3\n        /* \"#utility.yul\":3201:3238   */\n      mstore\n        /* \"#utility.yul\":3126:3244   */\n      pop\n      pop\n      jump\t// out\n        /* \"#utility.yul\":3250:3472   */\n    tag_55:\n        /* \"#utility.yul\":3343:3347   */\n      0x00\n        /* \"#utility.yul\":3381:3383   */\n      0x20\n        /* \"#utility.yul\":3370:3379   */\n      dup3\n        /* \"#utility.yul\":3366:3384   */\n      add\n        /* \"#utility.yul\":3358:3384   */\n      swap1\n      pop\n        /* \"#utility.yul\":3394:3465   */\n      tag_246\n        /* \"#utility.yul\":3462:3463   */\n      0x00\n        /* \"#utility.yul\":3451:3460   */\n      dup4\n        /* \"#utility.yul\":3447:3464   */\n      add\n        /* \"#utility.yul\":3438:3444   */\n      dup5\n        /* \"#utility.yul\":3394:3465   */\n      tag_184\n      jump\t// in\n    tag_246:\n        /* \"#utility.yul\":3250:3472   */\n      swap3\n      swap2\n      pop\n      pop\n      jump\t// out\n        /* \"#utility.yul\":3478:3952   */\n    tag_61:\n        /* \"#utility.yul\":3546:3552   */\n      0x00\n        /* \"#utility.yul\":3554:3560   */\n      dup1\n        /* \"#utility.yul\":3603:3605   */\n      0x40\n        /* \"#utility.yul\":3591:3600   */\n      dup4\n        /* \"#utility.yul\":3582:3589   */\n      dup6\n        /* \"#utility.yul\":3578:3601   */\n      sub\n        /* \"#utility.yul\":3574:3606   */\n      slt\n        /* \"#utility.yul\":3571:3690   */\n      iszero\n      tag_248\n      jumpi\n        /* \"#utility.yul\":3609:3688   */\n      tag_249\n      tag_172\n      jump\t// in\n    tag_249:\n        /* \"#utility.yul\":3571:3690   */\n    tag_248:\n        /* \"#utility.yul\":3729:3730   */\n      0x00\n        /* \"#utility.yul\":3754:3807   */\n      tag_250\n        /* \"#utility.yul\":3799:3806   */\n      dup6\n        /* \"#utility.yul\":3790:3796   */\n      dup3\n        /* \"#utility.yul\":3779:3788   */\n      dup7\n        /* \"#utility.yul\":3775:3797   */\n      add\n        /* \"#utility.yul\":3754:3807   */\n      tag_181\n      jump\t// in\n    tag_250:\n        /* \"#utility.yul\":3744:3807   */\n      swap3\n      pop\n        /* \"#utility.yul\":3700:3817   */\n      pop\n        /* \"#utility.yul\":3856:3858   */\n      0x20\n        /* \"#utility.yul\":3882:3935   */\n      tag_251\n        /* \"#utility.yul\":3927:3934   */\n      dup6\n        /* \"#utility.yul\":3918:3924   */\n      dup3\n        /* \"#utility.yul\":3907:3916   */\n      dup7\n        /* \"#utility.yul\":3903:3925   */\n      add\n        /* \"#utility.yul\":3882:3935   */\n      tag_176\n      jump\t// in\n    tag_251:\n        /* \"#utility.yul\":3872:3935   */\n      swap2\n      pop\n        /* \"#utility.yul\":3827:3945   */\n      pop\n        /* \"#utility.yul\":3478:3952   */\n      swap3\n      pop\n      swap3\n      swap1\n      pop\n      jump\t// out\n        /* \"#utility.yul\":3958:4622   */\n    tag_64:\n        /* \"#utility.yul\":4163:4167   */\n      0x00\n        /* \"#utility.yul\":4201:4204   */\n      0xa0\n        /* \"#utility.yul\":4190:4199   */\n      dup3\n        /* \"#utility.yul\":4186:4205   */\n      add\n        /* \"#utility.yul\":4178:4205   */\n      swap1\n      pop\n        /* \"#utility.yul\":4215:4286   */\n      tag_253\n        /* \"#utility.yul\":4283:4284   */\n      0x00\n        /* \"#utility.yul\":4272:4281   */\n      dup4\n        /* \"#utility.yul\":4268:4285   */\n      add\n        /* \"#utility.yul\":4259:4265   */\n      dup9\n        /* \"#utility.yul\":4215:4286   */\n      tag_177\n      jump\t// in\n    tag_253:\n        /* \"#utility.yul\":4296:4368   */\n      tag_254\n        /* \"#utility.yul\":4364:4366   */\n      0x20\n        /* \"#utility.yul\":4353:4362   */\n      dup4\n        /* \"#utility.yul\":4349:4367   */\n      add\n        /* \"#utility.yul\":4340:4346   */\n      dup8\n        /* \"#utility.yul\":4296:4368   */\n      tag_177\n      jump\t// in\n    tag_254:\n        /* \"#utility.yul\":4378:4450   */\n      tag_255\n        /* \"#utility.yul\":4446:4448   */\n      0x40\n        /* \"#utility.yul\":4435:4444   */\n      dup4\n        /* \"#utility.yul\":4431:4449   */\n      add\n        /* \"#utility.yul\":4422:4428   */\n      dup7\n        /* \"#utility.yul\":4378:4450   */\n      tag_177\n      jump\t// in\n    tag_255:\n        /* \"#utility.yul\":4460:4532   */\n      tag_256\n        /* \"#utility.yul\":4528:4530   */\n      0x60\n        /* \"#utility.yul\":4517:4526   */\n      dup4\n        /* \"#utility.yul\":4513:4531   */\n      add\n        /* \"#utility.yul\":4504:4510   */\n      dup6\n        /* \"#utility.yul\":4460:4532   */\n      tag_177\n      jump\t// in\n    tag_256:\n        /* \"#utility.yul\":4542:4615   */\n      tag_257\n        /* \"#utility.yul\":4610:4613   */\n      0x80\n        /* \"#utility.yul\":4599:4608   */\n      dup4\n        /* \"#utility.yul\":4595:4614   */\n      add\n        /* \"#utility.yul\":4586:4592   */\n      dup5\n        /* \"#utility.yul\":4542:4615   */\n      tag_177\n      jump\t// in\n    tag_257:\n        /* \"#utility.yul\":3958:4622   */\n      swap7\n      swap6\n      pop\n      pop\n      pop\n      pop\n      pop\n      pop\n      jump\t// out\n        /* \"#utility.yul\":4628:4797   */\n    tag_185:\n        /* \"#utility.yul\":4712:4723   */\n      0x00\n        /* \"#utility.yul\":4746:4752   */\n      dup3\n        /* \"#utility.yul\":4741:4744   */\n      dup3\n        /* \"#utility.yul\":4734:4753   */\n      mstore\n        /* \"#utility.yul\":4786:4790   */\n      0x20\n        /* \"#utility.yul\":4781:4784   */\n      dup3\n        /* \"#utility.yul\":4777:4791   */\n      add\n        /* \"#utility.yul\":4762:4791   */\n      swap1\n      pop\n        /* \"#utility.yul\":4628:4797   */\n      swap3\n      swap2\n      pop\n      pop\n      jump\t// out\n        /* \"#utility.yul\":4803:4984   */\n    tag_186:\n        /* \"#utility.yul\":4943:4976   */\n      0x416d6f756e742073686f756c642062652067726561746572207468656e203000\n        /* \"#utility.yul\":4939:4940   */\n      0x00\n        /* \"#utility.yul\":4931:4937   */\n      dup3\n        /* \"#utility.yul\":4927:4941   */\n      add\n        /* \"#utility.yul\":4920:4977   */\n      mstore\n        /* \"#utility.yul\":4803:4984   */\n      pop\n      jump\t// out\n        /* \"#utility.yul\":4990:5356   */\n    tag_187:\n        /* \"#utility.yul\":5132:5135   */\n      0x00\n        /* \"#utility.yul\":5153:5220   */\n      tag_261\n        /* \"#utility.yul\":5217:5219   */\n      0x1f\n        /* \"#utility.yul\":5212:5215   */\n      dup4\n        /* \"#utility.yul\":5153:5220   */\n      tag_185\n      jump\t// in\n    tag_261:\n        /* \"#utility.yul\":5146:5220   */\n      swap2\n      pop\n        /* \"#utility.yul\":5229:5322   */\n      tag_262\n        /* \"#utility.yul\":5318:5321   */\n      dup3\n        /* \"#utility.yul\":5229:5322   */\n      tag_186\n      jump\t// in\n    tag_262:\n        /* \"#utility.yul\":5347:5349   */\n      0x20\n        /* \"#utility.yul\":5342:5345   */\n      dup3\n        /* \"#utility.yul\":5338:5350   */\n      add\n        /* \"#utility.yul\":5331:5350   */\n      swap1\n      pop\n        /* \"#utility.yul\":4990:5356   */\n      swap2\n      swap1\n      pop\n      jump\t// out\n        /* \"#utility.yul\":5362:5781   */\n    tag_84:\n        /* \"#utility.yul\":5528:5532   */\n      0x00\n        /* \"#utility.yul\":5566:5568   */\n      0x20\n        /* \"#utility.yul\":5555:5564   */\n      dup3\n        /* \"#utility.yul\":5551:5569   */\n      add\n        /* \"#utility.yul\":5543:5569   */\n      swap1\n      pop\n        /* \"#utility.yul\":5615:5624   */\n      dup2\n        /* \"#utility.yul\":5609:5613   */\n      dup2\n        /* \"#utility.yul\":5605:5625   */\n      sub\n        /* \"#utility.yul\":5601:5602   */\n      0x00\n        /* \"#utility.yul\":5590:5599   */\n      dup4\n        /* \"#utility.yul\":5586:5603   */\n      add\n        /* \"#utility.yul\":5579:5626   */\n      mstore\n        /* \"#utility.yul\":5643:5774   */\n      tag_264\n        /* \"#utility.yul\":5769:5773   */\n      dup2\n        /* \"#utility.yul\":5643:5774   */\n      tag_187\n      jump\t// in\n    tag_264:\n        /* \"#utility.yul\":5635:5774   */\n      swap1\n      pop\n        /* \"#utility.yul\":5362:5781   */\n      swap2\n      swap1\n      pop\n      jump\t// out\n        /* \"#utility.yul\":5787:6229   */\n    tag_86:\n        /* \"#utility.yul\":5936:5940   */\n      0x00\n        /* \"#utility.yul\":5974:5976   */\n      0x60\n        /* \"#utility.yul\":5963:5972   */\n      dup3\n        /* \"#utility.yul\":5959:5977   */\n      add\n        /* \"#utility.yul\":5951:5977   */\n      swap1\n      pop\n        /* \"#utility.yul\":5987:6058   */\n      tag_266\n        /* \"#utility.yul\":6055:6056   */\n      0x00\n        /* \"#utility.yul\":6044:6053   */\n      dup4\n        /* \"#utility.yul\":6040:6057   */\n      add\n        /* \"#utility.yul\":6031:6037   */\n      dup7\n        /* \"#utility.yul\":5987:6058   */\n      tag_184\n      jump\t// in\n    tag_266:\n        /* \"#utility.yul\":6068:6140   */\n      tag_267\n        /* \"#utility.yul\":6136:6138   */\n      0x20\n        /* \"#utility.yul\":6125:6134   */\n      dup4\n        /* \"#utility.yul\":6121:6139   */\n      add\n        /* \"#utility.yul\":6112:6118   */\n      dup6\n        /* \"#utility.yul\":6068:6140   */\n      tag_184\n      jump\t// in\n    tag_267:\n        /* \"#utility.yul\":6150:6222   */\n      tag_268\n        /* \"#utility.yul\":6218:6220   */\n      0x40\n        /* \"#utility.yul\":6207:6216   */\n      dup4\n        /* \"#utility.yul\":6203:6221   */\n      add\n        /* \"#utility.yul\":6194:6200   */\n      dup5\n        /* \"#utility.yul\":6150:6222   */\n      tag_177\n      jump\t// in\n    tag_268:\n        /* \"#utility.yul\":5787:6229   */\n      swap5\n      swap4\n      pop\n      pop\n      pop\n      pop\n      jump\t// out\n        /* \"#utility.yul\":6235:6351   */\n    tag_188:\n        /* \"#utility.yul\":6305:6326   */\n      tag_270\n        /* \"#utility.yul\":6320:6325   */\n      dup2\n        /* \"#utility.yul\":6305:6326   */\n      tag_182\n      jump\t// in\n    tag_270:\n        /* \"#utility.yul\":6298:6303   */\n      dup2\n        /* \"#utility.yul\":6295:6327   */\n      eq\n        /* \"#utility.yul\":6285:6345   */\n      tag_271\n      jumpi\n        /* \"#utility.yul\":6341:6342   */\n      0x00\n        /* \"#utility.yul\":6338:6339   */\n      dup1\n        /* \"#utility.yul\":6331:6343   */\n      revert\n        /* \"#utility.yul\":6285:6345   */\n    tag_271:\n        /* \"#utility.yul\":6235:6351   */\n      pop\n      jump\t// out\n        /* \"#utility.yul\":6357:6494   */\n    tag_189:\n        /* \"#utility.yul\":6411:6416   */\n      0x00\n        /* \"#utility.yul\":6442:6448   */\n      dup2\n        /* \"#utility.yul\":6436:6449   */\n      mload\n        /* \"#utility.yul\":6427:6449   */\n      swap1\n      pop\n        /* \"#utility.yul\":6458:6488   */\n      tag_273\n        /* \"#utility.yul\":6482:6487   */\n      dup2\n        /* \"#utility.yul\":6458:6488   */\n      tag_188\n      jump\t// in\n    tag_273:\n        /* \"#utility.yul\":6357:6494   */\n      swap3\n      swap2\n      pop\n      pop\n      jump\t// out\n        /* \"#utility.yul\":6500:6845   */\n    tag_90:\n        /* \"#utility.yul\":6567:6573   */\n      0x00\n        /* \"#utility.yul\":6616:6618   */\n      0x20\n        /* \"#utility.yul\":6604:6613   */\n      dup3\n        /* \"#utility.yul\":6595:6602   */\n      dup5\n        /* \"#utility.yul\":6591:6614   */\n      sub\n        /* \"#utility.yul\":6587:6619   */\n      slt\n        /* \"#utility.yul\":6584:6703   */\n      iszero\n      tag_275\n      jumpi\n        /* \"#utility.yul\":6622:6701   */\n      tag_276\n      tag_172\n      jump\t// in\n    tag_276:\n        /* \"#utility.yul\":6584:6703   */\n    tag_275:\n        /* \"#utility.yul\":6742:6743   */\n      0x00\n        /* \"#utility.yul\":6767:6828   */\n      tag_277\n        /* \"#utility.yul\":6820:6827   */\n      dup5\n        /* \"#utility.yul\":6811:6817   */\n      dup3\n        /* \"#utility.yul\":6800:6809   */\n      dup6\n        /* \"#utility.yul\":6796:6818   */\n      add\n        /* \"#utility.yul\":6767:6828   */\n      tag_189\n      jump\t// in\n    tag_277:\n        /* \"#utility.yul\":6757:6828   */\n      swap2\n      pop\n        /* \"#utility.yul\":6713:6838   */\n      pop\n        /* \"#utility.yul\":6500:6845   */\n      swap3\n      swap2\n      pop\n      pop\n      jump\t// out\n        /* \"#utility.yul\":6851:7028   */\n    tag_190:\n        /* \"#utility.yul\":6991:7020   */\n      0x57616c6c65742041646472657373206973206e6f742045786973740000000000\n        /* \"#utility.yul\":6987:6988   */\n      0x00\n        /* \"#utility.yul\":6979:6985   */\n      dup3\n        /* \"#utility.yul\":6975:6989   */\n      add\n        /* \"#utility.yul\":6968:7021   */\n      mstore\n        /* \"#utility.yul\":6851:7028   */\n      pop\n      jump\t// out\n        /* \"#utility.yul\":7034:7400   */\n    tag_191:\n        /* \"#utility.yul\":7176:7179   */\n      0x00\n        /* \"#utility.yul\":7197:7264   */\n      tag_280\n        /* \"#utility.yul\":7261:7263   */\n      0x1b\n        /* \"#utility.yul\":7256:7259   */\n      dup4\n        /* \"#utility.yul\":7197:7264   */\n      tag_185\n      jump\t// in\n    tag_280:\n        /* \"#utility.yul\":7190:7264   */\n      swap2\n      pop\n        /* \"#utility.yul\":7273:7366   */\n      tag_281\n        /* \"#utility.yul\":7362:7365   */\n      dup3\n        /* \"#utility.yul\":7273:7366   */\n      tag_190\n      jump\t// in\n    tag_281:\n        /* \"#utility.yul\":7391:7393   */\n      0x20\n        /* \"#utility.yul\":7386:7389   */\n      dup3\n        /* \"#utility.yul\":7382:7394   */\n      add\n        /* \"#utility.yul\":7375:7394   */\n      swap1\n      pop\n        /* \"#utility.yul\":7034:7400   */\n      swap2\n      swap1\n      pop\n      jump\t// out\n        /* \"#utility.yul\":7406:7825   */\n    tag_100:\n        /* \"#utility.yul\":7572:7576   */\n      0x00\n        /* \"#utility.yul\":7610:7612   */\n      0x20\n        /* \"#utility.yul\":7599:7608   */\n      dup3\n        /* \"#utility.yul\":7595:7613   */\n      add\n        /* \"#utility.yul\":7587:7613   */\n      swap1\n      pop\n        /* \"#utility.yul\":7659:7668   */\n      dup2\n        /* \"#utility.yul\":7653:7657   */\n      dup2\n        /* \"#utility.yul\":7649:7669   */\n      sub\n        /* \"#utility.yul\":7645:7646   */\n      0x00\n        /* \"#utility.yul\":7634:7643   */\n      dup4\n        /* \"#utility.yul\":7630:7647   */\n      add\n        /* \"#utility.yul\":7623:7670   */\n      mstore\n        /* \"#utility.yul\":7687:7818   */\n      tag_283\n        /* \"#utility.yul\":7813:7817   */\n      dup2\n        /* \"#utility.yul\":7687:7818   */\n      tag_191\n      jump\t// in\n    tag_283:\n        /* \"#utility.yul\":7679:7818   */\n      swap1\n      pop\n        /* \"#utility.yul\":7406:7825   */\n      swap2\n      swap1\n      pop\n      jump\t// out\n        /* \"#utility.yul\":7831:8011   */\n    tag_192:\n        /* \"#utility.yul\":7879:7956   */\n      0x4e487b7100000000000000000000000000000000000000000000000000000000\n        /* \"#utility.yul\":7876:7877   */\n      0x00\n        /* \"#utility.yul\":7869:7957   */\n      mstore\n        /* \"#utility.yul\":7976:7980   */\n      0x11\n        /* \"#utility.yul\":7973:7974   */\n      0x04\n        /* \"#utility.yul\":7966:7981   */\n      mstore\n        /* \"#utility.yul\":8000:8004   */\n      0x24\n        /* \"#utility.yul\":7997:7998   */\n      0x00\n        /* \"#utility.yul\":7990:8005   */\n      revert\n        /* \"#utility.yul\":8017:8208   */\n    tag_106:\n        /* \"#utility.yul\":8057:8060   */\n      0x00\n        /* \"#utility.yul\":8076:8096   */\n      tag_286\n        /* \"#utility.yul\":8094:8095   */\n      dup3\n        /* \"#utility.yul\":8076:8096   */\n      tag_174\n      jump\t// in\n    tag_286:\n        /* \"#utility.yul\":8071:8096   */\n      swap2\n      pop\n        /* \"#utility.yul\":8110:8130   */\n      tag_287\n        /* \"#utility.yul\":8128:8129   */\n      dup4\n        /* \"#utility.yul\":8110:8130   */\n      tag_174\n      jump\t// in\n    tag_287:\n        /* \"#utility.yul\":8105:8130   */\n      swap3\n      pop\n        /* \"#utility.yul\":8153:8154   */\n      dup3\n        /* \"#utility.yul\":8150:8151   */\n      dup3\n        /* \"#utility.yul\":8146:8155   */\n      add\n        /* \"#utility.yul\":8139:8155   */\n      swap1\n      pop\n        /* \"#utility.yul\":8174:8177   */\n      dup1\n        /* \"#utility.yul\":8171:8172   */\n      dup3\n        /* \"#utility.yul\":8168:8178   */\n      gt\n        /* \"#utility.yul\":8165:8201   */\n      iszero\n      tag_288\n      jumpi\n        /* \"#utility.yul\":8181:8199   */\n      tag_289\n      tag_192\n      jump\t// in\n    tag_289:\n        /* \"#utility.yul\":8165:8201   */\n    tag_288:\n        /* \"#utility.yul\":8017:8208   */\n      swap3\n      swap2\n      pop\n      pop\n      jump\t// out\n        /* \"#utility.yul\":8214:8394   */\n    tag_193:\n        /* \"#utility.yul\":8262:8339   */\n      0x4e487b7100000000000000000000000000000000000000000000000000000000\n        /* \"#utility.yul\":8259:8260   */\n      0x00\n        /* \"#utility.yul\":8252:8340   */\n      mstore\n        /* \"#utility.yul\":8359:8363   */\n      0x12\n        /* \"#utility.yul\":8356:8357   */\n      0x04\n        /* \"#utility.yul\":8349:8364   */\n      mstore\n        /* \"#utility.yul\":8383:8387   */\n      0x24\n        /* \"#utility.yul\":8380:8381   */\n      0x00\n        /* \"#utility.yul\":8373:8388   */\n      revert\n        /* \"#utility.yul\":8400:8585   */\n    tag_109:\n        /* \"#utility.yul\":8440:8441   */\n      0x00\n        /* \"#utility.yul\":8457:8477   */\n      tag_292\n        /* \"#utility.yul\":8475:8476   */\n      dup3\n        /* \"#utility.yul\":8457:8477   */\n      tag_174\n      jump\t// in\n    tag_292:\n        /* \"#utility.yul\":8452:8477   */\n      swap2\n      pop\n        /* \"#utility.yul\":8491:8511   */\n      tag_293\n        /* \"#utility.yul\":8509:8510   */\n      dup4\n        /* \"#utility.yul\":8491:8511   */\n      tag_174\n      jump\t// in\n    tag_293:\n        /* \"#utility.yul\":8486:8511   */\n      swap3\n      pop\n        /* \"#utility.yul\":8530:8531   */\n      dup3\n        /* \"#utility.yul\":8520:8555   */\n      tag_294\n      jumpi\n        /* \"#utility.yul\":8535:8553   */\n      tag_295\n      tag_193\n      jump\t// in\n    tag_295:\n        /* \"#utility.yul\":8520:8555   */\n    tag_294:\n        /* \"#utility.yul\":8577:8578   */\n      dup3\n        /* \"#utility.yul\":8574:8575   */\n      dup3\n        /* \"#utility.yul\":8570:8579   */\n      div\n        /* \"#utility.yul\":8565:8579   */\n      swap1\n      pop\n        /* \"#utility.yul\":8400:8585   */\n      swap3\n      swap2\n      pop\n      pop\n      jump\t// out\n        /* \"#utility.yul\":8591:8785   */\n    tag_112:\n        /* \"#utility.yul\":8631:8635   */\n      0x00\n        /* \"#utility.yul\":8651:8671   */\n      tag_297\n        /* \"#utility.yul\":8669:8670   */\n      dup3\n        /* \"#utility.yul\":8651:8671   */\n      tag_174\n      jump\t// in\n    tag_297:\n        /* \"#utility.yul\":8646:8671   */\n      swap2\n      pop\n        /* \"#utility.yul\":8685:8705   */\n      tag_298\n        /* \"#utility.yul\":8703:8704   */\n      dup4\n        /* \"#utility.yul\":8685:8705   */\n      tag_174\n      jump\t// in\n    tag_298:\n        /* \"#utility.yul\":8680:8705   */\n      swap3\n      pop\n        /* \"#utility.yul\":8729:8730   */\n      dup3\n        /* \"#utility.yul\":8726:8727   */\n      dup3\n        /* \"#utility.yul\":8722:8731   */\n      sub\n        /* \"#utility.yul\":8714:8731   */\n      swap1\n      pop\n        /* \"#utility.yul\":8753:8754   */\n      dup2\n        /* \"#utility.yul\":8747:8751   */\n      dup2\n        /* \"#utility.yul\":8744:8755   */\n      gt\n        /* \"#utility.yul\":8741:8778   */\n      iszero\n      tag_299\n      jumpi\n        /* \"#utility.yul\":8758:8776   */\n      tag_300\n      tag_192\n      jump\t// in\n    tag_300:\n        /* \"#utility.yul\":8741:8778   */\n    tag_299:\n        /* \"#utility.yul\":8591:8785   */\n      swap3\n      swap2\n      pop\n      pop\n      jump\t// out\n        /* \"#utility.yul\":8791:9123   */\n    tag_114:\n        /* \"#utility.yul\":8912:8916   */\n      0x00\n        /* \"#utility.yul\":8950:8952   */\n      0x40\n        /* \"#utility.yul\":8939:8948   */\n      dup3\n        /* \"#utility.yul\":8935:8953   */\n      add\n        /* \"#utility.yul\":8927:8953   */\n      swap1\n      pop\n        /* \"#utility.yul\":8963:9034   */\n      tag_302\n        /* \"#utility.yul\":9031:9032   */\n      0x00\n        /* \"#utility.yul\":9020:9029   */\n      dup4\n        /* \"#utility.yul\":9016:9033   */\n      add\n        /* \"#utility.yul\":9007:9013   */\n      dup6\n        /* \"#utility.yul\":8963:9034   */\n      tag_184\n      jump\t// in\n    tag_302:\n        /* \"#utility.yul\":9044:9116   */\n      tag_303\n        /* \"#utility.yul\":9112:9114   */\n      0x20\n        /* \"#utility.yul\":9101:9110   */\n      dup4\n        /* \"#utility.yul\":9097:9115   */\n      add\n        /* \"#utility.yul\":9088:9094   */\n      dup5\n        /* \"#utility.yul\":9044:9116   */\n      tag_177\n      jump\t// in\n    tag_303:\n        /* \"#utility.yul\":8791:9123   */\n      swap4\n      swap3\n      pop\n      pop\n      pop\n      jump\t// out\n        /* \"#utility.yul\":9129:9571   */\n    tag_119:\n        /* \"#utility.yul\":9278:9282   */\n      0x00\n        /* \"#utility.yul\":9316:9318   */\n      0x60\n        /* \"#utility.yul\":9305:9314   */\n      dup3\n        /* \"#utility.yul\":9301:9319   */\n      add\n        /* \"#utility.yul\":9293:9319   */\n      swap1\n      pop\n        /* \"#utility.yul\":9329:9400   */\n      tag_305\n        /* \"#utility.yul\":9397:9398   */\n      0x00\n        /* \"#utility.yul\":9386:9395   */\n      dup4\n        /* \"#utility.yul\":9382:9399   */\n      add\n        /* \"#utility.yul\":9373:9379   */\n      dup7\n        /* \"#utility.yul\":9329:9400   */\n      tag_177\n      jump\t// in\n    tag_305:\n        /* \"#utility.yul\":9410:9482   */\n      tag_306\n        /* \"#utility.yul\":9478:9480   */\n      0x20\n        /* \"#utility.yul\":9467:9476   */\n      dup4\n        /* \"#utility.yul\":9463:9481   */\n      add\n        /* \"#utility.yul\":9454:9460   */\n      dup6\n        /* \"#utility.yul\":9410:9482   */\n      tag_184\n      jump\t// in\n    tag_306:\n        /* \"#utility.yul\":9492:9564   */\n      tag_307\n        /* \"#utility.yul\":9560:9562   */\n      0x40\n        /* \"#utility.yul\":9549:9558   */\n      dup4\n        /* \"#utility.yul\":9545:9563   */\n      add\n        /* \"#utility.yul\":9536:9542   */\n      dup5\n        /* \"#utility.yul\":9492:9564   */\n      tag_177\n      jump\t// in\n    tag_307:\n        /* \"#utility.yul\":9129:9571   */\n      swap5\n      swap4\n      pop\n      pop\n      pop\n      pop\n      jump\t// out\n        /* \"#utility.yul\":9577:9799   */\n    tag_194:\n        /* \"#utility.yul\":9717:9751   */\n      0x57616c6c657420416464726573732063616e206e6f7420626520616464726573\n        /* \"#utility.yul\":9713:9714   */\n      0x00\n        /* \"#utility.yul\":9705:9711   */\n      dup3\n        /* \"#utility.yul\":9701:9715   */\n      add\n        /* \"#utility.yul\":9694:9752   */\n      mstore\n        /* \"#utility.yul\":9786:9791   */\n      0x7320300000000000000000000000000000000000000000000000000000000000\n        /* \"#utility.yul\":9781:9783   */\n      0x20\n        /* \"#utility.yul\":9773:9779   */\n      dup3\n        /* \"#utility.yul\":9769:9784   */\n      add\n        /* \"#utility.yul\":9762:9792   */\n      mstore\n        /* \"#utility.yul\":9577:9799   */\n      pop\n      jump\t// out\n        /* \"#utility.yul\":9805:10171   */\n    tag_195:\n        /* \"#utility.yul\":9947:9950   */\n      0x00\n        /* \"#utility.yul\":9968:10035   */\n      tag_310\n        /* \"#utility.yul\":10032:10034   */\n      0x23\n        /* \"#utility.yul\":10027:10030   */\n      dup4\n        /* \"#utility.yul\":9968:10035   */\n      tag_185\n      jump\t// in\n    tag_310:\n        /* \"#utility.yul\":9961:10035   */\n      swap2\n      pop\n        /* \"#utility.yul\":10044:10137   */\n      tag_311\n        /* \"#utility.yul\":10133:10136   */\n      dup3\n        /* \"#utility.yul\":10044:10137   */\n      tag_194\n      jump\t// in\n    tag_311:\n        /* \"#utility.yul\":10162:10164   */\n      0x40\n        /* \"#utility.yul\":10157:10160   */\n      dup3\n        /* \"#utility.yul\":10153:10165   */\n      add\n        /* \"#utility.yul\":10146:10165   */\n      swap1\n      pop\n        /* \"#utility.yul\":9805:10171   */\n      swap2\n      swap1\n      pop\n      jump\t// out\n        /* \"#utility.yul\":10177:10596   */\n    tag_127:\n        /* \"#utility.yul\":10343:10347   */\n      0x00\n        /* \"#utility.yul\":10381:10383   */\n      0x20\n        /* \"#utility.yul\":10370:10379   */\n      dup3\n        /* \"#utility.yul\":10366:10384   */\n      add\n        /* \"#utility.yul\":10358:10384   */\n      swap1\n      pop\n        /* \"#utility.yul\":10430:10439   */\n      dup2\n        /* \"#utility.yul\":10424:10428   */\n      dup2\n        /* \"#utility.yul\":10420:10440   */\n      sub\n        /* \"#utility.yul\":10416:10417   */\n      0x00\n        /* \"#utility.yul\":10405:10414   */\n      dup4\n        /* \"#utility.yul\":10401:10418   */\n      add\n        /* \"#utility.yul\":10394:10441   */\n      mstore\n        /* \"#utility.yul\":10458:10589   */\n      tag_313\n        /* \"#utility.yul\":10584:10588   */\n      dup2\n        /* \"#utility.yul\":10458:10589   */\n      tag_195\n      jump\t// in\n    tag_313:\n        /* \"#utility.yul\":10450:10589   */\n      swap1\n      pop\n        /* \"#utility.yul\":10177:10596   */\n      swap2\n      swap1\n      pop\n      jump\t// out\n        /* \"#utility.yul\":10602:10745   */\n    tag_196:\n        /* \"#utility.yul\":10659:10664   */\n      0x00\n        /* \"#utility.yul\":10690:10696   */\n      dup2\n        /* \"#utility.yul\":10684:10697   */\n      mload\n        /* \"#utility.yul\":10675:10697   */\n      swap1\n      pop\n        /* \"#utility.yul\":10706:10739   */\n      tag_315\n        /* \"#utility.yul\":10733:10738   */\n      dup2\n        /* \"#utility.yul\":10706:10739   */\n      tag_175\n      jump\t// in\n    tag_315:\n        /* \"#utility.yul\":10602:10745   */\n      swap3\n      swap2\n      pop\n      pop\n      jump\t// out\n        /* \"#utility.yul\":10751:11102   */\n    tag_132:\n        /* \"#utility.yul\":10821:10827   */\n      0x00\n        /* \"#utility.yul\":10870:10872   */\n      0x20\n        /* \"#utility.yul\":10858:10867   */\n      dup3\n        /* \"#utility.yul\":10849:10856   */\n      dup5\n        /* \"#utility.yul\":10845:10868   */\n      sub\n        /* \"#utility.yul\":10841:10873   */\n      slt\n        /* \"#utility.yul\":10838:10957   */\n      iszero\n      tag_317\n      jumpi\n        /* \"#utility.yul\":10876:10955   */\n      tag_318\n      tag_172\n      jump\t// in\n    tag_318:\n        /* \"#utility.yul\":10838:10957   */\n    tag_317:\n        /* \"#utility.yul\":10996:10997   */\n      0x00\n        /* \"#utility.yul\":11021:11085   */\n      tag_319\n        /* \"#utility.yul\":11077:11084   */\n      dup5\n        /* \"#utility.yul\":11068:11074   */\n      dup3\n        /* \"#utility.yul\":11057:11066   */\n      dup6\n        /* \"#utility.yul\":11053:11075   */\n      add\n        /* \"#utility.yul\":11021:11085   */\n      tag_196\n      jump\t// in\n    tag_319:\n        /* \"#utility.yul\":11011:11085   */\n      swap2\n      pop\n        /* \"#utility.yul\":10967:11095   */\n      pop\n        /* \"#utility.yul\":10751:11102   */\n      swap3\n      swap2\n      pop\n      pop\n      jump\t// out\n        /* \"#utility.yul\":11108:11277   */\n    tag_197:\n        /* \"#utility.yul\":11248:11269   */\n      0x496e73756666696369656e7420746f6b656e7300000000000000000000000000\n        /* \"#utility.yul\":11244:11245   */\n      0x00\n        /* \"#utility.yul\":11236:11242   */\n      dup3\n        /* \"#utility.yul\":11232:11246   */\n      add\n        /* \"#utility.yul\":11225:11270   */\n      mstore\n        /* \"#utility.yul\":11108:11277   */\n      pop\n      jump\t// out\n        /* \"#utility.yul\":11283:11649   */\n    tag_198:\n        /* \"#utility.yul\":11425:11428   */\n      0x00\n        /* \"#utility.yul\":11446:11513   */\n      tag_322\n        /* \"#utility.yul\":11510:11512   */\n      0x13\n        /* \"#utility.yul\":11505:11508   */\n      dup4\n        /* \"#utility.yul\":11446:11513   */\n      tag_185\n      jump\t// in\n    tag_322:\n        /* \"#utility.yul\":11439:11513   */\n      swap2\n      pop\n        /* \"#utility.yul\":11522:11615   */\n      tag_323\n        /* \"#utility.yul\":11611:11614   */\n      dup3\n        /* \"#utility.yul\":11522:11615   */\n      tag_197\n      jump\t// in\n    tag_323:\n        /* \"#utility.yul\":11640:11642   */\n      0x20\n        /* \"#utility.yul\":11635:11638   */\n      dup3\n        /* \"#utility.yul\":11631:11643   */\n      add\n        /* \"#utility.yul\":11624:11643   */\n      swap1\n      pop\n        /* \"#utility.yul\":11283:11649   */\n      swap2\n      swap1\n      pop\n      jump\t// out\n        /* \"#utility.yul\":11655:12074   */\n    tag_135:\n        /* \"#utility.yul\":11821:11825   */\n      0x00\n        /* \"#utility.yul\":11859:11861   */\n      0x20\n        /* \"#utility.yul\":11848:11857   */\n      dup3\n        /* \"#utility.yul\":11844:11862   */\n      add\n        /* \"#utility.yul\":11836:11862   */\n      swap1\n      pop\n        /* \"#utility.yul\":11908:11917   */\n      dup2\n        /* \"#utility.yul\":11902:11906   */\n      dup2\n        /* \"#utility.yul\":11898:11918   */\n      sub\n        /* \"#utility.yul\":11894:11895   */\n      0x00\n        /* \"#utility.yul\":11883:11892   */\n      dup4\n        /* \"#utility.yul\":11879:11896   */\n      add\n        /* \"#utility.yul\":11872:11919   */\n      mstore\n        /* \"#utility.yul\":11936:12067   */\n      tag_325\n        /* \"#utility.yul\":12062:12066   */\n      dup2\n        /* \"#utility.yul\":11936:12067   */\n      tag_198\n      jump\t// in\n    tag_325:\n        /* \"#utility.yul\":11928:12067   */\n      swap1\n      pop\n        /* \"#utility.yul\":11655:12074   */\n      swap2\n      swap1\n      pop\n      jump\t// out\n        /* \"#utility.yul\":12080:12259   */\n    tag_199:\n        /* \"#utility.yul\":12220:12251   */\n      0x506c6561736520656e7465722076616c696420737461636b2064617973000000\n        /* \"#utility.yul\":12216:12217   */\n      0x00\n        /* \"#utility.yul\":12208:12214   */\n      dup3\n        /* \"#utility.yul\":12204:12218   */\n      add\n        /* \"#utility.yul\":12197:12252   */\n      mstore\n        /* \"#utility.yul\":12080:12259   */\n      pop\n      jump\t// out\n        /* \"#utility.yul\":12265:12631   */\n    tag_200:\n        /* \"#utility.yul\":12407:12410   */\n      0x00\n        /* \"#utility.yul\":12428:12495   */\n      tag_328\n        /* \"#utility.yul\":12492:12494   */\n      0x1d\n        /* \"#utility.yul\":12487:12490   */\n      dup4\n        /* \"#utility.yul\":12428:12495   */\n      tag_185\n      jump\t// in\n    tag_328:\n        /* \"#utility.yul\":12421:12495   */\n      swap2\n      pop\n        /* \"#utility.yul\":12504:12597   */\n      tag_329\n        /* \"#utility.yul\":12593:12596   */\n      dup3\n        /* \"#utility.yul\":12504:12597   */\n      tag_199\n      jump\t// in\n    tag_329:\n        /* \"#utility.yul\":12622:12624   */\n      0x20\n        /* \"#utility.yul\":12617:12620   */\n      dup3\n        /* \"#utility.yul\":12613:12625   */\n      add\n        /* \"#utility.yul\":12606:12625   */\n      swap1\n      pop\n        /* \"#utility.yul\":12265:12631   */\n      swap2\n      swap1\n      pop\n      jump\t// out\n        /* \"#utility.yul\":12637:13056   */\n    tag_138:\n        /* \"#utility.yul\":12803:12807   */\n      0x00\n        /* \"#utility.yul\":12841:12843   */\n      0x20\n        /* \"#utility.yul\":12830:12839   */\n      dup3\n        /* \"#utility.yul\":12826:12844   */\n      add\n        /* \"#utility.yul\":12818:12844   */\n      swap1\n      pop\n        /* \"#utility.yul\":12890:12899   */\n      dup2\n        /* \"#utility.yul\":12884:12888   */\n      dup2\n        /* \"#utility.yul\":12880:12900   */\n      sub\n        /* \"#utility.yul\":12876:12877   */\n      0x00\n        /* \"#utility.yul\":12865:12874   */\n      dup4\n        /* \"#utility.yul\":12861:12878   */\n      add\n        /* \"#utility.yul\":12854:12901   */\n      mstore\n        /* \"#utility.yul\":12918:13049   */\n      tag_331\n        /* \"#utility.yul\":13044:13048   */\n      dup2\n        /* \"#utility.yul\":12918:13049   */\n      tag_200\n      jump\t// in\n    tag_331:\n        /* \"#utility.yul\":12910:13049   */\n      swap1\n      pop\n        /* \"#utility.yul\":12637:13056   */\n      swap2\n      swap1\n      pop\n      jump\t// out\n        /* \"#utility.yul\":13062:13472   */\n    tag_142:\n        /* \"#utility.yul\":13102:13109   */\n      0x00\n        /* \"#utility.yul\":13125:13145   */\n      tag_333\n        /* \"#utility.yul\":13143:13144   */\n      dup3\n        /* \"#utility.yul\":13125:13145   */\n      tag_174\n      jump\t// in\n    tag_333:\n        /* \"#utility.yul\":13120:13145   */\n      swap2\n      pop\n        /* \"#utility.yul\":13159:13179   */\n      tag_334\n        /* \"#utility.yul\":13177:13178   */\n      dup4\n        /* \"#utility.yul\":13159:13179   */\n      tag_174\n      jump\t// in\n    tag_334:\n        /* \"#utility.yul\":13154:13179   */\n      swap3\n      pop\n        /* \"#utility.yul\":13214:13215   */\n      dup3\n        /* \"#utility.yul\":13211:13212   */\n      dup3\n        /* \"#utility.yul\":13207:13216   */\n      mul\n        /* \"#utility.yul\":13236:13266   */\n      tag_335\n        /* \"#utility.yul\":13254:13265   */\n      dup2\n        /* \"#utility.yul\":13236:13266   */\n      tag_174\n      jump\t// in\n    tag_335:\n        /* \"#utility.yul\":13225:13266   */\n      swap2\n      pop\n        /* \"#utility.yul\":13415:13416   */\n      dup3\n        /* \"#utility.yul\":13406:13413   */\n      dup3\n        /* \"#utility.yul\":13402:13417   */\n      div\n        /* \"#utility.yul\":13399:13400   */\n      dup5\n        /* \"#utility.yul\":13396:13418   */\n      eq\n        /* \"#utility.yul\":13376:13377   */\n      dup4\n        /* \"#utility.yul\":13369:13378   */\n      iszero\n        /* \"#utility.yul\":13349:13432   */\n      or\n        /* \"#utility.yul\":13326:13465   */\n      tag_336\n      jumpi\n        /* \"#utility.yul\":13445:13463   */\n      tag_337\n      tag_192\n      jump\t// in\n    tag_337:\n        /* \"#utility.yul\":13326:13465   */\n    tag_336:\n        /* \"#utility.yul\":13110:13472   */\n      pop\n        /* \"#utility.yul\":13062:13472   */\n      swap3\n      swap2\n      pop\n      pop\n      jump\t// out\n        /* \"#utility.yul\":13478:13709   */\n    tag_201:\n        /* \"#utility.yul\":13618:13652   */\n      0x496e76616c696420706172616d657465722073657420666f72206368616e6765\n        /* \"#utility.yul\":13614:13615   */\n      0x00\n        /* \"#utility.yul\":13606:13612   */\n      dup3\n        /* \"#utility.yul\":13602:13616   */\n      add\n        /* \"#utility.yul\":13595:13653   */\n      mstore\n        /* \"#utility.yul\":13687:13701   */\n      0x2070657263656e746167652e0000000000000000000000000000000000000000\n        /* \"#utility.yul\":13682:13684   */\n      0x20\n        /* \"#utility.yul\":13674:13680   */\n      dup3\n        /* \"#utility.yul\":13670:13685   */\n      add\n        /* \"#utility.yul\":13663:13702   */\n      mstore\n        /* \"#utility.yul\":13478:13709   */\n      pop\n      jump\t// out\n        /* \"#utility.yul\":13715:14081   */\n    tag_202:\n        /* \"#utility.yul\":13857:13860   */\n      0x00\n        /* \"#utility.yul\":13878:13945   */\n      tag_340\n        /* \"#utility.yul\":13942:13944   */\n      0x2c\n        /* \"#utility.yul\":13937:13940   */\n      dup4\n        /* \"#utility.yul\":13878:13945   */\n      tag_185\n      jump\t// in\n    tag_340:\n        /* \"#utility.yul\":13871:13945   */\n      swap2\n      pop\n        /* \"#utility.yul\":13954:14047   */\n      tag_341\n        /* \"#utility.yul\":14043:14046   */\n      dup3\n        /* \"#utility.yul\":13954:14047   */\n      tag_201\n      jump\t// in\n    tag_341:\n        /* \"#utility.yul\":14072:14074   */\n      0x40\n        /* \"#utility.yul\":14067:14070   */\n      dup3\n        /* \"#utility.yul\":14063:14075   */\n      add\n        /* \"#utility.yul\":14056:14075   */\n      swap1\n      pop\n        /* \"#utility.yul\":13715:14081   */\n      swap2\n      swap1\n      pop\n      jump\t// out\n        /* \"#utility.yul\":14087:14506   */\n    tag_162:\n        /* \"#utility.yul\":14253:14257   */\n      0x00\n        /* \"#utility.yul\":14291:14293   */\n      0x20\n        /* \"#utility.yul\":14280:14289   */\n      dup3\n        /* \"#utility.yul\":14276:14294   */\n      add\n        /* \"#utility.yul\":14268:14294   */\n      swap1\n      pop\n        /* \"#utility.yul\":14340:14349   */\n      dup2\n        /* \"#utility.yul\":14334:14338   */\n      dup2\n        /* \"#utility.yul\":14330:14350   */\n      sub\n        /* \"#utility.yul\":14326:14327   */\n      0x00\n        /* \"#utility.yul\":14315:14324   */\n      dup4\n        /* \"#utility.yul\":14311:14328   */\n      add\n        /* \"#utility.yul\":14304:14351   */\n      mstore\n        /* \"#utility.yul\":14368:14499   */\n      tag_343\n        /* \"#utility.yul\":14494:14498   */\n      dup2\n        /* \"#utility.yul\":14368:14499   */\n      tag_202\n      jump\t// in\n    tag_343:\n        /* \"#utility.yul\":14360:14499   */\n      swap1\n      pop\n        /* \"#utility.yul\":14087:14506   */\n      swap2\n      swap1\n      pop\n      jump\t// out\n\n    auxdata: 0xa264697066735822122028be47f3e55fd1b648e507de6a367e9326d300b0a98d39d2d4d044c93afd9cab64736f6c63430008130033\n}\n",
				"bytecode": {
					"linkReferences": {},
					"object": "60806040526000600260006101000a81548173ffffffffffffffffffffffffffffffffffffffff021916908373ffffffffffffffffffffffffffffffffffffffff1602179055503480156200005357600080fd5b506040516200226538038062002265833981810160405281019062000079919062000254565b336000806101000a81548173ffffffffffffffffffffffffffffffffffffffff021916908373ffffffffffffffffffffffffffffffffffffffff16021790555060008054906101000a900473ffffffffffffffffffffffffffffffffffffffff1673ffffffffffffffffffffffffffffffffffffffff16600073ffffffffffffffffffffffffffffffffffffffff167f8be0079c531659141344cd1fd0a4f28419497f9722a3daafe3b4186f6b6457e060405160405180910390a380600260006101000a81548173ffffffffffffffffffffffffffffffffffffffff021916908373ffffffffffffffffffffffffffffffffffffffff1602179055506102bc60066000601e815260200190815260200160002081905550611d4c60066000605a815260200190815260200160002081905550610dac6006600060b481526020019081526020016000208190555062027100600660006101688152602001908152602001600020819055505062000286565b600080fd5b600073ffffffffffffffffffffffffffffffffffffffff82169050919050565b60006200021c82620001ef565b9050919050565b6200022e816200020f565b81146200023a57600080fd5b50565b6000815190506200024e8162000223565b92915050565b6000602082840312156200026d576200026c620001ea565b5b60006200027d848285016200023d565b91505092915050565b611fcf80620002966000396000f3fe608060405234801561001057600080fd5b50600436106100f55760003560e01c80637b0472f0116100975780639d76ea58116100665780639d76ea58146102785780639e9593ce14610296578063b073ca81146102b4578063f2fde38b146102e4576100f5565b80637b0472f0146101d85780638da5cb5b146102085780638f32d59b1461022657806395dfea7714610244576100f5565b806344ed10ba116100d357806344ed10ba146101505780634f17edf9146101805780635d3eea911461019e578063715018a6146101ce576100f5565b806307b7d86f146100fa5780631fe19cd914610116578063295d801e14610134575b600080fd5b610114600480360381019061010f9190611834565b610300565b005b61011e61041c565b60405161012b9190611870565b60405180910390f35b61014e600480360381019061014991906118e9565b610463565b005b61016a60048036038101906101659190611834565b6104b8565b6040516101779190611870565b60405180910390f35b6101886104d5565b6040516101959190611870565b60405180910390f35b6101b860048036038101906101b39190611834565b6105a3565b6040516101c59190611931565b60405180910390f35b6101d6610f0e565b005b6101f260048036038101906101ed919061194c565b610fdd565b6040516101ff9190611931565b60405180910390f35b61021061153e565b60405161021d919061199b565b60405180910390f35b61022e611567565b60405161023b9190611931565b60405180910390f35b61025e600480360381019061025991906119b6565b6115be565b60405161026f9594939291906119f6565b60405180910390f35b610280611601565b60405161028d919061199b565b60405180910390f35b61029e611627565b6040516102ab919061199b565b60405180910390f35b6102ce60048036038101906102c9919061194c565b61164d565b6040516102db9190611870565b60405180910390f35b6102fe60048036038101906102f991906118e9565b6116e6565b005b610308611567565b61031157600080fd5b60008111610354576040517f08c379a000000000000000000000000000000000000000000000000000000000815260040161034b90611aa6565b60405180910390fd5b600260009054906101000a900473ffffffffffffffffffffffffffffffffffffffff1673ffffffffffffffffffffffffffffffffffffffff166323b872dd600160009054906101000a900473ffffffffffffffffffffffffffffffffffffffff1630846040518463ffffffff1660e01b81526004016103d593929190611ac6565b6020604051808303816000875af11580156103f4573d6000803e3d6000fd5b505050506040513d601f19601f820116820180604052508101906104189190611b29565b5050565b6000600460003373ffffffffffffffffffffffffffffffffffffffff1673ffffffffffffffffffffffffffffffffffffffff16815260200190815260200160002054905090565b61046b611567565b61047457600080fd5b80600160006101000a81548173ffffffffffffffffffffffffffffffffffffffff021916908373ffffffffffffffffffffffffffffffffffffffff16021790555050565b600060066000838152602001908152602001600020549050919050565b600080600560003373ffffffffffffffffffffffffffffffffffffffff1673ffffffffffffffffffffffffffffffffffffffff1681526020019081526020016000205411610558576040517f08c379a000000000000000000000000000000000000000000000000000000000815260040161054f90611ba2565b60405180910390fd5b6000600560003373ffffffffffffffffffffffffffffffffffffffff1673ffffffffffffffffffffffffffffffffffffffff1681526020019081526020016000205490508091505090565b60008060008060003390506000600360008373ffffffffffffffffffffffffffffffffffffffff1673ffffffffffffffffffffffffffffffffffffffff16815260200190815260200160002060008881526020019081526020016000206002015490506000600360008473ffffffffffffffffffffffffffffffffffffffff1673ffffffffffffffffffffffffffffffffffffffff1681526020019081526020016000206000898152602001908152602001600020600301541161069c576040517f08c379a000000000000000000000000000000000000000000000000000000000815260040161069390611ba2565b60405180910390fd5b8042111561076057600360008373ffffffffffffffffffffffffffffffffffffffff1673ffffffffffffffffffffffffffffffffffffffff168152602001908152602001600020600088815260200190815260200160002060040154935083600360008473ffffffffffffffffffffffffffffffffffffffff1673ffffffffffffffffffffffffffffffffffffffff1681526020019081526020016000206000898152602001908152602001600020600301546107599190611bf1565b9450610827565b600360008373ffffffffffffffffffffffffffffffffffffffff1673ffffffffffffffffffffffffffffffffffffffff16815260200190815260200160002060008881526020019081526020016000206004015493506002846107c39190611c54565b925082600360008473ffffffffffffffffffffffffffffffffffffffff1673ffffffffffffffffffffffffffffffffffffffff1681526020019081526020016000206000898152602001908152602001600020600301546108249190611bf1565b94505b6001600460008473ffffffffffffffffffffffffffffffffffffffff1673ffffffffffffffffffffffffffffffffffffffff168152602001908152602001600020546108739190611c85565b600460008473ffffffffffffffffffffffffffffffffffffffff1673ffffffffffffffffffffffffffffffffffffffff16815260200190815260200160002081905550600460008373ffffffffffffffffffffffffffffffffffffffff1673ffffffffffffffffffffffffffffffffffffffff16815260200190815260200160002054600781905550600360008373ffffffffffffffffffffffffffffffffffffffff1673ffffffffffffffffffffffffffffffffffffffff1681526020019081526020016000206000600754815260200190815260200160002060000154600360008473ffffffffffffffffffffffffffffffffffffffff1673ffffffffffffffffffffffffffffffffffffffff168152602001908152602001600020600089815260200190815260200160002060000181905550600360008373ffffffffffffffffffffffffffffffffffffffff1673ffffffffffffffffffffffffffffffffffffffff1681526020019081526020016000206000600754815260200190815260200160002060030154600360008473ffffffffffffffffffffffffffffffffffffffff1673ffffffffffffffffffffffffffffffffffffffff168152602001908152602001600020600089815260200190815260200160002060030181905550600360008373ffffffffffffffffffffffffffffffffffffffff1673ffffffffffffffffffffffffffffffffffffffff1681526020019081526020016000206000600754815260200190815260200160002060010154600360008473ffffffffffffffffffffffffffffffffffffffff1673ffffffffffffffffffffffffffffffffffffffff168152602001908152602001600020600089815260200190815260200160002060010181905550600360008373ffffffffffffffffffffffffffffffffffffffff1673ffffffffffffffffffffffffffffffffffffffff1681526020019081526020016000206000600754815260200190815260200160002060020154600360008473ffffffffffffffffffffffffffffffffffffffff1673ffffffffffffffffffffffffffffffffffffffff168152602001908152602001600020600089815260200190815260200160002060020181905550600360008373ffffffffffffffffffffffffffffffffffffffff1673ffffffffffffffffffffffffffffffffffffffff1681526020019081526020016000206000600754815260200190815260200160002060040154600360008473ffffffffffffffffffffffffffffffffffffffff1673ffffffffffffffffffffffffffffffffffffffff1681526020019081526020016000206000898152602001908152602001600020600401819055506000600360008473ffffffffffffffffffffffffffffffffffffffff1673ffffffffffffffffffffffffffffffffffffffff16815260200190815260200160002060006007548152602001908152602001600020600001819055506000600360008473ffffffffffffffffffffffffffffffffffffffff1673ffffffffffffffffffffffffffffffffffffffff16815260200190815260200160002060006007548152602001908152602001600020600301819055506000600360008473ffffffffffffffffffffffffffffffffffffffff1673ffffffffffffffffffffffffffffffffffffffff16815260200190815260200160002060006007548152602001908152602001600020600101819055506000600360008473ffffffffffffffffffffffffffffffffffffffff1673ffffffffffffffffffffffffffffffffffffffff16815260200190815260200160002060006007548152602001908152602001600020600201819055506000600360008473ffffffffffffffffffffffffffffffffffffffff1673ffffffffffffffffffffffffffffffffffffffff1681526020019081526020016000206000600754815260200190815260200160002060040181905550600260009054906101000a900473ffffffffffffffffffffffffffffffffffffffff1673ffffffffffffffffffffffffffffffffffffffff1663a9059cbb83876040518363ffffffff1660e01b8152600401610e81929190611cb9565b6020604051808303816000875af1158015610ea0573d6000803e3d6000fd5b505050506040513d601f19601f82011682018060405250810190610ec49190611b29565b507f51a7c71612bbc91e40c8399a943910073e3e8efe41f5904135677ee75e995aa4878387604051610ef893929190611ce2565b60405180910390a1600195505050505050919050565b610f16611567565b610f1f57600080fd5b600073ffffffffffffffffffffffffffffffffffffffff1660008054906101000a900473ffffffffffffffffffffffffffffffffffffffff1673ffffffffffffffffffffffffffffffffffffffff167f8be0079c531659141344cd1fd0a4f28419497f9722a3daafe3b4186f6b6457e060405160405180910390a360008060006101000a81548173ffffffffffffffffffffffffffffffffffffffff021916908373ffffffffffffffffffffffffffffffffffffffff160217905550565b60008073ffffffffffffffffffffffffffffffffffffffff163373ffffffffffffffffffffffffffffffffffffffff160361104d576040517f08c379a000000000000000000000000000000000000000000000000000000000815260040161104490611d8b565b60405180910390fd5b81600260009054906101000a900473ffffffffffffffffffffffffffffffffffffffff1673ffffffffffffffffffffffffffffffffffffffff166370a08231336040518263ffffffff1660e01b81526004016110a9919061199b565b6020604051808303816000875af11580156110c8573d6000803e3d6000fd5b505050506040513d601f19601f820116820180604052508101906110ec9190611dc0565b1161112c576040517f08c379a000000000000000000000000000000000000000000000000000000000815260040161112390611e39565b60405180910390fd5b6000600660008581526020019081526020016000205411611182576040517f08c379a000000000000000000000000000000000000000000000000000000000815260040161117990611ea5565b60405180910390fd5b600082116111c5576040517f08c379a00000000000000000000000000000000000000000000000000000000081526004016111bc90611aa6565b60405180910390fd5b60006127106006600086815260200190815260200160002054846111e99190611ec5565b6111f39190611c54565b905080600560003373ffffffffffffffffffffffffffffffffffffffff1673ffffffffffffffffffffffffffffffffffffffff168152602001908152602001600020546112409190611bf1565b600560003373ffffffffffffffffffffffffffffffffffffffff1673ffffffffffffffffffffffffffffffffffffffff168152602001908152602001600020819055506040518060a0016040528085815260200142815260200162015180866112a99190611ec5565b426112b49190611bf1565b815260200184815260200182815250600360003373ffffffffffffffffffffffffffffffffffffffff1673ffffffffffffffffffffffffffffffffffffffff1681526020019081526020016000206000600460003373ffffffffffffffffffffffffffffffffffffffff1673ffffffffffffffffffffffffffffffffffffffff1681526020019081526020016000205481526020019081526020016000206000820151816000015560208201518160010155604082015181600201556060820151816003015560808201518160040155905050600260009054906101000a900473ffffffffffffffffffffffffffffffffffffffff1673ffffffffffffffffffffffffffffffffffffffff166323b872dd3330866040518463ffffffff1660e01b81526004016113e693929190611ac6565b6020604051808303816000875af1158015611405573d6000803e3d6000fd5b505050506040513d601f19601f820116820180604052508101906114299190611b29565b506001600460003373ffffffffffffffffffffffffffffffffffffffff1673ffffffffffffffffffffffffffffffffffffffff168152602001908152602001600020546114769190611bf1565b600460003373ffffffffffffffffffffffffffffffffffffffff1673ffffffffffffffffffffffffffffffffffffffff168152602001908152602001600020819055507f2c5661ed6b4853d3121c31ba3030dcca726029280495b1e64b7da6645779051a600460003373ffffffffffffffffffffffffffffffffffffffff1673ffffffffffffffffffffffffffffffffffffffff16815260200190815260200160002054308560405161152b93929190611ce2565b60405180910390a1600191505092915050565b60008060009054906101000a900473ffffffffffffffffffffffffffffffffffffffff16905090565b60008060009054906101000a900473ffffffffffffffffffffffffffffffffffffffff1673ffffffffffffffffffffffffffffffffffffffff163373ffffffffffffffffffffffffffffffffffffffff1614905090565b6003602052816000526040600020602052806000526040600020600091509150508060000154908060010154908060020154908060030154908060040154905085565b600260009054906101000a900473ffffffffffffffffffffffffffffffffffffffff1681565b600160009054906101000a900473ffffffffffffffffffffffffffffffffffffffff1681565b6000611657611567565b61166057600080fd5b612710821180156116735750620f424082105b6116b2576040517f08c379a00000000000000000000000000000000000000000000000000000000081526004016116a990611f79565b60405180910390fd5b8160066000858152602001908152602001600020819055506006600084815260200190815260200160002054905092915050565b6116ee611567565b6116f757600080fd5b61170081611703565b50565b600073ffffffffffffffffffffffffffffffffffffffff168173ffffffffffffffffffffffffffffffffffffffff160361173c57600080fd5b8073ffffffffffffffffffffffffffffffffffffffff1660008054906101000a900473ffffffffffffffffffffffffffffffffffffffff1673ffffffffffffffffffffffffffffffffffffffff167f8be0079c531659141344cd1fd0a4f28419497f9722a3daafe3b4186f6b6457e060405160405180910390a3806000806101000a81548173ffffffffffffffffffffffffffffffffffffffff021916908373ffffffffffffffffffffffffffffffffffffffff16021790555050565b600080fd5b6000819050919050565b611811816117fe565b811461181c57600080fd5b50565b60008135905061182e81611808565b92915050565b60006020828403121561184a576118496117f9565b5b60006118588482850161181f565b91505092915050565b61186a816117fe565b82525050565b60006020820190506118856000830184611861565b92915050565b600073ffffffffffffffffffffffffffffffffffffffff82169050919050565b60006118b68261188b565b9050919050565b6118c6816118ab565b81146118d157600080fd5b50565b6000813590506118e3816118bd565b92915050565b6000602082840312156118ff576118fe6117f9565b5b600061190d848285016118d4565b91505092915050565b60008115159050919050565b61192b81611916565b82525050565b60006020820190506119466000830184611922565b92915050565b60008060408385031215611963576119626117f9565b5b60006119718582860161181f565b92505060206119828582860161181f565b9150509250929050565b611995816118ab565b82525050565b60006020820190506119b0600083018461198c565b92915050565b600080604083850312156119cd576119cc6117f9565b5b60006119db858286016118d4565b92505060206119ec8582860161181f565b9150509250929050565b600060a082019050611a0b6000830188611861565b611a186020830187611861565b611a256040830186611861565b611a326060830185611861565b611a3f6080830184611861565b9695505050505050565b600082825260208201905092915050565b7f416d6f756e742073686f756c642062652067726561746572207468656e203000600082015250565b6000611a90601f83611a49565b9150611a9b82611a5a565b602082019050919050565b60006020820190508181036000830152611abf81611a83565b9050919050565b6000606082019050611adb600083018661198c565b611ae8602083018561198c565b611af56040830184611861565b949350505050565b611b0681611916565b8114611b1157600080fd5b50565b600081519050611b2381611afd565b92915050565b600060208284031215611b3f57611b3e6117f9565b5b6000611b4d84828501611b14565b91505092915050565b7f57616c6c65742041646472657373206973206e6f742045786973740000000000600082015250565b6000611b8c601b83611a49565b9150611b9782611b56565b602082019050919050565b60006020820190508181036000830152611bbb81611b7f565b9050919050565b7f4e487b7100000000000000000000000000000000000000000000000000000000600052601160045260246000fd5b6000611bfc826117fe565b9150611c07836117fe565b9250828201905080821115611c1f57611c1e611bc2565b5b92915050565b7f4e487b7100000000000000000000000000000000000000000000000000000000600052601260045260246000fd5b6000611c5f826117fe565b9150611c6a836117fe565b925082611c7a57611c79611c25565b5b828204905092915050565b6000611c90826117fe565b9150611c9b836117fe565b9250828203905081811115611cb357611cb2611bc2565b5b92915050565b6000604082019050611cce600083018561198c565b611cdb6020830184611861565b9392505050565b6000606082019050611cf76000830186611861565b611d04602083018561198c565b611d116040830184611861565b949350505050565b7f57616c6c657420416464726573732063616e206e6f742062652061646472657360008201527f7320300000000000000000000000000000000000000000000000000000000000602082015250565b6000611d75602383611a49565b9150611d8082611d19565b604082019050919050565b60006020820190508181036000830152611da481611d68565b9050919050565b600081519050611dba81611808565b92915050565b600060208284031215611dd657611dd56117f9565b5b6000611de484828501611dab565b91505092915050565b7f496e73756666696369656e7420746f6b656e7300000000000000000000000000600082015250565b6000611e23601383611a49565b9150611e2e82611ded565b602082019050919050565b60006020820190508181036000830152611e5281611e16565b9050919050565b7f506c6561736520656e7465722076616c696420737461636b2064617973000000600082015250565b6000611e8f601d83611a49565b9150611e9a82611e59565b602082019050919050565b60006020820190508181036000830152611ebe81611e82565b9050919050565b6000611ed0826117fe565b9150611edb836117fe565b9250828202611ee9816117fe565b91508282048414831517611f0057611eff611bc2565b5b5092915050565b7f496e76616c696420706172616d657465722073657420666f72206368616e676560008201527f2070657263656e746167652e0000000000000000000000000000000000000000602082015250565b6000611f63602c83611a49565b9150611f6e82611f07565b604082019050919050565b60006020820190508181036000830152611f9281611f56565b905091905056fea264697066735822122028be47f3e55fd1b648e507de6a367e9326d300b0a98d39d2d4d044c93afd9cab64736f6c63430008130033",
					"opcodes": "PUSH1 0x80 PUSH1 0x40 MSTORE PUSH1 0x0 PUSH1 0x2 PUSH1 0x0 PUSH2 0x100 EXP DUP2 SLOAD DUP2 PUSH20 0xFFFFFFFFFFFFFFFFFFFFFFFFFFFFFFFFFFFFFFFF MUL NOT AND SWAP1 DUP4 PUSH20 0xFFFFFFFFFFFFFFFFFFFFFFFFFFFFFFFFFFFFFFFF AND MUL OR SWAP1 SSTORE POP CALLVALUE DUP1 ISZERO PUSH3 0x53 JUMPI PUSH1 0x0 DUP1 REVERT JUMPDEST POP PUSH1 0x40 MLOAD PUSH3 0x2265 CODESIZE SUB DUP1 PUSH3 0x2265 DUP4 CODECOPY DUP2 DUP2 ADD PUSH1 0x40 MSTORE DUP2 ADD SWAP1 PUSH3 0x79 SWAP2 SWAP1 PUSH3 0x254 JUMP JUMPDEST CALLER PUSH1 0x0 DUP1 PUSH2 0x100 EXP DUP2 SLOAD DUP2 PUSH20 0xFFFFFFFFFFFFFFFFFFFFFFFFFFFFFFFFFFFFFFFF MUL NOT AND SWAP1 DUP4 PUSH20 0xFFFFFFFFFFFFFFFFFFFFFFFFFFFFFFFFFFFFFFFF AND MUL OR SWAP1 SSTORE POP PUSH1 0x0 DUP1 SLOAD SWAP1 PUSH2 0x100 EXP SWAP1 DIV PUSH20 0xFFFFFFFFFFFFFFFFFFFFFFFFFFFFFFFFFFFFFFFF AND PUSH20 0xFFFFFFFFFFFFFFFFFFFFFFFFFFFFFFFFFFFFFFFF AND PUSH1 0x0 PUSH20 0xFFFFFFFFFFFFFFFFFFFFFFFFFFFFFFFFFFFFFFFF AND PUSH32 0x8BE0079C531659141344CD1FD0A4F28419497F9722A3DAAFE3B4186F6B6457E0 PUSH1 0x40 MLOAD PUSH1 0x40 MLOAD DUP1 SWAP2 SUB SWAP1 LOG3 DUP1 PUSH1 0x2 PUSH1 0x0 PUSH2 0x100 EXP DUP2 SLOAD DUP2 PUSH20 0xFFFFFFFFFFFFFFFFFFFFFFFFFFFFFFFFFFFFFFFF MUL NOT AND SWAP1 DUP4 PUSH20 0xFFFFFFFFFFFFFFFFFFFFFFFFFFFFFFFFFFFFFFFF AND MUL OR SWAP1 SSTORE POP PUSH2 0x2BC PUSH1 0x6 PUSH1 0x0 PUSH1 0x1E DUP2 MSTORE PUSH1 0x20 ADD SWAP1 DUP2 MSTORE PUSH1 0x20 ADD PUSH1 0x0 KECCAK256 DUP2 SWAP1 SSTORE POP PUSH2 0x1D4C PUSH1 0x6 PUSH1 0x0 PUSH1 0x5A DUP2 MSTORE PUSH1 0x20 ADD SWAP1 DUP2 MSTORE PUSH1 0x20 ADD PUSH1 0x0 KECCAK256 DUP2 SWAP1 SSTORE POP PUSH2 0xDAC PUSH1 0x6 PUSH1 0x0 PUSH1 0xB4 DUP2 MSTORE PUSH1 0x20 ADD SWAP1 DUP2 MSTORE PUSH1 0x20 ADD PUSH1 0x0 KECCAK256 DUP2 SWAP1 SSTORE POP PUSH3 0x27100 PUSH1 0x6 PUSH1 0x0 PUSH2 0x168 DUP2 MSTORE PUSH1 0x20 ADD SWAP1 DUP2 MSTORE PUSH1 0x20 ADD PUSH1 0x0 KECCAK256 DUP2 SWAP1 SSTORE POP POP PUSH3 0x286 JUMP JUMPDEST PUSH1 0x0 DUP1 REVERT JUMPDEST PUSH1 0x0 PUSH20 0xFFFFFFFFFFFFFFFFFFFFFFFFFFFFFFFFFFFFFFFF DUP3 AND SWAP1 POP SWAP2 SWAP1 POP JUMP JUMPDEST PUSH1 0x0 PUSH3 0x21C DUP3 PUSH3 0x1EF JUMP JUMPDEST SWAP1 POP SWAP2 SWAP1 POP JUMP JUMPDEST PUSH3 0x22E DUP2 PUSH3 0x20F JUMP JUMPDEST DUP2 EQ PUSH3 0x23A JUMPI PUSH1 0x0 DUP1 REVERT JUMPDEST POP JUMP JUMPDEST PUSH1 0x0 DUP2 MLOAD SWAP1 POP PUSH3 0x24E DUP2 PUSH3 0x223 JUMP JUMPDEST SWAP3 SWAP2 POP POP JUMP JUMPDEST PUSH1 0x0 PUSH1 0x20 DUP3 DUP5 SUB SLT ISZERO PUSH3 0x26D JUMPI PUSH3 0x26C PUSH3 0x1EA JUMP JUMPDEST JUMPDEST PUSH1 0x0 PUSH3 0x27D DUP5 DUP3 DUP6 ADD PUSH3 0x23D JUMP JUMPDEST SWAP2 POP POP SWAP3 SWAP2 POP POP JUMP JUMPDEST PUSH2 0x1FCF DUP1 PUSH3 0x296 PUSH1 0x0 CODECOPY PUSH1 0x0 RETURN INVALID PUSH1 0x80 PUSH1 0x40 MSTORE CALLVALUE DUP1 ISZERO PUSH2 0x10 JUMPI PUSH1 0x0 DUP1 REVERT JUMPDEST POP PUSH1 0x4 CALLDATASIZE LT PUSH2 0xF5 JUMPI PUSH1 0x0 CALLDATALOAD PUSH1 0xE0 SHR DUP1 PUSH4 0x7B0472F0 GT PUSH2 0x97 JUMPI DUP1 PUSH4 0x9D76EA58 GT PUSH2 0x66 JUMPI DUP1 PUSH4 0x9D76EA58 EQ PUSH2 0x278 JUMPI DUP1 PUSH4 0x9E9593CE EQ PUSH2 0x296 JUMPI DUP1 PUSH4 0xB073CA81 EQ PUSH2 0x2B4 JUMPI DUP1 PUSH4 0xF2FDE38B EQ PUSH2 0x2E4 JUMPI PUSH2 0xF5 JUMP JUMPDEST DUP1 PUSH4 0x7B0472F0 EQ PUSH2 0x1D8 JUMPI DUP1 PUSH4 0x8DA5CB5B EQ PUSH2 0x208 JUMPI DUP1 PUSH4 0x8F32D59B EQ PUSH2 0x226 JUMPI DUP1 PUSH4 0x95DFEA77 EQ PUSH2 0x244 JUMPI PUSH2 0xF5 JUMP JUMPDEST DUP1 PUSH4 0x44ED10BA GT PUSH2 0xD3 JUMPI DUP1 PUSH4 0x44ED10BA EQ PUSH2 0x150 JUMPI DUP1 PUSH4 0x4F17EDF9 EQ PUSH2 0x180 JUMPI DUP1 PUSH4 0x5D3EEA91 EQ PUSH2 0x19E JUMPI DUP1 PUSH4 0x715018A6 EQ PUSH2 0x1CE JUMPI PUSH2 0xF5 JUMP JUMPDEST DUP1 PUSH4 0x7B7D86F EQ PUSH2 0xFA JUMPI DUP1 PUSH4 0x1FE19CD9 EQ PUSH2 0x116 JUMPI DUP1 PUSH4 0x295D801E EQ PUSH2 0x134 JUMPI JUMPDEST PUSH1 0x0 DUP1 REVERT JUMPDEST PUSH2 0x114 PUSH1 0x4 DUP1 CALLDATASIZE SUB DUP2 ADD SWAP1 PUSH2 0x10F SWAP2 SWAP1 PUSH2 0x1834 JUMP JUMPDEST PUSH2 0x300 JUMP JUMPDEST STOP JUMPDEST PUSH2 0x11E PUSH2 0x41C JUMP JUMPDEST PUSH1 0x40 MLOAD PUSH2 0x12B SWAP2 SWAP1 PUSH2 0x1870 JUMP JUMPDEST PUSH1 0x40 MLOAD DUP1 SWAP2 SUB SWAP1 RETURN JUMPDEST PUSH2 0x14E PUSH1 0x4 DUP1 CALLDATASIZE SUB DUP2 ADD SWAP1 PUSH2 0x149 SWAP2 SWAP1 PUSH2 0x18E9 JUMP JUMPDEST PUSH2 0x463 JUMP JUMPDEST STOP JUMPDEST PUSH2 0x16A PUSH1 0x4 DUP1 CALLDATASIZE SUB DUP2 ADD SWAP1 PUSH2 0x165 SWAP2 SWAP1 PUSH2 0x1834 JUMP JUMPDEST PUSH2 0x4B8 JUMP JUMPDEST PUSH1 0x40 MLOAD PUSH2 0x177 SWAP2 SWAP1 PUSH2 0x1870 JUMP JUMPDEST PUSH1 0x40 MLOAD DUP1 SWAP2 SUB SWAP1 RETURN JUMPDEST PUSH2 0x188 PUSH2 0x4D5 JUMP JUMPDEST PUSH1 0x40 MLOAD PUSH2 0x195 SWAP2 SWAP1 PUSH2 0x1870 JUMP JUMPDEST PUSH1 0x40 MLOAD DUP1 SWAP2 SUB SWAP1 RETURN JUMPDEST PUSH2 0x1B8 PUSH1 0x4 DUP1 CALLDATASIZE SUB DUP2 ADD SWAP1 PUSH2 0x1B3 SWAP2 SWAP1 PUSH2 0x1834 JUMP JUMPDEST PUSH2 0x5A3 JUMP JUMPDEST PUSH1 0x40 MLOAD PUSH2 0x1C5 SWAP2 SWAP1 PUSH2 0x1931 JUMP JUMPDEST PUSH1 0x40 MLOAD DUP1 SWAP2 SUB SWAP1 RETURN JUMPDEST PUSH2 0x1D6 PUSH2 0xF0E JUMP JUMPDEST STOP JUMPDEST PUSH2 0x1F2 PUSH1 0x4 DUP1 CALLDATASIZE SUB DUP2 ADD SWAP1 PUSH2 0x1ED SWAP2 SWAP1 PUSH2 0x194C JUMP JUMPDEST PUSH2 0xFDD JUMP JUMPDEST PUSH1 0x40 MLOAD PUSH2 0x1FF SWAP2 SWAP1 PUSH2 0x1931 JUMP JUMPDEST PUSH1 0x40 MLOAD DUP1 SWAP2 SUB SWAP1 RETURN JUMPDEST PUSH2 0x210 PUSH2 0x153E JUMP JUMPDEST PUSH1 0x40 MLOAD PUSH2 0x21D SWAP2 SWAP1 PUSH2 0x199B JUMP JUMPDEST PUSH1 0x40 MLOAD DUP1 SWAP2 SUB SWAP1 RETURN JUMPDEST PUSH2 0x22E PUSH2 0x1567 JUMP JUMPDEST PUSH1 0x40 MLOAD PUSH2 0x23B SWAP2 SWAP1 PUSH2 0x1931 JUMP JUMPDEST PUSH1 0x40 MLOAD DUP1 SWAP2 SUB SWAP1 RETURN JUMPDEST PUSH2 0x25E PUSH1 0x4 DUP1 CALLDATASIZE SUB DUP2 ADD SWAP1 PUSH2 0x259 SWAP2 SWAP1 PUSH2 0x19B6 JUMP JUMPDEST PUSH2 0x15BE JUMP JUMPDEST PUSH1 0x40 MLOAD PUSH2 0x26F SWAP6 SWAP5 SWAP4 SWAP3 SWAP2 SWAP1 PUSH2 0x19F6 JUMP JUMPDEST PUSH1 0x40 MLOAD DUP1 SWAP2 SUB SWAP1 RETURN JUMPDEST PUSH2 0x280 PUSH2 0x1601 JUMP JUMPDEST PUSH1 0x40 MLOAD PUSH2 0x28D SWAP2 SWAP1 PUSH2 0x199B JUMP JUMPDEST PUSH1 0x40 MLOAD DUP1 SWAP2 SUB SWAP1 RETURN JUMPDEST PUSH2 0x29E PUSH2 0x1627 JUMP JUMPDEST PUSH1 0x40 MLOAD PUSH2 0x2AB SWAP2 SWAP1 PUSH2 0x199B JUMP JUMPDEST PUSH1 0x40 MLOAD DUP1 SWAP2 SUB SWAP1 RETURN JUMPDEST PUSH2 0x2CE PUSH1 0x4 DUP1 CALLDATASIZE SUB DUP2 ADD SWAP1 PUSH2 0x2C9 SWAP2 SWAP1 PUSH2 0x194C JUMP JUMPDEST PUSH2 0x164D JUMP JUMPDEST PUSH1 0x40 MLOAD PUSH2 0x2DB SWAP2 SWAP1 PUSH2 0x1870 JUMP JUMPDEST PUSH1 0x40 MLOAD DUP1 SWAP2 SUB SWAP1 RETURN JUMPDEST PUSH2 0x2FE PUSH1 0x4 DUP1 CALLDATASIZE SUB DUP2 ADD SWAP1 PUSH2 0x2F9 SWAP2 SWAP1 PUSH2 0x18E9 JUMP JUMPDEST PUSH2 0x16E6 JUMP JUMPDEST STOP JUMPDEST PUSH2 0x308 PUSH2 0x1567 JUMP JUMPDEST PUSH2 0x311 JUMPI PUSH1 0x0 DUP1 REVERT JUMPDEST PUSH1 0x0 DUP2 GT PUSH2 0x354 JUMPI PUSH1 0x40 MLOAD PUSH32 0x8C379A000000000000000000000000000000000000000000000000000000000 DUP2 MSTORE PUSH1 0x4 ADD PUSH2 0x34B SWAP1 PUSH2 0x1AA6 JUMP JUMPDEST PUSH1 0x40 MLOAD DUP1 SWAP2 SUB SWAP1 REVERT JUMPDEST PUSH1 0x2 PUSH1 0x0 SWAP1 SLOAD SWAP1 PUSH2 0x100 EXP SWAP1 DIV PUSH20 0xFFFFFFFFFFFFFFFFFFFFFFFFFFFFFFFFFFFFFFFF AND PUSH20 0xFFFFFFFFFFFFFFFFFFFFFFFFFFFFFFFFFFFFFFFF AND PUSH4 0x23B872DD PUSH1 0x1 PUSH1 0x0 SWAP1 SLOAD SWAP1 PUSH2 0x100 EXP SWAP1 DIV PUSH20 0xFFFFFFFFFFFFFFFFFFFFFFFFFFFFFFFFFFFFFFFF AND ADDRESS DUP5 PUSH1 0x40 MLOAD DUP5 PUSH4 0xFFFFFFFF AND PUSH1 0xE0 SHL DUP2 MSTORE PUSH1 0x4 ADD PUSH2 0x3D5 SWAP4 SWAP3 SWAP2 SWAP1 PUSH2 0x1AC6 JUMP JUMPDEST PUSH1 0x20 PUSH1 0x40 MLOAD DUP1 DUP4 SUB DUP2 PUSH1 0x0 DUP8 GAS CALL ISZERO DUP1 ISZERO PUSH2 0x3F4 JUMPI RETURNDATASIZE PUSH1 0x0 DUP1 RETURNDATACOPY RETURNDATASIZE PUSH1 0x0 REVERT JUMPDEST POP POP POP POP PUSH1 0x40 MLOAD RETURNDATASIZE PUSH1 0x1F NOT PUSH1 0x1F DUP3 ADD AND DUP3 ADD DUP1 PUSH1 0x40 MSTORE POP DUP2 ADD SWAP1 PUSH2 0x418 SWAP2 SWAP1 PUSH2 0x1B29 JUMP JUMPDEST POP POP JUMP JUMPDEST PUSH1 0x0 PUSH1 0x4 PUSH1 0x0 CALLER PUSH20 0xFFFFFFFFFFFFFFFFFFFFFFFFFFFFFFFFFFFFFFFF AND PUSH20 0xFFFFFFFFFFFFFFFFFFFFFFFFFFFFFFFFFFFFFFFF AND DUP2 MSTORE PUSH1 0x20 ADD SWAP1 DUP2 MSTORE PUSH1 0x20 ADD PUSH1 0x0 KECCAK256 SLOAD SWAP1 POP SWAP1 JUMP JUMPDEST PUSH2 0x46B PUSH2 0x1567 JUMP JUMPDEST PUSH2 0x474 JUMPI PUSH1 0x0 DUP1 REVERT JUMPDEST DUP1 PUSH1 0x1 PUSH1 0x0 PUSH2 0x100 EXP DUP2 SLOAD DUP2 PUSH20 0xFFFFFFFFFFFFFFFFFFFFFFFFFFFFFFFFFFFFFFFF MUL NOT AND SWAP1 DUP4 PUSH20 0xFFFFFFFFFFFFFFFFFFFFFFFFFFFFFFFFFFFFFFFF AND MUL OR SWAP1 SSTORE POP POP JUMP JUMPDEST PUSH1 0x0 PUSH1 0x6 PUSH1 0x0 DUP4 DUP2 MSTORE PUSH1 0x20 ADD SWAP1 DUP2 MSTORE PUSH1 0x20 ADD PUSH1 0x0 KECCAK256 SLOAD SWAP1 POP SWAP2 SWAP1 POP JUMP JUMPDEST PUSH1 0x0 DUP1 PUSH1 0x5 PUSH1 0x0 CALLER PUSH20 0xFFFFFFFFFFFFFFFFFFFFFFFFFFFFFFFFFFFFFFFF AND PUSH20 0xFFFFFFFFFFFFFFFFFFFFFFFFFFFFFFFFFFFFFFFF AND DUP2 MSTORE PUSH1 0x20 ADD SWAP1 DUP2 MSTORE PUSH1 0x20 ADD PUSH1 0x0 KECCAK256 SLOAD GT PUSH2 0x558 JUMPI PUSH1 0x40 MLOAD PUSH32 0x8C379A000000000000000000000000000000000000000000000000000000000 DUP2 MSTORE PUSH1 0x4 ADD PUSH2 0x54F SWAP1 PUSH2 0x1BA2 JUMP JUMPDEST PUSH1 0x40 MLOAD DUP1 SWAP2 SUB SWAP1 REVERT JUMPDEST PUSH1 0x0 PUSH1 0x5 PUSH1 0x0 CALLER PUSH20 0xFFFFFFFFFFFFFFFFFFFFFFFFFFFFFFFFFFFFFFFF AND PUSH20 0xFFFFFFFFFFFFFFFFFFFFFFFFFFFFFFFFFFFFFFFF AND DUP2 MSTORE PUSH1 0x20 ADD SWAP1 DUP2 MSTORE PUSH1 0x20 ADD PUSH1 0x0 KECCAK256 SLOAD SWAP1 POP DUP1 SWAP2 POP POP SWAP1 JUMP JUMPDEST PUSH1 0x0 DUP1 PUSH1 0x0 DUP1 PUSH1 0x0 CALLER SWAP1 POP PUSH1 0x0 PUSH1 0x3 PUSH1 0x0 DUP4 PUSH20 0xFFFFFFFFFFFFFFFFFFFFFFFFFFFFFFFFFFFFFFFF AND PUSH20 0xFFFFFFFFFFFFFFFFFFFFFFFFFFFFFFFFFFFFFFFF AND DUP2 MSTORE PUSH1 0x20 ADD SWAP1 DUP2 MSTORE PUSH1 0x20 ADD PUSH1 0x0 KECCAK256 PUSH1 0x0 DUP9 DUP2 MSTORE PUSH1 0x20 ADD SWAP1 DUP2 MSTORE PUSH1 0x20 ADD PUSH1 0x0 KECCAK256 PUSH1 0x2 ADD SLOAD SWAP1 POP PUSH1 0x0 PUSH1 0x3 PUSH1 0x0 DUP5 PUSH20 0xFFFFFFFFFFFFFFFFFFFFFFFFFFFFFFFFFFFFFFFF AND PUSH20 0xFFFFFFFFFFFFFFFFFFFFFFFFFFFFFFFFFFFFFFFF AND DUP2 MSTORE PUSH1 0x20 ADD SWAP1 DUP2 MSTORE PUSH1 0x20 ADD PUSH1 0x0 KECCAK256 PUSH1 0x0 DUP10 DUP2 MSTORE PUSH1 0x20 ADD SWAP1 DUP2 MSTORE PUSH1 0x20 ADD PUSH1 0x0 KECCAK256 PUSH1 0x3 ADD SLOAD GT PUSH2 0x69C JUMPI PUSH1 0x40 MLOAD PUSH32 0x8C379A000000000000000000000000000000000000000000000000000000000 DUP2 MSTORE PUSH1 0x4 ADD PUSH2 0x693 SWAP1 PUSH2 0x1BA2 JUMP JUMPDEST PUSH1 0x40 MLOAD DUP1 SWAP2 SUB SWAP1 REVERT JUMPDEST DUP1 TIMESTAMP GT ISZERO PUSH2 0x760 JUMPI PUSH1 0x3 PUSH1 0x0 DUP4 PUSH20 0xFFFFFFFFFFFFFFFFFFFFFFFFFFFFFFFFFFFFFFFF AND PUSH20 0xFFFFFFFFFFFFFFFFFFFFFFFFFFFFFFFFFFFFFFFF AND DUP2 MSTORE PUSH1 0x20 ADD SWAP1 DUP2 MSTORE PUSH1 0x20 ADD PUSH1 0x0 KECCAK256 PUSH1 0x0 DUP9 DUP2 MSTORE PUSH1 0x20 ADD SWAP1 DUP2 MSTORE PUSH1 0x20 ADD PUSH1 0x0 KECCAK256 PUSH1 0x4 ADD SLOAD SWAP4 POP DUP4 PUSH1 0x3 PUSH1 0x0 DUP5 PUSH20 0xFFFFFFFFFFFFFFFFFFFFFFFFFFFFFFFFFFFFFFFF AND PUSH20 0xFFFFFFFFFFFFFFFFFFFFFFFFFFFFFFFFFFFFFFFF AND DUP2 MSTORE PUSH1 0x20 ADD SWAP1 DUP2 MSTORE PUSH1 0x20 ADD PUSH1 0x0 KECCAK256 PUSH1 0x0 DUP10 DUP2 MSTORE PUSH1 0x20 ADD SWAP1 DUP2 MSTORE PUSH1 0x20 ADD PUSH1 0x0 KECCAK256 PUSH1 0x3 ADD SLOAD PUSH2 0x759 SWAP2 SWAP1 PUSH2 0x1BF1 JUMP JUMPDEST SWAP5 POP PUSH2 0x827 JUMP JUMPDEST PUSH1 0x3 PUSH1 0x0 DUP4 PUSH20 0xFFFFFFFFFFFFFFFFFFFFFFFFFFFFFFFFFFFFFFFF AND PUSH20 0xFFFFFFFFFFFFFFFFFFFFFFFFFFFFFFFFFFFFFFFF AND DUP2 MSTORE PUSH1 0x20 ADD SWAP1 DUP2 MSTORE PUSH1 0x20 ADD PUSH1 0x0 KECCAK256 PUSH1 0x0 DUP9 DUP2 MSTORE PUSH1 0x20 ADD SWAP1 DUP2 MSTORE PUSH1 0x20 ADD PUSH1 0x0 KECCAK256 PUSH1 0x4 ADD SLOAD SWAP4 POP PUSH1 0x2 DUP5 PUSH2 0x7C3 SWAP2 SWAP1 PUSH2 0x1C54 JUMP JUMPDEST SWAP3 POP DUP3 PUSH1 0x3 PUSH1 0x0 DUP5 PUSH20 0xFFFFFFFFFFFFFFFFFFFFFFFFFFFFFFFFFFFFFFFF AND PUSH20 0xFFFFFFFFFFFFFFFFFFFFFFFFFFFFFFFFFFFFFFFF AND DUP2 MSTORE PUSH1 0x20 ADD SWAP1 DUP2 MSTORE PUSH1 0x20 ADD PUSH1 0x0 KECCAK256 PUSH1 0x0 DUP10 DUP2 MSTORE PUSH1 0x20 ADD SWAP1 DUP2 MSTORE PUSH1 0x20 ADD PUSH1 0x0 KECCAK256 PUSH1 0x3 ADD SLOAD PUSH2 0x824 SWAP2 SWAP1 PUSH2 0x1BF1 JUMP JUMPDEST SWAP5 POP JUMPDEST PUSH1 0x1 PUSH1 0x4 PUSH1 0x0 DUP5 PUSH20 0xFFFFFFFFFFFFFFFFFFFFFFFFFFFFFFFFFFFFFFFF AND PUSH20 0xFFFFFFFFFFFFFFFFFFFFFFFFFFFFFFFFFFFFFFFF AND DUP2 MSTORE PUSH1 0x20 ADD SWAP1 DUP2 MSTORE PUSH1 0x20 ADD PUSH1 0x0 KECCAK256 SLOAD PUSH2 0x873 SWAP2 SWAP1 PUSH2 0x1C85 JUMP JUMPDEST PUSH1 0x4 PUSH1 0x0 DUP5 PUSH20 0xFFFFFFFFFFFFFFFFFFFFFFFFFFFFFFFFFFFFFFFF AND PUSH20 0xFFFFFFFFFFFFFFFFFFFFFFFFFFFFFFFFFFFFFFFF AND DUP2 MSTORE PUSH1 0x20 ADD SWAP1 DUP2 MSTORE PUSH1 0x20 ADD PUSH1 0x0 KECCAK256 DUP2 SWAP1 SSTORE POP PUSH1 0x4 PUSH1 0x0 DUP4 PUSH20 0xFFFFFFFFFFFFFFFFFFFFFFFFFFFFFFFFFFFFFFFF AND PUSH20 0xFFFFFFFFFFFFFFFFFFFFFFFFFFFFFFFFFFFFFFFF AND DUP2 MSTORE PUSH1 0x20 ADD SWAP1 DUP2 MSTORE PUSH1 0x20 ADD PUSH1 0x0 KECCAK256 SLOAD PUSH1 0x7 DUP2 SWAP1 SSTORE POP PUSH1 0x3 PUSH1 0x0 DUP4 PUSH20 0xFFFFFFFFFFFFFFFFFFFFFFFFFFFFFFFFFFFFFFFF AND PUSH20 0xFFFFFFFFFFFFFFFFFFFFFFFFFFFFFFFFFFFFFFFF AND DUP2 MSTORE PUSH1 0x20 ADD SWAP1 DUP2 MSTORE PUSH1 0x20 ADD PUSH1 0x0 KECCAK256 PUSH1 0x0 PUSH1 0x7 SLOAD DUP2 MSTORE PUSH1 0x20 ADD SWAP1 DUP2 MSTORE PUSH1 0x20 ADD PUSH1 0x0 KECCAK256 PUSH1 0x0 ADD SLOAD PUSH1 0x3 PUSH1 0x0 DUP5 PUSH20 0xFFFFFFFFFFFFFFFFFFFFFFFFFFFFFFFFFFFFFFFF AND PUSH20 0xFFFFFFFFFFFFFFFFFFFFFFFFFFFFFFFFFFFFFFFF AND DUP2 MSTORE PUSH1 0x20 ADD SWAP1 DUP2 MSTORE PUSH1 0x20 ADD PUSH1 0x0 KECCAK256 PUSH1 0x0 DUP10 DUP2 MSTORE PUSH1 0x20 ADD SWAP1 DUP2 MSTORE PUSH1 0x20 ADD PUSH1 0x0 KECCAK256 PUSH1 0x0 ADD DUP2 SWAP1 SSTORE POP PUSH1 0x3 PUSH1 0x0 DUP4 PUSH20 0xFFFFFFFFFFFFFFFFFFFFFFFFFFFFFFFFFFFFFFFF AND PUSH20 0xFFFFFFFFFFFFFFFFFFFFFFFFFFFFFFFFFFFFFFFF AND DUP2 MSTORE PUSH1 0x20 ADD SWAP1 DUP2 MSTORE PUSH1 0x20 ADD PUSH1 0x0 KECCAK256 PUSH1 0x0 PUSH1 0x7 SLOAD DUP2 MSTORE PUSH1 0x20 ADD SWAP1 DUP2 MSTORE PUSH1 0x20 ADD PUSH1 0x0 KECCAK256 PUSH1 0x3 ADD SLOAD PUSH1 0x3 PUSH1 0x0 DUP5 PUSH20 0xFFFFFFFFFFFFFFFFFFFFFFFFFFFFFFFFFFFFFFFF AND PUSH20 0xFFFFFFFFFFFFFFFFFFFFFFFFFFFFFFFFFFFFFFFF AND DUP2 MSTORE PUSH1 0x20 ADD SWAP1 DUP2 MSTORE PUSH1 0x20 ADD PUSH1 0x0 KECCAK256 PUSH1 0x0 DUP10 DUP2 MSTORE PUSH1 0x20 ADD SWAP1 DUP2 MSTORE PUSH1 0x20 ADD PUSH1 0x0 KECCAK256 PUSH1 0x3 ADD DUP2 SWAP1 SSTORE POP PUSH1 0x3 PUSH1 0x0 DUP4 PUSH20 0xFFFFFFFFFFFFFFFFFFFFFFFFFFFFFFFFFFFFFFFF AND PUSH20 0xFFFFFFFFFFFFFFFFFFFFFFFFFFFFFFFFFFFFFFFF AND DUP2 MSTORE PUSH1 0x20 ADD SWAP1 DUP2 MSTORE PUSH1 0x20 ADD PUSH1 0x0 KECCAK256 PUSH1 0x0 PUSH1 0x7 SLOAD DUP2 MSTORE PUSH1 0x20 ADD SWAP1 DUP2 MSTORE PUSH1 0x20 ADD PUSH1 0x0 KECCAK256 PUSH1 0x1 ADD SLOAD PUSH1 0x3 PUSH1 0x0 DUP5 PUSH20 0xFFFFFFFFFFFFFFFFFFFFFFFFFFFFFFFFFFFFFFFF AND PUSH20 0xFFFFFFFFFFFFFFFFFFFFFFFFFFFFFFFFFFFFFFFF AND DUP2 MSTORE PUSH1 0x20 ADD SWAP1 DUP2 MSTORE PUSH1 0x20 ADD PUSH1 0x0 KECCAK256 PUSH1 0x0 DUP10 DUP2 MSTORE PUSH1 0x20 ADD SWAP1 DUP2 MSTORE PUSH1 0x20 ADD PUSH1 0x0 KECCAK256 PUSH1 0x1 ADD DUP2 SWAP1 SSTORE POP PUSH1 0x3 PUSH1 0x0 DUP4 PUSH20 0xFFFFFFFFFFFFFFFFFFFFFFFFFFFFFFFFFFFFFFFF AND PUSH20 0xFFFFFFFFFFFFFFFFFFFFFFFFFFFFFFFFFFFFFFFF AND DUP2 MSTORE PUSH1 0x20 ADD SWAP1 DUP2 MSTORE PUSH1 0x20 ADD PUSH1 0x0 KECCAK256 PUSH1 0x0 PUSH1 0x7 SLOAD DUP2 MSTORE PUSH1 0x20 ADD SWAP1 DUP2 MSTORE PUSH1 0x20 ADD PUSH1 0x0 KECCAK256 PUSH1 0x2 ADD SLOAD PUSH1 0x3 PUSH1 0x0 DUP5 PUSH20 0xFFFFFFFFFFFFFFFFFFFFFFFFFFFFFFFFFFFFFFFF AND PUSH20 0xFFFFFFFFFFFFFFFFFFFFFFFFFFFFFFFFFFFFFFFF AND DUP2 MSTORE PUSH1 0x20 ADD SWAP1 DUP2 MSTORE PUSH1 0x20 ADD PUSH1 0x0 KECCAK256 PUSH1 0x0 DUP10 DUP2 MSTORE PUSH1 0x20 ADD SWAP1 DUP2 MSTORE PUSH1 0x20 ADD PUSH1 0x0 KECCAK256 PUSH1 0x2 ADD DUP2 SWAP1 SSTORE POP PUSH1 0x3 PUSH1 0x0 DUP4 PUSH20 0xFFFFFFFFFFFFFFFFFFFFFFFFFFFFFFFFFFFFFFFF AND PUSH20 0xFFFFFFFFFFFFFFFFFFFFFFFFFFFFFFFFFFFFFFFF AND DUP2 MSTORE PUSH1 0x20 ADD SWAP1 DUP2 MSTORE PUSH1 0x20 ADD PUSH1 0x0 KECCAK256 PUSH1 0x0 PUSH1 0x7 SLOAD DUP2 MSTORE PUSH1 0x20 ADD SWAP1 DUP2 MSTORE PUSH1 0x20 ADD PUSH1 0x0 KECCAK256 PUSH1 0x4 ADD SLOAD PUSH1 0x3 PUSH1 0x0 DUP5 PUSH20 0xFFFFFFFFFFFFFFFFFFFFFFFFFFFFFFFFFFFFFFFF AND PUSH20 0xFFFFFFFFFFFFFFFFFFFFFFFFFFFFFFFFFFFFFFFF AND DUP2 MSTORE PUSH1 0x20 ADD SWAP1 DUP2 MSTORE PUSH1 0x20 ADD PUSH1 0x0 KECCAK256 PUSH1 0x0 DUP10 DUP2 MSTORE PUSH1 0x20 ADD SWAP1 DUP2 MSTORE PUSH1 0x20 ADD PUSH1 0x0 KECCAK256 PUSH1 0x4 ADD DUP2 SWAP1 SSTORE POP PUSH1 0x0 PUSH1 0x3 PUSH1 0x0 DUP5 PUSH20 0xFFFFFFFFFFFFFFFFFFFFFFFFFFFFFFFFFFFFFFFF AND PUSH20 0xFFFFFFFFFFFFFFFFFFFFFFFFFFFFFFFFFFFFFFFF AND DUP2 MSTORE PUSH1 0x20 ADD SWAP1 DUP2 MSTORE PUSH1 0x20 ADD PUSH1 0x0 KECCAK256 PUSH1 0x0 PUSH1 0x7 SLOAD DUP2 MSTORE PUSH1 0x20 ADD SWAP1 DUP2 MSTORE PUSH1 0x20 ADD PUSH1 0x0 KECCAK256 PUSH1 0x0 ADD DUP2 SWAP1 SSTORE POP PUSH1 0x0 PUSH1 0x3 PUSH1 0x0 DUP5 PUSH20 0xFFFFFFFFFFFFFFFFFFFFFFFFFFFFFFFFFFFFFFFF AND PUSH20 0xFFFFFFFFFFFFFFFFFFFFFFFFFFFFFFFFFFFFFFFF AND DUP2 MSTORE PUSH1 0x20 ADD SWAP1 DUP2 MSTORE PUSH1 0x20 ADD PUSH1 0x0 KECCAK256 PUSH1 0x0 PUSH1 0x7 SLOAD DUP2 MSTORE PUSH1 0x20 ADD SWAP1 DUP2 MSTORE PUSH1 0x20 ADD PUSH1 0x0 KECCAK256 PUSH1 0x3 ADD DUP2 SWAP1 SSTORE POP PUSH1 0x0 PUSH1 0x3 PUSH1 0x0 DUP5 PUSH20 0xFFFFFFFFFFFFFFFFFFFFFFFFFFFFFFFFFFFFFFFF AND PUSH20 0xFFFFFFFFFFFFFFFFFFFFFFFFFFFFFFFFFFFFFFFF AND DUP2 MSTORE PUSH1 0x20 ADD SWAP1 DUP2 MSTORE PUSH1 0x20 ADD PUSH1 0x0 KECCAK256 PUSH1 0x0 PUSH1 0x7 SLOAD DUP2 MSTORE PUSH1 0x20 ADD SWAP1 DUP2 MSTORE PUSH1 0x20 ADD PUSH1 0x0 KECCAK256 PUSH1 0x1 ADD DUP2 SWAP1 SSTORE POP PUSH1 0x0 PUSH1 0x3 PUSH1 0x0 DUP5 PUSH20 0xFFFFFFFFFFFFFFFFFFFFFFFFFFFFFFFFFFFFFFFF AND PUSH20 0xFFFFFFFFFFFFFFFFFFFFFFFFFFFFFFFFFFFFFFFF AND DUP2 MSTORE PUSH1 0x20 ADD SWAP1 DUP2 MSTORE PUSH1 0x20 ADD PUSH1 0x0 KECCAK256 PUSH1 0x0 PUSH1 0x7 SLOAD DUP2 MSTORE PUSH1 0x20 ADD SWAP1 DUP2 MSTORE PUSH1 0x20 ADD PUSH1 0x0 KECCAK256 PUSH1 0x2 ADD DUP2 SWAP1 SSTORE POP PUSH1 0x0 PUSH1 0x3 PUSH1 0x0 DUP5 PUSH20 0xFFFFFFFFFFFFFFFFFFFFFFFFFFFFFFFFFFFFFFFF AND PUSH20 0xFFFFFFFFFFFFFFFFFFFFFFFFFFFFFFFFFFFFFFFF AND DUP2 MSTORE PUSH1 0x20 ADD SWAP1 DUP2 MSTORE PUSH1 0x20 ADD PUSH1 0x0 KECCAK256 PUSH1 0x0 PUSH1 0x7 SLOAD DUP2 MSTORE PUSH1 0x20 ADD SWAP1 DUP2 MSTORE PUSH1 0x20 ADD PUSH1 0x0 KECCAK256 PUSH1 0x4 ADD DUP2 SWAP1 SSTORE POP PUSH1 0x2 PUSH1 0x0 SWAP1 SLOAD SWAP1 PUSH2 0x100 EXP SWAP1 DIV PUSH20 0xFFFFFFFFFFFFFFFFFFFFFFFFFFFFFFFFFFFFFFFF AND PUSH20 0xFFFFFFFFFFFFFFFFFFFFFFFFFFFFFFFFFFFFFFFF AND PUSH4 0xA9059CBB DUP4 DUP8 PUSH1 0x40 MLOAD DUP4 PUSH4 0xFFFFFFFF AND PUSH1 0xE0 SHL DUP2 MSTORE PUSH1 0x4 ADD PUSH2 0xE81 SWAP3 SWAP2 SWAP1 PUSH2 0x1CB9 JUMP JUMPDEST PUSH1 0x20 PUSH1 0x40 MLOAD DUP1 DUP4 SUB DUP2 PUSH1 0x0 DUP8 GAS CALL ISZERO DUP1 ISZERO PUSH2 0xEA0 JUMPI RETURNDATASIZE PUSH1 0x0 DUP1 RETURNDATACOPY RETURNDATASIZE PUSH1 0x0 REVERT JUMPDEST POP POP POP POP PUSH1 0x40 MLOAD RETURNDATASIZE PUSH1 0x1F NOT PUSH1 0x1F DUP3 ADD AND DUP3 ADD DUP1 PUSH1 0x40 MSTORE POP DUP2 ADD SWAP1 PUSH2 0xEC4 SWAP2 SWAP1 PUSH2 0x1B29 JUMP JUMPDEST POP PUSH32 0x51A7C71612BBC91E40C8399A943910073E3E8EFE41F5904135677EE75E995AA4 DUP8 DUP4 DUP8 PUSH1 0x40 MLOAD PUSH2 0xEF8 SWAP4 SWAP3 SWAP2 SWAP1 PUSH2 0x1CE2 JUMP JUMPDEST PUSH1 0x40 MLOAD DUP1 SWAP2 SUB SWAP1 LOG1 PUSH1 0x1 SWAP6 POP POP POP POP POP POP SWAP2 SWAP1 POP JUMP JUMPDEST PUSH2 0xF16 PUSH2 0x1567 JUMP JUMPDEST PUSH2 0xF1F JUMPI PUSH1 0x0 DUP1 REVERT JUMPDEST PUSH1 0x0 PUSH20 0xFFFFFFFFFFFFFFFFFFFFFFFFFFFFFFFFFFFFFFFF AND PUSH1 0x0 DUP1 SLOAD SWAP1 PUSH2 0x100 EXP SWAP1 DIV PUSH20 0xFFFFFFFFFFFFFFFFFFFFFFFFFFFFFFFFFFFFFFFF AND PUSH20 0xFFFFFFFFFFFFFFFFFFFFFFFFFFFFFFFFFFFFFFFF AND PUSH32 0x8BE0079C531659141344CD1FD0A4F28419497F9722A3DAAFE3B4186F6B6457E0 PUSH1 0x40 MLOAD PUSH1 0x40 MLOAD DUP1 SWAP2 SUB SWAP1 LOG3 PUSH1 0x0 DUP1 PUSH1 0x0 PUSH2 0x100 EXP DUP2 SLOAD DUP2 PUSH20 0xFFFFFFFFFFFFFFFFFFFFFFFFFFFFFFFFFFFFFFFF MUL NOT AND SWAP1 DUP4 PUSH20 0xFFFFFFFFFFFFFFFFFFFFFFFFFFFFFFFFFFFFFFFF AND MUL OR SWAP1 SSTORE POP JUMP JUMPDEST PUSH1 0x0 DUP1 PUSH20 0xFFFFFFFFFFFFFFFFFFFFFFFFFFFFFFFFFFFFFFFF AND CALLER PUSH20 0xFFFFFFFFFFFFFFFFFFFFFFFFFFFFFFFFFFFFFFFF AND SUB PUSH2 0x104D JUMPI PUSH1 0x40 MLOAD PUSH32 0x8C379A000000000000000000000000000000000000000000000000000000000 DUP2 MSTORE PUSH1 0x4 ADD PUSH2 0x1044 SWAP1 PUSH2 0x1D8B JUMP JUMPDEST PUSH1 0x40 MLOAD DUP1 SWAP2 SUB SWAP1 REVERT JUMPDEST DUP2 PUSH1 0x2 PUSH1 0x0 SWAP1 SLOAD SWAP1 PUSH2 0x100 EXP SWAP1 DIV PUSH20 0xFFFFFFFFFFFFFFFFFFFFFFFFFFFFFFFFFFFFFFFF AND PUSH20 0xFFFFFFFFFFFFFFFFFFFFFFFFFFFFFFFFFFFFFFFF AND PUSH4 0x70A08231 CALLER PUSH1 0x40 MLOAD DUP3 PUSH4 0xFFFFFFFF AND PUSH1 0xE0 SHL DUP2 MSTORE PUSH1 0x4 ADD PUSH2 0x10A9 SWAP2 SWAP1 PUSH2 0x199B JUMP JUMPDEST PUSH1 0x20 PUSH1 0x40 MLOAD DUP1 DUP4 SUB DUP2 PUSH1 0x0 DUP8 GAS CALL ISZERO DUP1 ISZERO PUSH2 0x10C8 JUMPI RETURNDATASIZE PUSH1 0x0 DUP1 RETURNDATACOPY RETURNDATASIZE PUSH1 0x0 REVERT JUMPDEST POP POP POP POP PUSH1 0x40 MLOAD RETURNDATASIZE PUSH1 0x1F NOT PUSH1 0x1F DUP3 ADD AND DUP3 ADD DUP1 PUSH1 0x40 MSTORE POP DUP2 ADD SWAP1 PUSH2 0x10EC SWAP2 SWAP1 PUSH2 0x1DC0 JUMP JUMPDEST GT PUSH2 0x112C JUMPI PUSH1 0x40 MLOAD PUSH32 0x8C379A000000000000000000000000000000000000000000000000000000000 DUP2 MSTORE PUSH1 0x4 ADD PUSH2 0x1123 SWAP1 PUSH2 0x1E39 JUMP JUMPDEST PUSH1 0x40 MLOAD DUP1 SWAP2 SUB SWAP1 REVERT JUMPDEST PUSH1 0x0 PUSH1 0x6 PUSH1 0x0 DUP6 DUP2 MSTORE PUSH1 0x20 ADD SWAP1 DUP2 MSTORE PUSH1 0x20 ADD PUSH1 0x0 KECCAK256 SLOAD GT PUSH2 0x1182 JUMPI PUSH1 0x40 MLOAD PUSH32 0x8C379A000000000000000000000000000000000000000000000000000000000 DUP2 MSTORE PUSH1 0x4 ADD PUSH2 0x1179 SWAP1 PUSH2 0x1EA5 JUMP JUMPDEST PUSH1 0x40 MLOAD DUP1 SWAP2 SUB SWAP1 REVERT JUMPDEST PUSH1 0x0 DUP3 GT PUSH2 0x11C5 JUMPI PUSH1 0x40 MLOAD PUSH32 0x8C379A000000000000000000000000000000000000000000000000000000000 DUP2 MSTORE PUSH1 0x4 ADD PUSH2 0x11BC SWAP1 PUSH2 0x1AA6 JUMP JUMPDEST PUSH1 0x40 MLOAD DUP1 SWAP2 SUB SWAP1 REVERT JUMPDEST PUSH1 0x0 PUSH2 0x2710 PUSH1 0x6 PUSH1 0x0 DUP7 DUP2 MSTORE PUSH1 0x20 ADD SWAP1 DUP2 MSTORE PUSH1 0x20 ADD PUSH1 0x0 KECCAK256 SLOAD DUP5 PUSH2 0x11E9 SWAP2 SWAP1 PUSH2 0x1EC5 JUMP JUMPDEST PUSH2 0x11F3 SWAP2 SWAP1 PUSH2 0x1C54 JUMP JUMPDEST SWAP1 POP DUP1 PUSH1 0x5 PUSH1 0x0 CALLER PUSH20 0xFFFFFFFFFFFFFFFFFFFFFFFFFFFFFFFFFFFFFFFF AND PUSH20 0xFFFFFFFFFFFFFFFFFFFFFFFFFFFFFFFFFFFFFFFF AND DUP2 MSTORE PUSH1 0x20 ADD SWAP1 DUP2 MSTORE PUSH1 0x20 ADD PUSH1 0x0 KECCAK256 SLOAD PUSH2 0x1240 SWAP2 SWAP1 PUSH2 0x1BF1 JUMP JUMPDEST PUSH1 0x5 PUSH1 0x0 CALLER PUSH20 0xFFFFFFFFFFFFFFFFFFFFFFFFFFFFFFFFFFFFFFFF AND PUSH20 0xFFFFFFFFFFFFFFFFFFFFFFFFFFFFFFFFFFFFFFFF AND DUP2 MSTORE PUSH1 0x20 ADD SWAP1 DUP2 MSTORE PUSH1 0x20 ADD PUSH1 0x0 KECCAK256 DUP2 SWAP1 SSTORE POP PUSH1 0x40 MLOAD DUP1 PUSH1 0xA0 ADD PUSH1 0x40 MSTORE DUP1 DUP6 DUP2 MSTORE PUSH1 0x20 ADD TIMESTAMP DUP2 MSTORE PUSH1 0x20 ADD PUSH3 0x15180 DUP7 PUSH2 0x12A9 SWAP2 SWAP1 PUSH2 0x1EC5 JUMP JUMPDEST TIMESTAMP PUSH2 0x12B4 SWAP2 SWAP1 PUSH2 0x1BF1 JUMP JUMPDEST DUP2 MSTORE PUSH1 0x20 ADD DUP5 DUP2 MSTORE PUSH1 0x20 ADD DUP3 DUP2 MSTORE POP PUSH1 0x3 PUSH1 0x0 CALLER PUSH20 0xFFFFFFFFFFFFFFFFFFFFFFFFFFFFFFFFFFFFFFFF AND PUSH20 0xFFFFFFFFFFFFFFFFFFFFFFFFFFFFFFFFFFFFFFFF AND DUP2 MSTORE PUSH1 0x20 ADD SWAP1 DUP2 MSTORE PUSH1 0x20 ADD PUSH1 0x0 KECCAK256 PUSH1 0x0 PUSH1 0x4 PUSH1 0x0 CALLER PUSH20 0xFFFFFFFFFFFFFFFFFFFFFFFFFFFFFFFFFFFFFFFF AND PUSH20 0xFFFFFFFFFFFFFFFFFFFFFFFFFFFFFFFFFFFFFFFF AND DUP2 MSTORE PUSH1 0x20 ADD SWAP1 DUP2 MSTORE PUSH1 0x20 ADD PUSH1 0x0 KECCAK256 SLOAD DUP2 MSTORE PUSH1 0x20 ADD SWAP1 DUP2 MSTORE PUSH1 0x20 ADD PUSH1 0x0 KECCAK256 PUSH1 0x0 DUP3 ADD MLOAD DUP2 PUSH1 0x0 ADD SSTORE PUSH1 0x20 DUP3 ADD MLOAD DUP2 PUSH1 0x1 ADD SSTORE PUSH1 0x40 DUP3 ADD MLOAD DUP2 PUSH1 0x2 ADD SSTORE PUSH1 0x60 DUP3 ADD MLOAD DUP2 PUSH1 0x3 ADD SSTORE PUSH1 0x80 DUP3 ADD MLOAD DUP2 PUSH1 0x4 ADD SSTORE SWAP1 POP POP PUSH1 0x2 PUSH1 0x0 SWAP1 SLOAD SWAP1 PUSH2 0x100 EXP SWAP1 DIV PUSH20 0xFFFFFFFFFFFFFFFFFFFFFFFFFFFFFFFFFFFFFFFF AND PUSH20 0xFFFFFFFFFFFFFFFFFFFFFFFFFFFFFFFFFFFFFFFF AND PUSH4 0x23B872DD CALLER ADDRESS DUP7 PUSH1 0x40 MLOAD DUP5 PUSH4 0xFFFFFFFF AND PUSH1 0xE0 SHL DUP2 MSTORE PUSH1 0x4 ADD PUSH2 0x13E6 SWAP4 SWAP3 SWAP2 SWAP1 PUSH2 0x1AC6 JUMP JUMPDEST PUSH1 0x20 PUSH1 0x40 MLOAD DUP1 DUP4 SUB DUP2 PUSH1 0x0 DUP8 GAS CALL ISZERO DUP1 ISZERO PUSH2 0x1405 JUMPI RETURNDATASIZE PUSH1 0x0 DUP1 RETURNDATACOPY RETURNDATASIZE PUSH1 0x0 REVERT JUMPDEST POP POP POP POP PUSH1 0x40 MLOAD RETURNDATASIZE PUSH1 0x1F NOT PUSH1 0x1F DUP3 ADD AND DUP3 ADD DUP1 PUSH1 0x40 MSTORE POP DUP2 ADD SWAP1 PUSH2 0x1429 SWAP2 SWAP1 PUSH2 0x1B29 JUMP JUMPDEST POP PUSH1 0x1 PUSH1 0x4 PUSH1 0x0 CALLER PUSH20 0xFFFFFFFFFFFFFFFFFFFFFFFFFFFFFFFFFFFFFFFF AND PUSH20 0xFFFFFFFFFFFFFFFFFFFFFFFFFFFFFFFFFFFFFFFF AND DUP2 MSTORE PUSH1 0x20 ADD SWAP1 DUP2 MSTORE PUSH1 0x20 ADD PUSH1 0x0 KECCAK256 SLOAD PUSH2 0x1476 SWAP2 SWAP1 PUSH2 0x1BF1 JUMP JUMPDEST PUSH1 0x4 PUSH1 0x0 CALLER PUSH20 0xFFFFFFFFFFFFFFFFFFFFFFFFFFFFFFFFFFFFFFFF AND PUSH20 0xFFFFFFFFFFFFFFFFFFFFFFFFFFFFFFFFFFFFFFFF AND DUP2 MSTORE PUSH1 0x20 ADD SWAP1 DUP2 MSTORE PUSH1 0x20 ADD PUSH1 0x0 KECCAK256 DUP2 SWAP1 SSTORE POP PUSH32 0x2C5661ED6B4853D3121C31BA3030DCCA726029280495B1E64B7DA6645779051A PUSH1 0x4 PUSH1 0x0 CALLER PUSH20 0xFFFFFFFFFFFFFFFFFFFFFFFFFFFFFFFFFFFFFFFF AND PUSH20 0xFFFFFFFFFFFFFFFFFFFFFFFFFFFFFFFFFFFFFFFF AND DUP2 MSTORE PUSH1 0x20 ADD SWAP1 DUP2 MSTORE PUSH1 0x20 ADD PUSH1 0x0 KECCAK256 SLOAD ADDRESS DUP6 PUSH1 0x40 MLOAD PUSH2 0x152B SWAP4 SWAP3 SWAP2 SWAP1 PUSH2 0x1CE2 JUMP JUMPDEST PUSH1 0x40 MLOAD DUP1 SWAP2 SUB SWAP1 LOG1 PUSH1 0x1 SWAP2 POP POP SWAP3 SWAP2 POP POP JUMP JUMPDEST PUSH1 0x0 DUP1 PUSH1 0x0 SWAP1 SLOAD SWAP1 PUSH2 0x100 EXP SWAP1 DIV PUSH20 0xFFFFFFFFFFFFFFFFFFFFFFFFFFFFFFFFFFFFFFFF AND SWAP1 POP SWAP1 JUMP JUMPDEST PUSH1 0x0 DUP1 PUSH1 0x0 SWAP1 SLOAD SWAP1 PUSH2 0x100 EXP SWAP1 DIV PUSH20 0xFFFFFFFFFFFFFFFFFFFFFFFFFFFFFFFFFFFFFFFF AND PUSH20 0xFFFFFFFFFFFFFFFFFFFFFFFFFFFFFFFFFFFFFFFF AND CALLER PUSH20 0xFFFFFFFFFFFFFFFFFFFFFFFFFFFFFFFFFFFFFFFF AND EQ SWAP1 POP SWAP1 JUMP JUMPDEST PUSH1 0x3 PUSH1 0x20 MSTORE DUP2 PUSH1 0x0 MSTORE PUSH1 0x40 PUSH1 0x0 KECCAK256 PUSH1 0x20 MSTORE DUP1 PUSH1 0x0 MSTORE PUSH1 0x40 PUSH1 0x0 KECCAK256 PUSH1 0x0 SWAP2 POP SWAP2 POP POP DUP1 PUSH1 0x0 ADD SLOAD SWAP1 DUP1 PUSH1 0x1 ADD SLOAD SWAP1 DUP1 PUSH1 0x2 ADD SLOAD SWAP1 DUP1 PUSH1 0x3 ADD SLOAD SWAP1 DUP1 PUSH1 0x4 ADD SLOAD SWAP1 POP DUP6 JUMP JUMPDEST PUSH1 0x2 PUSH1 0x0 SWAP1 SLOAD SWAP1 PUSH2 0x100 EXP SWAP1 DIV PUSH20 0xFFFFFFFFFFFFFFFFFFFFFFFFFFFFFFFFFFFFFFFF AND DUP2 JUMP JUMPDEST PUSH1 0x1 PUSH1 0x0 SWAP1 SLOAD SWAP1 PUSH2 0x100 EXP SWAP1 DIV PUSH20 0xFFFFFFFFFFFFFFFFFFFFFFFFFFFFFFFFFFFFFFFF AND DUP2 JUMP JUMPDEST PUSH1 0x0 PUSH2 0x1657 PUSH2 0x1567 JUMP JUMPDEST PUSH2 0x1660 JUMPI PUSH1 0x0 DUP1 REVERT JUMPDEST PUSH2 0x2710 DUP3 GT DUP1 ISZERO PUSH2 0x1673 JUMPI POP PUSH3 0xF4240 DUP3 LT JUMPDEST PUSH2 0x16B2 JUMPI PUSH1 0x40 MLOAD PUSH32 0x8C379A000000000000000000000000000000000000000000000000000000000 DUP2 MSTORE PUSH1 0x4 ADD PUSH2 0x16A9 SWAP1 PUSH2 0x1F79 JUMP JUMPDEST PUSH1 0x40 MLOAD DUP1 SWAP2 SUB SWAP1 REVERT JUMPDEST DUP2 PUSH1 0x6 PUSH1 0x0 DUP6 DUP2 MSTORE PUSH1 0x20 ADD SWAP1 DUP2 MSTORE PUSH1 0x20 ADD PUSH1 0x0 KECCAK256 DUP2 SWAP1 SSTORE POP PUSH1 0x6 PUSH1 0x0 DUP5 DUP2 MSTORE PUSH1 0x20 ADD SWAP1 DUP2 MSTORE PUSH1 0x20 ADD PUSH1 0x0 KECCAK256 SLOAD SWAP1 POP SWAP3 SWAP2 POP POP JUMP JUMPDEST PUSH2 0x16EE PUSH2 0x1567 JUMP JUMPDEST PUSH2 0x16F7 JUMPI PUSH1 0x0 DUP1 REVERT JUMPDEST PUSH2 0x1700 DUP2 PUSH2 0x1703 JUMP JUMPDEST POP JUMP JUMPDEST PUSH1 0x0 PUSH20 0xFFFFFFFFFFFFFFFFFFFFFFFFFFFFFFFFFFFFFFFF AND DUP2 PUSH20 0xFFFFFFFFFFFFFFFFFFFFFFFFFFFFFFFFFFFFFFFF AND SUB PUSH2 0x173C JUMPI PUSH1 0x0 DUP1 REVERT JUMPDEST DUP1 PUSH20 0xFFFFFFFFFFFFFFFFFFFFFFFFFFFFFFFFFFFFFFFF AND PUSH1 0x0 DUP1 SLOAD SWAP1 PUSH2 0x100 EXP SWAP1 DIV PUSH20 0xFFFFFFFFFFFFFFFFFFFFFFFFFFFFFFFFFFFFFFFF AND PUSH20 0xFFFFFFFFFFFFFFFFFFFFFFFFFFFFFFFFFFFFFFFF AND PUSH32 0x8BE0079C531659141344CD1FD0A4F28419497F9722A3DAAFE3B4186F6B6457E0 PUSH1 0x40 MLOAD PUSH1 0x40 MLOAD DUP1 SWAP2 SUB SWAP1 LOG3 DUP1 PUSH1 0x0 DUP1 PUSH2 0x100 EXP DUP2 SLOAD DUP2 PUSH20 0xFFFFFFFFFFFFFFFFFFFFFFFFFFFFFFFFFFFFFFFF MUL NOT AND SWAP1 DUP4 PUSH20 0xFFFFFFFFFFFFFFFFFFFFFFFFFFFFFFFFFFFFFFFF AND MUL OR SWAP1 SSTORE POP POP JUMP JUMPDEST PUSH1 0x0 DUP1 REVERT JUMPDEST PUSH1 0x0 DUP2 SWAP1 POP SWAP2 SWAP1 POP JUMP JUMPDEST PUSH2 0x1811 DUP2 PUSH2 0x17FE JUMP JUMPDEST DUP2 EQ PUSH2 0x181C JUMPI PUSH1 0x0 DUP1 REVERT JUMPDEST POP JUMP JUMPDEST PUSH1 0x0 DUP2 CALLDATALOAD SWAP1 POP PUSH2 0x182E DUP2 PUSH2 0x1808 JUMP JUMPDEST SWAP3 SWAP2 POP POP JUMP JUMPDEST PUSH1 0x0 PUSH1 0x20 DUP3 DUP5 SUB SLT ISZERO PUSH2 0x184A JUMPI PUSH2 0x1849 PUSH2 0x17F9 JUMP JUMPDEST JUMPDEST PUSH1 0x0 PUSH2 0x1858 DUP5 DUP3 DUP6 ADD PUSH2 0x181F JUMP JUMPDEST SWAP2 POP POP SWAP3 SWAP2 POP POP JUMP JUMPDEST PUSH2 0x186A DUP2 PUSH2 0x17FE JUMP JUMPDEST DUP3 MSTORE POP POP JUMP JUMPDEST PUSH1 0x0 PUSH1 0x20 DUP3 ADD SWAP1 POP PUSH2 0x1885 PUSH1 0x0 DUP4 ADD DUP5 PUSH2 0x1861 JUMP JUMPDEST SWAP3 SWAP2 POP POP JUMP JUMPDEST PUSH1 0x0 PUSH20 0xFFFFFFFFFFFFFFFFFFFFFFFFFFFFFFFFFFFFFFFF DUP3 AND SWAP1 POP SWAP2 SWAP1 POP JUMP JUMPDEST PUSH1 0x0 PUSH2 0x18B6 DUP3 PUSH2 0x188B JUMP JUMPDEST SWAP1 POP SWAP2 SWAP1 POP JUMP JUMPDEST PUSH2 0x18C6 DUP2 PUSH2 0x18AB JUMP JUMPDEST DUP2 EQ PUSH2 0x18D1 JUMPI PUSH1 0x0 DUP1 REVERT JUMPDEST POP JUMP JUMPDEST PUSH1 0x0 DUP2 CALLDATALOAD SWAP1 POP PUSH2 0x18E3 DUP2 PUSH2 0x18BD JUMP JUMPDEST SWAP3 SWAP2 POP POP JUMP JUMPDEST PUSH1 0x0 PUSH1 0x20 DUP3 DUP5 SUB SLT ISZERO PUSH2 0x18FF JUMPI PUSH2 0x18FE PUSH2 0x17F9 JUMP JUMPDEST JUMPDEST PUSH1 0x0 PUSH2 0x190D DUP5 DUP3 DUP6 ADD PUSH2 0x18D4 JUMP JUMPDEST SWAP2 POP POP SWAP3 SWAP2 POP POP JUMP JUMPDEST PUSH1 0x0 DUP2 ISZERO ISZERO SWAP1 POP SWAP2 SWAP1 POP JUMP JUMPDEST PUSH2 0x192B DUP2 PUSH2 0x1916 JUMP JUMPDEST DUP3 MSTORE POP POP JUMP JUMPDEST PUSH1 0x0 PUSH1 0x20 DUP3 ADD SWAP1 POP PUSH2 0x1946 PUSH1 0x0 DUP4 ADD DUP5 PUSH2 0x1922 JUMP JUMPDEST SWAP3 SWAP2 POP POP JUMP JUMPDEST PUSH1 0x0 DUP1 PUSH1 0x40 DUP4 DUP6 SUB SLT ISZERO PUSH2 0x1963 JUMPI PUSH2 0x1962 PUSH2 0x17F9 JUMP JUMPDEST JUMPDEST PUSH1 0x0 PUSH2 0x1971 DUP6 DUP3 DUP7 ADD PUSH2 0x181F JUMP JUMPDEST SWAP3 POP POP PUSH1 0x20 PUSH2 0x1982 DUP6 DUP3 DUP7 ADD PUSH2 0x181F JUMP JUMPDEST SWAP2 POP POP SWAP3 POP SWAP3 SWAP1 POP JUMP JUMPDEST PUSH2 0x1995 DUP2 PUSH2 0x18AB JUMP JUMPDEST DUP3 MSTORE POP POP JUMP JUMPDEST PUSH1 0x0 PUSH1 0x20 DUP3 ADD SWAP1 POP PUSH2 0x19B0 PUSH1 0x0 DUP4 ADD DUP5 PUSH2 0x198C JUMP JUMPDEST SWAP3 SWAP2 POP POP JUMP JUMPDEST PUSH1 0x0 DUP1 PUSH1 0x40 DUP4 DUP6 SUB SLT ISZERO PUSH2 0x19CD JUMPI PUSH2 0x19CC PUSH2 0x17F9 JUMP JUMPDEST JUMPDEST PUSH1 0x0 PUSH2 0x19DB DUP6 DUP3 DUP7 ADD PUSH2 0x18D4 JUMP JUMPDEST SWAP3 POP POP PUSH1 0x20 PUSH2 0x19EC DUP6 DUP3 DUP7 ADD PUSH2 0x181F JUMP JUMPDEST SWAP2 POP POP SWAP3 POP SWAP3 SWAP1 POP JUMP JUMPDEST PUSH1 0x0 PUSH1 0xA0 DUP3 ADD SWAP1 POP PUSH2 0x1A0B PUSH1 0x0 DUP4 ADD DUP9 PUSH2 0x1861 JUMP JUMPDEST PUSH2 0x1A18 PUSH1 0x20 DUP4 ADD DUP8 PUSH2 0x1861 JUMP JUMPDEST PUSH2 0x1A25 PUSH1 0x40 DUP4 ADD DUP7 PUSH2 0x1861 JUMP JUMPDEST PUSH2 0x1A32 PUSH1 0x60 DUP4 ADD DUP6 PUSH2 0x1861 JUMP JUMPDEST PUSH2 0x1A3F PUSH1 0x80 DUP4 ADD DUP5 PUSH2 0x1861 JUMP JUMPDEST SWAP7 SWAP6 POP POP POP POP POP POP JUMP JUMPDEST PUSH1 0x0 DUP3 DUP3 MSTORE PUSH1 0x20 DUP3 ADD SWAP1 POP SWAP3 SWAP2 POP POP JUMP JUMPDEST PUSH32 0x416D6F756E742073686F756C642062652067726561746572207468656E203000 PUSH1 0x0 DUP3 ADD MSTORE POP JUMP JUMPDEST PUSH1 0x0 PUSH2 0x1A90 PUSH1 0x1F DUP4 PUSH2 0x1A49 JUMP JUMPDEST SWAP2 POP PUSH2 0x1A9B DUP3 PUSH2 0x1A5A JUMP JUMPDEST PUSH1 0x20 DUP3 ADD SWAP1 POP SWAP2 SWAP1 POP JUMP JUMPDEST PUSH1 0x0 PUSH1 0x20 DUP3 ADD SWAP1 POP DUP2 DUP2 SUB PUSH1 0x0 DUP4 ADD MSTORE PUSH2 0x1ABF DUP2 PUSH2 0x1A83 JUMP JUMPDEST SWAP1 POP SWAP2 SWAP1 POP JUMP JUMPDEST PUSH1 0x0 PUSH1 0x60 DUP3 ADD SWAP1 POP PUSH2 0x1ADB PUSH1 0x0 DUP4 ADD DUP7 PUSH2 0x198C JUMP JUMPDEST PUSH2 0x1AE8 PUSH1 0x20 DUP4 ADD DUP6 PUSH2 0x198C JUMP JUMPDEST PUSH2 0x1AF5 PUSH1 0x40 DUP4 ADD DUP5 PUSH2 0x1861 JUMP JUMPDEST SWAP5 SWAP4 POP POP POP POP JUMP JUMPDEST PUSH2 0x1B06 DUP2 PUSH2 0x1916 JUMP JUMPDEST DUP2 EQ PUSH2 0x1B11 JUMPI PUSH1 0x0 DUP1 REVERT JUMPDEST POP JUMP JUMPDEST PUSH1 0x0 DUP2 MLOAD SWAP1 POP PUSH2 0x1B23 DUP2 PUSH2 0x1AFD JUMP JUMPDEST SWAP3 SWAP2 POP POP JUMP JUMPDEST PUSH1 0x0 PUSH1 0x20 DUP3 DUP5 SUB SLT ISZERO PUSH2 0x1B3F JUMPI PUSH2 0x1B3E PUSH2 0x17F9 JUMP JUMPDEST JUMPDEST PUSH1 0x0 PUSH2 0x1B4D DUP5 DUP3 DUP6 ADD PUSH2 0x1B14 JUMP JUMPDEST SWAP2 POP POP SWAP3 SWAP2 POP POP JUMP JUMPDEST PUSH32 0x57616C6C65742041646472657373206973206E6F742045786973740000000000 PUSH1 0x0 DUP3 ADD MSTORE POP JUMP JUMPDEST PUSH1 0x0 PUSH2 0x1B8C PUSH1 0x1B DUP4 PUSH2 0x1A49 JUMP JUMPDEST SWAP2 POP PUSH2 0x1B97 DUP3 PUSH2 0x1B56 JUMP JUMPDEST PUSH1 0x20 DUP3 ADD SWAP1 POP SWAP2 SWAP1 POP JUMP JUMPDEST PUSH1 0x0 PUSH1 0x20 DUP3 ADD SWAP1 POP DUP2 DUP2 SUB PUSH1 0x0 DUP4 ADD MSTORE PUSH2 0x1BBB DUP2 PUSH2 0x1B7F JUMP JUMPDEST SWAP1 POP SWAP2 SWAP1 POP JUMP JUMPDEST PUSH32 0x4E487B7100000000000000000000000000000000000000000000000000000000 PUSH1 0x0 MSTORE PUSH1 0x11 PUSH1 0x4 MSTORE PUSH1 0x24 PUSH1 0x0 REVERT JUMPDEST PUSH1 0x0 PUSH2 0x1BFC DUP3 PUSH2 0x17FE JUMP JUMPDEST SWAP2 POP PUSH2 0x1C07 DUP4 PUSH2 0x17FE JUMP JUMPDEST SWAP3 POP DUP3 DUP3 ADD SWAP1 POP DUP1 DUP3 GT ISZERO PUSH2 0x1C1F JUMPI PUSH2 0x1C1E PUSH2 0x1BC2 JUMP JUMPDEST JUMPDEST SWAP3 SWAP2 POP POP JUMP JUMPDEST PUSH32 0x4E487B7100000000000000000000000000000000000000000000000000000000 PUSH1 0x0 MSTORE PUSH1 0x12 PUSH1 0x4 MSTORE PUSH1 0x24 PUSH1 0x0 REVERT JUMPDEST PUSH1 0x0 PUSH2 0x1C5F DUP3 PUSH2 0x17FE JUMP JUMPDEST SWAP2 POP PUSH2 0x1C6A DUP4 PUSH2 0x17FE JUMP JUMPDEST SWAP3 POP DUP3 PUSH2 0x1C7A JUMPI PUSH2 0x1C79 PUSH2 0x1C25 JUMP JUMPDEST JUMPDEST DUP3 DUP3 DIV SWAP1 POP SWAP3 SWAP2 POP POP JUMP JUMPDEST PUSH1 0x0 PUSH2 0x1C90 DUP3 PUSH2 0x17FE JUMP JUMPDEST SWAP2 POP PUSH2 0x1C9B DUP4 PUSH2 0x17FE JUMP JUMPDEST SWAP3 POP DUP3 DUP3 SUB SWAP1 POP DUP2 DUP2 GT ISZERO PUSH2 0x1CB3 JUMPI PUSH2 0x1CB2 PUSH2 0x1BC2 JUMP JUMPDEST JUMPDEST SWAP3 SWAP2 POP POP JUMP JUMPDEST PUSH1 0x0 PUSH1 0x40 DUP3 ADD SWAP1 POP PUSH2 0x1CCE PUSH1 0x0 DUP4 ADD DUP6 PUSH2 0x198C JUMP JUMPDEST PUSH2 0x1CDB PUSH1 0x20 DUP4 ADD DUP5 PUSH2 0x1861 JUMP JUMPDEST SWAP4 SWAP3 POP POP POP JUMP JUMPDEST PUSH1 0x0 PUSH1 0x60 DUP3 ADD SWAP1 POP PUSH2 0x1CF7 PUSH1 0x0 DUP4 ADD DUP7 PUSH2 0x1861 JUMP JUMPDEST PUSH2 0x1D04 PUSH1 0x20 DUP4 ADD DUP6 PUSH2 0x198C JUMP JUMPDEST PUSH2 0x1D11 PUSH1 0x40 DUP4 ADD DUP5 PUSH2 0x1861 JUMP JUMPDEST SWAP5 SWAP4 POP POP POP POP JUMP JUMPDEST PUSH32 0x57616C6C657420416464726573732063616E206E6F7420626520616464726573 PUSH1 0x0 DUP3 ADD MSTORE PUSH32 0x7320300000000000000000000000000000000000000000000000000000000000 PUSH1 0x20 DUP3 ADD MSTORE POP JUMP JUMPDEST PUSH1 0x0 PUSH2 0x1D75 PUSH1 0x23 DUP4 PUSH2 0x1A49 JUMP JUMPDEST SWAP2 POP PUSH2 0x1D80 DUP3 PUSH2 0x1D19 JUMP JUMPDEST PUSH1 0x40 DUP3 ADD SWAP1 POP SWAP2 SWAP1 POP JUMP JUMPDEST PUSH1 0x0 PUSH1 0x20 DUP3 ADD SWAP1 POP DUP2 DUP2 SUB PUSH1 0x0 DUP4 ADD MSTORE PUSH2 0x1DA4 DUP2 PUSH2 0x1D68 JUMP JUMPDEST SWAP1 POP SWAP2 SWAP1 POP JUMP JUMPDEST PUSH1 0x0 DUP2 MLOAD SWAP1 POP PUSH2 0x1DBA DUP2 PUSH2 0x1808 JUMP JUMPDEST SWAP3 SWAP2 POP POP JUMP JUMPDEST PUSH1 0x0 PUSH1 0x20 DUP3 DUP5 SUB SLT ISZERO PUSH2 0x1DD6 JUMPI PUSH2 0x1DD5 PUSH2 0x17F9 JUMP JUMPDEST JUMPDEST PUSH1 0x0 PUSH2 0x1DE4 DUP5 DUP3 DUP6 ADD PUSH2 0x1DAB JUMP JUMPDEST SWAP2 POP POP SWAP3 SWAP2 POP POP JUMP JUMPDEST PUSH32 0x496E73756666696369656E7420746F6B656E7300000000000000000000000000 PUSH1 0x0 DUP3 ADD MSTORE POP JUMP JUMPDEST PUSH1 0x0 PUSH2 0x1E23 PUSH1 0x13 DUP4 PUSH2 0x1A49 JUMP JUMPDEST SWAP2 POP PUSH2 0x1E2E DUP3 PUSH2 0x1DED JUMP JUMPDEST PUSH1 0x20 DUP3 ADD SWAP1 POP SWAP2 SWAP1 POP JUMP JUMPDEST PUSH1 0x0 PUSH1 0x20 DUP3 ADD SWAP1 POP DUP2 DUP2 SUB PUSH1 0x0 DUP4 ADD MSTORE PUSH2 0x1E52 DUP2 PUSH2 0x1E16 JUMP JUMPDEST SWAP1 POP SWAP2 SWAP1 POP JUMP JUMPDEST PUSH32 0x506C6561736520656E7465722076616C696420737461636B2064617973000000 PUSH1 0x0 DUP3 ADD MSTORE POP JUMP JUMPDEST PUSH1 0x0 PUSH2 0x1E8F PUSH1 0x1D DUP4 PUSH2 0x1A49 JUMP JUMPDEST SWAP2 POP PUSH2 0x1E9A DUP3 PUSH2 0x1E59 JUMP JUMPDEST PUSH1 0x20 DUP3 ADD SWAP1 POP SWAP2 SWAP1 POP JUMP JUMPDEST PUSH1 0x0 PUSH1 0x20 DUP3 ADD SWAP1 POP DUP2 DUP2 SUB PUSH1 0x0 DUP4 ADD MSTORE PUSH2 0x1EBE DUP2 PUSH2 0x1E82 JUMP JUMPDEST SWAP1 POP SWAP2 SWAP1 POP JUMP JUMPDEST PUSH1 0x0 PUSH2 0x1ED0 DUP3 PUSH2 0x17FE JUMP JUMPDEST SWAP2 POP PUSH2 0x1EDB DUP4 PUSH2 0x17FE JUMP JUMPDEST SWAP3 POP DUP3 DUP3 MUL PUSH2 0x1EE9 DUP2 PUSH2 0x17FE JUMP JUMPDEST SWAP2 POP DUP3 DUP3 DIV DUP5 EQ DUP4 ISZERO OR PUSH2 0x1F00 JUMPI PUSH2 0x1EFF PUSH2 0x1BC2 JUMP JUMPDEST JUMPDEST POP SWAP3 SWAP2 POP POP JUMP JUMPDEST PUSH32 0x496E76616C696420706172616D657465722073657420666F72206368616E6765 PUSH1 0x0 DUP3 ADD MSTORE PUSH32 0x2070657263656E746167652E0000000000000000000000000000000000000000 PUSH1 0x20 DUP3 ADD MSTORE POP JUMP JUMPDEST PUSH1 0x0 PUSH2 0x1F63 PUSH1 0x2C DUP4 PUSH2 0x1A49 JUMP JUMPDEST SWAP2 POP PUSH2 0x1F6E DUP3 PUSH2 0x1F07 JUMP JUMPDEST PUSH1 0x40 DUP3 ADD SWAP1 POP SWAP2 SWAP1 POP JUMP JUMPDEST PUSH1 0x0 PUSH1 0x20 DUP3 ADD SWAP1 POP DUP2 DUP2 SUB PUSH1 0x0 DUP4 ADD MSTORE PUSH2 0x1F92 DUP2 PUSH2 0x1F56 JUMP JUMPDEST SWAP1 POP SWAP2 SWAP1 POP JUMP INVALID LOG2 PUSH5 0x6970667358 0x22 SLT KECCAK256 0x28 0xBE SELFBALANCE RETURN 0xE5 0x5F 0xD1 0xB6 BASEFEE 0xE5 SMOD 0xDE PUSH11 0x367E9326D300B0A98D39D2 0xD4 0xD0 PREVRANDAO 0xC9 GASPRICE REVERT SWAP13 0xAB PUSH5 0x736F6C6343 STOP ADDMOD SGT STOP CALLER "
				},
				"gasEstimates": {
					"creation": {
						"codeDepositCost": "1628600",
						"executionCost": "infinite",
						"totalCost": "infinite"
					},
					"external": {
						"ActiveStake()": "2572",
						"RewardPercentageChange(uint256,uint256)": "infinite",
						"RewardPoolAddress()": "2558",
						"TotalProfitedAmt()": "4796",
						"changeRewardPoolAddress(address)": "26995",
						"isOwner()": "2563",
						"owner()": "2567",
						"renounceOwnership()": "30383",
						"setRewardToken(uint256)": "infinite",
						"stake(uint256,uint256)": "infinite",
						"staking(address,uint256)": "infinite",
						"tokenAddress()": "2536",
						"transferOwnership(address)": "30757",
						"unStake(uint256)": "infinite",
						"viewPercentage(uint256)": "infinite"
					}
				},
				"methodIdentifiers": {
					"ActiveStake()": "1fe19cd9",
					"RewardPercentageChange(uint256,uint256)": "b073ca81",
					"RewardPoolAddress()": "9e9593ce",
					"TotalProfitedAmt()": "4f17edf9",
					"changeRewardPoolAddress(address)": "295d801e",
					"isOwner()": "8f32d59b",
					"owner()": "8da5cb5b",
					"renounceOwnership()": "715018a6",
					"setRewardToken(uint256)": "07b7d86f",
					"stake(uint256,uint256)": "7b0472f0",
					"staking(address,uint256)": "95dfea77",
					"tokenAddress()": "9d76ea58",
					"transferOwnership(address)": "f2fde38b",
					"unStake(uint256)": "5d3eea91",
					"viewPercentage(uint256)": "44ed10ba"
				}
			},
			"storageLayout": {
				"storage": [
					{
						"astId": 41,
						"contract": "contracts/Stake.sol:Stake",
						"label": "_owner",
						"offset": 0,
						"slot": "0",
						"type": "t_address"
					},
					{
						"astId": 173,
						"contract": "contracts/Stake.sol:Stake",
						"label": "RewardPoolAddress",
						"offset": 0,
						"slot": "1",
						"type": "t_address"
					},
					{
						"astId": 179,
						"contract": "contracts/Stake.sol:Stake",
						"label": "tokenAddress",
						"offset": 0,
						"slot": "2",
						"type": "t_address"
					},
					{
						"astId": 186,
						"contract": "contracts/Stake.sol:Stake",
						"label": "staking",
						"offset": 0,
						"slot": "3",
						"type": "t_mapping(t_address,t_mapping(t_uint256,t_struct(_staking)171_storage))"
					},
					{
						"astId": 190,
						"contract": "contracts/Stake.sol:Stake",
						"label": "activeStake",
						"offset": 0,
						"slot": "4",
						"type": "t_mapping(t_address,t_uint256)"
					},
					{
						"astId": 194,
						"contract": "contracts/Stake.sol:Stake",
						"label": "TotalProfit",
						"offset": 0,
						"slot": "5",
						"type": "t_mapping(t_address,t_uint256)"
					},
					{
						"astId": 198,
						"contract": "contracts/Stake.sol:Stake",
						"label": "RewardPercentage",
						"offset": 0,
						"slot": "6",
						"type": "t_mapping(t_uint256,t_uint256)"
					},
					{
						"astId": 200,
						"contract": "contracts/Stake.sol:Stake",
						"label": "lastStake",
						"offset": 0,
						"slot": "7",
						"type": "t_uint256"
					}
				],
				"types": {
					"t_address": {
						"encoding": "inplace",
						"label": "address",
						"numberOfBytes": "20"
					},
					"t_mapping(t_address,t_mapping(t_uint256,t_struct(_staking)171_storage))": {
						"encoding": "mapping",
						"key": "t_address",
						"label": "mapping(address => mapping(uint256 => struct Stake._staking))",
						"numberOfBytes": "32",
						"value": "t_mapping(t_uint256,t_struct(_staking)171_storage)"
					},
					"t_mapping(t_address,t_uint256)": {
						"encoding": "mapping",
						"key": "t_address",
						"label": "mapping(address => uint256)",
						"numberOfBytes": "32",
						"value": "t_uint256"
					},
					"t_mapping(t_uint256,t_struct(_staking)171_storage)": {
						"encoding": "mapping",
						"key": "t_uint256",
						"label": "mapping(uint256 => struct Stake._staking)",
						"numberOfBytes": "32",
						"value": "t_struct(_staking)171_storage"
					},
					"t_mapping(t_uint256,t_uint256)": {
						"encoding": "mapping",
						"key": "t_uint256",
						"label": "mapping(uint256 => uint256)",
						"numberOfBytes": "32",
						"value": "t_uint256"
					},
					"t_struct(_staking)171_storage": {
						"encoding": "inplace",
						"label": "struct Stake._staking",
						"members": [
							{
								"astId": 162,
								"contract": "contracts/Stake.sol:Stake",
								"label": "_days",
								"offset": 0,
								"slot": "0",
								"type": "t_uint256"
							},
							{
								"astId": 164,
								"contract": "contracts/Stake.sol:Stake",
								"label": "_stakingStarttime",
								"offset": 0,
								"slot": "1",
								"type": "t_uint256"
							},
							{
								"astId": 166,
								"contract": "contracts/Stake.sol:Stake",
								"label": "_stakingEndtime",
								"offset": 0,
								"slot": "2",
								"type": "t_uint256"
							},
							{
								"astId": 168,
								"contract": "contracts/Stake.sol:Stake",
								"label": "_amount",
								"offset": 0,
								"slot": "3",
								"type": "t_uint256"
							},
							{
								"astId": 170,
								"contract": "contracts/Stake.sol:Stake",
								"label": "_profit",
								"offset": 0,
								"slot": "4",
								"type": "t_uint256"
							}
						],
						"numberOfBytes": "160"
					},
					"t_uint256": {
						"encoding": "inplace",
						"label": "uint256",
						"numberOfBytes": "32"
					}
				}
			},
			"userdoc": {
				"kind": "user",
				"methods": {
					"renounceOwnership()": {
						"notice": "Renouncing ownership will leave the contract without an owner, thereby removing any functionality that is only available to the owner."
					}
				},
				"version": 1
			}
		}
	}
}